{
  "contractName": "Crowdfunding",
  "abi": [
    {
      "inputs": [
        {
          "internalType": "uint256",
          "name": "",
          "type": "uint256"
        },
        {
          "internalType": "uint256",
          "name": "",
          "type": "uint256"
        }
      ],
      "name": "boxOffers",
      "outputs": [
        {
          "components": [
            {
              "internalType": "string",
              "name": "title",
              "type": "string"
            },
            {
              "internalType": "string",
              "name": "description",
              "type": "string"
            },
            {
              "internalType": "uint16",
              "name": "price",
              "type": "uint16"
            }
          ],
          "internalType": "struct Crowdfunding.Box",
          "name": "box",
          "type": "tuple"
        },
        {
          "internalType": "uint32",
          "name": "total",
          "type": "uint32"
        },
        {
          "internalType": "uint32",
          "name": "available",
          "type": "uint32"
        }
      ],
      "stateMutability": "view",
      "type": "function",
      "constant": true
    },
    {
      "inputs": [
        {
          "internalType": "uint256",
          "name": "",
          "type": "uint256"
        }
      ],
      "name": "campaigns",
      "outputs": [
        {
          "internalType": "address",
          "name": "owner",
          "type": "address"
        },
        {
          "internalType": "string",
          "name": "title",
          "type": "string"
        },
        {
          "internalType": "string",
          "name": "description",
          "type": "string"
        },
        {
          "internalType": "uint256",
          "name": "collectedAmount",
          "type": "uint256"
        },
        {
          "internalType": "uint256",
          "name": "deadline",
          "type": "uint256"
        },
        {
          "internalType": "uint256",
          "name": "boxesLeft",
          "type": "uint256"
        },
        {
          "internalType": "bool",
          "name": "isStopped",
          "type": "bool"
        }
      ],
      "stateMutability": "view",
      "type": "function",
      "constant": true
    },
    {
      "inputs": [],
      "name": "numberOfCampaigns",
      "outputs": [
        {
          "internalType": "uint256",
          "name": "",
          "type": "uint256"
        }
      ],
      "stateMutability": "view",
      "type": "function",
      "constant": true
    },
    {
      "inputs": [
        {
          "internalType": "address",
          "name": "",
          "type": "address"
        },
        {
          "internalType": "uint256",
          "name": "",
          "type": "uint256"
        },
        {
          "internalType": "uint256",
          "name": "",
          "type": "uint256"
        }
      ],
      "name": "soldBoxesAddress",
      "outputs": [
        {
          "internalType": "string",
          "name": "title",
          "type": "string"
        },
        {
          "internalType": "string",
          "name": "description",
          "type": "string"
        },
        {
          "internalType": "uint16",
          "name": "price",
          "type": "uint16"
        }
      ],
      "stateMutability": "view",
      "type": "function",
      "constant": true
    },
    {
      "inputs": [
        {
          "internalType": "uint256",
          "name": "",
          "type": "uint256"
        },
        {
          "internalType": "address",
          "name": "",
          "type": "address"
        },
        {
          "internalType": "uint256",
          "name": "",
          "type": "uint256"
        }
      ],
      "name": "soldBoxesCampaign",
      "outputs": [
        {
          "internalType": "string",
          "name": "title",
          "type": "string"
        },
        {
          "internalType": "string",
          "name": "description",
          "type": "string"
        },
        {
          "internalType": "uint16",
          "name": "price",
          "type": "uint16"
        }
      ],
      "stateMutability": "view",
      "type": "function",
      "constant": true
    },
    {
      "inputs": [
        {
          "internalType": "address",
          "name": "_owner",
          "type": "address"
        },
        {
          "internalType": "string",
          "name": "_title",
          "type": "string"
        },
        {
          "internalType": "string",
          "name": "_description",
          "type": "string"
        },
        {
          "internalType": "uint32",
          "name": "_duration",
          "type": "uint32"
        },
        {
          "components": [
            {
              "components": [
                {
                  "internalType": "string",
                  "name": "title",
                  "type": "string"
                },
                {
                  "internalType": "string",
                  "name": "description",
                  "type": "string"
                },
                {
                  "internalType": "uint16",
                  "name": "price",
                  "type": "uint16"
                }
              ],
              "internalType": "struct Crowdfunding.Box",
              "name": "box",
              "type": "tuple"
            },
            {
              "internalType": "uint32",
              "name": "total",
              "type": "uint32"
            },
            {
              "internalType": "uint32",
              "name": "available",
              "type": "uint32"
            }
          ],
          "internalType": "struct Crowdfunding.BoxOffer[]",
          "name": "_boxes",
          "type": "tuple[]"
        }
      ],
      "name": "createCampaign",
      "outputs": [
        {
          "internalType": "uint256",
          "name": "",
          "type": "uint256"
        }
      ],
      "stateMutability": "nonpayable",
      "type": "function"
    },
    {
      "inputs": [],
      "name": "getNumberOfCampaigns",
      "outputs": [
        {
          "internalType": "uint256",
          "name": "",
          "type": "uint256"
        }
      ],
      "stateMutability": "view",
      "type": "function",
      "constant": true
    },
    {
      "inputs": [
        {
          "internalType": "uint256",
          "name": "_campaignId",
          "type": "uint256"
        }
      ],
      "name": "stopCampaign",
      "outputs": [
        {
          "internalType": "bool",
          "name": "",
          "type": "bool"
        }
      ],
      "stateMutability": "nonpayable",
      "type": "function"
    },
    {
      "inputs": [
        {
          "internalType": "uint256",
          "name": "_campaignId",
          "type": "uint256"
        },
        {
          "internalType": "uint256",
          "name": "_boxId",
          "type": "uint256"
        }
      ],
      "name": "buyBox",
      "outputs": [],
      "stateMutability": "payable",
      "type": "function",
      "payable": true
    },
    {
      "inputs": [
        {
          "internalType": "uint256",
          "name": "_campaignId",
          "type": "uint256"
        }
      ],
      "name": "getCampaign",
      "outputs": [
        {
          "components": [
            {
              "internalType": "uint256",
              "name": "id",
              "type": "uint256"
            },
            {
              "components": [
                {
                  "internalType": "address",
                  "name": "owner",
                  "type": "address"
                },
                {
                  "internalType": "string",
                  "name": "title",
                  "type": "string"
                },
                {
                  "internalType": "string",
                  "name": "description",
                  "type": "string"
                },
                {
                  "internalType": "uint256",
                  "name": "collectedAmount",
                  "type": "uint256"
                },
                {
                  "internalType": "uint256",
                  "name": "deadline",
                  "type": "uint256"
                },
                {
                  "internalType": "uint256",
                  "name": "boxesLeft",
                  "type": "uint256"
                },
                {
                  "internalType": "bool",
                  "name": "isStopped",
                  "type": "bool"
                }
              ],
              "internalType": "struct Crowdfunding.Campaign",
              "name": "campaign",
              "type": "tuple"
            }
          ],
          "internalType": "struct Crowdfunding.CampaignRef",
          "name": "",
          "type": "tuple"
        }
      ],
      "stateMutability": "view",
      "type": "function",
      "constant": true
    },
    {
      "inputs": [],
      "name": "getCampaigns",
      "outputs": [
        {
          "components": [
            {
              "internalType": "uint256",
              "name": "id",
              "type": "uint256"
            },
            {
              "components": [
                {
                  "internalType": "address",
                  "name": "owner",
                  "type": "address"
                },
                {
                  "internalType": "string",
                  "name": "title",
                  "type": "string"
                },
                {
                  "internalType": "string",
                  "name": "description",
                  "type": "string"
                },
                {
                  "internalType": "uint256",
                  "name": "collectedAmount",
                  "type": "uint256"
                },
                {
                  "internalType": "uint256",
                  "name": "deadline",
                  "type": "uint256"
                },
                {
                  "internalType": "uint256",
                  "name": "boxesLeft",
                  "type": "uint256"
                },
                {
                  "internalType": "bool",
                  "name": "isStopped",
                  "type": "bool"
                }
              ],
              "internalType": "struct Crowdfunding.Campaign",
              "name": "campaign",
              "type": "tuple"
            }
          ],
          "internalType": "struct Crowdfunding.CampaignRef[]",
          "name": "",
          "type": "tuple[]"
        }
      ],
      "stateMutability": "view",
      "type": "function",
      "constant": true
    },
    {
      "inputs": [],
      "name": "getOngoingCampaigns",
      "outputs": [
        {
          "components": [
            {
              "internalType": "uint256",
              "name": "id",
              "type": "uint256"
            },
            {
              "components": [
                {
                  "internalType": "address",
                  "name": "owner",
                  "type": "address"
                },
                {
                  "internalType": "string",
                  "name": "title",
                  "type": "string"
                },
                {
                  "internalType": "string",
                  "name": "description",
                  "type": "string"
                },
                {
                  "internalType": "uint256",
                  "name": "collectedAmount",
                  "type": "uint256"
                },
                {
                  "internalType": "uint256",
                  "name": "deadline",
                  "type": "uint256"
                },
                {
                  "internalType": "uint256",
                  "name": "boxesLeft",
                  "type": "uint256"
                },
                {
                  "internalType": "bool",
                  "name": "isStopped",
                  "type": "bool"
                }
              ],
              "internalType": "struct Crowdfunding.Campaign",
              "name": "campaign",
              "type": "tuple"
            }
          ],
          "internalType": "struct Crowdfunding.CampaignRef[]",
          "name": "",
          "type": "tuple[]"
        }
      ],
      "stateMutability": "view",
      "type": "function",
      "constant": true
    },
    {
      "inputs": [
        {
          "internalType": "uint256",
          "name": "_campaignId",
          "type": "uint256"
        }
      ],
      "name": "getBoxes",
      "outputs": [
        {
          "components": [
            {
              "components": [
                {
                  "internalType": "string",
                  "name": "title",
                  "type": "string"
                },
                {
                  "internalType": "string",
                  "name": "description",
                  "type": "string"
                },
                {
                  "internalType": "uint16",
                  "name": "price",
                  "type": "uint16"
                }
              ],
              "internalType": "struct Crowdfunding.Box",
              "name": "box",
              "type": "tuple"
            },
            {
              "internalType": "uint32",
              "name": "total",
              "type": "uint32"
            },
            {
              "internalType": "uint32",
              "name": "available",
              "type": "uint32"
            }
          ],
          "internalType": "struct Crowdfunding.BoxOffer[]",
          "name": "",
          "type": "tuple[]"
        }
      ],
      "stateMutability": "view",
      "type": "function",
      "constant": true
    }
  ],
  "bytecode": "0x6080604052600060045534801561001557600080fd5b5061344a806100256000396000f3fe6080604052600436106100c25760003560e01c80635598f8cc1161007f578063ad7f763711610059578063ad7f7637146102b1578063d30c1be1146102f0578063e4aafc2c1461031b578063ec6c821614610346576100c2565b80635598f8cc1461020a57806366b5bb2914610247578063a6b0363314610286576100c2565b806307ca140d146100c75780631355879d146100f2578063141961bc146101315780633267f8ab146101745780633f4f0d0b146101b1578063406d382a146101ee575b600080fd5b3480156100d357600080fd5b506100dc610383565b6040516100e99190611f74565b60405180910390f35b3480156100fe57600080fd5b5061011960048036038101906101149190611fcf565b610389565b6040516101289392919061213b565b60405180910390f35b34801561013d57600080fd5b5061015860048036038101906101539190612179565b61053e565b60405161016b979695949392919061224c565b60405180910390f35b34801561018057600080fd5b5061019b60048036038101906101969190612179565b6106bd565b6040516101a89190612441565b60405180910390f35b3480156101bd57600080fd5b506101d860048036038101906101d39190612828565b6108d9565b6040516101e59190611f74565b60405180910390f35b61020860048036038101906102039190611fcf565b610d51565b005b34801561021657600080fd5b50610231600480360381019061022c9190612179565b6110f0565b60405161023e9190612a04565b60405180910390f35b34801561025357600080fd5b5061026e60048036038101906102699190612a26565b6112ef565b60405161027d93929190612a88565b60405180910390f35b34801561029257600080fd5b5061029b611461565b6040516102a89190612bcc565b60405180910390f35b3480156102bd57600080fd5b506102d860048036038101906102d39190612bee565b6116f3565b6040516102e793929190612a88565b60405180910390f35b3480156102fc57600080fd5b50610305611865565b6040516103129190612bcc565b60405180910390f35b34801561032757600080fd5b50610330611b0e565b60405161033d9190611f74565b60405180910390f35b34801561035257600080fd5b5061036d60048036038101906103689190612179565b611b18565b60405161037a9190612c41565b60405180910390f35b60045481565b600160205281600052604060002081815481106103a557600080fd5b906000526020600020906004020160009150915050806000016040518060600160405290816000820180546103d990612c8b565b80601f016020809104026020016040519081016040528092919081815260200182805461040590612c8b565b80156104525780601f1061042757610100808354040283529160200191610452565b820191906000526020600020905b81548152906001019060200180831161043557829003601f168201915b5050505050815260200160018201805461046b90612c8b565b80601f016020809104026020016040519081016040528092919081815260200182805461049790612c8b565b80156104e45780601f106104b9576101008083540402835291602001916104e4565b820191906000526020600020905b8154815290600101906020018083116104c757829003601f168201915b505050505081526020016002820160009054906101000a900461ffff1661ffff1661ffff1681525050908060030160009054906101000a900463ffffffff16908060030160049054906101000a900463ffffffff16905083565b60006020528060005260406000206000915090508060000160009054906101000a900473ffffffffffffffffffffffffffffffffffffffff169080600101805461058790612c8b565b80601f01602080910402602001604051908101604052809291908181526020018280546105b390612c8b565b80156106005780601f106105d557610100808354040283529160200191610600565b820191906000526020600020905b8154815290600101906020018083116105e357829003601f168201915b50505050509080600201805461061590612c8b565b80601f016020809104026020016040519081016040528092919081815260200182805461064190612c8b565b801561068e5780601f106106635761010080835404028352916020019161068e565b820191906000526020600020905b81548152906001019060200180831161067157829003601f168201915b5050505050908060030154908060040154908060050154908060060160009054906101000a900460ff16905087565b6060600060016000848152602001908152602001600020905080805480602002602001604051908101604052809291908181526020016000905b828210156108cd57838290600052602060002090600402016040518060600160405290816000820160405180606001604052908160008201805461073a90612c8b565b80601f016020809104026020016040519081016040528092919081815260200182805461076690612c8b565b80156107b35780601f10610788576101008083540402835291602001916107b3565b820191906000526020600020905b81548152906001019060200180831161079657829003601f168201915b505050505081526020016001820180546107cc90612c8b565b80601f01602080910402602001604051908101604052809291908181526020018280546107f890612c8b565b80156108455780601f1061081a57610100808354040283529160200191610845565b820191906000526020600020905b81548152906001019060200180831161082857829003601f168201915b505050505081526020016002820160009054906101000a900461ffff1661ffff1661ffff168152505081526020016003820160009054906101000a900463ffffffff1663ffffffff1663ffffffff1681526020016003820160049054906101000a900463ffffffff1663ffffffff1663ffffffff1681525050815260200190600101906106f7565b50505050915050919050565b600062375f008363ffffffff161115610927576040517f08c379a000000000000000000000000000000000000000000000000000000000815260040161091e90612d2e565b60405180910390fd5b600042905060008463ffffffff16826109409190612d7d565b9050818111610984576040517f08c379a000000000000000000000000000000000000000000000000000000000815260040161097b90612e1f565b60405180910390fd5b6000805b8551811015610ad45760008682815181106109a6576109a5612e3f565b5b602002602001015190506000816020015163ffffffff16116109fd576040517f08c379a00000000000000000000000000000000000000000000000000000000081526004016109f490612ee0565b60405180910390fd5b806040015163ffffffff16816020015163ffffffff1614610a53576040517f08c379a0000000000000000000000000000000000000000000000000000000008152600401610a4a90612f72565b60405180910390fd5b806020015163ffffffff1683610a699190612d7d565b92506000816000015190506000816040015161ffff1611610abf576040517f08c379a0000000000000000000000000000000000000000000000000000000008152600401610ab690613004565b60405180910390fd5b50508080610acc90613024565b915050610988565b5060008111610b18576040517f08c379a0000000000000000000000000000000000000000000000000000000008152600401610b0f906130b8565b60405180910390fd5b600080600060045481526020019081526020016000209050898160000160006101000a81548173ffffffffffffffffffffffffffffffffffffffff021916908373ffffffffffffffffffffffffffffffffffffffff16021790555088816001019080519060200190610b8b929190611e43565b5087816002019080519060200190610ba4929190611e43565b506000816003018190555082816004018190555060008160060160006101000a81548160ff0219169083151502179055508181600501819055506000600160006004548152602001908152602001600020905060005b8751811015610d19576000888281518110610c1857610c17612e3f565b5b60200260200101519050828190806001815401808255809150506001900390600052602060002090600402016000909190919091506000820151816000016000820151816000019080519060200190610c72929190611e43565b506020820151816001019080519060200190610c8f929190611e43565b5060408201518160020160006101000a81548161ffff021916908361ffff160217905550505060208201518160030160006101000a81548163ffffffff021916908363ffffffff16021790555060408201518160030160046101000a81548163ffffffff021916908363ffffffff1602179055505050508080610d1190613024565b915050610bfa565b5060046000815480929190610d2d90613024565b91905055506001600454610d4191906130d8565b9550505050505095945050505050565b600080600084815260200190815260200160002090508060060160009054906101000a900460ff1615610db9576040517f08c379a0000000000000000000000000000000000000000000000000000000008152600401610db090613158565b60405180910390fd5b42816004015411610dff576040517f08c379a0000000000000000000000000000000000000000000000000000000008152600401610df6906131c4565b60405180910390fd5b6000600160008581526020019081526020016000208381548110610e2657610e25612e3f565b5b9060005260206000209060040201905060008160030160049054906101000a900463ffffffff1663ffffffff1611610e93576040517f08c379a0000000000000000000000000000000000000000000000000000000008152600401610e8a90613256565b60405180910390fd5b600081600001604051806060016040529081600082018054610eb490612c8b565b80601f0160208091040260200160405190810160405280929190818152602001828054610ee090612c8b565b8015610f2d5780601f10610f0257610100808354040283529160200191610f2d565b820191906000526020600020905b815481529060010190602001808311610f1057829003601f168201915b50505050508152602001600182018054610f4690612c8b565b80601f0160208091040260200160405190810160405280929190818152602001828054610f7290612c8b565b8015610fbf5780601f10610f9457610100808354040283529160200191610fbf565b820191906000526020600020905b815481529060010190602001808311610fa257829003601f168201915b505050505081526020016002820160009054906101000a900461ffff1661ffff1661ffff168152505090506000349050816040015161ffff1681101561103a576040517f08c379a0000000000000000000000000000000000000000000000000000000008152600401611031906132c2565b60405180910390fd5b611045863384611c80565b60018360030160048282829054906101000a900463ffffffff1661106991906132e2565b92506101000a81548163ffffffff021916908363ffffffff160217905550600184600501600082825461109c91906130d8565b92505081905550808460030160008282546110b79190612d7d565b9250508190555060008460050154036110e85760018460060160006101000a81548160ff0219169083151502179055505b505050505050565b6110f8611ec9565b6000806000848152602001908152602001600020905060006040518060400160405280858152602001836040518060e00160405290816000820160009054906101000a900473ffffffffffffffffffffffffffffffffffffffff1673ffffffffffffffffffffffffffffffffffffffff1673ffffffffffffffffffffffffffffffffffffffff16815260200160018201805461119390612c8b565b80601f01602080910402602001604051908101604052809291908181526020018280546111bf90612c8b565b801561120c5780601f106111e15761010080835404028352916020019161120c565b820191906000526020600020905b8154815290600101906020018083116111ef57829003601f168201915b5050505050815260200160028201805461122590612c8b565b80601f016020809104026020016040519081016040528092919081815260200182805461125190612c8b565b801561129e5780601f106112735761010080835404028352916020019161129e565b820191906000526020600020905b81548152906001019060200180831161128157829003601f168201915b505050505081526020016003820154815260200160048201548152602001600582015481526020016006820160009054906101000a900460ff16151515158152505081525090508092505050919050565b6003602052826000526040600020602052816000526040600020818154811061131757600080fd5b9060005260206000209060030201600092509250505080600001805461133c90612c8b565b80601f016020809104026020016040519081016040528092919081815260200182805461136890612c8b565b80156113b55780601f1061138a576101008083540402835291602001916113b5565b820191906000526020600020905b81548152906001019060200180831161139857829003601f168201915b5050505050908060010180546113ca90612c8b565b80601f01602080910402602001604051908101604052809291908181526020018280546113f690612c8b565b80156114435780601f1061141857610100808354040283529160200191611443565b820191906000526020600020905b81548152906001019060200180831161142657829003601f168201915b5050505050908060020160009054906101000a900461ffff16905083565b6060600060045467ffffffffffffffff81111561148157611480612499565b5b6040519080825280602002602001820160405280156114ba57816020015b6114a7611ec9565b81526020019060019003908161149f5790505b50905060005b6004548110156116eb576000806000838152602001908152602001600020905060006040518060400160405280848152602001836040518060e00160405290816000820160009054906101000a900473ffffffffffffffffffffffffffffffffffffffff1673ffffffffffffffffffffffffffffffffffffffff1673ffffffffffffffffffffffffffffffffffffffff16815260200160018201805461156590612c8b565b80601f016020809104026020016040519081016040528092919081815260200182805461159190612c8b565b80156115de5780601f106115b3576101008083540402835291602001916115de565b820191906000526020600020905b8154815290600101906020018083116115c157829003601f168201915b505050505081526020016002820180546115f790612c8b565b80601f016020809104026020016040519081016040528092919081815260200182805461162390612c8b565b80156116705780601f1061164557610100808354040283529160200191611670565b820191906000526020600020905b81548152906001019060200180831161165357829003601f168201915b505050505081526020016003820154815260200160048201548152602001600582015481526020016006820160009054906101000a900460ff1615151515815250508152509050808484815181106116cb576116ca612e3f565b5b6020026020010181905250505080806116e390613024565b9150506114c0565b508091505090565b6002602052826000526040600020602052816000526040600020818154811061171b57600080fd5b9060005260206000209060030201600092509250505080600001805461174090612c8b565b80601f016020809104026020016040519081016040528092919081815260200182805461176c90612c8b565b80156117b95780601f1061178e576101008083540402835291602001916117b9565b820191906000526020600020905b81548152906001019060200180831161179c57829003601f168201915b5050505050908060010180546117ce90612c8b565b80601f01602080910402602001604051908101604052809291908181526020018280546117fa90612c8b565b80156118475780601f1061181c57610100808354040283529160200191611847565b820191906000526020600020905b81548152906001019060200180831161182a57829003601f168201915b5050505050908060020160009054906101000a900461ffff16905083565b6060600060045467ffffffffffffffff81111561188557611884612499565b5b6040519080825280602002602001820160405280156118be57816020015b6118ab611ec9565b8152602001906001900390816118a35790505b50905060005b600454811015611b0657600080600083815260200190815260200160002090508060060160009054906101000a900460ff16611af25760006040518060400160405280848152602001836040518060e00160405290816000820160009054906101000a900473ffffffffffffffffffffffffffffffffffffffff1673ffffffffffffffffffffffffffffffffffffffff1673ffffffffffffffffffffffffffffffffffffffff16815260200160018201805461197f90612c8b565b80601f01602080910402602001604051908101604052809291908181526020018280546119ab90612c8b565b80156119f85780601f106119cd576101008083540402835291602001916119f8565b820191906000526020600020905b8154815290600101906020018083116119db57829003601f168201915b50505050508152602001600282018054611a1190612c8b565b80601f0160208091040260200160405190810160405280929190818152602001828054611a3d90612c8b565b8015611a8a5780601f10611a5f57610100808354040283529160200191611a8a565b820191906000526020600020905b815481529060010190602001808311611a6d57829003601f168201915b505050505081526020016003820154815260200160048201548152602001600582015481526020016006820160009054906101000a900460ff161515151581525050815250905080848481518110611ae557611ae4612e3f565b5b6020026020010181905250505b508080611afe90613024565b9150506118c4565b508091505090565b6000600454905090565b60008060008084815260200190815260200160002090508060060160009054906101000a900460ff1615611b81576040517f08c379a0000000000000000000000000000000000000000000000000000000008152600401611b7890613362565b60405180910390fd5b42816004015411611bc7576040517f08c379a0000000000000000000000000000000000000000000000000000000008152600401611bbe906131c4565b60405180910390fd5b8060000160009054906101000a900473ffffffffffffffffffffffffffffffffffffffff1673ffffffffffffffffffffffffffffffffffffffff163373ffffffffffffffffffffffffffffffffffffffff1614611c59576040517f08c379a0000000000000000000000000000000000000000000000000000000008152600401611c50906133f4565b60405180910390fd5b60018160060160006101000a81548160ff0219169083151502179055506001915050919050565b60006002600085815260200190815260200160002060008473ffffffffffffffffffffffffffffffffffffffff1673ffffffffffffffffffffffffffffffffffffffff16815260200190815260200160002090506000600360008573ffffffffffffffffffffffffffffffffffffffff1673ffffffffffffffffffffffffffffffffffffffff16815260200190815260200160002060008681526020019081526020016000209050818390806001815401808255809150506001900390600052602060002090600302016000909190919091506000820151816000019080519060200190611d6f929190611e43565b506020820151816001019080519060200190611d8c929190611e43565b5060408201518160020160006101000a81548161ffff021916908361ffff1602179055505050808390806001815401808255809150506001900390600052602060002090600302016000909190919091506000820151816000019080519060200190611df9929190611e43565b506020820151816001019080519060200190611e16929190611e43565b5060408201518160020160006101000a81548161ffff021916908361ffff16021790555050505050505050565b828054611e4f90612c8b565b90600052602060002090601f016020900481019282611e715760008555611eb8565b82601f10611e8a57805160ff1916838001178555611eb8565b82800160010185558215611eb8579182015b82811115611eb7578251825591602001919060010190611e9c565b5b509050611ec59190611ee9565b5090565b604051806040016040528060008152602001611ee3611f06565b81525090565b5b80821115611f02576000816000905550600101611eea565b5090565b6040518060e00160405280600073ffffffffffffffffffffffffffffffffffffffff16815260200160608152602001606081526020016000815260200160008152602001600081526020016000151581525090565b6000819050919050565b611f6e81611f5b565b82525050565b6000602082019050611f896000830184611f65565b92915050565b6000604051905090565b600080fd5b600080fd5b611fac81611f5b565b8114611fb757600080fd5b50565b600081359050611fc981611fa3565b92915050565b60008060408385031215611fe657611fe5611f99565b5b6000611ff485828601611fba565b925050602061200585828601611fba565b9150509250929050565b600081519050919050565b600082825260208201905092915050565b60005b8381101561204957808201518184015260208101905061202e565b83811115612058576000848401525b50505050565b6000601f19601f8301169050919050565b600061207a8261200f565b612084818561201a565b935061209481856020860161202b565b61209d8161205e565b840191505092915050565b600061ffff82169050919050565b6120bf816120a8565b82525050565b600060608301600083015184820360008601526120e2828261206f565b915050602083015184820360208601526120fc828261206f565b915050604083015161211160408601826120b6565b508091505092915050565b600063ffffffff82169050919050565b6121358161211c565b82525050565b6000606082019050818103600083015261215581866120c5565b9050612164602083018561212c565b612171604083018461212c565b949350505050565b60006020828403121561218f5761218e611f99565b5b600061219d84828501611fba565b91505092915050565b600073ffffffffffffffffffffffffffffffffffffffff82169050919050565b60006121d1826121a6565b9050919050565b6121e1816121c6565b82525050565b600082825260208201905092915050565b60006122038261200f565b61220d81856121e7565b935061221d81856020860161202b565b6122268161205e565b840191505092915050565b60008115159050919050565b61224681612231565b82525050565b600060e082019050612261600083018a6121d8565b818103602083015261227381896121f8565b9050818103604083015261228781886121f8565b90506122966060830187611f65565b6122a36080830186611f65565b6122b060a0830185611f65565b6122bd60c083018461223d565b98975050505050505050565b600081519050919050565b600082825260208201905092915050565b6000819050602082019050919050565b60006060830160008301518482036000860152612312828261206f565b9150506020830151848203602086015261232c828261206f565b915050604083015161234160408601826120b6565b508091505092915050565b6123558161211c565b82525050565b6000606083016000830151848203600086015261237882826122f5565b915050602083015161238d602086018261234c565b5060408301516123a0604086018261234c565b508091505092915050565b60006123b7838361235b565b905092915050565b6000602082019050919050565b60006123d7826122c9565b6123e181856122d4565b9350836020820285016123f3856122e5565b8060005b8581101561242f578484038952815161241085826123ab565b945061241b836123bf565b925060208a019950506001810190506123f7565b50829750879550505050505092915050565b6000602082019050818103600083015261245b81846123cc565b905092915050565b61246c816121c6565b811461247757600080fd5b50565b60008135905061248981612463565b92915050565b600080fd5b600080fd5b7f4e487b7100000000000000000000000000000000000000000000000000000000600052604160045260246000fd5b6124d18261205e565b810181811067ffffffffffffffff821117156124f0576124ef612499565b5b80604052505050565b6000612503611f8f565b905061250f82826124c8565b919050565b600067ffffffffffffffff82111561252f5761252e612499565b5b6125388261205e565b9050602081019050919050565b82818337600083830152505050565b600061256761256284612514565b6124f9565b90508281526020810184848401111561258357612582612494565b5b61258e848285612545565b509392505050565b600082601f8301126125ab576125aa61248f565b5b81356125bb848260208601612554565b91505092915050565b6125cd8161211c565b81146125d857600080fd5b50565b6000813590506125ea816125c4565b92915050565b600067ffffffffffffffff82111561260b5761260a612499565b5b602082029050602081019050919050565b600080fd5b600080fd5b600080fd5b612634816120a8565b811461263f57600080fd5b50565b6000813590506126518161262b565b92915050565b60006060828403121561266d5761266c612621565b5b61267760606124f9565b9050600082013567ffffffffffffffff81111561269757612696612626565b5b6126a384828501612596565b600083015250602082013567ffffffffffffffff8111156126c7576126c6612626565b5b6126d384828501612596565b60208301525060406126e784828501612642565b60408301525092915050565b60006060828403121561270957612708612621565b5b61271360606124f9565b9050600082013567ffffffffffffffff81111561273357612732612626565b5b61273f84828501612657565b6000830152506020612753848285016125db565b6020830152506040612767848285016125db565b60408301525092915050565b6000612786612781846125f0565b6124f9565b905080838252602082019050602084028301858111156127a9576127a861261c565b5b835b818110156127f057803567ffffffffffffffff8111156127ce576127cd61248f565b5b8086016127db89826126f3565b855260208501945050506020810190506127ab565b5050509392505050565b600082601f83011261280f5761280e61248f565b5b813561281f848260208601612773565b91505092915050565b600080600080600060a0868803121561284457612843611f99565b5b60006128528882890161247a565b955050602086013567ffffffffffffffff81111561287357612872611f9e565b5b61287f88828901612596565b945050604086013567ffffffffffffffff8111156128a05761289f611f9e565b5b6128ac88828901612596565b93505060606128bd888289016125db565b925050608086013567ffffffffffffffff8111156128de576128dd611f9e565b5b6128ea888289016127fa565b9150509295509295909350565b61290081611f5b565b82525050565b61290f816121c6565b82525050565b61291e81612231565b82525050565b600060e08301600083015161293c6000860182612906565b5060208301518482036020860152612954828261206f565b9150506040830151848203604086015261296e828261206f565b915050606083015161298360608601826128f7565b50608083015161299660808601826128f7565b5060a08301516129a960a08601826128f7565b5060c08301516129bc60c0860182612915565b508091505092915050565b60006040830160008301516129df60008601826128f7565b50602083015184820360208601526129f78282612924565b9150508091505092915050565b60006020820190508181036000830152612a1e81846129c7565b905092915050565b600080600060608486031215612a3f57612a3e611f99565b5b6000612a4d8682870161247a565b9350506020612a5e86828701611fba565b9250506040612a6f86828701611fba565b9150509250925092565b612a82816120a8565b82525050565b60006060820190508181036000830152612aa281866121f8565b90508181036020830152612ab681856121f8565b9050612ac56040830184612a79565b949350505050565b600081519050919050565b600082825260208201905092915050565b6000819050602082019050919050565b6000604083016000830151612b1160008601826128f7565b5060208301518482036020860152612b298282612924565b9150508091505092915050565b6000612b428383612af9565b905092915050565b6000602082019050919050565b6000612b6282612acd565b612b6c8185612ad8565b935083602082028501612b7e85612ae9565b8060005b85811015612bba5784840389528151612b9b8582612b36565b9450612ba683612b4a565b925060208a01995050600181019050612b82565b50829750879550505050505092915050565b60006020820190508181036000830152612be68184612b57565b905092915050565b600080600060608486031215612c0757612c06611f99565b5b6000612c1586828701611fba565b9350506020612c268682870161247a565b9250506040612c3786828701611fba565b9150509250925092565b6000602082019050612c56600083018461223d565b92915050565b7f4e487b7100000000000000000000000000000000000000000000000000000000600052602260045260246000fd5b60006002820490506001821680612ca357607f821691505b602082108103612cb657612cb5612c5c565b5b50919050565b7f4475726174696f6e2063616e277420626520686967686572207468616e20362060008201527f7765656b73000000000000000000000000000000000000000000000000000000602082015250565b6000612d186025836121e7565b9150612d2382612cbc565b604082019050919050565b60006020820190508181036000830152612d4781612d0b565b9050919050565b7f4e487b7100000000000000000000000000000000000000000000000000000000600052601160045260246000fd5b6000612d8882611f5b565b9150612d9383611f5b565b9250827fffffffffffffffffffffffffffffffffffffffffffffffffffffffffffffffff03821115612dc857612dc7612d4e565b5b828201905092915050565b7f446561646c696e65206d75737420626520696e20746865206675747572650000600082015250565b6000612e09601e836121e7565b9150612e1482612dd3565b602082019050919050565b60006020820190508181036000830152612e3881612dfc565b9050919050565b7f4e487b7100000000000000000000000000000000000000000000000000000000600052603260045260246000fd5b7f5468657265206d757374206265206174206c65617374206f6e6520626f78207460008201527f6f2073656c6c0000000000000000000000000000000000000000000000000000602082015250565b6000612eca6026836121e7565b9150612ed582612e6e565b604082019050919050565b60006020820190508181036000830152612ef981612ebd565b9050919050565b7f496e697469616c6c7920746f74616c206e756d626572206f6620626f7865732060008201527f616e6420617661696c61626c65206d75737420626520657175616c0000000000602082015250565b6000612f5c603b836121e7565b9150612f6782612f00565b604082019050919050565b60006020820190508181036000830152612f8b81612f4f565b9050919050565b7f4120626f7820726571756972657320612070726963652068696768657220746860008201527f616e203000000000000000000000000000000000000000000000000000000000602082015250565b6000612fee6024836121e7565b9150612ff982612f92565b604082019050919050565b6000602082019050818103600083015261301d81612fe1565b9050919050565b600061302f82611f5b565b91507fffffffffffffffffffffffffffffffffffffffffffffffffffffffffffffffff820361306157613060612d4e565b5b600182019050919050565b7f4174206c65617374206f6e6520626f7820697320726571756972656400000000600082015250565b60006130a2601c836121e7565b91506130ad8261306c565b602082019050919050565b600060208201905081810360008301526130d181613095565b9050919050565b60006130e382611f5b565b91506130ee83611f5b565b92508282101561310157613100612d4e565b5b828203905092915050565b7f546869732063616d706169676e206861732073746f7070656400000000000000600082015250565b60006131426019836121e7565b915061314d8261310c565b602082019050919050565b6000602082019050818103600083015261317181613135565b9050919050565b7f546869732063616d706169676e206973206f7665720000000000000000000000600082015250565b60006131ae6015836121e7565b91506131b982613178565b602082019050919050565b600060208201905081810360008301526131dd816131a1565b9050919050565b7f416c6c20626f786573206f66207468697320747970652068617665206265656e60008201527f20736f6c64000000000000000000000000000000000000000000000000000000602082015250565b60006132406025836121e7565b915061324b826131e4565b604082019050919050565b6000602082019050818103600083015261326f81613233565b9050919050565b7f476976656e20616d6f756e742069732062656c6f7720626f7820707269636500600082015250565b60006132ac601f836121e7565b91506132b782613276565b602082019050919050565b600060208201905081810360008301526132db8161329f565b9050919050565b60006132ed8261211c565b91506132f88361211c565b92508282101561330b5761330a612d4e565b5b828203905092915050565b7f43616d706169676e20616c72656164792073746f707065640000000000000000600082015250565b600061334c6018836121e7565b915061335782613316565b602082019050919050565b6000602082019050818103600083015261337b8161333f565b9050919050565b7f4f6e6c7920746865206f776e65722063616e2073746f7020612063616d70616960008201527f676e000000000000000000000000000000000000000000000000000000000000602082015250565b60006133de6022836121e7565b91506133e982613382565b604082019050919050565b6000602082019050818103600083015261340d816133d1565b905091905056fea26469706673582212200605dd2b862b3c4a6626210d18e818a77aca9528ed79003ecc6cde05c2670e4464736f6c634300080d0033",
  "immutableReferences": {},
  "source": "// SPDX-License-Identifier: AGPL\npragma solidity ^0.8.13;\n\ncontract Crowdfunding {\n    struct Box {\n        /// Title of a box\n        string title;\n        /// Description of a box\n        string description;\n        /// The price of this box in wei\n        uint16 price;\n    }\n\n    struct BoxOffer {\n        /// The box to sell\n        Box box;\n        /// Total number of boxes\n        uint32 total;\n        /// Number of available boxes\n        uint32 available;\n    }\n\n    struct Campaign {\n        /// Owner of this campaign\n        address owner;\n        /// The campaigns title\n        string title;\n        /// The campaigns description\n        string description;\n        /// Total amount collected in eth\n        uint256 collectedAmount;\n        /// The deadline of this campaign\n        uint256 deadline;\n        /// Number of left boxes\n        uint256 boxesLeft;\n        /// Is it already stopped\n        bool isStopped;\n    }\n\n    struct CampaignRef {\n      /// Campaign id\n      uint256 id;\n      /// reference to the campaign\n      Campaign campaign;\n    }\n\n    // all campaigns\n    mapping(uint256 => Campaign) public campaigns;\n    // available boxes for specific campaigns\n    mapping(uint256 => BoxOffer[]) public boxOffers;\n    // sold boxes for specific campaigns\n    mapping(uint256 => mapping(address => Box[])) public soldBoxesCampaign;\n    // sold boxes for specific addresses\n    mapping(address => mapping(uint => Box[])) public soldBoxesAddress;\n\n    uint256 public numberOfCampaigns = 0;\n\n    /**\n     * Adds a buyer\n     */\n    function addBuyer(uint256 _campaignId, address _buyer, Box memory _box) private {\n      Box[] storage _soldBoxesCampaign = soldBoxesCampaign[_campaignId][_buyer];\n      Box[] storage _soldBoxesAddress = soldBoxesAddress[_buyer][_campaignId];\n      _soldBoxesCampaign.push(_box);\n      _soldBoxesAddress.push(_box);\n    }\n\n    /**\n     * Creates a new campaign\n     */\n    function createCampaign(\n        address _owner,\n        string memory _title,\n        string memory _description,\n        uint32 _duration,\n        BoxOffer[] memory _boxes\n    ) public returns (uint256) {\n        // check crowdfunding duration\n        require(_duration <= 6 weeks, \"Duration can't be higher than 6 weeks\");\n\n        // create deadline by adding the duration to the current timestamp\n        uint256 current = block.timestamp;\n        uint256 deadline = current + _duration;\n\n        // deadline can't be in the past\n        require(\n            deadline > current,\n            \"Deadline must be in the future\"\n        );\n\n        // validate boxes\n        uint256 numberOfBoxes = 0;\n        for (uint256 index = 0; index < _boxes.length; index++) {\n            BoxOffer memory offer = _boxes[index];\n            require(offer.total > 0, \"There must be at least one box to sell\");\n            require(offer.total == offer.available, \"Initially total number of boxes and available must be equal\");\n            numberOfBoxes += offer.total;\n\n            Box memory box = offer.box;\n            // A box requires a price\n            require(\n                box.price > 0,\n                \"A box requires a price higher than 0\"\n            );\n        }\n\n        require(numberOfBoxes > 0, \"At least one box is required\");\n\n        // Create campaign\n        Campaign storage campaign = campaigns[numberOfCampaigns];\n        campaign.owner = _owner;\n        campaign.title = _title;\n        campaign.description = _description;\n        campaign.collectedAmount = 0;\n        campaign.deadline = deadline;\n        campaign.isStopped = false;\n        campaign.boxesLeft = numberOfBoxes;\n\n        // add boxes\n        BoxOffer[] storage _offers = boxOffers[numberOfCampaigns];\n        for (uint256 index = 0; index < _boxes.length; index++) {\n            BoxOffer memory offer = _boxes[index];\n            _offers.push(offer);\n        }\n\n        // increase total num of campaigns\n        numberOfCampaigns++;\n\n        // return the most recent campaign index\n        return numberOfCampaigns - 1;\n    }\n\n    /**\n    * Returns the total number of campaigns\n    */\n    function getNumberOfCampaigns() public view returns (uint256) {\n      return numberOfCampaigns;\n    }\n\n    /**\n     * Removes a campaign\n     */\n    function stopCampaign(uint256 _campaignId) public returns (bool) {\n      Campaign storage campaign = campaigns[_campaignId];\n      require(!campaign.isStopped, \"Campaign already stopped\");\n      require(campaign.deadline > block.timestamp, \"This campaign is over\");\n      require(msg.sender == campaign.owner, \"Only the owner can stop a campaign\");\n\n      campaign.isStopped = true;\n\n      return true;\n    }\n\n    /**\n     * Buys a box\n     */\n    function buyBox(uint256 _campaignId, uint256 _boxId) public payable {\n        // get campaign ref\n        Campaign storage campaign = campaigns[_campaignId];\n\n        // check if this is an ongoing campaign\n        require(!campaign.isStopped, \"This campaign has stopped\");\n        require(campaign.deadline > block.timestamp, \"This campaign is over\");\n\n        // check if this campaign still has available boxes for the requested kind\n        BoxOffer storage boxOffer = boxOffers[_campaignId][_boxId];\n        require(boxOffer.available > 0, \"All boxes of this type have been sold\");\n\n        // check if the offer is valid\n        Box memory box = boxOffer.box;\n        uint256 amount = msg.value;\n        require(amount >= box.price, \"Given amount is below box price\");\n\n        // Add buyer\n        addBuyer(_campaignId, msg.sender, box);\n\n        // Reduce available boxes by one\n        boxOffer.available-=1;\n        campaign.boxesLeft-=1;\n        // Add to total collected amount\n        campaign.collectedAmount+=amount;\n\n        if (campaign.boxesLeft == 0) {\n          // Mark campaign as stopped\n          campaign.isStopped = true;\n          // TODO Start Supply Chain\n        }\n    }\n\n    /**\n     * Returns a specific campaign\n     */\n    function getCampaign(uint256 _campaignId) public view returns (CampaignRef memory) {\n        Campaign storage campaign = campaigns[_campaignId];\n        CampaignRef memory ref = CampaignRef({ id: _campaignId, campaign: campaign });\n        return ref;\n    }\n\n    /**\n     * Returns all campaigns\n     */\n    function getCampaigns() public view returns (CampaignRef[] memory) {\n        CampaignRef[] memory allCampaigns = new CampaignRef[](numberOfCampaigns);\n\n        for (uint256 index = 0; index < numberOfCampaigns; index++) {\n            Campaign storage campaign = campaigns[index];\n            CampaignRef memory ref = CampaignRef({ id: index, campaign: campaign });\n            allCampaigns[index] = ref;\n        }\n\n        return allCampaigns;\n    }\n\n    /**\n     * Returns all ongoing campaigns\n     */\n    function getOngoingCampaigns() public view returns (CampaignRef[] memory) {\n        CampaignRef[] memory allCampaigns = new CampaignRef[](numberOfCampaigns);\n\n        for (uint256 index = 0; index < numberOfCampaigns; index++) {\n            Campaign storage campaign = campaigns[index];\n            if (!campaign.isStopped) {\n              CampaignRef memory ref = CampaignRef({ id: index, campaign: campaign });\n              allCampaigns[index] = ref;\n            }\n        }\n\n        return allCampaigns;\n    }\n\n    /**\n     * Returns all boxes of a specific campaign\n     */\n    function getBoxes(uint256 _campaignId) public view returns (BoxOffer[] memory) {\n        BoxOffer[] storage boxOffer = boxOffers[_campaignId];\n        return boxOffer;\n    }\n\n}\n",
  "sourcePath": "/workspaces/146157_Blockchain/smart_contracts/contracts/Crowdfunding.sol",
  "compiler": {
    "name": "solc",
    "version": "0.8.13+commit.abaa5c0e.Emscripten.clang"
  },
  "schemaVersion": "3.4.14",
  "updatedAt": "2023-07-14T19:30:18.952Z",
  "networkType": "ethereum",
  "devdoc": {
    "kind": "dev",
    "methods": {},
    "version": 1
  },
  "userdoc": {
    "kind": "user",
    "methods": {
      "buyBox(uint256,uint256)": {
        "notice": "Buys a box"
      },
      "createCampaign(address,string,string,uint32,((string,string,uint16),uint32,uint32)[])": {
        "notice": "Creates a new campaign"
      },
      "getBoxes(uint256)": {
        "notice": "Returns all boxes of a specific campaign"
      },
      "getCampaign(uint256)": {
        "notice": "Returns a specific campaign"
      },
      "getCampaigns()": {
        "notice": "Returns all campaigns"
      },
      "getNumberOfCampaigns()": {
        "notice": "Returns the total number of campaigns"
      },
      "getOngoingCampaigns()": {
        "notice": "Returns all ongoing campaigns"
      },
      "stopCampaign(uint256)": {
        "notice": "Removes a campaign"
      }
    },
    "version": 1
  }
}