{
  "contractName": "Crowdfunding",
  "abi": [
    {
      "inputs": [
        {
          "internalType": "uint256",
          "name": "",
          "type": "uint256"
        },
        {
          "internalType": "uint256",
          "name": "",
          "type": "uint256"
        }
      ],
      "name": "boxOffers",
      "outputs": [
        {
          "internalType": "uint256",
          "name": "id",
          "type": "uint256"
        },
        {
          "components": [
            {
              "internalType": "string",
              "name": "title",
              "type": "string"
            },
            {
              "internalType": "string",
              "name": "description",
              "type": "string"
            },
            {
              "internalType": "uint256",
              "name": "price",
              "type": "uint256"
            }
          ],
          "internalType": "struct Box",
          "name": "box",
          "type": "tuple"
        },
        {
          "internalType": "uint32",
          "name": "total",
          "type": "uint32"
        },
        {
          "internalType": "uint32",
          "name": "available",
          "type": "uint32"
        }
      ],
      "stateMutability": "view",
      "type": "function"
    },
    {
      "inputs": [
        {
          "internalType": "uint256",
          "name": "",
          "type": "uint256"
        }
      ],
      "name": "campaigns",
      "outputs": [
        {
          "components": [
            {
              "internalType": "string",
              "name": "title",
              "type": "string"
            },
            {
              "internalType": "string",
              "name": "description",
              "type": "string"
            },
            {
              "internalType": "uint256",
              "name": "collectedAmount",
              "type": "uint256"
            },
            {
              "internalType": "uint256",
              "name": "deadline",
              "type": "uint256"
            },
            {
              "internalType": "uint256",
              "name": "totalBoxes",
              "type": "uint256"
            },
            {
              "internalType": "uint256",
              "name": "boxesSold",
              "type": "uint256"
            },
            {
              "internalType": "bool",
              "name": "isStopped",
              "type": "bool"
            }
          ],
          "internalType": "struct CampaignMeta",
          "name": "meta",
          "type": "tuple"
        },
        {
          "components": [
            {
              "internalType": "address",
              "name": "owner",
              "type": "address"
            },
            {
              "internalType": "string",
              "name": "ownerPublicKey",
              "type": "string"
            }
          ],
          "internalType": "struct CampaignOwner",
          "name": "owner",
          "type": "tuple"
        },
        {
          "components": [
            {
              "internalType": "string",
              "name": "earTag",
              "type": "string"
            },
            {
              "internalType": "string",
              "name": "name",
              "type": "string"
            },
            {
              "internalType": "string",
              "name": "farm",
              "type": "string"
            },
            {
              "internalType": "uint8",
              "name": "age",
              "type": "uint8"
            }
          ],
          "internalType": "struct CampaignAnimalData",
          "name": "animal",
          "type": "tuple"
        },
        {
          "components": [
            {
              "components": [
                {
                  "internalType": "address payable",
                  "name": "owner",
                  "type": "address"
                },
                {
                  "internalType": "uint8",
                  "name": "share",
                  "type": "uint8"
                }
              ],
              "internalType": "struct Stakeholder",
              "name": "farmer",
              "type": "tuple"
            },
            {
              "components": [
                {
                  "internalType": "address payable",
                  "name": "owner",
                  "type": "address"
                },
                {
                  "internalType": "uint8",
                  "name": "share",
                  "type": "uint8"
                }
              ],
              "internalType": "struct Stakeholder",
              "name": "butcher",
              "type": "tuple"
            },
            {
              "components": [
                {
                  "internalType": "address payable",
                  "name": "owner",
                  "type": "address"
                },
                {
                  "internalType": "uint8",
                  "name": "share",
                  "type": "uint8"
                }
              ],
              "internalType": "struct Stakeholder",
              "name": "delivery",
              "type": "tuple"
            }
          ],
          "internalType": "struct StakeholderList",
          "name": "stakeholders",
          "type": "tuple"
        }
      ],
      "stateMutability": "view",
      "type": "function"
    },
    {
      "inputs": [],
      "name": "numberOfCampaigns",
      "outputs": [
        {
          "internalType": "uint256",
          "name": "",
          "type": "uint256"
        }
      ],
      "stateMutability": "view",
      "type": "function"
    },
    {
      "inputs": [
        {
          "internalType": "uint256",
          "name": "",
          "type": "uint256"
        },
        {
          "internalType": "uint256",
          "name": "",
          "type": "uint256"
        }
      ],
      "name": "soldBoxesCampaign",
      "outputs": [
        {
          "internalType": "uint256",
          "name": "id",
          "type": "uint256"
        },
        {
          "components": [
            {
              "internalType": "string",
              "name": "title",
              "type": "string"
            },
            {
              "internalType": "string",
              "name": "description",
              "type": "string"
            },
            {
              "internalType": "uint256",
              "name": "price",
              "type": "uint256"
            }
          ],
          "internalType": "struct Box",
          "name": "box",
          "type": "tuple"
        },
        {
          "internalType": "address",
          "name": "owner",
          "type": "address"
        },
        {
          "internalType": "string",
          "name": "physAddress",
          "type": "string"
        }
      ],
      "stateMutability": "view",
      "type": "function"
    },
    {
      "inputs": [
        {
          "internalType": "string",
          "name": "_title",
          "type": "string"
        },
        {
          "internalType": "string",
          "name": "_description",
          "type": "string"
        },
        {
          "internalType": "uint32",
          "name": "_duration",
          "type": "uint32"
        },
        {
          "components": [
            {
              "internalType": "address",
              "name": "owner",
              "type": "address"
            },
            {
              "internalType": "string",
              "name": "ownerPublicKey",
              "type": "string"
            }
          ],
          "internalType": "struct CampaignOwner",
          "name": "_campaignOwner",
          "type": "tuple"
        },
        {
          "components": [
            {
              "components": [
                {
                  "internalType": "address payable",
                  "name": "owner",
                  "type": "address"
                },
                {
                  "internalType": "uint8",
                  "name": "share",
                  "type": "uint8"
                }
              ],
              "internalType": "struct Stakeholder",
              "name": "farmer",
              "type": "tuple"
            },
            {
              "components": [
                {
                  "internalType": "address payable",
                  "name": "owner",
                  "type": "address"
                },
                {
                  "internalType": "uint8",
                  "name": "share",
                  "type": "uint8"
                }
              ],
              "internalType": "struct Stakeholder",
              "name": "butcher",
              "type": "tuple"
            },
            {
              "components": [
                {
                  "internalType": "address payable",
                  "name": "owner",
                  "type": "address"
                },
                {
                  "internalType": "uint8",
                  "name": "share",
                  "type": "uint8"
                }
              ],
              "internalType": "struct Stakeholder",
              "name": "delivery",
              "type": "tuple"
            }
          ],
          "internalType": "struct StakeholderList",
          "name": "_stakeholders",
          "type": "tuple"
        },
        {
          "components": [
            {
              "internalType": "string",
              "name": "earTag",
              "type": "string"
            },
            {
              "internalType": "string",
              "name": "name",
              "type": "string"
            },
            {
              "internalType": "string",
              "name": "farm",
              "type": "string"
            },
            {
              "internalType": "uint8",
              "name": "age",
              "type": "uint8"
            }
          ],
          "internalType": "struct CampaignAnimalData",
          "name": "_animal",
          "type": "tuple"
        },
        {
          "components": [
            {
              "internalType": "uint256",
              "name": "id",
              "type": "uint256"
            },
            {
              "components": [
                {
                  "internalType": "string",
                  "name": "title",
                  "type": "string"
                },
                {
                  "internalType": "string",
                  "name": "description",
                  "type": "string"
                },
                {
                  "internalType": "uint256",
                  "name": "price",
                  "type": "uint256"
                }
              ],
              "internalType": "struct Box",
              "name": "box",
              "type": "tuple"
            },
            {
              "internalType": "uint32",
              "name": "total",
              "type": "uint32"
            },
            {
              "internalType": "uint32",
              "name": "available",
              "type": "uint32"
            }
          ],
          "internalType": "struct BoxOffer[]",
          "name": "_boxes",
          "type": "tuple[]"
        }
      ],
      "name": "createCampaign",
      "outputs": [
        {
          "internalType": "uint256",
          "name": "",
          "type": "uint256"
        }
      ],
      "stateMutability": "nonpayable",
      "type": "function"
    },
    {
      "inputs": [],
      "name": "getNumberOfCampaigns",
      "outputs": [
        {
          "internalType": "uint256",
          "name": "",
          "type": "uint256"
        }
      ],
      "stateMutability": "view",
      "type": "function"
    },
    {
      "inputs": [
        {
          "internalType": "uint256",
          "name": "_campaignId",
          "type": "uint256"
        }
      ],
      "name": "getCampaign",
      "outputs": [
        {
          "components": [
            {
              "internalType": "uint256",
              "name": "id",
              "type": "uint256"
            },
            {
              "components": [
                {
                  "components": [
                    {
                      "internalType": "string",
                      "name": "title",
                      "type": "string"
                    },
                    {
                      "internalType": "string",
                      "name": "description",
                      "type": "string"
                    },
                    {
                      "internalType": "uint256",
                      "name": "collectedAmount",
                      "type": "uint256"
                    },
                    {
                      "internalType": "uint256",
                      "name": "deadline",
                      "type": "uint256"
                    },
                    {
                      "internalType": "uint256",
                      "name": "totalBoxes",
                      "type": "uint256"
                    },
                    {
                      "internalType": "uint256",
                      "name": "boxesSold",
                      "type": "uint256"
                    },
                    {
                      "internalType": "bool",
                      "name": "isStopped",
                      "type": "bool"
                    }
                  ],
                  "internalType": "struct CampaignMeta",
                  "name": "meta",
                  "type": "tuple"
                },
                {
                  "components": [
                    {
                      "internalType": "address",
                      "name": "owner",
                      "type": "address"
                    },
                    {
                      "internalType": "string",
                      "name": "ownerPublicKey",
                      "type": "string"
                    }
                  ],
                  "internalType": "struct CampaignOwner",
                  "name": "owner",
                  "type": "tuple"
                },
                {
                  "components": [
                    {
                      "internalType": "string",
                      "name": "earTag",
                      "type": "string"
                    },
                    {
                      "internalType": "string",
                      "name": "name",
                      "type": "string"
                    },
                    {
                      "internalType": "string",
                      "name": "farm",
                      "type": "string"
                    },
                    {
                      "internalType": "uint8",
                      "name": "age",
                      "type": "uint8"
                    }
                  ],
                  "internalType": "struct CampaignAnimalData",
                  "name": "animal",
                  "type": "tuple"
                },
                {
                  "components": [
                    {
                      "components": [
                        {
                          "internalType": "address payable",
                          "name": "owner",
                          "type": "address"
                        },
                        {
                          "internalType": "uint8",
                          "name": "share",
                          "type": "uint8"
                        }
                      ],
                      "internalType": "struct Stakeholder",
                      "name": "farmer",
                      "type": "tuple"
                    },
                    {
                      "components": [
                        {
                          "internalType": "address payable",
                          "name": "owner",
                          "type": "address"
                        },
                        {
                          "internalType": "uint8",
                          "name": "share",
                          "type": "uint8"
                        }
                      ],
                      "internalType": "struct Stakeholder",
                      "name": "butcher",
                      "type": "tuple"
                    },
                    {
                      "components": [
                        {
                          "internalType": "address payable",
                          "name": "owner",
                          "type": "address"
                        },
                        {
                          "internalType": "uint8",
                          "name": "share",
                          "type": "uint8"
                        }
                      ],
                      "internalType": "struct Stakeholder",
                      "name": "delivery",
                      "type": "tuple"
                    }
                  ],
                  "internalType": "struct StakeholderList",
                  "name": "stakeholders",
                  "type": "tuple"
                }
              ],
              "internalType": "struct Campaign",
              "name": "campaign",
              "type": "tuple"
            }
          ],
          "internalType": "struct CampaignRef",
          "name": "",
          "type": "tuple"
        }
      ],
      "stateMutability": "view",
      "type": "function"
    },
    {
      "inputs": [],
      "name": "getCampaigns",
      "outputs": [
        {
          "components": [
            {
              "internalType": "uint256",
              "name": "id",
              "type": "uint256"
            },
            {
              "components": [
                {
                  "components": [
                    {
                      "internalType": "string",
                      "name": "title",
                      "type": "string"
                    },
                    {
                      "internalType": "string",
                      "name": "description",
                      "type": "string"
                    },
                    {
                      "internalType": "uint256",
                      "name": "collectedAmount",
                      "type": "uint256"
                    },
                    {
                      "internalType": "uint256",
                      "name": "deadline",
                      "type": "uint256"
                    },
                    {
                      "internalType": "uint256",
                      "name": "totalBoxes",
                      "type": "uint256"
                    },
                    {
                      "internalType": "uint256",
                      "name": "boxesSold",
                      "type": "uint256"
                    },
                    {
                      "internalType": "bool",
                      "name": "isStopped",
                      "type": "bool"
                    }
                  ],
                  "internalType": "struct CampaignMeta",
                  "name": "meta",
                  "type": "tuple"
                },
                {
                  "components": [
                    {
                      "internalType": "address",
                      "name": "owner",
                      "type": "address"
                    },
                    {
                      "internalType": "string",
                      "name": "ownerPublicKey",
                      "type": "string"
                    }
                  ],
                  "internalType": "struct CampaignOwner",
                  "name": "owner",
                  "type": "tuple"
                },
                {
                  "components": [
                    {
                      "internalType": "string",
                      "name": "earTag",
                      "type": "string"
                    },
                    {
                      "internalType": "string",
                      "name": "name",
                      "type": "string"
                    },
                    {
                      "internalType": "string",
                      "name": "farm",
                      "type": "string"
                    },
                    {
                      "internalType": "uint8",
                      "name": "age",
                      "type": "uint8"
                    }
                  ],
                  "internalType": "struct CampaignAnimalData",
                  "name": "animal",
                  "type": "tuple"
                },
                {
                  "components": [
                    {
                      "components": [
                        {
                          "internalType": "address payable",
                          "name": "owner",
                          "type": "address"
                        },
                        {
                          "internalType": "uint8",
                          "name": "share",
                          "type": "uint8"
                        }
                      ],
                      "internalType": "struct Stakeholder",
                      "name": "farmer",
                      "type": "tuple"
                    },
                    {
                      "components": [
                        {
                          "internalType": "address payable",
                          "name": "owner",
                          "type": "address"
                        },
                        {
                          "internalType": "uint8",
                          "name": "share",
                          "type": "uint8"
                        }
                      ],
                      "internalType": "struct Stakeholder",
                      "name": "butcher",
                      "type": "tuple"
                    },
                    {
                      "components": [
                        {
                          "internalType": "address payable",
                          "name": "owner",
                          "type": "address"
                        },
                        {
                          "internalType": "uint8",
                          "name": "share",
                          "type": "uint8"
                        }
                      ],
                      "internalType": "struct Stakeholder",
                      "name": "delivery",
                      "type": "tuple"
                    }
                  ],
                  "internalType": "struct StakeholderList",
                  "name": "stakeholders",
                  "type": "tuple"
                }
              ],
              "internalType": "struct Campaign",
              "name": "campaign",
              "type": "tuple"
            }
          ],
          "internalType": "struct CampaignRef[]",
          "name": "",
          "type": "tuple[]"
        }
      ],
      "stateMutability": "view",
      "type": "function"
    },
    {
      "inputs": [
        {
          "internalType": "uint256",
          "name": "_campaignId",
          "type": "uint256"
        }
      ],
      "name": "getBoxes",
      "outputs": [
        {
          "components": [
            {
              "internalType": "uint256",
              "name": "id",
              "type": "uint256"
            },
            {
              "components": [
                {
                  "internalType": "string",
                  "name": "title",
                  "type": "string"
                },
                {
                  "internalType": "string",
                  "name": "description",
                  "type": "string"
                },
                {
                  "internalType": "uint256",
                  "name": "price",
                  "type": "uint256"
                }
              ],
              "internalType": "struct Box",
              "name": "box",
              "type": "tuple"
            },
            {
              "internalType": "uint32",
              "name": "total",
              "type": "uint32"
            },
            {
              "internalType": "uint32",
              "name": "available",
              "type": "uint32"
            }
          ],
          "internalType": "struct BoxOffer[]",
          "name": "",
          "type": "tuple[]"
        }
      ],
      "stateMutability": "view",
      "type": "function"
    }
  ],
  "bytecode": "0x6080604052600060035534801561001557600080fd5b50613f75806100256000396000f3fe608060405234801561001057600080fd5b50600436106100935760003560e01c80635598f8cc116100665780635598f8cc1461014c578063a6b036331461017c578063b347f9ec1461019a578063b8d91ca5146101ca578063e4aafc2c146101fd57610093565b806307ca140d146100985780631355879d146100b6578063141961bc146100e95780633267f8ab1461011c575b600080fd5b6100a061021b565b6040516100ad91906125b6565b60405180910390f35b6100d060048036038101906100cb9190612611565b610221565b6040516100e0949392919061276f565b60405180910390f35b61010360048036038101906100fe91906127bb565b6103c6565b6040516101139493929190612a43565b60405180910390f35b610136600480360381019061013191906127bb565b6109d5565b6040516101439190612c29565b60405180910390f35b610166600480360381019061016191906127bb565b610be5565b6040516101739190612e8d565b60405180910390f35b610184611238565b6040516101919190612fae565b60405180910390f35b6101b460048036038101906101af91906135c1565b61191e565b6040516101c191906125b6565b60405180910390f35b6101e460048036038101906101df9190612611565b611e30565b6040516101f4949392919061374b565b60405180910390f35b61020561204d565b60405161021291906125b6565b60405180910390f35b60035481565b6001602052816000526040600020818154811061023d57600080fd5b90600052602060002090600502016000915091505080600001549080600101604051806060016040529081600082018054610277906137cd565b80601f01602080910402602001604051908101604052809291908181526020018280546102a3906137cd565b80156102f05780601f106102c5576101008083540402835291602001916102f0565b820191906000526020600020905b8154815290600101906020018083116102d357829003601f168201915b50505050508152602001600182018054610309906137cd565b80601f0160208091040260200160405190810160405280929190818152602001828054610335906137cd565b80156103825780601f1061035757610100808354040283529160200191610382565b820191906000526020600020905b81548152906001019060200180831161036557829003601f168201915b50505050508152602001600282015481525050908060040160009054906101000a900463ffffffff16908060040160049054906101000a900463ffffffff16905084565b6000602052806000526040600020600091509050806000016040518060e00160405290816000820180546103f9906137cd565b80601f0160208091040260200160405190810160405280929190818152602001828054610425906137cd565b80156104725780601f1061044757610100808354040283529160200191610472565b820191906000526020600020905b81548152906001019060200180831161045557829003601f168201915b5050505050815260200160018201805461048b906137cd565b80601f01602080910402602001604051908101604052809291908181526020018280546104b7906137cd565b80156105045780601f106104d957610100808354040283529160200191610504565b820191906000526020600020905b8154815290600101906020018083116104e757829003601f168201915b50505050508152602001600282015481526020016003820154815260200160048201548152602001600582015481526020016006820160009054906101000a900460ff16151515158152505090806007016040518060400160405290816000820160009054906101000a900473ffffffffffffffffffffffffffffffffffffffff1673ffffffffffffffffffffffffffffffffffffffff1673ffffffffffffffffffffffffffffffffffffffff1681526020016001820180546105c6906137cd565b80601f01602080910402602001604051908101604052809291908181526020018280546105f2906137cd565b801561063f5780601f106106145761010080835404028352916020019161063f565b820191906000526020600020905b81548152906001019060200180831161062257829003601f168201915b5050505050815250509080600901604051806080016040529081600082018054610668906137cd565b80601f0160208091040260200160405190810160405280929190818152602001828054610694906137cd565b80156106e15780601f106106b6576101008083540402835291602001916106e1565b820191906000526020600020905b8154815290600101906020018083116106c457829003601f168201915b505050505081526020016001820180546106fa906137cd565b80601f0160208091040260200160405190810160405280929190818152602001828054610726906137cd565b80156107735780601f1061074857610100808354040283529160200191610773565b820191906000526020600020905b81548152906001019060200180831161075657829003601f168201915b5050505050815260200160028201805461078c906137cd565b80601f01602080910402602001604051908101604052809291908181526020018280546107b8906137cd565b80156108055780601f106107da57610100808354040283529160200191610805565b820191906000526020600020905b8154815290600101906020018083116107e857829003601f168201915b505050505081526020016003820160009054906101000a900460ff1660ff1660ff16815250509080600d01604051806060016040529081600082016040518060400160405290816000820160009054906101000a900473ffffffffffffffffffffffffffffffffffffffff1673ffffffffffffffffffffffffffffffffffffffff1673ffffffffffffffffffffffffffffffffffffffff1681526020016000820160149054906101000a900460ff1660ff1660ff16815250508152602001600182016040518060400160405290816000820160009054906101000a900473ffffffffffffffffffffffffffffffffffffffff1673ffffffffffffffffffffffffffffffffffffffff1673ffffffffffffffffffffffffffffffffffffffff1681526020016000820160149054906101000a900460ff1660ff1660ff16815250508152602001600282016040518060400160405290816000820160009054906101000a900473ffffffffffffffffffffffffffffffffffffffff1673ffffffffffffffffffffffffffffffffffffffff1673ffffffffffffffffffffffffffffffffffffffff1681526020016000820160149054906101000a900460ff1660ff1660ff168152505081525050905084565b6060600060016000848152602001908152602001600020905080805480602002602001604051908101604052809291908181526020016000905b82821015610bd957838290600052602060002090600502016040518060800160405290816000820154815260200160018201604051806060016040529081600082018054610a5c906137cd565b80601f0160208091040260200160405190810160405280929190818152602001828054610a88906137cd565b8015610ad55780601f10610aaa57610100808354040283529160200191610ad5565b820191906000526020600020905b815481529060010190602001808311610ab857829003601f168201915b50505050508152602001600182018054610aee906137cd565b80601f0160208091040260200160405190810160405280929190818152602001828054610b1a906137cd565b8015610b675780601f10610b3c57610100808354040283529160200191610b67565b820191906000526020600020905b815481529060010190602001808311610b4a57829003601f168201915b5050505050815260200160028201548152505081526020016004820160009054906101000a900463ffffffff1663ffffffff1663ffffffff1681526020016004820160049054906101000a900463ffffffff1663ffffffff1663ffffffff168152505081526020019060010190610a0f565b50505050915050919050565b610bed61239a565b600080600084815260200190815260200160002090506000604051806040016040528085815260200183604051806080016040529081600082016040518060e0016040529081600082018054610c42906137cd565b80601f0160208091040260200160405190810160405280929190818152602001828054610c6e906137cd565b8015610cbb5780601f10610c9057610100808354040283529160200191610cbb565b820191906000526020600020905b815481529060010190602001808311610c9e57829003601f168201915b50505050508152602001600182018054610cd4906137cd565b80601f0160208091040260200160405190810160405280929190818152602001828054610d00906137cd565b8015610d4d5780601f10610d2257610100808354040283529160200191610d4d565b820191906000526020600020905b815481529060010190602001808311610d3057829003601f168201915b50505050508152602001600282015481526020016003820154815260200160048201548152602001600582015481526020016006820160009054906101000a900460ff1615151515815250508152602001600782016040518060400160405290816000820160009054906101000a900473ffffffffffffffffffffffffffffffffffffffff1673ffffffffffffffffffffffffffffffffffffffff1673ffffffffffffffffffffffffffffffffffffffff168152602001600182018054610e13906137cd565b80601f0160208091040260200160405190810160405280929190818152602001828054610e3f906137cd565b8015610e8c5780601f10610e6157610100808354040283529160200191610e8c565b820191906000526020600020905b815481529060010190602001808311610e6f57829003601f168201915b505050505081525050815260200160098201604051806080016040529081600082018054610eb9906137cd565b80601f0160208091040260200160405190810160405280929190818152602001828054610ee5906137cd565b8015610f325780601f10610f0757610100808354040283529160200191610f32565b820191906000526020600020905b815481529060010190602001808311610f1557829003601f168201915b50505050508152602001600182018054610f4b906137cd565b80601f0160208091040260200160405190810160405280929190818152602001828054610f77906137cd565b8015610fc45780601f10610f9957610100808354040283529160200191610fc4565b820191906000526020600020905b815481529060010190602001808311610fa757829003601f168201915b50505050508152602001600282018054610fdd906137cd565b80601f0160208091040260200160405190810160405280929190818152602001828054611009906137cd565b80156110565780601f1061102b57610100808354040283529160200191611056565b820191906000526020600020905b81548152906001019060200180831161103957829003601f168201915b505050505081526020016003820160009054906101000a900460ff1660ff1660ff16815250508152602001600d8201604051806060016040529081600082016040518060400160405290816000820160009054906101000a900473ffffffffffffffffffffffffffffffffffffffff1673ffffffffffffffffffffffffffffffffffffffff1673ffffffffffffffffffffffffffffffffffffffff1681526020016000820160149054906101000a900460ff1660ff1660ff16815250508152602001600182016040518060400160405290816000820160009054906101000a900473ffffffffffffffffffffffffffffffffffffffff1673ffffffffffffffffffffffffffffffffffffffff1673ffffffffffffffffffffffffffffffffffffffff1681526020016000820160149054906101000a900460ff1660ff1660ff16815250508152602001600282016040518060400160405290816000820160009054906101000a900473ffffffffffffffffffffffffffffffffffffffff1673ffffffffffffffffffffffffffffffffffffffff1673ffffffffffffffffffffffffffffffffffffffff1681526020016000820160149054906101000a900460ff1660ff1660ff1681525050815250508152505081525090508092505050919050565b6060600060035467ffffffffffffffff81111561125857611257612fda565b5b60405190808252806020026020018201604052801561129157816020015b61127e61239a565b8152602001906001900390816112765790505b50905060005b60035481101561191657600080600083815260200190815260200160002090506000604051806040016040528084815260200183604051806080016040529081600082016040518060e00160405290816000820180546112f6906137cd565b80601f0160208091040260200160405190810160405280929190818152602001828054611322906137cd565b801561136f5780601f106113445761010080835404028352916020019161136f565b820191906000526020600020905b81548152906001019060200180831161135257829003601f168201915b50505050508152602001600182018054611388906137cd565b80601f01602080910402602001604051908101604052809291908181526020018280546113b4906137cd565b80156114015780601f106113d657610100808354040283529160200191611401565b820191906000526020600020905b8154815290600101906020018083116113e457829003601f168201915b50505050508152602001600282015481526020016003820154815260200160048201548152602001600582015481526020016006820160009054906101000a900460ff1615151515815250508152602001600782016040518060400160405290816000820160009054906101000a900473ffffffffffffffffffffffffffffffffffffffff1673ffffffffffffffffffffffffffffffffffffffff1673ffffffffffffffffffffffffffffffffffffffff1681526020016001820180546114c7906137cd565b80601f01602080910402602001604051908101604052809291908181526020018280546114f3906137cd565b80156115405780601f1061151557610100808354040283529160200191611540565b820191906000526020600020905b81548152906001019060200180831161152357829003601f168201915b50505050508152505081526020016009820160405180608001604052908160008201805461156d906137cd565b80601f0160208091040260200160405190810160405280929190818152602001828054611599906137cd565b80156115e65780601f106115bb576101008083540402835291602001916115e6565b820191906000526020600020905b8154815290600101906020018083116115c957829003601f168201915b505050505081526020016001820180546115ff906137cd565b80601f016020809104026020016040519081016040528092919081815260200182805461162b906137cd565b80156116785780601f1061164d57610100808354040283529160200191611678565b820191906000526020600020905b81548152906001019060200180831161165b57829003601f168201915b50505050508152602001600282018054611691906137cd565b80601f01602080910402602001604051908101604052809291908181526020018280546116bd906137cd565b801561170a5780601f106116df5761010080835404028352916020019161170a565b820191906000526020600020905b8154815290600101906020018083116116ed57829003601f168201915b505050505081526020016003820160009054906101000a900460ff1660ff1660ff16815250508152602001600d8201604051806060016040529081600082016040518060400160405290816000820160009054906101000a900473ffffffffffffffffffffffffffffffffffffffff1673ffffffffffffffffffffffffffffffffffffffff1673ffffffffffffffffffffffffffffffffffffffff1681526020016000820160149054906101000a900460ff1660ff1660ff16815250508152602001600182016040518060400160405290816000820160009054906101000a900473ffffffffffffffffffffffffffffffffffffffff1673ffffffffffffffffffffffffffffffffffffffff1673ffffffffffffffffffffffffffffffffffffffff1681526020016000820160149054906101000a900460ff1660ff1660ff16815250508152602001600282016040518060400160405290816000820160009054906101000a900473ffffffffffffffffffffffffffffffffffffffff1673ffffffffffffffffffffffffffffffffffffffff1673ffffffffffffffffffffffffffffffffffffffff1681526020016000820160149054906101000a900460ff1660ff1660ff168152505081525050815250508152509050808484815181106118f6576118f56137fe565b5b60200260200101819052505050808061190e9061385c565b915050611297565b508091505090565b600062375f008663ffffffff16111561196c576040517f08c379a000000000000000000000000000000000000000000000000000000000815260040161196390613916565b60405180910390fd5b600042905060008763ffffffff16826119859190613936565b90508181116119c9576040517f08c379a00000000000000000000000000000000000000000000000000000000081526004016119c0906139d8565b60405180910390fd5b6119d286612057565b6119db84612206565b600080600060035481526020019081526020016000209050878160070160008201518160000160006101000a81548173ffffffffffffffffffffffffffffffffffffffff021916908373ffffffffffffffffffffffffffffffffffffffff1602179055506020820151816001019080519060200190611a5b9291906123ba565b509050508a816000016000019080519060200190611a7a9291906123ba565b5089816000016001019080519060200190611a969291906123ba565b506000816000016002018190555081816000016003018190555060008160000160060160006101000a81548160ff021916908315150217905550845181600001600401819055506000816000016005018190555085816009016000820151816000019080519060200190611b0b9291906123ba565b506020820151816001019080519060200190611b289291906123ba565b506040820151816002019080519060200190611b459291906123ba565b5060608201518160030160006101000a81548160ff021916908360ff1602179055509050508681600d0160008201518160000160008201518160000160006101000a81548173ffffffffffffffffffffffffffffffffffffffff021916908373ffffffffffffffffffffffffffffffffffffffff16021790555060208201518160000160146101000a81548160ff021916908360ff160217905550505060208201518160010160008201518160000160006101000a81548173ffffffffffffffffffffffffffffffffffffffff021916908373ffffffffffffffffffffffffffffffffffffffff16021790555060208201518160000160146101000a81548160ff021916908360ff160217905550505060408201518160020160008201518160000160006101000a81548173ffffffffffffffffffffffffffffffffffffffff021916908373ffffffffffffffffffffffffffffffffffffffff16021790555060208201518160000160146101000a81548160ff021916908360ff16021790555050509050506000600160006003548152602001908152602001600020905060005b8651811015611df7576000878281518110611d0557611d046137fe565b5b6020026020010151905082819080600181540180825580915050600190039060005260206000209060050201600090919091909150600082015181600001556020820151816001016000820151816000019080519060200190611d699291906123ba565b506020820151816001019080519060200190611d869291906123ba565b5060408201518160020155505060408201518160040160006101000a81548163ffffffff021916908363ffffffff16021790555060608201518160040160046101000a81548163ffffffff021916908363ffffffff1602179055505050508080611def9061385c565b915050611ce7565b5060036000815480929190611e0b9061385c565b91905055506001600354611e1f91906139f8565b945050505050979650505050505050565b60026020528160005260406000206020528060005260406000206000915091505080600001549080600101604051806060016040529081600082018054611e76906137cd565b80601f0160208091040260200160405190810160405280929190818152602001828054611ea2906137cd565b8015611eef5780601f10611ec457610100808354040283529160200191611eef565b820191906000526020600020905b815481529060010190602001808311611ed257829003601f168201915b50505050508152602001600182018054611f08906137cd565b80601f0160208091040260200160405190810160405280929190818152602001828054611f34906137cd565b8015611f815780601f10611f5657610100808354040283529160200191611f81565b820191906000526020600020905b815481529060010190602001808311611f6457829003601f168201915b50505050508152602001600282015481525050908060040160009054906101000a900473ffffffffffffffffffffffffffffffffffffffff1690806005018054611fca906137cd565b80601f0160208091040260200160405190810160405280929190818152602001828054611ff6906137cd565b80156120435780601f1061201857610100808354040283529160200191612043565b820191906000526020600020905b81548152906001019060200180831161202657829003601f168201915b5050505050905084565b6000600354905090565b600081600001516020015160ff1611801561207e5750606481600001516020015160ff1611155b6120bd576040517f08c379a00000000000000000000000000000000000000000000000000000000081526004016120b490613ac4565b60405180910390fd5b600081602001516020015160ff161180156120e45750606481602001516020015160ff1611155b612123576040517f08c379a000000000000000000000000000000000000000000000000000000000815260040161211a90613b7c565b60405180910390fd5b600081604001516020015160ff1611801561214a5750606481604001516020015160ff1611155b612189576040517f08c379a000000000000000000000000000000000000000000000000000000000815260040161218090613c34565b60405180910390fd5b60008160400151602001518260200151602001518360000151602001516121b09190613c54565b6121ba9190613c54565b905060648160ff1614612202576040517f08c379a00000000000000000000000000000000000000000000000000000000081526004016121f990613cfd565b60405180910390fd5b5050565b6000805b8251811015612352576000838281518110612228576122276137fe565b5b602002602001015190506000816040015163ffffffff161161227f576040517f08c379a000000000000000000000000000000000000000000000000000000000815260040161227690613d8f565b60405180910390fd5b806060015163ffffffff16816040015163ffffffff16146122d5576040517f08c379a00000000000000000000000000000000000000000000000000000000081526004016122cc90613e21565b60405180910390fd5b806040015163ffffffff16836122eb9190613936565b9250600081602001519050600081604001511161233d576040517f08c379a000000000000000000000000000000000000000000000000000000000815260040161233490613eb3565b60405180910390fd5b5050808061234a9061385c565b91505061220a565b5060008111612396576040517f08c379a000000000000000000000000000000000000000000000000000000000815260040161238d90613f1f565b60405180910390fd5b5050565b6040518060400160405280600081526020016123b4612440565b81525090565b8280546123c6906137cd565b90600052602060002090601f0160209004810192826123e8576000855561242f565b82601f1061240157805160ff191683800117855561242f565b8280016001018555821561242f579182015b8281111561242e578251825591602001919060010190612413565b5b50905061243c9190612480565b5090565b604051806080016040528061245361249d565b81526020016124606124dc565b815260200161246d61250c565b815260200161247a612537565b81525090565b5b80821115612499576000816000905550600101612481565b5090565b6040518060e001604052806060815260200160608152602001600081526020016000815260200160008152602001600081526020016000151581525090565b6040518060400160405280600073ffffffffffffffffffffffffffffffffffffffff168152602001606081525090565b6040518060800160405280606081526020016060815260200160608152602001600060ff1681525090565b604051806060016040528061254a61256a565b815260200161255761256a565b815260200161256461256a565b81525090565b6040518060400160405280600073ffffffffffffffffffffffffffffffffffffffff168152602001600060ff1681525090565b6000819050919050565b6125b08161259d565b82525050565b60006020820190506125cb60008301846125a7565b92915050565b6000604051905090565b600080fd5b600080fd5b6125ee8161259d565b81146125f957600080fd5b50565b60008135905061260b816125e5565b92915050565b60008060408385031215612628576126276125db565b5b6000612636858286016125fc565b9250506020612647858286016125fc565b9150509250929050565b600081519050919050565b600082825260208201905092915050565b60005b8381101561268b578082015181840152602081019050612670565b8381111561269a576000848401525b50505050565b6000601f19601f8301169050919050565b60006126bc82612651565b6126c6818561265c565b93506126d681856020860161266d565b6126df816126a0565b840191505092915050565b6126f38161259d565b82525050565b6000606083016000830151848203600086015261271682826126b1565b9150506020830151848203602086015261273082826126b1565b915050604083015161274560408601826126ea565b508091505092915050565b600063ffffffff82169050919050565b61276981612750565b82525050565b600060808201905061278460008301876125a7565b818103602083015261279681866126f9565b90506127a56040830185612760565b6127b26060830184612760565b95945050505050565b6000602082840312156127d1576127d06125db565b5b60006127df848285016125fc565b91505092915050565b60008115159050919050565b6127fd816127e8565b82525050565b600060e083016000830151848203600086015261282082826126b1565b9150506020830151848203602086015261283a82826126b1565b915050604083015161284f60408601826126ea565b50606083015161286260608601826126ea565b50608083015161287560808601826126ea565b5060a083015161288860a08601826126ea565b5060c083015161289b60c08601826127f4565b508091505092915050565b600073ffffffffffffffffffffffffffffffffffffffff82169050919050565b60006128d1826128a6565b9050919050565b6128e1816128c6565b82525050565b60006040830160008301516128ff60008601826128d8565b506020830151848203602086015261291782826126b1565b9150508091505092915050565b600060ff82169050919050565b61293a81612924565b82525050565b6000608083016000830151848203600086015261295d82826126b1565b9150506020830151848203602086015261297782826126b1565b9150506040830151848203604086015261299182826126b1565b91505060608301516129a66060860182612931565b508091505092915050565b60006129bc826128a6565b9050919050565b6129cc816129b1565b82525050565b6040820160008201516129e860008501826129c3565b5060208201516129fb6020850182612931565b50505050565b60c082016000820151612a1760008501826129d2565b506020820151612a2a60408501826129d2565b506040820151612a3d60808501826129d2565b50505050565b6000610120820190508181036000830152612a5e8187612803565b90508181036020830152612a7281866128e7565b90508181036040830152612a868185612940565b9050612a956060830184612a01565b95945050505050565b600081519050919050565b600082825260208201905092915050565b6000819050602082019050919050565b60006060830160008301518482036000860152612ae782826126b1565b91505060208301518482036020860152612b0182826126b1565b9150506040830151612b1660408601826126ea565b508091505092915050565b612b2a81612750565b82525050565b6000608083016000830151612b4860008601826126ea565b5060208301518482036020860152612b608282612aca565b9150506040830151612b756040860182612b21565b506060830151612b886060860182612b21565b508091505092915050565b6000612b9f8383612b30565b905092915050565b6000602082019050919050565b6000612bbf82612a9e565b612bc98185612aa9565b935083602082028501612bdb85612aba565b8060005b85811015612c175784840389528151612bf88582612b93565b9450612c0383612ba7565b925060208a01995050600181019050612bdf565b50829750879550505050505092915050565b60006020820190508181036000830152612c438184612bb4565b905092915050565b600060e0830160008301518482036000860152612c6882826126b1565b91505060208301518482036020860152612c8282826126b1565b9150506040830151612c9760408601826126ea565b506060830151612caa60608601826126ea565b506080830151612cbd60808601826126ea565b5060a0830151612cd060a08601826126ea565b5060c0830151612ce360c08601826127f4565b508091505092915050565b6000604083016000830151612d0660008601826128d8565b5060208301518482036020860152612d1e82826126b1565b9150508091505092915050565b60006080830160008301518482036000860152612d4882826126b1565b91505060208301518482036020860152612d6282826126b1565b91505060408301518482036040860152612d7c82826126b1565b9150506060830151612d916060860182612931565b508091505092915050565b60c082016000820151612db260008501826129d2565b506020820151612dc560408501826129d2565b506040820151612dd860808501826129d2565b50505050565b6000610120830160008301518482036000860152612dfc8282612c4b565b91505060208301518482036020860152612e168282612cee565b91505060408301518482036040860152612e308282612d2b565b9150506060830151612e456060860182612d9c565b508091505092915050565b6000604083016000830151612e6860008601826126ea565b5060208301518482036020860152612e808282612dde565b9150508091505092915050565b60006020820190508181036000830152612ea78184612e50565b905092915050565b600081519050919050565b600082825260208201905092915050565b6000819050602082019050919050565b6000604083016000830151612ef360008601826126ea565b5060208301518482036020860152612f0b8282612dde565b9150508091505092915050565b6000612f248383612edb565b905092915050565b6000602082019050919050565b6000612f4482612eaf565b612f4e8185612eba565b935083602082028501612f6085612ecb565b8060005b85811015612f9c5784840389528151612f7d8582612f18565b9450612f8883612f2c565b925060208a01995050600181019050612f64565b50829750879550505050505092915050565b60006020820190508181036000830152612fc88184612f39565b905092915050565b600080fd5b600080fd5b7f4e487b7100000000000000000000000000000000000000000000000000000000600052604160045260246000fd5b613012826126a0565b810181811067ffffffffffffffff8211171561303157613030612fda565b5b80604052505050565b60006130446125d1565b90506130508282613009565b919050565b600067ffffffffffffffff8211156130705761306f612fda565b5b613079826126a0565b9050602081019050919050565b82818337600083830152505050565b60006130a86130a384613055565b61303a565b9050828152602081018484840111156130c4576130c3612fd5565b5b6130cf848285613086565b509392505050565b600082601f8301126130ec576130eb612fd0565b5b81356130fc848260208601613095565b91505092915050565b61310e81612750565b811461311957600080fd5b50565b60008135905061312b81613105565b92915050565b600080fd5b600080fd5b613144816128c6565b811461314f57600080fd5b50565b6000813590506131618161313b565b92915050565b60006040828403121561317d5761317c613131565b5b613187604061303a565b9050600061319784828501613152565b600083015250602082013567ffffffffffffffff8111156131bb576131ba613136565b5b6131c7848285016130d7565b60208301525092915050565b6131dc816129b1565b81146131e757600080fd5b50565b6000813590506131f9816131d3565b92915050565b61320881612924565b811461321357600080fd5b50565b600081359050613225816131ff565b92915050565b60006040828403121561324157613240613131565b5b61324b604061303a565b9050600061325b848285016131ea565b600083015250602061326f84828501613216565b60208301525092915050565b600060c0828403121561329157613290613131565b5b61329b606061303a565b905060006132ab8482850161322b565b60008301525060406132bf8482850161322b565b60208301525060806132d38482850161322b565b60408301525092915050565b6000608082840312156132f5576132f4613131565b5b6132ff608061303a565b9050600082013567ffffffffffffffff81111561331f5761331e613136565b5b61332b848285016130d7565b600083015250602082013567ffffffffffffffff81111561334f5761334e613136565b5b61335b848285016130d7565b602083015250604082013567ffffffffffffffff81111561337f5761337e613136565b5b61338b848285016130d7565b604083015250606061339f84828501613216565b60608301525092915050565b600067ffffffffffffffff8211156133c6576133c5612fda565b5b602082029050602081019050919050565b600080fd5b6000606082840312156133f2576133f1613131565b5b6133fc606061303a565b9050600082013567ffffffffffffffff81111561341c5761341b613136565b5b613428848285016130d7565b600083015250602082013567ffffffffffffffff81111561344c5761344b613136565b5b613458848285016130d7565b602083015250604061346c848285016125fc565b60408301525092915050565b60006080828403121561348e5761348d613131565b5b613498608061303a565b905060006134a8848285016125fc565b600083015250602082013567ffffffffffffffff8111156134cc576134cb613136565b5b6134d8848285016133dc565b60208301525060406134ec8482850161311c565b60408301525060606135008482850161311c565b60608301525092915050565b600061351f61351a846133ab565b61303a565b90508083825260208201905060208402830185811115613542576135416133d7565b5b835b8181101561358957803567ffffffffffffffff81111561356757613566612fd0565b5b8086016135748982613478565b85526020850194505050602081019050613544565b5050509392505050565b600082601f8301126135a8576135a7612fd0565b5b81356135b884826020860161350c565b91505092915050565b6000806000806000806000610180888a0312156135e1576135e06125db565b5b600088013567ffffffffffffffff8111156135ff576135fe6125e0565b5b61360b8a828b016130d7565b975050602088013567ffffffffffffffff81111561362c5761362b6125e0565b5b6136388a828b016130d7565b96505060406136498a828b0161311c565b955050606088013567ffffffffffffffff81111561366a576136696125e0565b5b6136768a828b01613167565b94505060806136878a828b0161327b565b93505061014088013567ffffffffffffffff8111156136a9576136a86125e0565b5b6136b58a828b016132df565b92505061016088013567ffffffffffffffff8111156136d7576136d66125e0565b5b6136e38a828b01613593565b91505092959891949750929550565b6136fb816128c6565b82525050565b600082825260208201905092915050565b600061371d82612651565b6137278185613701565b935061373781856020860161266d565b613740816126a0565b840191505092915050565b600060808201905061376060008301876125a7565b818103602083015261377281866126f9565b905061378160408301856136f2565b81810360608301526137938184613712565b905095945050505050565b7f4e487b7100000000000000000000000000000000000000000000000000000000600052602260045260246000fd5b600060028204905060018216806137e557607f821691505b6020821081036137f8576137f761379e565b5b50919050565b7f4e487b7100000000000000000000000000000000000000000000000000000000600052603260045260246000fd5b7f4e487b7100000000000000000000000000000000000000000000000000000000600052601160045260246000fd5b60006138678261259d565b91507fffffffffffffffffffffffffffffffffffffffffffffffffffffffffffffffff82036138995761389861382d565b5b600182019050919050565b7f4475726174696f6e2063616e277420626520686967686572207468616e20362060008201527f7765656b73000000000000000000000000000000000000000000000000000000602082015250565b6000613900602583613701565b915061390b826138a4565b604082019050919050565b6000602082019050818103600083015261392f816138f3565b9050919050565b60006139418261259d565b915061394c8361259d565b9250827fffffffffffffffffffffffffffffffffffffffffffffffffffffffffffffffff038211156139815761398061382d565b5b828201905092915050565b7f446561646c696e65206d75737420626520696e20746865206675747572650000600082015250565b60006139c2601e83613701565b91506139cd8261398c565b602082019050919050565b600060208201905081810360008301526139f1816139b5565b9050919050565b6000613a038261259d565b9150613a0e8361259d565b925082821015613a2157613a2061382d565b5b828203905092915050565b7f4661726d6572207368617265206d75737420626520686967686572207468616e60008201527f20302520616e642063616e277420626520686967686572207468616e2031303060208201527f2500000000000000000000000000000000000000000000000000000000000000604082015250565b6000613aae604183613701565b9150613ab982613a2c565b606082019050919050565b60006020820190508181036000830152613add81613aa1565b9050919050565b7f42757463686572207368617265206d757374206265206869676865722074686160008201527f6e20302520616e642063616e277420626520686967686572207468616e20313060208201527f3025000000000000000000000000000000000000000000000000000000000000604082015250565b6000613b66604283613701565b9150613b7182613ae4565b606082019050919050565b60006020820190508181036000830152613b9581613b59565b9050919050565b7f44656c69766572792053657276696365207368617265206d757374206265206860008201527f6967686572207468616e20302520616e642063616e277420626520686967686560208201527f72207468616e2031303025000000000000000000000000000000000000000000604082015250565b6000613c1e604b83613701565b9150613c2982613b9c565b606082019050919050565b60006020820190508181036000830152613c4d81613c11565b9050919050565b6000613c5f82612924565b9150613c6a83612924565b92508260ff03821115613c8057613c7f61382d565b5b828201905092915050565b7f54686520746f74616c207368617265206f6620616c6c207374616b65686f6c6460008201527f657273206d75737420626520657175616c20746f203130302500000000000000602082015250565b6000613ce7603983613701565b9150613cf282613c8b565b604082019050919050565b60006020820190508181036000830152613d1681613cda565b9050919050565b7f5468657265206d757374206265206174206c65617374206f6e6520626f78207460008201527f6f2073656c6c0000000000000000000000000000000000000000000000000000602082015250565b6000613d79602683613701565b9150613d8482613d1d565b604082019050919050565b60006020820190508181036000830152613da881613d6c565b9050919050565b7f496e697469616c6c7920746f74616c206e756d626572206f6620626f7865732060008201527f616e6420617661696c61626c65206d75737420626520657175616c0000000000602082015250565b6000613e0b603b83613701565b9150613e1682613daf565b604082019050919050565b60006020820190508181036000830152613e3a81613dfe565b9050919050565b7f4120626f7820726571756972657320612070726963652068696768657220746860008201527f616e203000000000000000000000000000000000000000000000000000000000602082015250565b6000613e9d602483613701565b9150613ea882613e41565b604082019050919050565b60006020820190508181036000830152613ecc81613e90565b9050919050565b7f4174206c65617374206f6e6520626f7820697320726571756972656400000000600082015250565b6000613f09601c83613701565b9150613f1482613ed3565b602082019050919050565b60006020820190508181036000830152613f3881613efc565b905091905056fea26469706673582212203c8117eec020e0c380698781c6e989f2126b35259724e0173eef8cfccb8ad8fe64736f6c634300080d0033",
  "immutableReferences": {},
  "source": "// SPDX-License-Identifier: AGPL\npragma solidity ^0.8.13;\n\nimport './CrowdfundingLib.sol';\nimport './Types.sol';\n\ncontract Crowdfunding {\n\n    // all campaigns\n    mapping(uint256 => Campaign) public campaigns;\n    // available boxes for specific campaigns\n    mapping(uint256 => BoxOffer[]) public boxOffers;\n    // sold boxes for specific campaigns (campginId => sellId => BoxSellRef)\n    mapping(uint256 => mapping(uint256 => BoxSellRef)) public soldBoxesCampaign;\n    // sold boxes for specific addresses\n    //mapping(address => mapping(uint => BoxSellRef[])) public soldBoxesAddress;\n\n    uint256 public numberOfCampaigns = 0;\n\n    /**\n     * Adds a buyer\n     */\n    /*function addBuyer(uint256 _campaignId, address _buyer, Box memory _box, string memory _physAddress) private {\n      Campaign storage campaign = campaigns[_campaignId];\n      // Make sure boxesSold has not been increased yet\n      uint256 boxId = campaign.boxesSold;\n\n      BoxSellRef storage soldBox = soldBoxesCampaign[_campaignId][boxId];\n      soldBox.id = boxId;\n      soldBox.owner = _buyer;\n      soldBox.box = _box;\n      soldBox.physAddress = _physAddress;\n    }*/\n\n    /**\n     * Creates a new campaign\n     */\n    function createCampaign(\n        string memory _title,\n        string memory _description,\n        uint32 _duration,\n        CampaignOwner memory _campaignOwner,\n        StakeholderList memory _stakeholders,\n        CampaignAnimalData memory _animal,\n        BoxOffer[] memory _boxes\n    ) public returns (uint256) {\n        // check crowdfunding duration\n        require(_duration <= 6 weeks, \"Duration can't be higher than 6 weeks\");\n\n        // create deadline by adding the duration to the current timestamp\n        uint256 current = block.timestamp;\n        uint256 deadline = current + _duration;\n\n        // validate\n        require(\n            deadline > current,\n            \"Deadline must be in the future\"\n        );\n        CrowdfundingLib.validateStakeholders(_stakeholders);\n        CrowdfundingLib.validateBoxes(_boxes);\n\n        // Create campaign\n        Campaign storage campaign = campaigns[numberOfCampaigns];\n        campaign.owner = _campaignOwner;\n        campaign.meta.title = _title;\n        campaign.meta.description = _description;\n        campaign.meta.collectedAmount = 0;\n        campaign.meta.deadline = deadline;\n        campaign.meta.isStopped = false;\n        campaign.meta.totalBoxes = _boxes.length;\n        campaign.meta.boxesSold = 0;\n        campaign.animal = _animal;\n        campaign.stakeholders = _stakeholders;\n\n        // add boxes\n        BoxOffer[] storage _offers = boxOffers[numberOfCampaigns];\n        for (uint256 index = 0; index < _boxes.length; index++) {\n            BoxOffer memory offer = _boxes[index];\n            _offers.push(offer);\n        }\n\n        // increase total num of campaigns\n        numberOfCampaigns++;\n\n        // return the most recent campaign index\n        return numberOfCampaigns - 1;\n    }\n\n    /**\n    * Returns the total number of campaigns\n    */\n    function getNumberOfCampaigns() public view returns (uint256) {\n      return numberOfCampaigns;\n    }\n\n    /**\n     * Returns the public key of a campaign\n     */\n    /*function getPublicKey(uint256 _campaignId) public view returns (string memory) {\n      Campaign storage campaign = campaigns[_campaignId];\n      return campaign.ownerPublicKey;\n    }*/\n\n    /**\n     * Removes a campaign\n     */\n    /*function stopCampaign(uint256 _campaignId) public returns (bool) {\n      Campaign storage campaign = campaigns[_campaignId];\n      require(!campaign.isStopped, \"Campaign already stopped\");\n      require(campaign.deadline > block.timestamp, \"This campaign is over\");\n      require(msg.sender == campaign.owner, \"Only the owner can stop a campaign\");\n\n      campaign.isStopped = true;\n\n      return true;\n    }*/\n\n    /**\n     * Buys a box\n     */\n    /*function buyBox(uint256 _campaignId, uint256 _boxId, string memory _physAddress) public payable {\n        // get campaign ref\n        Campaign storage campaign = campaigns[_campaignId];\n\n        // check if this is an ongoing campaign\n        require(!campaign.isStopped, \"This campaign has stopped\");\n        require(campaign.deadline > block.timestamp, \"This campaign is over\");\n\n        // check if this campaign still has available boxes for the requested kind\n        BoxOffer storage boxOffer = boxOffers[_campaignId][_boxId];\n        require(boxOffer.id == _boxId, \"The box ID is invalid\");\n        require(boxOffer.available > 0, \"All boxes of this type have been sold\");\n\n        // check if the offer is valid\n        Box memory box = boxOffer.box;\n        uint256 amount = msg.value;\n        require(amount >= box.price, \"Given amount is below box price\");\n\n        // Add buyer\n        addBuyer(_campaignId, msg.sender, box, _physAddress);\n\n        // Updates available boxes by one\n        boxOffer.available-=1;\n        campaign.boxesSold+=1;\n        // Add to total collected amount\n        campaign.collectedAmount+=amount;\n\n        if (campaign.boxesSold == campaign.totalBoxes) {\n          // Mark campaign as stopped\n          campaign.isStopped = true;\n          // TODO Start Supply Chain\n        }\n    }*/\n\n    /**\n     * Returns a specific campaign\n     */\n    function getCampaign(uint256 _campaignId) public view returns (CampaignRef memory) {\n        Campaign storage campaign = campaigns[_campaignId];\n        CampaignRef memory ref = CampaignRef({ id: _campaignId, campaign: campaign });\n        return ref;\n    }\n\n    /**\n     * Returns all campaigns\n     */\n    function getCampaigns() public view returns (CampaignRef[] memory) {\n        CampaignRef[] memory allCampaigns = new CampaignRef[](numberOfCampaigns);\n\n        for (uint256 index = 0; index < numberOfCampaigns; index++) {\n            Campaign storage campaign = campaigns[index];\n            CampaignRef memory ref = CampaignRef({ id: index, campaign: campaign });\n            allCampaigns[index] = ref;\n        }\n\n        return allCampaigns;\n    }\n\n    /**\n     * Returns all ongoing campaigns\n     */\n    /*function getOngoingCampaigns() public view returns (CampaignRef[] memory) {\n        CampaignRef[] memory allCampaigns = new CampaignRef[](numberOfCampaigns);\n\n        for (uint256 index = 0; index < numberOfCampaigns; index++) {\n            Campaign storage campaign = campaigns[index];\n            if (!campaign.isStopped) {\n              CampaignRef memory ref = CampaignRef({ id: index, campaign: campaign });\n              allCampaigns[index] = ref;\n            }\n        }\n\n        return allCampaigns;\n    }*/\n\n    /**\n     * Returns all boxes of a specific campaign\n     */\n    function getBoxes(uint256 _campaignId) public view returns (BoxOffer[] memory) {\n        BoxOffer[] storage boxOffer = boxOffers[_campaignId];\n        return boxOffer;\n    }\n\n    /**\n     * Returns a list of all sold boxes for a specific campaign\n     */\n    /*function getSoldBoxes(uint256 _campaignId) public view returns(BoxSellRef[] memory) {\n      Campaign storage campaign = campaigns[_campaignId];\n      BoxSellRef[] memory boxSells = new BoxSellRef[](campaign.boxesSold);\n\n      for (uint256 index = 0; index < boxSells.length; index++) {\n        boxSells[index] = soldBoxesCampaign[_campaignId][index];\n      }\n\n      return boxSells;\n    }*/\n\n    /**\n     * Pay-out all stakeholders of the campaign\n     */\n    /*function payOut(uint256 _campaignId) public {\n      Campaign storage campaign = campaigns[_campaignId];\n      require(campaign.isStopped, \"The campaign must be finished\");\n      require(campaign.boxesSold == campaign.totalBoxes, \"There can't be any boxes left\");\n\n      // TODO Check if supply chain has been completed\n      // e.g. require(campaign.supplyChain.isCompleted);\n\n      // Generate shares\n      uint256 farmerShare = campaign.collectedAmount * campaign.farmer.share;\n      uint256 butcherShare = campaign.collectedAmount * campaign.farmer.share;\n      uint256 deliveryShare = campaign.collectedAmount * campaign.farmer.share;\n\n      // payout stakeholders\n      payable(campaign.farmer.owner).transfer(farmerShare);\n      payable(campaign.butcher.owner).transfer(butcherShare);\n      payable(campaign.delivery.owner).transfer(deliveryShare);\n    }*/\n\n}\n",
  "sourcePath": "/workspaces/146157_Blockchain/smart_contracts/contracts/Crowdfunding.sol",
  "compiler": {
    "name": "solc",
    "version": "0.8.13+commit.abaa5c0e.Emscripten.clang"
  },
  "schemaVersion": "3.4.14",
  "updatedAt": "2023-08-05T09:42:55.464Z",
  "devdoc": {
    "kind": "dev",
    "methods": {},
    "version": 1
  },
  "userdoc": {
    "kind": "user",
    "methods": {
      "createCampaign(string,string,uint32,(address,string),((address,uint8),(address,uint8),(address,uint8)),(string,string,string,uint8),(uint256,(string,string,uint256),uint32,uint32)[])": {
        "notice": "Creates a new campaign"
      },
      "getBoxes(uint256)": {
        "notice": "Returns all boxes of a specific campaign"
      },
      "getCampaign(uint256)": {
        "notice": "Returns a specific campaign"
      },
      "getCampaigns()": {
        "notice": "Returns all campaigns"
      },
      "getNumberOfCampaigns()": {
        "notice": "Returns the total number of campaigns"
      }
    },
    "version": 1
  }
}