{
  "contractName": "Crowdfunding",
  "abi": [
    {
      "anonymous": false,
      "inputs": [
        {
          "indexed": false,
          "internalType": "uint256",
          "name": "campaignId",
          "type": "uint256"
        },
        {
          "indexed": false,
          "internalType": "uint16",
          "name": "boxId",
          "type": "uint16"
        },
        {
          "indexed": false,
          "internalType": "uint16",
          "name": "SellRefId",
          "type": "uint16"
        },
        {
          "indexed": false,
          "internalType": "address",
          "name": "consumerAddress",
          "type": "address"
        }
      ],
      "name": "BoxSold",
      "type": "event"
    },
    {
      "anonymous": false,
      "inputs": [
        {
          "indexed": false,
          "internalType": "uint256",
          "name": "campaignId",
          "type": "uint256"
        },
        {
          "indexed": false,
          "internalType": "address",
          "name": "campaignOwnerAddress",
          "type": "address"
        }
      ],
      "name": "CampaignCreated",
      "type": "event"
    },
    {
      "anonymous": false,
      "inputs": [
        {
          "indexed": false,
          "internalType": "uint256",
          "name": "campaignId",
          "type": "uint256"
        }
      ],
      "name": "CampaignStopped",
      "type": "event"
    },
    {
      "anonymous": false,
      "inputs": [
        {
          "indexed": false,
          "internalType": "uint256",
          "name": "campaignId",
          "type": "uint256"
        },
        {
          "indexed": false,
          "internalType": "address",
          "name": "stakeholderAddress",
          "type": "address"
        },
        {
          "indexed": false,
          "internalType": "uint256",
          "name": "amountInWei",
          "type": "uint256"
        }
      ],
      "name": "Payment",
      "type": "event"
    },
    {
      "inputs": [],
      "name": "supplychainAddress",
      "outputs": [
        {
          "internalType": "address",
          "name": "",
          "type": "address"
        }
      ],
      "stateMutability": "view",
      "type": "function"
    },
    {
      "inputs": [
        {
          "internalType": "address",
          "name": "_supplychainAddress",
          "type": "address"
        }
      ],
      "name": "setSupplyChainsAddress",
      "outputs": [],
      "stateMutability": "nonpayable",
      "type": "function"
    },
    {
      "inputs": [
        {
          "internalType": "string",
          "name": "_title",
          "type": "string"
        },
        {
          "internalType": "string",
          "name": "_description",
          "type": "string"
        },
        {
          "internalType": "uint32",
          "name": "_duration",
          "type": "uint32"
        },
        {
          "components": [
            {
              "internalType": "address",
              "name": "owner",
              "type": "address"
            },
            {
              "internalType": "string",
              "name": "ownerPublicKey",
              "type": "string"
            }
          ],
          "internalType": "struct CampaignOwner",
          "name": "_campaignOwner",
          "type": "tuple"
        },
        {
          "components": [
            {
              "components": [
                {
                  "internalType": "address payable",
                  "name": "owner",
                  "type": "address"
                },
                {
                  "internalType": "uint8",
                  "name": "share",
                  "type": "uint8"
                },
                {
                  "internalType": "string",
                  "name": "info",
                  "type": "string"
                }
              ],
              "internalType": "struct Stakeholder",
              "name": "farmer",
              "type": "tuple"
            },
            {
              "components": [
                {
                  "internalType": "address payable",
                  "name": "owner",
                  "type": "address"
                },
                {
                  "internalType": "uint8",
                  "name": "share",
                  "type": "uint8"
                },
                {
                  "internalType": "string",
                  "name": "info",
                  "type": "string"
                }
              ],
              "internalType": "struct Stakeholder",
              "name": "butcher",
              "type": "tuple"
            },
            {
              "components": [
                {
                  "internalType": "address payable",
                  "name": "owner",
                  "type": "address"
                },
                {
                  "internalType": "uint8",
                  "name": "share",
                  "type": "uint8"
                },
                {
                  "internalType": "string",
                  "name": "info",
                  "type": "string"
                }
              ],
              "internalType": "struct Stakeholder",
              "name": "delivery",
              "type": "tuple"
            }
          ],
          "internalType": "struct StakeholderList",
          "name": "_stakeholders",
          "type": "tuple"
        },
        {
          "components": [
            {
              "internalType": "string",
              "name": "earTag",
              "type": "string"
            },
            {
              "internalType": "string",
              "name": "name",
              "type": "string"
            },
            {
              "internalType": "string",
              "name": "farm",
              "type": "string"
            },
            {
              "internalType": "uint8",
              "name": "age",
              "type": "uint8"
            }
          ],
          "internalType": "struct CampaignAnimalData",
          "name": "_animal",
          "type": "tuple"
        },
        {
          "components": [
            {
              "internalType": "uint8",
              "name": "id",
              "type": "uint8"
            },
            {
              "internalType": "string",
              "name": "title",
              "type": "string"
            },
            {
              "internalType": "string",
              "name": "description",
              "type": "string"
            },
            {
              "internalType": "uint256",
              "name": "price",
              "type": "uint256"
            },
            {
              "internalType": "uint8",
              "name": "total",
              "type": "uint8"
            },
            {
              "internalType": "uint8",
              "name": "available",
              "type": "uint8"
            }
          ],
          "internalType": "struct Box[]",
          "name": "_boxes",
          "type": "tuple[]"
        }
      ],
      "name": "createCampaign",
      "outputs": [],
      "stateMutability": "nonpayable",
      "type": "function"
    },
    {
      "inputs": [],
      "name": "getNumberOfCampaigns",
      "outputs": [
        {
          "internalType": "uint256",
          "name": "",
          "type": "uint256"
        }
      ],
      "stateMutability": "view",
      "type": "function"
    },
    {
      "inputs": [],
      "name": "getCampaigns",
      "outputs": [
        {
          "components": [
            {
              "internalType": "uint256",
              "name": "id",
              "type": "uint256"
            },
            {
              "components": [
                {
                  "internalType": "string",
                  "name": "title",
                  "type": "string"
                },
                {
                  "internalType": "string",
                  "name": "description",
                  "type": "string"
                },
                {
                  "internalType": "uint256",
                  "name": "deadline",
                  "type": "uint256"
                }
              ],
              "internalType": "struct CampaignInfo",
              "name": "info",
              "type": "tuple"
            },
            {
              "components": [
                {
                  "internalType": "uint256",
                  "name": "collectedAmount",
                  "type": "uint256"
                },
                {
                  "internalType": "uint256",
                  "name": "createdAt",
                  "type": "uint256"
                },
                {
                  "internalType": "uint16",
                  "name": "totalBoxes",
                  "type": "uint16"
                },
                {
                  "internalType": "uint16",
                  "name": "boxesSold",
                  "type": "uint16"
                },
                {
                  "internalType": "uint8",
                  "name": "totalBoxTypes",
                  "type": "uint8"
                },
                {
                  "internalType": "bool",
                  "name": "isStopped",
                  "type": "bool"
                }
              ],
              "internalType": "struct CampaignMeta",
              "name": "meta",
              "type": "tuple"
            },
            {
              "components": [
                {
                  "internalType": "address",
                  "name": "owner",
                  "type": "address"
                },
                {
                  "internalType": "string",
                  "name": "ownerPublicKey",
                  "type": "string"
                }
              ],
              "internalType": "struct CampaignOwner",
              "name": "owner",
              "type": "tuple"
            },
            {
              "components": [
                {
                  "internalType": "string",
                  "name": "earTag",
                  "type": "string"
                },
                {
                  "internalType": "string",
                  "name": "name",
                  "type": "string"
                },
                {
                  "internalType": "string",
                  "name": "farm",
                  "type": "string"
                },
                {
                  "internalType": "uint8",
                  "name": "age",
                  "type": "uint8"
                }
              ],
              "internalType": "struct CampaignAnimalData",
              "name": "animal",
              "type": "tuple"
            },
            {
              "components": [
                {
                  "components": [
                    {
                      "internalType": "address payable",
                      "name": "owner",
                      "type": "address"
                    },
                    {
                      "internalType": "uint8",
                      "name": "share",
                      "type": "uint8"
                    },
                    {
                      "internalType": "string",
                      "name": "info",
                      "type": "string"
                    }
                  ],
                  "internalType": "struct Stakeholder",
                  "name": "farmer",
                  "type": "tuple"
                },
                {
                  "components": [
                    {
                      "internalType": "address payable",
                      "name": "owner",
                      "type": "address"
                    },
                    {
                      "internalType": "uint8",
                      "name": "share",
                      "type": "uint8"
                    },
                    {
                      "internalType": "string",
                      "name": "info",
                      "type": "string"
                    }
                  ],
                  "internalType": "struct Stakeholder",
                  "name": "butcher",
                  "type": "tuple"
                },
                {
                  "components": [
                    {
                      "internalType": "address payable",
                      "name": "owner",
                      "type": "address"
                    },
                    {
                      "internalType": "uint8",
                      "name": "share",
                      "type": "uint8"
                    },
                    {
                      "internalType": "string",
                      "name": "info",
                      "type": "string"
                    }
                  ],
                  "internalType": "struct Stakeholder",
                  "name": "delivery",
                  "type": "tuple"
                }
              ],
              "internalType": "struct StakeholderList",
              "name": "stakeholders",
              "type": "tuple"
            }
          ],
          "internalType": "struct Campaign[]",
          "name": "",
          "type": "tuple[]"
        }
      ],
      "stateMutability": "view",
      "type": "function"
    },
    {
      "inputs": [
        {
          "internalType": "uint256",
          "name": "_campaignId",
          "type": "uint256"
        }
      ],
      "name": "getBoxes",
      "outputs": [
        {
          "components": [
            {
              "internalType": "uint8",
              "name": "id",
              "type": "uint8"
            },
            {
              "internalType": "string",
              "name": "title",
              "type": "string"
            },
            {
              "internalType": "string",
              "name": "description",
              "type": "string"
            },
            {
              "internalType": "uint256",
              "name": "price",
              "type": "uint256"
            },
            {
              "internalType": "uint8",
              "name": "total",
              "type": "uint8"
            },
            {
              "internalType": "uint8",
              "name": "available",
              "type": "uint8"
            }
          ],
          "internalType": "struct Box[]",
          "name": "",
          "type": "tuple[]"
        }
      ],
      "stateMutability": "view",
      "type": "function"
    },
    {
      "inputs": [
        {
          "internalType": "uint256",
          "name": "_campaignId",
          "type": "uint256"
        }
      ],
      "name": "getSoldBoxes",
      "outputs": [
        {
          "components": [
            {
              "internalType": "uint16",
              "name": "id",
              "type": "uint16"
            },
            {
              "internalType": "uint8",
              "name": "boxId",
              "type": "uint8"
            },
            {
              "internalType": "address",
              "name": "owner",
              "type": "address"
            },
            {
              "internalType": "uint256",
              "name": "boughtAt",
              "type": "uint256"
            },
            {
              "internalType": "string",
              "name": "physAddress",
              "type": "string"
            }
          ],
          "internalType": "struct BoxSellRef[]",
          "name": "",
          "type": "tuple[]"
        }
      ],
      "stateMutability": "view",
      "type": "function"
    },
    {
      "inputs": [
        {
          "internalType": "uint256",
          "name": "_campaignId",
          "type": "uint256"
        }
      ],
      "name": "stopCampaign",
      "outputs": [],
      "stateMutability": "nonpayable",
      "type": "function"
    },
    {
      "inputs": [
        {
          "internalType": "uint256",
          "name": "_campaignId",
          "type": "uint256"
        },
        {
          "internalType": "uint8",
          "name": "_boxId",
          "type": "uint8"
        },
        {
          "internalType": "string",
          "name": "_physAddress",
          "type": "string"
        }
      ],
      "name": "buyBox",
      "outputs": [],
      "stateMutability": "payable",
      "type": "function"
    },
    {
      "inputs": [
        {
          "internalType": "uint256",
          "name": "_campaignId",
          "type": "uint256"
        }
      ],
      "name": "payOut",
      "outputs": [],
      "stateMutability": "payable",
      "type": "function"
    }
  ],
  "bytecode": "0x6080604052600060045534801561001557600080fd5b50614e62806100256000396000f3fe6080604052600436106100915760003560e01c806382fc7ddd1161005957806382fc7ddd14610180578063a6b03633146101a9578063da333ca6146101d4578063e4aafc2c146101f0578063ec6c82161461021b57610091565b80630764d62a146100965780633267f8ab146100c157806332e75749146100fe5780633e8abf221461013b578063766609d914610157575b600080fd5b3480156100a257600080fd5b506100ab610244565b6040516100b89190612967565b60405180910390f35b3480156100cd57600080fd5b506100e860048036038101906100e391906129cc565b610268565b6040516100f59190612c0f565b60405180910390f35b34801561010a57600080fd5b50610125600480360381019061012091906129cc565b610506565b6040516101329190612d95565b60405180910390f35b61015560048036038101906101509190612f18565b610751565b005b34801561016357600080fd5b5061017e60048036038101906101799190612fb3565b610cf5565b005b34801561018c57600080fd5b506101a760048036038101906101a29190613492565b610d38565b005b3480156101b557600080fd5b506101be611521565b6040516101cb9190613998565b60405180910390f35b6101ee60048036038101906101e991906129cc565b611e15565b005b3480156101fc57600080fd5b506102056123ab565b60405161021291906139c9565b60405180910390f35b34801561022757600080fd5b50610242600480360381019061023d91906129cc565b6123b5565b005b60008054906101000a900473ffffffffffffffffffffffffffffffffffffffff1681565b6060600060016000848152602001908152602001600020905060008160040160020160049054906101000a900460ff16905060008160ff1667ffffffffffffffff8111156102b9576102b8612ded565b5b6040519080825280602002602001820160405280156102f257816020015b6102df612678565b8152602001906001900390816102d75790505b50905060005b8260ff168160ff1610156104fa5760006002600088815260200190815260200160002060008360ff1660ff1681526020019081526020016000209050806040518060c00160405290816000820160009054906101000a900460ff1660ff1660ff16815260200160018201805461036d90613a13565b80601f016020809104026020016040519081016040528092919081815260200182805461039990613a13565b80156103e65780601f106103bb576101008083540402835291602001916103e6565b820191906000526020600020905b8154815290600101906020018083116103c957829003601f168201915b505050505081526020016002820180546103ff90613a13565b80601f016020809104026020016040519081016040528092919081815260200182805461042b90613a13565b80156104785780601f1061044d57610100808354040283529160200191610478565b820191906000526020600020905b81548152906001019060200180831161045b57829003601f168201915b50505050508152602001600382015481526020016004820160009054906101000a900460ff1660ff1660ff1681526020016004820160019054906101000a900460ff1660ff1660ff1681525050838360ff16815181106104db576104da613a44565b5b60200260200101819052505080806104f290613aa2565b9150506102f8565b50809350505050919050565b6060600060016000848152602001908152602001600020905060008160040160020160029054906101000a900461ffff16905060008161ffff1667ffffffffffffffff81111561055957610558612ded565b5b60405190808252806020026020018201604052801561059257816020015b61057f6126b7565b8152602001906001900390816105775790505b50905060005b8261ffff168161ffff1610156107455760006003600088815260200190815260200160002060008361ffff1681526020019081526020016000209050806040518060a00160405290816000820160009054906101000a900461ffff1661ffff1661ffff1681526020016000820160029054906101000a900460ff1660ff1660ff1681526020016000820160039054906101000a900473ffffffffffffffffffffffffffffffffffffffff1673ffffffffffffffffffffffffffffffffffffffff1673ffffffffffffffffffffffffffffffffffffffff1681526020016001820154815260200160028201805461068d90613a13565b80601f01602080910402602001604051908101604052809291908181526020018280546106b990613a13565b80156107065780601f106106db57610100808354040283529160200191610706565b820191906000526020600020905b8154815290600101906020018083116106e957829003601f168201915b505050505081525050838361ffff168151811061072657610725613a44565b5b602002602001018190525050808061073d90613acb565b915050610598565b50809350505050919050565b60006001600085815260200190815260200160002090508060040160020160059054906101000a900460ff16156107bd576040517f08c379a00000000000000000000000000000000000000000000000000000000081526004016107b490613b52565b60405180910390fd5b42816001016002015411610806576040517f08c379a00000000000000000000000000000000000000000000000000000000081526004016107fd90613bbe565b60405180910390fd5b60006002600086815260200190815260200160002060008560ff1660ff16815260200190815260200160002090508360ff168160000160009054906101000a900460ff1660ff161461088d576040517f08c379a000000000000000000000000000000000000000000000000000000000815260040161088490613c2a565b60405180910390fd5b60008160040160019054906101000a900460ff1660ff16116108e4576040517f08c379a00000000000000000000000000000000000000000000000000000000081526004016108db90613cbc565b60405180910390fd5b60003490508160030154811015610930576040517f08c379a000000000000000000000000000000000000000000000000000000000815260040161092790613d28565b60405180910390fd5b60008360040160020160029054906101000a900461ffff16905060006003600089815260200190815260200160002060008660040160020160029054906101000a900461ffff1661ffff16815260200190815260200160002090508360000160009054906101000a900460ff168160000160026101000a81548160ff021916908360ff160217905550818160000160006101000a81548161ffff021916908361ffff160217905550338160000160036101000a81548173ffffffffffffffffffffffffffffffffffffffff021916908373ffffffffffffffffffffffffffffffffffffffff16021790555085816002019080519060200190610a33929190612703565b5042816001018190555060018460040160018282829054906101000a900460ff16610a5e9190613d48565b92506101000a81548160ff021916908360ff160217905550600085600401905060018160020160028282829054906101000a900461ffff16610aa09190613d7c565b92506101000a81548161ffff021916908361ffff16021790555083816000016000828254610ace9190613db4565b925050819055507f24e131a713c48f5f5adf20330475bbec7bf16031ae593d81473e2b8ec4cc12aa86600001548660000160009054906101000a900460ff168460000160009054906101000a900461ffff1633604051610b319493929190613e54565b60405180910390a160008054906101000a900473ffffffffffffffffffffffffffffffffffffffff1673ffffffffffffffffffffffffffffffffffffffff1663868142568a846040518363ffffffff1660e01b8152600401610b94929190614097565b600060405180830381600087803b158015610bae57600080fd5b505af1158015610bc2573d6000803e3d6000fd5b505050508560040160020160009054906101000a900461ffff1661ffff168660040160020160029054906101000a900461ffff1661ffff1603610cea5760018660040160020160056101000a81548160ff0219169083151502179055507fe5a1604ff203dc76ea2a38c81e2ae18d95023f1ed66e4520e4f7f96e4c5daf288660000154604051610c5291906139c9565b60405180910390a160008054906101000a900473ffffffffffffffffffffffffffffffffffffffff1673ffffffffffffffffffffffffffffffffffffffff16635c9f048d87600001546040518263ffffffff1660e01b8152600401610cb791906139c9565b600060405180830381600087803b158015610cd157600080fd5b505af1158015610ce5573d6000803e3d6000fd5b505050505b505050505050505050565b806000806101000a81548173ffffffffffffffffffffffffffffffffffffffff021916908373ffffffffffffffffffffffffffffffffffffffff16021790555050565b60008563ffffffff1611610d81576040517f08c379a0000000000000000000000000000000000000000000000000000000008152600401610d7890614113565b60405180910390fd5b62375f008563ffffffff161115610dcd576040517f08c379a0000000000000000000000000000000000000000000000000000000008152600401610dc4906141a5565b60405180910390fd5b600042905060008663ffffffff1682610de69190613db4565b9050818111610e2a576040517f08c379a0000000000000000000000000000000000000000000000000000000008152600401610e2190614211565b60405180910390fd5b60ff801683511115610e71576040517f08c379a0000000000000000000000000000000000000000000000000000000008152600401610e68906142a3565b60405180910390fd5b6000805b84518160ff161015611041576000858260ff1681518110610e9957610e98613a44565b5b602002602001015190506000816080015160ff1611610eed576040517f08c379a0000000000000000000000000000000000000000000000000000000008152600401610ee490614335565b60405180910390fd5b8060a0015160ff16816080015160ff1614610f3d576040517f08c379a0000000000000000000000000000000000000000000000000000000008152600401610f34906143c7565b60405180910390fd5b806080015160ff1683610f509190613d7c565b9250806002600060045481526020019081526020016000206000836000015160ff1660ff16815260200190815260200160002060008201518160000160006101000a81548160ff021916908360ff1602179055506020820151816001019080519060200190610fc0929190612703565b506040820151816002019080519060200190610fdd929190612703565b506060820151816003015560808201518160040160006101000a81548160ff021916908360ff16021790555060a08201518160040160016101000a81548160ff021916908360ff16021790555090505050808061103990613aa2565b915050610e75565b5060008161ffff1611611089576040517f08c379a000000000000000000000000000000000000000000000000000000000815260040161108090614459565b60405180910390fd5b600060016000600454815260200190815260200160002090506004548160000181905550878160070160008201518160000160006101000a81548173ffffffffffffffffffffffffffffffffffffffff021916908373ffffffffffffffffffffffffffffffffffffffff1602179055506020820151816001019080519060200190611115929190612703565b509050508a816001016000019080519060200190611134929190612703565b5089816001016001019080519060200190611150929190612703565b508281600101600201819055504281600401600101819055506000816004016000018190555060008160040160020160056101000a81548160ff021916908315150217905550818160040160020160006101000a81548161ffff021916908361ffff16021790555060008160040160020160026101000a81548161ffff021916908361ffff16021790555084518160040160020160046101000a81548160ff021916908360ff1602179055508581600901600082015181600001908051906020019061121d929190612703565b50602082015181600101908051906020019061123a929190612703565b506040820151816002019080519060200190611257929190612703565b5060608201518160030160006101000a81548160ff021916908360ff1602179055509050508681600d0160008201518160000160008201518160000160006101000a81548173ffffffffffffffffffffffffffffffffffffffff021916908373ffffffffffffffffffffffffffffffffffffffff16021790555060208201518160000160146101000a81548160ff021916908360ff160217905550604082015181600101908051906020019061130e929190612703565b50505060208201518160020160008201518160000160006101000a81548173ffffffffffffffffffffffffffffffffffffffff021916908373ffffffffffffffffffffffffffffffffffffffff16021790555060208201518160000160146101000a81548160ff021916908360ff160217905550604082015181600101908051906020019061139e929190612703565b50505060408201518160040160008201518160000160006101000a81548173ffffffffffffffffffffffffffffffffffffffff021916908373ffffffffffffffffffffffffffffffffffffffff16021790555060208201518160000160146101000a81548160ff021916908360ff160217905550604082015181600101908051906020019061142e929190612703565b5050509050506004600081548092919061144790614479565b91905055507f633109eec20320eded000fc1e2634211aa7e92ba3f5b15faf6dcdafca05094e48160000154336040516114819291906144c1565b60405180910390a160008054906101000a900473ffffffffffffffffffffffffffffffffffffffff1673ffffffffffffffffffffffffffffffffffffffff1663dc055475826040518263ffffffff1660e01b81526004016114e2919061492b565b600060405180830381600087803b1580156114fc57600080fd5b505af1158015611510573d6000803e3d6000fd5b505050505050505050505050505050565b6060600060045467ffffffffffffffff81111561154157611540612ded565b5b60405190808252806020026020018201604052801561157a57816020015b611567612789565b81526020019060019003908161155f5790505b50905060005b600454811015611e0d576000600160008381526020019081526020016000209050806040518060c001604052908160008201548152602001600182016040518060600160405290816000820180546115d790613a13565b80601f016020809104026020016040519081016040528092919081815260200182805461160390613a13565b80156116505780601f1061162557610100808354040283529160200191611650565b820191906000526020600020905b81548152906001019060200180831161163357829003601f168201915b5050505050815260200160018201805461166990613a13565b80601f016020809104026020016040519081016040528092919081815260200182805461169590613a13565b80156116e25780601f106116b7576101008083540402835291602001916116e2565b820191906000526020600020905b8154815290600101906020018083116116c557829003601f168201915b505050505081526020016002820154815250508152602001600482016040518060c001604052908160008201548152602001600182015481526020016002820160009054906101000a900461ffff1661ffff1661ffff1681526020016002820160029054906101000a900461ffff1661ffff1661ffff1681526020016002820160049054906101000a900460ff1660ff1660ff1681526020016002820160059054906101000a900460ff1615151515815250508152602001600782016040518060400160405290816000820160009054906101000a900473ffffffffffffffffffffffffffffffffffffffff1673ffffffffffffffffffffffffffffffffffffffff1673ffffffffffffffffffffffffffffffffffffffff16815260200160018201805461180f90613a13565b80601f016020809104026020016040519081016040528092919081815260200182805461183b90613a13565b80156118885780601f1061185d57610100808354040283529160200191611888565b820191906000526020600020905b81548152906001019060200180831161186b57829003601f168201915b5050505050815250508152602001600982016040518060800160405290816000820180546118b590613a13565b80601f01602080910402602001604051908101604052809291908181526020018280546118e190613a13565b801561192e5780601f106119035761010080835404028352916020019161192e565b820191906000526020600020905b81548152906001019060200180831161191157829003601f168201915b5050505050815260200160018201805461194790613a13565b80601f016020809104026020016040519081016040528092919081815260200182805461197390613a13565b80156119c05780601f10611995576101008083540402835291602001916119c0565b820191906000526020600020905b8154815290600101906020018083116119a357829003601f168201915b505050505081526020016002820180546119d990613a13565b80601f0160208091040260200160405190810160405280929190818152602001828054611a0590613a13565b8015611a525780601f10611a2757610100808354040283529160200191611a52565b820191906000526020600020905b815481529060010190602001808311611a3557829003601f168201915b505050505081526020016003820160009054906101000a900460ff1660ff1660ff16815250508152602001600d8201604051806060016040529081600082016040518060600160405290816000820160009054906101000a900473ffffffffffffffffffffffffffffffffffffffff1673ffffffffffffffffffffffffffffffffffffffff1673ffffffffffffffffffffffffffffffffffffffff1681526020016000820160149054906101000a900460ff1660ff1660ff168152602001600182018054611b1f90613a13565b80601f0160208091040260200160405190810160405280929190818152602001828054611b4b90613a13565b8015611b985780601f10611b6d57610100808354040283529160200191611b98565b820191906000526020600020905b815481529060010190602001808311611b7b57829003601f168201915b5050505050815250508152602001600282016040518060600160405290816000820160009054906101000a900473ffffffffffffffffffffffffffffffffffffffff1673ffffffffffffffffffffffffffffffffffffffff1673ffffffffffffffffffffffffffffffffffffffff1681526020016000820160149054906101000a900460ff1660ff1660ff168152602001600182018054611c3890613a13565b80601f0160208091040260200160405190810160405280929190818152602001828054611c6490613a13565b8015611cb15780601f10611c8657610100808354040283529160200191611cb1565b820191906000526020600020905b815481529060010190602001808311611c9457829003601f168201915b5050505050815250508152602001600482016040518060600160405290816000820160009054906101000a900473ffffffffffffffffffffffffffffffffffffffff1673ffffffffffffffffffffffffffffffffffffffff1673ffffffffffffffffffffffffffffffffffffffff1681526020016000820160149054906101000a900460ff1660ff1660ff168152602001600182018054611d5190613a13565b80601f0160208091040260200160405190810160405280929190818152602001828054611d7d90613a13565b8015611dca5780601f10611d9f57610100808354040283529160200191611dca565b820191906000526020600020905b815481529060010190602001808311611dad57829003601f168201915b5050505050815250508152505081525050838381518110611dee57611ded613a44565b5b6020026020010181905250508080611e0590614479565b915050611580565b508091505090565b60008054906101000a900473ffffffffffffffffffffffffffffffffffffffff1673ffffffffffffffffffffffffffffffffffffffff163373ffffffffffffffffffffffffffffffffffffffff1614611ea3576040517f08c379a0000000000000000000000000000000000000000000000000000000008152600401611e9a906149bf565b60405180910390fd5b60006001600083815260200190815260200160002090508060040160020160059054906101000a900460ff16611f0e576040517f08c379a0000000000000000000000000000000000000000000000000000000008152600401611f0590614a2b565b60405180910390fd5b8060040160020160009054906101000a900461ffff1661ffff168160040160020160029054906101000a900461ffff1661ffff1614611f82576040517f08c379a0000000000000000000000000000000000000000000000000000000008152600401611f7990614a97565b60405180910390fd5b60008054906101000a900473ffffffffffffffffffffffffffffffffffffffff1673ffffffffffffffffffffffffffffffffffffffff16637a41984b82600001546040518263ffffffff1660e01b8152600401611fdf91906139c9565b602060405180830381865afa158015611ffc573d6000803e3d6000fd5b505050506040513d601f19601f820116820180604052508101906120209190614ae3565b61205f576040517f08c379a000000000000000000000000000000000000000000000000000000000815260040161205690614b5c565b60405180910390fd5b6000606482600d0160000160000160149054906101000a900460ff1660ff1683600401600001546120909190614b7c565b61209a9190614c05565b90506000606483600d0160020160000160149054906101000a900460ff1660ff1684600401600001546120cd9190614b7c565b6120d79190614c05565b90506000606484600d0160040160000160149054906101000a900460ff1660ff16856004016000015461210a9190614b7c565b6121149190614c05565b905083600d0160000160000160009054906101000a900473ffffffffffffffffffffffffffffffffffffffff1673ffffffffffffffffffffffffffffffffffffffff166108fc849081150290604051600060405180830381858888f19350505050158015612186573d6000803e3d6000fd5b507fdef0dd1961901757e759c1e3e1ced766d61d989aa5030414848dae6bac75cbdd846000015485600d0160000160000160009054906101000a900473ffffffffffffffffffffffffffffffffffffffff16856040516121e893929190614c8b565b60405180910390a183600d0160020160000160009054906101000a900473ffffffffffffffffffffffffffffffffffffffff1673ffffffffffffffffffffffffffffffffffffffff166108fc839081150290604051600060405180830381858888f19350505050158015612260573d6000803e3d6000fd5b507fdef0dd1961901757e759c1e3e1ced766d61d989aa5030414848dae6bac75cbdd846000015485600d0160020160000160009054906101000a900473ffffffffffffffffffffffffffffffffffffffff16846040516122c293929190614c8b565b60405180910390a183600d0160040160000160009054906101000a900473ffffffffffffffffffffffffffffffffffffffff1673ffffffffffffffffffffffffffffffffffffffff166108fc829081150290604051600060405180830381858888f1935050505015801561233a573d6000803e3d6000fd5b507fdef0dd1961901757e759c1e3e1ced766d61d989aa5030414848dae6bac75cbdd846000015485600d0160040160000160009054906101000a900473ffffffffffffffffffffffffffffffffffffffff168360405161239c93929190614c8b565b60405180910390a15050505050565b6000600454905090565b60006001600083815260200190815260200160002090508060040160020160059054906101000a900460ff1615612421576040517f08c379a000000000000000000000000000000000000000000000000000000000815260040161241890614d0e565b60405180910390fd5b4281600101600201541161246a576040517f08c379a000000000000000000000000000000000000000000000000000000000815260040161246190614d7a565b60405180910390fd5b8060070160000160009054906101000a900473ffffffffffffffffffffffffffffffffffffffff1673ffffffffffffffffffffffffffffffffffffffff163373ffffffffffffffffffffffffffffffffffffffff16146124ff576040517f08c379a00000000000000000000000000000000000000000000000000000000081526004016124f690614e0c565b60405180910390fd5b60008160040160020160029054906101000a900461ffff16905060005b8161ffff168161ffff16101561261b5760006003600086815260200190815260200160002060008361ffff168152602001908152602001600020905060006002600087815260200190815260200160002060008360000160029054906101000a900460ff1660ff1660ff16815260200190815260200160002090508160000160039054906101000a900473ffffffffffffffffffffffffffffffffffffffff1673ffffffffffffffffffffffffffffffffffffffff166108fc82600301549081150290604051600060405180830381858888f19350505050158015612605573d6000803e3d6000fd5b505050808061261390613acb565b91505061251c565b5060018260040160020160056101000a81548160ff0219169083151502179055507fe5a1604ff203dc76ea2a38c81e2ae18d95023f1ed66e4520e4f7f96e4c5daf288360405161266b91906139c9565b60405180910390a1505050565b6040518060c00160405280600060ff168152602001606081526020016060815260200160008152602001600060ff168152602001600060ff1681525090565b6040518060a00160405280600061ffff168152602001600060ff168152602001600073ffffffffffffffffffffffffffffffffffffffff16815260200160008152602001606081525090565b82805461270f90613a13565b90600052602060002090601f0160209004810192826127315760008555612778565b82601f1061274a57805160ff1916838001178555612778565b82800160010185558215612778579182015b8281111561277757825182559160200191906001019061275c565b5b50905061278591906127dd565b5090565b6040518060c00160405280600081526020016127a36127fa565b81526020016127b061281b565b81526020016127bd61285e565b81526020016127ca61288e565b81526020016127d76128b9565b81525090565b5b808211156127f65760008160009055506001016127de565b5090565b60405180606001604052806060815260200160608152602001600081525090565b6040518060c001604052806000815260200160008152602001600061ffff168152602001600061ffff168152602001600060ff1681526020016000151581525090565b6040518060400160405280600073ffffffffffffffffffffffffffffffffffffffff168152602001606081525090565b6040518060800160405280606081526020016060815260200160608152602001600060ff1681525090565b60405180606001604052806128cc6128ec565b81526020016128d96128ec565b81526020016128e66128ec565b81525090565b6040518060600160405280600073ffffffffffffffffffffffffffffffffffffffff168152602001600060ff168152602001606081525090565b600073ffffffffffffffffffffffffffffffffffffffff82169050919050565b600061295182612926565b9050919050565b61296181612946565b82525050565b600060208201905061297c6000830184612958565b92915050565b6000604051905090565b600080fd5b600080fd5b6000819050919050565b6129a981612996565b81146129b457600080fd5b50565b6000813590506129c6816129a0565b92915050565b6000602082840312156129e2576129e161298c565b5b60006129f0848285016129b7565b91505092915050565b600081519050919050565b600082825260208201905092915050565b6000819050602082019050919050565b600060ff82169050919050565b612a3b81612a25565b82525050565b600081519050919050565b600082825260208201905092915050565b60005b83811015612a7b578082015181840152602081019050612a60565b83811115612a8a576000848401525b50505050565b6000601f19601f8301169050919050565b6000612aac82612a41565b612ab68185612a4c565b9350612ac6818560208601612a5d565b612acf81612a90565b840191505092915050565b612ae381612996565b82525050565b600060c083016000830151612b016000860182612a32565b5060208301518482036020860152612b198282612aa1565b91505060408301518482036040860152612b338282612aa1565b9150506060830151612b486060860182612ada565b506080830151612b5b6080860182612a32565b5060a0830151612b6e60a0860182612a32565b508091505092915050565b6000612b858383612ae9565b905092915050565b6000602082019050919050565b6000612ba5826129f9565b612baf8185612a04565b935083602082028501612bc185612a15565b8060005b85811015612bfd5784840389528151612bde8582612b79565b9450612be983612b8d565b925060208a01995050600181019050612bc5565b50829750879550505050505092915050565b60006020820190508181036000830152612c298184612b9a565b905092915050565b600081519050919050565b600082825260208201905092915050565b6000819050602082019050919050565b600061ffff82169050919050565b612c7481612c5d565b82525050565b612c8381612946565b82525050565b600060a083016000830151612ca16000860182612c6b565b506020830151612cb46020860182612a32565b506040830151612cc76040860182612c7a565b506060830151612cda6060860182612ada565b5060808301518482036080860152612cf28282612aa1565b9150508091505092915050565b6000612d0b8383612c89565b905092915050565b6000602082019050919050565b6000612d2b82612c31565b612d358185612c3c565b935083602082028501612d4785612c4d565b8060005b85811015612d835784840389528151612d648582612cff565b9450612d6f83612d13565b925060208a01995050600181019050612d4b565b50829750879550505050505092915050565b60006020820190508181036000830152612daf8184612d20565b905092915050565b612dc081612a25565b8114612dcb57600080fd5b50565b600081359050612ddd81612db7565b92915050565b600080fd5b600080fd5b7f4e487b7100000000000000000000000000000000000000000000000000000000600052604160045260246000fd5b612e2582612a90565b810181811067ffffffffffffffff82111715612e4457612e43612ded565b5b80604052505050565b6000612e57612982565b9050612e638282612e1c565b919050565b600067ffffffffffffffff821115612e8357612e82612ded565b5b612e8c82612a90565b9050602081019050919050565b82818337600083830152505050565b6000612ebb612eb684612e68565b612e4d565b905082815260208101848484011115612ed757612ed6612de8565b5b612ee2848285612e99565b509392505050565b600082601f830112612eff57612efe612de3565b5b8135612f0f848260208601612ea8565b91505092915050565b600080600060608486031215612f3157612f3061298c565b5b6000612f3f868287016129b7565b9350506020612f5086828701612dce565b925050604084013567ffffffffffffffff811115612f7157612f70612991565b5b612f7d86828701612eea565b9150509250925092565b612f9081612946565b8114612f9b57600080fd5b50565b600081359050612fad81612f87565b92915050565b600060208284031215612fc957612fc861298c565b5b6000612fd784828501612f9e565b91505092915050565b600063ffffffff82169050919050565b612ff981612fe0565b811461300457600080fd5b50565b60008135905061301681612ff0565b92915050565b600080fd5b600080fd5b60006040828403121561303c5761303b61301c565b5b6130466040612e4d565b9050600061305684828501612f9e565b600083015250602082013567ffffffffffffffff81111561307a57613079613021565b5b61308684828501612eea565b60208301525092915050565b600061309d82612926565b9050919050565b6130ad81613092565b81146130b857600080fd5b50565b6000813590506130ca816130a4565b92915050565b6000606082840312156130e6576130e561301c565b5b6130f06060612e4d565b90506000613100848285016130bb565b600083015250602061311484828501612dce565b602083015250604082013567ffffffffffffffff81111561313857613137613021565b5b61314484828501612eea565b60408301525092915050565b6000606082840312156131665761316561301c565b5b6131706060612e4d565b9050600082013567ffffffffffffffff8111156131905761318f613021565b5b61319c848285016130d0565b600083015250602082013567ffffffffffffffff8111156131c0576131bf613021565b5b6131cc848285016130d0565b602083015250604082013567ffffffffffffffff8111156131f0576131ef613021565b5b6131fc848285016130d0565b60408301525092915050565b60006080828403121561321e5761321d61301c565b5b6132286080612e4d565b9050600082013567ffffffffffffffff81111561324857613247613021565b5b61325484828501612eea565b600083015250602082013567ffffffffffffffff81111561327857613277613021565b5b61328484828501612eea565b602083015250604082013567ffffffffffffffff8111156132a8576132a7613021565b5b6132b484828501612eea565b60408301525060606132c884828501612dce565b60608301525092915050565b600067ffffffffffffffff8211156132ef576132ee612ded565b5b602082029050602081019050919050565b600080fd5b600060c0828403121561331b5761331a61301c565b5b61332560c0612e4d565b9050600061333584828501612dce565b600083015250602082013567ffffffffffffffff81111561335957613358613021565b5b61336584828501612eea565b602083015250604082013567ffffffffffffffff81111561338957613388613021565b5b61339584828501612eea565b60408301525060606133a9848285016129b7565b60608301525060806133bd84828501612dce565b60808301525060a06133d184828501612dce565b60a08301525092915050565b60006133f06133eb846132d4565b612e4d565b9050808382526020820190506020840283018581111561341357613412613300565b5b835b8181101561345a57803567ffffffffffffffff81111561343857613437612de3565b5b8086016134458982613305565b85526020850194505050602081019050613415565b5050509392505050565b600082601f83011261347957613478612de3565b5b81356134898482602086016133dd565b91505092915050565b600080600080600080600060e0888a0312156134b1576134b061298c565b5b600088013567ffffffffffffffff8111156134cf576134ce612991565b5b6134db8a828b01612eea565b975050602088013567ffffffffffffffff8111156134fc576134fb612991565b5b6135088a828b01612eea565b96505060406135198a828b01613007565b955050606088013567ffffffffffffffff81111561353a57613539612991565b5b6135468a828b01613026565b945050608088013567ffffffffffffffff81111561356757613566612991565b5b6135738a828b01613150565b93505060a088013567ffffffffffffffff81111561359457613593612991565b5b6135a08a828b01613208565b92505060c088013567ffffffffffffffff8111156135c1576135c0612991565b5b6135cd8a828b01613464565b91505092959891949750929550565b600081519050919050565b600082825260208201905092915050565b6000819050602082019050919050565b600060608301600083015184820360008601526136258282612aa1565b9150506020830151848203602086015261363f8282612aa1565b91505060408301516136546040860182612ada565b508091505092915050565b60008115159050919050565b6136748161365f565b82525050565b60c0820160008201516136906000850182612ada565b5060208201516136a36020850182612ada565b5060408201516136b66040850182612c6b565b5060608201516136c96060850182612c6b565b5060808201516136dc6080850182612a32565b5060a08201516136ef60a085018261366b565b50505050565b600060408301600083015161370d6000860182612c7a565b50602083015184820360208601526137258282612aa1565b9150508091505092915050565b6000608083016000830151848203600086015261374f8282612aa1565b915050602083015184820360208601526137698282612aa1565b915050604083015184820360408601526137838282612aa1565b91505060608301516137986060860182612a32565b508091505092915050565b6137ac81613092565b82525050565b60006060830160008301516137ca60008601826137a3565b5060208301516137dd6020860182612a32565b50604083015184820360408601526137f58282612aa1565b9150508091505092915050565b6000606083016000830151848203600086015261381f82826137b2565b9150506020830151848203602086015261383982826137b2565b9150506040830151848203604086015261385382826137b2565b9150508091505092915050565b6000610160830160008301516138796000860182612ada565b50602083015184820360208601526138918282613608565b91505060408301516138a6604086018261367a565b5060608301518482036101008601526138bf82826136f5565b91505060808301518482036101208601526138da8282613732565b91505060a08301518482036101408601526138f58282613802565b9150508091505092915050565b600061390e8383613860565b905092915050565b6000602082019050919050565b600061392e826135dc565b61393881856135e7565b93508360208202850161394a856135f8565b8060005b8581101561398657848403895281516139678582613902565b945061397283613916565b925060208a0199505060018101905061394e565b50829750879550505050505092915050565b600060208201905081810360008301526139b28184613923565b905092915050565b6139c381612996565b82525050565b60006020820190506139de60008301846139ba565b92915050565b7f4e487b7100000000000000000000000000000000000000000000000000000000600052602260045260246000fd5b60006002820490506001821680613a2b57607f821691505b602082108103613a3e57613a3d6139e4565b5b50919050565b7f4e487b7100000000000000000000000000000000000000000000000000000000600052603260045260246000fd5b7f4e487b7100000000000000000000000000000000000000000000000000000000600052601160045260246000fd5b6000613aad82612a25565b915060ff8203613ac057613abf613a73565b5b600182019050919050565b6000613ad682612c5d565b915061ffff8203613aea57613ae9613a73565b5b600182019050919050565b600082825260208201905092915050565b7f546869732063616d706169676e206861732073746f7070656400000000000000600082015250565b6000613b3c601983613af5565b9150613b4782613b06565b602082019050919050565b60006020820190508181036000830152613b6b81613b2f565b9050919050565b7f546869732063616d706169676e20697320616c7265616479206f766572000000600082015250565b6000613ba8601d83613af5565b9150613bb382613b72565b602082019050919050565b60006020820190508181036000830152613bd781613b9b565b9050919050565b7f54686520626f7820494420697320696e76616c69640000000000000000000000600082015250565b6000613c14601583613af5565b9150613c1f82613bde565b602082019050919050565b60006020820190508181036000830152613c4381613c07565b9050919050565b7f416c6c20626f786573206f66207468697320747970652068617665206265656e60008201527f20736f6c64000000000000000000000000000000000000000000000000000000602082015250565b6000613ca6602583613af5565b9150613cb182613c4a565b604082019050919050565b60006020820190508181036000830152613cd581613c99565b9050919050565b7f476976656e20616d6f756e742069732062656c6f7720626f7820707269636500600082015250565b6000613d12601f83613af5565b9150613d1d82613cdc565b602082019050919050565b60006020820190508181036000830152613d4181613d05565b9050919050565b6000613d5382612a25565b9150613d5e83612a25565b925082821015613d7157613d70613a73565b5b828203905092915050565b6000613d8782612c5d565b9150613d9283612c5d565b92508261ffff03821115613da957613da8613a73565b5b828201905092915050565b6000613dbf82612996565b9150613dca83612996565b9250827fffffffffffffffffffffffffffffffffffffffffffffffffffffffffffffffff03821115613dff57613dfe613a73565b5b828201905092915050565b6000819050919050565b6000613e2f613e2a613e2584612a25565b613e0a565b612c5d565b9050919050565b613e3f81613e14565b82525050565b613e4e81612c5d565b82525050565b6000608082019050613e6960008301876139ba565b613e766020830186613e36565b613e836040830185613e45565b613e906060830184612958565b95945050505050565b60008160001c9050919050565b600061ffff82169050919050565b6000613ec7613ec283613e99565b613ea6565b9050919050565b60008160101c9050919050565b600060ff82169050919050565b6000613efb613ef683613ece565b613edb565b9050919050565b60008160181c9050919050565b600073ffffffffffffffffffffffffffffffffffffffff82169050919050565b6000613f42613f3d83613f02565b613f0f565b9050919050565b6000819050919050565b6000613f66613f6183613e99565b613f49565b9050919050565b60008190508160005260206000209050919050565b60008154613f8f81613a13565b613f998186612a4c565b94506001821660008114613fb45760018114613fc657613ff9565b60ff1983168652602086019350613ff9565b613fcf85613f6d565b60005b83811015613ff157815481890152600182019150602081019050613fd2565b808801955050505b50505092915050565b600060a08301600080840154905061401981613eb4565b6140266000870182612c6b565b5061403081613ee8565b61403d6020870182612a32565b5061404781613f2f565b6140546040870182612c7a565b506001840154905061406581613f53565b6140726060870182612ada565b506002840185830360808701526140898382613f82565b925050819250505092915050565b60006040820190506140ac60008301856139ba565b81810360208301526140be8184614002565b90509392505050565b7f4475726174696f6e206d75737420626520686967686572207468616e20300000600082015250565b60006140fd601e83613af5565b9150614108826140c7565b602082019050919050565b6000602082019050818103600083015261412c816140f0565b9050919050565b7f4475726174696f6e2063616e277420626520686967686572207468616e20362060008201527f7765656b73000000000000000000000000000000000000000000000000000000602082015250565b600061418f602583613af5565b915061419a82614133565b604082019050919050565b600060208201905081810360008301526141be81614182565b9050919050565b7f446561646c696e65206d75737420626520696e20746865206675747572650000600082015250565b60006141fb601e83613af5565b9150614206826141c5565b602082019050919050565b6000602082019050818103600083015261422a816141ee565b9050919050565b7f4e756d626572206f6620626f7865732063616e2774206265206869676865722060008201527f7468616e2028325e38292d310000000000000000000000000000000000000000602082015250565b600061428d602c83613af5565b915061429882614231565b604082019050919050565b600060208201905081810360008301526142bc81614280565b9050919050565b7f5468657265206d757374206265206174206c65617374206f6e6520706965636560008201527f206f66206561636820626f780000000000000000000000000000000000000000602082015250565b600061431f602c83613af5565b915061432a826142c3565b604082019050919050565b6000602082019050818103600083015261434e81614312565b9050919050565b7f496e697469616c6c7920746f74616c20616e6420617661696c61626c65206f6660008201527f206120626f78206d75737420626520657175616c000000000000000000000000602082015250565b60006143b1603483613af5565b91506143bc82614355565b604082019050919050565b600060208201905081810360008301526143e0816143a4565b9050919050565b7f5468657265206d757374206265206174206c65617374206f6e6520626f78206960008201527f6e20746f74616c00000000000000000000000000000000000000000000000000602082015250565b6000614443602783613af5565b915061444e826143e7565b604082019050919050565b6000602082019050818103600083015261447281614436565b9050919050565b600061448482612996565b91507fffffffffffffffffffffffffffffffffffffffffffffffffffffffffffffffff82036144b6576144b5613a73565b5b600182019050919050565b60006040820190506144d660008301856139ba565b6144e36020830184612958565b9392505050565b600060608301600080840185830360008701526145078382613f82565b9250506001840185830360208701526145208382613f82565b9250506002840154905061453381613f53565b6145406040870182612ada565b50819250505092915050565b600061455f61455a83613ece565b613ea6565b9050919050565b60008160201c9050919050565b600061458661458183614566565b613edb565b9050919050565b60008160281c9050919050565b600060ff82169050919050565b60006145ba6145b58361458d565b61459a565b9050919050565b60c0820160008083015490506145d681613f53565b6145e36000860182612ada565b50600183015490506145f481613f53565b6146016020860182612ada565b506002830154905061461281613eb4565b61461f6040860182612c6b565b506146298161454c565b6146366060860182612c6b565b5061464081614573565b61464d6080860182612a32565b50614657816145a7565b61466460a086018261366b565b5050505050565b600061467e61467983613e99565b613f0f565b9050919050565b600060408301600080840154905061469c8161466b565b6146a96000870182612c7a565b506001840185830360208701526146c08382613f82565b925050819250505092915050565b60006146e16146dc83613e99565b613edb565b9050919050565b600060808301600080840185830360008701526147058382613f82565b92505060018401858303602087015261471e8382613f82565b9250506002840185830360408701526147378382613f82565b9250506003840154905061474a816146ce565b6147576060870182612a32565b50819250505092915050565b600073ffffffffffffffffffffffffffffffffffffffff82169050919050565b600061479661479183613e99565b614763565b9050919050565b60008160a01c9050919050565b60006147bd6147b88361479d565b613edb565b9050919050565b60006060830160008084015490506147db81614783565b6147e860008701826137a3565b506147f2816147aa565b6147ff6020870182612a32565b506001840185830360408701526148168382613f82565b925050819250505092915050565b6000606083016000808401858303600087015261484183826147c4565b92505060028401858303602087015261485a83826147c4565b92505060048401858303604087015261487383826147c4565b925050819250505092915050565b60006101608301600080840154905061489981613f53565b6148a66000870182612ada565b506001840185830360208701526148bd83826144ea565b925050600484016148d160408701826145c1565b50600784018583036101008701526148e98382614685565b9250506009840185830361012087015261490383826146e8565b925050600d840185830361014087015261491d8382614824565b925050819250505092915050565b600060208201905081810360008301526149458184614881565b905092915050565b7f4f6e6c792074686520737570706c7920636861696e2063616e2063616c6c207460008201527f6869732066756e6374696f6e0000000000000000000000000000000000000000602082015250565b60006149a9602c83613af5565b91506149b48261494d565b604082019050919050565b600060208201905081810360008301526149d88161499c565b9050919050565b7f5468652063616d706169676e206d7573742062652066696e6973686564000000600082015250565b6000614a15601d83613af5565b9150614a20826149df565b602082019050919050565b60006020820190508181036000830152614a4481614a08565b9050919050565b7f54686572652063616e277420626520616e7920626f786573206c656674000000600082015250565b6000614a81601d83613af5565b9150614a8c82614a4b565b602082019050919050565b60006020820190508181036000830152614ab081614a74565b9050919050565b614ac08161365f565b8114614acb57600080fd5b50565b600081519050614add81614ab7565b92915050565b600060208284031215614af957614af861298c565b5b6000614b0784828501614ace565b91505092915050565b7f537570706c7920636861696e206d75737420626520636f6d706c657465640000600082015250565b6000614b46601e83613af5565b9150614b5182614b10565b602082019050919050565b60006020820190508181036000830152614b7581614b39565b9050919050565b6000614b8782612996565b9150614b9283612996565b9250817fffffffffffffffffffffffffffffffffffffffffffffffffffffffffffffffff0483118215151615614bcb57614bca613a73565b5b828202905092915050565b7f4e487b7100000000000000000000000000000000000000000000000000000000600052601260045260246000fd5b6000614c1082612996565b9150614c1b83612996565b925082614c2b57614c2a614bd6565b5b828204905092915050565b6000614c51614c4c614c4784612926565b613e0a565b612926565b9050919050565b6000614c6382614c36565b9050919050565b6000614c7582614c58565b9050919050565b614c8581614c6a565b82525050565b6000606082019050614ca060008301866139ba565b614cad6020830185614c7c565b614cba60408301846139ba565b949350505050565b7f43616d706169676e20616c72656164792073746f707065640000000000000000600082015250565b6000614cf8601883613af5565b9150614d0382614cc2565b602082019050919050565b60006020820190508181036000830152614d2781614ceb565b9050919050565b7f546869732063616d706169676e206973206f7665720000000000000000000000600082015250565b6000614d64601583613af5565b9150614d6f82614d2e565b602082019050919050565b60006020820190508181036000830152614d9381614d57565b9050919050565b7f4f6e6c7920746865206f776e65722063616e2073746f7020612063616d70616960008201527f676e000000000000000000000000000000000000000000000000000000000000602082015250565b6000614df6602283613af5565b9150614e0182614d9a565b604082019050919050565b60006020820190508181036000830152614e2581614de9565b905091905056fea2646970667358221220e8363ac4e7c67176a2e4f16e3ff5b66ad51eb76dc463ff3871b280973b8c676164736f6c634300080d0033",
  "immutableReferences": {},
  "source": "// SPDX-License-Identifier: AGPL\npragma solidity ^0.8.13;\n\nimport \"./CrowdfundingTypes.sol\";\nimport \"./SupplyChains.sol\";\n\ncontract Crowdfunding {\n    // address of the supply chain contract\n    address public supplychainAddress;\n\n    // all campaigns\n    mapping(uint256 => Campaign) campaigns;\n    // Boxes of each campaign\n    mapping(uint256 => mapping(uint8 => Box)) boxes;\n    // Sold boxes of each campaign (campignId => sellId => BoxSellRef)\n    mapping(uint256 => mapping(uint256 => BoxSellRef)) soldBoxes;\n\n    uint256 numberOfCampaigns = 0;\n    \n    // Add the address of the supply chain contract\n    function setSupplyChainsAddress(address _supplychainAddress) public {\n        supplychainAddress = _supplychainAddress;\n    }\n\n    // Events\n    event CampaignCreated(uint256 campaignId, address campaignOwnerAddress);\n    event CampaignStopped(uint256 campaignId);\n    event BoxSold(uint256 campaignId, uint16 boxId, uint16 SellRefId, address consumerAddress);\n    event Payment(uint256 campaignId, address stakeholderAddress, uint256 amountInWei);\n\n    /**\n     * Creates a new campaign\n     */\n    function createCampaign(\n        string memory _title,\n        string memory _description,\n        uint32 _duration,\n        CampaignOwner memory _campaignOwner,\n        StakeholderList memory _stakeholders,\n        CampaignAnimalData memory _animal,\n        Box[] memory _boxes\n    ) public {\n        // check crowdfunding duration\n        require(_duration > 0, \"Duration must be higher than 0\");\n        require(_duration <= 6 weeks, \"Duration can't be higher than 6 weeks\");\n\n        // create deadline by adding the duration to the current timestamp\n        uint256 current = block.timestamp;\n        uint256 deadline = current + _duration;\n\n        // validate\n        require(deadline > current, \"Deadline must be in the future\");\n\n        // add boxes to campaign\n        require(_boxes.length <= type(uint8).max, \"Number of boxes can't be higher than (2^8)-1\");\n        uint16 totalNumOfBoxes = 0;\n        for (uint8 index = 0; index < _boxes.length; index++) {\n            Box memory box = _boxes[index];\n            require(\n                box.total > 0,\n                \"There must be at least one piece of each box\"\n            );\n            require(\n                box.total == box.available,\n                \"Initially total and available of a box must be equal\"\n            );\n            totalNumOfBoxes += box.total;\n            boxes[numberOfCampaigns][box.id] = box;\n        }\n        require(totalNumOfBoxes > 0, \"There must be at least one box in total\");\n\n        Campaign storage campaign = campaigns[numberOfCampaigns];\n        campaign.id = numberOfCampaigns;\n        campaign.owner = _campaignOwner;\n        campaign.info.title = _title;\n        campaign.info.description = _description;\n        campaign.info.deadline = deadline;\n        campaign.meta.createdAt = block.timestamp;\n        campaign.meta.collectedAmount = 0;\n        campaign.meta.isStopped = false;\n        campaign.meta.totalBoxes = totalNumOfBoxes;\n        campaign.meta.boxesSold = 0;\n        campaign.meta.totalBoxTypes = uint8(_boxes.length);\n        campaign.animal = _animal;\n        campaign.stakeholders = _stakeholders;\n\n        // increase total num of campaigns\n        numberOfCampaigns++;\n\n        emit CampaignCreated(campaign.id, msg.sender);\n\n        // Start supply chain\n        SupplyChains(supplychainAddress).createSupplyChain(campaign);\n    }\n\n    /**\n     * Returns the total number of campaigns\n     */\n    function getNumberOfCampaigns() public view returns (uint256) {\n        return numberOfCampaigns;\n    }\n\n    /**\n     * Returns all campaigns\n     */\n    function getCampaigns() public view returns (Campaign[] memory) {\n        Campaign[] memory allCampaigns = new Campaign[](numberOfCampaigns);\n        for (uint256 index = 0; index < numberOfCampaigns; index++) {\n            Campaign storage campaign = campaigns[index];\n            allCampaigns[index] = campaign;\n        }\n        return allCampaigns;\n    }\n\n    /**\n     * Returns all boxes of a specific campaign\n     */\n    function getBoxes(uint256 _campaignId) public view returns (Box[] memory) {\n        Campaign storage campaign = campaigns[_campaignId];\n        uint8 totalBoxTypes = campaign.meta.totalBoxTypes;\n        Box[] memory boxesOfCampaign = new Box[](totalBoxTypes);\n        for (uint8 index = 0; index < totalBoxTypes; index++) {\n            Box storage box = boxes[_campaignId][index];\n            boxesOfCampaign[index] = box;\n        }\n        return boxesOfCampaign;\n    }\n\n    /**\n     * Returns the sell reference of boxes for a specific campaign\n     */\n    function getSoldBoxes(\n        uint256 _campaignId\n    ) public view returns (BoxSellRef[] memory) {\n        Campaign storage campaign = campaigns[_campaignId];\n        uint16 boxesSold = campaign.meta.boxesSold;\n        BoxSellRef[] memory sellRefs = new BoxSellRef[](boxesSold);\n        for (uint16 index = 0; index < boxesSold; index++) {\n            BoxSellRef storage sellRef = soldBoxes[_campaignId][index];\n            sellRefs[index] = sellRef;\n        }\n        return sellRefs;\n    }\n\n    /**\n     * Removes a campaign\n     */\n    function stopCampaign(uint256 _campaignId) public {\n        Campaign storage campaign = campaigns[_campaignId];\n        require(!campaign.meta.isStopped, \"Campaign already stopped\");\n        require(\n            campaign.info.deadline > block.timestamp,\n            \"This campaign is over\"\n        );\n        require(\n            msg.sender == campaign.owner.owner,\n            \"Only the owner can stop a campaign\"\n        );\n\n        // Pay ether back\n        uint16 boxesSold = campaign.meta.boxesSold;\n        for (uint16 index = 0; index < boxesSold; index++) {\n            BoxSellRef storage sellRef = soldBoxes[_campaignId][index];\n            Box storage box = boxes[_campaignId][sellRef.boxId];\n            payable(sellRef.owner).transfer(box.price);\n        }\n\n        campaign.meta.isStopped = true;\n        emit CampaignStopped(_campaignId);\n    }\n\n    /**\n     * Buys a box\n     */\n    function buyBox(\n        uint256 _campaignId,\n        uint8 _boxId,\n        string memory _physAddress\n    ) public payable {\n        // get campaign ref\n        Campaign storage campaign = campaigns[_campaignId];\n        // check if this is an ongoing campaign\n        require(!campaign.meta.isStopped, \"This campaign has stopped\");\n        require(\n            campaign.info.deadline > block.timestamp,\n            \"This campaign is already over\"\n        );\n\n        // check if this campaign still has available boxes for the requested kind\n        Box storage box = boxes[_campaignId][_boxId];\n        require(box.id == _boxId, \"The box ID is invalid\");\n        require(box.available > 0, \"All boxes of this type have been sold\");\n        uint256 amount = msg.value;\n        require(amount >= box.price, \"Given amount is below box price\");\n\n        // Add buyer (Don't increase boxes sold yet, we need it starting at 0)\n        uint16 sellId = campaign.meta.boxesSold;\n        BoxSellRef storage sellRef = soldBoxes[_campaignId][\n            campaign.meta.boxesSold\n        ];\n        sellRef.boxId = box.id;\n        sellRef.id = sellId;\n        sellRef.owner = msg.sender;\n        sellRef.physAddress = _physAddress;\n        sellRef.boughtAt = block.timestamp;\n\n        // Updates available boxes by one\n        box.available -= 1;\n        // Update campaign meta\n        CampaignMeta storage meta = campaign.meta;\n        meta.boxesSold += 1;\n        meta.collectedAmount += amount;\n\n        emit BoxSold(campaign.id, box.id, sellRef.id, msg.sender);\n\n        SupplyChains(supplychainAddress).addBox(_campaignId, sellRef);\n\n        if (campaign.meta.boxesSold == campaign.meta.totalBoxes) {\n            // Mark campaign as stopped\n            campaign.meta.isStopped = true;\n            emit CampaignStopped(campaign.id);\n            // Start supply chain\n            SupplyChains(supplychainAddress).startSupplyChain(campaign.id);\n        }\n    }\n\n    /**\n     * Pay-out all stakeholders of the campaign\n     */\n    function payOut(uint256 _campaignId) external payable {\n        require(msg.sender == supplychainAddress, \"Only the supply chain can call this function\");\n        \n        Campaign storage campaign = campaigns[_campaignId];\n        require(campaign.meta.isStopped, \"The campaign must be finished\");\n        require(\n            campaign.meta.boxesSold == campaign.meta.totalBoxes,\n            \"There can't be any boxes left\"\n        );\n        // Check if supply chain has been completed\n        require(\n            SupplyChains(supplychainAddress).isCompleted(campaign.id),\n            \"Supply chain must be completed\"\n        );\n\n        // Generate shares\n        uint256 farmerShare = (campaign.meta.collectedAmount * campaign.stakeholders.farmer.share) / 100;\n        uint256 butcherShare = (campaign.meta.collectedAmount * campaign.stakeholders.butcher.share) / 100;\n        uint256 deliveryShare = (campaign.meta.collectedAmount * campaign.stakeholders.delivery.share) / 100;\n\n        // payout stakeholders\n        payable(campaign.stakeholders.farmer.owner).transfer(farmerShare);\n        emit Payment(campaign.id, campaign.stakeholders.farmer.owner, farmerShare);\n        payable(campaign.stakeholders.butcher.owner).transfer(butcherShare);\n        emit Payment(campaign.id, campaign.stakeholders.butcher.owner, butcherShare);\n        payable(campaign.stakeholders.delivery.owner).transfer(deliveryShare);\n        emit Payment(campaign.id, campaign.stakeholders.delivery.owner, deliveryShare);\n    }\n}\n",
  "sourcePath": "/Users/cassolseba/VSCode/blockchain/146157_Blockchain/smart_contracts/contracts/Crowdfunding.sol",
  "compiler": {
    "name": "solc",
    "version": "0.8.13+commit.abaa5c0e.Emscripten.clang"
  },
  "schemaVersion": "3.4.14",
  "updatedAt": "2023-08-19T09:19:59.111Z",
  "devdoc": {
    "kind": "dev",
    "methods": {},
    "version": 1
  },
  "userdoc": {
    "kind": "user",
    "methods": {
      "buyBox(uint256,uint8,string)": {
        "notice": "Buys a box"
      },
      "createCampaign(string,string,uint32,(address,string),((address,uint8,string),(address,uint8,string),(address,uint8,string)),(string,string,string,uint8),(uint8,string,string,uint256,uint8,uint8)[])": {
        "notice": "Creates a new campaign"
      },
      "getBoxes(uint256)": {
        "notice": "Returns all boxes of a specific campaign"
      },
      "getCampaigns()": {
        "notice": "Returns all campaigns"
      },
      "getNumberOfCampaigns()": {
        "notice": "Returns the total number of campaigns"
      },
      "getSoldBoxes(uint256)": {
        "notice": "Returns the sell reference of boxes for a specific campaign"
      },
      "payOut(uint256)": {
        "notice": "Pay-out all stakeholders of the campaign"
      },
      "stopCampaign(uint256)": {
        "notice": "Removes a campaign"
      }
    },
    "version": 1
  }
}