{
  "contractName": "Crowdfunding",
  "abi": [
    {
      "inputs": [
        {
          "internalType": "uint256",
          "name": "",
          "type": "uint256"
        },
        {
          "internalType": "uint256",
          "name": "",
          "type": "uint256"
        }
      ],
      "name": "boxOffers",
      "outputs": [
        {
          "internalType": "uint256",
          "name": "id",
          "type": "uint256"
        },
        {
          "components": [
            {
              "internalType": "string",
              "name": "title",
              "type": "string"
            },
            {
              "internalType": "string",
              "name": "description",
              "type": "string"
            },
            {
              "internalType": "uint256",
              "name": "price",
              "type": "uint256"
            }
          ],
          "internalType": "struct Crowdfunding.Box",
          "name": "box",
          "type": "tuple"
        },
        {
          "internalType": "uint32",
          "name": "total",
          "type": "uint32"
        },
        {
          "internalType": "uint32",
          "name": "available",
          "type": "uint32"
        }
      ],
      "stateMutability": "view",
      "type": "function",
      "constant": true
    },
    {
      "inputs": [
        {
          "internalType": "uint256",
          "name": "",
          "type": "uint256"
        }
      ],
      "name": "campaigns",
      "outputs": [
        {
          "internalType": "address",
          "name": "owner",
          "type": "address"
        },
        {
          "internalType": "string",
          "name": "ownerPublicKey",
          "type": "string"
        },
        {
          "internalType": "string",
          "name": "title",
          "type": "string"
        },
        {
          "internalType": "string",
          "name": "description",
          "type": "string"
        },
        {
          "internalType": "uint256",
          "name": "collectedAmount",
          "type": "uint256"
        },
        {
          "internalType": "uint256",
          "name": "deadline",
          "type": "uint256"
        },
        {
          "internalType": "uint256",
          "name": "totalBoxes",
          "type": "uint256"
        },
        {
          "internalType": "uint256",
          "name": "boxesSold",
          "type": "uint256"
        },
        {
          "internalType": "bool",
          "name": "isStopped",
          "type": "bool"
        },
        {
          "components": [
            {
              "internalType": "address payable",
              "name": "owner",
              "type": "address"
            },
            {
              "internalType": "uint8",
              "name": "share",
              "type": "uint8"
            }
          ],
          "internalType": "struct Crowdfunding.Stakeholder",
          "name": "farmer",
          "type": "tuple"
        },
        {
          "components": [
            {
              "internalType": "address payable",
              "name": "owner",
              "type": "address"
            },
            {
              "internalType": "uint8",
              "name": "share",
              "type": "uint8"
            }
          ],
          "internalType": "struct Crowdfunding.Stakeholder",
          "name": "butcher",
          "type": "tuple"
        },
        {
          "components": [
            {
              "internalType": "address payable",
              "name": "owner",
              "type": "address"
            },
            {
              "internalType": "uint8",
              "name": "share",
              "type": "uint8"
            }
          ],
          "internalType": "struct Crowdfunding.Stakeholder",
          "name": "delivery",
          "type": "tuple"
        }
      ],
      "stateMutability": "view",
      "type": "function",
      "constant": true
    },
    {
      "inputs": [],
      "name": "numberOfCampaigns",
      "outputs": [
        {
          "internalType": "uint256",
          "name": "",
          "type": "uint256"
        }
      ],
      "stateMutability": "view",
      "type": "function",
      "constant": true
    },
    {
      "inputs": [
        {
          "internalType": "uint256",
          "name": "",
          "type": "uint256"
        },
        {
          "internalType": "uint256",
          "name": "",
          "type": "uint256"
        }
      ],
      "name": "soldBoxesCampaign",
      "outputs": [
        {
          "internalType": "uint256",
          "name": "id",
          "type": "uint256"
        },
        {
          "components": [
            {
              "internalType": "string",
              "name": "title",
              "type": "string"
            },
            {
              "internalType": "string",
              "name": "description",
              "type": "string"
            },
            {
              "internalType": "uint256",
              "name": "price",
              "type": "uint256"
            }
          ],
          "internalType": "struct Crowdfunding.Box",
          "name": "box",
          "type": "tuple"
        },
        {
          "internalType": "address",
          "name": "owner",
          "type": "address"
        },
        {
          "internalType": "string",
          "name": "physAddress",
          "type": "string"
        }
      ],
      "stateMutability": "view",
      "type": "function",
      "constant": true
    },
    {
      "inputs": [
        {
          "internalType": "address",
          "name": "_owner",
          "type": "address"
        },
        {
          "internalType": "string",
          "name": "_ownerPublicKey",
          "type": "string"
        },
        {
          "internalType": "string",
          "name": "_title",
          "type": "string"
        },
        {
          "internalType": "string",
          "name": "_description",
          "type": "string"
        },
        {
          "internalType": "uint32",
          "name": "_duration",
          "type": "uint32"
        },
        {
          "components": [
            {
              "internalType": "address payable",
              "name": "owner",
              "type": "address"
            },
            {
              "internalType": "uint8",
              "name": "share",
              "type": "uint8"
            }
          ],
          "internalType": "struct Crowdfunding.Stakeholder",
          "name": "_farmer",
          "type": "tuple"
        },
        {
          "components": [
            {
              "internalType": "address payable",
              "name": "owner",
              "type": "address"
            },
            {
              "internalType": "uint8",
              "name": "share",
              "type": "uint8"
            }
          ],
          "internalType": "struct Crowdfunding.Stakeholder",
          "name": "_butcher",
          "type": "tuple"
        },
        {
          "components": [
            {
              "internalType": "address payable",
              "name": "owner",
              "type": "address"
            },
            {
              "internalType": "uint8",
              "name": "share",
              "type": "uint8"
            }
          ],
          "internalType": "struct Crowdfunding.Stakeholder",
          "name": "_delivery",
          "type": "tuple"
        },
        {
          "components": [
            {
              "internalType": "uint256",
              "name": "id",
              "type": "uint256"
            },
            {
              "components": [
                {
                  "internalType": "string",
                  "name": "title",
                  "type": "string"
                },
                {
                  "internalType": "string",
                  "name": "description",
                  "type": "string"
                },
                {
                  "internalType": "uint256",
                  "name": "price",
                  "type": "uint256"
                }
              ],
              "internalType": "struct Crowdfunding.Box",
              "name": "box",
              "type": "tuple"
            },
            {
              "internalType": "uint32",
              "name": "total",
              "type": "uint32"
            },
            {
              "internalType": "uint32",
              "name": "available",
              "type": "uint32"
            }
          ],
          "internalType": "struct Crowdfunding.BoxOffer[]",
          "name": "_boxes",
          "type": "tuple[]"
        }
      ],
      "name": "createCampaign",
      "outputs": [
        {
          "internalType": "uint256",
          "name": "",
          "type": "uint256"
        }
      ],
      "stateMutability": "nonpayable",
      "type": "function"
    },
    {
      "inputs": [],
      "name": "getNumberOfCampaigns",
      "outputs": [
        {
          "internalType": "uint256",
          "name": "",
          "type": "uint256"
        }
      ],
      "stateMutability": "view",
      "type": "function",
      "constant": true
    },
    {
      "inputs": [
        {
          "internalType": "uint256",
          "name": "_campaignId",
          "type": "uint256"
        }
      ],
      "name": "getPublicKey",
      "outputs": [
        {
          "internalType": "string",
          "name": "",
          "type": "string"
        }
      ],
      "stateMutability": "view",
      "type": "function",
      "constant": true
    },
    {
      "inputs": [
        {
          "internalType": "uint256",
          "name": "_campaignId",
          "type": "uint256"
        }
      ],
      "name": "stopCampaign",
      "outputs": [
        {
          "internalType": "bool",
          "name": "",
          "type": "bool"
        }
      ],
      "stateMutability": "nonpayable",
      "type": "function"
    },
    {
      "inputs": [
        {
          "internalType": "uint256",
          "name": "_campaignId",
          "type": "uint256"
        },
        {
          "internalType": "uint256",
          "name": "_boxId",
          "type": "uint256"
        },
        {
          "internalType": "string",
          "name": "_physAddress",
          "type": "string"
        }
      ],
      "name": "buyBox",
      "outputs": [],
      "stateMutability": "payable",
      "type": "function",
      "payable": true
    },
    {
      "inputs": [
        {
          "internalType": "uint256",
          "name": "_campaignId",
          "type": "uint256"
        }
      ],
      "name": "getCampaign",
      "outputs": [
        {
          "components": [
            {
              "internalType": "uint256",
              "name": "id",
              "type": "uint256"
            },
            {
              "components": [
                {
                  "internalType": "address",
                  "name": "owner",
                  "type": "address"
                },
                {
                  "internalType": "string",
                  "name": "ownerPublicKey",
                  "type": "string"
                },
                {
                  "internalType": "string",
                  "name": "title",
                  "type": "string"
                },
                {
                  "internalType": "string",
                  "name": "description",
                  "type": "string"
                },
                {
                  "internalType": "uint256",
                  "name": "collectedAmount",
                  "type": "uint256"
                },
                {
                  "internalType": "uint256",
                  "name": "deadline",
                  "type": "uint256"
                },
                {
                  "internalType": "uint256",
                  "name": "totalBoxes",
                  "type": "uint256"
                },
                {
                  "internalType": "uint256",
                  "name": "boxesSold",
                  "type": "uint256"
                },
                {
                  "internalType": "bool",
                  "name": "isStopped",
                  "type": "bool"
                },
                {
                  "components": [
                    {
                      "internalType": "address payable",
                      "name": "owner",
                      "type": "address"
                    },
                    {
                      "internalType": "uint8",
                      "name": "share",
                      "type": "uint8"
                    }
                  ],
                  "internalType": "struct Crowdfunding.Stakeholder",
                  "name": "farmer",
                  "type": "tuple"
                },
                {
                  "components": [
                    {
                      "internalType": "address payable",
                      "name": "owner",
                      "type": "address"
                    },
                    {
                      "internalType": "uint8",
                      "name": "share",
                      "type": "uint8"
                    }
                  ],
                  "internalType": "struct Crowdfunding.Stakeholder",
                  "name": "butcher",
                  "type": "tuple"
                },
                {
                  "components": [
                    {
                      "internalType": "address payable",
                      "name": "owner",
                      "type": "address"
                    },
                    {
                      "internalType": "uint8",
                      "name": "share",
                      "type": "uint8"
                    }
                  ],
                  "internalType": "struct Crowdfunding.Stakeholder",
                  "name": "delivery",
                  "type": "tuple"
                }
              ],
              "internalType": "struct Crowdfunding.Campaign",
              "name": "campaign",
              "type": "tuple"
            }
          ],
          "internalType": "struct Crowdfunding.CampaignRef",
          "name": "",
          "type": "tuple"
        }
      ],
      "stateMutability": "view",
      "type": "function",
      "constant": true
    },
    {
      "inputs": [],
      "name": "getCampaigns",
      "outputs": [
        {
          "components": [
            {
              "internalType": "uint256",
              "name": "id",
              "type": "uint256"
            },
            {
              "components": [
                {
                  "internalType": "address",
                  "name": "owner",
                  "type": "address"
                },
                {
                  "internalType": "string",
                  "name": "ownerPublicKey",
                  "type": "string"
                },
                {
                  "internalType": "string",
                  "name": "title",
                  "type": "string"
                },
                {
                  "internalType": "string",
                  "name": "description",
                  "type": "string"
                },
                {
                  "internalType": "uint256",
                  "name": "collectedAmount",
                  "type": "uint256"
                },
                {
                  "internalType": "uint256",
                  "name": "deadline",
                  "type": "uint256"
                },
                {
                  "internalType": "uint256",
                  "name": "totalBoxes",
                  "type": "uint256"
                },
                {
                  "internalType": "uint256",
                  "name": "boxesSold",
                  "type": "uint256"
                },
                {
                  "internalType": "bool",
                  "name": "isStopped",
                  "type": "bool"
                },
                {
                  "components": [
                    {
                      "internalType": "address payable",
                      "name": "owner",
                      "type": "address"
                    },
                    {
                      "internalType": "uint8",
                      "name": "share",
                      "type": "uint8"
                    }
                  ],
                  "internalType": "struct Crowdfunding.Stakeholder",
                  "name": "farmer",
                  "type": "tuple"
                },
                {
                  "components": [
                    {
                      "internalType": "address payable",
                      "name": "owner",
                      "type": "address"
                    },
                    {
                      "internalType": "uint8",
                      "name": "share",
                      "type": "uint8"
                    }
                  ],
                  "internalType": "struct Crowdfunding.Stakeholder",
                  "name": "butcher",
                  "type": "tuple"
                },
                {
                  "components": [
                    {
                      "internalType": "address payable",
                      "name": "owner",
                      "type": "address"
                    },
                    {
                      "internalType": "uint8",
                      "name": "share",
                      "type": "uint8"
                    }
                  ],
                  "internalType": "struct Crowdfunding.Stakeholder",
                  "name": "delivery",
                  "type": "tuple"
                }
              ],
              "internalType": "struct Crowdfunding.Campaign",
              "name": "campaign",
              "type": "tuple"
            }
          ],
          "internalType": "struct Crowdfunding.CampaignRef[]",
          "name": "",
          "type": "tuple[]"
        }
      ],
      "stateMutability": "view",
      "type": "function",
      "constant": true
    },
    {
      "inputs": [],
      "name": "getOngoingCampaigns",
      "outputs": [
        {
          "components": [
            {
              "internalType": "uint256",
              "name": "id",
              "type": "uint256"
            },
            {
              "components": [
                {
                  "internalType": "address",
                  "name": "owner",
                  "type": "address"
                },
                {
                  "internalType": "string",
                  "name": "ownerPublicKey",
                  "type": "string"
                },
                {
                  "internalType": "string",
                  "name": "title",
                  "type": "string"
                },
                {
                  "internalType": "string",
                  "name": "description",
                  "type": "string"
                },
                {
                  "internalType": "uint256",
                  "name": "collectedAmount",
                  "type": "uint256"
                },
                {
                  "internalType": "uint256",
                  "name": "deadline",
                  "type": "uint256"
                },
                {
                  "internalType": "uint256",
                  "name": "totalBoxes",
                  "type": "uint256"
                },
                {
                  "internalType": "uint256",
                  "name": "boxesSold",
                  "type": "uint256"
                },
                {
                  "internalType": "bool",
                  "name": "isStopped",
                  "type": "bool"
                },
                {
                  "components": [
                    {
                      "internalType": "address payable",
                      "name": "owner",
                      "type": "address"
                    },
                    {
                      "internalType": "uint8",
                      "name": "share",
                      "type": "uint8"
                    }
                  ],
                  "internalType": "struct Crowdfunding.Stakeholder",
                  "name": "farmer",
                  "type": "tuple"
                },
                {
                  "components": [
                    {
                      "internalType": "address payable",
                      "name": "owner",
                      "type": "address"
                    },
                    {
                      "internalType": "uint8",
                      "name": "share",
                      "type": "uint8"
                    }
                  ],
                  "internalType": "struct Crowdfunding.Stakeholder",
                  "name": "butcher",
                  "type": "tuple"
                },
                {
                  "components": [
                    {
                      "internalType": "address payable",
                      "name": "owner",
                      "type": "address"
                    },
                    {
                      "internalType": "uint8",
                      "name": "share",
                      "type": "uint8"
                    }
                  ],
                  "internalType": "struct Crowdfunding.Stakeholder",
                  "name": "delivery",
                  "type": "tuple"
                }
              ],
              "internalType": "struct Crowdfunding.Campaign",
              "name": "campaign",
              "type": "tuple"
            }
          ],
          "internalType": "struct Crowdfunding.CampaignRef[]",
          "name": "",
          "type": "tuple[]"
        }
      ],
      "stateMutability": "view",
      "type": "function",
      "constant": true
    },
    {
      "inputs": [
        {
          "internalType": "uint256",
          "name": "_campaignId",
          "type": "uint256"
        }
      ],
      "name": "getBoxes",
      "outputs": [
        {
          "components": [
            {
              "internalType": "uint256",
              "name": "id",
              "type": "uint256"
            },
            {
              "components": [
                {
                  "internalType": "string",
                  "name": "title",
                  "type": "string"
                },
                {
                  "internalType": "string",
                  "name": "description",
                  "type": "string"
                },
                {
                  "internalType": "uint256",
                  "name": "price",
                  "type": "uint256"
                }
              ],
              "internalType": "struct Crowdfunding.Box",
              "name": "box",
              "type": "tuple"
            },
            {
              "internalType": "uint32",
              "name": "total",
              "type": "uint32"
            },
            {
              "internalType": "uint32",
              "name": "available",
              "type": "uint32"
            }
          ],
          "internalType": "struct Crowdfunding.BoxOffer[]",
          "name": "",
          "type": "tuple[]"
        }
      ],
      "stateMutability": "view",
      "type": "function",
      "constant": true
    },
    {
      "inputs": [
        {
          "internalType": "uint256",
          "name": "_campaignId",
          "type": "uint256"
        }
      ],
      "name": "getSoldBoxes",
      "outputs": [
        {
          "components": [
            {
              "internalType": "uint256",
              "name": "id",
              "type": "uint256"
            },
            {
              "components": [
                {
                  "internalType": "string",
                  "name": "title",
                  "type": "string"
                },
                {
                  "internalType": "string",
                  "name": "description",
                  "type": "string"
                },
                {
                  "internalType": "uint256",
                  "name": "price",
                  "type": "uint256"
                }
              ],
              "internalType": "struct Crowdfunding.Box",
              "name": "box",
              "type": "tuple"
            },
            {
              "internalType": "address",
              "name": "owner",
              "type": "address"
            },
            {
              "internalType": "string",
              "name": "physAddress",
              "type": "string"
            }
          ],
          "internalType": "struct Crowdfunding.BoxSellRef[]",
          "name": "",
          "type": "tuple[]"
        }
      ],
      "stateMutability": "view",
      "type": "function",
      "constant": true
    },
    {
      "inputs": [
        {
          "internalType": "uint256",
          "name": "_campaignId",
          "type": "uint256"
        }
      ],
      "name": "payOut",
      "outputs": [],
      "stateMutability": "nonpayable",
      "type": "function"
    }
  ],
  "bytecode": "0x6080604052600060035534801561001557600080fd5b50614e46806100256000396000f3fe6080604052600436106100e85760003560e01c806375d2c1ce1161008a578063d30c1be111610059578063d30c1be114610358578063da333ca614610383578063e4aafc2c146103ac578063ec6c8216146103d7576100e8565b806375d2c1ce146102735780637d754dfc146102b0578063a6b03633146102ed578063b8d91ca514610318576100e8565b80633267f8ab116100c65780633267f8ab146101a057806332e75749146101dd5780635598f8cc1461021a5780636e8ae03514610257576100e8565b806307ca140d146100ed5780631355879d14610118578063141961bc14610158575b600080fd5b3480156100f957600080fd5b50610102610414565b60405161010f919061314d565b60405180910390f35b34801561012457600080fd5b5061013f600480360381019061013a91906131a8565b61041a565b60405161014f9493929190613306565b60405180910390f35b34801561016457600080fd5b5061017f600480360381019061017a9190613352565b6105bf565b6040516101979c9b9a99989796959493929190613491565b60405180910390f35b3480156101ac57600080fd5b506101c760048036038101906101c29190613352565b61095b565b6040516101d491906136eb565b60405180910390f35b3480156101e957600080fd5b5061020460048036038101906101ff9190613352565b610b6b565b6040516102119190613848565b60405180910390f35b34801561022657600080fd5b50610241600480360381019061023c9190613352565b610e8a565b60405161024e91906139f7565b60405180910390f35b610271600480360381019061026c9190613b4e565b6112bb565b005b34801561027f57600080fd5b5061029a60048036038101906102959190613352565b61168b565b6040516102a79190613bbd565b60405180910390f35b3480156102bc57600080fd5b506102d760048036038101906102d29190613eff565b611738565b6040516102e4919061314d565b60405180910390f35b3480156102f957600080fd5b50610302611e9c565b60405161030f9190614139565b60405180910390f35b34801561032457600080fd5b5061033f600480360381019061033a91906131a8565b612360565b60405161034f949392919061415b565b60405180910390f35b34801561036457600080fd5b5061036d61257d565b60405161037a9190614139565b60405180910390f35b34801561038f57600080fd5b506103aa60048036038101906103a59190613352565b612a58565b005b3480156103b857600080fd5b506103c1612cdb565b6040516103ce919061314d565b60405180910390f35b3480156103e357600080fd5b506103fe60048036038101906103f99190613352565b612ce5565b60405161040b91906141ae565b60405180910390f35b60035481565b6001602052816000526040600020818154811061043657600080fd5b90600052602060002090600502016000915091505080600001549080600101604051806060016040529081600082018054610470906141f8565b80601f016020809104026020016040519081016040528092919081815260200182805461049c906141f8565b80156104e95780601f106104be576101008083540402835291602001916104e9565b820191906000526020600020905b8154815290600101906020018083116104cc57829003601f168201915b50505050508152602001600182018054610502906141f8565b80601f016020809104026020016040519081016040528092919081815260200182805461052e906141f8565b801561057b5780601f106105505761010080835404028352916020019161057b565b820191906000526020600020905b81548152906001019060200180831161055e57829003601f168201915b50505050508152602001600282015481525050908060040160009054906101000a900463ffffffff16908060040160049054906101000a900463ffffffff16905084565b60006020528060005260406000206000915090508060000160009054906101000a900473ffffffffffffffffffffffffffffffffffffffff1690806001018054610608906141f8565b80601f0160208091040260200160405190810160405280929190818152602001828054610634906141f8565b80156106815780601f1061065657610100808354040283529160200191610681565b820191906000526020600020905b81548152906001019060200180831161066457829003601f168201915b505050505090806002018054610696906141f8565b80601f01602080910402602001604051908101604052809291908181526020018280546106c2906141f8565b801561070f5780601f106106e45761010080835404028352916020019161070f565b820191906000526020600020905b8154815290600101906020018083116106f257829003601f168201915b505050505090806003018054610724906141f8565b80601f0160208091040260200160405190810160405280929190818152602001828054610750906141f8565b801561079d5780601f106107725761010080835404028352916020019161079d565b820191906000526020600020905b81548152906001019060200180831161078057829003601f168201915b5050505050908060040154908060050154908060060154908060070154908060080160009054906101000a900460ff1690806009016040518060400160405290816000820160009054906101000a900473ffffffffffffffffffffffffffffffffffffffff1673ffffffffffffffffffffffffffffffffffffffff1673ffffffffffffffffffffffffffffffffffffffff1681526020016000820160149054906101000a900460ff1660ff1660ff16815250509080600a016040518060400160405290816000820160009054906101000a900473ffffffffffffffffffffffffffffffffffffffff1673ffffffffffffffffffffffffffffffffffffffff1673ffffffffffffffffffffffffffffffffffffffff1681526020016000820160149054906101000a900460ff1660ff1660ff16815250509080600b016040518060400160405290816000820160009054906101000a900473ffffffffffffffffffffffffffffffffffffffff1673ffffffffffffffffffffffffffffffffffffffff1673ffffffffffffffffffffffffffffffffffffffff1681526020016000820160149054906101000a900460ff1660ff1660ff168152505090508c565b6060600060016000848152602001908152602001600020905080805480602002602001604051908101604052809291908181526020016000905b82821015610b5f578382906000526020600020906005020160405180608001604052908160008201548152602001600182016040518060600160405290816000820180546109e2906141f8565b80601f0160208091040260200160405190810160405280929190818152602001828054610a0e906141f8565b8015610a5b5780601f10610a3057610100808354040283529160200191610a5b565b820191906000526020600020905b815481529060010190602001808311610a3e57829003601f168201915b50505050508152602001600182018054610a74906141f8565b80601f0160208091040260200160405190810160405280929190818152602001828054610aa0906141f8565b8015610aed5780601f10610ac257610100808354040283529160200191610aed565b820191906000526020600020905b815481529060010190602001808311610ad057829003601f168201915b5050505050815260200160028201548152505081526020016004820160009054906101000a900463ffffffff1663ffffffff1663ffffffff1681526020016004820160049054906101000a900463ffffffff1663ffffffff1663ffffffff168152505081526020019060010190610995565b50505050915050919050565b6060600080600084815260200190815260200160002090506000816007015467ffffffffffffffff811115610ba357610ba2613a23565b5b604051908082528060200260200182016040528015610bdc57816020015b610bc9612f4e565b815260200190600190039081610bc15790505b50905060005b8151811015610e7f576002600086815260200190815260200160002060008281526020019081526020016000206040518060800160405290816000820154815260200160018201604051806060016040529081600082018054610c44906141f8565b80601f0160208091040260200160405190810160405280929190818152602001828054610c70906141f8565b8015610cbd5780601f10610c9257610100808354040283529160200191610cbd565b820191906000526020600020905b815481529060010190602001808311610ca057829003601f168201915b50505050508152602001600182018054610cd6906141f8565b80601f0160208091040260200160405190810160405280929190818152602001828054610d02906141f8565b8015610d4f5780601f10610d2457610100808354040283529160200191610d4f565b820191906000526020600020905b815481529060010190602001808311610d3257829003601f168201915b5050505050815260200160028201548152505081526020016004820160009054906101000a900473ffffffffffffffffffffffffffffffffffffffff1673ffffffffffffffffffffffffffffffffffffffff1673ffffffffffffffffffffffffffffffffffffffff168152602001600582018054610dcc906141f8565b80601f0160208091040260200160405190810160405280929190818152602001828054610df8906141f8565b8015610e455780601f10610e1a57610100808354040283529160200191610e45565b820191906000526020600020905b815481529060010190602001808311610e2857829003601f168201915b505050505081525050828281518110610e6157610e60614229565b5b60200260200101819052508080610e7790614287565b915050610be2565b508092505050919050565b610e92612f92565b600080600084815260200190815260200160002090506000604051806040016040528085815260200183604051806101800160405290816000820160009054906101000a900473ffffffffffffffffffffffffffffffffffffffff1673ffffffffffffffffffffffffffffffffffffffff1673ffffffffffffffffffffffffffffffffffffffff168152602001600182018054610f2e906141f8565b80601f0160208091040260200160405190810160405280929190818152602001828054610f5a906141f8565b8015610fa75780601f10610f7c57610100808354040283529160200191610fa7565b820191906000526020600020905b815481529060010190602001808311610f8a57829003601f168201915b50505050508152602001600282018054610fc0906141f8565b80601f0160208091040260200160405190810160405280929190818152602001828054610fec906141f8565b80156110395780601f1061100e57610100808354040283529160200191611039565b820191906000526020600020905b81548152906001019060200180831161101c57829003601f168201915b50505050508152602001600382018054611052906141f8565b80601f016020809104026020016040519081016040528092919081815260200182805461107e906141f8565b80156110cb5780601f106110a0576101008083540402835291602001916110cb565b820191906000526020600020905b8154815290600101906020018083116110ae57829003601f168201915b50505050508152602001600482015481526020016005820154815260200160068201548152602001600782015481526020016008820160009054906101000a900460ff16151515158152602001600982016040518060400160405290816000820160009054906101000a900473ffffffffffffffffffffffffffffffffffffffff1673ffffffffffffffffffffffffffffffffffffffff1673ffffffffffffffffffffffffffffffffffffffff1681526020016000820160149054906101000a900460ff1660ff1660ff16815250508152602001600a82016040518060400160405290816000820160009054906101000a900473ffffffffffffffffffffffffffffffffffffffff1673ffffffffffffffffffffffffffffffffffffffff1673ffffffffffffffffffffffffffffffffffffffff1681526020016000820160149054906101000a900460ff1660ff1660ff16815250508152602001600b82016040518060400160405290816000820160009054906101000a900473ffffffffffffffffffffffffffffffffffffffff1673ffffffffffffffffffffffffffffffffffffffff1673ffffffffffffffffffffffffffffffffffffffff1681526020016000820160149054906101000a900460ff1660ff1660ff16815250508152505081525090508092505050919050565b600080600085815260200190815260200160002090508060080160009054906101000a900460ff1615611323576040517f08c379a000000000000000000000000000000000000000000000000000000000815260040161131a9061431b565b60405180910390fd5b42816005015411611369576040517f08c379a000000000000000000000000000000000000000000000000000000000815260040161136090614387565b60405180910390fd5b60006001600086815260200190815260200160002084815481106113905761138f614229565b5b90600052602060002090600502019050838160000154146113e6576040517f08c379a00000000000000000000000000000000000000000000000000000000081526004016113dd906143f3565b60405180910390fd5b60008160040160049054906101000a900463ffffffff1663ffffffff1611611443576040517f08c379a000000000000000000000000000000000000000000000000000000000815260040161143a90614485565b60405180910390fd5b600081600101604051806060016040529081600082018054611464906141f8565b80601f0160208091040260200160405190810160405280929190818152602001828054611490906141f8565b80156114dd5780601f106114b2576101008083540402835291602001916114dd565b820191906000526020600020905b8154815290600101906020018083116114c057829003601f168201915b505050505081526020016001820180546114f6906141f8565b80601f0160208091040260200160405190810160405280929190818152602001828054611522906141f8565b801561156f5780601f106115445761010080835404028352916020019161156f565b820191906000526020600020905b81548152906001019060200180831161155257829003601f168201915b505050505081526020016002820154815250509050600034905081604001518110156115d0576040517f08c379a00000000000000000000000000000000000000000000000000000000081526004016115c7906144f1565b60405180910390fd5b6115dc87338488612e4d565b60018360040160048282829054906101000a900463ffffffff166116009190614511565b92506101000a81548163ffffffff021916908363ffffffff16021790555060018460070160008282546116339190614545565b925050819055508084600401600082825461164e9190614545565b9250508190555083600601548460070154036116825760018460080160006101000a81548160ff0219169083151502179055505b50505050505050565b6060600080600084815260200190815260200160002090508060010180546116b2906141f8565b80601f01602080910402602001604051908101604052809291908181526020018280546116de906141f8565b801561172b5780601f106117005761010080835404028352916020019161172b565b820191906000526020600020905b81548152906001019060200180831161170e57829003601f168201915b5050505050915050919050565b600062375f008663ffffffff161115611786576040517f08c379a000000000000000000000000000000000000000000000000000000000815260040161177d9061460d565b60405180910390fd5b600042905060008763ffffffff168261179f9190614545565b90508181116117e3576040517f08c379a00000000000000000000000000000000000000000000000000000000081526004016117da90614679565b60405180910390fd5b6000876020015160ff1611801561180257506064876020015160ff1611155b611841576040517f08c379a000000000000000000000000000000000000000000000000000000000815260040161183890614731565b60405180910390fd5b6000866020015160ff1611801561186057506064866020015160ff1611155b61189f576040517f08c379a0000000000000000000000000000000000000000000000000000000008152600401611896906147e9565b60405180910390fd5b6000856020015160ff161180156118be57506064856020015160ff1611155b6118fd576040517f08c379a00000000000000000000000000000000000000000000000000000000081526004016118f4906148a1565b60405180910390fd5b600085602001518760200151896020015161191891906148c1565b61192291906148c1565b905060648160ff161461196a576040517f08c379a00000000000000000000000000000000000000000000000000000000081526004016119619061496a565b60405180910390fd5b6000805b8651811015611ab657600087828151811061198c5761198b614229565b5b602002602001015190506000816040015163ffffffff16116119e3576040517f08c379a00000000000000000000000000000000000000000000000000000000081526004016119da906149fc565b60405180910390fd5b806060015163ffffffff16816040015163ffffffff1614611a39576040517f08c379a0000000000000000000000000000000000000000000000000000000008152600401611a3090614a8e565b60405180910390fd5b806040015163ffffffff1683611a4f9190614545565b92506000816020015190506000816040015111611aa1576040517f08c379a0000000000000000000000000000000000000000000000000000000008152600401611a9890614b20565b60405180910390fd5b50508080611aae90614287565b91505061196e565b5060008111611afa576040517f08c379a0000000000000000000000000000000000000000000000000000000008152600401611af190614b8c565b60405180910390fd5b6000806000600354815260200190815260200160002090508e8160000160006101000a81548173ffffffffffffffffffffffffffffffffffffffff021916908373ffffffffffffffffffffffffffffffffffffffff1602179055508d816001019080519060200190611b6d929190612fb2565b508c816002019080519060200190611b86929190612fb2565b508b816003019080519060200190611b9f929190612fb2565b506000816004018190555083816005018190555060008160080160006101000a81548160ff02191690831515021790555081816006018190555060008160070181905550898160090160008201518160000160006101000a81548173ffffffffffffffffffffffffffffffffffffffff021916908373ffffffffffffffffffffffffffffffffffffffff16021790555060208201518160000160146101000a81548160ff021916908360ff1602179055509050508881600a0160008201518160000160006101000a81548173ffffffffffffffffffffffffffffffffffffffff021916908373ffffffffffffffffffffffffffffffffffffffff16021790555060208201518160000160146101000a81548160ff021916908360ff1602179055509050508781600b0160008201518160000160006101000a81548173ffffffffffffffffffffffffffffffffffffffff021916908373ffffffffffffffffffffffffffffffffffffffff16021790555060208201518160000160146101000a81548160ff021916908360ff1602179055509050506000600160006003548152602001908152602001600020905060005b8851811015611e5f576000898281518110611d6d57611d6c614229565b5b6020026020010151905082819080600181540180825580915050600190039060005260206000209060050201600090919091909150600082015181600001556020820151816001016000820151816000019080519060200190611dd1929190612fb2565b506020820151816001019080519060200190611dee929190612fb2565b5060408201518160020155505060408201518160040160006101000a81548163ffffffff021916908363ffffffff16021790555060608201518160040160046101000a81548163ffffffff021916908363ffffffff1602179055505050508080611e5790614287565b915050611d4f565b5060036000815480929190611e7390614287565b91905055506001600354611e879190614bac565b96505050505050509998505050505050505050565b6060600060035467ffffffffffffffff811115611ebc57611ebb613a23565b5b604051908082528060200260200182016040528015611ef557816020015b611ee2612f92565b815260200190600190039081611eda5790505b50905060005b60035481101561235857600080600083815260200190815260200160002090506000604051806040016040528084815260200183604051806101800160405290816000820160009054906101000a900473ffffffffffffffffffffffffffffffffffffffff1673ffffffffffffffffffffffffffffffffffffffff1673ffffffffffffffffffffffffffffffffffffffff168152602001600182018054611fa1906141f8565b80601f0160208091040260200160405190810160405280929190818152602001828054611fcd906141f8565b801561201a5780601f10611fef5761010080835404028352916020019161201a565b820191906000526020600020905b815481529060010190602001808311611ffd57829003601f168201915b50505050508152602001600282018054612033906141f8565b80601f016020809104026020016040519081016040528092919081815260200182805461205f906141f8565b80156120ac5780601f10612081576101008083540402835291602001916120ac565b820191906000526020600020905b81548152906001019060200180831161208f57829003601f168201915b505050505081526020016003820180546120c5906141f8565b80601f01602080910402602001604051908101604052809291908181526020018280546120f1906141f8565b801561213e5780601f106121135761010080835404028352916020019161213e565b820191906000526020600020905b81548152906001019060200180831161212157829003601f168201915b50505050508152602001600482015481526020016005820154815260200160068201548152602001600782015481526020016008820160009054906101000a900460ff16151515158152602001600982016040518060400160405290816000820160009054906101000a900473ffffffffffffffffffffffffffffffffffffffff1673ffffffffffffffffffffffffffffffffffffffff1673ffffffffffffffffffffffffffffffffffffffff1681526020016000820160149054906101000a900460ff1660ff1660ff16815250508152602001600a82016040518060400160405290816000820160009054906101000a900473ffffffffffffffffffffffffffffffffffffffff1673ffffffffffffffffffffffffffffffffffffffff1673ffffffffffffffffffffffffffffffffffffffff1681526020016000820160149054906101000a900460ff1660ff1660ff16815250508152602001600b82016040518060400160405290816000820160009054906101000a900473ffffffffffffffffffffffffffffffffffffffff1673ffffffffffffffffffffffffffffffffffffffff1673ffffffffffffffffffffffffffffffffffffffff1681526020016000820160149054906101000a900460ff1660ff1660ff16815250508152505081525090508084848151811061233857612337614229565b5b60200260200101819052505050808061235090614287565b915050611efb565b508091505090565b600260205281600052604060002060205280600052604060002060009150915050806000015490806001016040518060600160405290816000820180546123a6906141f8565b80601f01602080910402602001604051908101604052809291908181526020018280546123d2906141f8565b801561241f5780601f106123f45761010080835404028352916020019161241f565b820191906000526020600020905b81548152906001019060200180831161240257829003601f168201915b50505050508152602001600182018054612438906141f8565b80601f0160208091040260200160405190810160405280929190818152602001828054612464906141f8565b80156124b15780601f10612486576101008083540402835291602001916124b1565b820191906000526020600020905b81548152906001019060200180831161249457829003601f168201915b50505050508152602001600282015481525050908060040160009054906101000a900473ffffffffffffffffffffffffffffffffffffffff16908060050180546124fa906141f8565b80601f0160208091040260200160405190810160405280929190818152602001828054612526906141f8565b80156125735780601f1061254857610100808354040283529160200191612573565b820191906000526020600020905b81548152906001019060200180831161255657829003601f168201915b5050505050905084565b6060600060035467ffffffffffffffff81111561259d5761259c613a23565b5b6040519080825280602002602001820160405280156125d657816020015b6125c3612f92565b8152602001906001900390816125bb5790505b50905060005b600354811015612a5057600080600083815260200190815260200160002090508060080160009054906101000a900460ff16612a3c576000604051806040016040528084815260200183604051806101800160405290816000820160009054906101000a900473ffffffffffffffffffffffffffffffffffffffff1673ffffffffffffffffffffffffffffffffffffffff1673ffffffffffffffffffffffffffffffffffffffff168152602001600182018054612698906141f8565b80601f01602080910402602001604051908101604052809291908181526020018280546126c4906141f8565b80156127115780601f106126e657610100808354040283529160200191612711565b820191906000526020600020905b8154815290600101906020018083116126f457829003601f168201915b5050505050815260200160028201805461272a906141f8565b80601f0160208091040260200160405190810160405280929190818152602001828054612756906141f8565b80156127a35780601f10612778576101008083540402835291602001916127a3565b820191906000526020600020905b81548152906001019060200180831161278657829003601f168201915b505050505081526020016003820180546127bc906141f8565b80601f01602080910402602001604051908101604052809291908181526020018280546127e8906141f8565b80156128355780601f1061280a57610100808354040283529160200191612835565b820191906000526020600020905b81548152906001019060200180831161281857829003601f168201915b50505050508152602001600482015481526020016005820154815260200160068201548152602001600782015481526020016008820160009054906101000a900460ff16151515158152602001600982016040518060400160405290816000820160009054906101000a900473ffffffffffffffffffffffffffffffffffffffff1673ffffffffffffffffffffffffffffffffffffffff1673ffffffffffffffffffffffffffffffffffffffff1681526020016000820160149054906101000a900460ff1660ff1660ff16815250508152602001600a82016040518060400160405290816000820160009054906101000a900473ffffffffffffffffffffffffffffffffffffffff1673ffffffffffffffffffffffffffffffffffffffff1673ffffffffffffffffffffffffffffffffffffffff1681526020016000820160149054906101000a900460ff1660ff1660ff16815250508152602001600b82016040518060400160405290816000820160009054906101000a900473ffffffffffffffffffffffffffffffffffffffff1673ffffffffffffffffffffffffffffffffffffffff1673ffffffffffffffffffffffffffffffffffffffff1681526020016000820160149054906101000a900460ff1660ff1660ff168152505081525050815250905080848481518110612a2f57612a2e614229565b5b6020026020010181905250505b508080612a4890614287565b9150506125dc565b508091505090565b600080600083815260200190815260200160002090508060080160009054906101000a900460ff16612abf576040517f08c379a0000000000000000000000000000000000000000000000000000000008152600401612ab690614c2c565b60405180910390fd5b8060060154816007015414612b09576040517f08c379a0000000000000000000000000000000000000000000000000000000008152600401612b0090614c98565b60405180910390fd5b60008160090160000160149054906101000a900460ff1660ff168260040154612b329190614cb8565b905060008260090160000160149054906101000a900460ff1660ff168360040154612b5d9190614cb8565b905060008360090160000160149054906101000a900460ff1660ff168460040154612b889190614cb8565b90508360090160000160009054906101000a900473ffffffffffffffffffffffffffffffffffffffff1673ffffffffffffffffffffffffffffffffffffffff166108fc849081150290604051600060405180830381858888f19350505050158015612bf7573d6000803e3d6000fd5b5083600a0160000160009054906101000a900473ffffffffffffffffffffffffffffffffffffffff1673ffffffffffffffffffffffffffffffffffffffff166108fc839081150290604051600060405180830381858888f19350505050158015612c65573d6000803e3d6000fd5b5083600b0160000160009054906101000a900473ffffffffffffffffffffffffffffffffffffffff1673ffffffffffffffffffffffffffffffffffffffff166108fc829081150290604051600060405180830381858888f19350505050158015612cd3573d6000803e3d6000fd5b505050505050565b6000600354905090565b60008060008084815260200190815260200160002090508060080160009054906101000a900460ff1615612d4e576040517f08c379a0000000000000000000000000000000000000000000000000000000008152600401612d4590614d5e565b60405180910390fd5b42816005015411612d94576040517f08c379a0000000000000000000000000000000000000000000000000000000008152600401612d8b90614387565b60405180910390fd5b8060000160009054906101000a900473ffffffffffffffffffffffffffffffffffffffff1673ffffffffffffffffffffffffffffffffffffffff163373ffffffffffffffffffffffffffffffffffffffff1614612e26576040517f08c379a0000000000000000000000000000000000000000000000000000000008152600401612e1d90614df0565b60405180910390fd5b60018160080160006101000a81548160ff0219169083151502179055506001915050919050565b6000806000868152602001908152602001600020905060008160070154905060006002600088815260200190815260200160002060008381526020019081526020016000209050818160000181905550858160040160006101000a81548173ffffffffffffffffffffffffffffffffffffffff021916908373ffffffffffffffffffffffffffffffffffffffff16021790555084816001016000820151816000019080519060200190612f01929190612fb2565b506020820151816001019080519060200190612f1e929190612fb2565b506040820151816002015590505083816005019080519060200190612f44929190612fb2565b5050505050505050565b604051806080016040528060008152602001612f68613038565b8152602001600073ffffffffffffffffffffffffffffffffffffffff168152602001606081525090565b604051806040016040528060008152602001612fac613059565b81525090565b828054612fbe906141f8565b90600052602060002090601f016020900481019282612fe05760008555613027565b82601f10612ff957805160ff1916838001178555613027565b82800160010185558215613027579182015b8281111561302657825182559160200191906001019061300b565b5b50905061303491906130e4565b5090565b60405180606001604052806060815260200160608152602001600081525090565b604051806101800160405280600073ffffffffffffffffffffffffffffffffffffffff168152602001606081526020016060815260200160608152602001600081526020016000815260200160008152602001600081526020016000151581526020016130c4613101565b81526020016130d1613101565b81526020016130de613101565b81525090565b5b808211156130fd5760008160009055506001016130e5565b5090565b6040518060400160405280600073ffffffffffffffffffffffffffffffffffffffff168152602001600060ff1681525090565b6000819050919050565b61314781613134565b82525050565b6000602082019050613162600083018461313e565b92915050565b6000604051905090565b600080fd5b600080fd5b61318581613134565b811461319057600080fd5b50565b6000813590506131a28161317c565b92915050565b600080604083850312156131bf576131be613172565b5b60006131cd85828601613193565b92505060206131de85828601613193565b9150509250929050565b600081519050919050565b600082825260208201905092915050565b60005b83811015613222578082015181840152602081019050613207565b83811115613231576000848401525b50505050565b6000601f19601f8301169050919050565b6000613253826131e8565b61325d81856131f3565b935061326d818560208601613204565b61327681613237565b840191505092915050565b61328a81613134565b82525050565b600060608301600083015184820360008601526132ad8282613248565b915050602083015184820360208601526132c78282613248565b91505060408301516132dc6040860182613281565b508091505092915050565b600063ffffffff82169050919050565b613300816132e7565b82525050565b600060808201905061331b600083018761313e565b818103602083015261332d8186613290565b905061333c60408301856132f7565b61334960608301846132f7565b95945050505050565b60006020828403121561336857613367613172565b5b600061337684828501613193565b91505092915050565b600073ffffffffffffffffffffffffffffffffffffffff82169050919050565b60006133aa8261337f565b9050919050565b6133ba8161339f565b82525050565b600082825260208201905092915050565b60006133dc826131e8565b6133e681856133c0565b93506133f6818560208601613204565b6133ff81613237565b840191505092915050565b60008115159050919050565b61341f8161340a565b82525050565b60006134308261337f565b9050919050565b61344081613425565b82525050565b600060ff82169050919050565b61345c81613446565b82525050565b6040820160008201516134786000850182613437565b50602082015161348b6020850182613453565b50505050565b60006101e0820190506134a7600083018f6133b1565b81810360208301526134b9818e6133d1565b905081810360408301526134cd818d6133d1565b905081810360608301526134e1818c6133d1565b90506134f0608083018b61313e565b6134fd60a083018a61313e565b61350a60c083018961313e565b61351760e083018861313e565b613525610100830187613416565b613533610120830186613462565b613541610160830185613462565b61354f6101a0830184613462565b9d9c50505050505050505050505050565b600081519050919050565b600082825260208201905092915050565b6000819050602082019050919050565b600060608301600083015184820360008601526135a98282613248565b915050602083015184820360208601526135c38282613248565b91505060408301516135d86040860182613281565b508091505092915050565b6135ec816132e7565b82525050565b600060808301600083015161360a6000860182613281565b5060208301518482036020860152613622828261358c565b915050604083015161363760408601826135e3565b50606083015161364a60608601826135e3565b508091505092915050565b600061366183836135f2565b905092915050565b6000602082019050919050565b600061368182613560565b61368b818561356b565b93508360208202850161369d8561357c565b8060005b858110156136d957848403895281516136ba8582613655565b94506136c583613669565b925060208a019950506001810190506136a1565b50829750879550505050505092915050565b600060208201905081810360008301526137058184613676565b905092915050565b600081519050919050565b600082825260208201905092915050565b6000819050602082019050919050565b6137428161339f565b82525050565b60006080830160008301516137606000860182613281565b5060208301518482036020860152613778828261358c565b915050604083015161378d6040860182613739565b50606083015184820360608601526137a58282613248565b9150508091505092915050565b60006137be8383613748565b905092915050565b6000602082019050919050565b60006137de8261370d565b6137e88185613718565b9350836020820285016137fa85613729565b8060005b85811015613836578484038952815161381785826137b2565b9450613822836137c6565b925060208a019950506001810190506137fe565b50829750879550505050505092915050565b6000602082019050818103600083015261386281846137d3565b905092915050565b6138738161340a565b82525050565b60408201600082015161388f6000850182613437565b5060208201516138a26020850182613453565b50505050565b60006101e0830160008301516138c16000860182613739565b50602083015184820360208601526138d98282613248565b915050604083015184820360408601526138f38282613248565b9150506060830151848203606086015261390d8282613248565b91505060808301516139226080860182613281565b5060a083015161393560a0860182613281565b5060c083015161394860c0860182613281565b5060e083015161395b60e0860182613281565b5061010083015161397061010086018261386a565b50610120830151613985610120860182613879565b5061014083015161399a610160860182613879565b506101608301516139af6101a0860182613879565b508091505092915050565b60006040830160008301516139d26000860182613281565b50602083015184820360208601526139ea82826138a8565b9150508091505092915050565b60006020820190508181036000830152613a1181846139ba565b905092915050565b600080fd5b600080fd5b7f4e487b7100000000000000000000000000000000000000000000000000000000600052604160045260246000fd5b613a5b82613237565b810181811067ffffffffffffffff82111715613a7a57613a79613a23565b5b80604052505050565b6000613a8d613168565b9050613a998282613a52565b919050565b600067ffffffffffffffff821115613ab957613ab8613a23565b5b613ac282613237565b9050602081019050919050565b82818337600083830152505050565b6000613af1613aec84613a9e565b613a83565b905082815260208101848484011115613b0d57613b0c613a1e565b5b613b18848285613acf565b509392505050565b600082601f830112613b3557613b34613a19565b5b8135613b45848260208601613ade565b91505092915050565b600080600060608486031215613b6757613b66613172565b5b6000613b7586828701613193565b9350506020613b8686828701613193565b925050604084013567ffffffffffffffff811115613ba757613ba6613177565b5b613bb386828701613b20565b9150509250925092565b60006020820190508181036000830152613bd781846133d1565b905092915050565b613be88161339f565b8114613bf357600080fd5b50565b600081359050613c0581613bdf565b92915050565b613c14816132e7565b8114613c1f57600080fd5b50565b600081359050613c3181613c0b565b92915050565b600080fd5b600080fd5b613c4a81613425565b8114613c5557600080fd5b50565b600081359050613c6781613c41565b92915050565b613c7681613446565b8114613c8157600080fd5b50565b600081359050613c9381613c6d565b92915050565b600060408284031215613caf57613cae613c37565b5b613cb96040613a83565b90506000613cc984828501613c58565b6000830152506020613cdd84828501613c84565b60208301525092915050565b600067ffffffffffffffff821115613d0457613d03613a23565b5b602082029050602081019050919050565b600080fd5b600060608284031215613d3057613d2f613c37565b5b613d3a6060613a83565b9050600082013567ffffffffffffffff811115613d5a57613d59613c3c565b5b613d6684828501613b20565b600083015250602082013567ffffffffffffffff811115613d8a57613d89613c3c565b5b613d9684828501613b20565b6020830152506040613daa84828501613193565b60408301525092915050565b600060808284031215613dcc57613dcb613c37565b5b613dd66080613a83565b90506000613de684828501613193565b600083015250602082013567ffffffffffffffff811115613e0a57613e09613c3c565b5b613e1684828501613d1a565b6020830152506040613e2a84828501613c22565b6040830152506060613e3e84828501613c22565b60608301525092915050565b6000613e5d613e5884613ce9565b613a83565b90508083825260208201905060208402830185811115613e8057613e7f613d15565b5b835b81811015613ec757803567ffffffffffffffff811115613ea557613ea4613a19565b5b808601613eb28982613db6565b85526020850194505050602081019050613e82565b5050509392505050565b600082601f830112613ee657613ee5613a19565b5b8135613ef6848260208601613e4a565b91505092915050565b60008060008060008060008060006101808a8c031215613f2257613f21613172565b5b6000613f308c828d01613bf6565b99505060208a013567ffffffffffffffff811115613f5157613f50613177565b5b613f5d8c828d01613b20565b98505060408a013567ffffffffffffffff811115613f7e57613f7d613177565b5b613f8a8c828d01613b20565b97505060608a013567ffffffffffffffff811115613fab57613faa613177565b5b613fb78c828d01613b20565b9650506080613fc88c828d01613c22565b95505060a0613fd98c828d01613c99565b94505060e0613fea8c828d01613c99565b935050610120613ffc8c828d01613c99565b9250506101608a013567ffffffffffffffff81111561401e5761401d613177565b5b61402a8c828d01613ed1565b9150509295985092959850929598565b600081519050919050565b600082825260208201905092915050565b6000819050602082019050919050565b600060408301600083015161407e6000860182613281565b506020830151848203602086015261409682826138a8565b9150508091505092915050565b60006140af8383614066565b905092915050565b6000602082019050919050565b60006140cf8261403a565b6140d98185614045565b9350836020820285016140eb85614056565b8060005b85811015614127578484038952815161410885826140a3565b9450614113836140b7565b925060208a019950506001810190506140ef565b50829750879550505050505092915050565b6000602082019050818103600083015261415381846140c4565b905092915050565b6000608082019050614170600083018761313e565b81810360208301526141828186613290565b905061419160408301856133b1565b81810360608301526141a381846133d1565b905095945050505050565b60006020820190506141c36000830184613416565b92915050565b7f4e487b7100000000000000000000000000000000000000000000000000000000600052602260045260246000fd5b6000600282049050600182168061421057607f821691505b602082108103614223576142226141c9565b5b50919050565b7f4e487b7100000000000000000000000000000000000000000000000000000000600052603260045260246000fd5b7f4e487b7100000000000000000000000000000000000000000000000000000000600052601160045260246000fd5b600061429282613134565b91507fffffffffffffffffffffffffffffffffffffffffffffffffffffffffffffffff82036142c4576142c3614258565b5b600182019050919050565b7f546869732063616d706169676e206861732073746f7070656400000000000000600082015250565b60006143056019836133c0565b9150614310826142cf565b602082019050919050565b60006020820190508181036000830152614334816142f8565b9050919050565b7f546869732063616d706169676e206973206f7665720000000000000000000000600082015250565b60006143716015836133c0565b915061437c8261433b565b602082019050919050565b600060208201905081810360008301526143a081614364565b9050919050565b7f54686520626f7820494420697320696e76616c69640000000000000000000000600082015250565b60006143dd6015836133c0565b91506143e8826143a7565b602082019050919050565b6000602082019050818103600083015261440c816143d0565b9050919050565b7f416c6c20626f786573206f66207468697320747970652068617665206265656e60008201527f20736f6c64000000000000000000000000000000000000000000000000000000602082015250565b600061446f6025836133c0565b915061447a82614413565b604082019050919050565b6000602082019050818103600083015261449e81614462565b9050919050565b7f476976656e20616d6f756e742069732062656c6f7720626f7820707269636500600082015250565b60006144db601f836133c0565b91506144e6826144a5565b602082019050919050565b6000602082019050818103600083015261450a816144ce565b9050919050565b600061451c826132e7565b9150614527836132e7565b92508282101561453a57614539614258565b5b828203905092915050565b600061455082613134565b915061455b83613134565b9250827fffffffffffffffffffffffffffffffffffffffffffffffffffffffffffffffff038211156145905761458f614258565b5b828201905092915050565b7f4475726174696f6e2063616e277420626520686967686572207468616e20362060008201527f7765656b73000000000000000000000000000000000000000000000000000000602082015250565b60006145f76025836133c0565b91506146028261459b565b604082019050919050565b60006020820190508181036000830152614626816145ea565b9050919050565b7f446561646c696e65206d75737420626520696e20746865206675747572650000600082015250565b6000614663601e836133c0565b915061466e8261462d565b602082019050919050565b6000602082019050818103600083015261469281614656565b9050919050565b7f4661726d6572207368617265206d75737420626520686967686572207468616e60008201527f20302520616e642063616e277420626520686967686572207468616e2031303060208201527f2500000000000000000000000000000000000000000000000000000000000000604082015250565b600061471b6041836133c0565b915061472682614699565b606082019050919050565b6000602082019050818103600083015261474a8161470e565b9050919050565b7f42757463686572207368617265206d757374206265206869676865722074686160008201527f6e20302520616e642063616e277420626520686967686572207468616e20313060208201527f3025000000000000000000000000000000000000000000000000000000000000604082015250565b60006147d36042836133c0565b91506147de82614751565b606082019050919050565b60006020820190508181036000830152614802816147c6565b9050919050565b7f44656c69766572792053657276696365207368617265206d757374206265206860008201527f6967686572207468616e20302520616e642063616e277420626520686967686560208201527f72207468616e2031303025000000000000000000000000000000000000000000604082015250565b600061488b604b836133c0565b915061489682614809565b606082019050919050565b600060208201905081810360008301526148ba8161487e565b9050919050565b60006148cc82613446565b91506148d783613446565b92508260ff038211156148ed576148ec614258565b5b828201905092915050565b7f54686520746f74616c207368617265206f6620616c6c207374616b65686f6c6460008201527f657273206d75737420626520657175616c20746f203130302500000000000000602082015250565b60006149546039836133c0565b915061495f826148f8565b604082019050919050565b6000602082019050818103600083015261498381614947565b9050919050565b7f5468657265206d757374206265206174206c65617374206f6e6520626f78207460008201527f6f2073656c6c0000000000000000000000000000000000000000000000000000602082015250565b60006149e66026836133c0565b91506149f18261498a565b604082019050919050565b60006020820190508181036000830152614a15816149d9565b9050919050565b7f496e697469616c6c7920746f74616c206e756d626572206f6620626f7865732060008201527f616e6420617661696c61626c65206d75737420626520657175616c0000000000602082015250565b6000614a78603b836133c0565b9150614a8382614a1c565b604082019050919050565b60006020820190508181036000830152614aa781614a6b565b9050919050565b7f4120626f7820726571756972657320612070726963652068696768657220746860008201527f616e203000000000000000000000000000000000000000000000000000000000602082015250565b6000614b0a6024836133c0565b9150614b1582614aae565b604082019050919050565b60006020820190508181036000830152614b3981614afd565b9050919050565b7f4174206c65617374206f6e6520626f7820697320726571756972656400000000600082015250565b6000614b76601c836133c0565b9150614b8182614b40565b602082019050919050565b60006020820190508181036000830152614ba581614b69565b9050919050565b6000614bb782613134565b9150614bc283613134565b925082821015614bd557614bd4614258565b5b828203905092915050565b7f5468652063616d706169676e206d7573742062652066696e6973686564000000600082015250565b6000614c16601d836133c0565b9150614c2182614be0565b602082019050919050565b60006020820190508181036000830152614c4581614c09565b9050919050565b7f54686572652063616e277420626520616e7920626f786573206c656674000000600082015250565b6000614c82601d836133c0565b9150614c8d82614c4c565b602082019050919050565b60006020820190508181036000830152614cb181614c75565b9050919050565b6000614cc382613134565b9150614cce83613134565b9250817fffffffffffffffffffffffffffffffffffffffffffffffffffffffffffffffff0483118215151615614d0757614d06614258565b5b828202905092915050565b7f43616d706169676e20616c72656164792073746f707065640000000000000000600082015250565b6000614d486018836133c0565b9150614d5382614d12565b602082019050919050565b60006020820190508181036000830152614d7781614d3b565b9050919050565b7f4f6e6c7920746865206f776e65722063616e2073746f7020612063616d70616960008201527f676e000000000000000000000000000000000000000000000000000000000000602082015250565b6000614dda6022836133c0565b9150614de582614d7e565b604082019050919050565b60006020820190508181036000830152614e0981614dcd565b905091905056fea26469706673582212200034fea78d5adcf4c64354b262bb5f73442b42d682a9a6f7fc223b6c8af3fc1f64736f6c634300080d0033",
  "immutableReferences": {},
  "source": "// SPDX-License-Identifier: AGPL\npragma solidity ^0.8.13;\n\ncontract Crowdfunding {\n\n    struct Box {\n        /// Title of a box\n        string title;\n        /// Description of a box\n        string description;\n        /// The price of this box in wei\n        uint256 price;\n    }\n\n    struct BoxOffer {\n        /// Id of the Offer\n        uint256 id;\n        /// The box to sell\n        Box box;\n        /// Total number of boxes\n        uint32 total;\n        /// Number of available boxes\n        uint32 available;\n    }\n\n    struct BoxSellRef {\n      /// The id of the specific sell\n      uint256 id;\n      /// The box\n      Box box;\n      /// Address of the owner\n      address owner;\n      /// Physical address of the box owner\n      string physAddress;\n    }\n\n    struct Stakeholder {\n      /// Address of the stakeholder\n      address payable owner;\n      /// Share in %\n      uint8 share;\n    }\n\n    struct Campaign {\n        /// Owner of this campaign\n        address owner;\n        /// Owners public key\n        string ownerPublicKey;\n        /// The campaigns title\n        string title;\n        /// The campaigns description\n        string description;\n        /// Total amount collected in eth\n        uint256 collectedAmount;\n        /// The deadline of this campaign\n        uint256 deadline;\n        /// Total number of boxes\n        uint256 totalBoxes;\n        /// Number of sold boxes\n        uint256 boxesSold;\n        /// Is it already stopped\n        bool isStopped;\n        /// Responsible farmer\n        Stakeholder farmer;\n        /// Resonsible butcher\n        Stakeholder butcher;\n        /// Responsible delivery service\n        Stakeholder delivery;\n    }\n\n    struct CampaignRef {\n      /// Campaign id\n      uint256 id;\n      /// reference to the campaign\n      Campaign campaign;\n    }\n\n    // all campaigns\n    mapping(uint256 => Campaign) public campaigns;\n    // available boxes for specific campaigns\n    mapping(uint256 => BoxOffer[]) public boxOffers;\n    // sold boxes for specific campaigns (campginId => sellId => BoxSellRef)\n    mapping(uint256 => mapping(uint256 => BoxSellRef)) public soldBoxesCampaign;\n    // sold boxes for specific addresses\n    //mapping(address => mapping(uint => BoxSellRef[])) public soldBoxesAddress;\n\n    uint256 public numberOfCampaigns = 0;\n\n    /**\n     * Adds a buyer\n     */\n    function addBuyer(uint256 _campaignId, address _buyer, Box memory _box, string memory _physAddress) private {\n      Campaign storage campaign = campaigns[_campaignId];\n      // Make sure boxesSold has not been increased yet\n      uint256 boxId = campaign.boxesSold;\n\n      BoxSellRef storage soldBox = soldBoxesCampaign[_campaignId][boxId];\n      soldBox.id = boxId;\n      soldBox.owner = _buyer;\n      soldBox.box = _box;\n      soldBox.physAddress = _physAddress;\n    }\n\n    /**\n     * Creates a new campaign\n     */\n    function createCampaign(\n        address _owner,\n        string memory _ownerPublicKey,\n        string memory _title,\n        string memory _description,\n        uint32 _duration,\n        Stakeholder memory _farmer,\n        Stakeholder memory _butcher,\n        Stakeholder memory _delivery,\n        BoxOffer[] memory _boxes\n    ) public returns (uint256) {\n        // check crowdfunding duration\n        require(_duration <= 6 weeks, \"Duration can't be higher than 6 weeks\");\n\n        // create deadline by adding the duration to the current timestamp\n        uint256 current = block.timestamp;\n        uint256 deadline = current + _duration;\n\n        // deadline can't be in the past\n        require(\n            deadline > current,\n            \"Deadline must be in the future\"\n        );\n\n        // validate stakeholders\n        require(_farmer.share > 0 && _farmer.share <= 100, \"Farmer share must be higher than 0% and can't be higher than 100%\");\n        require(_butcher.share > 0 && _butcher.share <= 100, \"Butcher share must be higher than 0% and can't be higher than 100%\");\n        require(_delivery.share > 0 && _delivery.share <= 100, \"Delivery Service share must be higher than 0% and can't be higher than 100%\");\n        uint8 totalShare = _farmer.share + _butcher.share + _delivery.share;\n        require(totalShare == 100, \"The total share of all stakeholders must be equal to 100%\");\n\n        // validate boxes\n        uint256 numberOfBoxes = 0;\n        for (uint256 index = 0; index < _boxes.length; index++) {\n            BoxOffer memory offer = _boxes[index];\n            require(offer.total > 0, \"There must be at least one box to sell\");\n            require(offer.total == offer.available, \"Initially total number of boxes and available must be equal\");\n            numberOfBoxes += offer.total;\n\n            Box memory box = offer.box;\n            // A box requires a price\n            require(\n                box.price > 0,\n                \"A box requires a price higher than 0\"\n            );\n        }\n\n        require(numberOfBoxes > 0, \"At least one box is required\");\n\n        // Create campaign\n        Campaign storage campaign = campaigns[numberOfCampaigns];\n        campaign.owner = _owner;\n        campaign.ownerPublicKey = _ownerPublicKey;\n        campaign.title = _title;\n        campaign.description = _description;\n        campaign.collectedAmount = 0;\n        campaign.deadline = deadline;\n        campaign.isStopped = false;\n        campaign.totalBoxes = numberOfBoxes;\n        campaign.boxesSold = 0;\n        campaign.farmer = _farmer;\n        campaign.butcher = _butcher;\n        campaign.delivery = _delivery;\n\n        // add boxes\n        BoxOffer[] storage _offers = boxOffers[numberOfCampaigns];\n        for (uint256 index = 0; index < _boxes.length; index++) {\n            BoxOffer memory offer = _boxes[index];\n            _offers.push(offer);\n        }\n\n        // increase total num of campaigns\n        numberOfCampaigns++;\n\n        // return the most recent campaign index\n        return numberOfCampaigns - 1;\n    }\n\n    /**\n    * Returns the total number of campaigns\n    */\n    function getNumberOfCampaigns() public view returns (uint256) {\n      return numberOfCampaigns;\n    }\n\n    /**\n     * Returns the public key of a campaign\n     */\n    function getPublicKey(uint256 _campaignId) public view returns (string memory) {\n      Campaign storage campaign = campaigns[_campaignId];\n      return campaign.ownerPublicKey;\n    }\n\n    /**\n     * Removes a campaign\n     */\n    function stopCampaign(uint256 _campaignId) public returns (bool) {\n      Campaign storage campaign = campaigns[_campaignId];\n      require(!campaign.isStopped, \"Campaign already stopped\");\n      require(campaign.deadline > block.timestamp, \"This campaign is over\");\n      require(msg.sender == campaign.owner, \"Only the owner can stop a campaign\");\n\n      campaign.isStopped = true;\n\n      return true;\n    }\n\n    /**\n     * Buys a box\n     */\n    function buyBox(uint256 _campaignId, uint256 _boxId, string memory _physAddress) public payable {\n        // get campaign ref\n        Campaign storage campaign = campaigns[_campaignId];\n\n        // check if this is an ongoing campaign\n        require(!campaign.isStopped, \"This campaign has stopped\");\n        require(campaign.deadline > block.timestamp, \"This campaign is over\");\n\n        // check if this campaign still has available boxes for the requested kind\n        BoxOffer storage boxOffer = boxOffers[_campaignId][_boxId];\n        require(boxOffer.id == _boxId, \"The box ID is invalid\");\n        require(boxOffer.available > 0, \"All boxes of this type have been sold\");\n\n        // check if the offer is valid\n        Box memory box = boxOffer.box;\n        uint256 amount = msg.value;\n        require(amount >= box.price, \"Given amount is below box price\");\n\n        // Add buyer\n        addBuyer(_campaignId, msg.sender, box, _physAddress);\n\n        // Updates available boxes by one\n        boxOffer.available-=1;\n        campaign.boxesSold+=1;\n        // Add to total collected amount\n        campaign.collectedAmount+=amount;\n\n        if (campaign.boxesSold == campaign.totalBoxes) {\n          // Mark campaign as stopped\n          campaign.isStopped = true;\n          // TODO Start Supply Chain\n        }\n    }\n\n    /**\n     * Returns a specific campaign\n     */\n    function getCampaign(uint256 _campaignId) public view returns (CampaignRef memory) {\n        Campaign storage campaign = campaigns[_campaignId];\n        CampaignRef memory ref = CampaignRef({ id: _campaignId, campaign: campaign });\n        return ref;\n    }\n\n    /**\n     * Returns all campaigns\n     */\n    function getCampaigns() public view returns (CampaignRef[] memory) {\n        CampaignRef[] memory allCampaigns = new CampaignRef[](numberOfCampaigns);\n\n        for (uint256 index = 0; index < numberOfCampaigns; index++) {\n            Campaign storage campaign = campaigns[index];\n            CampaignRef memory ref = CampaignRef({ id: index, campaign: campaign });\n            allCampaigns[index] = ref;\n        }\n\n        return allCampaigns;\n    }\n\n    /**\n     * Returns all ongoing campaigns\n     */\n    function getOngoingCampaigns() public view returns (CampaignRef[] memory) {\n        CampaignRef[] memory allCampaigns = new CampaignRef[](numberOfCampaigns);\n\n        for (uint256 index = 0; index < numberOfCampaigns; index++) {\n            Campaign storage campaign = campaigns[index];\n            if (!campaign.isStopped) {\n              CampaignRef memory ref = CampaignRef({ id: index, campaign: campaign });\n              allCampaigns[index] = ref;\n            }\n        }\n\n        return allCampaigns;\n    }\n\n    /**\n     * Returns all boxes of a specific campaign\n     */\n    function getBoxes(uint256 _campaignId) public view returns (BoxOffer[] memory) {\n        BoxOffer[] storage boxOffer = boxOffers[_campaignId];\n        return boxOffer;\n    }\n\n    /**\n     * Returns a list of all sold boxes for a specific campaign\n     */\n    function getSoldBoxes(uint256 _campaignId) public view returns(BoxSellRef[] memory) {\n      Campaign storage campaign = campaigns[_campaignId];\n      BoxSellRef[] memory boxSells = new BoxSellRef[](campaign.boxesSold);\n\n      for (uint256 index = 0; index < boxSells.length; index++) {\n        boxSells[index] = soldBoxesCampaign[_campaignId][index];\n      }\n\n      return boxSells;\n    }\n\n    /**\n     * Pay-out all stakeholders of the campaign\n     */\n    function payOut(uint256 _campaignId) public {\n      Campaign storage campaign = campaigns[_campaignId];\n      require(campaign.isStopped, \"The campaign must be finished\");\n      require(campaign.boxesSold == campaign.totalBoxes, \"There can't be any boxes left\");\n\n      // TODO Check if supply chain has been completed\n      // e.g. require(campaign.supplyChain.isCompleted);\n\n      // Generate shares\n      uint256 farmerShare = campaign.collectedAmount * campaign.farmer.share;\n      uint256 butcherShare = campaign.collectedAmount * campaign.farmer.share;\n      uint256 deliveryShare = campaign.collectedAmount * campaign.farmer.share;\n\n      // payout stakeholders\n      payable(campaign.farmer.owner).transfer(farmerShare);\n      payable(campaign.butcher.owner).transfer(butcherShare);\n      payable(campaign.delivery.owner).transfer(deliveryShare);\n    }\n\n}\n",
  "sourcePath": "/workspaces/146157_Blockchain/smart_contracts/contracts/Crowdfunding.sol",
  "compiler": {
    "name": "solc",
    "version": "0.8.13+commit.abaa5c0e.Emscripten.clang"
  },
  "schemaVersion": "3.4.14",
  "updatedAt": "2023-07-24T19:24:08.526Z",
  "networkType": "ethereum",
  "devdoc": {
    "kind": "dev",
    "methods": {},
    "version": 1
  },
  "userdoc": {
    "kind": "user",
    "methods": {
      "buyBox(uint256,uint256,string)": {
        "notice": "Buys a box"
      },
      "createCampaign(address,string,string,string,uint32,(address,uint8),(address,uint8),(address,uint8),(uint256,(string,string,uint256),uint32,uint32)[])": {
        "notice": "Creates a new campaign"
      },
      "getBoxes(uint256)": {
        "notice": "Returns all boxes of a specific campaign"
      },
      "getCampaign(uint256)": {
        "notice": "Returns a specific campaign"
      },
      "getCampaigns()": {
        "notice": "Returns all campaigns"
      },
      "getNumberOfCampaigns()": {
        "notice": "Returns the total number of campaigns"
      },
      "getOngoingCampaigns()": {
        "notice": "Returns all ongoing campaigns"
      },
      "getPublicKey(uint256)": {
        "notice": "Returns the public key of a campaign"
      },
      "getSoldBoxes(uint256)": {
        "notice": "Returns a list of all sold boxes for a specific campaign"
      },
      "payOut(uint256)": {
        "notice": "Pay-out all stakeholders of the campaign"
      },
      "stopCampaign(uint256)": {
        "notice": "Removes a campaign"
      }
    },
    "version": 1
  }
}