{
  "contractName": "SupplyChains",
  "abi": [
    {
      "inputs": [],
      "name": "crowdfundingAddress",
      "outputs": [
        {
          "internalType": "address",
          "name": "",
          "type": "address"
        }
      ],
      "stateMutability": "view",
      "type": "function"
    },
    {
      "inputs": [
        {
          "internalType": "address",
          "name": "_crowdfundingAddress",
          "type": "address"
        }
      ],
      "name": "setCrowdfundingAddress",
      "outputs": [],
      "stateMutability": "nonpayable",
      "type": "function"
    },
    {
      "inputs": [
        {
          "components": [
            {
              "internalType": "uint256",
              "name": "id",
              "type": "uint256"
            },
            {
              "components": [
                {
                  "internalType": "string",
                  "name": "title",
                  "type": "string"
                },
                {
                  "internalType": "string",
                  "name": "description",
                  "type": "string"
                },
                {
                  "internalType": "uint256",
                  "name": "deadline",
                  "type": "uint256"
                }
              ],
              "internalType": "struct CampaignInfo",
              "name": "info",
              "type": "tuple"
            },
            {
              "components": [
                {
                  "internalType": "uint256",
                  "name": "collectedAmount",
                  "type": "uint256"
                },
                {
                  "internalType": "uint256",
                  "name": "createdAt",
                  "type": "uint256"
                },
                {
                  "internalType": "uint16",
                  "name": "totalBoxes",
                  "type": "uint16"
                },
                {
                  "internalType": "uint16",
                  "name": "boxesSold",
                  "type": "uint16"
                },
                {
                  "internalType": "uint8",
                  "name": "totalBoxTypes",
                  "type": "uint8"
                },
                {
                  "internalType": "bool",
                  "name": "isStopped",
                  "type": "bool"
                }
              ],
              "internalType": "struct CampaignMeta",
              "name": "meta",
              "type": "tuple"
            },
            {
              "components": [
                {
                  "internalType": "address",
                  "name": "owner",
                  "type": "address"
                },
                {
                  "internalType": "string",
                  "name": "ownerPublicKey",
                  "type": "string"
                }
              ],
              "internalType": "struct CampaignOwner",
              "name": "owner",
              "type": "tuple"
            },
            {
              "components": [
                {
                  "internalType": "string",
                  "name": "earTag",
                  "type": "string"
                },
                {
                  "internalType": "string",
                  "name": "name",
                  "type": "string"
                },
                {
                  "internalType": "string",
                  "name": "farm",
                  "type": "string"
                },
                {
                  "internalType": "uint8",
                  "name": "age",
                  "type": "uint8"
                }
              ],
              "internalType": "struct CampaignAnimalData",
              "name": "animal",
              "type": "tuple"
            },
            {
              "components": [
                {
                  "components": [
                    {
                      "internalType": "address payable",
                      "name": "owner",
                      "type": "address"
                    },
                    {
                      "internalType": "uint8",
                      "name": "share",
                      "type": "uint8"
                    },
                    {
                      "internalType": "string",
                      "name": "info",
                      "type": "string"
                    }
                  ],
                  "internalType": "struct Stakeholder",
                  "name": "farmer",
                  "type": "tuple"
                },
                {
                  "components": [
                    {
                      "internalType": "address payable",
                      "name": "owner",
                      "type": "address"
                    },
                    {
                      "internalType": "uint8",
                      "name": "share",
                      "type": "uint8"
                    },
                    {
                      "internalType": "string",
                      "name": "info",
                      "type": "string"
                    }
                  ],
                  "internalType": "struct Stakeholder",
                  "name": "butcher",
                  "type": "tuple"
                },
                {
                  "components": [
                    {
                      "internalType": "address payable",
                      "name": "owner",
                      "type": "address"
                    },
                    {
                      "internalType": "uint8",
                      "name": "share",
                      "type": "uint8"
                    },
                    {
                      "internalType": "string",
                      "name": "info",
                      "type": "string"
                    }
                  ],
                  "internalType": "struct Stakeholder",
                  "name": "delivery",
                  "type": "tuple"
                }
              ],
              "internalType": "struct StakeholderList",
              "name": "stakeholders",
              "type": "tuple"
            }
          ],
          "internalType": "struct Campaign",
          "name": "_campaign",
          "type": "tuple"
        }
      ],
      "name": "createSupplyChain",
      "outputs": [],
      "stateMutability": "nonpayable",
      "type": "function"
    },
    {
      "inputs": [
        {
          "internalType": "uint256",
          "name": "_campaignId",
          "type": "uint256"
        },
        {
          "components": [
            {
              "internalType": "uint16",
              "name": "id",
              "type": "uint16"
            },
            {
              "internalType": "uint8",
              "name": "boxId",
              "type": "uint8"
            },
            {
              "internalType": "address",
              "name": "owner",
              "type": "address"
            },
            {
              "internalType": "uint256",
              "name": "boughtAt",
              "type": "uint256"
            },
            {
              "internalType": "string",
              "name": "physAddress",
              "type": "string"
            }
          ],
          "internalType": "struct BoxSellRef",
          "name": "_box",
          "type": "tuple"
        }
      ],
      "name": "addBox",
      "outputs": [],
      "stateMutability": "nonpayable",
      "type": "function"
    },
    {
      "inputs": [
        {
          "internalType": "uint256",
          "name": "_campaignRef",
          "type": "uint256"
        }
      ],
      "name": "startSupplyChain",
      "outputs": [],
      "stateMutability": "nonpayable",
      "type": "function"
    },
    {
      "inputs": [],
      "name": "getSupplyChains",
      "outputs": [
        {
          "components": [
            {
              "internalType": "uint256",
              "name": "campaignRef",
              "type": "uint256"
            },
            {
              "internalType": "bool",
              "name": "isStarted",
              "type": "bool"
            },
            {
              "components": [
                {
                  "internalType": "bool",
                  "name": "farmer",
                  "type": "bool"
                },
                {
                  "internalType": "bool",
                  "name": "butcher",
                  "type": "bool"
                }
              ],
              "internalType": "struct AnimalDeliverStatus",
              "name": "isAnimalDelivered",
              "type": "tuple"
            },
            {
              "components": [
                {
                  "internalType": "bool",
                  "name": "butcher",
                  "type": "bool"
                }
              ],
              "internalType": "struct AnimalProcessStatus",
              "name": "isAnimalProcessed",
              "type": "tuple"
            },
            {
              "components": [
                {
                  "internalType": "bool",
                  "name": "butcher",
                  "type": "bool"
                }
              ],
              "internalType": "struct BoxProcessStatus",
              "name": "areBoxesProcessed",
              "type": "tuple"
            },
            {
              "components": [
                {
                  "internalType": "bool",
                  "name": "butcher",
                  "type": "bool"
                },
                {
                  "internalType": "bool",
                  "name": "delivery",
                  "type": "bool"
                }
              ],
              "internalType": "struct BoxDistributionStatus",
              "name": "areBoxesDistributed",
              "type": "tuple"
            },
            {
              "components": [
                {
                  "internalType": "bool",
                  "name": "delivery",
                  "type": "bool"
                }
              ],
              "internalType": "struct BoxDeliverStatus",
              "name": "areBoxesDelivered",
              "type": "tuple"
            },
            {
              "internalType": "uint16",
              "name": "totalBoxes",
              "type": "uint16"
            },
            {
              "components": [
                {
                  "internalType": "uint16",
                  "name": "butcher",
                  "type": "uint16"
                }
              ],
              "internalType": "struct ProcessedBoxesCounter",
              "name": "processedBoxes",
              "type": "tuple"
            },
            {
              "components": [
                {
                  "internalType": "uint16",
                  "name": "butcher",
                  "type": "uint16"
                },
                {
                  "internalType": "uint16",
                  "name": "delivery",
                  "type": "uint16"
                }
              ],
              "internalType": "struct DistributedBoxesCounter",
              "name": "distributedBoxes",
              "type": "tuple"
            },
            {
              "components": [
                {
                  "internalType": "uint16",
                  "name": "delivery",
                  "type": "uint16"
                }
              ],
              "internalType": "struct DeliveredBoxesCounter",
              "name": "deliveredBoxes",
              "type": "tuple"
            },
            {
              "components": [
                {
                  "components": [
                    {
                      "internalType": "address payable",
                      "name": "owner",
                      "type": "address"
                    },
                    {
                      "internalType": "uint8",
                      "name": "share",
                      "type": "uint8"
                    },
                    {
                      "internalType": "string",
                      "name": "info",
                      "type": "string"
                    }
                  ],
                  "internalType": "struct Stakeholder",
                  "name": "farmer",
                  "type": "tuple"
                },
                {
                  "components": [
                    {
                      "internalType": "address payable",
                      "name": "owner",
                      "type": "address"
                    },
                    {
                      "internalType": "uint8",
                      "name": "share",
                      "type": "uint8"
                    },
                    {
                      "internalType": "string",
                      "name": "info",
                      "type": "string"
                    }
                  ],
                  "internalType": "struct Stakeholder",
                  "name": "butcher",
                  "type": "tuple"
                },
                {
                  "components": [
                    {
                      "internalType": "address payable",
                      "name": "owner",
                      "type": "address"
                    },
                    {
                      "internalType": "uint8",
                      "name": "share",
                      "type": "uint8"
                    },
                    {
                      "internalType": "string",
                      "name": "info",
                      "type": "string"
                    }
                  ],
                  "internalType": "struct Stakeholder",
                  "name": "delivery",
                  "type": "tuple"
                }
              ],
              "internalType": "struct StakeholderList",
              "name": "stakeholders",
              "type": "tuple"
            }
          ],
          "internalType": "struct SupplyChain[]",
          "name": "",
          "type": "tuple[]"
        }
      ],
      "stateMutability": "view",
      "type": "function"
    },
    {
      "inputs": [
        {
          "internalType": "uint256",
          "name": "_campaignId",
          "type": "uint256"
        }
      ],
      "name": "getBoxesStatus",
      "outputs": [
        {
          "components": [
            {
              "internalType": "uint256",
              "name": "campaignRef",
              "type": "uint256"
            },
            {
              "internalType": "uint16",
              "name": "boxId",
              "type": "uint16"
            },
            {
              "internalType": "bool",
              "name": "isProcessed",
              "type": "bool"
            },
            {
              "internalType": "bool",
              "name": "isDistributedFromButcher",
              "type": "bool"
            },
            {
              "internalType": "bool",
              "name": "isDistributedToDelivery",
              "type": "bool"
            },
            {
              "internalType": "bool",
              "name": "isDelivered",
              "type": "bool"
            }
          ],
          "internalType": "struct BoxStatus[]",
          "name": "",
          "type": "tuple[]"
        }
      ],
      "stateMutability": "view",
      "type": "function"
    },
    {
      "inputs": [
        {
          "internalType": "uint256",
          "name": "_campaignId",
          "type": "uint256"
        }
      ],
      "name": "markAnimalAsDelivered",
      "outputs": [],
      "stateMutability": "nonpayable",
      "type": "function"
    },
    {
      "inputs": [
        {
          "internalType": "uint256",
          "name": "_campaignId",
          "type": "uint256"
        }
      ],
      "name": "markAnimalAsProcessed",
      "outputs": [],
      "stateMutability": "nonpayable",
      "type": "function"
    },
    {
      "inputs": [
        {
          "internalType": "uint256",
          "name": "_campaignId",
          "type": "uint256"
        },
        {
          "internalType": "uint16",
          "name": "_boxId",
          "type": "uint16"
        }
      ],
      "name": "markBoxAsProcessed",
      "outputs": [],
      "stateMutability": "nonpayable",
      "type": "function"
    },
    {
      "inputs": [
        {
          "internalType": "uint256",
          "name": "_campaignId",
          "type": "uint256"
        },
        {
          "internalType": "uint16",
          "name": "_boxId",
          "type": "uint16"
        }
      ],
      "name": "markBoxAsDistributed",
      "outputs": [],
      "stateMutability": "nonpayable",
      "type": "function"
    },
    {
      "inputs": [
        {
          "internalType": "uint256",
          "name": "_campaignId",
          "type": "uint256"
        },
        {
          "internalType": "uint16",
          "name": "_boxId",
          "type": "uint16"
        }
      ],
      "name": "markBoxAsDelivered",
      "outputs": [],
      "stateMutability": "nonpayable",
      "type": "function"
    },
    {
      "inputs": [
        {
          "internalType": "uint256",
          "name": "_campaignId",
          "type": "uint256"
        }
      ],
      "name": "isCompleted",
      "outputs": [
        {
          "internalType": "bool",
          "name": "",
          "type": "bool"
        }
      ],
      "stateMutability": "view",
      "type": "function"
    }
  ],
  "bytecode": "0x6080604052600060035534801561001557600080fd5b50614bfe806100256000396000f3fe608060405234801561001057600080fd5b50600436106100cf5760003560e01c8063868142561161008c578063a85b6f9a11610066578063a85b6f9a146101fa578063c0bd69c714610216578063dbb2cee214610234578063dc05547514610250576100cf565b806386814256146101925780638a2249a3146101ae5780639456be39146101de576100cf565b8063154a9fe1146100d45780635c4caf95146100f05780635c9f048d1461010e5780636f439b461461012a5780637a41984b146101465780638417f2cf14610176575b600080fd5b6100ee60048036038101906100e99190612f6d565b61026c565b005b6100f8610456565b6040516101059190612fdb565b60405180910390f35b61012860048036038101906101239190612f6d565b61047a565b005b610144600480360381019061013f9190612f6d565b610504565b005b610160600480360381019061015b9190612f6d565b6107d6565b60405161016d9190613011565b60405180910390f35b610190600480360381019061018b9190613066565b610df2565b005b6101ac60048036038101906101a79190613303565b61114e565b005b6101c860048036038101906101c39190612f6d565b611361565b6040516101d591906134b6565b60405180910390f35b6101f860048036038101906101f39190613066565b611a8b565b005b610214600480360381019061020f91906134d8565b611f80565b005b61021e611fc3565b60405161022b919061394c565b60405180910390f35b61024e60048036038101906102499190613066565b61260b565b005b61026a60048036038101906102659190613e86565b6128c0565b005b60006001600083815260200190815260200160002090508060010160009054906101000a900460ff166102d4576040517f08c379a00000000000000000000000000000000000000000000000000000000081526004016102cb90613f78565b60405180910390fd5b80600b0160020160000160009054906101000a900473ffffffffffffffffffffffffffffffffffffffff1673ffffffffffffffffffffffffffffffffffffffff163373ffffffffffffffffffffffffffffffffffffffff161461036c576040517f08c379a00000000000000000000000000000000000000000000000000000000081526004016103639061400a565b60405180910390fd5b8060020160000160019054906101000a900460ff16801561039e57508060020160000160009054906101000a900460ff165b6103dd576040517f08c379a00000000000000000000000000000000000000000000000000000000081526004016103d49061409c565b60405180910390fd5b8060030160000160009054906101000a900460ff1615610432576040517f08c379a000000000000000000000000000000000000000000000000000000000815260040161042990614108565b60405180910390fd5b60018160030160000160006101000a81548160ff0219169083151502179055505050565b60008054906101000a900473ffffffffffffffffffffffffffffffffffffffff1681565b60006001600083815260200190815260200160002090508060010160009054906101000a900460ff16156104e3576040517f08c379a00000000000000000000000000000000000000000000000000000000081526004016104da9061419a565b60405180910390fd5b60018160010160006101000a81548160ff0219169083151502179055505050565b60006001600083815260200190815260200160002090508060010160009054906101000a900460ff1661056c576040517f08c379a000000000000000000000000000000000000000000000000000000000815260040161056390614252565b60405180910390fd5b80600b0160000160000160009054906101000a900473ffffffffffffffffffffffffffffffffffffffff1673ffffffffffffffffffffffffffffffffffffffff163373ffffffffffffffffffffffffffffffffffffffff161480610625575080600b0160020160000160009054906101000a900473ffffffffffffffffffffffffffffffffffffffff1673ffffffffffffffffffffffffffffffffffffffff163373ffffffffffffffffffffffffffffffffffffffff16145b610664576040517f08c379a000000000000000000000000000000000000000000000000000000000815260040161065b906142e4565b60405180910390fd5b8060020160000160009054906101000a900460ff16158061069757508060020160000160019054906101000a900460ff16155b6106d6576040517f08c379a00000000000000000000000000000000000000000000000000000000081526004016106cd90614350565b60405180910390fd5b80600b0160000160000160009054906101000a900473ffffffffffffffffffffffffffffffffffffffff1673ffffffffffffffffffffffffffffffffffffffff163373ffffffffffffffffffffffffffffffffffffffff16036107545760018160020160000160006101000a81548160ff0219169083151502179055505b80600b0160020160000160009054906101000a900473ffffffffffffffffffffffffffffffffffffffff1673ffffffffffffffffffffffffffffffffffffffff163373ffffffffffffffffffffffffffffffffffffffff16036107d25760018160020160000160016101000a81548160ff0219169083151502179055505b5050565b6000806001600084815260200190815260200160002060405180610180016040529081600082015481526020016001820160009054906101000a900460ff16151515158152602001600282016040518060400160405290816000820160009054906101000a900460ff161515151581526020016000820160019054906101000a900460ff1615151515815250508152602001600382016040518060200160405290816000820160009054906101000a900460ff1615151515815250508152602001600482016040518060200160405290816000820160009054906101000a900460ff1615151515815250508152602001600582016040518060400160405290816000820160009054906101000a900460ff161515151581526020016000820160019054906101000a900460ff1615151515815250508152602001600682016040518060200160405290816000820160009054906101000a900460ff16151515158152505081526020016007820160009054906101000a900461ffff1661ffff1661ffff168152602001600882016040518060200160405290816000820160009054906101000a900461ffff1661ffff1661ffff16815250508152602001600982016040518060400160405290816000820160009054906101000a900461ffff1661ffff1661ffff1681526020016000820160029054906101000a900461ffff1661ffff1661ffff16815250508152602001600a82016040518060200160405290816000820160009054906101000a900461ffff1661ffff1661ffff16815250508152602001600b8201604051806060016040529081600082016040518060600160405290816000820160009054906101000a900473ffffffffffffffffffffffffffffffffffffffff1673ffffffffffffffffffffffffffffffffffffffff1673ffffffffffffffffffffffffffffffffffffffff1681526020016000820160149054906101000a900460ff1660ff1660ff168152602001600182018054610abd9061439f565b80601f0160208091040260200160405190810160405280929190818152602001828054610ae99061439f565b8015610b365780601f10610b0b57610100808354040283529160200191610b36565b820191906000526020600020905b815481529060010190602001808311610b1957829003601f168201915b5050505050815250508152602001600282016040518060600160405290816000820160009054906101000a900473ffffffffffffffffffffffffffffffffffffffff1673ffffffffffffffffffffffffffffffffffffffff1673ffffffffffffffffffffffffffffffffffffffff1681526020016000820160149054906101000a900460ff1660ff1660ff168152602001600182018054610bd69061439f565b80601f0160208091040260200160405190810160405280929190818152602001828054610c029061439f565b8015610c4f5780601f10610c2457610100808354040283529160200191610c4f565b820191906000526020600020905b815481529060010190602001808311610c3257829003601f168201915b5050505050815250508152602001600482016040518060600160405290816000820160009054906101000a900473ffffffffffffffffffffffffffffffffffffffff1673ffffffffffffffffffffffffffffffffffffffff1673ffffffffffffffffffffffffffffffffffffffff1681526020016000820160149054906101000a900460ff1660ff1660ff168152602001600182018054610cef9061439f565b80601f0160208091040260200160405190810160405280929190818152602001828054610d1b9061439f565b8015610d685780601f10610d3d57610100808354040283529160200191610d68565b820191906000526020600020905b815481529060010190602001808311610d4b57829003601f168201915b505050505081525050815250508152505090508060400151600001518015610d9557508060400151602001515b8015610da657508060600151600001515b8015610db757508060800151600001515b8015610dc857508060a00151600001515b8015610dd957508060a00151602001515b8015610dea57508060c00151600001515b915050919050565b60006001600084815260200190815260200160002090508060010160009054906101000a900460ff16610e5a576040517f08c379a0000000000000000000000000000000000000000000000000000000008152600401610e5190614468565b60405180910390fd5b80600b0160040160000160009054906101000a900473ffffffffffffffffffffffffffffffffffffffff1673ffffffffffffffffffffffffffffffffffffffff163373ffffffffffffffffffffffffffffffffffffffff1614610ef2576040517f08c379a0000000000000000000000000000000000000000000000000000000008152600401610ee9906144fa565b60405180910390fd5b8060050160000160009054906101000a900460ff1680610f2357508060050160000160019054906101000a900460ff165b610f62576040517f08c379a0000000000000000000000000000000000000000000000000000000008152600401610f599061458c565b60405180910390fd5b6002600084815260200190815260200160002060008361ffff1661ffff16815260200190815260200160002060010160059054906101000a900460ff1615610fdf576040517f08c379a0000000000000000000000000000000000000000000000000000000008152600401610fd6906145f8565b60405180910390fd5b60016002600085815260200190815260200160002060008461ffff1661ffff16815260200190815260200160002060010160056101000a81548160ff02191690831515021790555080600a01600001600081819054906101000a900461ffff168092919061104c90614647565b91906101000a81548161ffff021916908361ffff1602179055505080600a0160000160009054906101000a900461ffff1661ffff168160070160009054906101000a900461ffff1661ffff16036111495760018160060160000160006101000a81548160ff02191690831515021790555060008054906101000a900473ffffffffffffffffffffffffffffffffffffffff1673ffffffffffffffffffffffffffffffffffffffff1663da333ca6846040518263ffffffff1660e01b81526004016111169190614680565b600060405180830381600087803b15801561113057600080fd5b505af1158015611144573d6000803e3d6000fd5b505050505b505050565b600060016000848152602001908152602001600020905082600260008581526020019081526020016000206000846000015161ffff1661ffff168152602001908152602001600020600001819055508160000151600260008581526020019081526020016000206000846000015161ffff1661ffff16815260200190815260200160002060010160006101000a81548161ffff021916908361ffff1602179055506000600260008581526020019081526020016000206000846000015161ffff1661ffff16815260200190815260200160002060010160026101000a81548160ff0219169083151502179055506000600260008581526020019081526020016000206000846000015161ffff1661ffff16815260200190815260200160002060010160036101000a81548160ff0219169083151502179055506000600260008581526020019081526020016000206000846000015161ffff1661ffff16815260200190815260200160002060010160046101000a81548160ff0219169083151502179055506000600260008581526020019081526020016000206000846000015161ffff1661ffff16815260200190815260200160002060010160056101000a81548160ff02191690831515021790555080600701600081819054906101000a900461ffff168092919061134190614647565b91906101000a81548161ffff021916908361ffff16021790555050505050565b606060006001600084815260200190815260200160002060405180610180016040529081600082015481526020016001820160009054906101000a900460ff16151515158152602001600282016040518060400160405290816000820160009054906101000a900460ff161515151581526020016000820160019054906101000a900460ff1615151515815250508152602001600382016040518060200160405290816000820160009054906101000a900460ff1615151515815250508152602001600482016040518060200160405290816000820160009054906101000a900460ff1615151515815250508152602001600582016040518060400160405290816000820160009054906101000a900460ff161515151581526020016000820160019054906101000a900460ff1615151515815250508152602001600682016040518060200160405290816000820160009054906101000a900460ff16151515158152505081526020016007820160009054906101000a900461ffff1661ffff1661ffff168152602001600882016040518060200160405290816000820160009054906101000a900461ffff1661ffff1661ffff16815250508152602001600982016040518060400160405290816000820160009054906101000a900461ffff1661ffff1661ffff1681526020016000820160029054906101000a900461ffff1661ffff1661ffff16815250508152602001600a82016040518060200160405290816000820160009054906101000a900461ffff1661ffff1661ffff16815250508152602001600b8201604051806060016040529081600082016040518060600160405290816000820160009054906101000a900473ffffffffffffffffffffffffffffffffffffffff1673ffffffffffffffffffffffffffffffffffffffff1673ffffffffffffffffffffffffffffffffffffffff1681526020016000820160149054906101000a900460ff1660ff1660ff1681526020016001820180546116499061439f565b80601f01602080910402602001604051908101604052809291908181526020018280546116759061439f565b80156116c25780601f10611697576101008083540402835291602001916116c2565b820191906000526020600020905b8154815290600101906020018083116116a557829003601f168201915b5050505050815250508152602001600282016040518060600160405290816000820160009054906101000a900473ffffffffffffffffffffffffffffffffffffffff1673ffffffffffffffffffffffffffffffffffffffff1673ffffffffffffffffffffffffffffffffffffffff1681526020016000820160149054906101000a900460ff1660ff1660ff1681526020016001820180546117629061439f565b80601f016020809104026020016040519081016040528092919081815260200182805461178e9061439f565b80156117db5780601f106117b0576101008083540402835291602001916117db565b820191906000526020600020905b8154815290600101906020018083116117be57829003601f168201915b5050505050815250508152602001600482016040518060600160405290816000820160009054906101000a900473ffffffffffffffffffffffffffffffffffffffff1673ffffffffffffffffffffffffffffffffffffffff1673ffffffffffffffffffffffffffffffffffffffff1681526020016000820160149054906101000a900460ff1660ff1660ff16815260200160018201805461187b9061439f565b80601f01602080910402602001604051908101604052809291908181526020018280546118a79061439f565b80156118f45780601f106118c9576101008083540402835291602001916118f4565b820191906000526020600020905b8154815290600101906020018083116118d757829003601f168201915b5050505050815250508152505081525050905060008160e0015161ffff1667ffffffffffffffff81111561192b5761192a6130bc565b5b60405190808252806020026020018201604052801561196457816020015b611951612c69565b8152602001906001900390816119495790505b50905060005b8260e0015161ffff168161ffff161015611a80576002600086815260200190815260200160002060008261ffff1661ffff1681526020019081526020016000206040518060c0016040529081600082015481526020016001820160009054906101000a900461ffff1661ffff1661ffff1681526020016001820160029054906101000a900460ff161515151581526020016001820160039054906101000a900460ff161515151581526020016001820160049054906101000a900460ff161515151581526020016001820160059054906101000a900460ff161515151581525050828261ffff1681518110611a6257611a6161469b565b5b60200260200101819052508080611a7890614647565b91505061196a565b508092505050919050565b60006001600084815260200190815260200160002090508060010160009054906101000a900460ff16611af3576040517f08c379a0000000000000000000000000000000000000000000000000000000008152600401611aea90614762565b60405180910390fd5b80600b0160040160000160009054906101000a900473ffffffffffffffffffffffffffffffffffffffff1673ffffffffffffffffffffffffffffffffffffffff163373ffffffffffffffffffffffffffffffffffffffff161480611bac575080600b0160020160000160009054906101000a900473ffffffffffffffffffffffffffffffffffffffff1673ffffffffffffffffffffffffffffffffffffffff163373ffffffffffffffffffffffffffffffffffffffff16145b611beb576040517f08c379a0000000000000000000000000000000000000000000000000000000008152600401611be29061481a565b60405180910390fd5b8060040160000160009054906101000a900460ff16611c3f576040517f08c379a0000000000000000000000000000000000000000000000000000000008152600401611c36906148ac565b60405180910390fd5b6002600084815260200190815260200160002060008361ffff1661ffff16815260200190815260200160002060010160039054906101000a900460ff161580611cc257506002600084815260200190815260200160002060008361ffff1661ffff16815260200190815260200160002060010160049054906101000a900460ff16155b611d01576040517f08c379a0000000000000000000000000000000000000000000000000000000008152600401611cf890614918565b60405180910390fd5b80600b0160020160000160009054906101000a900473ffffffffffffffffffffffffffffffffffffffff1673ffffffffffffffffffffffffffffffffffffffff163373ffffffffffffffffffffffffffffffffffffffff1603611e3e5760016002600085815260200190815260200160002060008461ffff1661ffff16815260200190815260200160002060010160036101000a81548160ff02191690831515021790555080600901600001600081819054906101000a900461ffff1680929190611dcb90614647565b91906101000a81548161ffff021916908361ffff160217905550508060090160000160009054906101000a900461ffff1661ffff168160070160009054906101000a900461ffff1661ffff1603611e3d5760018160050160000160006101000a81548160ff0219169083151502179055505b5b80600b0160040160000160009054906101000a900473ffffffffffffffffffffffffffffffffffffffff1673ffffffffffffffffffffffffffffffffffffffff163373ffffffffffffffffffffffffffffffffffffffff1603611f7b5760016002600085815260200190815260200160002060008461ffff1661ffff16815260200190815260200160002060010160046101000a81548160ff02191690831515021790555080600901600001600281819054906101000a900461ffff1680929190611f0890614647565b91906101000a81548161ffff021916908361ffff160217905550508060090160000160029054906101000a900461ffff1661ffff168160070160009054906101000a900461ffff1661ffff1603611f7a5760018160050160000160016101000a81548160ff0219169083151502179055505b5b505050565b806000806101000a81548173ffffffffffffffffffffffffffffffffffffffff021916908373ffffffffffffffffffffffffffffffffffffffff16021790555050565b6060600060035467ffffffffffffffff811115611fe357611fe26130bc565b5b60405190808252806020026020018201604052801561201c57816020015b612009612cab565b8152602001906001900390816120015790505b50905060005b6003548110156126035760006001600083815260200190815260200160002090508060405180610180016040529081600082015481526020016001820160009054906101000a900460ff16151515158152602001600282016040518060400160405290816000820160009054906101000a900460ff161515151581526020016000820160019054906101000a900460ff1615151515815250508152602001600382016040518060200160405290816000820160009054906101000a900460ff1615151515815250508152602001600482016040518060200160405290816000820160009054906101000a900460ff1615151515815250508152602001600582016040518060400160405290816000820160009054906101000a900460ff161515151581526020016000820160019054906101000a900460ff1615151515815250508152602001600682016040518060200160405290816000820160009054906101000a900460ff16151515158152505081526020016007820160009054906101000a900461ffff1661ffff1661ffff168152602001600882016040518060200160405290816000820160009054906101000a900461ffff1661ffff1661ffff16815250508152602001600982016040518060400160405290816000820160009054906101000a900461ffff1661ffff1661ffff1681526020016000820160029054906101000a900461ffff1661ffff1661ffff16815250508152602001600a82016040518060200160405290816000820160009054906101000a900461ffff1661ffff1661ffff16815250508152602001600b8201604051806060016040529081600082016040518060600160405290816000820160009054906101000a900473ffffffffffffffffffffffffffffffffffffffff1673ffffffffffffffffffffffffffffffffffffffff1673ffffffffffffffffffffffffffffffffffffffff1681526020016000820160149054906101000a900460ff1660ff1660ff1681526020016001820180546123159061439f565b80601f01602080910402602001604051908101604052809291908181526020018280546123419061439f565b801561238e5780601f106123635761010080835404028352916020019161238e565b820191906000526020600020905b81548152906001019060200180831161237157829003601f168201915b5050505050815250508152602001600282016040518060600160405290816000820160009054906101000a900473ffffffffffffffffffffffffffffffffffffffff1673ffffffffffffffffffffffffffffffffffffffff1673ffffffffffffffffffffffffffffffffffffffff1681526020016000820160149054906101000a900460ff1660ff1660ff16815260200160018201805461242e9061439f565b80601f016020809104026020016040519081016040528092919081815260200182805461245a9061439f565b80156124a75780601f1061247c576101008083540402835291602001916124a7565b820191906000526020600020905b81548152906001019060200180831161248a57829003601f168201915b5050505050815250508152602001600482016040518060600160405290816000820160009054906101000a900473ffffffffffffffffffffffffffffffffffffffff1673ffffffffffffffffffffffffffffffffffffffff1673ffffffffffffffffffffffffffffffffffffffff1681526020016000820160149054906101000a900460ff1660ff1660ff1681526020016001820180546125479061439f565b80601f01602080910402602001604051908101604052809291908181526020018280546125739061439f565b80156125c05780601f10612595576101008083540402835291602001916125c0565b820191906000526020600020905b8154815290600101906020018083116125a357829003601f168201915b50505050508152505081525050815250508383815181106125e4576125e361469b565b5b60200260200101819052505080806125fb90614938565b915050612022565b508091505090565b60006001600084815260200190815260200160002090508060010160009054906101000a900460ff16612673576040517f08c379a000000000000000000000000000000000000000000000000000000000815260040161266a90614a18565b60405180910390fd5b80600b0160020160000160009054906101000a900473ffffffffffffffffffffffffffffffffffffffff1673ffffffffffffffffffffffffffffffffffffffff163373ffffffffffffffffffffffffffffffffffffffff161461270b576040517f08c379a000000000000000000000000000000000000000000000000000000000815260040161270290614aaa565b60405180910390fd5b8060030160000160009054906101000a900460ff1661275f576040517f08c379a000000000000000000000000000000000000000000000000000000000815260040161275690614b3c565b60405180910390fd5b6002600084815260200190815260200160002060008361ffff1661ffff16815260200190815260200160002060010160029054906101000a900460ff16156127dc576040517f08c379a00000000000000000000000000000000000000000000000000000000081526004016127d390614ba8565b60405180910390fd5b60016002600085815260200190815260200160002060008461ffff1661ffff16815260200190815260200160002060010160026101000a81548160ff02191690831515021790555080600801600001600081819054906101000a900461ffff168092919061284990614647565b91906101000a81548161ffff021916908361ffff160217905550508060080160000160009054906101000a900461ffff1661ffff168160070160009054906101000a900461ffff1661ffff16036128bb5760018160040160000160006101000a81548160ff0219169083151502179055505b505050565b6000600160008360000151815260200190815260200160002090508160000151816000018190555060008160010160006101000a81548160ff02191690831515021790555060008160020160000160016101000a81548160ff02191690831515021790555060008160020160000160006101000a81548160ff02191690831515021790555060008160030160000160006101000a81548160ff02191690831515021790555060008160040160000160006101000a81548160ff02191690831515021790555060008160050160000160006101000a81548160ff02191690831515021790555060008160050160000160016101000a81548160ff02191690831515021790555060008160060160000160006101000a81548160ff02191690831515021790555060008160070160006101000a81548161ffff021916908361ffff16021790555060008160080160000160006101000a81548161ffff021916908361ffff16021790555060008160090160000160006101000a81548161ffff021916908361ffff16021790555060008160090160000160026101000a81548161ffff021916908361ffff160217905550600081600a0160000160006101000a81548161ffff021916908361ffff1602179055508160a0015181600b0160008201518160000160008201518160000160006101000a81548173ffffffffffffffffffffffffffffffffffffffff021916908373ffffffffffffffffffffffffffffffffffffffff16021790555060208201518160000160146101000a81548160ff021916908360ff1602179055506040820151816001019080519060200190612b27929190612d48565b50505060208201518160020160008201518160000160006101000a81548173ffffffffffffffffffffffffffffffffffffffff021916908373ffffffffffffffffffffffffffffffffffffffff16021790555060208201518160000160146101000a81548160ff021916908360ff1602179055506040820151816001019080519060200190612bb7929190612d48565b50505060408201518160040160008201518160000160006101000a81548173ffffffffffffffffffffffffffffffffffffffff021916908373ffffffffffffffffffffffffffffffffffffffff16021790555060208201518160000160146101000a81548160ff021916908360ff1602179055506040820151816001019080519060200190612c47929190612d48565b50505090505060036000815480929190612c6090614938565b91905055505050565b6040518060c0016040528060008152602001600061ffff1681526020016000151581526020016000151581526020016000151581526020016000151581525090565b60405180610180016040528060008152602001600015158152602001612ccf612dce565b8152602001612cdc612dec565b8152602001612ce9612e01565b8152602001612cf6612e16565b8152602001612d03612e34565b8152602001600061ffff168152602001612d1b612e49565b8152602001612d28612e60565b8152602001612d35612e82565b8152602001612d42612e99565b81525090565b828054612d549061439f565b90600052602060002090601f016020900481019282612d765760008555612dbd565b82601f10612d8f57805160ff1916838001178555612dbd565b82800160010185558215612dbd579182015b82811115612dbc578251825591602001919060010190612da1565b5b509050612dca9190612ecc565b5090565b60405180604001604052806000151581526020016000151581525090565b60405180602001604052806000151581525090565b60405180602001604052806000151581525090565b60405180604001604052806000151581526020016000151581525090565b60405180602001604052806000151581525090565b6040518060200160405280600061ffff1681525090565b6040518060400160405280600061ffff168152602001600061ffff1681525090565b6040518060200160405280600061ffff1681525090565b6040518060600160405280612eac612ee9565b8152602001612eb9612ee9565b8152602001612ec6612ee9565b81525090565b5b80821115612ee5576000816000905550600101612ecd565b5090565b6040518060600160405280600073ffffffffffffffffffffffffffffffffffffffff168152602001600060ff168152602001606081525090565b6000604051905090565b600080fd5b600080fd5b6000819050919050565b612f4a81612f37565b8114612f5557600080fd5b50565b600081359050612f6781612f41565b92915050565b600060208284031215612f8357612f82612f2d565b5b6000612f9184828501612f58565b91505092915050565b600073ffffffffffffffffffffffffffffffffffffffff82169050919050565b6000612fc582612f9a565b9050919050565b612fd581612fba565b82525050565b6000602082019050612ff06000830184612fcc565b92915050565b60008115159050919050565b61300b81612ff6565b82525050565b60006020820190506130266000830184613002565b92915050565b600061ffff82169050919050565b6130438161302c565b811461304e57600080fd5b50565b6000813590506130608161303a565b92915050565b6000806040838503121561307d5761307c612f2d565b5b600061308b85828601612f58565b925050602061309c85828601613051565b9150509250929050565b600080fd5b6000601f19601f8301169050919050565b7f4e487b7100000000000000000000000000000000000000000000000000000000600052604160045260246000fd5b6130f4826130ab565b810181811067ffffffffffffffff82111715613113576131126130bc565b5b80604052505050565b6000613126612f23565b905061313282826130eb565b919050565b600080fd5b600060ff82169050919050565b6131528161313c565b811461315d57600080fd5b50565b60008135905061316f81613149565b92915050565b61317e81612fba565b811461318957600080fd5b50565b60008135905061319b81613175565b92915050565b600080fd5b600080fd5b600067ffffffffffffffff8211156131c6576131c56130bc565b5b6131cf826130ab565b9050602081019050919050565b82818337600083830152505050565b60006131fe6131f9846131ab565b61311c565b90508281526020810184848401111561321a576132196131a6565b5b6132258482856131dc565b509392505050565b600082601f830112613242576132416131a1565b5b81356132528482602086016131eb565b91505092915050565b600060a08284031215613271576132706130a6565b5b61327b60a061311c565b9050600061328b84828501613051565b600083015250602061329f84828501613160565b60208301525060406132b38482850161318c565b60408301525060606132c784828501612f58565b606083015250608082013567ffffffffffffffff8111156132eb576132ea613137565b5b6132f78482850161322d565b60808301525092915050565b6000806040838503121561331a57613319612f2d565b5b600061332885828601612f58565b925050602083013567ffffffffffffffff81111561334957613348612f32565b5b6133558582860161325b565b9150509250929050565b600081519050919050565b600082825260208201905092915050565b6000819050602082019050919050565b61339481612f37565b82525050565b6133a38161302c565b82525050565b6133b281612ff6565b82525050565b60c0820160008201516133ce600085018261338b565b5060208201516133e1602085018261339a565b5060408201516133f460408501826133a9565b50606082015161340760608501826133a9565b50608082015161341a60808501826133a9565b5060a082015161342d60a08501826133a9565b50505050565b600061343f83836133b8565b60c08301905092915050565b6000602082019050919050565b60006134638261335f565b61346d818561336a565b93506134788361337b565b8060005b838110156134a95781516134908882613433565b975061349b8361344b565b92505060018101905061347c565b5085935050505092915050565b600060208201905081810360008301526134d08184613458565b905092915050565b6000602082840312156134ee576134ed612f2d565b5b60006134fc8482850161318c565b91505092915050565b600081519050919050565b600082825260208201905092915050565b6000819050602082019050919050565b60408201600082015161354760008501826133a9565b50602082015161355a60208501826133a9565b50505050565b60208201600082015161357660008501826133a9565b50505050565b60208201600082015161359260008501826133a9565b50505050565b6040820160008201516135ae60008501826133a9565b5060208201516135c160208501826133a9565b50505050565b6020820160008201516135dd60008501826133a9565b50505050565b6020820160008201516135f9600085018261339a565b50505050565b604082016000820151613615600085018261339a565b506020820151613628602085018261339a565b50505050565b602082016000820151613644600085018261339a565b50505050565b600061365582612f9a565b9050919050565b6136658161364a565b82525050565b6136748161313c565b82525050565b600081519050919050565b600082825260208201905092915050565b60005b838110156136b4578082015181840152602081019050613699565b838111156136c3576000848401525b50505050565b60006136d48261367a565b6136de8185613685565b93506136ee818560208601613696565b6136f7816130ab565b840191505092915050565b600060608301600083015161371a600086018261365c565b50602083015161372d602086018261366b565b506040830151848203604086015261374582826136c9565b9150508091505092915050565b6000606083016000830151848203600086015261376f8282613702565b915050602083015184820360208601526137898282613702565b915050604083015184820360408601526137a38282613702565b9150508091505092915050565b60006101e0830160008301516137c9600086018261338b565b5060208301516137dc60208601826133a9565b5060408301516137ef6040860182613531565b5060608301516138026080860182613560565b50608083015161381560a086018261357c565b5060a083015161382860c0860182613598565b5060c083015161383c6101008601826135c7565b5060e083015161385061012086018261339a565b506101008301516138656101408601826135e3565b5061012083015161387a6101608601826135ff565b5061014083015161388f6101a086018261362e565b506101608301518482036101c08601526138a98282613752565b9150508091505092915050565b60006138c283836137b0565b905092915050565b6000602082019050919050565b60006138e282613505565b6138ec8185613510565b9350836020820285016138fe85613521565b8060005b8581101561393a578484038952815161391b85826138b6565b9450613926836138ca565b925060208a01995050600181019050613902565b50829750879550505050505092915050565b6000602082019050818103600083015261396681846138d7565b905092915050565b600060608284031215613984576139836130a6565b5b61398e606061311c565b9050600082013567ffffffffffffffff8111156139ae576139ad613137565b5b6139ba8482850161322d565b600083015250602082013567ffffffffffffffff8111156139de576139dd613137565b5b6139ea8482850161322d565b60208301525060406139fe84828501612f58565b60408301525092915050565b613a1381612ff6565b8114613a1e57600080fd5b50565b600081359050613a3081613a0a565b92915050565b600060c08284031215613a4c57613a4b6130a6565b5b613a5660c061311c565b90506000613a6684828501612f58565b6000830152506020613a7a84828501612f58565b6020830152506040613a8e84828501613051565b6040830152506060613aa284828501613051565b6060830152506080613ab684828501613160565b60808301525060a0613aca84828501613a21565b60a08301525092915050565b600060408284031215613aec57613aeb6130a6565b5b613af6604061311c565b90506000613b068482850161318c565b600083015250602082013567ffffffffffffffff811115613b2a57613b29613137565b5b613b368482850161322d565b60208301525092915050565b600060808284031215613b5857613b576130a6565b5b613b62608061311c565b9050600082013567ffffffffffffffff811115613b8257613b81613137565b5b613b8e8482850161322d565b600083015250602082013567ffffffffffffffff811115613bb257613bb1613137565b5b613bbe8482850161322d565b602083015250604082013567ffffffffffffffff811115613be257613be1613137565b5b613bee8482850161322d565b6040830152506060613c0284828501613160565b60608301525092915050565b613c178161364a565b8114613c2257600080fd5b50565b600081359050613c3481613c0e565b92915050565b600060608284031215613c5057613c4f6130a6565b5b613c5a606061311c565b90506000613c6a84828501613c25565b6000830152506020613c7e84828501613160565b602083015250604082013567ffffffffffffffff811115613ca257613ca1613137565b5b613cae8482850161322d565b60408301525092915050565b600060608284031215613cd057613ccf6130a6565b5b613cda606061311c565b9050600082013567ffffffffffffffff811115613cfa57613cf9613137565b5b613d0684828501613c3a565b600083015250602082013567ffffffffffffffff811115613d2a57613d29613137565b5b613d3684828501613c3a565b602083015250604082013567ffffffffffffffff811115613d5a57613d59613137565b5b613d6684828501613c3a565b60408301525092915050565b60006101608284031215613d8957613d886130a6565b5b613d9360c061311c565b90506000613da384828501612f58565b600083015250602082013567ffffffffffffffff811115613dc757613dc6613137565b5b613dd38482850161396e565b6020830152506040613de784828501613a36565b60408301525061010082013567ffffffffffffffff811115613e0c57613e0b613137565b5b613e1884828501613ad6565b60608301525061012082013567ffffffffffffffff811115613e3d57613e3c613137565b5b613e4984828501613b42565b60808301525061014082013567ffffffffffffffff811115613e6e57613e6d613137565b5b613e7a84828501613cba565b60a08301525092915050565b600060208284031215613e9c57613e9b612f2d565b5b600082013567ffffffffffffffff811115613eba57613eb9612f32565b5b613ec684828501613d72565b91505092915050565b600082825260208201905092915050565b7f54686520737570706c7920636861696e206d757374206265207374617274656460008201527f206265666f7265206d61726b696e672074686520616e696d616c20617320707260208201527f6f63657373656400000000000000000000000000000000000000000000000000604082015250565b6000613f62604783613ecf565b9150613f6d82613ee0565b606082019050919050565b60006020820190508181036000830152613f9181613f55565b9050919050565b7f4f6e6c792074686520627574636865722063616e206d61726b2074686520616e60008201527f696d616c2061732070726f636573736564000000000000000000000000000000602082015250565b6000613ff4603183613ecf565b9150613fff82613f98565b604082019050919050565b6000602082019050818103600083015261402381613fe7565b9050919050565b7f54686520616e696d616c206d7573742062652064656c6976657265642062656660008201527f6f7265206265696e672070726f63657373656400000000000000000000000000602082015250565b6000614086603383613ecf565b91506140918261402a565b604082019050919050565b600060208201905081810360008301526140b581614079565b9050919050565b7f54686520616e696d616c20697320616c72656164792070726f63657373656400600082015250565b60006140f2601f83613ecf565b91506140fd826140bc565b602082019050919050565b60006020820190508181036000830152614121816140e5565b9050919050565b7f54686520737570706c7920636861696e20697320616c7265616479207374617260008201527f7465640000000000000000000000000000000000000000000000000000000000602082015250565b6000614184602383613ecf565b915061418f82614128565b604082019050919050565b600060208201905081810360008301526141b381614177565b9050919050565b7f54686520737570706c7920636861696e206d757374206265207374617274656460008201527f206265666f7265206d61726b696e672074686520616e696d616c20617320646560208201527f6c69766572656400000000000000000000000000000000000000000000000000604082015250565b600061423c604783613ecf565b9150614247826141ba565b606082019050919050565b6000602082019050818103600083015261426b8161422f565b9050919050565b7f4f6e6c7920746865206661726d657220616e642074686520627574636865722060008201527f63616e206d61726b2074686520616e696d616c2061732064656c697665726564602082015250565b60006142ce604083613ecf565b91506142d982614272565b604082019050919050565b600060208201905081810360008301526142fd816142c1565b9050919050565b7f54686520616e696d616c20697320616c72656164792064656c69766572656400600082015250565b600061433a601f83613ecf565b915061434582614304565b602082019050919050565b600060208201905081810360008301526143698161432d565b9050919050565b7f4e487b7100000000000000000000000000000000000000000000000000000000600052602260045260246000fd5b600060028204905060018216806143b757607f821691505b6020821081036143ca576143c9614370565b5b50919050565b7f54686520737570706c7920636861696e206d757374206265207374617274656460008201527f206265666f7265206d61726b696e67206120626f782061732064656c6976657260208201527f6564000000000000000000000000000000000000000000000000000000000000604082015250565b6000614452604283613ecf565b915061445d826143d0565b606082019050919050565b6000602082019050818103600083015261448181614445565b9050919050565b7f4f6e6c79207468652064656c697665727920736572766963652063616e206d6160008201527f726b206120626f782061732064656c6976657265640000000000000000000000602082015250565b60006144e4603583613ecf565b91506144ef82614488565b604082019050919050565b60006020820190508181036000830152614513816144d7565b9050919050565b7f426f786573206d757374206265206469737472696275746564206265666f726560008201527f206265696e672064656c69766572656400000000000000000000000000000000602082015250565b6000614576603083613ecf565b91506145818261451a565b604082019050919050565b600060208201905081810360008301526145a581614569565b9050919050565b7f54686520626f7820697320616c72656164792064656c69766572656400000000600082015250565b60006145e2601c83613ecf565b91506145ed826145ac565b602082019050919050565b60006020820190508181036000830152614611816145d5565b9050919050565b7f4e487b7100000000000000000000000000000000000000000000000000000000600052601160045260246000fd5b60006146528261302c565b915061ffff820361466657614665614618565b5b600182019050919050565b61467a81612f37565b82525050565b60006020820190506146956000830184614671565b92915050565b7f4e487b7100000000000000000000000000000000000000000000000000000000600052603260045260246000fd5b7f54686520737570706c7920636861696e206d757374206265207374617274656460008201527f206265666f7265206d61726b696e67206120626f78206173206469737472696260208201527f7574656400000000000000000000000000000000000000000000000000000000604082015250565b600061474c604483613ecf565b9150614757826146ca565b606082019050919050565b6000602082019050818103600083015261477b8161473f565b9050919050565b7f4f6e6c7920746865206275746368657220616e64207468652064656c6976657260008201527f7920736572766963652063616e206d61726b206120626f78206173206469737460208201527f7269627574656400000000000000000000000000000000000000000000000000604082015250565b6000614804604783613ecf565b915061480f82614782565b606082019050919050565b60006020820190508181036000830152614833816147f7565b9050919050565b7f426f786573206d757374206265207072657061726564206265666f726520626560008201527f696e672064697374726962757465640000000000000000000000000000000000602082015250565b6000614896602f83613ecf565b91506148a18261483a565b604082019050919050565b600060208201905081810360008301526148c581614889565b9050919050565b7f54686520626f7820697320616c72656164792064697374726962757465640000600082015250565b6000614902601e83613ecf565b915061490d826148cc565b602082019050919050565b60006020820190508181036000830152614931816148f5565b9050919050565b600061494382612f37565b91507fffffffffffffffffffffffffffffffffffffffffffffffffffffffffffffffff820361497557614974614618565b5b600182019050919050565b7f54686520737570706c7920636861696e206d757374206265207374617274656460008201527f206265666f7265206d61726b696e67206120626f782061732070726f6365737360208201527f6564000000000000000000000000000000000000000000000000000000000000604082015250565b6000614a02604283613ecf565b9150614a0d82614980565b606082019050919050565b60006020820190508181036000830152614a31816149f5565b9050919050565b7f4f6e6c792074686520627574636865722063616e206d61726b206120626f782060008201527f61732070726f6365737365640000000000000000000000000000000000000000602082015250565b6000614a94602c83613ecf565b9150614a9f82614a38565b604082019050919050565b60006020820190508181036000830152614ac381614a87565b9050919050565b7f54686520616e696d616c206d7573742062652070726f6365737365642062656660008201527f6f726520707265706172696e6720626f78657300000000000000000000000000602082015250565b6000614b26603383613ecf565b9150614b3182614aca565b604082019050919050565b60006020820190508181036000830152614b5581614b19565b9050919050565b7f54686520626f7820697320616c72656164792070726f63657373656400000000600082015250565b6000614b92601c83613ecf565b9150614b9d82614b5c565b602082019050919050565b60006020820190508181036000830152614bc181614b85565b905091905056fea2646970667358221220baf1139ffff0ac2fc92bfffa4ab7c7f8cc9637681208273578e704e0d60c926864736f6c634300080d0033",
  "immutableReferences": {},
  "source": "// SPDX-License-Identifier: AGPL\npragma solidity ^0.8.13;\n\nimport \"./SupplyChainsTypes.sol\";\nimport \"./CrowdfundingTypes.sol\";\nimport \"./Crowdfunding.sol\";\n\ncontract SupplyChains {\n  // address of the crowdfunding contract\n  address public crowdfundingAddress;\n\n  mapping(uint256 => SupplyChain) supplychains;\n\n  mapping(uint256 => mapping(uint16 => BoxStatus)) boxesStatus;\n\n  uint256 NumberOfSupplyChains = 0;\n\n  // Add the address of the crowdfunding contract\n  function setCrowdfundingAddress(address _crowdfundingAddress) public {\n    crowdfundingAddress = _crowdfundingAddress;\n  }\n\n  /**\n  * Create a supply chain related to a campaign\n  */\n  function createSupplyChain(Campaign memory _campaign) external {\n    SupplyChain storage supplychain = supplychains[_campaign.id];\n\n    supplychain.campaignRef = _campaign.id;\n    supplychain.isStarted = false;\n    supplychain.isAnimalDelivered.butcher = false;\n    supplychain.isAnimalDelivered.farmer = false;\n    supplychain.isAnimalProcessed.butcher = false;\n    supplychain.areBoxesProcessed.butcher = false;\n    supplychain.areBoxesDistributed.butcher = false;\n    supplychain.areBoxesDistributed.delivery = false;\n    supplychain.areBoxesDelivered.delivery = false;\n    supplychain.totalBoxes = 0;\n    supplychain.processedBoxes.butcher = 0;\n    supplychain.distributedBoxes.butcher = 0;\n    supplychain.distributedBoxes.delivery = 0;\n    supplychain.deliveredBoxes.delivery = 0;\n\n    // import stakeholders from campaign\n    supplychain.stakeholders = _campaign.stakeholders;\n\n    NumberOfSupplyChains++;\n  }\n\n  /**\n  * Add a sold box to a supply chain\n  */\n  function addBox(uint256 _campaignId, BoxSellRef memory _box) external {\n    SupplyChain storage supplychain = supplychains[_campaignId];\n\n    boxesStatus[_campaignId][_box.id].campaignRef = _campaignId;\n    boxesStatus[_campaignId][_box.id].boxId = _box.id;\n    boxesStatus[_campaignId][_box.id].isProcessed = false;\n    boxesStatus[_campaignId][_box.id].isDistributedFromButcher = false;\n    boxesStatus[_campaignId][_box.id].isDistributedToDelivery = false;\n    boxesStatus[_campaignId][_box.id].isDelivered = false;\n\n    supplychain.totalBoxes++;\n  }\n  \n  /**\n  * Mark a supply chain as started\n  */\n  function startSupplyChain(uint256 _campaignRef) external {\n    SupplyChain storage supplychain = supplychains[_campaignRef];\n\n    require(!supplychain.isStarted, \"The supply chain is already started\");\n    supplychain.isStarted = true;\n  }\n\n  /**\n  * Returns all supply chains\n  */\n  function getSupplyChains() public view returns (SupplyChain[] memory) {\n    SupplyChain[] memory allSupplychains = new SupplyChain[](NumberOfSupplyChains);\n    for (uint256 index = 0; index < NumberOfSupplyChains; index++) {\n      SupplyChain storage supplychain = supplychains[index];\n      allSupplychains[index] = supplychain;\n    }\n    return allSupplychains;\n  }\n\n  /**\n  * Returns all boxes status of a specific campaign\n  */\n  function getBoxesStatus(uint256 _campaignId) public view returns (BoxStatus[] memory) {\n    SupplyChain memory supplychain = supplychains[_campaignId];\n    BoxStatus[] memory boxesStatuses = new BoxStatus[](supplychain.totalBoxes);\n    for (uint16 index = 0; index < supplychain.totalBoxes; index++) {\n      boxesStatuses[index] = boxesStatus[_campaignId][index];\n    }\n    return boxesStatuses;\n  }\n\n  /**\n  * Mark the animal of a campaign as delivered (to the butcher)\n  */\n  function markAnimalAsDelivered(uint256 _campaignId) public {\n    SupplyChain storage supplychain = supplychains[_campaignId];\n    require(supplychain.isStarted, \"The supply chain must be started before marking the animal as delivered\");\n    require(\n      (msg.sender == supplychain.stakeholders.farmer.owner) || (msg.sender == supplychain.stakeholders.butcher.owner),\n      \"Only the farmer and the butcher can mark the animal as delivered\"\n    );\n    require(!supplychain.isAnimalDelivered.farmer || !supplychain.isAnimalDelivered.butcher, \"The animal is already delivered\");\n\n    if (msg.sender == supplychain.stakeholders.farmer.owner) {\n      supplychain.isAnimalDelivered.farmer = true;\n    }\n    if (msg.sender == supplychain.stakeholders.butcher.owner) {\n      supplychain.isAnimalDelivered.butcher = true;\n    }\n  }\n\n  /**\n  * Mark the animal as processed by the butcher\n  */\n  function markAnimalAsProcessed(uint256 _campaignId) public {\n    SupplyChain storage supplychain = supplychains[_campaignId];\n\n    require(supplychain.isStarted, \"The supply chain must be started before marking the animal as processed\");\n    require(msg.sender == supplychain.stakeholders.butcher.owner, \"Only the butcher can mark the animal as processed\");\n    require((supplychain.isAnimalDelivered.butcher && supplychain.isAnimalDelivered.farmer), \"The animal must be delivered before being processed\");\n    require(!supplychain.isAnimalProcessed.butcher, \"The animal is already processed\");\n\n    supplychain.isAnimalProcessed.butcher = true;\n  }\n\n  /**\n  * Mark a box as processed by the butcher\n  */\n  function markBoxAsProcessed(uint256 _campaignId, uint16 _boxId) public {\n    SupplyChain storage supplychain = supplychains[_campaignId];\n\n    require(supplychain.isStarted, \"The supply chain must be started before marking a box as processed\");\n    require(msg.sender == supplychain.stakeholders.butcher.owner, \"Only the butcher can mark a box as processed\");\n    require(supplychain.isAnimalProcessed.butcher, \"The animal must be processed before preparing boxes\");\n    require(!boxesStatus[_campaignId][_boxId].isProcessed, \"The box is already processed\");\n\n    boxesStatus[_campaignId][_boxId].isProcessed = true;\n\n    supplychain.processedBoxes.butcher++;\n\n    if(supplychain.totalBoxes == supplychain.processedBoxes.butcher) {\n      supplychain.areBoxesProcessed.butcher = true;\n    }\n  }\n\n  /**\n  * Mark a box as distributed by the delivery service\n  */\n  function markBoxAsDistributed(uint256 _campaignId, uint16 _boxId) public {\n    SupplyChain storage supplychain = supplychains[_campaignId];\n\n    require(supplychain.isStarted, \"The supply chain must be started before marking a box as distributed\");\n    require(\n      (msg.sender == supplychain.stakeholders.delivery.owner) || (msg.sender == supplychain.stakeholders.butcher.owner),\n      \"Only the butcher and the delivery service can mark a box as distributed\");\n    require(supplychain.areBoxesProcessed.butcher, \"Boxes must be prepared before being distributed\");\n    require(\n      (!boxesStatus[_campaignId][_boxId].isDistributedFromButcher || !boxesStatus[_campaignId][_boxId].isDistributedToDelivery),\n      \"The box is already distributed\");\n\n    if (msg.sender == supplychain.stakeholders.butcher.owner) {\n      boxesStatus[_campaignId][_boxId].isDistributedFromButcher = true;\n      supplychain.distributedBoxes.butcher++;\n\n      if(supplychain.totalBoxes == supplychain.distributedBoxes.butcher) {\n        supplychain.areBoxesDistributed.butcher = true;\n      }\n    }\n\n    if (msg.sender == supplychain.stakeholders.delivery.owner) {\n      boxesStatus[_campaignId][_boxId].isDistributedToDelivery = true;\n      supplychain.distributedBoxes.delivery++;\n\n      if (supplychain.totalBoxes == supplychain.distributedBoxes.delivery) {\n        supplychain.areBoxesDistributed.delivery = true;\n      }\n    }\n  }\n\n  /**\n  * Mark a box as delivered by the delivery service\n  */\n  function markBoxAsDelivered(uint256 _campaignId, uint16 _boxId) public {\n    SupplyChain storage supplychain = supplychains[_campaignId];\n\n    require(supplychain.isStarted, \"The supply chain must be started before marking a box as delivered\");\n    require(msg.sender == supplychain.stakeholders.delivery.owner, \"Only the delivery service can mark a box as delivered\");\n    require(\n      supplychain.areBoxesDistributed.butcher || supplychain.areBoxesDistributed.delivery,\n      \"Boxes must be distributed before being delivered\");\n    require(!boxesStatus[_campaignId][_boxId].isDelivered, \"The box is already delivered\");\n\n    boxesStatus[_campaignId][_boxId].isDelivered = true;\n\n    supplychain.deliveredBoxes.delivery++;\n\n    if(supplychain.totalBoxes == supplychain.deliveredBoxes.delivery) {\n      supplychain.areBoxesDelivered.delivery = true;\n      Crowdfunding(crowdfundingAddress).payOut(_campaignId);\n    }\n  }\n\n  /**\n  * Check if the supply chain is completed\n  */\n  function isCompleted(uint256 _campaignId) external view returns (bool) {\n    SupplyChain memory supplychain = supplychains[_campaignId];\n    return (\n      supplychain.isAnimalDelivered.farmer &&\n      supplychain.isAnimalDelivered.butcher &&\n      supplychain.isAnimalProcessed.butcher &&\n      supplychain.areBoxesProcessed.butcher &&\n      supplychain.areBoxesDistributed.butcher &&\n      supplychain.areBoxesDistributed.delivery &&\n      supplychain.areBoxesDelivered.delivery);\n  }\n}\n",
  "sourcePath": "/Users/cassolseba/VSCode/blockchain/146157_Blockchain/smart_contracts/contracts/SupplyChains.sol",
  "compiler": {
    "name": "solc",
    "version": "0.8.13+commit.abaa5c0e.Emscripten.clang"
  },
  "schemaVersion": "3.4.14",
  "updatedAt": "2023-08-16T16:39:49.037Z",
  "devdoc": {
    "kind": "dev",
    "methods": {},
    "version": 1
  },
  "userdoc": {
    "kind": "user",
    "methods": {
      "addBox(uint256,(uint16,uint8,address,uint256,string))": {
        "notice": "Add a sold box to a supply chain"
      },
      "createSupplyChain((uint256,(string,string,uint256),(uint256,uint256,uint16,uint16,uint8,bool),(address,string),(string,string,string,uint8),((address,uint8,string),(address,uint8,string),(address,uint8,string))))": {
        "notice": "Create a supply chain related to a campaign"
      },
      "getBoxesStatus(uint256)": {
        "notice": "Returns all boxes status of a specific campaign"
      },
      "getSupplyChains()": {
        "notice": "Returns all supply chains"
      },
      "isCompleted(uint256)": {
        "notice": "Check if the supply chain is completed"
      },
      "markAnimalAsDelivered(uint256)": {
        "notice": "Mark the animal of a campaign as delivered (to the butcher)"
      },
      "markAnimalAsProcessed(uint256)": {
        "notice": "Mark the animal as processed by the butcher"
      },
      "markBoxAsDelivered(uint256,uint16)": {
        "notice": "Mark a box as delivered by the delivery service"
      },
      "markBoxAsDistributed(uint256,uint16)": {
        "notice": "Mark a box as distributed by the delivery service"
      },
      "markBoxAsProcessed(uint256,uint16)": {
        "notice": "Mark a box as processed by the butcher"
      },
      "startSupplyChain(uint256)": {
        "notice": "Mark a supply chain as started"
      }
    },
    "version": 1
  }
}