{
  "contractName": "SupplyChains",
  "abi": [
    {
      "anonymous": false,
      "inputs": [
        {
          "indexed": false,
          "internalType": "uint256",
          "name": "campaignRef",
          "type": "uint256"
        },
        {
          "indexed": false,
          "internalType": "string",
          "name": "user",
          "type": "string"
        },
        {
          "indexed": false,
          "internalType": "address",
          "name": "userAddress",
          "type": "address"
        }
      ],
      "name": "AnimalMarkedAsDelivered",
      "type": "event"
    },
    {
      "anonymous": false,
      "inputs": [
        {
          "indexed": false,
          "internalType": "uint256",
          "name": "campaignRef",
          "type": "uint256"
        },
        {
          "indexed": false,
          "internalType": "string",
          "name": "user",
          "type": "string"
        },
        {
          "indexed": false,
          "internalType": "address",
          "name": "userAddress",
          "type": "address"
        }
      ],
      "name": "AnimalMarkedAsProcessed",
      "type": "event"
    },
    {
      "anonymous": false,
      "inputs": [
        {
          "indexed": false,
          "internalType": "uint256",
          "name": "campaignRef",
          "type": "uint256"
        },
        {
          "indexed": false,
          "internalType": "uint16",
          "name": "boxId",
          "type": "uint16"
        },
        {
          "indexed": false,
          "internalType": "string",
          "name": "user",
          "type": "string"
        },
        {
          "indexed": false,
          "internalType": "address",
          "name": "userAddress",
          "type": "address"
        }
      ],
      "name": "BoxMarkedAsDelivered",
      "type": "event"
    },
    {
      "anonymous": false,
      "inputs": [
        {
          "indexed": false,
          "internalType": "uint256",
          "name": "campaignRef",
          "type": "uint256"
        },
        {
          "indexed": false,
          "internalType": "string",
          "name": "user",
          "type": "string"
        },
        {
          "indexed": false,
          "internalType": "address",
          "name": "userAddress",
          "type": "address"
        }
      ],
      "name": "BoxesMarkedAsDelivered",
      "type": "event"
    },
    {
      "anonymous": false,
      "inputs": [
        {
          "indexed": false,
          "internalType": "uint256",
          "name": "campaignRef",
          "type": "uint256"
        },
        {
          "indexed": false,
          "internalType": "string",
          "name": "user",
          "type": "string"
        },
        {
          "indexed": false,
          "internalType": "address",
          "name": "userAddress",
          "type": "address"
        }
      ],
      "name": "BoxesMarkedAsDistributed",
      "type": "event"
    },
    {
      "anonymous": false,
      "inputs": [
        {
          "indexed": false,
          "internalType": "uint256",
          "name": "campaignRef",
          "type": "uint256"
        },
        {
          "indexed": false,
          "internalType": "string",
          "name": "user",
          "type": "string"
        },
        {
          "indexed": false,
          "internalType": "address",
          "name": "userAddress",
          "type": "address"
        }
      ],
      "name": "BoxesMarkedAsProcessed",
      "type": "event"
    },
    {
      "anonymous": false,
      "inputs": [
        {
          "indexed": false,
          "internalType": "uint256",
          "name": "campaignRef",
          "type": "uint256"
        },
        {
          "indexed": false,
          "internalType": "uint16",
          "name": "SellRefId",
          "type": "uint16"
        }
      ],
      "name": "NewBox",
      "type": "event"
    },
    {
      "anonymous": false,
      "inputs": [
        {
          "indexed": false,
          "internalType": "uint256",
          "name": "campaignRef",
          "type": "uint256"
        }
      ],
      "name": "SupplyChainCreated",
      "type": "event"
    },
    {
      "anonymous": false,
      "inputs": [
        {
          "indexed": false,
          "internalType": "uint256",
          "name": "campaignRef",
          "type": "uint256"
        }
      ],
      "name": "SupplyChainStarted",
      "type": "event"
    },
    {
      "inputs": [],
      "name": "crowdfundingAddress",
      "outputs": [
        {
          "internalType": "address",
          "name": "",
          "type": "address"
        }
      ],
      "stateMutability": "view",
      "type": "function"
    },
    {
      "inputs": [
        {
          "internalType": "address",
          "name": "_crowdfundingAddress",
          "type": "address"
        }
      ],
      "name": "setCrowdfundingAddress",
      "outputs": [],
      "stateMutability": "nonpayable",
      "type": "function"
    },
    {
      "inputs": [
        {
          "components": [
            {
              "internalType": "uint256",
              "name": "id",
              "type": "uint256"
            },
            {
              "components": [
                {
                  "internalType": "string",
                  "name": "title",
                  "type": "string"
                },
                {
                  "internalType": "string",
                  "name": "description",
                  "type": "string"
                },
                {
                  "internalType": "uint256",
                  "name": "deadline",
                  "type": "uint256"
                }
              ],
              "internalType": "struct CampaignInfo",
              "name": "info",
              "type": "tuple"
            },
            {
              "components": [
                {
                  "internalType": "uint256",
                  "name": "collectedAmount",
                  "type": "uint256"
                },
                {
                  "internalType": "uint256",
                  "name": "createdAt",
                  "type": "uint256"
                },
                {
                  "internalType": "uint16",
                  "name": "totalBoxes",
                  "type": "uint16"
                },
                {
                  "internalType": "uint16",
                  "name": "boxesSold",
                  "type": "uint16"
                },
                {
                  "internalType": "uint8",
                  "name": "totalBoxTypes",
                  "type": "uint8"
                },
                {
                  "internalType": "bool",
                  "name": "isStopped",
                  "type": "bool"
                }
              ],
              "internalType": "struct CampaignMeta",
              "name": "meta",
              "type": "tuple"
            },
            {
              "components": [
                {
                  "internalType": "address",
                  "name": "owner",
                  "type": "address"
                },
                {
                  "internalType": "string",
                  "name": "ownerPublicKey",
                  "type": "string"
                }
              ],
              "internalType": "struct CampaignOwner",
              "name": "owner",
              "type": "tuple"
            },
            {
              "components": [
                {
                  "internalType": "string",
                  "name": "earTag",
                  "type": "string"
                },
                {
                  "internalType": "string",
                  "name": "name",
                  "type": "string"
                },
                {
                  "internalType": "string",
                  "name": "farm",
                  "type": "string"
                },
                {
                  "internalType": "uint8",
                  "name": "age",
                  "type": "uint8"
                }
              ],
              "internalType": "struct CampaignAnimalData",
              "name": "animal",
              "type": "tuple"
            },
            {
              "components": [
                {
                  "components": [
                    {
                      "internalType": "address payable",
                      "name": "owner",
                      "type": "address"
                    },
                    {
                      "internalType": "uint8",
                      "name": "share",
                      "type": "uint8"
                    },
                    {
                      "internalType": "string",
                      "name": "info",
                      "type": "string"
                    }
                  ],
                  "internalType": "struct Stakeholder",
                  "name": "farmer",
                  "type": "tuple"
                },
                {
                  "components": [
                    {
                      "internalType": "address payable",
                      "name": "owner",
                      "type": "address"
                    },
                    {
                      "internalType": "uint8",
                      "name": "share",
                      "type": "uint8"
                    },
                    {
                      "internalType": "string",
                      "name": "info",
                      "type": "string"
                    }
                  ],
                  "internalType": "struct Stakeholder",
                  "name": "butcher",
                  "type": "tuple"
                },
                {
                  "components": [
                    {
                      "internalType": "address payable",
                      "name": "owner",
                      "type": "address"
                    },
                    {
                      "internalType": "uint8",
                      "name": "share",
                      "type": "uint8"
                    },
                    {
                      "internalType": "string",
                      "name": "info",
                      "type": "string"
                    }
                  ],
                  "internalType": "struct Stakeholder",
                  "name": "delivery",
                  "type": "tuple"
                }
              ],
              "internalType": "struct StakeholderList",
              "name": "stakeholders",
              "type": "tuple"
            }
          ],
          "internalType": "struct Campaign",
          "name": "_campaign",
          "type": "tuple"
        }
      ],
      "name": "createSupplyChain",
      "outputs": [],
      "stateMutability": "nonpayable",
      "type": "function"
    },
    {
      "inputs": [
        {
          "internalType": "uint256",
          "name": "_campaignRef",
          "type": "uint256"
        },
        {
          "components": [
            {
              "internalType": "uint16",
              "name": "id",
              "type": "uint16"
            },
            {
              "internalType": "uint8",
              "name": "boxId",
              "type": "uint8"
            },
            {
              "internalType": "address",
              "name": "owner",
              "type": "address"
            },
            {
              "internalType": "uint256",
              "name": "boughtAt",
              "type": "uint256"
            },
            {
              "internalType": "string",
              "name": "physAddress",
              "type": "string"
            }
          ],
          "internalType": "struct BoxSellRef",
          "name": "_box",
          "type": "tuple"
        }
      ],
      "name": "addBox",
      "outputs": [],
      "stateMutability": "nonpayable",
      "type": "function"
    },
    {
      "inputs": [
        {
          "internalType": "uint256",
          "name": "_campaignRef",
          "type": "uint256"
        }
      ],
      "name": "startSupplyChain",
      "outputs": [],
      "stateMutability": "nonpayable",
      "type": "function"
    },
    {
      "inputs": [],
      "name": "getSupplyChains",
      "outputs": [
        {
          "components": [
            {
              "internalType": "uint256",
              "name": "campaignRef",
              "type": "uint256"
            },
            {
              "internalType": "bool",
              "name": "isStarted",
              "type": "bool"
            },
            {
              "components": [
                {
                  "internalType": "bool",
                  "name": "farmer",
                  "type": "bool"
                },
                {
                  "internalType": "bool",
                  "name": "butcher",
                  "type": "bool"
                }
              ],
              "internalType": "struct AnimalDeliverStatus",
              "name": "isAnimalDelivered",
              "type": "tuple"
            },
            {
              "components": [
                {
                  "internalType": "bool",
                  "name": "butcher",
                  "type": "bool"
                }
              ],
              "internalType": "struct AnimalProcessStatus",
              "name": "isAnimalProcessed",
              "type": "tuple"
            },
            {
              "components": [
                {
                  "internalType": "bool",
                  "name": "butcher",
                  "type": "bool"
                }
              ],
              "internalType": "struct BoxesProcessStatus",
              "name": "areBoxesProcessed",
              "type": "tuple"
            },
            {
              "components": [
                {
                  "internalType": "bool",
                  "name": "butcher",
                  "type": "bool"
                },
                {
                  "internalType": "bool",
                  "name": "delivery",
                  "type": "bool"
                }
              ],
              "internalType": "struct BoxesDistributionStatus",
              "name": "areBoxesDistributed",
              "type": "tuple"
            },
            {
              "components": [
                {
                  "internalType": "bool",
                  "name": "delivery",
                  "type": "bool"
                }
              ],
              "internalType": "struct BoxesDeliverStatus",
              "name": "areBoxesDelivered",
              "type": "tuple"
            },
            {
              "internalType": "uint16",
              "name": "totalBoxes",
              "type": "uint16"
            },
            {
              "internalType": "uint16",
              "name": "deliveredBoxes",
              "type": "uint16"
            },
            {
              "components": [
                {
                  "components": [
                    {
                      "internalType": "address payable",
                      "name": "owner",
                      "type": "address"
                    },
                    {
                      "internalType": "uint8",
                      "name": "share",
                      "type": "uint8"
                    },
                    {
                      "internalType": "string",
                      "name": "info",
                      "type": "string"
                    }
                  ],
                  "internalType": "struct Stakeholder",
                  "name": "farmer",
                  "type": "tuple"
                },
                {
                  "components": [
                    {
                      "internalType": "address payable",
                      "name": "owner",
                      "type": "address"
                    },
                    {
                      "internalType": "uint8",
                      "name": "share",
                      "type": "uint8"
                    },
                    {
                      "internalType": "string",
                      "name": "info",
                      "type": "string"
                    }
                  ],
                  "internalType": "struct Stakeholder",
                  "name": "butcher",
                  "type": "tuple"
                },
                {
                  "components": [
                    {
                      "internalType": "address payable",
                      "name": "owner",
                      "type": "address"
                    },
                    {
                      "internalType": "uint8",
                      "name": "share",
                      "type": "uint8"
                    },
                    {
                      "internalType": "string",
                      "name": "info",
                      "type": "string"
                    }
                  ],
                  "internalType": "struct Stakeholder",
                  "name": "delivery",
                  "type": "tuple"
                }
              ],
              "internalType": "struct StakeholderList",
              "name": "stakeholders",
              "type": "tuple"
            }
          ],
          "internalType": "struct SupplyChain[]",
          "name": "",
          "type": "tuple[]"
        }
      ],
      "stateMutability": "view",
      "type": "function"
    },
    {
      "inputs": [
        {
          "internalType": "uint256",
          "name": "_campaignRef",
          "type": "uint256"
        }
      ],
      "name": "getBoxesStatus",
      "outputs": [
        {
          "components": [
            {
              "internalType": "uint256",
              "name": "campaignRef",
              "type": "uint256"
            },
            {
              "internalType": "uint16",
              "name": "boxId",
              "type": "uint16"
            },
            {
              "internalType": "bool",
              "name": "isDelivered",
              "type": "bool"
            }
          ],
          "internalType": "struct BoxStatus[]",
          "name": "",
          "type": "tuple[]"
        }
      ],
      "stateMutability": "view",
      "type": "function"
    },
    {
      "inputs": [
        {
          "internalType": "uint256",
          "name": "_campaignRef",
          "type": "uint256"
        }
      ],
      "name": "markAnimalAsDelivered",
      "outputs": [],
      "stateMutability": "nonpayable",
      "type": "function"
    },
    {
      "inputs": [
        {
          "internalType": "uint256",
          "name": "_campaignRef",
          "type": "uint256"
        }
      ],
      "name": "markAnimalAsProcessed",
      "outputs": [],
      "stateMutability": "nonpayable",
      "type": "function"
    },
    {
      "inputs": [
        {
          "internalType": "uint256",
          "name": "_campaignRef",
          "type": "uint256"
        }
      ],
      "name": "markBoxesAsProcessed",
      "outputs": [],
      "stateMutability": "nonpayable",
      "type": "function"
    },
    {
      "inputs": [
        {
          "internalType": "uint256",
          "name": "_campaignRef",
          "type": "uint256"
        }
      ],
      "name": "markBoxesAsDistributed",
      "outputs": [],
      "stateMutability": "nonpayable",
      "type": "function"
    },
    {
      "inputs": [
        {
          "internalType": "uint256",
          "name": "_campaignRef",
          "type": "uint256"
        },
        {
          "internalType": "uint16",
          "name": "_boxId",
          "type": "uint16"
        }
      ],
      "name": "markBoxAsDelivered",
      "outputs": [],
      "stateMutability": "nonpayable",
      "type": "function"
    },
    {
      "inputs": [
        {
          "internalType": "uint256",
          "name": "_campaignRef",
          "type": "uint256"
        }
      ],
      "name": "isCompleted",
      "outputs": [
        {
          "internalType": "bool",
          "name": "",
          "type": "bool"
        }
      ],
      "stateMutability": "view",
      "type": "function"
    }
  ],
  "bytecode": "0x6080604052600060035534801561001557600080fd5b50615057806100256000396000f3fe608060405234801561001057600080fd5b50600436106100cf5760003560e01c8063868142561161008c578063afee730b11610066578063afee730b146101fa578063c0bd69c714610216578063dc05547514610234578063eca2e25b14610250576100cf565b806386814256146101925780638a2249a3146101ae578063a85b6f9a146101de576100cf565b8063154a9fe1146100d45780635c4caf95146100f05780635c9f048d1461010e5780636f439b461461012a5780637a41984b146101465780638417f2cf14610176575b600080fd5b6100ee60048036038101906100e99190612e2c565b61026c565b005b6100f861048f565b6040516101059190612e9a565b60405180910390f35b61012860048036038101906101239190612e2c565b6104b3565b005b610144600480360381019061013f9190612e2c565b610602565b005b610160600480360381019061015b9190612e2c565b6109f0565b60405161016d9190612ed0565b60405180910390f35b610190600480360381019061018b9190612f25565b610f70565b005b6101ac60048036038101906101a791906131c2565b61133b565b005b6101c860048036038101906101c39190612e2c565b611535565b6040516101d5919061333c565b60405180910390f35b6101f860048036038101906101f3919061335e565b611b72565b005b610214600480360381019061020f9190612e2c565b611bb5565b005b61021e611dbb565b60405161022b9190613741565b60405180910390f35b61024e60048036038101906102499190613c7b565b612367565b005b61026a60048036038101906102659190612e2c565b61276d565b005b60006001600083815260200190815260200160002090508060010160009054906101000a900460ff166102d4576040517f08c379a00000000000000000000000000000000000000000000000000000000081526004016102cb90613d6d565b60405180910390fd5b8060080160020160000160009054906101000a900473ffffffffffffffffffffffffffffffffffffffff1673ffffffffffffffffffffffffffffffffffffffff163373ffffffffffffffffffffffffffffffffffffffff161461036c576040517f08c379a000000000000000000000000000000000000000000000000000000000815260040161036390613dff565b60405180910390fd5b8060020160000160019054906101000a900460ff16801561039e57508060020160000160009054906101000a900460ff165b6103dd576040517f08c379a00000000000000000000000000000000000000000000000000000000081526004016103d490613e91565b60405180910390fd5b8060030160000160009054906101000a900460ff1615610432576040517f08c379a000000000000000000000000000000000000000000000000000000000815260040161042990613efd565b60405180910390fd5b60018160030160000160006101000a81548160ff0219169083151502179055507f8add3595a2c915b761227f6a28d2471c9afaa395cff649d59067f6caa4bafbc18233604051610483929190613f78565b60405180910390a15050565b60008054906101000a900473ffffffffffffffffffffffffffffffffffffffff1681565b60008054906101000a900473ffffffffffffffffffffffffffffffffffffffff1673ffffffffffffffffffffffffffffffffffffffff163373ffffffffffffffffffffffffffffffffffffffff1614610541576040517f08c379a000000000000000000000000000000000000000000000000000000000815260040161053890614026565b60405180910390fd5b60006001600083815260200190815260200160002090508060010160009054906101000a900460ff16156105aa576040517f08c379a00000000000000000000000000000000000000000000000000000000081526004016105a1906140b8565b60405180910390fd5b60018160010160006101000a81548160ff0219169083151502179055507f53d4035176d991da6b2d66ad46d9162d9093179aa960277dfed7b9e7134427bd826040516105f691906140d8565b60405180910390a15050565b60006001600083815260200190815260200160002090508060010160009054906101000a900460ff1661066a576040517f08c379a00000000000000000000000000000000000000000000000000000000081526004016106619061418b565b60405180910390fd5b8060080160000160000160009054906101000a900473ffffffffffffffffffffffffffffffffffffffff1673ffffffffffffffffffffffffffffffffffffffff163373ffffffffffffffffffffffffffffffffffffffff16148061072357508060080160020160000160009054906101000a900473ffffffffffffffffffffffffffffffffffffffff1673ffffffffffffffffffffffffffffffffffffffff163373ffffffffffffffffffffffffffffffffffffffff16145b610762576040517f08c379a00000000000000000000000000000000000000000000000000000000081526004016107599061421d565b60405180910390fd5b8060020160000160009054906101000a900460ff16158061079557508060020160000160019054906101000a900460ff16155b6107d4576040517f08c379a00000000000000000000000000000000000000000000000000000000081526004016107cb90614289565b60405180910390fd5b8060080160000160000160009054906101000a900473ffffffffffffffffffffffffffffffffffffffff1673ffffffffffffffffffffffffffffffffffffffff163373ffffffffffffffffffffffffffffffffffffffff16036108e0578060020160000160009054906101000a900460ff1615610886576040517f08c379a000000000000000000000000000000000000000000000000000000000815260040161087d9061431b565b60405180910390fd5b60018160020160000160006101000a81548160ff0219169083151502179055507f8cfb633f461af493e1d800d908aac09eb3640540754c8c6252dae50546e8269182336040516108d7929190614387565b60405180910390a15b8060080160020160000160009054906101000a900473ffffffffffffffffffffffffffffffffffffffff1673ffffffffffffffffffffffffffffffffffffffff163373ffffffffffffffffffffffffffffffffffffffff16036109ec578060020160000160019054906101000a900460ff1615610992576040517f08c379a000000000000000000000000000000000000000000000000000000000815260040161098990614435565b60405180910390fd5b60018160020160000160016101000a81548160ff0219169083151502179055507f8cfb633f461af493e1d800d908aac09eb3640540754c8c6252dae50546e8269182336040516109e3929190613f78565b60405180910390a15b5050565b6000806001600084815260200190815260200160002060405180610140016040529081600082015481526020016001820160009054906101000a900460ff16151515158152602001600282016040518060400160405290816000820160009054906101000a900460ff161515151581526020016000820160019054906101000a900460ff1615151515815250508152602001600382016040518060200160405290816000820160009054906101000a900460ff1615151515815250508152602001600482016040518060200160405290816000820160009054906101000a900460ff1615151515815250508152602001600582016040518060400160405290816000820160009054906101000a900460ff161515151581526020016000820160019054906101000a900460ff1615151515815250508152602001600682016040518060200160405290816000820160009054906101000a900460ff16151515158152505081526020016007820160009054906101000a900461ffff1661ffff1661ffff1681526020016007820160029054906101000a900461ffff1661ffff1661ffff16815260200160088201604051806060016040529081600082016040518060600160405290816000820160009054906101000a900473ffffffffffffffffffffffffffffffffffffffff1673ffffffffffffffffffffffffffffffffffffffff1673ffffffffffffffffffffffffffffffffffffffff1681526020016000820160149054906101000a900460ff1660ff1660ff168152602001600182018054610c3b90614484565b80601f0160208091040260200160405190810160405280929190818152602001828054610c6790614484565b8015610cb45780601f10610c8957610100808354040283529160200191610cb4565b820191906000526020600020905b815481529060010190602001808311610c9757829003601f168201915b5050505050815250508152602001600282016040518060600160405290816000820160009054906101000a900473ffffffffffffffffffffffffffffffffffffffff1673ffffffffffffffffffffffffffffffffffffffff1673ffffffffffffffffffffffffffffffffffffffff1681526020016000820160149054906101000a900460ff1660ff1660ff168152602001600182018054610d5490614484565b80601f0160208091040260200160405190810160405280929190818152602001828054610d8090614484565b8015610dcd5780601f10610da257610100808354040283529160200191610dcd565b820191906000526020600020905b815481529060010190602001808311610db057829003601f168201915b5050505050815250508152602001600482016040518060600160405290816000820160009054906101000a900473ffffffffffffffffffffffffffffffffffffffff1673ffffffffffffffffffffffffffffffffffffffff1673ffffffffffffffffffffffffffffffffffffffff1681526020016000820160149054906101000a900460ff1660ff1660ff168152602001600182018054610e6d90614484565b80601f0160208091040260200160405190810160405280929190818152602001828054610e9990614484565b8015610ee65780601f10610ebb57610100808354040283529160200191610ee6565b820191906000526020600020905b815481529060010190602001808311610ec957829003601f168201915b505050505081525050815250508152505090508060400151600001518015610f1357508060400151602001515b8015610f2457508060600151600001515b8015610f3557508060800151600001515b8015610f4657508060a00151600001515b8015610f5757508060a00151602001515b8015610f6857508060c00151600001515b915050919050565b60006001600084815260200190815260200160002090508060010160009054906101000a900460ff16610fd8576040517f08c379a0000000000000000000000000000000000000000000000000000000008152600401610fcf9061454d565b60405180910390fd5b8060080160040160000160009054906101000a900473ffffffffffffffffffffffffffffffffffffffff1673ffffffffffffffffffffffffffffffffffffffff163373ffffffffffffffffffffffffffffffffffffffff1614611070576040517f08c379a0000000000000000000000000000000000000000000000000000000008152600401611067906145df565b60405180910390fd5b8060050160000160009054906101000a900460ff1680156110a257508060050160000160019054906101000a900460ff165b6110e1576040517f08c379a00000000000000000000000000000000000000000000000000000000081526004016110d890614671565b60405180910390fd5b6002600084815260200190815260200160002060008361ffff1661ffff16815260200190815260200160002060010160029054906101000a900460ff161561115e576040517f08c379a0000000000000000000000000000000000000000000000000000000008152600401611155906146dd565b60405180910390fd5b60016002600085815260200190815260200160002060008461ffff1661ffff16815260200190815260200160002060010160026101000a81548160ff02191690831515021790555080600701600281819054906101000a900461ffff16809291906111c89061472c565b91906101000a81548161ffff021916908361ffff160217905550507f30095d46e13baa40e3cfde9d5acdee35bf360ad5adda5c68d04ac7fb9fb3123c838333604051611216939291906147b1565b60405180910390a18060070160029054906101000a900461ffff1661ffff168160070160009054906101000a900461ffff1661ffff16036113365760018160060160000160006101000a81548160ff0219169083151502179055507f2b483d759ef4df50547b69d67eb4cef261301257034746e43160b5eaf851b37f83336040516112a29291906147fb565b60405180910390a160008054906101000a900473ffffffffffffffffffffffffffffffffffffffff1673ffffffffffffffffffffffffffffffffffffffff1663da333ca6846040518263ffffffff1660e01b815260040161130391906140d8565b600060405180830381600087803b15801561131d57600080fd5b505af1158015611331573d6000803e3d6000fd5b505050505b505050565b60008054906101000a900473ffffffffffffffffffffffffffffffffffffffff1673ffffffffffffffffffffffffffffffffffffffff163373ffffffffffffffffffffffffffffffffffffffff16146113c9576040517f08c379a00000000000000000000000000000000000000000000000000000000081526004016113c0906148a9565b60405180910390fd5b600060016000848152602001908152602001600020905082600260008581526020019081526020016000206000846000015161ffff1661ffff168152602001908152602001600020600001819055508160000151600260008581526020019081526020016000206000846000015161ffff1661ffff16815260200190815260200160002060010160006101000a81548161ffff021916908361ffff1602179055506000600260008581526020019081526020016000206000846000015161ffff1661ffff16815260200190815260200160002060010160026101000a81548160ff02191690831515021790555080600701600081819054906101000a900461ffff16809291906114d89061472c565b91906101000a81548161ffff021916908361ffff160217905550507fa0cfca248a00b79ea6e2cfc6f9610c5fa5d57ad67cdf361337e4bbcf78d945fa8383600001516040516115289291906148c9565b60405180910390a1505050565b606060006001600084815260200190815260200160002060405180610140016040529081600082015481526020016001820160009054906101000a900460ff16151515158152602001600282016040518060400160405290816000820160009054906101000a900460ff161515151581526020016000820160019054906101000a900460ff1615151515815250508152602001600382016040518060200160405290816000820160009054906101000a900460ff1615151515815250508152602001600482016040518060200160405290816000820160009054906101000a900460ff1615151515815250508152602001600582016040518060400160405290816000820160009054906101000a900460ff161515151581526020016000820160019054906101000a900460ff1615151515815250508152602001600682016040518060200160405290816000820160009054906101000a900460ff16151515158152505081526020016007820160009054906101000a900461ffff1661ffff1661ffff1681526020016007820160029054906101000a900461ffff1661ffff1661ffff16815260200160088201604051806060016040529081600082016040518060600160405290816000820160009054906101000a900473ffffffffffffffffffffffffffffffffffffffff1673ffffffffffffffffffffffffffffffffffffffff1673ffffffffffffffffffffffffffffffffffffffff1681526020016000820160149054906101000a900460ff1660ff1660ff16815260200160018201805461178190614484565b80601f01602080910402602001604051908101604052809291908181526020018280546117ad90614484565b80156117fa5780601f106117cf576101008083540402835291602001916117fa565b820191906000526020600020905b8154815290600101906020018083116117dd57829003601f168201915b5050505050815250508152602001600282016040518060600160405290816000820160009054906101000a900473ffffffffffffffffffffffffffffffffffffffff1673ffffffffffffffffffffffffffffffffffffffff1673ffffffffffffffffffffffffffffffffffffffff1681526020016000820160149054906101000a900460ff1660ff1660ff16815260200160018201805461189a90614484565b80601f01602080910402602001604051908101604052809291908181526020018280546118c690614484565b80156119135780601f106118e857610100808354040283529160200191611913565b820191906000526020600020905b8154815290600101906020018083116118f657829003601f168201915b5050505050815250508152602001600482016040518060600160405290816000820160009054906101000a900473ffffffffffffffffffffffffffffffffffffffff1673ffffffffffffffffffffffffffffffffffffffff1673ffffffffffffffffffffffffffffffffffffffff1681526020016000820160149054906101000a900460ff1660ff1660ff1681526020016001820180546119b390614484565b80601f01602080910402602001604051908101604052809291908181526020018280546119df90614484565b8015611a2c5780601f10611a0157610100808354040283529160200191611a2c565b820191906000526020600020905b815481529060010190602001808311611a0f57829003601f168201915b5050505050815250508152505081525050905060008160e0015161ffff1667ffffffffffffffff811115611a6357611a62612f7b565b5b604051908082528060200260200182016040528015611a9c57816020015b611a89612baf565b815260200190600190039081611a815790505b50905060005b8260e0015161ffff168161ffff161015611b67576002600086815260200190815260200160002060008261ffff1661ffff168152602001908152602001600020604051806060016040529081600082015481526020016001820160009054906101000a900461ffff1661ffff1661ffff1681526020016001820160029054906101000a900460ff161515151581525050828261ffff1681518110611b4957611b486148f2565b5b60200260200101819052508080611b5f9061472c565b915050611aa2565b508092505050919050565b806000806101000a81548173ffffffffffffffffffffffffffffffffffffffff021916908373ffffffffffffffffffffffffffffffffffffffff16021790555050565b60006001600083815260200190815260200160002090508060010160009054906101000a900460ff16611c1d576040517f08c379a0000000000000000000000000000000000000000000000000000000008152600401611c14906149b9565b60405180910390fd5b8060080160020160000160009054906101000a900473ffffffffffffffffffffffffffffffffffffffff1673ffffffffffffffffffffffffffffffffffffffff163373ffffffffffffffffffffffffffffffffffffffff1614611cb5576040517f08c379a0000000000000000000000000000000000000000000000000000000008152600401611cac90614a4b565b60405180910390fd5b8060030160000160009054906101000a900460ff16611d09576040517f08c379a0000000000000000000000000000000000000000000000000000000008152600401611d0090614add565b60405180910390fd5b8060040160000160009054906101000a900460ff1615611d5e576040517f08c379a0000000000000000000000000000000000000000000000000000000008152600401611d5590614b49565b60405180910390fd5b60018160040160000160006101000a81548160ff0219169083151502179055507fd7ccd7452c937e788da90aab2116a1a57797f43756dbe22b9db97ae625cda5ff8233604051611daf929190613f78565b60405180910390a15050565b6060600060035467ffffffffffffffff811115611ddb57611dda612f7b565b5b604051908082528060200260200182016040528015611e1457816020015b611e01612bd6565b815260200190600190039081611df95790505b50905060005b60035481101561235f5760006001600083815260200190815260200160002090508060405180610140016040529081600082015481526020016001820160009054906101000a900460ff16151515158152602001600282016040518060400160405290816000820160009054906101000a900460ff161515151581526020016000820160019054906101000a900460ff1615151515815250508152602001600382016040518060200160405290816000820160009054906101000a900460ff1615151515815250508152602001600482016040518060200160405290816000820160009054906101000a900460ff1615151515815250508152602001600582016040518060400160405290816000820160009054906101000a900460ff161515151581526020016000820160019054906101000a900460ff1615151515815250508152602001600682016040518060200160405290816000820160009054906101000a900460ff16151515158152505081526020016007820160009054906101000a900461ffff1661ffff1661ffff1681526020016007820160029054906101000a900461ffff1661ffff1661ffff16815260200160088201604051806060016040529081600082016040518060600160405290816000820160009054906101000a900473ffffffffffffffffffffffffffffffffffffffff1673ffffffffffffffffffffffffffffffffffffffff1673ffffffffffffffffffffffffffffffffffffffff1681526020016000820160149054906101000a900460ff1660ff1660ff16815260200160018201805461207190614484565b80601f016020809104026020016040519081016040528092919081815260200182805461209d90614484565b80156120ea5780601f106120bf576101008083540402835291602001916120ea565b820191906000526020600020905b8154815290600101906020018083116120cd57829003601f168201915b5050505050815250508152602001600282016040518060600160405290816000820160009054906101000a900473ffffffffffffffffffffffffffffffffffffffff1673ffffffffffffffffffffffffffffffffffffffff1673ffffffffffffffffffffffffffffffffffffffff1681526020016000820160149054906101000a900460ff1660ff1660ff16815260200160018201805461218a90614484565b80601f01602080910402602001604051908101604052809291908181526020018280546121b690614484565b80156122035780601f106121d857610100808354040283529160200191612203565b820191906000526020600020905b8154815290600101906020018083116121e657829003601f168201915b5050505050815250508152602001600482016040518060600160405290816000820160009054906101000a900473ffffffffffffffffffffffffffffffffffffffff1673ffffffffffffffffffffffffffffffffffffffff1673ffffffffffffffffffffffffffffffffffffffff1681526020016000820160149054906101000a900460ff1660ff1660ff1681526020016001820180546122a390614484565b80601f01602080910402602001604051908101604052809291908181526020018280546122cf90614484565b801561231c5780601f106122f15761010080835404028352916020019161231c565b820191906000526020600020905b8154815290600101906020018083116122ff57829003601f168201915b50505050508152505081525050815250508383815181106123405761233f6148f2565b5b602002602001018190525050808061235790614b69565b915050611e1a565b508091505090565b60008054906101000a900473ffffffffffffffffffffffffffffffffffffffff1673ffffffffffffffffffffffffffffffffffffffff163373ffffffffffffffffffffffffffffffffffffffff16146123f5576040517f08c379a00000000000000000000000000000000000000000000000000000000081526004016123ec90614c23565b60405180910390fd5b6000600160008360000151815260200190815260200160002090508160000151816000018190555060008160010160006101000a81548160ff02191690831515021790555060008160020160000160016101000a81548160ff02191690831515021790555060008160020160000160006101000a81548160ff02191690831515021790555060008160030160000160006101000a81548160ff02191690831515021790555060008160040160000160006101000a81548160ff02191690831515021790555060008160050160000160006101000a81548160ff02191690831515021790555060008160050160000160016101000a81548160ff02191690831515021790555060008160060160000160006101000a81548160ff02191690831515021790555060008160070160006101000a81548161ffff021916908361ffff16021790555060008160070160026101000a81548161ffff021916908361ffff1602179055508160a001518160080160008201518160000160008201518160000160006101000a81548173ffffffffffffffffffffffffffffffffffffffff021916908373ffffffffffffffffffffffffffffffffffffffff16021790555060208201518160000160146101000a81548160ff021916908360ff16021790555060408201518160010190805190602001906125f0929190612c57565b50505060208201518160020160008201518160000160006101000a81548173ffffffffffffffffffffffffffffffffffffffff021916908373ffffffffffffffffffffffffffffffffffffffff16021790555060208201518160000160146101000a81548160ff021916908360ff1602179055506040820151816001019080519060200190612680929190612c57565b50505060408201518160040160008201518160000160006101000a81548173ffffffffffffffffffffffffffffffffffffffff021916908373ffffffffffffffffffffffffffffffffffffffff16021790555060208201518160000160146101000a81548160ff021916908360ff1602179055506040820151816001019080519060200190612710929190612c57565b5050509050506003600081548092919061272990614b69565b91905055507fb90e2d95045ce01190cfa032e64335c8342643b3c0d943efc945a755378e9839816000015460405161276191906140d8565b60405180910390a15050565b60006001600083815260200190815260200160002090508060010160009054906101000a900460ff166127d5576040517f08c379a00000000000000000000000000000000000000000000000000000000081526004016127cc90614cdb565b60405180910390fd5b8060080160040160000160009054906101000a900473ffffffffffffffffffffffffffffffffffffffff1673ffffffffffffffffffffffffffffffffffffffff163373ffffffffffffffffffffffffffffffffffffffff16148061288e57508060080160020160000160009054906101000a900473ffffffffffffffffffffffffffffffffffffffff1673ffffffffffffffffffffffffffffffffffffffff163373ffffffffffffffffffffffffffffffffffffffff16145b6128cd576040517f08c379a00000000000000000000000000000000000000000000000000000000081526004016128c490614d93565b60405180910390fd5b8060040160000160009054906101000a900460ff16612921576040517f08c379a000000000000000000000000000000000000000000000000000000000815260040161291890614e25565b60405180910390fd5b8060050160000160009054906101000a900460ff16158061295457508060050160000160019054906101000a900460ff16155b612993576040517f08c379a000000000000000000000000000000000000000000000000000000000815260040161298a90614eb7565b60405180910390fd5b8060080160020160000160009054906101000a900473ffffffffffffffffffffffffffffffffffffffff1673ffffffffffffffffffffffffffffffffffffffff163373ffffffffffffffffffffffffffffffffffffffff1603612a9f578060050160000160009054906101000a900460ff1615612a45576040517f08c379a0000000000000000000000000000000000000000000000000000000008152600401612a3c90614f49565b60405180910390fd5b60018160050160000160006101000a81548160ff0219169083151502179055507fb12f685160db7f40b0b9df5621142f02325c4f26e4b25ea7609029fdd1911f1b8233604051612a96929190613f78565b60405180910390a15b8060080160040160000160009054906101000a900473ffffffffffffffffffffffffffffffffffffffff1673ffffffffffffffffffffffffffffffffffffffff163373ffffffffffffffffffffffffffffffffffffffff1603612bab578060050160000160019054906101000a900460ff1615612b51576040517f08c379a0000000000000000000000000000000000000000000000000000000008152600401612b4890615001565b60405180910390fd5b60018160050160000160016101000a81548160ff0219169083151502179055507fb12f685160db7f40b0b9df5621142f02325c4f26e4b25ea7609029fdd1911f1b8233604051612ba29291906147fb565b60405180910390a15b5050565b604051806060016040528060008152602001600061ffff1681526020016000151581525090565b60405180610140016040528060008152602001600015158152602001612bfa612cdd565b8152602001612c07612cfb565b8152602001612c14612d10565b8152602001612c21612d25565b8152602001612c2e612d43565b8152602001600061ffff168152602001600061ffff168152602001612c51612d58565b81525090565b828054612c6390614484565b90600052602060002090601f016020900481019282612c855760008555612ccc565b82601f10612c9e57805160ff1916838001178555612ccc565b82800160010185558215612ccc579182015b82811115612ccb578251825591602001919060010190612cb0565b5b509050612cd99190612d8b565b5090565b60405180604001604052806000151581526020016000151581525090565b60405180602001604052806000151581525090565b60405180602001604052806000151581525090565b60405180604001604052806000151581526020016000151581525090565b60405180602001604052806000151581525090565b6040518060600160405280612d6b612da8565b8152602001612d78612da8565b8152602001612d85612da8565b81525090565b5b80821115612da4576000816000905550600101612d8c565b5090565b6040518060600160405280600073ffffffffffffffffffffffffffffffffffffffff168152602001600060ff168152602001606081525090565b6000604051905090565b600080fd5b600080fd5b6000819050919050565b612e0981612df6565b8114612e1457600080fd5b50565b600081359050612e2681612e00565b92915050565b600060208284031215612e4257612e41612dec565b5b6000612e5084828501612e17565b91505092915050565b600073ffffffffffffffffffffffffffffffffffffffff82169050919050565b6000612e8482612e59565b9050919050565b612e9481612e79565b82525050565b6000602082019050612eaf6000830184612e8b565b92915050565b60008115159050919050565b612eca81612eb5565b82525050565b6000602082019050612ee56000830184612ec1565b92915050565b600061ffff82169050919050565b612f0281612eeb565b8114612f0d57600080fd5b50565b600081359050612f1f81612ef9565b92915050565b60008060408385031215612f3c57612f3b612dec565b5b6000612f4a85828601612e17565b9250506020612f5b85828601612f10565b9150509250929050565b600080fd5b6000601f19601f8301169050919050565b7f4e487b7100000000000000000000000000000000000000000000000000000000600052604160045260246000fd5b612fb382612f6a565b810181811067ffffffffffffffff82111715612fd257612fd1612f7b565b5b80604052505050565b6000612fe5612de2565b9050612ff18282612faa565b919050565b600080fd5b600060ff82169050919050565b61301181612ffb565b811461301c57600080fd5b50565b60008135905061302e81613008565b92915050565b61303d81612e79565b811461304857600080fd5b50565b60008135905061305a81613034565b92915050565b600080fd5b600080fd5b600067ffffffffffffffff82111561308557613084612f7b565b5b61308e82612f6a565b9050602081019050919050565b82818337600083830152505050565b60006130bd6130b88461306a565b612fdb565b9050828152602081018484840111156130d9576130d8613065565b5b6130e484828561309b565b509392505050565b600082601f83011261310157613100613060565b5b81356131118482602086016130aa565b91505092915050565b600060a082840312156131305761312f612f65565b5b61313a60a0612fdb565b9050600061314a84828501612f10565b600083015250602061315e8482850161301f565b60208301525060406131728482850161304b565b604083015250606061318684828501612e17565b606083015250608082013567ffffffffffffffff8111156131aa576131a9612ff6565b5b6131b6848285016130ec565b60808301525092915050565b600080604083850312156131d9576131d8612dec565b5b60006131e785828601612e17565b925050602083013567ffffffffffffffff81111561320857613207612df1565b5b6132148582860161311a565b9150509250929050565b600081519050919050565b600082825260208201905092915050565b6000819050602082019050919050565b61325381612df6565b82525050565b61326281612eeb565b82525050565b61327181612eb5565b82525050565b60608201600082015161328d600085018261324a565b5060208201516132a06020850182613259565b5060408201516132b36040850182613268565b50505050565b60006132c58383613277565b60608301905092915050565b6000602082019050919050565b60006132e98261321e565b6132f38185613229565b93506132fe8361323a565b8060005b8381101561332f57815161331688826132b9565b9750613321836132d1565b925050600181019050613302565b5085935050505092915050565b6000602082019050818103600083015261335681846132de565b905092915050565b60006020828403121561337457613373612dec565b5b60006133828482850161304b565b91505092915050565b600081519050919050565b600082825260208201905092915050565b6000819050602082019050919050565b6040820160008201516133cd6000850182613268565b5060208201516133e06020850182613268565b50505050565b6020820160008201516133fc6000850182613268565b50505050565b6020820160008201516134186000850182613268565b50505050565b6040820160008201516134346000850182613268565b5060208201516134476020850182613268565b50505050565b6020820160008201516134636000850182613268565b50505050565b600061347482612e59565b9050919050565b61348481613469565b82525050565b61349381612ffb565b82525050565b600081519050919050565b600082825260208201905092915050565b60005b838110156134d35780820151818401526020810190506134b8565b838111156134e2576000848401525b50505050565b60006134f382613499565b6134fd81856134a4565b935061350d8185602086016134b5565b61351681612f6a565b840191505092915050565b6000606083016000830151613539600086018261347b565b50602083015161354c602086018261348a565b506040830151848203604086015261356482826134e8565b9150508091505092915050565b6000606083016000830151848203600086015261358e8282613521565b915050602083015184820360208601526135a88282613521565b915050604083015184820360408601526135c28282613521565b9150508091505092915050565b6000610180830160008301516135e8600086018261324a565b5060208301516135fb6020860182613268565b50604083015161360e60408601826133b7565b50606083015161362160808601826133e6565b50608083015161363460a0860182613402565b5060a083015161364760c086018261341e565b5060c083015161365b61010086018261344d565b5060e083015161366f610120860182613259565b50610100830151613684610140860182613259565b5061012083015184820361016086015261369e8282613571565b9150508091505092915050565b60006136b783836135cf565b905092915050565b6000602082019050919050565b60006136d78261338b565b6136e18185613396565b9350836020820285016136f3856133a7565b8060005b8581101561372f578484038952815161371085826136ab565b945061371b836136bf565b925060208a019950506001810190506136f7565b50829750879550505050505092915050565b6000602082019050818103600083015261375b81846136cc565b905092915050565b60006060828403121561377957613778612f65565b5b6137836060612fdb565b9050600082013567ffffffffffffffff8111156137a3576137a2612ff6565b5b6137af848285016130ec565b600083015250602082013567ffffffffffffffff8111156137d3576137d2612ff6565b5b6137df848285016130ec565b60208301525060406137f384828501612e17565b60408301525092915050565b61380881612eb5565b811461381357600080fd5b50565b600081359050613825816137ff565b92915050565b600060c0828403121561384157613840612f65565b5b61384b60c0612fdb565b9050600061385b84828501612e17565b600083015250602061386f84828501612e17565b602083015250604061388384828501612f10565b604083015250606061389784828501612f10565b60608301525060806138ab8482850161301f565b60808301525060a06138bf84828501613816565b60a08301525092915050565b6000604082840312156138e1576138e0612f65565b5b6138eb6040612fdb565b905060006138fb8482850161304b565b600083015250602082013567ffffffffffffffff81111561391f5761391e612ff6565b5b61392b848285016130ec565b60208301525092915050565b60006080828403121561394d5761394c612f65565b5b6139576080612fdb565b9050600082013567ffffffffffffffff81111561397757613976612ff6565b5b613983848285016130ec565b600083015250602082013567ffffffffffffffff8111156139a7576139a6612ff6565b5b6139b3848285016130ec565b602083015250604082013567ffffffffffffffff8111156139d7576139d6612ff6565b5b6139e3848285016130ec565b60408301525060606139f78482850161301f565b60608301525092915050565b613a0c81613469565b8114613a1757600080fd5b50565b600081359050613a2981613a03565b92915050565b600060608284031215613a4557613a44612f65565b5b613a4f6060612fdb565b90506000613a5f84828501613a1a565b6000830152506020613a738482850161301f565b602083015250604082013567ffffffffffffffff811115613a9757613a96612ff6565b5b613aa3848285016130ec565b60408301525092915050565b600060608284031215613ac557613ac4612f65565b5b613acf6060612fdb565b9050600082013567ffffffffffffffff811115613aef57613aee612ff6565b5b613afb84828501613a2f565b600083015250602082013567ffffffffffffffff811115613b1f57613b1e612ff6565b5b613b2b84828501613a2f565b602083015250604082013567ffffffffffffffff811115613b4f57613b4e612ff6565b5b613b5b84828501613a2f565b60408301525092915050565b60006101608284031215613b7e57613b7d612f65565b5b613b8860c0612fdb565b90506000613b9884828501612e17565b600083015250602082013567ffffffffffffffff811115613bbc57613bbb612ff6565b5b613bc884828501613763565b6020830152506040613bdc8482850161382b565b60408301525061010082013567ffffffffffffffff811115613c0157613c00612ff6565b5b613c0d848285016138cb565b60608301525061012082013567ffffffffffffffff811115613c3257613c31612ff6565b5b613c3e84828501613937565b60808301525061014082013567ffffffffffffffff811115613c6357613c62612ff6565b5b613c6f84828501613aaf565b60a08301525092915050565b600060208284031215613c9157613c90612dec565b5b600082013567ffffffffffffffff811115613caf57613cae612df1565b5b613cbb84828501613b67565b91505092915050565b600082825260208201905092915050565b7f54686520737570706c7920636861696e206d757374206265207374617274656460008201527f206265666f7265206d61726b696e672074686520616e696d616c20617320707260208201527f6f63657373656400000000000000000000000000000000000000000000000000604082015250565b6000613d57604783613cc4565b9150613d6282613cd5565b606082019050919050565b60006020820190508181036000830152613d8681613d4a565b9050919050565b7f4f6e6c792074686520627574636865722063616e206d61726b2074686520616e60008201527f696d616c2061732070726f636573736564000000000000000000000000000000602082015250565b6000613de9603183613cc4565b9150613df482613d8d565b604082019050919050565b60006020820190508181036000830152613e1881613ddc565b9050919050565b7f54686520616e696d616c206d7573742062652064656c6976657265642062656660008201527f6f7265206265696e672070726f63657373656400000000000000000000000000602082015250565b6000613e7b603383613cc4565b9150613e8682613e1f565b604082019050919050565b60006020820190508181036000830152613eaa81613e6e565b9050919050565b7f54686520616e696d616c20697320616c72656164792070726f63657373656400600082015250565b6000613ee7601f83613cc4565b9150613ef282613eb1565b602082019050919050565b60006020820190508181036000830152613f1681613eda565b9050919050565b613f2681612df6565b82525050565b7f6275746368657200000000000000000000000000000000000000000000000000600082015250565b6000613f62600783613cc4565b9150613f6d82613f2c565b602082019050919050565b6000606082019050613f8d6000830185613f1d565b8181036020830152613f9e81613f55565b9050613fad6040830184612e8b565b9392505050565b7f4f6e6c79207468652063726f776466756e64696e6720636f6e7472616374206360008201527f616e207374617274206120737570706c7920636861696e000000000000000000602082015250565b6000614010603783613cc4565b915061401b82613fb4565b604082019050919050565b6000602082019050818103600083015261403f81614003565b9050919050565b7f54686520737570706c7920636861696e20697320616c7265616479207374617260008201527f7465640000000000000000000000000000000000000000000000000000000000602082015250565b60006140a2602383613cc4565b91506140ad82614046565b604082019050919050565b600060208201905081810360008301526140d181614095565b9050919050565b60006020820190506140ed6000830184613f1d565b92915050565b7f54686520737570706c7920636861696e206d757374206265207374617274656460008201527f206265666f7265206d61726b696e672074686520616e696d616c20617320646560208201527f6c69766572656400000000000000000000000000000000000000000000000000604082015250565b6000614175604783613cc4565b9150614180826140f3565b606082019050919050565b600060208201905081810360008301526141a481614168565b9050919050565b7f4f6e6c7920746865206661726d657220616e642074686520627574636865722060008201527f63616e206d61726b2074686520616e696d616c2061732064656c697665726564602082015250565b6000614207604083613cc4565b9150614212826141ab565b604082019050919050565b60006020820190508181036000830152614236816141fa565b9050919050565b7f54686520616e696d616c20697320616c72656164792064656c69766572656400600082015250565b6000614273601f83613cc4565b915061427e8261423d565b602082019050919050565b600060208201905081810360008301526142a281614266565b9050919050565b7f54686520616e696d616c20697320616c7265616479206d61726b65642061732060008201527f64656c6976657265642066726f6d20746865206661726d657200000000000000602082015250565b6000614305603983613cc4565b9150614310826142a9565b604082019050919050565b60006020820190508181036000830152614334816142f8565b9050919050565b7f6661726d65720000000000000000000000000000000000000000000000000000600082015250565b6000614371600683613cc4565b915061437c8261433b565b602082019050919050565b600060608201905061439c6000830185613f1d565b81810360208301526143ad81614364565b90506143bc6040830184612e8b565b9392505050565b7f54686520616e696d616c20697320616c7265616479206d61726b65642061732060008201527f64656c6976657265642066726f6d207468652062757463686572000000000000602082015250565b600061441f603a83613cc4565b915061442a826143c3565b604082019050919050565b6000602082019050818103600083015261444e81614412565b9050919050565b7f4e487b7100000000000000000000000000000000000000000000000000000000600052602260045260246000fd5b6000600282049050600182168061449c57607f821691505b6020821081036144af576144ae614455565b5b50919050565b7f54686520737570706c7920636861696e206d757374206265207374617274656460008201527f206265666f7265206d61726b696e67206120626f782061732064656c6976657260208201527f6564000000000000000000000000000000000000000000000000000000000000604082015250565b6000614537604283613cc4565b9150614542826144b5565b606082019050919050565b600060208201905081810360008301526145668161452a565b9050919050565b7f4f6e6c79207468652064656c697665727920736572766963652063616e206d6160008201527f726b206120626f782061732064656c6976657265640000000000000000000000602082015250565b60006145c9603583613cc4565b91506145d48261456d565b604082019050919050565b600060208201905081810360008301526145f8816145bc565b9050919050565b7f426f786573206d757374206265206469737472696275746564206265666f726560008201527f206265696e672064656c69766572656400000000000000000000000000000000602082015250565b600061465b603083613cc4565b9150614666826145ff565b604082019050919050565b6000602082019050818103600083015261468a8161464e565b9050919050565b7f54686520626f7820697320616c72656164792064656c69766572656400000000600082015250565b60006146c7601c83613cc4565b91506146d282614691565b602082019050919050565b600060208201905081810360008301526146f6816146ba565b9050919050565b7f4e487b7100000000000000000000000000000000000000000000000000000000600052601160045260246000fd5b600061473782612eeb565b915061ffff820361474b5761474a6146fd565b5b600182019050919050565b61475f81612eeb565b82525050565b7f64656c6976657279000000000000000000000000000000000000000000000000600082015250565b600061479b600883613cc4565b91506147a682614765565b602082019050919050565b60006080820190506147c66000830186613f1d565b6147d36020830185614756565b81810360408301526147e48161478e565b90506147f36060830184612e8b565b949350505050565b60006060820190506148106000830185613f1d565b81810360208301526148218161478e565b90506148306040830184612e8b565b9392505050565b7f4f6e6c79207468652063726f776466756e64696e6720636f6e7472616374206360008201527f616e20616464206120626f7820746f206120737570706c7920636861696e0000602082015250565b6000614893603e83613cc4565b915061489e82614837565b604082019050919050565b600060208201905081810360008301526148c281614886565b9050919050565b60006040820190506148de6000830185613f1d565b6148eb6020830184614756565b9392505050565b7f4e487b7100000000000000000000000000000000000000000000000000000000600052603260045260246000fd5b7f54686520737570706c7920636861696e206d757374206265207374617274656460008201527f206265666f7265206d61726b696e67206120626f782061732070726f6365737360208201527f6564000000000000000000000000000000000000000000000000000000000000604082015250565b60006149a3604283613cc4565b91506149ae82614921565b606082019050919050565b600060208201905081810360008301526149d281614996565b9050919050565b7f4f6e6c792074686520627574636865722063616e206d61726b206120626f782060008201527f61732070726f6365737365640000000000000000000000000000000000000000602082015250565b6000614a35602c83613cc4565b9150614a40826149d9565b604082019050919050565b60006020820190508181036000830152614a6481614a28565b9050919050565b7f54686520616e696d616c206d7573742062652070726f6365737365642062656660008201527f6f726520707265706172696e6720626f78657300000000000000000000000000602082015250565b6000614ac7603383613cc4565b9150614ad282614a6b565b604082019050919050565b60006020820190508181036000830152614af681614aba565b9050919050565b7f54686520626f7865732061726520616c72656164792070726f63657373656400600082015250565b6000614b33601f83613cc4565b9150614b3e82614afd565b602082019050919050565b60006020820190508181036000830152614b6281614b26565b9050919050565b6000614b7482612df6565b91507fffffffffffffffffffffffffffffffffffffffffffffffffffffffffffffffff8203614ba657614ba56146fd565b5b600182019050919050565b7f4f6e6c79207468652063726f776466756e64696e6720636f6e7472616374206360008201527f616e20637265617465206120737570706c7920636861696e0000000000000000602082015250565b6000614c0d603883613cc4565b9150614c1882614bb1565b604082019050919050565b60006020820190508181036000830152614c3c81614c00565b9050919050565b7f54686520737570706c7920636861696e206d757374206265207374617274656460008201527f206265666f7265206d61726b696e67206120626f78206173206469737472696260208201527f7574656400000000000000000000000000000000000000000000000000000000604082015250565b6000614cc5604483613cc4565b9150614cd082614c43565b606082019050919050565b60006020820190508181036000830152614cf481614cb8565b9050919050565b7f4f6e6c7920746865206275746368657220616e64207468652064656c6976657260008201527f7920736572766963652063616e206d61726b206120626f78206173206469737460208201527f7269627574656400000000000000000000000000000000000000000000000000604082015250565b6000614d7d604783613cc4565b9150614d8882614cfb565b606082019050919050565b60006020820190508181036000830152614dac81614d70565b9050919050565b7f426f786573206d757374206265207072657061726564206265666f726520626560008201527f696e672064697374726962757465640000000000000000000000000000000000602082015250565b6000614e0f602f83613cc4565b9150614e1a82614db3565b604082019050919050565b60006020820190508181036000830152614e3e81614e02565b9050919050565b7f54686520626f7865732061726520616c7265616479206469737472696275746560008201527f6400000000000000000000000000000000000000000000000000000000000000602082015250565b6000614ea1602183613cc4565b9150614eac82614e45565b604082019050919050565b60006020820190508181036000830152614ed081614e94565b9050919050565b7f54686520626f7865732061726520616c7265616479206d61726b65642061732060008201527f64697374726962757465642066726f6d20746865206275746368657200000000602082015250565b6000614f33603c83613cc4565b9150614f3e82614ed7565b604082019050919050565b60006020820190508181036000830152614f6281614f26565b9050919050565b7f54686520626f7865732061726520616c7265616479206d61726b65642061732060008201527f64697374726962757465642066726f6d207468652064656c697665727920736560208201527f7276696365000000000000000000000000000000000000000000000000000000604082015250565b6000614feb604583613cc4565b9150614ff682614f69565b606082019050919050565b6000602082019050818103600083015261501a81614fde565b905091905056fea2646970667358221220250e8b0c67fa0953d022b347e8a5b2ff79782a7c27b72090b62392736e1ce68164736f6c634300080d0033",
  "immutableReferences": {},
  "source": "// SPDX-License-Identifier: AGPL\npragma solidity ^0.8.13;\n\nimport \"./SupplyChainsTypes.sol\";\nimport \"./CrowdfundingTypes.sol\";\nimport \"./Crowdfunding.sol\";\n\ncontract SupplyChains {\n  // address of the crowdfunding contract\n  address public crowdfundingAddress;\n\n  mapping(uint256 => SupplyChain) supplychains;\n\n  mapping(uint256 => mapping(uint16 => BoxStatus)) boxesStatus;\n\n  uint256 NumberOfSupplyChains = 0;\n\n  // Add the address of the crowdfunding contract\n  function setCrowdfundingAddress(address _crowdfundingAddress) public {\n    crowdfundingAddress = _crowdfundingAddress;\n  }\n\n  // Events\n  event SupplyChainCreated(uint256 campaignRef);\n  event NewBox(uint256 campaignRef, uint16 SellRefId);\n  event SupplyChainStarted(uint256 campaignRef);\n  event AnimalMarkedAsDelivered(uint256 campaignRef, string user, address userAddress);\n  event AnimalMarkedAsProcessed(uint256 campaignRef, string user, address userAddress);\n  event BoxesMarkedAsProcessed(uint256 campaignRef, string user, address userAddress);\n  event BoxesMarkedAsDistributed(uint256 campaignRef, string user, address userAddress);\n  event BoxMarkedAsDelivered(uint256 campaignRef, uint16 boxId, string user, address userAddress);\n  event BoxesMarkedAsDelivered(uint256 campaignRef, string user, address userAddress);\n\n  /**\n  * Create a supply chain related to a campaign\n  */\n  function createSupplyChain(Campaign memory _campaign) external {\n    require(msg.sender == crowdfundingAddress, \"Only the crowdfunding contract can create a supply chain\");\n\n    SupplyChain storage supplychain = supplychains[_campaign.id];\n\n    supplychain.campaignRef = _campaign.id;\n    supplychain.isStarted = false;\n    supplychain.isAnimalDelivered.butcher = false;\n    supplychain.isAnimalDelivered.farmer = false;\n    supplychain.isAnimalProcessed.butcher = false;\n    supplychain.areBoxesProcessed.butcher = false;\n    supplychain.areBoxesDistributed.butcher = false;\n    supplychain.areBoxesDistributed.delivery = false;\n    supplychain.areBoxesDelivered.delivery = false;\n    supplychain.totalBoxes = 0;\n    supplychain.deliveredBoxes = 0;\n\n    // import stakeholders from campaign\n    supplychain.stakeholders = _campaign.stakeholders;\n\n    NumberOfSupplyChains++;\n\n    emit SupplyChainCreated(supplychain.campaignRef);\n  }\n\n  /**\n  * Add a sold box to a supply chain\n  */\n  function addBox(uint256 _campaignRef, BoxSellRef memory _box) external {\n    require(msg.sender == crowdfundingAddress, \"Only the crowdfunding contract can add a box to a supply chain\");\n\n    SupplyChain storage supplychain = supplychains[_campaignRef];\n\n    boxesStatus[_campaignRef][_box.id].campaignRef = _campaignRef;\n    boxesStatus[_campaignRef][_box.id].boxId = _box.id;\n    boxesStatus[_campaignRef][_box.id].isDelivered = false;\n\n    supplychain.totalBoxes++;\n\n    emit NewBox(_campaignRef, _box.id);\n  }\n  \n  /**\n  * Mark a supply chain as started\n  */\n  function startSupplyChain(uint256 _campaignRef) external {\n    require(msg.sender == crowdfundingAddress, \"Only the crowdfunding contract can start a supply chain\");\n    \n    SupplyChain storage supplychain = supplychains[_campaignRef];\n\n    require(!supplychain.isStarted, \"The supply chain is already started\");\n    supplychain.isStarted = true;\n    emit SupplyChainStarted(_campaignRef);\n  }\n\n  /**\n  * Returns all supply chains\n  */\n  function getSupplyChains() public view returns (SupplyChain[] memory) {\n    SupplyChain[] memory allSupplychains = new SupplyChain[](NumberOfSupplyChains);\n    for (uint256 index = 0; index < NumberOfSupplyChains; index++) {\n      SupplyChain storage supplychain = supplychains[index];\n      allSupplychains[index] = supplychain;\n    }\n    return allSupplychains;\n  }\n\n  /**\n  * Returns all boxes status of a specific campaign\n  */\n  function getBoxesStatus(uint256 _campaignRef) public view returns (BoxStatus[] memory) {\n    SupplyChain memory supplychain = supplychains[_campaignRef];\n    BoxStatus[] memory boxesStatuses = new BoxStatus[](supplychain.totalBoxes);\n    for (uint16 index = 0; index < supplychain.totalBoxes; index++) {\n      boxesStatuses[index] = boxesStatus[_campaignRef][index];\n    }\n    return boxesStatuses;\n  }\n\n  /**\n  * Mark the animal of a campaign as delivered (to the butcher)\n  */\n  function markAnimalAsDelivered(uint256 _campaignRef) public {\n    SupplyChain storage supplychain = supplychains[_campaignRef];\n    require(supplychain.isStarted, \"The supply chain must be started before marking the animal as delivered\");\n    require(\n      (msg.sender == supplychain.stakeholders.farmer.owner) || (msg.sender == supplychain.stakeholders.butcher.owner),\n      \"Only the farmer and the butcher can mark the animal as delivered\"\n    );\n    require(!supplychain.isAnimalDelivered.farmer || !supplychain.isAnimalDelivered.butcher, \"The animal is already delivered\");\n\n    if (msg.sender == supplychain.stakeholders.farmer.owner) {\n      require(!supplychain.isAnimalDelivered.farmer, \"The animal is already marked as delivered from the farmer\");\n\n      supplychain.isAnimalDelivered.farmer = true;\n      emit AnimalMarkedAsDelivered(_campaignRef, \"farmer\", msg.sender);\n    }\n    if (msg.sender == supplychain.stakeholders.butcher.owner) {\n      require(!supplychain.isAnimalDelivered.butcher, \"The animal is already marked as delivered from the butcher\");\n\n      supplychain.isAnimalDelivered.butcher = true;\n      emit AnimalMarkedAsDelivered(_campaignRef, \"butcher\", msg.sender);\n    }\n  }\n\n  /**\n  * Mark the animal as processed by the butcher\n  */\n  function markAnimalAsProcessed(uint256 _campaignRef) public {\n    SupplyChain storage supplychain = supplychains[_campaignRef];\n\n    require(supplychain.isStarted, \"The supply chain must be started before marking the animal as processed\");\n    require(msg.sender == supplychain.stakeholders.butcher.owner, \"Only the butcher can mark the animal as processed\");\n    require((supplychain.isAnimalDelivered.butcher && supplychain.isAnimalDelivered.farmer), \"The animal must be delivered before being processed\");\n    require(!supplychain.isAnimalProcessed.butcher, \"The animal is already processed\");\n\n    supplychain.isAnimalProcessed.butcher = true;\n    emit AnimalMarkedAsProcessed(_campaignRef, \"butcher\", msg.sender);\n  }\n\n  /**\n  * Mark boxes as processed by the butcher\n  */\n  function markBoxesAsProcessed(uint256 _campaignRef) public {\n    SupplyChain storage supplychain = supplychains[_campaignRef];\n\n    require(supplychain.isStarted, \"The supply chain must be started before marking a box as processed\");\n    require(msg.sender == supplychain.stakeholders.butcher.owner, \"Only the butcher can mark a box as processed\");\n    require(supplychain.isAnimalProcessed.butcher, \"The animal must be processed before preparing boxes\");\n    require(!supplychain.areBoxesProcessed.butcher, \"The boxes are already processed\");\n\n    supplychain.areBoxesProcessed.butcher = true;\n    emit BoxesMarkedAsProcessed(_campaignRef, \"butcher\", msg.sender);\n  }\n\n  /**\n  * Mark boxes as distributed from the butcher to the delivery service\n  */\n  function markBoxesAsDistributed(uint256 _campaignRef) public {\n    SupplyChain storage supplychain = supplychains[_campaignRef];\n\n    require(supplychain.isStarted, \"The supply chain must be started before marking a box as distributed\");\n    require(\n      (msg.sender == supplychain.stakeholders.delivery.owner) || (msg.sender == supplychain.stakeholders.butcher.owner),\n      \"Only the butcher and the delivery service can mark a box as distributed\");\n    require(supplychain.areBoxesProcessed.butcher, \"Boxes must be prepared before being distributed\");\n    require(\n      (!supplychain.areBoxesDistributed.butcher || !supplychain.areBoxesDistributed.delivery),\n      \"The boxes are already distributed\");\n\n    if (msg.sender == supplychain.stakeholders.butcher.owner) {\n      require(!supplychain.areBoxesDistributed.butcher, \"The boxes are already marked as distributed from the butcher\");\n\n      supplychain.areBoxesDistributed.butcher = true;\n      emit BoxesMarkedAsDistributed(_campaignRef, \"butcher\", msg.sender);\n    }\n\n    if (msg.sender == supplychain.stakeholders.delivery.owner) {\n      require(!supplychain.areBoxesDistributed.delivery, \"The boxes are already marked as distributed from the delivery service\");\n\n      supplychain.areBoxesDistributed.delivery = true;\n      emit BoxesMarkedAsDistributed(_campaignRef, \"delivery\", msg.sender);\n    }\n  }\n\n  /**\n  * Mark a box as delivered by the delivery service\n  */\n  function markBoxAsDelivered(uint256 _campaignRef, uint16 _boxId) public {\n    SupplyChain storage supplychain = supplychains[_campaignRef];\n\n    require(supplychain.isStarted, \"The supply chain must be started before marking a box as delivered\");\n    require(msg.sender == supplychain.stakeholders.delivery.owner, \"Only the delivery service can mark a box as delivered\");\n    require(\n      supplychain.areBoxesDistributed.butcher && supplychain.areBoxesDistributed.delivery,\n      \"Boxes must be distributed before being delivered\");\n    require(!boxesStatus[_campaignRef][_boxId].isDelivered, \"The box is already delivered\");\n\n    boxesStatus[_campaignRef][_boxId].isDelivered = true;\n\n    supplychain.deliveredBoxes++;\n    emit BoxMarkedAsDelivered(_campaignRef, _boxId, \"delivery\", msg.sender);\n\n    if(supplychain.totalBoxes == supplychain.deliveredBoxes) {\n      supplychain.areBoxesDelivered.delivery = true;\n      emit BoxesMarkedAsDelivered(_campaignRef, \"delivery\", msg.sender);\n\n      Crowdfunding(crowdfundingAddress).payOut(_campaignRef);\n    }\n  }\n\n  /**\n  * Check if the supply chain is completed\n  */\n  function isCompleted(uint256 _campaignRef) external view returns (bool) {\n    SupplyChain memory supplychain = supplychains[_campaignRef];\n    return (\n      supplychain.isAnimalDelivered.farmer &&\n      supplychain.isAnimalDelivered.butcher &&\n      supplychain.isAnimalProcessed.butcher &&\n      supplychain.areBoxesProcessed.butcher &&\n      supplychain.areBoxesDistributed.butcher &&\n      supplychain.areBoxesDistributed.delivery &&\n      supplychain.areBoxesDelivered.delivery);\n  }\n}\n",
  "sourcePath": "/Users/cassolseba/VSCode/blockchain/146157_Blockchain/smart_contracts/contracts/SupplyChains.sol",
  "compiler": {
    "name": "solc",
    "version": "0.8.13+commit.abaa5c0e.Emscripten.clang"
  },
  "schemaVersion": "3.4.14",
  "updatedAt": "2023-08-19T09:19:59.129Z",
  "devdoc": {
    "kind": "dev",
    "methods": {},
    "version": 1
  },
  "userdoc": {
    "kind": "user",
    "methods": {
      "addBox(uint256,(uint16,uint8,address,uint256,string))": {
        "notice": "Add a sold box to a supply chain"
      },
      "createSupplyChain((uint256,(string,string,uint256),(uint256,uint256,uint16,uint16,uint8,bool),(address,string),(string,string,string,uint8),((address,uint8,string),(address,uint8,string),(address,uint8,string))))": {
        "notice": "Create a supply chain related to a campaign"
      },
      "getBoxesStatus(uint256)": {
        "notice": "Returns all boxes status of a specific campaign"
      },
      "getSupplyChains()": {
        "notice": "Returns all supply chains"
      },
      "isCompleted(uint256)": {
        "notice": "Check if the supply chain is completed"
      },
      "markAnimalAsDelivered(uint256)": {
        "notice": "Mark the animal of a campaign as delivered (to the butcher)"
      },
      "markAnimalAsProcessed(uint256)": {
        "notice": "Mark the animal as processed by the butcher"
      },
      "markBoxAsDelivered(uint256,uint16)": {
        "notice": "Mark a box as delivered by the delivery service"
      },
      "markBoxesAsDistributed(uint256)": {
        "notice": "Mark boxes as distributed from the butcher to the delivery service"
      },
      "markBoxesAsProcessed(uint256)": {
        "notice": "Mark boxes as processed by the butcher"
      },
      "startSupplyChain(uint256)": {
        "notice": "Mark a supply chain as started"
      }
    },
    "version": 1
  }
}