{
  "contractName": "SupplyChains",
  "abi": [
    {
      "inputs": [],
      "name": "NumberOfSupplyChains",
      "outputs": [
        {
          "internalType": "uint256",
          "name": "",
          "type": "uint256"
        }
      ],
      "stateMutability": "view",
      "type": "function"
    },
    {
      "inputs": [
        {
          "internalType": "uint256",
          "name": "",
          "type": "uint256"
        }
      ],
      "name": "supplychains",
      "outputs": [
        {
          "internalType": "uint256",
          "name": "campaignRef",
          "type": "uint256"
        },
        {
          "components": [
            {
              "internalType": "bool",
              "name": "farmer",
              "type": "bool"
            },
            {
              "internalType": "bool",
              "name": "butcher",
              "type": "bool"
            }
          ],
          "internalType": "struct AnimalDeliverStatus",
          "name": "isAnimalDelivered",
          "type": "tuple"
        },
        {
          "components": [
            {
              "internalType": "bool",
              "name": "butcher",
              "type": "bool"
            }
          ],
          "internalType": "struct AnimalProcessStatus",
          "name": "isAnimalProcessed",
          "type": "tuple"
        },
        {
          "components": [
            {
              "internalType": "bool",
              "name": "butcher",
              "type": "bool"
            }
          ],
          "internalType": "struct BoxProcessStatus",
          "name": "areBoxesProcessed",
          "type": "tuple"
        },
        {
          "components": [
            {
              "internalType": "bool",
              "name": "butcher",
              "type": "bool"
            },
            {
              "internalType": "bool",
              "name": "delivery",
              "type": "bool"
            }
          ],
          "internalType": "struct BoxDistributionStatus",
          "name": "areBoxesDistributed",
          "type": "tuple"
        },
        {
          "components": [
            {
              "internalType": "bool",
              "name": "delivery",
              "type": "bool"
            }
          ],
          "internalType": "struct BoxDeliverStatus",
          "name": "areBoxesDelivered",
          "type": "tuple"
        },
        {
          "internalType": "uint256",
          "name": "totalBoxes",
          "type": "uint256"
        },
        {
          "internalType": "uint256",
          "name": "processedBoxes",
          "type": "uint256"
        },
        {
          "internalType": "uint256",
          "name": "distributedBoxes",
          "type": "uint256"
        },
        {
          "internalType": "uint256",
          "name": "deliveredBoxes",
          "type": "uint256"
        },
        {
          "components": [
            {
              "components": [
                {
                  "internalType": "address payable",
                  "name": "owner",
                  "type": "address"
                },
                {
                  "internalType": "uint8",
                  "name": "share",
                  "type": "uint8"
                },
                {
                  "internalType": "string",
                  "name": "info",
                  "type": "string"
                }
              ],
              "internalType": "struct Stakeholder",
              "name": "farmer",
              "type": "tuple"
            },
            {
              "components": [
                {
                  "internalType": "address payable",
                  "name": "owner",
                  "type": "address"
                },
                {
                  "internalType": "uint8",
                  "name": "share",
                  "type": "uint8"
                },
                {
                  "internalType": "string",
                  "name": "info",
                  "type": "string"
                }
              ],
              "internalType": "struct Stakeholder",
              "name": "butcher",
              "type": "tuple"
            },
            {
              "components": [
                {
                  "internalType": "address payable",
                  "name": "owner",
                  "type": "address"
                },
                {
                  "internalType": "uint8",
                  "name": "share",
                  "type": "uint8"
                },
                {
                  "internalType": "string",
                  "name": "info",
                  "type": "string"
                }
              ],
              "internalType": "struct Stakeholder",
              "name": "delivery",
              "type": "tuple"
            }
          ],
          "internalType": "struct StakeholderList",
          "name": "stakeholders",
          "type": "tuple"
        }
      ],
      "stateMutability": "view",
      "type": "function"
    },
    {
      "inputs": [
        {
          "components": [
            {
              "internalType": "uint256",
              "name": "id",
              "type": "uint256"
            },
            {
              "components": [
                {
                  "internalType": "string",
                  "name": "title",
                  "type": "string"
                },
                {
                  "internalType": "string",
                  "name": "description",
                  "type": "string"
                },
                {
                  "internalType": "uint256",
                  "name": "deadline",
                  "type": "uint256"
                }
              ],
              "internalType": "struct CampaignInfo",
              "name": "info",
              "type": "tuple"
            },
            {
              "components": [
                {
                  "internalType": "uint256",
                  "name": "collectedAmount",
                  "type": "uint256"
                },
                {
                  "internalType": "uint256",
                  "name": "createdAt",
                  "type": "uint256"
                },
                {
                  "internalType": "uint16",
                  "name": "totalBoxes",
                  "type": "uint16"
                },
                {
                  "internalType": "uint16",
                  "name": "boxesSold",
                  "type": "uint16"
                },
                {
                  "internalType": "uint8",
                  "name": "totalBoxTypes",
                  "type": "uint8"
                },
                {
                  "internalType": "bool",
                  "name": "isStopped",
                  "type": "bool"
                }
              ],
              "internalType": "struct CampaignMeta",
              "name": "meta",
              "type": "tuple"
            },
            {
              "components": [
                {
                  "internalType": "address",
                  "name": "owner",
                  "type": "address"
                },
                {
                  "internalType": "string",
                  "name": "ownerPublicKey",
                  "type": "string"
                }
              ],
              "internalType": "struct CampaignOwner",
              "name": "owner",
              "type": "tuple"
            },
            {
              "components": [
                {
                  "internalType": "string",
                  "name": "earTag",
                  "type": "string"
                },
                {
                  "internalType": "string",
                  "name": "name",
                  "type": "string"
                },
                {
                  "internalType": "string",
                  "name": "farm",
                  "type": "string"
                },
                {
                  "internalType": "uint8",
                  "name": "age",
                  "type": "uint8"
                }
              ],
              "internalType": "struct CampaignAnimalData",
              "name": "animal",
              "type": "tuple"
            },
            {
              "components": [
                {
                  "components": [
                    {
                      "internalType": "address payable",
                      "name": "owner",
                      "type": "address"
                    },
                    {
                      "internalType": "uint8",
                      "name": "share",
                      "type": "uint8"
                    },
                    {
                      "internalType": "string",
                      "name": "info",
                      "type": "string"
                    }
                  ],
                  "internalType": "struct Stakeholder",
                  "name": "farmer",
                  "type": "tuple"
                },
                {
                  "components": [
                    {
                      "internalType": "address payable",
                      "name": "owner",
                      "type": "address"
                    },
                    {
                      "internalType": "uint8",
                      "name": "share",
                      "type": "uint8"
                    },
                    {
                      "internalType": "string",
                      "name": "info",
                      "type": "string"
                    }
                  ],
                  "internalType": "struct Stakeholder",
                  "name": "butcher",
                  "type": "tuple"
                },
                {
                  "components": [
                    {
                      "internalType": "address payable",
                      "name": "owner",
                      "type": "address"
                    },
                    {
                      "internalType": "uint8",
                      "name": "share",
                      "type": "uint8"
                    },
                    {
                      "internalType": "string",
                      "name": "info",
                      "type": "string"
                    }
                  ],
                  "internalType": "struct Stakeholder",
                  "name": "delivery",
                  "type": "tuple"
                }
              ],
              "internalType": "struct StakeholderList",
              "name": "stakeholders",
              "type": "tuple"
            }
          ],
          "internalType": "struct Campaign",
          "name": "_campaign",
          "type": "tuple"
        },
        {
          "components": [
            {
              "internalType": "uint16",
              "name": "id",
              "type": "uint16"
            },
            {
              "internalType": "uint8",
              "name": "boxId",
              "type": "uint8"
            },
            {
              "internalType": "address",
              "name": "owner",
              "type": "address"
            },
            {
              "internalType": "uint256",
              "name": "boughtAt",
              "type": "uint256"
            },
            {
              "internalType": "string",
              "name": "physAddress",
              "type": "string"
            }
          ],
          "internalType": "struct BoxSellRef[]",
          "name": "_boxes",
          "type": "tuple[]"
        }
      ],
      "name": "StartSupplyChain",
      "outputs": [],
      "stateMutability": "nonpayable",
      "type": "function"
    },
    {
      "inputs": [],
      "name": "getSupplyChains",
      "outputs": [
        {
          "components": [
            {
              "internalType": "uint256",
              "name": "campaignRef",
              "type": "uint256"
            },
            {
              "components": [
                {
                  "internalType": "bool",
                  "name": "farmer",
                  "type": "bool"
                },
                {
                  "internalType": "bool",
                  "name": "butcher",
                  "type": "bool"
                }
              ],
              "internalType": "struct AnimalDeliverStatus",
              "name": "isAnimalDelivered",
              "type": "tuple"
            },
            {
              "components": [
                {
                  "internalType": "bool",
                  "name": "butcher",
                  "type": "bool"
                }
              ],
              "internalType": "struct AnimalProcessStatus",
              "name": "isAnimalProcessed",
              "type": "tuple"
            },
            {
              "components": [
                {
                  "internalType": "bool",
                  "name": "butcher",
                  "type": "bool"
                }
              ],
              "internalType": "struct BoxProcessStatus",
              "name": "areBoxesProcessed",
              "type": "tuple"
            },
            {
              "components": [
                {
                  "internalType": "bool",
                  "name": "butcher",
                  "type": "bool"
                },
                {
                  "internalType": "bool",
                  "name": "delivery",
                  "type": "bool"
                }
              ],
              "internalType": "struct BoxDistributionStatus",
              "name": "areBoxesDistributed",
              "type": "tuple"
            },
            {
              "components": [
                {
                  "internalType": "bool",
                  "name": "delivery",
                  "type": "bool"
                }
              ],
              "internalType": "struct BoxDeliverStatus",
              "name": "areBoxesDelivered",
              "type": "tuple"
            },
            {
              "internalType": "uint256",
              "name": "totalBoxes",
              "type": "uint256"
            },
            {
              "internalType": "uint256",
              "name": "processedBoxes",
              "type": "uint256"
            },
            {
              "internalType": "uint256",
              "name": "distributedBoxes",
              "type": "uint256"
            },
            {
              "internalType": "uint256",
              "name": "deliveredBoxes",
              "type": "uint256"
            },
            {
              "components": [
                {
                  "components": [
                    {
                      "internalType": "address payable",
                      "name": "owner",
                      "type": "address"
                    },
                    {
                      "internalType": "uint8",
                      "name": "share",
                      "type": "uint8"
                    },
                    {
                      "internalType": "string",
                      "name": "info",
                      "type": "string"
                    }
                  ],
                  "internalType": "struct Stakeholder",
                  "name": "farmer",
                  "type": "tuple"
                },
                {
                  "components": [
                    {
                      "internalType": "address payable",
                      "name": "owner",
                      "type": "address"
                    },
                    {
                      "internalType": "uint8",
                      "name": "share",
                      "type": "uint8"
                    },
                    {
                      "internalType": "string",
                      "name": "info",
                      "type": "string"
                    }
                  ],
                  "internalType": "struct Stakeholder",
                  "name": "butcher",
                  "type": "tuple"
                },
                {
                  "components": [
                    {
                      "internalType": "address payable",
                      "name": "owner",
                      "type": "address"
                    },
                    {
                      "internalType": "uint8",
                      "name": "share",
                      "type": "uint8"
                    },
                    {
                      "internalType": "string",
                      "name": "info",
                      "type": "string"
                    }
                  ],
                  "internalType": "struct Stakeholder",
                  "name": "delivery",
                  "type": "tuple"
                }
              ],
              "internalType": "struct StakeholderList",
              "name": "stakeholders",
              "type": "tuple"
            }
          ],
          "internalType": "struct SupplyChain[]",
          "name": "",
          "type": "tuple[]"
        }
      ],
      "stateMutability": "view",
      "type": "function"
    },
    {
      "inputs": [
        {
          "internalType": "uint256",
          "name": "_campaignId",
          "type": "uint256"
        }
      ],
      "name": "getBoxesStatus",
      "outputs": [
        {
          "components": [
            {
              "internalType": "uint256",
              "name": "campaignRef",
              "type": "uint256"
            },
            {
              "internalType": "uint256",
              "name": "boxId",
              "type": "uint256"
            },
            {
              "internalType": "bool",
              "name": "isProcessed",
              "type": "bool"
            },
            {
              "internalType": "bool",
              "name": "isDistributedFromButcher",
              "type": "bool"
            },
            {
              "internalType": "bool",
              "name": "isDistributedToDelivery",
              "type": "bool"
            },
            {
              "internalType": "bool",
              "name": "isDelivered",
              "type": "bool"
            }
          ],
          "internalType": "struct BoxStatus[]",
          "name": "",
          "type": "tuple[]"
        }
      ],
      "stateMutability": "view",
      "type": "function"
    },
    {
      "inputs": [],
      "name": "getNumberOfSupplyChains",
      "outputs": [
        {
          "internalType": "uint256",
          "name": "",
          "type": "uint256"
        }
      ],
      "stateMutability": "view",
      "type": "function"
    },
    {
      "inputs": [
        {
          "internalType": "uint256",
          "name": "_campaignId",
          "type": "uint256"
        }
      ],
      "name": "markAnimalAsDelivered",
      "outputs": [],
      "stateMutability": "nonpayable",
      "type": "function"
    },
    {
      "inputs": [
        {
          "internalType": "uint256",
          "name": "_campaignId",
          "type": "uint256"
        }
      ],
      "name": "markAnimalAsProcessed",
      "outputs": [],
      "stateMutability": "nonpayable",
      "type": "function"
    },
    {
      "inputs": [
        {
          "internalType": "uint256",
          "name": "_campaignId",
          "type": "uint256"
        },
        {
          "internalType": "uint256",
          "name": "_boxId",
          "type": "uint256"
        }
      ],
      "name": "markBoxAsProcessed",
      "outputs": [],
      "stateMutability": "nonpayable",
      "type": "function"
    },
    {
      "inputs": [
        {
          "internalType": "uint256",
          "name": "_campaignId",
          "type": "uint256"
        },
        {
          "internalType": "uint256",
          "name": "_boxId",
          "type": "uint256"
        }
      ],
      "name": "markBoxAsDistributed",
      "outputs": [],
      "stateMutability": "nonpayable",
      "type": "function"
    },
    {
      "inputs": [
        {
          "internalType": "uint256",
          "name": "_campaignId",
          "type": "uint256"
        },
        {
          "internalType": "uint256",
          "name": "_boxId",
          "type": "uint256"
        }
      ],
      "name": "markBoxAsDelivered",
      "outputs": [],
      "stateMutability": "nonpayable",
      "type": "function"
    },
    {
      "inputs": [
        {
          "internalType": "uint256",
          "name": "_campaignId",
          "type": "uint256"
        }
      ],
      "name": "isCompleted",
      "outputs": [
        {
          "internalType": "bool",
          "name": "",
          "type": "bool"
        }
      ],
      "stateMutability": "view",
      "type": "function"
    },
    {
      "inputs": [
        {
          "internalType": "uint256",
          "name": "_campaignId",
          "type": "uint256"
        }
      ],
      "name": "areBoxesProcessed",
      "outputs": [
        {
          "internalType": "bool",
          "name": "",
          "type": "bool"
        }
      ],
      "stateMutability": "view",
      "type": "function"
    },
    {
      "inputs": [
        {
          "internalType": "uint256",
          "name": "_campaignId",
          "type": "uint256"
        }
      ],
      "name": "areBoxesDistributedFromButcher",
      "outputs": [
        {
          "internalType": "bool",
          "name": "",
          "type": "bool"
        }
      ],
      "stateMutability": "view",
      "type": "function"
    },
    {
      "inputs": [
        {
          "internalType": "uint256",
          "name": "_campaignId",
          "type": "uint256"
        }
      ],
      "name": "areBoxesDistributedToDelivery",
      "outputs": [
        {
          "internalType": "bool",
          "name": "",
          "type": "bool"
        }
      ],
      "stateMutability": "view",
      "type": "function"
    },
    {
      "inputs": [
        {
          "internalType": "uint256",
          "name": "_campaignId",
          "type": "uint256"
        }
      ],
      "name": "areBoxesDelivered",
      "outputs": [
        {
          "internalType": "bool",
          "name": "",
          "type": "bool"
        }
      ],
      "stateMutability": "view",
      "type": "function"
    }
  ],
  "bytecode": "0x6080604052600060025534801561001557600080fd5b50615d3280620000266000396000f3fe608060405234801561001057600080fd5b50600436106101005760003560e01c80638a2249a311610097578063d1d9e7c011610066578063d1d9e7c0146102bb578063da21696c146102d9578063e7252434146102f7578063e9368de91461032757610100565b80638a2249a3146102215780639295a9f714610251578063c0bd69c714610281578063c58c782c1461029f57610100565b8063606e9c5e116100d3578063606e9c5e14610189578063692799dc146101a55780636f439b46146101d55780637a41984b146101f157610100565b80630aab769e14610105578063154a9fe114610135578063280f8949146101515780633afe21091461016d575b600080fd5b61011f600480360381019061011a9190614272565b610361565b60405161012c91906142ba565b60405180910390f35b61014f600480360381019061014a9190614272565b6108a8565b005b61016b600480360381019061016691906142d5565b610a40565b005b610187600480360381019061018291906142d5565b610c60565b005b6101a3600480360381019061019e9190614bee565b6110a3565b005b6101bf60048036038101906101ba9190614272565b6115ea565b6040516101cc91906142ba565b60405180910390f35b6101ef60048036038101906101ea9190614272565b611b31565b005b61020b60048036038101906102069190614272565b611db1565b60405161021891906142ba565b60405180910390f35b61023b60048036038101906102369190614272565b6122fd565b6040516102489190614dae565b60405180910390f35b61026b60048036038101906102669190614272565b612929565b60405161027891906142ba565b60405180910390f35b610289612e70565b6040516102969190615189565b60405180910390f35b6102b960048036038101906102b491906142d5565b6133e8565b005b6102c36135ec565b6040516102d091906151ba565b60405180910390f35b6102e16135f2565b6040516102ee91906151ba565b60405180910390f35b610311600480360381019061030c9190614272565b6135fc565b60405161031e91906142ba565b60405180910390f35b610341600480360381019061033c9190614272565b613b43565b6040516103589b9a999897969594939291906152e5565b60405180910390f35b6000806000808481526020019081526020016000206040518061016001604052908160008201548152602001600182016040518060400160405290816000820160009054906101000a900460ff161515151581526020016000820160019054906101000a900460ff1615151515815250508152602001600282016040518060200160405290816000820160009054906101000a900460ff1615151515815250508152602001600382016040518060200160405290816000820160009054906101000a900460ff1615151515815250508152602001600482016040518060400160405290816000820160009054906101000a900460ff161515151581526020016000820160019054906101000a900460ff1615151515815250508152602001600582016040518060200160405290816000820160009054906101000a900460ff161515151581525050815260200160068201548152602001600782015481526020016008820154815260200160098201548152602001600a8201604051806060016040529081600082016040518060600160405290816000820160009054906101000a900473ffffffffffffffffffffffffffffffffffffffff1673ffffffffffffffffffffffffffffffffffffffff1673ffffffffffffffffffffffffffffffffffffffff1681526020016000820160149054906101000a900460ff1660ff1660ff168152602001600182018054610578906153c8565b80601f01602080910402602001604051908101604052809291908181526020018280546105a4906153c8565b80156105f15780601f106105c6576101008083540402835291602001916105f1565b820191906000526020600020905b8154815290600101906020018083116105d457829003601f168201915b5050505050815250508152602001600282016040518060600160405290816000820160009054906101000a900473ffffffffffffffffffffffffffffffffffffffff1673ffffffffffffffffffffffffffffffffffffffff1673ffffffffffffffffffffffffffffffffffffffff1681526020016000820160149054906101000a900460ff1660ff1660ff168152602001600182018054610691906153c8565b80601f01602080910402602001604051908101604052809291908181526020018280546106bd906153c8565b801561070a5780601f106106df5761010080835404028352916020019161070a565b820191906000526020600020905b8154815290600101906020018083116106ed57829003601f168201915b5050505050815250508152602001600482016040518060600160405290816000820160009054906101000a900473ffffffffffffffffffffffffffffffffffffffff1673ffffffffffffffffffffffffffffffffffffffff1673ffffffffffffffffffffffffffffffffffffffff1681526020016000820160149054906101000a900460ff1660ff1660ff1681526020016001820180546107aa906153c8565b80601f01602080910402602001604051908101604052809291908181526020018280546107d6906153c8565b80156108235780601f106107f857610100808354040283529160200191610823565b820191906000526020600020905b81548152906001019060200180831161080657829003601f168201915b5050505050815250508152505081525050905060005b8160c0015181101561089c5760016000858152602001908152602001600020600082815260200190815260200160002060020160009054906101000a900460ff16610889576000925050506108a3565b808061089490615428565b915050610839565b5060019150505b919050565b6000806000838152602001908152602001600020905080600a0160020160000160009054906101000a900473ffffffffffffffffffffffffffffffffffffffff1673ffffffffffffffffffffffffffffffffffffffff163373ffffffffffffffffffffffffffffffffffffffff1614610956576040517f08c379a000000000000000000000000000000000000000000000000000000000815260040161094d906154f3565b60405180910390fd5b8060010160000160019054906101000a900460ff16801561098857508060010160000160009054906101000a900460ff165b6109c7576040517f08c379a00000000000000000000000000000000000000000000000000000000081526004016109be90615585565b60405180910390fd5b8060020160000160009054906101000a900460ff1615610a1c576040517f08c379a0000000000000000000000000000000000000000000000000000000008152600401610a13906155f1565b60405180910390fd5b60018160020160000160006101000a81548160ff0219169083151502179055505050565b6000806000848152602001908152602001600020905080600a0160040160000160009054906101000a900473ffffffffffffffffffffffffffffffffffffffff1673ffffffffffffffffffffffffffffffffffffffff163373ffffffffffffffffffffffffffffffffffffffff1614610aee576040517f08c379a0000000000000000000000000000000000000000000000000000000008152600401610ae590615683565b60405180910390fd5b8060040160000160009054906101000a900460ff1680610b1f57508060040160000160019054906101000a900460ff165b610b5e576040517f08c379a0000000000000000000000000000000000000000000000000000000008152600401610b5590615715565b60405180910390fd5b60016000848152602001908152602001600020600083815260200190815260200160002060020160039054906101000a900460ff1615610bd3576040517f08c379a0000000000000000000000000000000000000000000000000000000008152600401610bca90615781565b60405180910390fd5b6001806000858152602001908152602001600020600084815260200190815260200160002060020160036101000a81548160ff021916908315150217905550806009016000815480929190610c2790615428565b9190505550610c3583612929565b15610c5b5760018160050160000160006101000a81548160ff0219169083151502179055505b505050565b6000806000848152602001908152602001600020905080600a0160040160000160009054906101000a900473ffffffffffffffffffffffffffffffffffffffff1673ffffffffffffffffffffffffffffffffffffffff163373ffffffffffffffffffffffffffffffffffffffff161480610d2f575080600a0160020160000160009054906101000a900473ffffffffffffffffffffffffffffffffffffffff1673ffffffffffffffffffffffffffffffffffffffff163373ffffffffffffffffffffffffffffffffffffffff16145b610d6e576040517f08c379a0000000000000000000000000000000000000000000000000000000008152600401610d6590615839565b60405180910390fd5b8060030160000160009054906101000a900460ff16610dc2576040517f08c379a0000000000000000000000000000000000000000000000000000000008152600401610db9906158cb565b60405180910390fd5b60016000848152602001908152602001600020600083815260200190815260200160002060020160019054906101000a900460ff161580610e35575060016000848152602001908152602001600020600083815260200190815260200160002060020160029054906101000a900460ff16155b610e74576040517f08c379a0000000000000000000000000000000000000000000000000000000008152600401610e6b90615937565b60405180910390fd5b80600a0160020160000160009054906101000a900473ffffffffffffffffffffffffffffffffffffffff1673ffffffffffffffffffffffffffffffffffffffff163373ffffffffffffffffffffffffffffffffffffffff1603610f40576001806000858152602001908152602001600020600084815260200190815260200160002060020160016101000a81548160ff021916908315150217905550610f19836135fc565b15610f3f5760018160040160000160006101000a81548160ff0219169083151502179055505b5b80600a0160040160000160009054906101000a900473ffffffffffffffffffffffffffffffffffffffff1673ffffffffffffffffffffffffffffffffffffffff163373ffffffffffffffffffffffffffffffffffffffff160361100c576001806000858152602001908152602001600020600084815260200190815260200160002060020160026101000a81548160ff021916908315150217905550610fe5836115ea565b1561100b5760018160040160000160016101000a81548160ff0219169083151502179055505b5b60016000848152602001908152602001600020600083815260200190815260200160002060020160019054906101000a900460ff16801561107e575060016000848152602001908152602001600020600083815260200190815260200160002060020160029054906101000a900460ff165b1561109e5780600801600081548092919061109890615428565b91905055505b505050565b60008060008460000151815260200190815260200160002090508260000151816000018190555060008160010160000160016101000a81548160ff02191690831515021790555060008160010160000160006101000a81548160ff02191690831515021790555060008160020160000160006101000a81548160ff02191690831515021790555060008160030160000160006101000a81548160ff02191690831515021790555060008160040160000160006101000a81548160ff02191690831515021790555060008160040160000160016101000a81548160ff02191690831515021790555060008160050160000160006101000a81548160ff0219169083151502179055506000805b83518110156113a55760008482815181106111cc576111cb615957565b5b602002602001015190506001836111e39190615986565b9250856000015160016000886000015181526020019081526020016000206000836000015161ffff16815260200190815260200160002060000181905550806000015161ffff1660016000886000015181526020019081526020016000206000836000015161ffff16815260200190815260200160002060010181905550600060016000886000015181526020019081526020016000206000836000015161ffff16815260200190815260200160002060020160006101000a81548160ff021916908315150217905550600060016000886000015181526020019081526020016000206000836000015161ffff16815260200190815260200160002060020160016101000a81548160ff021916908315150217905550600060016000886000015181526020019081526020016000206000836000015161ffff16815260200190815260200160002060020160026101000a81548160ff021916908315150217905550600060016000886000015181526020019081526020016000206000836000015161ffff16815260200190815260200160002060020160036101000a81548160ff02191690831515021790555050808061139d90615428565b9150506111ae565b50600081116113e9576040517f08c379a00000000000000000000000000000000000000000000000000000000081526004016113e090615a4e565b60405180910390fd5b8082600601819055506000826007018190555060008260080181905550600082600901819055508360a0015182600a0160008201518160000160008201518160000160006101000a81548173ffffffffffffffffffffffffffffffffffffffff021916908373ffffffffffffffffffffffffffffffffffffffff16021790555060208201518160000160146101000a81548160ff021916908360ff16021790555060408201518160010190805190602001906114a6929190613fe1565b50505060208201518160020160008201518160000160006101000a81548173ffffffffffffffffffffffffffffffffffffffff021916908373ffffffffffffffffffffffffffffffffffffffff16021790555060208201518160000160146101000a81548160ff021916908360ff1602179055506040820151816001019080519060200190611536929190613fe1565b50505060408201518160040160008201518160000160006101000a81548173ffffffffffffffffffffffffffffffffffffffff021916908373ffffffffffffffffffffffffffffffffffffffff16021790555060208201518160000160146101000a81548160ff021916908360ff16021790555060408201518160010190805190602001906115c6929190613fe1565b505050905050600260008154809291906115df90615428565b919050555050505050565b6000806000808481526020019081526020016000206040518061016001604052908160008201548152602001600182016040518060400160405290816000820160009054906101000a900460ff161515151581526020016000820160019054906101000a900460ff1615151515815250508152602001600282016040518060200160405290816000820160009054906101000a900460ff1615151515815250508152602001600382016040518060200160405290816000820160009054906101000a900460ff1615151515815250508152602001600482016040518060400160405290816000820160009054906101000a900460ff161515151581526020016000820160019054906101000a900460ff1615151515815250508152602001600582016040518060200160405290816000820160009054906101000a900460ff161515151581525050815260200160068201548152602001600782015481526020016008820154815260200160098201548152602001600a8201604051806060016040529081600082016040518060600160405290816000820160009054906101000a900473ffffffffffffffffffffffffffffffffffffffff1673ffffffffffffffffffffffffffffffffffffffff1673ffffffffffffffffffffffffffffffffffffffff1681526020016000820160149054906101000a900460ff1660ff1660ff168152602001600182018054611801906153c8565b80601f016020809104026020016040519081016040528092919081815260200182805461182d906153c8565b801561187a5780601f1061184f5761010080835404028352916020019161187a565b820191906000526020600020905b81548152906001019060200180831161185d57829003601f168201915b5050505050815250508152602001600282016040518060600160405290816000820160009054906101000a900473ffffffffffffffffffffffffffffffffffffffff1673ffffffffffffffffffffffffffffffffffffffff1673ffffffffffffffffffffffffffffffffffffffff1681526020016000820160149054906101000a900460ff1660ff1660ff16815260200160018201805461191a906153c8565b80601f0160208091040260200160405190810160405280929190818152602001828054611946906153c8565b80156119935780601f1061196857610100808354040283529160200191611993565b820191906000526020600020905b81548152906001019060200180831161197657829003601f168201915b5050505050815250508152602001600482016040518060600160405290816000820160009054906101000a900473ffffffffffffffffffffffffffffffffffffffff1673ffffffffffffffffffffffffffffffffffffffff1673ffffffffffffffffffffffffffffffffffffffff1681526020016000820160149054906101000a900460ff1660ff1660ff168152602001600182018054611a33906153c8565b80601f0160208091040260200160405190810160405280929190818152602001828054611a5f906153c8565b8015611aac5780601f10611a8157610100808354040283529160200191611aac565b820191906000526020600020905b815481529060010190602001808311611a8f57829003601f168201915b5050505050815250508152505081525050905060005b8160c00151811015611b255760016000858152602001908152602001600020600082815260200190815260200160002060020160029054906101000a900460ff16611b1257600092505050611b2c565b8080611b1d90615428565b915050611ac2565b5060019150505b919050565b6000806000838152602001908152602001600020905080600a0160000160000160009054906101000a900473ffffffffffffffffffffffffffffffffffffffff1673ffffffffffffffffffffffffffffffffffffffff163373ffffffffffffffffffffffffffffffffffffffff161480611c00575080600a0160020160000160009054906101000a900473ffffffffffffffffffffffffffffffffffffffff1673ffffffffffffffffffffffffffffffffffffffff163373ffffffffffffffffffffffffffffffffffffffff16145b611c3f576040517f08c379a0000000000000000000000000000000000000000000000000000000008152600401611c3690615ae0565b60405180910390fd5b8060010160000160009054906101000a900460ff161580611c7257508060010160000160019054906101000a900460ff16155b611cb1576040517f08c379a0000000000000000000000000000000000000000000000000000000008152600401611ca890615b4c565b60405180910390fd5b80600a0160000160000160009054906101000a900473ffffffffffffffffffffffffffffffffffffffff1673ffffffffffffffffffffffffffffffffffffffff163373ffffffffffffffffffffffffffffffffffffffff1603611d2f5760018160010160000160006101000a81548160ff0219169083151502179055505b80600a0160020160000160009054906101000a900473ffffffffffffffffffffffffffffffffffffffff1673ffffffffffffffffffffffffffffffffffffffff163373ffffffffffffffffffffffffffffffffffffffff1603611dad5760018160010160000160016101000a81548160ff0219169083151502179055505b5050565b6000806000808481526020019081526020016000206040518061016001604052908160008201548152602001600182016040518060400160405290816000820160009054906101000a900460ff161515151581526020016000820160019054906101000a900460ff1615151515815250508152602001600282016040518060200160405290816000820160009054906101000a900460ff1615151515815250508152602001600382016040518060200160405290816000820160009054906101000a900460ff1615151515815250508152602001600482016040518060400160405290816000820160009054906101000a900460ff161515151581526020016000820160019054906101000a900460ff1615151515815250508152602001600582016040518060200160405290816000820160009054906101000a900460ff161515151581525050815260200160068201548152602001600782015481526020016008820154815260200160098201548152602001600a8201604051806060016040529081600082016040518060600160405290816000820160009054906101000a900473ffffffffffffffffffffffffffffffffffffffff1673ffffffffffffffffffffffffffffffffffffffff1673ffffffffffffffffffffffffffffffffffffffff1681526020016000820160149054906101000a900460ff1660ff1660ff168152602001600182018054611fc8906153c8565b80601f0160208091040260200160405190810160405280929190818152602001828054611ff4906153c8565b80156120415780601f1061201657610100808354040283529160200191612041565b820191906000526020600020905b81548152906001019060200180831161202457829003601f168201915b5050505050815250508152602001600282016040518060600160405290816000820160009054906101000a900473ffffffffffffffffffffffffffffffffffffffff1673ffffffffffffffffffffffffffffffffffffffff1673ffffffffffffffffffffffffffffffffffffffff1681526020016000820160149054906101000a900460ff1660ff1660ff1681526020016001820180546120e1906153c8565b80601f016020809104026020016040519081016040528092919081815260200182805461210d906153c8565b801561215a5780601f1061212f5761010080835404028352916020019161215a565b820191906000526020600020905b81548152906001019060200180831161213d57829003601f168201915b5050505050815250508152602001600482016040518060600160405290816000820160009054906101000a900473ffffffffffffffffffffffffffffffffffffffff1673ffffffffffffffffffffffffffffffffffffffff1673ffffffffffffffffffffffffffffffffffffffff1681526020016000820160149054906101000a900460ff1660ff1660ff1681526020016001820180546121fa906153c8565b80601f0160208091040260200160405190810160405280929190818152602001828054612226906153c8565b80156122735780601f1061224857610100808354040283529160200191612273565b820191906000526020600020905b81548152906001019060200180831161225657829003601f168201915b5050505050815250508152505081525050905080602001516000015180156122a057508060200151602001515b80156122b157508060400151600001515b80156122c257508060600151600001515b80156122d357508060800151600001515b80156122e457508060800151602001515b80156122f557508060a00151600001515b915050919050565b606060008060008481526020019081526020016000206040518061016001604052908160008201548152602001600182016040518060400160405290816000820160009054906101000a900460ff161515151581526020016000820160019054906101000a900460ff1615151515815250508152602001600282016040518060200160405290816000820160009054906101000a900460ff1615151515815250508152602001600382016040518060200160405290816000820160009054906101000a900460ff1615151515815250508152602001600482016040518060400160405290816000820160009054906101000a900460ff161515151581526020016000820160019054906101000a900460ff1615151515815250508152602001600582016040518060200160405290816000820160009054906101000a900460ff161515151581525050815260200160068201548152602001600782015481526020016008820154815260200160098201548152602001600a8201604051806060016040529081600082016040518060600160405290816000820160009054906101000a900473ffffffffffffffffffffffffffffffffffffffff1673ffffffffffffffffffffffffffffffffffffffff1673ffffffffffffffffffffffffffffffffffffffff1681526020016000820160149054906101000a900460ff1660ff1660ff168152602001600182018054612515906153c8565b80601f0160208091040260200160405190810160405280929190818152602001828054612541906153c8565b801561258e5780601f106125635761010080835404028352916020019161258e565b820191906000526020600020905b81548152906001019060200180831161257157829003601f168201915b5050505050815250508152602001600282016040518060600160405290816000820160009054906101000a900473ffffffffffffffffffffffffffffffffffffffff1673ffffffffffffffffffffffffffffffffffffffff1673ffffffffffffffffffffffffffffffffffffffff1681526020016000820160149054906101000a900460ff1660ff1660ff16815260200160018201805461262e906153c8565b80601f016020809104026020016040519081016040528092919081815260200182805461265a906153c8565b80156126a75780601f1061267c576101008083540402835291602001916126a7565b820191906000526020600020905b81548152906001019060200180831161268a57829003601f168201915b5050505050815250508152602001600482016040518060600160405290816000820160009054906101000a900473ffffffffffffffffffffffffffffffffffffffff1673ffffffffffffffffffffffffffffffffffffffff1673ffffffffffffffffffffffffffffffffffffffff1681526020016000820160149054906101000a900460ff1660ff1660ff168152602001600182018054612747906153c8565b80601f0160208091040260200160405190810160405280929190818152602001828054612773906153c8565b80156127c05780601f10612795576101008083540402835291602001916127c0565b820191906000526020600020905b8154815290600101906020018083116127a357829003601f168201915b5050505050815250508152505081525050905060008160c0015167ffffffffffffffff8111156127f3576127f261432b565b5b60405190808252806020026020018201604052801561282c57816020015b612819614067565b8152602001906001900390816128115790505b50905060005b8260c0015181101561291e576001600086815260200190815260200160002060008281526020019081526020016000206040518060c001604052908160008201548152602001600182015481526020016002820160009054906101000a900460ff161515151581526020016002820160019054906101000a900460ff161515151581526020016002820160029054906101000a900460ff161515151581526020016002820160039054906101000a900460ff161515151581525050828281518110612900576128ff615957565b5b6020026020010181905250808061291690615428565b915050612832565b508092505050919050565b6000806000808481526020019081526020016000206040518061016001604052908160008201548152602001600182016040518060400160405290816000820160009054906101000a900460ff161515151581526020016000820160019054906101000a900460ff1615151515815250508152602001600282016040518060200160405290816000820160009054906101000a900460ff1615151515815250508152602001600382016040518060200160405290816000820160009054906101000a900460ff1615151515815250508152602001600482016040518060400160405290816000820160009054906101000a900460ff161515151581526020016000820160019054906101000a900460ff1615151515815250508152602001600582016040518060200160405290816000820160009054906101000a900460ff161515151581525050815260200160068201548152602001600782015481526020016008820154815260200160098201548152602001600a8201604051806060016040529081600082016040518060600160405290816000820160009054906101000a900473ffffffffffffffffffffffffffffffffffffffff1673ffffffffffffffffffffffffffffffffffffffff1673ffffffffffffffffffffffffffffffffffffffff1681526020016000820160149054906101000a900460ff1660ff1660ff168152602001600182018054612b40906153c8565b80601f0160208091040260200160405190810160405280929190818152602001828054612b6c906153c8565b8015612bb95780601f10612b8e57610100808354040283529160200191612bb9565b820191906000526020600020905b815481529060010190602001808311612b9c57829003601f168201915b5050505050815250508152602001600282016040518060600160405290816000820160009054906101000a900473ffffffffffffffffffffffffffffffffffffffff1673ffffffffffffffffffffffffffffffffffffffff1673ffffffffffffffffffffffffffffffffffffffff1681526020016000820160149054906101000a900460ff1660ff1660ff168152602001600182018054612c59906153c8565b80601f0160208091040260200160405190810160405280929190818152602001828054612c85906153c8565b8015612cd25780601f10612ca757610100808354040283529160200191612cd2565b820191906000526020600020905b815481529060010190602001808311612cb557829003601f168201915b5050505050815250508152602001600482016040518060600160405290816000820160009054906101000a900473ffffffffffffffffffffffffffffffffffffffff1673ffffffffffffffffffffffffffffffffffffffff1673ffffffffffffffffffffffffffffffffffffffff1681526020016000820160149054906101000a900460ff1660ff1660ff168152602001600182018054612d72906153c8565b80601f0160208091040260200160405190810160405280929190818152602001828054612d9e906153c8565b8015612deb5780601f10612dc057610100808354040283529160200191612deb565b820191906000526020600020905b815481529060010190602001808311612dce57829003601f168201915b5050505050815250508152505081525050905060005b8160c00151811015612e645760016000858152602001908152602001600020600082815260200190815260200160002060020160039054906101000a900460ff16612e5157600092505050612e6b565b8080612e5c90615428565b915050612e01565b5060019150505b919050565b6060600060025467ffffffffffffffff811115612e9057612e8f61432b565b5b604051908082528060200260200182016040528015612ec957816020015b612eb66140a5565b815260200190600190039081612eae5790505b50905060005b6002548110156133e05760008060008381526020019081526020016000209050806040518061016001604052908160008201548152602001600182016040518060400160405290816000820160009054906101000a900460ff161515151581526020016000820160019054906101000a900460ff1615151515815250508152602001600282016040518060200160405290816000820160009054906101000a900460ff1615151515815250508152602001600382016040518060200160405290816000820160009054906101000a900460ff1615151515815250508152602001600482016040518060400160405290816000820160009054906101000a900460ff161515151581526020016000820160019054906101000a900460ff1615151515815250508152602001600582016040518060200160405290816000820160009054906101000a900460ff161515151581525050815260200160068201548152602001600782015481526020016008820154815260200160098201548152602001600a8201604051806060016040529081600082016040518060600160405290816000820160009054906101000a900473ffffffffffffffffffffffffffffffffffffffff1673ffffffffffffffffffffffffffffffffffffffff1673ffffffffffffffffffffffffffffffffffffffff1681526020016000820160149054906101000a900460ff1660ff1660ff1681526020016001820180546130f2906153c8565b80601f016020809104026020016040519081016040528092919081815260200182805461311e906153c8565b801561316b5780601f106131405761010080835404028352916020019161316b565b820191906000526020600020905b81548152906001019060200180831161314e57829003601f168201915b5050505050815250508152602001600282016040518060600160405290816000820160009054906101000a900473ffffffffffffffffffffffffffffffffffffffff1673ffffffffffffffffffffffffffffffffffffffff1673ffffffffffffffffffffffffffffffffffffffff1681526020016000820160149054906101000a900460ff1660ff1660ff16815260200160018201805461320b906153c8565b80601f0160208091040260200160405190810160405280929190818152602001828054613237906153c8565b80156132845780601f1061325957610100808354040283529160200191613284565b820191906000526020600020905b81548152906001019060200180831161326757829003601f168201915b5050505050815250508152602001600482016040518060600160405290816000820160009054906101000a900473ffffffffffffffffffffffffffffffffffffffff1673ffffffffffffffffffffffffffffffffffffffff1673ffffffffffffffffffffffffffffffffffffffff1681526020016000820160149054906101000a900460ff1660ff1660ff168152602001600182018054613324906153c8565b80601f0160208091040260200160405190810160405280929190818152602001828054613350906153c8565b801561339d5780601f106133725761010080835404028352916020019161339d565b820191906000526020600020905b81548152906001019060200180831161338057829003601f168201915b50505050508152505081525050815250508383815181106133c1576133c0615957565b5b60200260200101819052505080806133d890615428565b915050612ecf565b508091505090565b6000806000848152602001908152602001600020905080600a0160020160000160009054906101000a900473ffffffffffffffffffffffffffffffffffffffff1673ffffffffffffffffffffffffffffffffffffffff163373ffffffffffffffffffffffffffffffffffffffff1614613496576040517f08c379a000000000000000000000000000000000000000000000000000000000815260040161348d90615bde565b60405180910390fd5b8060020160000160009054906101000a900460ff166134ea576040517f08c379a00000000000000000000000000000000000000000000000000000000081526004016134e190615c70565b60405180910390fd5b60016000848152602001908152602001600020600083815260200190815260200160002060020160009054906101000a900460ff161561355f576040517f08c379a000000000000000000000000000000000000000000000000000000000815260040161355690615cdc565b60405180910390fd5b6001806000858152602001908152602001600020600084815260200190815260200160002060020160006101000a81548160ff0219169083151502179055508060070160008154809291906135b390615428565b91905055506135c183610361565b156135e75760018160030160000160006101000a81548160ff0219169083151502179055505b505050565b60025481565b6000600254905090565b6000806000808481526020019081526020016000206040518061016001604052908160008201548152602001600182016040518060400160405290816000820160009054906101000a900460ff161515151581526020016000820160019054906101000a900460ff1615151515815250508152602001600282016040518060200160405290816000820160009054906101000a900460ff1615151515815250508152602001600382016040518060200160405290816000820160009054906101000a900460ff1615151515815250508152602001600482016040518060400160405290816000820160009054906101000a900460ff161515151581526020016000820160019054906101000a900460ff1615151515815250508152602001600582016040518060200160405290816000820160009054906101000a900460ff161515151581525050815260200160068201548152602001600782015481526020016008820154815260200160098201548152602001600a8201604051806060016040529081600082016040518060600160405290816000820160009054906101000a900473ffffffffffffffffffffffffffffffffffffffff1673ffffffffffffffffffffffffffffffffffffffff1673ffffffffffffffffffffffffffffffffffffffff1681526020016000820160149054906101000a900460ff1660ff1660ff168152602001600182018054613813906153c8565b80601f016020809104026020016040519081016040528092919081815260200182805461383f906153c8565b801561388c5780601f106138615761010080835404028352916020019161388c565b820191906000526020600020905b81548152906001019060200180831161386f57829003601f168201915b5050505050815250508152602001600282016040518060600160405290816000820160009054906101000a900473ffffffffffffffffffffffffffffffffffffffff1673ffffffffffffffffffffffffffffffffffffffff1673ffffffffffffffffffffffffffffffffffffffff1681526020016000820160149054906101000a900460ff1660ff1660ff16815260200160018201805461392c906153c8565b80601f0160208091040260200160405190810160405280929190818152602001828054613958906153c8565b80156139a55780601f1061397a576101008083540402835291602001916139a5565b820191906000526020600020905b81548152906001019060200180831161398857829003601f168201915b5050505050815250508152602001600482016040518060600160405290816000820160009054906101000a900473ffffffffffffffffffffffffffffffffffffffff1673ffffffffffffffffffffffffffffffffffffffff1673ffffffffffffffffffffffffffffffffffffffff1681526020016000820160149054906101000a900460ff1660ff1660ff168152602001600182018054613a45906153c8565b80601f0160208091040260200160405190810160405280929190818152602001828054613a71906153c8565b8015613abe5780601f10613a9357610100808354040283529160200191613abe565b820191906000526020600020905b815481529060010190602001808311613aa157829003601f168201915b5050505050815250508152505081525050905060005b8160c00151811015613b375760016000858152602001908152602001600020600082815260200190815260200160002060020160019054906101000a900460ff16613b2457600092505050613b3e565b8080613b2f90615428565b915050613ad4565b5060019150505b919050565b6000602052806000526040600020600091509050806000015490806001016040518060400160405290816000820160009054906101000a900460ff161515151581526020016000820160019054906101000a900460ff16151515158152505090806002016040518060200160405290816000820160009054906101000a900460ff16151515158152505090806003016040518060200160405290816000820160009054906101000a900460ff16151515158152505090806004016040518060400160405290816000820160009054906101000a900460ff161515151581526020016000820160019054906101000a900460ff16151515158152505090806005016040518060200160405290816000820160009054906101000a900460ff1615151515815250509080600601549080600701549080600801549080600901549080600a01604051806060016040529081600082016040518060600160405290816000820160009054906101000a900473ffffffffffffffffffffffffffffffffffffffff1673ffffffffffffffffffffffffffffffffffffffff1673ffffffffffffffffffffffffffffffffffffffff1681526020016000820160149054906101000a900460ff1660ff1660ff168152602001600182018054613d24906153c8565b80601f0160208091040260200160405190810160405280929190818152602001828054613d50906153c8565b8015613d9d5780601f10613d7257610100808354040283529160200191613d9d565b820191906000526020600020905b815481529060010190602001808311613d8057829003601f168201915b5050505050815250508152602001600282016040518060600160405290816000820160009054906101000a900473ffffffffffffffffffffffffffffffffffffffff1673ffffffffffffffffffffffffffffffffffffffff1673ffffffffffffffffffffffffffffffffffffffff1681526020016000820160149054906101000a900460ff1660ff1660ff168152602001600182018054613e3d906153c8565b80601f0160208091040260200160405190810160405280929190818152602001828054613e69906153c8565b8015613eb65780601f10613e8b57610100808354040283529160200191613eb6565b820191906000526020600020905b815481529060010190602001808311613e9957829003601f168201915b5050505050815250508152602001600482016040518060600160405290816000820160009054906101000a900473ffffffffffffffffffffffffffffffffffffffff1673ffffffffffffffffffffffffffffffffffffffff1673ffffffffffffffffffffffffffffffffffffffff1681526020016000820160149054906101000a900460ff1660ff1660ff168152602001600182018054613f56906153c8565b80601f0160208091040260200160405190810160405280929190818152602001828054613f82906153c8565b8015613fcf5780601f10613fa457610100808354040283529160200191613fcf565b820191906000526020600020905b815481529060010190602001808311613fb257829003601f168201915b5050505050815250508152505090508b565b828054613fed906153c8565b90600052602060002090601f01602090048101928261400f5760008555614056565b82601f1061402857805160ff1916838001178555614056565b82800160010185558215614056579182015b8281111561405557825182559160200191906001019061403a565b5b5090506140639190614123565b5090565b6040518060c0016040528060008152602001600081526020016000151581526020016000151581526020016000151581526020016000151581525090565b604051806101600160405280600081526020016140c0614140565b81526020016140cd61415e565b81526020016140da614173565b81526020016140e7614188565b81526020016140f46141a6565b81526020016000815260200160008152602001600081526020016000815260200161411d6141bb565b81525090565b5b8082111561413c576000816000905550600101614124565b5090565b60405180604001604052806000151581526020016000151581525090565b60405180602001604052806000151581525090565b60405180602001604052806000151581525090565b60405180604001604052806000151581526020016000151581525090565b60405180602001604052806000151581525090565b60405180606001604052806141ce6141ee565b81526020016141db6141ee565b81526020016141e86141ee565b81525090565b6040518060600160405280600073ffffffffffffffffffffffffffffffffffffffff168152602001600060ff168152602001606081525090565b6000604051905090565b600080fd5b600080fd5b6000819050919050565b61424f8161423c565b811461425a57600080fd5b50565b60008135905061426c81614246565b92915050565b60006020828403121561428857614287614232565b5b60006142968482850161425d565b91505092915050565b60008115159050919050565b6142b48161429f565b82525050565b60006020820190506142cf60008301846142ab565b92915050565b600080604083850312156142ec576142eb614232565b5b60006142fa8582860161425d565b925050602061430b8582860161425d565b9150509250929050565b600080fd5b6000601f19601f8301169050919050565b7f4e487b7100000000000000000000000000000000000000000000000000000000600052604160045260246000fd5b6143638261431a565b810181811067ffffffffffffffff821117156143825761438161432b565b5b80604052505050565b6000614395614228565b90506143a1828261435a565b919050565b600080fd5b600080fd5b600080fd5b600067ffffffffffffffff8211156143d0576143cf61432b565b5b6143d98261431a565b9050602081019050919050565b82818337600083830152505050565b6000614408614403846143b5565b61438b565b905082815260208101848484011115614424576144236143b0565b5b61442f8482856143e6565b509392505050565b600082601f83011261444c5761444b6143ab565b5b813561445c8482602086016143f5565b91505092915050565b60006060828403121561447b5761447a614315565b5b614485606061438b565b9050600082013567ffffffffffffffff8111156144a5576144a46143a6565b5b6144b184828501614437565b600083015250602082013567ffffffffffffffff8111156144d5576144d46143a6565b5b6144e184828501614437565b60208301525060406144f58482850161425d565b60408301525092915050565b600061ffff82169050919050565b61451881614501565b811461452357600080fd5b50565b6000813590506145358161450f565b92915050565b600060ff82169050919050565b6145518161453b565b811461455c57600080fd5b50565b60008135905061456e81614548565b92915050565b61457d8161429f565b811461458857600080fd5b50565b60008135905061459a81614574565b92915050565b600060c082840312156145b6576145b5614315565b5b6145c060c061438b565b905060006145d08482850161425d565b60008301525060206145e48482850161425d565b60208301525060406145f884828501614526565b604083015250606061460c84828501614526565b60608301525060806146208482850161455f565b60808301525060a06146348482850161458b565b60a08301525092915050565b600073ffffffffffffffffffffffffffffffffffffffff82169050919050565b600061466b82614640565b9050919050565b61467b81614660565b811461468657600080fd5b50565b60008135905061469881614672565b92915050565b6000604082840312156146b4576146b3614315565b5b6146be604061438b565b905060006146ce84828501614689565b600083015250602082013567ffffffffffffffff8111156146f2576146f16143a6565b5b6146fe84828501614437565b60208301525092915050565b6000608082840312156147205761471f614315565b5b61472a608061438b565b9050600082013567ffffffffffffffff81111561474a576147496143a6565b5b61475684828501614437565b600083015250602082013567ffffffffffffffff81111561477a576147796143a6565b5b61478684828501614437565b602083015250604082013567ffffffffffffffff8111156147aa576147a96143a6565b5b6147b684828501614437565b60408301525060606147ca8482850161455f565b60608301525092915050565b60006147e182614640565b9050919050565b6147f1816147d6565b81146147fc57600080fd5b50565b60008135905061480e816147e8565b92915050565b60006060828403121561482a57614829614315565b5b614834606061438b565b90506000614844848285016147ff565b60008301525060206148588482850161455f565b602083015250604082013567ffffffffffffffff81111561487c5761487b6143a6565b5b61488884828501614437565b60408301525092915050565b6000606082840312156148aa576148a9614315565b5b6148b4606061438b565b9050600082013567ffffffffffffffff8111156148d4576148d36143a6565b5b6148e084828501614814565b600083015250602082013567ffffffffffffffff811115614904576149036143a6565b5b61491084828501614814565b602083015250604082013567ffffffffffffffff811115614934576149336143a6565b5b61494084828501614814565b60408301525092915050565b6000610160828403121561496357614962614315565b5b61496d60c061438b565b9050600061497d8482850161425d565b600083015250602082013567ffffffffffffffff8111156149a1576149a06143a6565b5b6149ad84828501614465565b60208301525060406149c1848285016145a0565b60408301525061010082013567ffffffffffffffff8111156149e6576149e56143a6565b5b6149f28482850161469e565b60608301525061012082013567ffffffffffffffff811115614a1757614a166143a6565b5b614a238482850161470a565b60808301525061014082013567ffffffffffffffff811115614a4857614a476143a6565b5b614a5484828501614894565b60a08301525092915050565b600067ffffffffffffffff821115614a7b57614a7a61432b565b5b602082029050602081019050919050565b600080fd5b600060a08284031215614aa757614aa6614315565b5b614ab160a061438b565b90506000614ac184828501614526565b6000830152506020614ad58482850161455f565b6020830152506040614ae984828501614689565b6040830152506060614afd8482850161425d565b606083015250608082013567ffffffffffffffff811115614b2157614b206143a6565b5b614b2d84828501614437565b60808301525092915050565b6000614b4c614b4784614a60565b61438b565b90508083825260208201905060208402830185811115614b6f57614b6e614a8c565b5b835b81811015614bb657803567ffffffffffffffff811115614b9457614b936143ab565b5b808601614ba18982614a91565b85526020850194505050602081019050614b71565b5050509392505050565b600082601f830112614bd557614bd46143ab565b5b8135614be5848260208601614b39565b91505092915050565b60008060408385031215614c0557614c04614232565b5b600083013567ffffffffffffffff811115614c2357614c22614237565b5b614c2f8582860161494c565b925050602083013567ffffffffffffffff811115614c5057614c4f614237565b5b614c5c85828601614bc0565b9150509250929050565b600081519050919050565b600082825260208201905092915050565b6000819050602082019050919050565b614c9b8161423c565b82525050565b614caa8161429f565b82525050565b60c082016000820151614cc66000850182614c92565b506020820151614cd96020850182614c92565b506040820151614cec6040850182614ca1565b506060820151614cff6060850182614ca1565b506080820151614d126080850182614ca1565b5060a0820151614d2560a0850182614ca1565b50505050565b6000614d378383614cb0565b60c08301905092915050565b6000602082019050919050565b6000614d5b82614c66565b614d658185614c71565b9350614d7083614c82565b8060005b83811015614da1578151614d888882614d2b565b9750614d9383614d43565b925050600181019050614d74565b5085935050505092915050565b60006020820190508181036000830152614dc88184614d50565b905092915050565b600081519050919050565b600082825260208201905092915050565b6000819050602082019050919050565b604082016000820151614e126000850182614ca1565b506020820151614e256020850182614ca1565b50505050565b602082016000820151614e416000850182614ca1565b50505050565b602082016000820151614e5d6000850182614ca1565b50505050565b604082016000820151614e796000850182614ca1565b506020820151614e8c6020850182614ca1565b50505050565b602082016000820151614ea86000850182614ca1565b50505050565b614eb7816147d6565b82525050565b614ec68161453b565b82525050565b600081519050919050565b600082825260208201905092915050565b60005b83811015614f06578082015181840152602081019050614eeb565b83811115614f15576000848401525b50505050565b6000614f2682614ecc565b614f308185614ed7565b9350614f40818560208601614ee8565b614f498161431a565b840191505092915050565b6000606083016000830151614f6c6000860182614eae565b506020830151614f7f6020860182614ebd565b5060408301518482036040860152614f978282614f1b565b9150508091505092915050565b60006060830160008301518482036000860152614fc18282614f54565b91505060208301518482036020860152614fdb8282614f54565b91505060408301518482036040860152614ff58282614f54565b9150508091505092915050565b60006101a08301600083015161501b6000860182614c92565b50602083015161502e6020860182614dfc565b5060408301516150416060860182614e2b565b5060608301516150546080860182614e47565b50608083015161506760a0860182614e63565b5060a083015161507a60e0860182614e92565b5060c083015161508e610100860182614c92565b5060e08301516150a2610120860182614c92565b506101008301516150b7610140860182614c92565b506101208301516150cc610160860182614c92565b506101408301518482036101808601526150e68282614fa4565b9150508091505092915050565b60006150ff8383615002565b905092915050565b6000602082019050919050565b600061511f82614dd0565b6151298185614ddb565b93508360208202850161513b85614dec565b8060005b85811015615177578484038952815161515885826150f3565b945061516383615107565b925060208a0199505060018101905061513f565b50829750879550505050505092915050565b600060208201905081810360008301526151a38184615114565b905092915050565b6151b48161423c565b82525050565b60006020820190506151cf60008301846151ab565b92915050565b6040820160008201516151eb6000850182614ca1565b5060208201516151fe6020850182614ca1565b50505050565b60208201600082015161521a6000850182614ca1565b50505050565b6020820160008201516152366000850182614ca1565b50505050565b6040820160008201516152526000850182614ca1565b5060208201516152656020850182614ca1565b50505050565b6020820160008201516152816000850182614ca1565b50505050565b600060608301600083015184820360008601526152a48282614f54565b915050602083015184820360208601526152be8282614f54565b915050604083015184820360408601526152d88282614f54565b9150508091505092915050565b60006101a0820190506152fb600083018e6151ab565b615308602083018d6151d5565b615315606083018c615204565b615322608083018b615220565b61532f60a083018a61523c565b61533c60e083018961526b565b61534a6101008301886151ab565b6153586101208301876151ab565b6153666101408301866151ab565b6153746101608301856151ab565b8181036101808301526153878184615287565b90509c9b505050505050505050505050565b7f4e487b7100000000000000000000000000000000000000000000000000000000600052602260045260246000fd5b600060028204905060018216806153e057607f821691505b6020821081036153f3576153f2615399565b5b50919050565b7f4e487b7100000000000000000000000000000000000000000000000000000000600052601160045260246000fd5b60006154338261423c565b91507fffffffffffffffffffffffffffffffffffffffffffffffffffffffffffffffff8203615465576154646153f9565b5b600182019050919050565b600082825260208201905092915050565b7f4f6e6c792074686520627574636865722063616e206d61726b2074686520616e60008201527f696d616c2061732070726f636573736564000000000000000000000000000000602082015250565b60006154dd603183615470565b91506154e882615481565b604082019050919050565b6000602082019050818103600083015261550c816154d0565b9050919050565b7f54686520616e696d616c206d7573742062652064656c6976657265642062656660008201527f6f7265206265696e672070726f63657373656400000000000000000000000000602082015250565b600061556f603383615470565b915061557a82615513565b604082019050919050565b6000602082019050818103600083015261559e81615562565b9050919050565b7f54686520616e696d616c20697320616c72656164792070726f63657373656400600082015250565b60006155db601f83615470565b91506155e6826155a5565b602082019050919050565b6000602082019050818103600083015261560a816155ce565b9050919050565b7f4f6e6c79207468652064656c697665727920736572766963652063616e206d6160008201527f726b206120626f782061732064656c6976657265640000000000000000000000602082015250565b600061566d603583615470565b915061567882615611565b604082019050919050565b6000602082019050818103600083015261569c81615660565b9050919050565b7f426f786573206d757374206265206469737472696275746564206265666f726560008201527f206265696e672064656c69766572656400000000000000000000000000000000602082015250565b60006156ff603083615470565b915061570a826156a3565b604082019050919050565b6000602082019050818103600083015261572e816156f2565b9050919050565b7f54686520626f7820697320616c72656164792064656c69766572656400000000600082015250565b600061576b601c83615470565b915061577682615735565b602082019050919050565b6000602082019050818103600083015261579a8161575e565b9050919050565b7f4f6e6c7920746865206275746368657220616e64207468652064656c6976657260008201527f7920736572766963652063616e206d61726b206120626f78206173206469737460208201527f7269627574656400000000000000000000000000000000000000000000000000604082015250565b6000615823604783615470565b915061582e826157a1565b606082019050919050565b6000602082019050818103600083015261585281615816565b9050919050565b7f426f786573206d757374206265207072657061726564206265666f726520626560008201527f696e672064697374726962757465640000000000000000000000000000000000602082015250565b60006158b5602f83615470565b91506158c082615859565b604082019050919050565b600060208201905081810360008301526158e4816158a8565b9050919050565b7f54686520626f7820697320616c72656164792064697374726962757465640000600082015250565b6000615921601e83615470565b915061592c826158eb565b602082019050919050565b6000602082019050818103600083015261595081615914565b9050919050565b7f4e487b7100000000000000000000000000000000000000000000000000000000600052603260045260246000fd5b60006159918261423c565b915061599c8361423c565b9250827fffffffffffffffffffffffffffffffffffffffffffffffffffffffffffffffff038211156159d1576159d06153f9565b5b828201905092915050565b7f5468657265206d757374206265206174206c65617374206f6e6520626f78206960008201527f6e20746f74616c00000000000000000000000000000000000000000000000000602082015250565b6000615a38602783615470565b9150615a43826159dc565b604082019050919050565b60006020820190508181036000830152615a6781615a2b565b9050919050565b7f4f6e6c7920746865206661726d657220616e642074686520627574636865722060008201527f63616e206d61726b2074686520616e696d616c2061732064656c697665726564602082015250565b6000615aca604083615470565b9150615ad582615a6e565b604082019050919050565b60006020820190508181036000830152615af981615abd565b9050919050565b7f54686520616e696d616c20697320616c72656164792064656c69766572656400600082015250565b6000615b36601f83615470565b9150615b4182615b00565b602082019050919050565b60006020820190508181036000830152615b6581615b29565b9050919050565b7f4f6e6c792074686520627574636865722063616e206d61726b206120626f782060008201527f61732070726f6365737365640000000000000000000000000000000000000000602082015250565b6000615bc8602c83615470565b9150615bd382615b6c565b604082019050919050565b60006020820190508181036000830152615bf781615bbb565b9050919050565b7f54686520616e696d616c206d7573742062652070726f6365737365642062656660008201527f6f726520707265706172696e6720626f78657300000000000000000000000000602082015250565b6000615c5a603383615470565b9150615c6582615bfe565b604082019050919050565b60006020820190508181036000830152615c8981615c4d565b9050919050565b7f54686520626f7820697320616c72656164792070726f63657373656400000000600082015250565b6000615cc6601c83615470565b9150615cd182615c90565b602082019050919050565b60006020820190508181036000830152615cf581615cb9565b905091905056fea2646970667358221220d1091243cc30afd72d087cbf32f2f75b45a5ebfc086c4c41b883de3f2951a5ea64736f6c634300080d0033",
  "immutableReferences": {},
  "source": "// SPDX-License-Identifier: AGPL\npragma solidity ^0.8.13;\n\nimport \"./SupplyChainsTypes.sol\";\nimport \"./CrowdfundingTypes.sol\";\nimport \"./Crowdfunding.sol\";\n\ncontract SupplyChains {\n\n  mapping(uint256 => SupplyChain) public supplychains;\n\n  mapping(uint256 => mapping(uint256 => BoxStatus)) boxesStatus;\n\n  uint256 public NumberOfSupplyChains = 0;\n\n  function StartSupplyChain(Campaign memory _campaign, BoxSellRef[] memory _boxes) external {\n    SupplyChain storage supplychain = supplychains[_campaign.id];\n\n    supplychain.campaignRef = _campaign.id;\n    supplychain.isAnimalDelivered.butcher = false;\n    supplychain.isAnimalDelivered.farmer = false;\n    supplychain.isAnimalProcessed.butcher = false;\n    supplychain.areBoxesProcessed.butcher = false;\n    supplychain.areBoxesDistributed.butcher = false;\n    supplychain.areBoxesDistributed.delivery = false;\n    supplychain.areBoxesDelivered.delivery = false;\n\n    uint totalNumOfBoxes = 0;\n    for (uint256 index = 0; index < _boxes.length; index++) {\n      BoxSellRef memory box = _boxes[index];\n      totalNumOfBoxes += 1;\n\n      boxesStatus[_campaign.id][box.id].campaignRef = _campaign.id;\n      boxesStatus[_campaign.id][box.id].boxId = box.id;\n      boxesStatus[_campaign.id][box.id].isProcessed = false;\n      boxesStatus[_campaign.id][box.id].isDistributedFromButcher = false;\n      boxesStatus[_campaign.id][box.id].isDistributedToDelivery = false;\n      boxesStatus[_campaign.id][box.id].isDelivered = false;\n    }\n    require(totalNumOfBoxes > 0, \"There must be at least one box in total\");\n\n    supplychain.totalBoxes = totalNumOfBoxes;\n    supplychain.processedBoxes = 0;\n    supplychain.distributedBoxes = 0;\n    supplychain.deliveredBoxes = 0;\n\n    // import stakeholders from campaign\n    supplychain.stakeholders = _campaign.stakeholders;\n\n    NumberOfSupplyChains++;\n  }\n\n  /**\n  * Returns all supply chains\n  */\n  function getSupplyChains() public view returns (SupplyChain[] memory) {\n    SupplyChain[] memory allSupplychains = new SupplyChain[](NumberOfSupplyChains);\n    for (uint256 index = 0; index < NumberOfSupplyChains; index++) {\n      SupplyChain storage supplychain = supplychains[index];\n      allSupplychains[index] = supplychain;\n    }\n    return allSupplychains;\n  }\n\n  /**\n  * Returns all boxes status of a specific campaign\n  */\n  function getBoxesStatus(uint256 _campaignId) public view returns (BoxStatus[] memory) {\n    SupplyChain memory supplychain = supplychains[_campaignId];\n    BoxStatus[] memory boxesStatuses = new BoxStatus[](supplychain.totalBoxes);\n    for (uint256 index = 0; index < supplychain.totalBoxes; index++) {\n      boxesStatuses[index] = boxesStatus[_campaignId][index];\n    }\n    return boxesStatuses;\n  }\n\n  /**\n  * Returns the total number of supply chains\n  */\n  function getNumberOfSupplyChains() public view returns (uint256) {\n    return NumberOfSupplyChains;\n  }\n\n  /**\n  * Mark the animal of a campaign as delivered (to the butcher)\n  */\n  function markAnimalAsDelivered(uint256 _campaignId) public {\n    SupplyChain storage supplychain = supplychains[_campaignId];\n\n    require(\n      (msg.sender == supplychain.stakeholders.farmer.owner) || (msg.sender == supplychain.stakeholders.butcher.owner),\n      \"Only the farmer and the butcher can mark the animal as delivered\"\n    );\n    require(!supplychain.isAnimalDelivered.farmer || !supplychain.isAnimalDelivered.butcher, \"The animal is already delivered\");\n\n    if (msg.sender == supplychain.stakeholders.farmer.owner) {\n      supplychain.isAnimalDelivered.farmer = true;\n    }\n    if (msg.sender == supplychain.stakeholders.butcher.owner) {\n      supplychain.isAnimalDelivered.butcher = true;\n    }\n  }\n\n  /**\n  * Mark the animal as processed by the butcher\n  */\n  function markAnimalAsProcessed(uint256 _campaignId) public {\n    SupplyChain storage supplychain = supplychains[_campaignId];\n\n    require(msg.sender == supplychain.stakeholders.butcher.owner, \"Only the butcher can mark the animal as processed\");\n    require((supplychain.isAnimalDelivered.butcher && supplychain.isAnimalDelivered.farmer), \"The animal must be delivered before being processed\");\n    require(!supplychain.isAnimalProcessed.butcher, \"The animal is already processed\");\n\n    supplychain.isAnimalProcessed.butcher = true;\n  }\n\n  /**\n  * Mark a box as processed by the butcher\n  */\n  function markBoxAsProcessed(uint256 _campaignId, uint256 _boxId) public {\n    SupplyChain storage supplychain = supplychains[_campaignId];\n\n    require(msg.sender == supplychain.stakeholders.butcher.owner, \"Only the butcher can mark a box as processed\");\n    require(supplychain.isAnimalProcessed.butcher, \"The animal must be processed before preparing boxes\");\n    require(!boxesStatus[_campaignId][_boxId].isProcessed, \"The box is already processed\");\n\n    boxesStatus[_campaignId][_boxId].isProcessed = true;\n\n    supplychain.processedBoxes++;\n\n    if(areBoxesProcessed(_campaignId)) {\n      supplychain.areBoxesProcessed.butcher = true;\n    }\n  }\n\n  /**\n  * Mark a box as distributed by the delivery service\n  */\n  function markBoxAsDistributed(uint256 _campaignId, uint256 _boxId) public {\n    SupplyChain storage supplychain = supplychains[_campaignId];\n\n    require(\n      (msg.sender == supplychain.stakeholders.delivery.owner) || (msg.sender == supplychain.stakeholders.butcher.owner),\n      \"Only the butcher and the delivery service can mark a box as distributed\");\n    require(supplychain.areBoxesProcessed.butcher, \"Boxes must be prepared before being distributed\");\n    require(\n      (!boxesStatus[_campaignId][_boxId].isDistributedFromButcher || !boxesStatus[_campaignId][_boxId].isDistributedToDelivery),\n      \"The box is already distributed\");\n\n    if (msg.sender == supplychain.stakeholders.butcher.owner) {\n      boxesStatus[_campaignId][_boxId].isDistributedFromButcher = true;\n\n      if(areBoxesDistributedFromButcher(_campaignId)) {\n        supplychain.areBoxesDistributed.butcher = true;\n      }\n    }\n\n    if (msg.sender == supplychain.stakeholders.delivery.owner) {\n      boxesStatus[_campaignId][_boxId].isDistributedToDelivery = true;\n\n      if (areBoxesDistributedToDelivery(_campaignId)) {\n        supplychain.areBoxesDistributed.delivery = true;\n      }\n    }\n\n    if (boxesStatus[_campaignId][_boxId].isDistributedFromButcher && boxesStatus[_campaignId][_boxId].isDistributedToDelivery) {\n      supplychain.distributedBoxes++;\n    }\n  }\n\n  /**\n  * Mark a box as delivered by the delivery service\n  */\n  function markBoxAsDelivered(uint256 _campaignId, uint256 _boxId) public {\n    SupplyChain storage supplychain = supplychains[_campaignId];\n\n    require(msg.sender == supplychain.stakeholders.delivery.owner, \"Only the delivery service can mark a box as delivered\");\n    require(\n      supplychain.areBoxesDistributed.butcher || supplychain.areBoxesDistributed.delivery,\n      \"Boxes must be distributed before being delivered\");\n    require(!boxesStatus[_campaignId][_boxId].isDelivered, \"The box is already delivered\");\n\n    boxesStatus[_campaignId][_boxId].isDelivered = true;\n\n    supplychain.deliveredBoxes++;\n\n    if(areBoxesDelivered(_campaignId)) {\n      supplychain.areBoxesDelivered.delivery = true;\n    }\n  }\n\n  /**\n  * Check if the supply chain is completed\n  */\n  function isCompleted(uint256 _campaignId) external view returns (bool) {\n    SupplyChain memory supplychain = supplychains[_campaignId];\n    return (\n      supplychain.isAnimalDelivered.farmer &&\n      supplychain.isAnimalDelivered.butcher &&\n      supplychain.isAnimalProcessed.butcher &&\n      supplychain.areBoxesProcessed.butcher &&\n      supplychain.areBoxesDistributed.butcher &&\n      supplychain.areBoxesDistributed.delivery &&\n      supplychain.areBoxesDelivered.delivery);\n  }\n\n  // ----- HELPER METHODS -----\n\n  /**\n  * Check if all boxes are processed by the butcher\n  */\n  function areBoxesProcessed(uint256 _campaignId) public view returns (bool) {\n    SupplyChain memory supplychain = supplychains[_campaignId];\n\n    for (uint256 index = 0; index < supplychain.totalBoxes; index++) {\n      if (!boxesStatus[_campaignId][index].isProcessed) {\n        return false;\n      }\n    }\n    return true;\n  }\n\n  /**\n  * Check if all boxes are distributed from the butcher\n  */\n  function areBoxesDistributedFromButcher(uint256 _campaignId) public view returns (bool) {\n    SupplyChain memory supplychain = supplychains[_campaignId];\n\n    for (uint256 index = 0; index < supplychain.totalBoxes; index++) {\n      if (!boxesStatus[_campaignId][index].isDistributedFromButcher) {\n        return false;\n      }\n    }\n    return true;\n  }\n\n  /**\n  * Check if all boxes are distributed to the delivery service\n  */\n  function areBoxesDistributedToDelivery(uint256 _campaignId) public view returns (bool) {\n    SupplyChain memory supplychain = supplychains[_campaignId];\n\n    for (uint256 index = 0; index < supplychain.totalBoxes; index++) {\n      if (!boxesStatus[_campaignId][index].isDistributedToDelivery) {\n        return false;\n      }\n    }\n    return true;\n  }\n\n  /**\n  * Check if all boxes are delivered by the delivery service\n  */\n  function areBoxesDelivered(uint256 _campaignId) public view returns (bool) {\n    SupplyChain memory supplychain = supplychains[_campaignId];\n\n    for (uint256 index = 0; index < supplychain.totalBoxes; index++) {\n      if(!boxesStatus[_campaignId][index].isDelivered) {\n        return false;\n      }\n    }\n    return true;\n  }\n}\n",
  "sourcePath": "/workspaces/146157_Blockchain/smart_contracts/contracts/SupplyChains.sol",
  "compiler": {
    "name": "solc",
    "version": "0.8.13+commit.abaa5c0e.Emscripten.clang"
  },
  "schemaVersion": "3.4.14",
  "updatedAt": "2023-08-16T10:14:46.336Z",
  "devdoc": {
    "kind": "dev",
    "methods": {},
    "version": 1
  },
  "userdoc": {
    "kind": "user",
    "methods": {
      "areBoxesDelivered(uint256)": {
        "notice": "Check if all boxes are delivered by the delivery service"
      },
      "areBoxesDistributedFromButcher(uint256)": {
        "notice": "Check if all boxes are distributed from the butcher"
      },
      "areBoxesDistributedToDelivery(uint256)": {
        "notice": "Check if all boxes are distributed to the delivery service"
      },
      "areBoxesProcessed(uint256)": {
        "notice": "Check if all boxes are processed by the butcher"
      },
      "getBoxesStatus(uint256)": {
        "notice": "Returns all boxes status of a specific campaign"
      },
      "getNumberOfSupplyChains()": {
        "notice": "Returns the total number of supply chains"
      },
      "getSupplyChains()": {
        "notice": "Returns all supply chains"
      },
      "isCompleted(uint256)": {
        "notice": "Check if the supply chain is completed"
      },
      "markAnimalAsDelivered(uint256)": {
        "notice": "Mark the animal of a campaign as delivered (to the butcher)"
      },
      "markAnimalAsProcessed(uint256)": {
        "notice": "Mark the animal as processed by the butcher"
      },
      "markBoxAsDelivered(uint256,uint256)": {
        "notice": "Mark a box as delivered by the delivery service"
      },
      "markBoxAsDistributed(uint256,uint256)": {
        "notice": "Mark a box as distributed by the delivery service"
      },
      "markBoxAsProcessed(uint256,uint256)": {
        "notice": "Mark a box as processed by the butcher"
      }
    },
    "version": 1
  }
}