{
  "contractName": "SupplyChains",
  "abi": [
    {
      "inputs": [],
      "name": "NumberOfSupplyChains",
      "outputs": [
        {
          "internalType": "uint256",
          "name": "",
          "type": "uint256"
        }
      ],
      "stateMutability": "view",
      "type": "function"
    },
    {
      "inputs": [
        {
          "internalType": "uint256",
          "name": "",
          "type": "uint256"
        }
      ],
      "name": "supplychains",
      "outputs": [
        {
          "internalType": "uint256",
          "name": "campaignRef",
          "type": "uint256"
        },
        {
          "components": [
            {
              "internalType": "bool",
              "name": "farmer",
              "type": "bool"
            },
            {
              "internalType": "bool",
              "name": "butcher",
              "type": "bool"
            }
          ],
          "internalType": "struct AnimalDeliverStatus",
          "name": "isAnimalDelivered",
          "type": "tuple"
        },
        {
          "components": [
            {
              "internalType": "bool",
              "name": "butcher",
              "type": "bool"
            }
          ],
          "internalType": "struct AnimalProcessStatus",
          "name": "isAnimalProcessed",
          "type": "tuple"
        },
        {
          "components": [
            {
              "internalType": "bool",
              "name": "butcher",
              "type": "bool"
            }
          ],
          "internalType": "struct BoxProcessStatus",
          "name": "areBoxesProcessed",
          "type": "tuple"
        },
        {
          "components": [
            {
              "internalType": "bool",
              "name": "butcher",
              "type": "bool"
            },
            {
              "internalType": "bool",
              "name": "delivery",
              "type": "bool"
            }
          ],
          "internalType": "struct BoxDistributionStatus",
          "name": "areBoxesDistributed",
          "type": "tuple"
        },
        {
          "components": [
            {
              "internalType": "bool",
              "name": "delivery",
              "type": "bool"
            }
          ],
          "internalType": "struct BoxDeliverStatus",
          "name": "areBoxesDelivered",
          "type": "tuple"
        },
        {
          "internalType": "uint256",
          "name": "totalBoxes",
          "type": "uint256"
        },
        {
          "internalType": "uint256",
          "name": "processedBoxes",
          "type": "uint256"
        },
        {
          "internalType": "uint256",
          "name": "distributedBoxes",
          "type": "uint256"
        },
        {
          "internalType": "uint256",
          "name": "deliveredBoxes",
          "type": "uint256"
        },
        {
          "components": [
            {
              "components": [
                {
                  "internalType": "address payable",
                  "name": "owner",
                  "type": "address"
                },
                {
                  "internalType": "uint8",
                  "name": "share",
                  "type": "uint8"
                },
                {
                  "internalType": "string",
                  "name": "info",
                  "type": "string"
                }
              ],
              "internalType": "struct Stakeholder",
              "name": "farmer",
              "type": "tuple"
            },
            {
              "components": [
                {
                  "internalType": "address payable",
                  "name": "owner",
                  "type": "address"
                },
                {
                  "internalType": "uint8",
                  "name": "share",
                  "type": "uint8"
                },
                {
                  "internalType": "string",
                  "name": "info",
                  "type": "string"
                }
              ],
              "internalType": "struct Stakeholder",
              "name": "butcher",
              "type": "tuple"
            },
            {
              "components": [
                {
                  "internalType": "address payable",
                  "name": "owner",
                  "type": "address"
                },
                {
                  "internalType": "uint8",
                  "name": "share",
                  "type": "uint8"
                },
                {
                  "internalType": "string",
                  "name": "info",
                  "type": "string"
                }
              ],
              "internalType": "struct Stakeholder",
              "name": "delivery",
              "type": "tuple"
            }
          ],
          "internalType": "struct StakeholderList",
          "name": "stakeholders",
          "type": "tuple"
        }
      ],
      "stateMutability": "view",
      "type": "function"
    },
    {
      "inputs": [
        {
          "components": [
            {
              "internalType": "uint256",
              "name": "id",
              "type": "uint256"
            },
            {
              "components": [
                {
                  "internalType": "string",
                  "name": "title",
                  "type": "string"
                },
                {
                  "internalType": "string",
                  "name": "description",
                  "type": "string"
                },
                {
                  "internalType": "uint256",
                  "name": "deadline",
                  "type": "uint256"
                }
              ],
              "internalType": "struct CampaignInfo",
              "name": "info",
              "type": "tuple"
            },
            {
              "components": [
                {
                  "internalType": "uint256",
                  "name": "collectedAmount",
                  "type": "uint256"
                },
                {
                  "internalType": "uint256",
                  "name": "createdAt",
                  "type": "uint256"
                },
                {
                  "internalType": "uint256",
                  "name": "totalBoxes",
                  "type": "uint256"
                },
                {
                  "internalType": "uint256",
                  "name": "boxesSold",
                  "type": "uint256"
                },
                {
                  "internalType": "uint256",
                  "name": "totalBoxTypes",
                  "type": "uint256"
                },
                {
                  "internalType": "bool",
                  "name": "isStopped",
                  "type": "bool"
                }
              ],
              "internalType": "struct CampaignMeta",
              "name": "meta",
              "type": "tuple"
            },
            {
              "components": [
                {
                  "internalType": "address",
                  "name": "owner",
                  "type": "address"
                },
                {
                  "internalType": "string",
                  "name": "ownerPublicKey",
                  "type": "string"
                }
              ],
              "internalType": "struct CampaignOwner",
              "name": "owner",
              "type": "tuple"
            },
            {
              "components": [
                {
                  "internalType": "string",
                  "name": "earTag",
                  "type": "string"
                },
                {
                  "internalType": "string",
                  "name": "name",
                  "type": "string"
                },
                {
                  "internalType": "string",
                  "name": "farm",
                  "type": "string"
                },
                {
                  "internalType": "uint8",
                  "name": "age",
                  "type": "uint8"
                }
              ],
              "internalType": "struct CampaignAnimalData",
              "name": "animal",
              "type": "tuple"
            },
            {
              "components": [
                {
                  "components": [
                    {
                      "internalType": "address payable",
                      "name": "owner",
                      "type": "address"
                    },
                    {
                      "internalType": "uint8",
                      "name": "share",
                      "type": "uint8"
                    },
                    {
                      "internalType": "string",
                      "name": "info",
                      "type": "string"
                    }
                  ],
                  "internalType": "struct Stakeholder",
                  "name": "farmer",
                  "type": "tuple"
                },
                {
                  "components": [
                    {
                      "internalType": "address payable",
                      "name": "owner",
                      "type": "address"
                    },
                    {
                      "internalType": "uint8",
                      "name": "share",
                      "type": "uint8"
                    },
                    {
                      "internalType": "string",
                      "name": "info",
                      "type": "string"
                    }
                  ],
                  "internalType": "struct Stakeholder",
                  "name": "butcher",
                  "type": "tuple"
                },
                {
                  "components": [
                    {
                      "internalType": "address payable",
                      "name": "owner",
                      "type": "address"
                    },
                    {
                      "internalType": "uint8",
                      "name": "share",
                      "type": "uint8"
                    },
                    {
                      "internalType": "string",
                      "name": "info",
                      "type": "string"
                    }
                  ],
                  "internalType": "struct Stakeholder",
                  "name": "delivery",
                  "type": "tuple"
                }
              ],
              "internalType": "struct StakeholderList",
              "name": "stakeholders",
              "type": "tuple"
            }
          ],
          "internalType": "struct Campaign",
          "name": "_campaign",
          "type": "tuple"
        },
        {
          "components": [
            {
              "internalType": "uint256",
              "name": "id",
              "type": "uint256"
            },
            {
              "internalType": "uint256",
              "name": "boxId",
              "type": "uint256"
            },
            {
              "internalType": "address",
              "name": "owner",
              "type": "address"
            },
            {
              "internalType": "uint256",
              "name": "boughtAt",
              "type": "uint256"
            },
            {
              "internalType": "string",
              "name": "physAddress",
              "type": "string"
            }
          ],
          "internalType": "struct BoxSellRef[]",
          "name": "_boxes",
          "type": "tuple[]"
        }
      ],
      "name": "StartSupplyChain",
      "outputs": [],
      "stateMutability": "nonpayable",
      "type": "function"
    },
    {
      "inputs": [],
      "name": "getSupplyChains",
      "outputs": [
        {
          "components": [
            {
              "internalType": "uint256",
              "name": "campaignRef",
              "type": "uint256"
            },
            {
              "components": [
                {
                  "internalType": "bool",
                  "name": "farmer",
                  "type": "bool"
                },
                {
                  "internalType": "bool",
                  "name": "butcher",
                  "type": "bool"
                }
              ],
              "internalType": "struct AnimalDeliverStatus",
              "name": "isAnimalDelivered",
              "type": "tuple"
            },
            {
              "components": [
                {
                  "internalType": "bool",
                  "name": "butcher",
                  "type": "bool"
                }
              ],
              "internalType": "struct AnimalProcessStatus",
              "name": "isAnimalProcessed",
              "type": "tuple"
            },
            {
              "components": [
                {
                  "internalType": "bool",
                  "name": "butcher",
                  "type": "bool"
                }
              ],
              "internalType": "struct BoxProcessStatus",
              "name": "areBoxesProcessed",
              "type": "tuple"
            },
            {
              "components": [
                {
                  "internalType": "bool",
                  "name": "butcher",
                  "type": "bool"
                },
                {
                  "internalType": "bool",
                  "name": "delivery",
                  "type": "bool"
                }
              ],
              "internalType": "struct BoxDistributionStatus",
              "name": "areBoxesDistributed",
              "type": "tuple"
            },
            {
              "components": [
                {
                  "internalType": "bool",
                  "name": "delivery",
                  "type": "bool"
                }
              ],
              "internalType": "struct BoxDeliverStatus",
              "name": "areBoxesDelivered",
              "type": "tuple"
            },
            {
              "internalType": "uint256",
              "name": "totalBoxes",
              "type": "uint256"
            },
            {
              "internalType": "uint256",
              "name": "processedBoxes",
              "type": "uint256"
            },
            {
              "internalType": "uint256",
              "name": "distributedBoxes",
              "type": "uint256"
            },
            {
              "internalType": "uint256",
              "name": "deliveredBoxes",
              "type": "uint256"
            },
            {
              "components": [
                {
                  "components": [
                    {
                      "internalType": "address payable",
                      "name": "owner",
                      "type": "address"
                    },
                    {
                      "internalType": "uint8",
                      "name": "share",
                      "type": "uint8"
                    },
                    {
                      "internalType": "string",
                      "name": "info",
                      "type": "string"
                    }
                  ],
                  "internalType": "struct Stakeholder",
                  "name": "farmer",
                  "type": "tuple"
                },
                {
                  "components": [
                    {
                      "internalType": "address payable",
                      "name": "owner",
                      "type": "address"
                    },
                    {
                      "internalType": "uint8",
                      "name": "share",
                      "type": "uint8"
                    },
                    {
                      "internalType": "string",
                      "name": "info",
                      "type": "string"
                    }
                  ],
                  "internalType": "struct Stakeholder",
                  "name": "butcher",
                  "type": "tuple"
                },
                {
                  "components": [
                    {
                      "internalType": "address payable",
                      "name": "owner",
                      "type": "address"
                    },
                    {
                      "internalType": "uint8",
                      "name": "share",
                      "type": "uint8"
                    },
                    {
                      "internalType": "string",
                      "name": "info",
                      "type": "string"
                    }
                  ],
                  "internalType": "struct Stakeholder",
                  "name": "delivery",
                  "type": "tuple"
                }
              ],
              "internalType": "struct StakeholderList",
              "name": "stakeholders",
              "type": "tuple"
            }
          ],
          "internalType": "struct SupplyChain[]",
          "name": "",
          "type": "tuple[]"
        }
      ],
      "stateMutability": "view",
      "type": "function"
    },
    {
      "inputs": [
        {
          "internalType": "uint256",
          "name": "_campaignId",
          "type": "uint256"
        }
      ],
      "name": "getBoxesStatus",
      "outputs": [
        {
          "components": [
            {
              "internalType": "uint256",
              "name": "campaignRef",
              "type": "uint256"
            },
            {
              "internalType": "uint256",
              "name": "boxId",
              "type": "uint256"
            },
            {
              "internalType": "bool",
              "name": "isProcessed",
              "type": "bool"
            },
            {
              "internalType": "bool",
              "name": "isDistributedFromButcher",
              "type": "bool"
            },
            {
              "internalType": "bool",
              "name": "isDistributedToDelivery",
              "type": "bool"
            },
            {
              "internalType": "bool",
              "name": "isDelivered",
              "type": "bool"
            }
          ],
          "internalType": "struct BoxStatus[]",
          "name": "",
          "type": "tuple[]"
        }
      ],
      "stateMutability": "view",
      "type": "function"
    },
    {
      "inputs": [],
      "name": "getNumberOfSupplyChains",
      "outputs": [
        {
          "internalType": "uint256",
          "name": "",
          "type": "uint256"
        }
      ],
      "stateMutability": "view",
      "type": "function"
    },
    {
      "inputs": [
        {
          "internalType": "uint256",
          "name": "_campaignId",
          "type": "uint256"
        }
      ],
      "name": "markAnimalAsDelivered",
      "outputs": [],
      "stateMutability": "nonpayable",
      "type": "function"
    },
    {
      "inputs": [
        {
          "internalType": "uint256",
          "name": "_campaignId",
          "type": "uint256"
        }
      ],
      "name": "markAnimalAsProcessed",
      "outputs": [],
      "stateMutability": "nonpayable",
      "type": "function"
    },
    {
      "inputs": [
        {
          "internalType": "uint256",
          "name": "_campaignId",
          "type": "uint256"
        },
        {
          "internalType": "uint256",
          "name": "_boxId",
          "type": "uint256"
        }
      ],
      "name": "markBoxAsProcessed",
      "outputs": [],
      "stateMutability": "nonpayable",
      "type": "function"
    },
    {
      "inputs": [
        {
          "internalType": "uint256",
          "name": "_campaignId",
          "type": "uint256"
        },
        {
          "internalType": "uint256",
          "name": "_boxId",
          "type": "uint256"
        }
      ],
      "name": "markBoxAsDistributed",
      "outputs": [],
      "stateMutability": "nonpayable",
      "type": "function"
    },
    {
      "inputs": [
        {
          "internalType": "uint256",
          "name": "_campaignId",
          "type": "uint256"
        },
        {
          "internalType": "uint256",
          "name": "_boxId",
          "type": "uint256"
        }
      ],
      "name": "markBoxAsDelivered",
      "outputs": [],
      "stateMutability": "nonpayable",
      "type": "function"
    },
    {
      "inputs": [
        {
          "internalType": "uint256",
          "name": "_campaignId",
          "type": "uint256"
        }
      ],
      "name": "isCompleted",
      "outputs": [
        {
          "internalType": "bool",
          "name": "",
          "type": "bool"
        }
      ],
      "stateMutability": "view",
      "type": "function"
    },
    {
      "inputs": [
        {
          "internalType": "uint256",
          "name": "_campaignId",
          "type": "uint256"
        }
      ],
      "name": "areBoxesProcessed",
      "outputs": [
        {
          "internalType": "bool",
          "name": "",
          "type": "bool"
        }
      ],
      "stateMutability": "view",
      "type": "function"
    },
    {
      "inputs": [
        {
          "internalType": "uint256",
          "name": "_campaignId",
          "type": "uint256"
        }
      ],
      "name": "areBoxesDistributedFromButcher",
      "outputs": [
        {
          "internalType": "bool",
          "name": "",
          "type": "bool"
        }
      ],
      "stateMutability": "view",
      "type": "function"
    },
    {
      "inputs": [
        {
          "internalType": "uint256",
          "name": "_campaignId",
          "type": "uint256"
        }
      ],
      "name": "areBoxesDistributedToDelivery",
      "outputs": [
        {
          "internalType": "bool",
          "name": "",
          "type": "bool"
        }
      ],
      "stateMutability": "view",
      "type": "function"
    },
    {
      "inputs": [
        {
          "internalType": "uint256",
          "name": "_campaignId",
          "type": "uint256"
        }
      ],
      "name": "areBoxesDelivered",
      "outputs": [
        {
          "internalType": "bool",
          "name": "",
          "type": "bool"
        }
      ],
      "stateMutability": "view",
      "type": "function"
    }
  ],
  "bytecode": "0x6080604052600060025534801561001557600080fd5b50615cdc80620000266000396000f3fe608060405234801561001057600080fd5b50600436106101005760003560e01c80638a2249a311610097578063d1d9e7c011610066578063d1d9e7c0146102bb578063da21696c146102d9578063e7252434146102f7578063e9368de91461032757610100565b80638a2249a3146102215780639295a9f714610251578063c0bd69c714610281578063c58c782c1461029f57610100565b80633d709a29116100d35780633d709a2914610189578063692799dc146101a55780636f439b46146101d55780637a41984b146101f157610100565b80630aab769e14610105578063154a9fe114610135578063280f8949146101515780633afe21091461016d575b600080fd5b61011f600480360381019061011a9190614256565b610361565b60405161012c919061429e565b60405180910390f35b61014f600480360381019061014a9190614256565b6108a8565b005b61016b600480360381019061016691906142b9565b610a40565b005b610187600480360381019061018291906142b9565b610c60565b005b6101a3600480360381019061019e9190614b98565b6110a3565b005b6101bf60048036038101906101ba9190614256565b6115ce565b6040516101cc919061429e565b60405180910390f35b6101ef60048036038101906101ea9190614256565b611b15565b005b61020b60048036038101906102069190614256565b611d95565b604051610218919061429e565b60405180910390f35b61023b60048036038101906102369190614256565b6122e1565b6040516102489190614d58565b60405180910390f35b61026b60048036038101906102669190614256565b61290d565b604051610278919061429e565b60405180910390f35b610289612e54565b6040516102969190615133565b60405180910390f35b6102b960048036038101906102b491906142b9565b6133cc565b005b6102c36135d0565b6040516102d09190615164565b60405180910390f35b6102e16135d6565b6040516102ee9190615164565b60405180910390f35b610311600480360381019061030c9190614256565b6135e0565b60405161031e919061429e565b60405180910390f35b610341600480360381019061033c9190614256565b613b27565b6040516103589b9a9998979695949392919061528f565b60405180910390f35b6000806000808481526020019081526020016000206040518061016001604052908160008201548152602001600182016040518060400160405290816000820160009054906101000a900460ff161515151581526020016000820160019054906101000a900460ff1615151515815250508152602001600282016040518060200160405290816000820160009054906101000a900460ff1615151515815250508152602001600382016040518060200160405290816000820160009054906101000a900460ff1615151515815250508152602001600482016040518060400160405290816000820160009054906101000a900460ff161515151581526020016000820160019054906101000a900460ff1615151515815250508152602001600582016040518060200160405290816000820160009054906101000a900460ff161515151581525050815260200160068201548152602001600782015481526020016008820154815260200160098201548152602001600a8201604051806060016040529081600082016040518060600160405290816000820160009054906101000a900473ffffffffffffffffffffffffffffffffffffffff1673ffffffffffffffffffffffffffffffffffffffff1673ffffffffffffffffffffffffffffffffffffffff1681526020016000820160149054906101000a900460ff1660ff1660ff16815260200160018201805461057890615372565b80601f01602080910402602001604051908101604052809291908181526020018280546105a490615372565b80156105f15780601f106105c6576101008083540402835291602001916105f1565b820191906000526020600020905b8154815290600101906020018083116105d457829003601f168201915b5050505050815250508152602001600282016040518060600160405290816000820160009054906101000a900473ffffffffffffffffffffffffffffffffffffffff1673ffffffffffffffffffffffffffffffffffffffff1673ffffffffffffffffffffffffffffffffffffffff1681526020016000820160149054906101000a900460ff1660ff1660ff16815260200160018201805461069190615372565b80601f01602080910402602001604051908101604052809291908181526020018280546106bd90615372565b801561070a5780601f106106df5761010080835404028352916020019161070a565b820191906000526020600020905b8154815290600101906020018083116106ed57829003601f168201915b5050505050815250508152602001600482016040518060600160405290816000820160009054906101000a900473ffffffffffffffffffffffffffffffffffffffff1673ffffffffffffffffffffffffffffffffffffffff1673ffffffffffffffffffffffffffffffffffffffff1681526020016000820160149054906101000a900460ff1660ff1660ff1681526020016001820180546107aa90615372565b80601f01602080910402602001604051908101604052809291908181526020018280546107d690615372565b80156108235780601f106107f857610100808354040283529160200191610823565b820191906000526020600020905b81548152906001019060200180831161080657829003601f168201915b5050505050815250508152505081525050905060005b8160c0015181101561089c5760016000858152602001908152602001600020600082815260200190815260200160002060020160009054906101000a900460ff16610889576000925050506108a3565b8080610894906153d2565b915050610839565b5060019150505b919050565b6000806000838152602001908152602001600020905080600a0160020160000160009054906101000a900473ffffffffffffffffffffffffffffffffffffffff1673ffffffffffffffffffffffffffffffffffffffff163373ffffffffffffffffffffffffffffffffffffffff1614610956576040517f08c379a000000000000000000000000000000000000000000000000000000000815260040161094d9061549d565b60405180910390fd5b8060010160000160019054906101000a900460ff16801561098857508060010160000160009054906101000a900460ff165b6109c7576040517f08c379a00000000000000000000000000000000000000000000000000000000081526004016109be9061552f565b60405180910390fd5b8060020160000160009054906101000a900460ff1615610a1c576040517f08c379a0000000000000000000000000000000000000000000000000000000008152600401610a139061559b565b60405180910390fd5b60018160020160000160006101000a81548160ff0219169083151502179055505050565b6000806000848152602001908152602001600020905080600a0160040160000160009054906101000a900473ffffffffffffffffffffffffffffffffffffffff1673ffffffffffffffffffffffffffffffffffffffff163373ffffffffffffffffffffffffffffffffffffffff1614610aee576040517f08c379a0000000000000000000000000000000000000000000000000000000008152600401610ae59061562d565b60405180910390fd5b8060040160000160009054906101000a900460ff1680610b1f57508060040160000160019054906101000a900460ff165b610b5e576040517f08c379a0000000000000000000000000000000000000000000000000000000008152600401610b55906156bf565b60405180910390fd5b60016000848152602001908152602001600020600083815260200190815260200160002060020160039054906101000a900460ff1615610bd3576040517f08c379a0000000000000000000000000000000000000000000000000000000008152600401610bca9061572b565b60405180910390fd5b6001806000858152602001908152602001600020600084815260200190815260200160002060020160036101000a81548160ff021916908315150217905550806009016000815480929190610c27906153d2565b9190505550610c358361290d565b15610c5b5760018160050160000160006101000a81548160ff0219169083151502179055505b505050565b6000806000848152602001908152602001600020905080600a0160040160000160009054906101000a900473ffffffffffffffffffffffffffffffffffffffff1673ffffffffffffffffffffffffffffffffffffffff163373ffffffffffffffffffffffffffffffffffffffff161480610d2f575080600a0160020160000160009054906101000a900473ffffffffffffffffffffffffffffffffffffffff1673ffffffffffffffffffffffffffffffffffffffff163373ffffffffffffffffffffffffffffffffffffffff16145b610d6e576040517f08c379a0000000000000000000000000000000000000000000000000000000008152600401610d65906157e3565b60405180910390fd5b8060030160000160009054906101000a900460ff16610dc2576040517f08c379a0000000000000000000000000000000000000000000000000000000008152600401610db990615875565b60405180910390fd5b60016000848152602001908152602001600020600083815260200190815260200160002060020160019054906101000a900460ff161580610e35575060016000848152602001908152602001600020600083815260200190815260200160002060020160029054906101000a900460ff16155b610e74576040517f08c379a0000000000000000000000000000000000000000000000000000000008152600401610e6b906158e1565b60405180910390fd5b80600a0160020160000160009054906101000a900473ffffffffffffffffffffffffffffffffffffffff1673ffffffffffffffffffffffffffffffffffffffff163373ffffffffffffffffffffffffffffffffffffffff1603610f40576001806000858152602001908152602001600020600084815260200190815260200160002060020160016101000a81548160ff021916908315150217905550610f19836135e0565b15610f3f5760018160040160000160006101000a81548160ff0219169083151502179055505b5b80600a0160040160000160009054906101000a900473ffffffffffffffffffffffffffffffffffffffff1673ffffffffffffffffffffffffffffffffffffffff163373ffffffffffffffffffffffffffffffffffffffff160361100c576001806000858152602001908152602001600020600084815260200190815260200160002060020160026101000a81548160ff021916908315150217905550610fe5836115ce565b1561100b5760018160040160000160016101000a81548160ff0219169083151502179055505b5b60016000848152602001908152602001600020600083815260200190815260200160002060020160019054906101000a900460ff16801561107e575060016000848152602001908152602001600020600083815260200190815260200160002060020160029054906101000a900460ff165b1561109e57806008016000815480929190611098906153d2565b91905055505b505050565b60008060008460000151815260200190815260200160002090508260000151816000018190555060008160010160000160016101000a81548160ff02191690831515021790555060008160010160000160006101000a81548160ff02191690831515021790555060008160020160000160006101000a81548160ff02191690831515021790555060008160030160000160006101000a81548160ff02191690831515021790555060008160040160000160006101000a81548160ff02191690831515021790555060008160040160000160016101000a81548160ff02191690831515021790555060008160050160000160006101000a81548160ff0219169083151502179055506000805b83518110156113895760008482815181106111cc576111cb615901565b5b602002602001015190506001836111e39190615930565b9250856000015160016000886000015181526020019081526020016000206000836000015181526020019081526020016000206000018190555080600001516001600088600001518152602001908152602001600020600083600001518152602001908152602001600020600101819055506000600160008860000151815260200190815260200160002060008360000151815260200190815260200160002060020160006101000a81548160ff0219169083151502179055506000600160008860000151815260200190815260200160002060008360000151815260200190815260200160002060020160016101000a81548160ff0219169083151502179055506000600160008860000151815260200190815260200160002060008360000151815260200190815260200160002060020160026101000a81548160ff0219169083151502179055506000600160008860000151815260200190815260200160002060008360000151815260200190815260200160002060020160036101000a81548160ff021916908315150217905550508080611381906153d2565b9150506111ae565b50600081116113cd576040517f08c379a00000000000000000000000000000000000000000000000000000000081526004016113c4906159f8565b60405180910390fd5b8082600601819055506000826007018190555060008260080181905550600082600901819055508360a0015182600a0160008201518160000160008201518160000160006101000a81548173ffffffffffffffffffffffffffffffffffffffff021916908373ffffffffffffffffffffffffffffffffffffffff16021790555060208201518160000160146101000a81548160ff021916908360ff160217905550604082015181600101908051906020019061148a929190613fc5565b50505060208201518160020160008201518160000160006101000a81548173ffffffffffffffffffffffffffffffffffffffff021916908373ffffffffffffffffffffffffffffffffffffffff16021790555060208201518160000160146101000a81548160ff021916908360ff160217905550604082015181600101908051906020019061151a929190613fc5565b50505060408201518160040160008201518160000160006101000a81548173ffffffffffffffffffffffffffffffffffffffff021916908373ffffffffffffffffffffffffffffffffffffffff16021790555060208201518160000160146101000a81548160ff021916908360ff16021790555060408201518160010190805190602001906115aa929190613fc5565b505050905050600260008154809291906115c3906153d2565b919050555050505050565b6000806000808481526020019081526020016000206040518061016001604052908160008201548152602001600182016040518060400160405290816000820160009054906101000a900460ff161515151581526020016000820160019054906101000a900460ff1615151515815250508152602001600282016040518060200160405290816000820160009054906101000a900460ff1615151515815250508152602001600382016040518060200160405290816000820160009054906101000a900460ff1615151515815250508152602001600482016040518060400160405290816000820160009054906101000a900460ff161515151581526020016000820160019054906101000a900460ff1615151515815250508152602001600582016040518060200160405290816000820160009054906101000a900460ff161515151581525050815260200160068201548152602001600782015481526020016008820154815260200160098201548152602001600a8201604051806060016040529081600082016040518060600160405290816000820160009054906101000a900473ffffffffffffffffffffffffffffffffffffffff1673ffffffffffffffffffffffffffffffffffffffff1673ffffffffffffffffffffffffffffffffffffffff1681526020016000820160149054906101000a900460ff1660ff1660ff1681526020016001820180546117e590615372565b80601f016020809104026020016040519081016040528092919081815260200182805461181190615372565b801561185e5780601f106118335761010080835404028352916020019161185e565b820191906000526020600020905b81548152906001019060200180831161184157829003601f168201915b5050505050815250508152602001600282016040518060600160405290816000820160009054906101000a900473ffffffffffffffffffffffffffffffffffffffff1673ffffffffffffffffffffffffffffffffffffffff1673ffffffffffffffffffffffffffffffffffffffff1681526020016000820160149054906101000a900460ff1660ff1660ff1681526020016001820180546118fe90615372565b80601f016020809104026020016040519081016040528092919081815260200182805461192a90615372565b80156119775780601f1061194c57610100808354040283529160200191611977565b820191906000526020600020905b81548152906001019060200180831161195a57829003601f168201915b5050505050815250508152602001600482016040518060600160405290816000820160009054906101000a900473ffffffffffffffffffffffffffffffffffffffff1673ffffffffffffffffffffffffffffffffffffffff1673ffffffffffffffffffffffffffffffffffffffff1681526020016000820160149054906101000a900460ff1660ff1660ff168152602001600182018054611a1790615372565b80601f0160208091040260200160405190810160405280929190818152602001828054611a4390615372565b8015611a905780601f10611a6557610100808354040283529160200191611a90565b820191906000526020600020905b815481529060010190602001808311611a7357829003601f168201915b5050505050815250508152505081525050905060005b8160c00151811015611b095760016000858152602001908152602001600020600082815260200190815260200160002060020160029054906101000a900460ff16611af657600092505050611b10565b8080611b01906153d2565b915050611aa6565b5060019150505b919050565b6000806000838152602001908152602001600020905080600a0160000160000160009054906101000a900473ffffffffffffffffffffffffffffffffffffffff1673ffffffffffffffffffffffffffffffffffffffff163373ffffffffffffffffffffffffffffffffffffffff161480611be4575080600a0160020160000160009054906101000a900473ffffffffffffffffffffffffffffffffffffffff1673ffffffffffffffffffffffffffffffffffffffff163373ffffffffffffffffffffffffffffffffffffffff16145b611c23576040517f08c379a0000000000000000000000000000000000000000000000000000000008152600401611c1a90615a8a565b60405180910390fd5b8060010160000160009054906101000a900460ff161580611c5657508060010160000160019054906101000a900460ff16155b611c95576040517f08c379a0000000000000000000000000000000000000000000000000000000008152600401611c8c90615af6565b60405180910390fd5b80600a0160000160000160009054906101000a900473ffffffffffffffffffffffffffffffffffffffff1673ffffffffffffffffffffffffffffffffffffffff163373ffffffffffffffffffffffffffffffffffffffff1603611d135760018160010160000160006101000a81548160ff0219169083151502179055505b80600a0160020160000160009054906101000a900473ffffffffffffffffffffffffffffffffffffffff1673ffffffffffffffffffffffffffffffffffffffff163373ffffffffffffffffffffffffffffffffffffffff1603611d915760018160010160000160016101000a81548160ff0219169083151502179055505b5050565b6000806000808481526020019081526020016000206040518061016001604052908160008201548152602001600182016040518060400160405290816000820160009054906101000a900460ff161515151581526020016000820160019054906101000a900460ff1615151515815250508152602001600282016040518060200160405290816000820160009054906101000a900460ff1615151515815250508152602001600382016040518060200160405290816000820160009054906101000a900460ff1615151515815250508152602001600482016040518060400160405290816000820160009054906101000a900460ff161515151581526020016000820160019054906101000a900460ff1615151515815250508152602001600582016040518060200160405290816000820160009054906101000a900460ff161515151581525050815260200160068201548152602001600782015481526020016008820154815260200160098201548152602001600a8201604051806060016040529081600082016040518060600160405290816000820160009054906101000a900473ffffffffffffffffffffffffffffffffffffffff1673ffffffffffffffffffffffffffffffffffffffff1673ffffffffffffffffffffffffffffffffffffffff1681526020016000820160149054906101000a900460ff1660ff1660ff168152602001600182018054611fac90615372565b80601f0160208091040260200160405190810160405280929190818152602001828054611fd890615372565b80156120255780601f10611ffa57610100808354040283529160200191612025565b820191906000526020600020905b81548152906001019060200180831161200857829003601f168201915b5050505050815250508152602001600282016040518060600160405290816000820160009054906101000a900473ffffffffffffffffffffffffffffffffffffffff1673ffffffffffffffffffffffffffffffffffffffff1673ffffffffffffffffffffffffffffffffffffffff1681526020016000820160149054906101000a900460ff1660ff1660ff1681526020016001820180546120c590615372565b80601f01602080910402602001604051908101604052809291908181526020018280546120f190615372565b801561213e5780601f106121135761010080835404028352916020019161213e565b820191906000526020600020905b81548152906001019060200180831161212157829003601f168201915b5050505050815250508152602001600482016040518060600160405290816000820160009054906101000a900473ffffffffffffffffffffffffffffffffffffffff1673ffffffffffffffffffffffffffffffffffffffff1673ffffffffffffffffffffffffffffffffffffffff1681526020016000820160149054906101000a900460ff1660ff1660ff1681526020016001820180546121de90615372565b80601f016020809104026020016040519081016040528092919081815260200182805461220a90615372565b80156122575780601f1061222c57610100808354040283529160200191612257565b820191906000526020600020905b81548152906001019060200180831161223a57829003601f168201915b50505050508152505081525050815250509050806020015160000151801561228457508060200151602001515b801561229557508060400151600001515b80156122a657508060600151600001515b80156122b757508060800151600001515b80156122c857508060800151602001515b80156122d957508060a00151600001515b915050919050565b606060008060008481526020019081526020016000206040518061016001604052908160008201548152602001600182016040518060400160405290816000820160009054906101000a900460ff161515151581526020016000820160019054906101000a900460ff1615151515815250508152602001600282016040518060200160405290816000820160009054906101000a900460ff1615151515815250508152602001600382016040518060200160405290816000820160009054906101000a900460ff1615151515815250508152602001600482016040518060400160405290816000820160009054906101000a900460ff161515151581526020016000820160019054906101000a900460ff1615151515815250508152602001600582016040518060200160405290816000820160009054906101000a900460ff161515151581525050815260200160068201548152602001600782015481526020016008820154815260200160098201548152602001600a8201604051806060016040529081600082016040518060600160405290816000820160009054906101000a900473ffffffffffffffffffffffffffffffffffffffff1673ffffffffffffffffffffffffffffffffffffffff1673ffffffffffffffffffffffffffffffffffffffff1681526020016000820160149054906101000a900460ff1660ff1660ff1681526020016001820180546124f990615372565b80601f016020809104026020016040519081016040528092919081815260200182805461252590615372565b80156125725780601f1061254757610100808354040283529160200191612572565b820191906000526020600020905b81548152906001019060200180831161255557829003601f168201915b5050505050815250508152602001600282016040518060600160405290816000820160009054906101000a900473ffffffffffffffffffffffffffffffffffffffff1673ffffffffffffffffffffffffffffffffffffffff1673ffffffffffffffffffffffffffffffffffffffff1681526020016000820160149054906101000a900460ff1660ff1660ff16815260200160018201805461261290615372565b80601f016020809104026020016040519081016040528092919081815260200182805461263e90615372565b801561268b5780601f106126605761010080835404028352916020019161268b565b820191906000526020600020905b81548152906001019060200180831161266e57829003601f168201915b5050505050815250508152602001600482016040518060600160405290816000820160009054906101000a900473ffffffffffffffffffffffffffffffffffffffff1673ffffffffffffffffffffffffffffffffffffffff1673ffffffffffffffffffffffffffffffffffffffff1681526020016000820160149054906101000a900460ff1660ff1660ff16815260200160018201805461272b90615372565b80601f016020809104026020016040519081016040528092919081815260200182805461275790615372565b80156127a45780601f10612779576101008083540402835291602001916127a4565b820191906000526020600020905b81548152906001019060200180831161278757829003601f168201915b5050505050815250508152505081525050905060008160c0015167ffffffffffffffff8111156127d7576127d661430f565b5b60405190808252806020026020018201604052801561281057816020015b6127fd61404b565b8152602001906001900390816127f55790505b50905060005b8260c00151811015612902576001600086815260200190815260200160002060008281526020019081526020016000206040518060c001604052908160008201548152602001600182015481526020016002820160009054906101000a900460ff161515151581526020016002820160019054906101000a900460ff161515151581526020016002820160029054906101000a900460ff161515151581526020016002820160039054906101000a900460ff1615151515815250508282815181106128e4576128e3615901565b5b602002602001018190525080806128fa906153d2565b915050612816565b508092505050919050565b6000806000808481526020019081526020016000206040518061016001604052908160008201548152602001600182016040518060400160405290816000820160009054906101000a900460ff161515151581526020016000820160019054906101000a900460ff1615151515815250508152602001600282016040518060200160405290816000820160009054906101000a900460ff1615151515815250508152602001600382016040518060200160405290816000820160009054906101000a900460ff1615151515815250508152602001600482016040518060400160405290816000820160009054906101000a900460ff161515151581526020016000820160019054906101000a900460ff1615151515815250508152602001600582016040518060200160405290816000820160009054906101000a900460ff161515151581525050815260200160068201548152602001600782015481526020016008820154815260200160098201548152602001600a8201604051806060016040529081600082016040518060600160405290816000820160009054906101000a900473ffffffffffffffffffffffffffffffffffffffff1673ffffffffffffffffffffffffffffffffffffffff1673ffffffffffffffffffffffffffffffffffffffff1681526020016000820160149054906101000a900460ff1660ff1660ff168152602001600182018054612b2490615372565b80601f0160208091040260200160405190810160405280929190818152602001828054612b5090615372565b8015612b9d5780601f10612b7257610100808354040283529160200191612b9d565b820191906000526020600020905b815481529060010190602001808311612b8057829003601f168201915b5050505050815250508152602001600282016040518060600160405290816000820160009054906101000a900473ffffffffffffffffffffffffffffffffffffffff1673ffffffffffffffffffffffffffffffffffffffff1673ffffffffffffffffffffffffffffffffffffffff1681526020016000820160149054906101000a900460ff1660ff1660ff168152602001600182018054612c3d90615372565b80601f0160208091040260200160405190810160405280929190818152602001828054612c6990615372565b8015612cb65780601f10612c8b57610100808354040283529160200191612cb6565b820191906000526020600020905b815481529060010190602001808311612c9957829003601f168201915b5050505050815250508152602001600482016040518060600160405290816000820160009054906101000a900473ffffffffffffffffffffffffffffffffffffffff1673ffffffffffffffffffffffffffffffffffffffff1673ffffffffffffffffffffffffffffffffffffffff1681526020016000820160149054906101000a900460ff1660ff1660ff168152602001600182018054612d5690615372565b80601f0160208091040260200160405190810160405280929190818152602001828054612d8290615372565b8015612dcf5780601f10612da457610100808354040283529160200191612dcf565b820191906000526020600020905b815481529060010190602001808311612db257829003601f168201915b5050505050815250508152505081525050905060005b8160c00151811015612e485760016000858152602001908152602001600020600082815260200190815260200160002060020160039054906101000a900460ff16612e3557600092505050612e4f565b8080612e40906153d2565b915050612de5565b5060019150505b919050565b6060600060025467ffffffffffffffff811115612e7457612e7361430f565b5b604051908082528060200260200182016040528015612ead57816020015b612e9a614089565b815260200190600190039081612e925790505b50905060005b6002548110156133c45760008060008381526020019081526020016000209050806040518061016001604052908160008201548152602001600182016040518060400160405290816000820160009054906101000a900460ff161515151581526020016000820160019054906101000a900460ff1615151515815250508152602001600282016040518060200160405290816000820160009054906101000a900460ff1615151515815250508152602001600382016040518060200160405290816000820160009054906101000a900460ff1615151515815250508152602001600482016040518060400160405290816000820160009054906101000a900460ff161515151581526020016000820160019054906101000a900460ff1615151515815250508152602001600582016040518060200160405290816000820160009054906101000a900460ff161515151581525050815260200160068201548152602001600782015481526020016008820154815260200160098201548152602001600a8201604051806060016040529081600082016040518060600160405290816000820160009054906101000a900473ffffffffffffffffffffffffffffffffffffffff1673ffffffffffffffffffffffffffffffffffffffff1673ffffffffffffffffffffffffffffffffffffffff1681526020016000820160149054906101000a900460ff1660ff1660ff1681526020016001820180546130d690615372565b80601f016020809104026020016040519081016040528092919081815260200182805461310290615372565b801561314f5780601f106131245761010080835404028352916020019161314f565b820191906000526020600020905b81548152906001019060200180831161313257829003601f168201915b5050505050815250508152602001600282016040518060600160405290816000820160009054906101000a900473ffffffffffffffffffffffffffffffffffffffff1673ffffffffffffffffffffffffffffffffffffffff1673ffffffffffffffffffffffffffffffffffffffff1681526020016000820160149054906101000a900460ff1660ff1660ff1681526020016001820180546131ef90615372565b80601f016020809104026020016040519081016040528092919081815260200182805461321b90615372565b80156132685780601f1061323d57610100808354040283529160200191613268565b820191906000526020600020905b81548152906001019060200180831161324b57829003601f168201915b5050505050815250508152602001600482016040518060600160405290816000820160009054906101000a900473ffffffffffffffffffffffffffffffffffffffff1673ffffffffffffffffffffffffffffffffffffffff1673ffffffffffffffffffffffffffffffffffffffff1681526020016000820160149054906101000a900460ff1660ff1660ff16815260200160018201805461330890615372565b80601f016020809104026020016040519081016040528092919081815260200182805461333490615372565b80156133815780601f1061335657610100808354040283529160200191613381565b820191906000526020600020905b81548152906001019060200180831161336457829003601f168201915b50505050508152505081525050815250508383815181106133a5576133a4615901565b5b60200260200101819052505080806133bc906153d2565b915050612eb3565b508091505090565b6000806000848152602001908152602001600020905080600a0160020160000160009054906101000a900473ffffffffffffffffffffffffffffffffffffffff1673ffffffffffffffffffffffffffffffffffffffff163373ffffffffffffffffffffffffffffffffffffffff161461347a576040517f08c379a000000000000000000000000000000000000000000000000000000000815260040161347190615b88565b60405180910390fd5b8060020160000160009054906101000a900460ff166134ce576040517f08c379a00000000000000000000000000000000000000000000000000000000081526004016134c590615c1a565b60405180910390fd5b60016000848152602001908152602001600020600083815260200190815260200160002060020160009054906101000a900460ff1615613543576040517f08c379a000000000000000000000000000000000000000000000000000000000815260040161353a90615c86565b60405180910390fd5b6001806000858152602001908152602001600020600084815260200190815260200160002060020160006101000a81548160ff021916908315150217905550806007016000815480929190613597906153d2565b91905055506135a583610361565b156135cb5760018160030160000160006101000a81548160ff0219169083151502179055505b505050565b60025481565b6000600254905090565b6000806000808481526020019081526020016000206040518061016001604052908160008201548152602001600182016040518060400160405290816000820160009054906101000a900460ff161515151581526020016000820160019054906101000a900460ff1615151515815250508152602001600282016040518060200160405290816000820160009054906101000a900460ff1615151515815250508152602001600382016040518060200160405290816000820160009054906101000a900460ff1615151515815250508152602001600482016040518060400160405290816000820160009054906101000a900460ff161515151581526020016000820160019054906101000a900460ff1615151515815250508152602001600582016040518060200160405290816000820160009054906101000a900460ff161515151581525050815260200160068201548152602001600782015481526020016008820154815260200160098201548152602001600a8201604051806060016040529081600082016040518060600160405290816000820160009054906101000a900473ffffffffffffffffffffffffffffffffffffffff1673ffffffffffffffffffffffffffffffffffffffff1673ffffffffffffffffffffffffffffffffffffffff1681526020016000820160149054906101000a900460ff1660ff1660ff1681526020016001820180546137f790615372565b80601f016020809104026020016040519081016040528092919081815260200182805461382390615372565b80156138705780601f1061384557610100808354040283529160200191613870565b820191906000526020600020905b81548152906001019060200180831161385357829003601f168201915b5050505050815250508152602001600282016040518060600160405290816000820160009054906101000a900473ffffffffffffffffffffffffffffffffffffffff1673ffffffffffffffffffffffffffffffffffffffff1673ffffffffffffffffffffffffffffffffffffffff1681526020016000820160149054906101000a900460ff1660ff1660ff16815260200160018201805461391090615372565b80601f016020809104026020016040519081016040528092919081815260200182805461393c90615372565b80156139895780601f1061395e57610100808354040283529160200191613989565b820191906000526020600020905b81548152906001019060200180831161396c57829003601f168201915b5050505050815250508152602001600482016040518060600160405290816000820160009054906101000a900473ffffffffffffffffffffffffffffffffffffffff1673ffffffffffffffffffffffffffffffffffffffff1673ffffffffffffffffffffffffffffffffffffffff1681526020016000820160149054906101000a900460ff1660ff1660ff168152602001600182018054613a2990615372565b80601f0160208091040260200160405190810160405280929190818152602001828054613a5590615372565b8015613aa25780601f10613a7757610100808354040283529160200191613aa2565b820191906000526020600020905b815481529060010190602001808311613a8557829003601f168201915b5050505050815250508152505081525050905060005b8160c00151811015613b1b5760016000858152602001908152602001600020600082815260200190815260200160002060020160019054906101000a900460ff16613b0857600092505050613b22565b8080613b13906153d2565b915050613ab8565b5060019150505b919050565b6000602052806000526040600020600091509050806000015490806001016040518060400160405290816000820160009054906101000a900460ff161515151581526020016000820160019054906101000a900460ff16151515158152505090806002016040518060200160405290816000820160009054906101000a900460ff16151515158152505090806003016040518060200160405290816000820160009054906101000a900460ff16151515158152505090806004016040518060400160405290816000820160009054906101000a900460ff161515151581526020016000820160019054906101000a900460ff16151515158152505090806005016040518060200160405290816000820160009054906101000a900460ff1615151515815250509080600601549080600701549080600801549080600901549080600a01604051806060016040529081600082016040518060600160405290816000820160009054906101000a900473ffffffffffffffffffffffffffffffffffffffff1673ffffffffffffffffffffffffffffffffffffffff1673ffffffffffffffffffffffffffffffffffffffff1681526020016000820160149054906101000a900460ff1660ff1660ff168152602001600182018054613d0890615372565b80601f0160208091040260200160405190810160405280929190818152602001828054613d3490615372565b8015613d815780601f10613d5657610100808354040283529160200191613d81565b820191906000526020600020905b815481529060010190602001808311613d6457829003601f168201915b5050505050815250508152602001600282016040518060600160405290816000820160009054906101000a900473ffffffffffffffffffffffffffffffffffffffff1673ffffffffffffffffffffffffffffffffffffffff1673ffffffffffffffffffffffffffffffffffffffff1681526020016000820160149054906101000a900460ff1660ff1660ff168152602001600182018054613e2190615372565b80601f0160208091040260200160405190810160405280929190818152602001828054613e4d90615372565b8015613e9a5780601f10613e6f57610100808354040283529160200191613e9a565b820191906000526020600020905b815481529060010190602001808311613e7d57829003601f168201915b5050505050815250508152602001600482016040518060600160405290816000820160009054906101000a900473ffffffffffffffffffffffffffffffffffffffff1673ffffffffffffffffffffffffffffffffffffffff1673ffffffffffffffffffffffffffffffffffffffff1681526020016000820160149054906101000a900460ff1660ff1660ff168152602001600182018054613f3a90615372565b80601f0160208091040260200160405190810160405280929190818152602001828054613f6690615372565b8015613fb35780601f10613f8857610100808354040283529160200191613fb3565b820191906000526020600020905b815481529060010190602001808311613f9657829003601f168201915b5050505050815250508152505090508b565b828054613fd190615372565b90600052602060002090601f016020900481019282613ff3576000855561403a565b82601f1061400c57805160ff191683800117855561403a565b8280016001018555821561403a579182015b8281111561403957825182559160200191906001019061401e565b5b5090506140479190614107565b5090565b6040518060c0016040528060008152602001600081526020016000151581526020016000151581526020016000151581526020016000151581525090565b604051806101600160405280600081526020016140a4614124565b81526020016140b1614142565b81526020016140be614157565b81526020016140cb61416c565b81526020016140d861418a565b81526020016000815260200160008152602001600081526020016000815260200161410161419f565b81525090565b5b80821115614120576000816000905550600101614108565b5090565b60405180604001604052806000151581526020016000151581525090565b60405180602001604052806000151581525090565b60405180602001604052806000151581525090565b60405180604001604052806000151581526020016000151581525090565b60405180602001604052806000151581525090565b60405180606001604052806141b26141d2565b81526020016141bf6141d2565b81526020016141cc6141d2565b81525090565b6040518060600160405280600073ffffffffffffffffffffffffffffffffffffffff168152602001600060ff168152602001606081525090565b6000604051905090565b600080fd5b600080fd5b6000819050919050565b61423381614220565b811461423e57600080fd5b50565b6000813590506142508161422a565b92915050565b60006020828403121561426c5761426b614216565b5b600061427a84828501614241565b91505092915050565b60008115159050919050565b61429881614283565b82525050565b60006020820190506142b3600083018461428f565b92915050565b600080604083850312156142d0576142cf614216565b5b60006142de85828601614241565b92505060206142ef85828601614241565b9150509250929050565b600080fd5b6000601f19601f8301169050919050565b7f4e487b7100000000000000000000000000000000000000000000000000000000600052604160045260246000fd5b614347826142fe565b810181811067ffffffffffffffff821117156143665761436561430f565b5b80604052505050565b600061437961420c565b9050614385828261433e565b919050565b600080fd5b600080fd5b600080fd5b600067ffffffffffffffff8211156143b4576143b361430f565b5b6143bd826142fe565b9050602081019050919050565b82818337600083830152505050565b60006143ec6143e784614399565b61436f565b90508281526020810184848401111561440857614407614394565b5b6144138482856143ca565b509392505050565b600082601f8301126144305761442f61438f565b5b81356144408482602086016143d9565b91505092915050565b60006060828403121561445f5761445e6142f9565b5b614469606061436f565b9050600082013567ffffffffffffffff8111156144895761448861438a565b5b6144958482850161441b565b600083015250602082013567ffffffffffffffff8111156144b9576144b861438a565b5b6144c58482850161441b565b60208301525060406144d984828501614241565b60408301525092915050565b6144ee81614283565b81146144f957600080fd5b50565b60008135905061450b816144e5565b92915050565b600060c08284031215614527576145266142f9565b5b61453160c061436f565b9050600061454184828501614241565b600083015250602061455584828501614241565b602083015250604061456984828501614241565b604083015250606061457d84828501614241565b606083015250608061459184828501614241565b60808301525060a06145a5848285016144fc565b60a08301525092915050565b600073ffffffffffffffffffffffffffffffffffffffff82169050919050565b60006145dc826145b1565b9050919050565b6145ec816145d1565b81146145f757600080fd5b50565b600081359050614609816145e3565b92915050565b600060408284031215614625576146246142f9565b5b61462f604061436f565b9050600061463f848285016145fa565b600083015250602082013567ffffffffffffffff8111156146635761466261438a565b5b61466f8482850161441b565b60208301525092915050565b600060ff82169050919050565b6146918161467b565b811461469c57600080fd5b50565b6000813590506146ae81614688565b92915050565b6000608082840312156146ca576146c96142f9565b5b6146d4608061436f565b9050600082013567ffffffffffffffff8111156146f4576146f361438a565b5b6147008482850161441b565b600083015250602082013567ffffffffffffffff8111156147245761472361438a565b5b6147308482850161441b565b602083015250604082013567ffffffffffffffff8111156147545761475361438a565b5b6147608482850161441b565b60408301525060606147748482850161469f565b60608301525092915050565b600061478b826145b1565b9050919050565b61479b81614780565b81146147a657600080fd5b50565b6000813590506147b881614792565b92915050565b6000606082840312156147d4576147d36142f9565b5b6147de606061436f565b905060006147ee848285016147a9565b60008301525060206148028482850161469f565b602083015250604082013567ffffffffffffffff8111156148265761482561438a565b5b6148328482850161441b565b60408301525092915050565b600060608284031215614854576148536142f9565b5b61485e606061436f565b9050600082013567ffffffffffffffff81111561487e5761487d61438a565b5b61488a848285016147be565b600083015250602082013567ffffffffffffffff8111156148ae576148ad61438a565b5b6148ba848285016147be565b602083015250604082013567ffffffffffffffff8111156148de576148dd61438a565b5b6148ea848285016147be565b60408301525092915050565b6000610160828403121561490d5761490c6142f9565b5b61491760c061436f565b9050600061492784828501614241565b600083015250602082013567ffffffffffffffff81111561494b5761494a61438a565b5b61495784828501614449565b602083015250604061496b84828501614511565b60408301525061010082013567ffffffffffffffff8111156149905761498f61438a565b5b61499c8482850161460f565b60608301525061012082013567ffffffffffffffff8111156149c1576149c061438a565b5b6149cd848285016146b4565b60808301525061014082013567ffffffffffffffff8111156149f2576149f161438a565b5b6149fe8482850161483e565b60a08301525092915050565b600067ffffffffffffffff821115614a2557614a2461430f565b5b602082029050602081019050919050565b600080fd5b600060a08284031215614a5157614a506142f9565b5b614a5b60a061436f565b90506000614a6b84828501614241565b6000830152506020614a7f84828501614241565b6020830152506040614a93848285016145fa565b6040830152506060614aa784828501614241565b606083015250608082013567ffffffffffffffff811115614acb57614aca61438a565b5b614ad78482850161441b565b60808301525092915050565b6000614af6614af184614a0a565b61436f565b90508083825260208201905060208402830185811115614b1957614b18614a36565b5b835b81811015614b6057803567ffffffffffffffff811115614b3e57614b3d61438f565b5b808601614b4b8982614a3b565b85526020850194505050602081019050614b1b565b5050509392505050565b600082601f830112614b7f57614b7e61438f565b5b8135614b8f848260208601614ae3565b91505092915050565b60008060408385031215614baf57614bae614216565b5b600083013567ffffffffffffffff811115614bcd57614bcc61421b565b5b614bd9858286016148f6565b925050602083013567ffffffffffffffff811115614bfa57614bf961421b565b5b614c0685828601614b6a565b9150509250929050565b600081519050919050565b600082825260208201905092915050565b6000819050602082019050919050565b614c4581614220565b82525050565b614c5481614283565b82525050565b60c082016000820151614c706000850182614c3c565b506020820151614c836020850182614c3c565b506040820151614c966040850182614c4b565b506060820151614ca96060850182614c4b565b506080820151614cbc6080850182614c4b565b5060a0820151614ccf60a0850182614c4b565b50505050565b6000614ce18383614c5a565b60c08301905092915050565b6000602082019050919050565b6000614d0582614c10565b614d0f8185614c1b565b9350614d1a83614c2c565b8060005b83811015614d4b578151614d328882614cd5565b9750614d3d83614ced565b925050600181019050614d1e565b5085935050505092915050565b60006020820190508181036000830152614d728184614cfa565b905092915050565b600081519050919050565b600082825260208201905092915050565b6000819050602082019050919050565b604082016000820151614dbc6000850182614c4b565b506020820151614dcf6020850182614c4b565b50505050565b602082016000820151614deb6000850182614c4b565b50505050565b602082016000820151614e076000850182614c4b565b50505050565b604082016000820151614e236000850182614c4b565b506020820151614e366020850182614c4b565b50505050565b602082016000820151614e526000850182614c4b565b50505050565b614e6181614780565b82525050565b614e708161467b565b82525050565b600081519050919050565b600082825260208201905092915050565b60005b83811015614eb0578082015181840152602081019050614e95565b83811115614ebf576000848401525b50505050565b6000614ed082614e76565b614eda8185614e81565b9350614eea818560208601614e92565b614ef3816142fe565b840191505092915050565b6000606083016000830151614f166000860182614e58565b506020830151614f296020860182614e67565b5060408301518482036040860152614f418282614ec5565b9150508091505092915050565b60006060830160008301518482036000860152614f6b8282614efe565b91505060208301518482036020860152614f858282614efe565b91505060408301518482036040860152614f9f8282614efe565b9150508091505092915050565b60006101a083016000830151614fc56000860182614c3c565b506020830151614fd86020860182614da6565b506040830151614feb6060860182614dd5565b506060830151614ffe6080860182614df1565b50608083015161501160a0860182614e0d565b5060a083015161502460e0860182614e3c565b5060c0830151615038610100860182614c3c565b5060e083015161504c610120860182614c3c565b50610100830151615061610140860182614c3c565b50610120830151615076610160860182614c3c565b506101408301518482036101808601526150908282614f4e565b9150508091505092915050565b60006150a98383614fac565b905092915050565b6000602082019050919050565b60006150c982614d7a565b6150d38185614d85565b9350836020820285016150e585614d96565b8060005b858110156151215784840389528151615102858261509d565b945061510d836150b1565b925060208a019950506001810190506150e9565b50829750879550505050505092915050565b6000602082019050818103600083015261514d81846150be565b905092915050565b61515e81614220565b82525050565b60006020820190506151796000830184615155565b92915050565b6040820160008201516151956000850182614c4b565b5060208201516151a86020850182614c4b565b50505050565b6020820160008201516151c46000850182614c4b565b50505050565b6020820160008201516151e06000850182614c4b565b50505050565b6040820160008201516151fc6000850182614c4b565b50602082015161520f6020850182614c4b565b50505050565b60208201600082015161522b6000850182614c4b565b50505050565b6000606083016000830151848203600086015261524e8282614efe565b915050602083015184820360208601526152688282614efe565b915050604083015184820360408601526152828282614efe565b9150508091505092915050565b60006101a0820190506152a5600083018e615155565b6152b2602083018d61517f565b6152bf606083018c6151ae565b6152cc608083018b6151ca565b6152d960a083018a6151e6565b6152e660e0830189615215565b6152f4610100830188615155565b615302610120830187615155565b615310610140830186615155565b61531e610160830185615155565b8181036101808301526153318184615231565b90509c9b505050505050505050505050565b7f4e487b7100000000000000000000000000000000000000000000000000000000600052602260045260246000fd5b6000600282049050600182168061538a57607f821691505b60208210810361539d5761539c615343565b5b50919050565b7f4e487b7100000000000000000000000000000000000000000000000000000000600052601160045260246000fd5b60006153dd82614220565b91507fffffffffffffffffffffffffffffffffffffffffffffffffffffffffffffffff820361540f5761540e6153a3565b5b600182019050919050565b600082825260208201905092915050565b7f4f6e6c792074686520627574636865722063616e206d61726b2074686520616e60008201527f696d616c2061732070726f636573736564000000000000000000000000000000602082015250565b600061548760318361541a565b91506154928261542b565b604082019050919050565b600060208201905081810360008301526154b68161547a565b9050919050565b7f54686520616e696d616c206d7573742062652064656c6976657265642062656660008201527f6f7265206265696e672070726f63657373656400000000000000000000000000602082015250565b600061551960338361541a565b9150615524826154bd565b604082019050919050565b600060208201905081810360008301526155488161550c565b9050919050565b7f54686520616e696d616c20697320616c72656164792070726f63657373656400600082015250565b6000615585601f8361541a565b91506155908261554f565b602082019050919050565b600060208201905081810360008301526155b481615578565b9050919050565b7f4f6e6c79207468652064656c697665727920736572766963652063616e206d6160008201527f726b206120626f782061732064656c6976657265640000000000000000000000602082015250565b600061561760358361541a565b9150615622826155bb565b604082019050919050565b600060208201905081810360008301526156468161560a565b9050919050565b7f426f786573206d757374206265206469737472696275746564206265666f726560008201527f206265696e672064656c69766572656400000000000000000000000000000000602082015250565b60006156a960308361541a565b91506156b48261564d565b604082019050919050565b600060208201905081810360008301526156d88161569c565b9050919050565b7f54686520626f7820697320616c72656164792064656c69766572656400000000600082015250565b6000615715601c8361541a565b9150615720826156df565b602082019050919050565b6000602082019050818103600083015261574481615708565b9050919050565b7f4f6e6c7920746865206275746368657220616e64207468652064656c6976657260008201527f7920736572766963652063616e206d61726b206120626f78206173206469737460208201527f7269627574656400000000000000000000000000000000000000000000000000604082015250565b60006157cd60478361541a565b91506157d88261574b565b606082019050919050565b600060208201905081810360008301526157fc816157c0565b9050919050565b7f426f786573206d757374206265207072657061726564206265666f726520626560008201527f696e672064697374726962757465640000000000000000000000000000000000602082015250565b600061585f602f8361541a565b915061586a82615803565b604082019050919050565b6000602082019050818103600083015261588e81615852565b9050919050565b7f54686520626f7820697320616c72656164792064697374726962757465640000600082015250565b60006158cb601e8361541a565b91506158d682615895565b602082019050919050565b600060208201905081810360008301526158fa816158be565b9050919050565b7f4e487b7100000000000000000000000000000000000000000000000000000000600052603260045260246000fd5b600061593b82614220565b915061594683614220565b9250827fffffffffffffffffffffffffffffffffffffffffffffffffffffffffffffffff0382111561597b5761597a6153a3565b5b828201905092915050565b7f5468657265206d757374206265206174206c65617374206f6e6520626f78206960008201527f6e20746f74616c00000000000000000000000000000000000000000000000000602082015250565b60006159e260278361541a565b91506159ed82615986565b604082019050919050565b60006020820190508181036000830152615a11816159d5565b9050919050565b7f4f6e6c7920746865206661726d657220616e642074686520627574636865722060008201527f63616e206d61726b2074686520616e696d616c2061732064656c697665726564602082015250565b6000615a7460408361541a565b9150615a7f82615a18565b604082019050919050565b60006020820190508181036000830152615aa381615a67565b9050919050565b7f54686520616e696d616c20697320616c72656164792064656c69766572656400600082015250565b6000615ae0601f8361541a565b9150615aeb82615aaa565b602082019050919050565b60006020820190508181036000830152615b0f81615ad3565b9050919050565b7f4f6e6c792074686520627574636865722063616e206d61726b206120626f782060008201527f61732070726f6365737365640000000000000000000000000000000000000000602082015250565b6000615b72602c8361541a565b9150615b7d82615b16565b604082019050919050565b60006020820190508181036000830152615ba181615b65565b9050919050565b7f54686520616e696d616c206d7573742062652070726f6365737365642062656660008201527f6f726520707265706172696e6720626f78657300000000000000000000000000602082015250565b6000615c0460338361541a565b9150615c0f82615ba8565b604082019050919050565b60006020820190508181036000830152615c3381615bf7565b9050919050565b7f54686520626f7820697320616c72656164792070726f63657373656400000000600082015250565b6000615c70601c8361541a565b9150615c7b82615c3a565b602082019050919050565b60006020820190508181036000830152615c9f81615c63565b905091905056fea2646970667358221220a58c420469697eefe21d1a46a0c9860e22e8b8e92ac33c5c675d0b73924e5e4964736f6c634300080d0033",
  "immutableReferences": {},
  "source": "// SPDX-License-Identifier: AGPL\npragma solidity ^0.8.13;\n\nimport \"./Types.sol\";\nimport \"./Crowdfunding.sol\";\n\ncontract SupplyChains {\n\n  mapping(uint256 => SupplyChain) public supplychains;\n\n  mapping(uint256 => mapping(uint256 => BoxStatus)) boxesStatus;\n\n  uint256 public NumberOfSupplyChains = 0;\n\n  function StartSupplyChain(Campaign memory _campaign, BoxSellRef[] memory _boxes) external {\n    SupplyChain storage supplychain = supplychains[_campaign.id];\n\n    supplychain.campaignRef = _campaign.id;\n    supplychain.isAnimalDelivered.butcher = false;\n    supplychain.isAnimalDelivered.farmer = false;\n    supplychain.isAnimalProcessed.butcher = false;\n    supplychain.areBoxesProcessed.butcher = false;\n    supplychain.areBoxesDistributed.butcher = false;\n    supplychain.areBoxesDistributed.delivery = false;\n    supplychain.areBoxesDelivered.delivery = false;\n\n    uint totalNumOfBoxes = 0;\n    for (uint256 index = 0; index < _boxes.length; index++) {\n      BoxSellRef memory box = _boxes[index];\n      totalNumOfBoxes += 1;\n\n      boxesStatus[_campaign.id][box.id].campaignRef = _campaign.id;\n      boxesStatus[_campaign.id][box.id].boxId = box.id;\n      boxesStatus[_campaign.id][box.id].isProcessed = false;\n      boxesStatus[_campaign.id][box.id].isDistributedFromButcher = false;\n      boxesStatus[_campaign.id][box.id].isDistributedToDelivery = false;\n      boxesStatus[_campaign.id][box.id].isDelivered = false;\n    }\n    require(totalNumOfBoxes > 0, \"There must be at least one box in total\");\n\n    supplychain.totalBoxes = totalNumOfBoxes;\n    supplychain.processedBoxes = 0;\n    supplychain.distributedBoxes = 0;\n    supplychain.deliveredBoxes = 0;\n\n    // import stakeholders from campaign\n    supplychain.stakeholders = _campaign.stakeholders;\n\n    NumberOfSupplyChains++;\n  }\n\n  /**\n  * Returns all supply chains\n  */\n  function getSupplyChains() public view returns (SupplyChain[] memory) {\n    SupplyChain[] memory allSupplychains = new SupplyChain[](NumberOfSupplyChains);\n    for (uint256 index = 0; index < NumberOfSupplyChains; index++) {\n      SupplyChain storage supplychain = supplychains[index];\n      allSupplychains[index] = supplychain;\n    }\n    return allSupplychains;\n  }\n\n  /**\n  * Returns all boxes status of a specific campaign\n  */\n  function getBoxesStatus(uint256 _campaignId) public view returns (BoxStatus[] memory) {\n    SupplyChain memory supplychain = supplychains[_campaignId];\n    BoxStatus[] memory boxesStatuses = new BoxStatus[](supplychain.totalBoxes);\n    for (uint256 index = 0; index < supplychain.totalBoxes; index++) {\n      boxesStatuses[index] = boxesStatus[_campaignId][index];\n    }\n    return boxesStatuses;\n  }\n\n  /**\n  * Returns the total number of supply chains\n  */\n  function getNumberOfSupplyChains() public view returns (uint256) {\n    return NumberOfSupplyChains;\n  }\n\n  /**\n  * Mark the animal of a campaign as delivered (to the butcher)\n  */\n  function markAnimalAsDelivered(uint256 _campaignId) public {\n    SupplyChain storage supplychain = supplychains[_campaignId];\n\n    require(\n      (msg.sender == supplychain.stakeholders.farmer.owner) || (msg.sender == supplychain.stakeholders.butcher.owner), \n      \"Only the farmer and the butcher can mark the animal as delivered\"\n    );\n    require(!supplychain.isAnimalDelivered.farmer || !supplychain.isAnimalDelivered.butcher, \"The animal is already delivered\");\n\n    if (msg.sender == supplychain.stakeholders.farmer.owner) {\n      supplychain.isAnimalDelivered.farmer = true;\n    }\n    if (msg.sender == supplychain.stakeholders.butcher.owner) {\n      supplychain.isAnimalDelivered.butcher = true;\n    }\n  }\n\n  /**\n  * Mark the animal as processed by the butcher\n  */\n  function markAnimalAsProcessed(uint256 _campaignId) public {\n    SupplyChain storage supplychain = supplychains[_campaignId];\n\n    require(msg.sender == supplychain.stakeholders.butcher.owner, \"Only the butcher can mark the animal as processed\");\n    require((supplychain.isAnimalDelivered.butcher && supplychain.isAnimalDelivered.farmer), \"The animal must be delivered before being processed\");\n    require(!supplychain.isAnimalProcessed.butcher, \"The animal is already processed\");\n\n    supplychain.isAnimalProcessed.butcher = true;\n  }\n\n  /**\n  * Mark a box as processed by the butcher\n  */\n  function markBoxAsProcessed(uint256 _campaignId, uint256 _boxId) public {\n    SupplyChain storage supplychain = supplychains[_campaignId];\n\n    require(msg.sender == supplychain.stakeholders.butcher.owner, \"Only the butcher can mark a box as processed\");\n    require(supplychain.isAnimalProcessed.butcher, \"The animal must be processed before preparing boxes\");\n    require(!boxesStatus[_campaignId][_boxId].isProcessed, \"The box is already processed\");\n\n    boxesStatus[_campaignId][_boxId].isProcessed = true;\n\n    supplychain.processedBoxes++;\n\n    if(areBoxesProcessed(_campaignId)) {\n      supplychain.areBoxesProcessed.butcher = true;\n    }\n  }\n\n  /**\n  * Mark a box as distributed by the delivery service\n  */\n  function markBoxAsDistributed(uint256 _campaignId, uint256 _boxId) public {\n    SupplyChain storage supplychain = supplychains[_campaignId];\n\n    require(\n      (msg.sender == supplychain.stakeholders.delivery.owner) || (msg.sender == supplychain.stakeholders.butcher.owner), \n      \"Only the butcher and the delivery service can mark a box as distributed\");\n    require(supplychain.areBoxesProcessed.butcher, \"Boxes must be prepared before being distributed\");\n    require(\n      (!boxesStatus[_campaignId][_boxId].isDistributedFromButcher || !boxesStatus[_campaignId][_boxId].isDistributedToDelivery), \n      \"The box is already distributed\");\n\n    if (msg.sender == supplychain.stakeholders.butcher.owner) {\n      boxesStatus[_campaignId][_boxId].isDistributedFromButcher = true;\n\n      if(areBoxesDistributedFromButcher(_campaignId)) {\n        supplychain.areBoxesDistributed.butcher = true;\n      }\n    }\n\n    if (msg.sender == supplychain.stakeholders.delivery.owner) {\n      boxesStatus[_campaignId][_boxId].isDistributedToDelivery = true;\n\n      if (areBoxesDistributedToDelivery(_campaignId)) {\n        supplychain.areBoxesDistributed.delivery = true;\n      }\n    }\n\n    if (boxesStatus[_campaignId][_boxId].isDistributedFromButcher && boxesStatus[_campaignId][_boxId].isDistributedToDelivery) {\n      supplychain.distributedBoxes++;\n    }\n  }\n\n  /**\n  * Mark a box as delivered by the delivery service\n  */\n  function markBoxAsDelivered(uint256 _campaignId, uint256 _boxId) public {\n    SupplyChain storage supplychain = supplychains[_campaignId];\n\n    require(msg.sender == supplychain.stakeholders.delivery.owner, \"Only the delivery service can mark a box as delivered\");\n    require(\n      supplychain.areBoxesDistributed.butcher || supplychain.areBoxesDistributed.delivery, \n      \"Boxes must be distributed before being delivered\");\n    require(!boxesStatus[_campaignId][_boxId].isDelivered, \"The box is already delivered\");\n    \n    boxesStatus[_campaignId][_boxId].isDelivered = true;\n    \n    supplychain.deliveredBoxes++;\n\n    if(areBoxesDelivered(_campaignId)) {\n      supplychain.areBoxesDelivered.delivery = true;\n    }\n  }\n\n  /**\n  * Check if the supply chain is completed\n  */\n  function isCompleted(uint256 _campaignId) external view returns (bool) {\n    SupplyChain memory supplychain = supplychains[_campaignId];\n    return (\n      supplychain.isAnimalDelivered.farmer &&\n      supplychain.isAnimalDelivered.butcher &&\n      supplychain.isAnimalProcessed.butcher && \n      supplychain.areBoxesProcessed.butcher && \n      supplychain.areBoxesDistributed.butcher && \n      supplychain.areBoxesDistributed.delivery && \n      supplychain.areBoxesDelivered.delivery);\n  }\n\n  // ----- HELPER METHODS -----\n\n  /**\n  * Check if all boxes are processed by the butcher\n  */\n  function areBoxesProcessed(uint256 _campaignId) public view returns (bool) {\n    SupplyChain memory supplychain = supplychains[_campaignId];\n\n    for (uint256 index = 0; index < supplychain.totalBoxes; index++) {\n      if (!boxesStatus[_campaignId][index].isProcessed) {\n        return false;\n      }\n    }\n    return true;\n  }\n\n  /**\n  * Check if all boxes are distributed from the butcher\n  */\n  function areBoxesDistributedFromButcher(uint256 _campaignId) public view returns (bool) {\n    SupplyChain memory supplychain = supplychains[_campaignId];\n\n    for (uint256 index = 0; index < supplychain.totalBoxes; index++) {\n      if (!boxesStatus[_campaignId][index].isDistributedFromButcher) {\n        return false;\n      }\n    }\n    return true;\n  }\n\n  /**\n  * Check if all boxes are distributed to the delivery service\n  */\n  function areBoxesDistributedToDelivery(uint256 _campaignId) public view returns (bool) {\n    SupplyChain memory supplychain = supplychains[_campaignId];\n\n    for (uint256 index = 0; index < supplychain.totalBoxes; index++) {\n      if (!boxesStatus[_campaignId][index].isDistributedToDelivery) {\n        return false;\n      }\n    }\n    return true;\n  }\n\n  /**\n  * Check if all boxes are delivered by the delivery service\n  */\n  function areBoxesDelivered(uint256 _campaignId) public view returns (bool) {\n    SupplyChain memory supplychain = supplychains[_campaignId];\n\n    for (uint256 index = 0; index < supplychain.totalBoxes; index++) {\n      if(!boxesStatus[_campaignId][index].isDelivered) {\n        return false;\n      }\n    }\n    return true;\n  }\n}\n",
  "sourcePath": "/Users/cassolseba/VSCode/blockchain/146157_Blockchain/smart_contracts/contracts/SupplyChains.sol",
  "compiler": {
    "name": "solc",
    "version": "0.8.13+commit.abaa5c0e.Emscripten.clang"
  },
  "schemaVersion": "3.4.14",
  "updatedAt": "2023-08-14T20:12:43.267Z",
  "devdoc": {
    "kind": "dev",
    "methods": {},
    "version": 1
  },
  "userdoc": {
    "kind": "user",
    "methods": {
      "areBoxesDelivered(uint256)": {
        "notice": "Check if all boxes are delivered by the delivery service"
      },
      "areBoxesDistributedFromButcher(uint256)": {
        "notice": "Check if all boxes are distributed from the butcher"
      },
      "areBoxesDistributedToDelivery(uint256)": {
        "notice": "Check if all boxes are distributed to the delivery service"
      },
      "areBoxesProcessed(uint256)": {
        "notice": "Check if all boxes are processed by the butcher"
      },
      "getBoxesStatus(uint256)": {
        "notice": "Returns all boxes status of a specific campaign"
      },
      "getNumberOfSupplyChains()": {
        "notice": "Returns the total number of supply chains"
      },
      "getSupplyChains()": {
        "notice": "Returns all supply chains"
      },
      "isCompleted(uint256)": {
        "notice": "Check if the supply chain is completed"
      },
      "markAnimalAsDelivered(uint256)": {
        "notice": "Mark the animal of a campaign as delivered (to the butcher)"
      },
      "markAnimalAsProcessed(uint256)": {
        "notice": "Mark the animal as processed by the butcher"
      },
      "markBoxAsDelivered(uint256,uint256)": {
        "notice": "Mark a box as delivered by the delivery service"
      },
      "markBoxAsDistributed(uint256,uint256)": {
        "notice": "Mark a box as distributed by the delivery service"
      },
      "markBoxAsProcessed(uint256,uint256)": {
        "notice": "Mark a box as processed by the butcher"
      }
    },
    "version": 1
  }
}