{
  "contractName": "Crowdfunding",
  "abi": [
    {
      "inputs": [
        {
          "internalType": "uint256",
          "name": "",
          "type": "uint256"
        }
      ],
      "name": "campaigns",
      "outputs": [
        {
          "internalType": "uint256",
          "name": "id",
          "type": "uint256"
        },
        {
          "components": [
            {
              "internalType": "string",
              "name": "title",
              "type": "string"
            },
            {
              "internalType": "string",
              "name": "description",
              "type": "string"
            },
            {
              "internalType": "uint256",
              "name": "collectedAmount",
              "type": "uint256"
            },
            {
              "internalType": "uint256",
              "name": "deadline",
              "type": "uint256"
            },
            {
              "internalType": "uint256",
              "name": "totalBoxes",
              "type": "uint256"
            },
            {
              "internalType": "uint256",
              "name": "boxesSold",
              "type": "uint256"
            },
            {
              "internalType": "uint256",
              "name": "totalBoxTypes",
              "type": "uint256"
            },
            {
              "internalType": "bool",
              "name": "isStopped",
              "type": "bool"
            }
          ],
          "internalType": "struct CampaignMeta",
          "name": "meta",
          "type": "tuple"
        },
        {
          "components": [
            {
              "internalType": "address",
              "name": "owner",
              "type": "address"
            },
            {
              "internalType": "string",
              "name": "ownerPublicKey",
              "type": "string"
            }
          ],
          "internalType": "struct CampaignOwner",
          "name": "owner",
          "type": "tuple"
        },
        {
          "components": [
            {
              "internalType": "string",
              "name": "earTag",
              "type": "string"
            },
            {
              "internalType": "string",
              "name": "name",
              "type": "string"
            },
            {
              "internalType": "string",
              "name": "farm",
              "type": "string"
            },
            {
              "internalType": "uint8",
              "name": "age",
              "type": "uint8"
            }
          ],
          "internalType": "struct CampaignAnimalData",
          "name": "animal",
          "type": "tuple"
        },
        {
          "components": [
            {
              "components": [
                {
                  "internalType": "address payable",
                  "name": "owner",
                  "type": "address"
                },
                {
                  "internalType": "uint8",
                  "name": "share",
                  "type": "uint8"
                }
              ],
              "internalType": "struct Stakeholder",
              "name": "farmer",
              "type": "tuple"
            },
            {
              "components": [
                {
                  "internalType": "address payable",
                  "name": "owner",
                  "type": "address"
                },
                {
                  "internalType": "uint8",
                  "name": "share",
                  "type": "uint8"
                }
              ],
              "internalType": "struct Stakeholder",
              "name": "butcher",
              "type": "tuple"
            },
            {
              "components": [
                {
                  "internalType": "address payable",
                  "name": "owner",
                  "type": "address"
                },
                {
                  "internalType": "uint8",
                  "name": "share",
                  "type": "uint8"
                }
              ],
              "internalType": "struct Stakeholder",
              "name": "delivery",
              "type": "tuple"
            }
          ],
          "internalType": "struct StakeholderList",
          "name": "stakeholders",
          "type": "tuple"
        }
      ],
      "stateMutability": "view",
      "type": "function"
    },
    {
      "inputs": [],
      "name": "numberOfCampaigns",
      "outputs": [
        {
          "internalType": "uint256",
          "name": "",
          "type": "uint256"
        }
      ],
      "stateMutability": "view",
      "type": "function"
    },
    {
      "inputs": [
        {
          "internalType": "string",
          "name": "_title",
          "type": "string"
        },
        {
          "internalType": "string",
          "name": "_description",
          "type": "string"
        },
        {
          "internalType": "uint32",
          "name": "_duration",
          "type": "uint32"
        },
        {
          "components": [
            {
              "internalType": "address",
              "name": "owner",
              "type": "address"
            },
            {
              "internalType": "string",
              "name": "ownerPublicKey",
              "type": "string"
            }
          ],
          "internalType": "struct CampaignOwner",
          "name": "_campaignOwner",
          "type": "tuple"
        },
        {
          "components": [
            {
              "components": [
                {
                  "internalType": "address payable",
                  "name": "owner",
                  "type": "address"
                },
                {
                  "internalType": "uint8",
                  "name": "share",
                  "type": "uint8"
                }
              ],
              "internalType": "struct Stakeholder",
              "name": "farmer",
              "type": "tuple"
            },
            {
              "components": [
                {
                  "internalType": "address payable",
                  "name": "owner",
                  "type": "address"
                },
                {
                  "internalType": "uint8",
                  "name": "share",
                  "type": "uint8"
                }
              ],
              "internalType": "struct Stakeholder",
              "name": "butcher",
              "type": "tuple"
            },
            {
              "components": [
                {
                  "internalType": "address payable",
                  "name": "owner",
                  "type": "address"
                },
                {
                  "internalType": "uint8",
                  "name": "share",
                  "type": "uint8"
                }
              ],
              "internalType": "struct Stakeholder",
              "name": "delivery",
              "type": "tuple"
            }
          ],
          "internalType": "struct StakeholderList",
          "name": "_stakeholders",
          "type": "tuple"
        },
        {
          "components": [
            {
              "internalType": "string",
              "name": "earTag",
              "type": "string"
            },
            {
              "internalType": "string",
              "name": "name",
              "type": "string"
            },
            {
              "internalType": "string",
              "name": "farm",
              "type": "string"
            },
            {
              "internalType": "uint8",
              "name": "age",
              "type": "uint8"
            }
          ],
          "internalType": "struct CampaignAnimalData",
          "name": "_animal",
          "type": "tuple"
        },
        {
          "components": [
            {
              "internalType": "uint256",
              "name": "id",
              "type": "uint256"
            },
            {
              "internalType": "string",
              "name": "title",
              "type": "string"
            },
            {
              "internalType": "string",
              "name": "description",
              "type": "string"
            },
            {
              "internalType": "uint256",
              "name": "price",
              "type": "uint256"
            },
            {
              "internalType": "uint32",
              "name": "total",
              "type": "uint32"
            },
            {
              "internalType": "uint32",
              "name": "available",
              "type": "uint32"
            }
          ],
          "internalType": "struct Box[]",
          "name": "_boxes",
          "type": "tuple[]"
        }
      ],
      "name": "createCampaign",
      "outputs": [
        {
          "internalType": "uint256",
          "name": "",
          "type": "uint256"
        }
      ],
      "stateMutability": "nonpayable",
      "type": "function"
    },
    {
      "inputs": [],
      "name": "getNumberOfCampaigns",
      "outputs": [
        {
          "internalType": "uint256",
          "name": "",
          "type": "uint256"
        }
      ],
      "stateMutability": "view",
      "type": "function"
    },
    {
      "inputs": [],
      "name": "getCampaigns",
      "outputs": [
        {
          "components": [
            {
              "internalType": "uint256",
              "name": "id",
              "type": "uint256"
            },
            {
              "components": [
                {
                  "internalType": "string",
                  "name": "title",
                  "type": "string"
                },
                {
                  "internalType": "string",
                  "name": "description",
                  "type": "string"
                },
                {
                  "internalType": "uint256",
                  "name": "collectedAmount",
                  "type": "uint256"
                },
                {
                  "internalType": "uint256",
                  "name": "deadline",
                  "type": "uint256"
                },
                {
                  "internalType": "uint256",
                  "name": "totalBoxes",
                  "type": "uint256"
                },
                {
                  "internalType": "uint256",
                  "name": "boxesSold",
                  "type": "uint256"
                },
                {
                  "internalType": "uint256",
                  "name": "totalBoxTypes",
                  "type": "uint256"
                },
                {
                  "internalType": "bool",
                  "name": "isStopped",
                  "type": "bool"
                }
              ],
              "internalType": "struct CampaignMeta",
              "name": "meta",
              "type": "tuple"
            },
            {
              "components": [
                {
                  "internalType": "address",
                  "name": "owner",
                  "type": "address"
                },
                {
                  "internalType": "string",
                  "name": "ownerPublicKey",
                  "type": "string"
                }
              ],
              "internalType": "struct CampaignOwner",
              "name": "owner",
              "type": "tuple"
            },
            {
              "components": [
                {
                  "internalType": "string",
                  "name": "earTag",
                  "type": "string"
                },
                {
                  "internalType": "string",
                  "name": "name",
                  "type": "string"
                },
                {
                  "internalType": "string",
                  "name": "farm",
                  "type": "string"
                },
                {
                  "internalType": "uint8",
                  "name": "age",
                  "type": "uint8"
                }
              ],
              "internalType": "struct CampaignAnimalData",
              "name": "animal",
              "type": "tuple"
            },
            {
              "components": [
                {
                  "components": [
                    {
                      "internalType": "address payable",
                      "name": "owner",
                      "type": "address"
                    },
                    {
                      "internalType": "uint8",
                      "name": "share",
                      "type": "uint8"
                    }
                  ],
                  "internalType": "struct Stakeholder",
                  "name": "farmer",
                  "type": "tuple"
                },
                {
                  "components": [
                    {
                      "internalType": "address payable",
                      "name": "owner",
                      "type": "address"
                    },
                    {
                      "internalType": "uint8",
                      "name": "share",
                      "type": "uint8"
                    }
                  ],
                  "internalType": "struct Stakeholder",
                  "name": "butcher",
                  "type": "tuple"
                },
                {
                  "components": [
                    {
                      "internalType": "address payable",
                      "name": "owner",
                      "type": "address"
                    },
                    {
                      "internalType": "uint8",
                      "name": "share",
                      "type": "uint8"
                    }
                  ],
                  "internalType": "struct Stakeholder",
                  "name": "delivery",
                  "type": "tuple"
                }
              ],
              "internalType": "struct StakeholderList",
              "name": "stakeholders",
              "type": "tuple"
            }
          ],
          "internalType": "struct Campaign[]",
          "name": "",
          "type": "tuple[]"
        }
      ],
      "stateMutability": "view",
      "type": "function"
    },
    {
      "inputs": [
        {
          "internalType": "uint256",
          "name": "_campaignId",
          "type": "uint256"
        }
      ],
      "name": "getBoxes",
      "outputs": [
        {
          "components": [
            {
              "internalType": "uint256",
              "name": "id",
              "type": "uint256"
            },
            {
              "internalType": "string",
              "name": "title",
              "type": "string"
            },
            {
              "internalType": "string",
              "name": "description",
              "type": "string"
            },
            {
              "internalType": "uint256",
              "name": "price",
              "type": "uint256"
            },
            {
              "internalType": "uint32",
              "name": "total",
              "type": "uint32"
            },
            {
              "internalType": "uint32",
              "name": "available",
              "type": "uint32"
            }
          ],
          "internalType": "struct Box[]",
          "name": "",
          "type": "tuple[]"
        }
      ],
      "stateMutability": "view",
      "type": "function"
    },
    {
      "inputs": [
        {
          "internalType": "uint256",
          "name": "_campaignId",
          "type": "uint256"
        }
      ],
      "name": "getSoldBoxes",
      "outputs": [
        {
          "components": [
            {
              "internalType": "uint256",
              "name": "id",
              "type": "uint256"
            },
            {
              "internalType": "uint256",
              "name": "boxId",
              "type": "uint256"
            },
            {
              "internalType": "address",
              "name": "owner",
              "type": "address"
            },
            {
              "internalType": "string",
              "name": "physAddress",
              "type": "string"
            }
          ],
          "internalType": "struct BoxSellRef[]",
          "name": "",
          "type": "tuple[]"
        }
      ],
      "stateMutability": "view",
      "type": "function"
    },
    {
      "inputs": [
        {
          "internalType": "uint256",
          "name": "_campaignId",
          "type": "uint256"
        },
        {
          "internalType": "uint256",
          "name": "_boxId",
          "type": "uint256"
        },
        {
          "internalType": "string",
          "name": "_physAddress",
          "type": "string"
        }
      ],
      "name": "buyBox",
      "outputs": [],
      "stateMutability": "payable",
      "type": "function"
    }
  ],
  "bytecode": "0x6080604052600060035534801561001557600080fd5b50613825806100256000396000f3fe60806040526004361061007b5760003560e01c80633d444d561161004e5780633d444d56146101665780636e8ae035146101a3578063a6b03633146101bf578063e4aafc2c146101ea5761007b565b806307ca140d14610080578063141961bc146100ab5780633267f8ab146100ec57806332e7574914610129575b600080fd5b34801561008c57600080fd5b50610095610215565b6040516100a29190611f8d565b60405180910390f35b3480156100b757600080fd5b506100d260048036038101906100cd9190611fe8565b61021b565b6040516100e395949392919061232c565b60405180910390f35b3480156100f857600080fd5b50610113600480360381019061010e9190611fe8565b61083b565b6040516101209190612506565b60405180910390f35b34801561013557600080fd5b50610150600480360381019061014b9190611fe8565b610ab8565b60405161015d919061264d565b60405180910390f35b34801561017257600080fd5b5061018d60048036038101906101889190612c08565b610cad565b60405161019a9190611f8d565b60405180910390f35b6101bd60048036038101906101b89190612d39565b6112dd565b005b3480156101cb57600080fd5b506101d4611617565b6040516101e19190613096565b60405180910390f35b3480156101f657600080fd5b506101ff611cf8565b60405161020c9190611f8d565b60405180910390f35b60035481565b60006020528060005260406000206000915090508060000154908060010160405180610100016040529081600082018054610255906130e7565b80601f0160208091040260200160405190810160405280929190818152602001828054610281906130e7565b80156102ce5780601f106102a3576101008083540402835291602001916102ce565b820191906000526020600020905b8154815290600101906020018083116102b157829003601f168201915b505050505081526020016001820180546102e7906130e7565b80601f0160208091040260200160405190810160405280929190818152602001828054610313906130e7565b80156103605780601f1061033557610100808354040283529160200191610360565b820191906000526020600020905b81548152906001019060200180831161034357829003601f168201915b5050505050815260200160028201548152602001600382015481526020016004820154815260200160058201548152602001600682015481526020016007820160009054906101000a900460ff16151515158152505090806009016040518060400160405290816000820160009054906101000a900473ffffffffffffffffffffffffffffffffffffffff1673ffffffffffffffffffffffffffffffffffffffff1673ffffffffffffffffffffffffffffffffffffffff16815260200160018201805461042c906130e7565b80601f0160208091040260200160405190810160405280929190818152602001828054610458906130e7565b80156104a55780601f1061047a576101008083540402835291602001916104a5565b820191906000526020600020905b81548152906001019060200180831161048857829003601f168201915b5050505050815250509080600b016040518060800160405290816000820180546104ce906130e7565b80601f01602080910402602001604051908101604052809291908181526020018280546104fa906130e7565b80156105475780601f1061051c57610100808354040283529160200191610547565b820191906000526020600020905b81548152906001019060200180831161052a57829003601f168201915b50505050508152602001600182018054610560906130e7565b80601f016020809104026020016040519081016040528092919081815260200182805461058c906130e7565b80156105d95780601f106105ae576101008083540402835291602001916105d9565b820191906000526020600020905b8154815290600101906020018083116105bc57829003601f168201915b505050505081526020016002820180546105f2906130e7565b80601f016020809104026020016040519081016040528092919081815260200182805461061e906130e7565b801561066b5780601f106106405761010080835404028352916020019161066b565b820191906000526020600020905b81548152906001019060200180831161064e57829003601f168201915b505050505081526020016003820160009054906101000a900460ff1660ff1660ff16815250509080600f01604051806060016040529081600082016040518060400160405290816000820160009054906101000a900473ffffffffffffffffffffffffffffffffffffffff1673ffffffffffffffffffffffffffffffffffffffff1673ffffffffffffffffffffffffffffffffffffffff1681526020016000820160149054906101000a900460ff1660ff1660ff16815250508152602001600182016040518060400160405290816000820160009054906101000a900473ffffffffffffffffffffffffffffffffffffffff1673ffffffffffffffffffffffffffffffffffffffff1673ffffffffffffffffffffffffffffffffffffffff1681526020016000820160149054906101000a900460ff1660ff1660ff16815250508152602001600282016040518060400160405290816000820160009054906101000a900473ffffffffffffffffffffffffffffffffffffffff1673ffffffffffffffffffffffffffffffffffffffff1673ffffffffffffffffffffffffffffffffffffffff1681526020016000820160149054906101000a900460ff1660ff1660ff168152505081525050905085565b60606000806000848152602001908152602001600020905060008160010160060154905060008167ffffffffffffffff81111561087b5761087a612679565b5b6040519080825280602002602001820160405280156108b457816020015b6108a1611d02565b8152602001906001900390816108995790505b50905060005b82811015610aac5760006001600088815260200190815260200160002060008381526020019081526020016000209050806040518060c001604052908160008201548152602001600182018054610910906130e7565b80601f016020809104026020016040519081016040528092919081815260200182805461093c906130e7565b80156109895780601f1061095e57610100808354040283529160200191610989565b820191906000526020600020905b81548152906001019060200180831161096c57829003601f168201915b505050505081526020016002820180546109a2906130e7565b80601f01602080910402602001604051908101604052809291908181526020018280546109ce906130e7565b8015610a1b5780601f106109f057610100808354040283529160200191610a1b565b820191906000526020600020905b8154815290600101906020018083116109fe57829003601f168201915b50505050508152602001600382015481526020016004820160009054906101000a900463ffffffff1663ffffffff1663ffffffff1681526020016004820160049054906101000a900463ffffffff1663ffffffff1663ffffffff1681525050838381518110610a8d57610a8c613118565b5b6020026020010181905250508080610aa490613176565b9150506108ba565b50809350505050919050565b60606000806000848152602001908152602001600020905060008160010160050154905060008167ffffffffffffffff811115610af857610af7612679565b5b604051908082528060200260200182016040528015610b3157816020015b610b1e611d44565b815260200190600190039081610b165790505b50905060005b82811015610ca157600060026000888152602001908152602001600020600083815260200190815260200160002090508060405180608001604052908160008201548152602001600182015481526020016002820160009054906101000a900473ffffffffffffffffffffffffffffffffffffffff1673ffffffffffffffffffffffffffffffffffffffff1673ffffffffffffffffffffffffffffffffffffffff168152602001600382018054610bed906130e7565b80601f0160208091040260200160405190810160405280929190818152602001828054610c19906130e7565b8015610c665780601f10610c3b57610100808354040283529160200191610c66565b820191906000526020600020905b815481529060010190602001808311610c4957829003601f168201915b505050505081525050838381518110610c8257610c81613118565b5b6020026020010181905250508080610c9990613176565b915050610b37565b50809350505050919050565b6000808663ffffffff1611610cf7576040517f08c379a0000000000000000000000000000000000000000000000000000000008152600401610cee9061321b565b60405180910390fd5b62375f008663ffffffff161115610d43576040517f08c379a0000000000000000000000000000000000000000000000000000000008152600401610d3a906132ad565b60405180910390fd5b600042905060008763ffffffff1682610d5c91906132cd565b9050818111610da0576040517f08c379a0000000000000000000000000000000000000000000000000000000008152600401610d979061336f565b60405180910390fd5b6000805b8551811015610f65576000868281518110610dc257610dc1613118565b5b602002602001015190506000816080015163ffffffff1611610e19576040517f08c379a0000000000000000000000000000000000000000000000000000000008152600401610e1090613401565b60405180910390fd5b8060a0015163ffffffff16816080015163ffffffff1614610e6f576040517f08c379a0000000000000000000000000000000000000000000000000000000008152600401610e6690613493565b60405180910390fd5b806080015163ffffffff1683610e8591906132cd565b925080600160006003548152602001908152602001600020600083600001518152602001908152602001600020600082015181600001556020820151816001019080519060200190610ed8929190611d82565b506040820151816002019080519060200190610ef5929190611d82565b506060820151816003015560808201518160040160006101000a81548163ffffffff021916908363ffffffff16021790555060a08201518160040160046101000a81548163ffffffff021916908363ffffffff160217905550905050508080610f5d90613176565b915050610da4565b5060008111610fa9576040517f08c379a0000000000000000000000000000000000000000000000000000000008152600401610fa090613525565b60405180910390fd5b600080600060035481526020019081526020016000209050888160090160008201518160000160006101000a81548173ffffffffffffffffffffffffffffffffffffffff021916908373ffffffffffffffffffffffffffffffffffffffff1602179055506020820151816001019080519060200190611029929190611d82565b509050508b816001016000019080519060200190611048929190611d82565b508a816001016001019080519060200190611064929190611d82565b506000816001016002018190555082816001016003018190555060008160010160070160006101000a81548160ff02191690831515021790555081816001016004018190555060008160010160050181905550855181600101600601819055508681600b0160008201518160000190805190602001906110e5929190611d82565b506020820151816001019080519060200190611102929190611d82565b50604082015181600201908051906020019061111f929190611d82565b5060608201518160030160006101000a81548160ff021916908360ff1602179055509050508781600f0160008201518160000160008201518160000160006101000a81548173ffffffffffffffffffffffffffffffffffffffff021916908373ffffffffffffffffffffffffffffffffffffffff16021790555060208201518160000160146101000a81548160ff021916908360ff160217905550505060208201518160010160008201518160000160006101000a81548173ffffffffffffffffffffffffffffffffffffffff021916908373ffffffffffffffffffffffffffffffffffffffff16021790555060208201518160000160146101000a81548160ff021916908360ff160217905550505060408201518160020160008201518160000160006101000a81548173ffffffffffffffffffffffffffffffffffffffff021916908373ffffffffffffffffffffffffffffffffffffffff16021790555060208201518160000160146101000a81548160ff021916908360ff1602179055505050905050600360008154809291906112b890613176565b919050555060016003546112cc9190613545565b945050505050979650505050505050565b600080600085815260200190815260200160002090508060010160070160009054906101000a900460ff1615611348576040517f08c379a000000000000000000000000000000000000000000000000000000000815260040161133f906135c5565b60405180910390fd5b42816001016003015411611391576040517f08c379a000000000000000000000000000000000000000000000000000000000815260040161138890613631565b60405180910390fd5b60006001600086815260200190815260200160002060008581526020019081526020016000209050838160000154146113ff576040517f08c379a00000000000000000000000000000000000000000000000000000000081526004016113f69061369d565b60405180910390fd5b60008160040160049054906101000a900463ffffffff1663ffffffff161161145c576040517f08c379a00000000000000000000000000000000000000000000000000000000081526004016114539061372f565b60405180910390fd5b600034905081600301548110156114a8576040517f08c379a000000000000000000000000000000000000000000000000000000000815260040161149f9061379b565b60405180910390fd5b600083600101600501549050600060026000898152602001908152602001600020600086600101600501548152602001908152602001600020905083600001548160010181905550818160000181905550338160020160006101000a81548173ffffffffffffffffffffffffffffffffffffffff021916908373ffffffffffffffffffffffffffffffffffffffff16021790555085816003019080519060200190611554929190611d82565b5060018460040160048282829054906101000a900463ffffffff1661157991906137bb565b92506101000a81548163ffffffff021916908363ffffffff160217905550600085600101905060018160050160008282546115b491906132cd565b92505081905550838160020160008282546115cf91906132cd565b92505081905550856001016004015486600101600501540361160c5760018660010160070160006101000a81548160ff0219169083151502179055505b505050505050505050565b6060600060035467ffffffffffffffff81111561163757611636612679565b5b60405190808252806020026020018201604052801561167057816020015b61165d611e08565b8152602001906001900390816116555790505b50905060005b600354811015611cf05760008060008381526020019081526020016000209050806040518060a00160405290816000820154815260200160018201604051806101000160405290816000820180546116cd906130e7565b80601f01602080910402602001604051908101604052809291908181526020018280546116f9906130e7565b80156117465780601f1061171b57610100808354040283529160200191611746565b820191906000526020600020905b81548152906001019060200180831161172957829003601f168201915b5050505050815260200160018201805461175f906130e7565b80601f016020809104026020016040519081016040528092919081815260200182805461178b906130e7565b80156117d85780601f106117ad576101008083540402835291602001916117d8565b820191906000526020600020905b8154815290600101906020018083116117bb57829003601f168201915b5050505050815260200160028201548152602001600382015481526020016004820154815260200160058201548152602001600682015481526020016007820160009054906101000a900460ff1615151515815250508152602001600982016040518060400160405290816000820160009054906101000a900473ffffffffffffffffffffffffffffffffffffffff1673ffffffffffffffffffffffffffffffffffffffff1673ffffffffffffffffffffffffffffffffffffffff1681526020016001820180546118a8906130e7565b80601f01602080910402602001604051908101604052809291908181526020018280546118d4906130e7565b80156119215780601f106118f657610100808354040283529160200191611921565b820191906000526020600020905b81548152906001019060200180831161190457829003601f168201915b5050505050815250508152602001600b820160405180608001604052908160008201805461194e906130e7565b80601f016020809104026020016040519081016040528092919081815260200182805461197a906130e7565b80156119c75780601f1061199c576101008083540402835291602001916119c7565b820191906000526020600020905b8154815290600101906020018083116119aa57829003601f168201915b505050505081526020016001820180546119e0906130e7565b80601f0160208091040260200160405190810160405280929190818152602001828054611a0c906130e7565b8015611a595780601f10611a2e57610100808354040283529160200191611a59565b820191906000526020600020905b815481529060010190602001808311611a3c57829003601f168201915b50505050508152602001600282018054611a72906130e7565b80601f0160208091040260200160405190810160405280929190818152602001828054611a9e906130e7565b8015611aeb5780601f10611ac057610100808354040283529160200191611aeb565b820191906000526020600020905b815481529060010190602001808311611ace57829003601f168201915b505050505081526020016003820160009054906101000a900460ff1660ff1660ff16815250508152602001600f8201604051806060016040529081600082016040518060400160405290816000820160009054906101000a900473ffffffffffffffffffffffffffffffffffffffff1673ffffffffffffffffffffffffffffffffffffffff1673ffffffffffffffffffffffffffffffffffffffff1681526020016000820160149054906101000a900460ff1660ff1660ff16815250508152602001600182016040518060400160405290816000820160009054906101000a900473ffffffffffffffffffffffffffffffffffffffff1673ffffffffffffffffffffffffffffffffffffffff1673ffffffffffffffffffffffffffffffffffffffff1681526020016000820160149054906101000a900460ff1660ff1660ff16815250508152602001600282016040518060400160405290816000820160009054906101000a900473ffffffffffffffffffffffffffffffffffffffff1673ffffffffffffffffffffffffffffffffffffffff1673ffffffffffffffffffffffffffffffffffffffff1681526020016000820160149054906101000a900460ff1660ff1660ff16815250508152505081525050838381518110611cd157611cd0613118565b5b6020026020010181905250508080611ce890613176565b915050611676565b508091505090565b6000600354905090565b6040518060c0016040528060008152602001606081526020016060815260200160008152602001600063ffffffff168152602001600063ffffffff1681525090565b60405180608001604052806000815260200160008152602001600073ffffffffffffffffffffffffffffffffffffffff168152602001606081525090565b828054611d8e906130e7565b90600052602060002090601f016020900481019282611db05760008555611df7565b82601f10611dc957805160ff1916838001178555611df7565b82800160010185558215611df7579182015b82811115611df6578251825591602001919060010190611ddb565b5b509050611e049190611e4f565b5090565b6040518060a0016040528060008152602001611e22611e6c565b8152602001611e2f611eb3565b8152602001611e3c611ee3565b8152602001611e49611f0e565b81525090565b5b80821115611e68576000816000905550600101611e50565b5090565b604051806101000160405280606081526020016060815260200160008152602001600081526020016000815260200160008152602001600081526020016000151581525090565b6040518060400160405280600073ffffffffffffffffffffffffffffffffffffffff168152602001606081525090565b6040518060800160405280606081526020016060815260200160608152602001600060ff1681525090565b6040518060600160405280611f21611f41565b8152602001611f2e611f41565b8152602001611f3b611f41565b81525090565b6040518060400160405280600073ffffffffffffffffffffffffffffffffffffffff168152602001600060ff1681525090565b6000819050919050565b611f8781611f74565b82525050565b6000602082019050611fa26000830184611f7e565b92915050565b6000604051905090565b600080fd5b600080fd5b611fc581611f74565b8114611fd057600080fd5b50565b600081359050611fe281611fbc565b92915050565b600060208284031215611ffe57611ffd611fb2565b5b600061200c84828501611fd3565b91505092915050565b600081519050919050565b600082825260208201905092915050565b60005b8381101561204f578082015181840152602081019050612034565b8381111561205e576000848401525b50505050565b6000601f19601f8301169050919050565b600061208082612015565b61208a8185612020565b935061209a818560208601612031565b6120a381612064565b840191505092915050565b6120b781611f74565b82525050565b60008115159050919050565b6120d2816120bd565b82525050565b60006101008301600083015184820360008601526120f68282612075565b915050602083015184820360208601526121108282612075565b915050604083015161212560408601826120ae565b50606083015161213860608601826120ae565b50608083015161214b60808601826120ae565b5060a083015161215e60a08601826120ae565b5060c083015161217160c08601826120ae565b5060e083015161218460e08601826120c9565b508091505092915050565b600073ffffffffffffffffffffffffffffffffffffffff82169050919050565b60006121ba8261218f565b9050919050565b6121ca816121af565b82525050565b60006040830160008301516121e860008601826121c1565b50602083015184820360208601526122008282612075565b9150508091505092915050565b600060ff82169050919050565b6122238161220d565b82525050565b600060808301600083015184820360008601526122468282612075565b915050602083015184820360208601526122608282612075565b9150506040830151848203604086015261227a8282612075565b915050606083015161228f606086018261221a565b508091505092915050565b60006122a58261218f565b9050919050565b6122b58161229a565b82525050565b6040820160008201516122d160008501826122ac565b5060208201516122e4602085018261221a565b50505050565b60c08201600082015161230060008501826122bb565b50602082015161231360408501826122bb565b50604082015161232660808501826122bb565b50505050565b6000610140820190506123426000830188611f7e565b818103602083015261235481876120d8565b9050818103604083015261236881866121d0565b9050818103606083015261237c8185612229565b905061238b60808301846122ea565b9695505050505050565b600081519050919050565b600082825260208201905092915050565b6000819050602082019050919050565b600063ffffffff82169050919050565b6123da816123c1565b82525050565b600060c0830160008301516123f860008601826120ae565b50602083015184820360208601526124108282612075565b9150506040830151848203604086015261242a8282612075565b915050606083015161243f60608601826120ae565b50608083015161245260808601826123d1565b5060a083015161246560a08601826123d1565b508091505092915050565b600061247c83836123e0565b905092915050565b6000602082019050919050565b600061249c82612395565b6124a681856123a0565b9350836020820285016124b8856123b1565b8060005b858110156124f457848403895281516124d58582612470565b94506124e083612484565b925060208a019950506001810190506124bc565b50829750879550505050505092915050565b600060208201905081810360008301526125208184612491565b905092915050565b600081519050919050565b600082825260208201905092915050565b6000819050602082019050919050565b600060808301600083015161256c60008601826120ae565b50602083015161257f60208601826120ae565b50604083015161259260408601826121c1565b50606083015184820360608601526125aa8282612075565b9150508091505092915050565b60006125c38383612554565b905092915050565b6000602082019050919050565b60006125e382612528565b6125ed8185612533565b9350836020820285016125ff85612544565b8060005b8581101561263b578484038952815161261c85826125b7565b9450612627836125cb565b925060208a01995050600181019050612603565b50829750879550505050505092915050565b6000602082019050818103600083015261266781846125d8565b905092915050565b600080fd5b600080fd5b7f4e487b7100000000000000000000000000000000000000000000000000000000600052604160045260246000fd5b6126b182612064565b810181811067ffffffffffffffff821117156126d0576126cf612679565b5b80604052505050565b60006126e3611fa8565b90506126ef82826126a8565b919050565b600067ffffffffffffffff82111561270f5761270e612679565b5b61271882612064565b9050602081019050919050565b82818337600083830152505050565b6000612747612742846126f4565b6126d9565b90508281526020810184848401111561276357612762612674565b5b61276e848285612725565b509392505050565b600082601f83011261278b5761278a61266f565b5b813561279b848260208601612734565b91505092915050565b6127ad816123c1565b81146127b857600080fd5b50565b6000813590506127ca816127a4565b92915050565b600080fd5b600080fd5b6127e3816121af565b81146127ee57600080fd5b50565b600081359050612800816127da565b92915050565b60006040828403121561281c5761281b6127d0565b5b61282660406126d9565b90506000612836848285016127f1565b600083015250602082013567ffffffffffffffff81111561285a576128596127d5565b5b61286684828501612776565b60208301525092915050565b61287b8161229a565b811461288657600080fd5b50565b60008135905061289881612872565b92915050565b6128a78161220d565b81146128b257600080fd5b50565b6000813590506128c48161289e565b92915050565b6000604082840312156128e0576128df6127d0565b5b6128ea60406126d9565b905060006128fa84828501612889565b600083015250602061290e848285016128b5565b60208301525092915050565b600060c082840312156129305761292f6127d0565b5b61293a60606126d9565b9050600061294a848285016128ca565b600083015250604061295e848285016128ca565b6020830152506080612972848285016128ca565b60408301525092915050565b600060808284031215612994576129936127d0565b5b61299e60806126d9565b9050600082013567ffffffffffffffff8111156129be576129bd6127d5565b5b6129ca84828501612776565b600083015250602082013567ffffffffffffffff8111156129ee576129ed6127d5565b5b6129fa84828501612776565b602083015250604082013567ffffffffffffffff811115612a1e57612a1d6127d5565b5b612a2a84828501612776565b6040830152506060612a3e848285016128b5565b60608301525092915050565b600067ffffffffffffffff821115612a6557612a64612679565b5b602082029050602081019050919050565b600080fd5b600060c08284031215612a9157612a906127d0565b5b612a9b60c06126d9565b90506000612aab84828501611fd3565b600083015250602082013567ffffffffffffffff811115612acf57612ace6127d5565b5b612adb84828501612776565b602083015250604082013567ffffffffffffffff811115612aff57612afe6127d5565b5b612b0b84828501612776565b6040830152506060612b1f84828501611fd3565b6060830152506080612b33848285016127bb565b60808301525060a0612b47848285016127bb565b60a08301525092915050565b6000612b66612b6184612a4a565b6126d9565b90508083825260208201905060208402830185811115612b8957612b88612a76565b5b835b81811015612bd057803567ffffffffffffffff811115612bae57612bad61266f565b5b808601612bbb8982612a7b565b85526020850194505050602081019050612b8b565b5050509392505050565b600082601f830112612bef57612bee61266f565b5b8135612bff848260208601612b53565b91505092915050565b6000806000806000806000610180888a031215612c2857612c27611fb2565b5b600088013567ffffffffffffffff811115612c4657612c45611fb7565b5b612c528a828b01612776565b975050602088013567ffffffffffffffff811115612c7357612c72611fb7565b5b612c7f8a828b01612776565b9650506040612c908a828b016127bb565b955050606088013567ffffffffffffffff811115612cb157612cb0611fb7565b5b612cbd8a828b01612806565b9450506080612cce8a828b0161291a565b93505061014088013567ffffffffffffffff811115612cf057612cef611fb7565b5b612cfc8a828b0161297e565b92505061016088013567ffffffffffffffff811115612d1e57612d1d611fb7565b5b612d2a8a828b01612bda565b91505092959891949750929550565b600080600060608486031215612d5257612d51611fb2565b5b6000612d6086828701611fd3565b9350506020612d7186828701611fd3565b925050604084013567ffffffffffffffff811115612d9257612d91611fb7565b5b612d9e86828701612776565b9150509250925092565b600081519050919050565b600082825260208201905092915050565b6000819050602082019050919050565b6000610100830160008301518482036000860152612df28282612075565b91505060208301518482036020860152612e0c8282612075565b9150506040830151612e2160408601826120ae565b506060830151612e3460608601826120ae565b506080830151612e4760808601826120ae565b5060a0830151612e5a60a08601826120ae565b5060c0830151612e6d60c08601826120ae565b5060e0830151612e8060e08601826120c9565b508091505092915050565b6000604083016000830151612ea360008601826121c1565b5060208301518482036020860152612ebb8282612075565b9150508091505092915050565b60006080830160008301518482036000860152612ee58282612075565b91505060208301518482036020860152612eff8282612075565b91505060408301518482036040860152612f198282612075565b9150506060830151612f2e606086018261221a565b508091505092915050565b60c082016000820151612f4f60008501826122bb565b506020820151612f6260408501826122bb565b506040820151612f7560808501826122bb565b50505050565b600061014083016000830151612f9460008601826120ae565b5060208301518482036020860152612fac8282612dd4565b91505060408301518482036040860152612fc68282612e8b565b91505060608301518482036060860152612fe08282612ec8565b9150506080830151612ff56080860182612f39565b508091505092915050565b600061300c8383612f7b565b905092915050565b6000602082019050919050565b600061302c82612da8565b6130368185612db3565b93508360208202850161304885612dc4565b8060005b8581101561308457848403895281516130658582613000565b945061307083613014565b925060208a0199505060018101905061304c565b50829750879550505050505092915050565b600060208201905081810360008301526130b08184613021565b905092915050565b7f4e487b7100000000000000000000000000000000000000000000000000000000600052602260045260246000fd5b600060028204905060018216806130ff57607f821691505b602082108103613112576131116130b8565b5b50919050565b7f4e487b7100000000000000000000000000000000000000000000000000000000600052603260045260246000fd5b7f4e487b7100000000000000000000000000000000000000000000000000000000600052601160045260246000fd5b600061318182611f74565b91507fffffffffffffffffffffffffffffffffffffffffffffffffffffffffffffffff82036131b3576131b2613147565b5b600182019050919050565b600082825260208201905092915050565b7f4475726174696f6e206d75737420626520686967686572207468616e20300000600082015250565b6000613205601e836131be565b9150613210826131cf565b602082019050919050565b60006020820190508181036000830152613234816131f8565b9050919050565b7f4475726174696f6e2063616e277420626520686967686572207468616e20362060008201527f7765656b73000000000000000000000000000000000000000000000000000000602082015250565b60006132976025836131be565b91506132a28261323b565b604082019050919050565b600060208201905081810360008301526132c68161328a565b9050919050565b60006132d882611f74565b91506132e383611f74565b9250827fffffffffffffffffffffffffffffffffffffffffffffffffffffffffffffffff0382111561331857613317613147565b5b828201905092915050565b7f446561646c696e65206d75737420626520696e20746865206675747572650000600082015250565b6000613359601e836131be565b915061336482613323565b602082019050919050565b600060208201905081810360008301526133888161334c565b9050919050565b7f5468657265206d757374206265206174206c65617374206f6e6520706965636560008201527f206f66206561636820626f780000000000000000000000000000000000000000602082015250565b60006133eb602c836131be565b91506133f68261338f565b604082019050919050565b6000602082019050818103600083015261341a816133de565b9050919050565b7f496e697469616c6c7920746f74616c20616e6420617661696c61626c65206d7560008201527f737420626520657175616c000000000000000000000000000000000000000000602082015250565b600061347d602b836131be565b915061348882613421565b604082019050919050565b600060208201905081810360008301526134ac81613470565b9050919050565b7f5468657265206d757374206265206174206c65617374206f6e6520626f78206960008201527f6e20746f74616c00000000000000000000000000000000000000000000000000602082015250565b600061350f6027836131be565b915061351a826134b3565b604082019050919050565b6000602082019050818103600083015261353e81613502565b9050919050565b600061355082611f74565b915061355b83611f74565b92508282101561356e5761356d613147565b5b828203905092915050565b7f546869732063616d706169676e206861732073746f7070656400000000000000600082015250565b60006135af6019836131be565b91506135ba82613579565b602082019050919050565b600060208201905081810360008301526135de816135a2565b9050919050565b7f546869732063616d706169676e20697320616c7265616479206f766572000000600082015250565b600061361b601d836131be565b9150613626826135e5565b602082019050919050565b6000602082019050818103600083015261364a8161360e565b9050919050565b7f54686520626f7820494420697320696e76616c69640000000000000000000000600082015250565b60006136876015836131be565b915061369282613651565b602082019050919050565b600060208201905081810360008301526136b68161367a565b9050919050565b7f416c6c20626f786573206f66207468697320747970652068617665206265656e60008201527f20736f6c64000000000000000000000000000000000000000000000000000000602082015250565b60006137196025836131be565b9150613724826136bd565b604082019050919050565b600060208201905081810360008301526137488161370c565b9050919050565b7f476976656e20616d6f756e742069732062656c6f7720626f7820707269636500600082015250565b6000613785601f836131be565b91506137908261374f565b602082019050919050565b600060208201905081810360008301526137b481613778565b9050919050565b60006137c6826123c1565b91506137d1836123c1565b9250828210156137e4576137e3613147565b5b82820390509291505056fea26469706673582212208dee3cfa77df2157efb59e6b9bcb28312317355ce31aacaf6f7c68b148648e3f64736f6c634300080d0033",
  "immutableReferences": {},
  "source": "// SPDX-License-Identifier: AGPL\npragma solidity ^0.8.13;\n\nimport './CrowdfundingLib.sol';\nimport './Types.sol';\n\ncontract Crowdfunding {\n\n    // all campaigns\n    mapping(uint256 => Campaign) public campaigns;\n    // Boxes of each campaign\n    mapping(uint256 => mapping(uint256 => Box)) boxes;\n    // Sold boxes of each campaign (campginId => sellId => BoxSellRef)\n    mapping(uint256 => mapping(uint256 => BoxSellRef)) soldBoxes;\n\n    uint256 public numberOfCampaigns = 0;\n\n    /**\n     * Adds a buyer\n     */\n    /*function addBuyer(uint256 _campaignId, address _buyer, Box memory _box, string memory _physAddress) private {\n      Campaign storage campaign = campaigns[_campaignId];\n      // Make sure boxesSold has not been increased yet\n      uint256 boxId = campaign.meta.boxesSold;\n\n      BoxSellRef storage soldBox = soldBoxesCampaign[_campaignId][boxId];\n      soldBox.id = boxId;\n      soldBox.owner = _buyer;\n      soldBox.box = _box;\n      soldBox.physAddress = _physAddress;\n    }*/\n\n    /**\n     * Adds a box to the boxOffers\n     */\n    /*function addBoxes(Box[] memory _boxes) private {\n      BoxOffer[] storage _offers = boxOffers[numberOfCampaigns];\n      for (uint256 index = 0; index < _boxes.length; index++) {\n          BoxOffer memory offer = _boxes[index];\n          _offers.push(offer);\n      }\n\n    }*/\n\n    /**\n     * Creates a new campaign\n     */\n    function createCampaign(\n        string memory _title,\n        string memory _description,\n        uint32 _duration,\n        CampaignOwner memory _campaignOwner,\n        StakeholderList memory _stakeholders,\n        CampaignAnimalData memory _animal,\n        Box[] memory _boxes\n    ) public returns (uint256) {\n        // check crowdfunding duration\n        require(_duration > 0, \"Duration must be higher than 0\");\n        require(_duration <= 6 weeks, \"Duration can't be higher than 6 weeks\");\n\n        // create deadline by adding the duration to the current timestamp\n        uint256 current = block.timestamp;\n        uint256 deadline = current + _duration;\n\n        // validate\n        require(\n            deadline > current,\n            \"Deadline must be in the future\"\n        );\n\n        // add boxes to campaign\n        uint256 totalNumOfBoxes = 0;\n        for (uint256 index = 0; index < _boxes.length; index++) {\n          Box memory box = _boxes[index];\n          require(box.total > 0, \"There must be at least one piece of each box\");\n          require(box.total == box.available, \"Initially total and available must be equal\");\n          totalNumOfBoxes += box.total;\n          boxes[numberOfCampaigns][box.id] = box;\n        }\n        require(totalNumOfBoxes > 0, \"There must be at least one box in total\");\n\n        Campaign storage campaign = campaigns[numberOfCampaigns];\n        campaign.owner = _campaignOwner;\n        campaign.meta.title = _title;\n        campaign.meta.description = _description;\n        campaign.meta.collectedAmount = 0;\n        campaign.meta.deadline = deadline;\n        campaign.meta.isStopped = false;\n        campaign.meta.totalBoxes = totalNumOfBoxes;\n        campaign.meta.boxesSold = 0;\n        campaign.meta.totalBoxTypes = _boxes.length;\n        campaign.animal = _animal;\n        campaign.stakeholders = _stakeholders;\n\n        // increase total num of campaigns\n        numberOfCampaigns++;\n\n        // return the most recent campaign index\n        return numberOfCampaigns - 1;\n    }\n\n    /**\n    * Returns the total number of campaigns\n    */\n    function getNumberOfCampaigns() public view returns (uint256) {\n      return numberOfCampaigns;\n    }\n\n    /**\n     * Returns all campaigns\n     */\n    function getCampaigns() public view returns (Campaign[] memory) {\n        Campaign[] memory allCampaigns = new Campaign[](numberOfCampaigns);\n        for (uint256 index = 0; index < numberOfCampaigns; index++) {\n            Campaign storage campaign = campaigns[index];\n            allCampaigns[index] = campaign;\n        }\n        return allCampaigns;\n    }\n\n    /**\n     * Returns all boxes of a specific campaign\n     */\n    function getBoxes(uint256 _campaignId) public view returns (Box[] memory) {\n        Campaign storage campaign = campaigns[_campaignId];\n        uint256 totalBoxTypes = campaign.meta.totalBoxTypes;\n        Box[] memory boxesOfCampaign = new Box[](totalBoxTypes);\n        for (uint256 index = 0; index < totalBoxTypes; index++) {\n            Box storage box = boxes[_campaignId][index];\n            boxesOfCampaign[index] = box;\n        }\n        return boxesOfCampaign;\n    }\n\n    /**\n     * Returns the sell reference of boxes for a specific campaign\n     */\n    function getSoldBoxes(uint256 _campaignId) public view returns (BoxSellRef[] memory) {\n        Campaign storage campaign = campaigns[_campaignId];\n        uint256 boxesSold = campaign.meta.boxesSold;\n        BoxSellRef[] memory sellRefs = new BoxSellRef[](boxesSold);\n        for (uint256 index = 0; index < boxesSold; index++) {\n            BoxSellRef storage sellRef = soldBoxes[_campaignId][index];\n            sellRefs[index] = sellRef;\n        }\n        return sellRefs;\n    }\n\n    /**\n     * Removes a campaign\n     */\n    /*function stopCampaign(uint256 _campaignId) public returns (bool) {\n      Campaign storage campaign = campaigns[_campaignId];\n      require(!campaign.meta.isStopped, \"Campaign already stopped\");\n      require(campaign.meta.deadline > block.timestamp, \"This campaign is over\");\n      require(msg.sender == campaign.owner.owner, \"Only the owner can stop a campaign\");\n\n      campaign.meta.isStopped = true;\n\n      return true;\n    }*/\n\n    /**\n     * Buys a box\n     */\n    function buyBox(uint256 _campaignId, uint256 _boxId, string memory _physAddress) public payable {\n        // get campaign ref\n        Campaign storage campaign = campaigns[_campaignId];\n        // check if this is an ongoing campaign\n        require(!campaign.meta.isStopped, \"This campaign has stopped\");\n        require(campaign.meta.deadline > block.timestamp, \"This campaign is already over\");\n\n        // check if this campaign still has available boxes for the requested kind\n        Box storage box = boxes[_campaignId][_boxId];\n        require(box.id == _boxId, \"The box ID is invalid\");\n        require(box.available > 0, \"All boxes of this type have been sold\");\n        uint256 amount = msg.value;\n        require(amount >= box.price, \"Given amount is below box price\");\n\n        // Add buyer (Don't increase boxes sold yet, we need it starting at 0)\n        uint256 sellId = campaign.meta.boxesSold;\n        BoxSellRef storage sellRef = soldBoxes[_campaignId][campaign.meta.boxesSold];\n        sellRef.boxId = box.id;\n        sellRef.id = sellId;\n        sellRef.owner = msg.sender;\n        sellRef.physAddress = _physAddress;\n\n        // Updates available boxes by one\n        box.available-=1;\n        // Update campaign meta\n        CampaignMeta storage meta = campaign.meta;\n        meta.boxesSold+=1;\n        meta.collectedAmount+=amount;\n\n        if (campaign.meta.boxesSold == campaign.meta.totalBoxes) {\n          // Mark campaign as stopped\n          campaign.meta.isStopped = true;\n          // TODO Start Supply Chain\n        }\n    }\n\n    /**\n     * Pay-out all stakeholders of the campaign\n     */\n    /*function payOut(uint256 _campaignId) public {\n      Campaign storage campaign = campaigns[_campaignId];\n      require(campaign.meta.isStopped, \"The campaign must be finished\");\n      require(campaign.meta.boxesSold == campaign.meta.totalBoxes, \"There can't be any boxes left\");\n\n      // TODO Check if supply chain has been completed\n      // e.g. require(campaign.supplyChain.isCompleted);\n\n      // Generate shares\n      uint256 farmerShare = CrowdfundingLib.getFarmerShare(campaign);\n      uint256 butcherShare = CrowdfundingLib.getButcherShare(campaign);\n      uint256 deliveryShare = CrowdfundingLib.getDeliveryShare(campaign);\n\n      // payout stakeholders\n      payable(campaign.stakeholders.farmer.owner).transfer(farmerShare);\n      payable(campaign.stakeholders.butcher.owner).transfer(butcherShare);\n      payable(campaign.stakeholders.delivery.owner).transfer(deliveryShare);\n    }*/\n\n}\n",
  "sourcePath": "/workspaces/146157_Blockchain/smart_contracts/contracts/Crowdfunding.sol",
  "compiler": {
    "name": "solc",
    "version": "0.8.13+commit.abaa5c0e.Emscripten.clang"
  },
  "schemaVersion": "3.4.14",
  "updatedAt": "2023-08-06T12:44:46.993Z",
  "devdoc": {
    "kind": "dev",
    "methods": {},
    "version": 1
  },
  "userdoc": {
    "kind": "user",
    "methods": {
      "buyBox(uint256,uint256,string)": {
        "notice": "Buys a box"
      },
      "createCampaign(string,string,uint32,(address,string),((address,uint8),(address,uint8),(address,uint8)),(string,string,string,uint8),(uint256,string,string,uint256,uint32,uint32)[])": {
        "notice": "Creates a new campaign"
      },
      "getBoxes(uint256)": {
        "notice": "Returns all boxes of a specific campaign"
      },
      "getCampaigns()": {
        "notice": "Returns all campaigns"
      },
      "getNumberOfCampaigns()": {
        "notice": "Returns the total number of campaigns"
      },
      "getSoldBoxes(uint256)": {
        "notice": "Returns the sell reference of boxes for a specific campaign"
      }
    },
    "version": 1
  }
}