{
  "contractName": "Crowdfunding",
  "abi": [
    {
      "inputs": [
        {
          "internalType": "uint256",
          "name": "",
          "type": "uint256"
        },
        {
          "internalType": "uint256",
          "name": "",
          "type": "uint256"
        }
      ],
      "name": "boxOffers",
      "outputs": [
        {
          "internalType": "uint256",
          "name": "id",
          "type": "uint256"
        },
        {
          "components": [
            {
              "internalType": "string",
              "name": "title",
              "type": "string"
            },
            {
              "internalType": "string",
              "name": "description",
              "type": "string"
            },
            {
              "internalType": "uint16",
              "name": "price",
              "type": "uint16"
            }
          ],
          "internalType": "struct Crowdfunding.Box",
          "name": "box",
          "type": "tuple"
        },
        {
          "internalType": "uint32",
          "name": "total",
          "type": "uint32"
        },
        {
          "internalType": "uint32",
          "name": "available",
          "type": "uint32"
        }
      ],
      "stateMutability": "view",
      "type": "function",
      "constant": true
    },
    {
      "inputs": [
        {
          "internalType": "uint256",
          "name": "",
          "type": "uint256"
        }
      ],
      "name": "campaigns",
      "outputs": [
        {
          "internalType": "address",
          "name": "owner",
          "type": "address"
        },
        {
          "internalType": "string",
          "name": "ownerPublicKey",
          "type": "string"
        },
        {
          "internalType": "string",
          "name": "title",
          "type": "string"
        },
        {
          "internalType": "string",
          "name": "description",
          "type": "string"
        },
        {
          "internalType": "uint256",
          "name": "collectedAmount",
          "type": "uint256"
        },
        {
          "internalType": "uint256",
          "name": "deadline",
          "type": "uint256"
        },
        {
          "internalType": "uint256",
          "name": "totalBoxes",
          "type": "uint256"
        },
        {
          "internalType": "uint256",
          "name": "boxesSold",
          "type": "uint256"
        },
        {
          "internalType": "bool",
          "name": "isStopped",
          "type": "bool"
        },
        {
          "components": [
            {
              "internalType": "address payable",
              "name": "owner",
              "type": "address"
            },
            {
              "internalType": "uint8",
              "name": "share",
              "type": "uint8"
            }
          ],
          "internalType": "struct Crowdfunding.Stakeholder",
          "name": "farmer",
          "type": "tuple"
        },
        {
          "components": [
            {
              "internalType": "address payable",
              "name": "owner",
              "type": "address"
            },
            {
              "internalType": "uint8",
              "name": "share",
              "type": "uint8"
            }
          ],
          "internalType": "struct Crowdfunding.Stakeholder",
          "name": "butcher",
          "type": "tuple"
        },
        {
          "components": [
            {
              "internalType": "address payable",
              "name": "owner",
              "type": "address"
            },
            {
              "internalType": "uint8",
              "name": "share",
              "type": "uint8"
            }
          ],
          "internalType": "struct Crowdfunding.Stakeholder",
          "name": "delivery",
          "type": "tuple"
        }
      ],
      "stateMutability": "view",
      "type": "function",
      "constant": true
    },
    {
      "inputs": [],
      "name": "numberOfCampaigns",
      "outputs": [
        {
          "internalType": "uint256",
          "name": "",
          "type": "uint256"
        }
      ],
      "stateMutability": "view",
      "type": "function",
      "constant": true
    },
    {
      "inputs": [
        {
          "internalType": "uint256",
          "name": "",
          "type": "uint256"
        },
        {
          "internalType": "uint256",
          "name": "",
          "type": "uint256"
        }
      ],
      "name": "soldBoxesCampaign",
      "outputs": [
        {
          "internalType": "uint256",
          "name": "id",
          "type": "uint256"
        },
        {
          "components": [
            {
              "internalType": "string",
              "name": "title",
              "type": "string"
            },
            {
              "internalType": "string",
              "name": "description",
              "type": "string"
            },
            {
              "internalType": "uint16",
              "name": "price",
              "type": "uint16"
            }
          ],
          "internalType": "struct Crowdfunding.Box",
          "name": "box",
          "type": "tuple"
        },
        {
          "internalType": "address",
          "name": "owner",
          "type": "address"
        },
        {
          "internalType": "string",
          "name": "physAddress",
          "type": "string"
        }
      ],
      "stateMutability": "view",
      "type": "function",
      "constant": true
    },
    {
      "inputs": [
        {
          "internalType": "address",
          "name": "_owner",
          "type": "address"
        },
        {
          "internalType": "string",
          "name": "_ownerPublicKey",
          "type": "string"
        },
        {
          "internalType": "string",
          "name": "_title",
          "type": "string"
        },
        {
          "internalType": "string",
          "name": "_description",
          "type": "string"
        },
        {
          "internalType": "uint32",
          "name": "_duration",
          "type": "uint32"
        },
        {
          "components": [
            {
              "internalType": "address payable",
              "name": "owner",
              "type": "address"
            },
            {
              "internalType": "uint8",
              "name": "share",
              "type": "uint8"
            }
          ],
          "internalType": "struct Crowdfunding.Stakeholder",
          "name": "_farmer",
          "type": "tuple"
        },
        {
          "components": [
            {
              "internalType": "address payable",
              "name": "owner",
              "type": "address"
            },
            {
              "internalType": "uint8",
              "name": "share",
              "type": "uint8"
            }
          ],
          "internalType": "struct Crowdfunding.Stakeholder",
          "name": "_butcher",
          "type": "tuple"
        },
        {
          "components": [
            {
              "internalType": "address payable",
              "name": "owner",
              "type": "address"
            },
            {
              "internalType": "uint8",
              "name": "share",
              "type": "uint8"
            }
          ],
          "internalType": "struct Crowdfunding.Stakeholder",
          "name": "_delivery",
          "type": "tuple"
        },
        {
          "components": [
            {
              "internalType": "uint256",
              "name": "id",
              "type": "uint256"
            },
            {
              "components": [
                {
                  "internalType": "string",
                  "name": "title",
                  "type": "string"
                },
                {
                  "internalType": "string",
                  "name": "description",
                  "type": "string"
                },
                {
                  "internalType": "uint16",
                  "name": "price",
                  "type": "uint16"
                }
              ],
              "internalType": "struct Crowdfunding.Box",
              "name": "box",
              "type": "tuple"
            },
            {
              "internalType": "uint32",
              "name": "total",
              "type": "uint32"
            },
            {
              "internalType": "uint32",
              "name": "available",
              "type": "uint32"
            }
          ],
          "internalType": "struct Crowdfunding.BoxOffer[]",
          "name": "_boxes",
          "type": "tuple[]"
        }
      ],
      "name": "createCampaign",
      "outputs": [
        {
          "internalType": "uint256",
          "name": "",
          "type": "uint256"
        }
      ],
      "stateMutability": "nonpayable",
      "type": "function"
    },
    {
      "inputs": [],
      "name": "getNumberOfCampaigns",
      "outputs": [
        {
          "internalType": "uint256",
          "name": "",
          "type": "uint256"
        }
      ],
      "stateMutability": "view",
      "type": "function",
      "constant": true
    },
    {
      "inputs": [
        {
          "internalType": "uint256",
          "name": "_campaignId",
          "type": "uint256"
        }
      ],
      "name": "getPublicKey",
      "outputs": [
        {
          "internalType": "string",
          "name": "",
          "type": "string"
        }
      ],
      "stateMutability": "view",
      "type": "function",
      "constant": true
    },
    {
      "inputs": [
        {
          "internalType": "uint256",
          "name": "_campaignId",
          "type": "uint256"
        }
      ],
      "name": "stopCampaign",
      "outputs": [
        {
          "internalType": "bool",
          "name": "",
          "type": "bool"
        }
      ],
      "stateMutability": "nonpayable",
      "type": "function"
    },
    {
      "inputs": [
        {
          "internalType": "uint256",
          "name": "_campaignId",
          "type": "uint256"
        },
        {
          "internalType": "uint256",
          "name": "_boxId",
          "type": "uint256"
        },
        {
          "internalType": "string",
          "name": "_physAddress",
          "type": "string"
        }
      ],
      "name": "buyBox",
      "outputs": [],
      "stateMutability": "payable",
      "type": "function",
      "payable": true
    },
    {
      "inputs": [
        {
          "internalType": "uint256",
          "name": "_campaignId",
          "type": "uint256"
        }
      ],
      "name": "getCampaign",
      "outputs": [
        {
          "components": [
            {
              "internalType": "uint256",
              "name": "id",
              "type": "uint256"
            },
            {
              "components": [
                {
                  "internalType": "address",
                  "name": "owner",
                  "type": "address"
                },
                {
                  "internalType": "string",
                  "name": "ownerPublicKey",
                  "type": "string"
                },
                {
                  "internalType": "string",
                  "name": "title",
                  "type": "string"
                },
                {
                  "internalType": "string",
                  "name": "description",
                  "type": "string"
                },
                {
                  "internalType": "uint256",
                  "name": "collectedAmount",
                  "type": "uint256"
                },
                {
                  "internalType": "uint256",
                  "name": "deadline",
                  "type": "uint256"
                },
                {
                  "internalType": "uint256",
                  "name": "totalBoxes",
                  "type": "uint256"
                },
                {
                  "internalType": "uint256",
                  "name": "boxesSold",
                  "type": "uint256"
                },
                {
                  "internalType": "bool",
                  "name": "isStopped",
                  "type": "bool"
                },
                {
                  "components": [
                    {
                      "internalType": "address payable",
                      "name": "owner",
                      "type": "address"
                    },
                    {
                      "internalType": "uint8",
                      "name": "share",
                      "type": "uint8"
                    }
                  ],
                  "internalType": "struct Crowdfunding.Stakeholder",
                  "name": "farmer",
                  "type": "tuple"
                },
                {
                  "components": [
                    {
                      "internalType": "address payable",
                      "name": "owner",
                      "type": "address"
                    },
                    {
                      "internalType": "uint8",
                      "name": "share",
                      "type": "uint8"
                    }
                  ],
                  "internalType": "struct Crowdfunding.Stakeholder",
                  "name": "butcher",
                  "type": "tuple"
                },
                {
                  "components": [
                    {
                      "internalType": "address payable",
                      "name": "owner",
                      "type": "address"
                    },
                    {
                      "internalType": "uint8",
                      "name": "share",
                      "type": "uint8"
                    }
                  ],
                  "internalType": "struct Crowdfunding.Stakeholder",
                  "name": "delivery",
                  "type": "tuple"
                }
              ],
              "internalType": "struct Crowdfunding.Campaign",
              "name": "campaign",
              "type": "tuple"
            }
          ],
          "internalType": "struct Crowdfunding.CampaignRef",
          "name": "",
          "type": "tuple"
        }
      ],
      "stateMutability": "view",
      "type": "function",
      "constant": true
    },
    {
      "inputs": [],
      "name": "getCampaigns",
      "outputs": [
        {
          "components": [
            {
              "internalType": "uint256",
              "name": "id",
              "type": "uint256"
            },
            {
              "components": [
                {
                  "internalType": "address",
                  "name": "owner",
                  "type": "address"
                },
                {
                  "internalType": "string",
                  "name": "ownerPublicKey",
                  "type": "string"
                },
                {
                  "internalType": "string",
                  "name": "title",
                  "type": "string"
                },
                {
                  "internalType": "string",
                  "name": "description",
                  "type": "string"
                },
                {
                  "internalType": "uint256",
                  "name": "collectedAmount",
                  "type": "uint256"
                },
                {
                  "internalType": "uint256",
                  "name": "deadline",
                  "type": "uint256"
                },
                {
                  "internalType": "uint256",
                  "name": "totalBoxes",
                  "type": "uint256"
                },
                {
                  "internalType": "uint256",
                  "name": "boxesSold",
                  "type": "uint256"
                },
                {
                  "internalType": "bool",
                  "name": "isStopped",
                  "type": "bool"
                },
                {
                  "components": [
                    {
                      "internalType": "address payable",
                      "name": "owner",
                      "type": "address"
                    },
                    {
                      "internalType": "uint8",
                      "name": "share",
                      "type": "uint8"
                    }
                  ],
                  "internalType": "struct Crowdfunding.Stakeholder",
                  "name": "farmer",
                  "type": "tuple"
                },
                {
                  "components": [
                    {
                      "internalType": "address payable",
                      "name": "owner",
                      "type": "address"
                    },
                    {
                      "internalType": "uint8",
                      "name": "share",
                      "type": "uint8"
                    }
                  ],
                  "internalType": "struct Crowdfunding.Stakeholder",
                  "name": "butcher",
                  "type": "tuple"
                },
                {
                  "components": [
                    {
                      "internalType": "address payable",
                      "name": "owner",
                      "type": "address"
                    },
                    {
                      "internalType": "uint8",
                      "name": "share",
                      "type": "uint8"
                    }
                  ],
                  "internalType": "struct Crowdfunding.Stakeholder",
                  "name": "delivery",
                  "type": "tuple"
                }
              ],
              "internalType": "struct Crowdfunding.Campaign",
              "name": "campaign",
              "type": "tuple"
            }
          ],
          "internalType": "struct Crowdfunding.CampaignRef[]",
          "name": "",
          "type": "tuple[]"
        }
      ],
      "stateMutability": "view",
      "type": "function",
      "constant": true
    },
    {
      "inputs": [],
      "name": "getOngoingCampaigns",
      "outputs": [
        {
          "components": [
            {
              "internalType": "uint256",
              "name": "id",
              "type": "uint256"
            },
            {
              "components": [
                {
                  "internalType": "address",
                  "name": "owner",
                  "type": "address"
                },
                {
                  "internalType": "string",
                  "name": "ownerPublicKey",
                  "type": "string"
                },
                {
                  "internalType": "string",
                  "name": "title",
                  "type": "string"
                },
                {
                  "internalType": "string",
                  "name": "description",
                  "type": "string"
                },
                {
                  "internalType": "uint256",
                  "name": "collectedAmount",
                  "type": "uint256"
                },
                {
                  "internalType": "uint256",
                  "name": "deadline",
                  "type": "uint256"
                },
                {
                  "internalType": "uint256",
                  "name": "totalBoxes",
                  "type": "uint256"
                },
                {
                  "internalType": "uint256",
                  "name": "boxesSold",
                  "type": "uint256"
                },
                {
                  "internalType": "bool",
                  "name": "isStopped",
                  "type": "bool"
                },
                {
                  "components": [
                    {
                      "internalType": "address payable",
                      "name": "owner",
                      "type": "address"
                    },
                    {
                      "internalType": "uint8",
                      "name": "share",
                      "type": "uint8"
                    }
                  ],
                  "internalType": "struct Crowdfunding.Stakeholder",
                  "name": "farmer",
                  "type": "tuple"
                },
                {
                  "components": [
                    {
                      "internalType": "address payable",
                      "name": "owner",
                      "type": "address"
                    },
                    {
                      "internalType": "uint8",
                      "name": "share",
                      "type": "uint8"
                    }
                  ],
                  "internalType": "struct Crowdfunding.Stakeholder",
                  "name": "butcher",
                  "type": "tuple"
                },
                {
                  "components": [
                    {
                      "internalType": "address payable",
                      "name": "owner",
                      "type": "address"
                    },
                    {
                      "internalType": "uint8",
                      "name": "share",
                      "type": "uint8"
                    }
                  ],
                  "internalType": "struct Crowdfunding.Stakeholder",
                  "name": "delivery",
                  "type": "tuple"
                }
              ],
              "internalType": "struct Crowdfunding.Campaign",
              "name": "campaign",
              "type": "tuple"
            }
          ],
          "internalType": "struct Crowdfunding.CampaignRef[]",
          "name": "",
          "type": "tuple[]"
        }
      ],
      "stateMutability": "view",
      "type": "function",
      "constant": true
    },
    {
      "inputs": [
        {
          "internalType": "uint256",
          "name": "_campaignId",
          "type": "uint256"
        }
      ],
      "name": "getBoxes",
      "outputs": [
        {
          "components": [
            {
              "internalType": "uint256",
              "name": "id",
              "type": "uint256"
            },
            {
              "components": [
                {
                  "internalType": "string",
                  "name": "title",
                  "type": "string"
                },
                {
                  "internalType": "string",
                  "name": "description",
                  "type": "string"
                },
                {
                  "internalType": "uint16",
                  "name": "price",
                  "type": "uint16"
                }
              ],
              "internalType": "struct Crowdfunding.Box",
              "name": "box",
              "type": "tuple"
            },
            {
              "internalType": "uint32",
              "name": "total",
              "type": "uint32"
            },
            {
              "internalType": "uint32",
              "name": "available",
              "type": "uint32"
            }
          ],
          "internalType": "struct Crowdfunding.BoxOffer[]",
          "name": "",
          "type": "tuple[]"
        }
      ],
      "stateMutability": "view",
      "type": "function",
      "constant": true
    },
    {
      "inputs": [
        {
          "internalType": "uint256",
          "name": "_campaignId",
          "type": "uint256"
        }
      ],
      "name": "getSoldBoxes",
      "outputs": [
        {
          "components": [
            {
              "internalType": "uint256",
              "name": "id",
              "type": "uint256"
            },
            {
              "components": [
                {
                  "internalType": "string",
                  "name": "title",
                  "type": "string"
                },
                {
                  "internalType": "string",
                  "name": "description",
                  "type": "string"
                },
                {
                  "internalType": "uint16",
                  "name": "price",
                  "type": "uint16"
                }
              ],
              "internalType": "struct Crowdfunding.Box",
              "name": "box",
              "type": "tuple"
            },
            {
              "internalType": "address",
              "name": "owner",
              "type": "address"
            },
            {
              "internalType": "string",
              "name": "physAddress",
              "type": "string"
            }
          ],
          "internalType": "struct Crowdfunding.BoxSellRef[]",
          "name": "",
          "type": "tuple[]"
        }
      ],
      "stateMutability": "view",
      "type": "function",
      "constant": true
    },
    {
      "inputs": [
        {
          "internalType": "uint256",
          "name": "_campaignId",
          "type": "uint256"
        }
      ],
      "name": "payOut",
      "outputs": [],
      "stateMutability": "nonpayable",
      "type": "function"
    }
  ],
  "bytecode": "0x6080604052600060035534801561001557600080fd5b50614f3b806100256000396000f3fe6080604052600436106100e85760003560e01c806375d2c1ce1161008a578063da333ca611610059578063da333ca614610346578063e4aafc2c1461036f578063ec6c82161461039a578063f3ac35a8146103d7576100e8565b806375d2c1ce14610273578063a6b03633146102b0578063b8d91ca5146102db578063d30c1be11461031b576100e8565b80633267f8ab116100c65780633267f8ab146101a057806332e75749146101dd5780635598f8cc1461021a5780636e8ae03514610257576100e8565b806307ca140d146100ed5780631355879d14610118578063141961bc14610158575b600080fd5b3480156100f957600080fd5b50610102610414565b60405161010f91906131f9565b60405180910390f35b34801561012457600080fd5b5061013f600480360381019061013a9190613254565b61041a565b60405161014f94939291906133c0565b60405180910390f35b34801561016457600080fd5b5061017f600480360381019061017a919061340c565b6105d5565b6040516101979c9b9a9998979695949392919061354b565b60405180910390f35b3480156101ac57600080fd5b506101c760048036038101906101c2919061340c565b610971565b6040516101d491906137b4565b60405180910390f35b3480156101e957600080fd5b5061020460048036038101906101ff919061340c565b610b97565b6040516102119190613911565b60405180910390f35b34801561022657600080fd5b50610241600480360381019061023c919061340c565b610ecc565b60405161024e9190613ac0565b60405180910390f35b610271600480360381019061026c9190613c17565b6112fd565b005b34801561027f57600080fd5b5061029a6004803603810190610295919061340c565b6116e7565b6040516102a79190613c86565b60405180910390f35b3480156102bc57600080fd5b506102c5611794565b6040516102d29190613da7565b60405180910390f35b3480156102e757600080fd5b5061030260048036038101906102fd9190613254565b611c58565b6040516103129493929190613dc9565b60405180910390f35b34801561032757600080fd5b50610330611e8b565b60405161033d9190613da7565b60405180910390f35b34801561035257600080fd5b5061036d6004803603810190610368919061340c565b612366565b005b34801561037b57600080fd5b506103846125e9565b60405161039191906131f9565b60405180910390f35b3480156103a657600080fd5b506103c160048036038101906103bc919061340c565b6125f3565b6040516103ce9190613e1c565b60405180910390f35b3480156103e357600080fd5b506103fe60048036038101906103f99190614183565b61275b565b60405161040b91906131f9565b60405180910390f35b60035481565b6001602052816000526040600020818154811061043657600080fd5b90600052602060002090600502016000915091505080600001549080600101604051806060016040529081600082018054610470906142ed565b80601f016020809104026020016040519081016040528092919081815260200182805461049c906142ed565b80156104e95780601f106104be576101008083540402835291602001916104e9565b820191906000526020600020905b8154815290600101906020018083116104cc57829003601f168201915b50505050508152602001600182018054610502906142ed565b80601f016020809104026020016040519081016040528092919081815260200182805461052e906142ed565b801561057b5780601f106105505761010080835404028352916020019161057b565b820191906000526020600020905b81548152906001019060200180831161055e57829003601f168201915b505050505081526020016002820160009054906101000a900461ffff1661ffff1661ffff1681525050908060040160009054906101000a900463ffffffff16908060040160049054906101000a900463ffffffff16905084565b60006020528060005260406000206000915090508060000160009054906101000a900473ffffffffffffffffffffffffffffffffffffffff169080600101805461061e906142ed565b80601f016020809104026020016040519081016040528092919081815260200182805461064a906142ed565b80156106975780601f1061066c57610100808354040283529160200191610697565b820191906000526020600020905b81548152906001019060200180831161067a57829003601f168201915b5050505050908060020180546106ac906142ed565b80601f01602080910402602001604051908101604052809291908181526020018280546106d8906142ed565b80156107255780601f106106fa57610100808354040283529160200191610725565b820191906000526020600020905b81548152906001019060200180831161070857829003601f168201915b50505050509080600301805461073a906142ed565b80601f0160208091040260200160405190810160405280929190818152602001828054610766906142ed565b80156107b35780601f10610788576101008083540402835291602001916107b3565b820191906000526020600020905b81548152906001019060200180831161079657829003601f168201915b5050505050908060040154908060050154908060060154908060070154908060080160009054906101000a900460ff1690806009016040518060400160405290816000820160009054906101000a900473ffffffffffffffffffffffffffffffffffffffff1673ffffffffffffffffffffffffffffffffffffffff1673ffffffffffffffffffffffffffffffffffffffff1681526020016000820160149054906101000a900460ff1660ff1660ff16815250509080600a016040518060400160405290816000820160009054906101000a900473ffffffffffffffffffffffffffffffffffffffff1673ffffffffffffffffffffffffffffffffffffffff1673ffffffffffffffffffffffffffffffffffffffff1681526020016000820160149054906101000a900460ff1660ff1660ff16815250509080600b016040518060400160405290816000820160009054906101000a900473ffffffffffffffffffffffffffffffffffffffff1673ffffffffffffffffffffffffffffffffffffffff1673ffffffffffffffffffffffffffffffffffffffff1681526020016000820160149054906101000a900460ff1660ff1660ff168152505090508c565b6060600060016000848152602001908152602001600020905080805480602002602001604051908101604052809291908181526020016000905b82821015610b8b578382906000526020600020906005020160405180608001604052908160008201548152602001600182016040518060600160405290816000820180546109f8906142ed565b80601f0160208091040260200160405190810160405280929190818152602001828054610a24906142ed565b8015610a715780601f10610a4657610100808354040283529160200191610a71565b820191906000526020600020905b815481529060010190602001808311610a5457829003601f168201915b50505050508152602001600182018054610a8a906142ed565b80601f0160208091040260200160405190810160405280929190818152602001828054610ab6906142ed565b8015610b035780601f10610ad857610100808354040283529160200191610b03565b820191906000526020600020905b815481529060010190602001808311610ae657829003601f168201915b505050505081526020016002820160009054906101000a900461ffff1661ffff1661ffff168152505081526020016004820160009054906101000a900463ffffffff1663ffffffff1663ffffffff1681526020016004820160049054906101000a900463ffffffff1663ffffffff1663ffffffff1681525050815260200190600101906109ab565b50505050915050919050565b6060600080600084815260200190815260200160002090506000816007015467ffffffffffffffff811115610bcf57610bce613aec565b5b604051908082528060200260200182016040528015610c0857816020015b610bf5612ff6565b815260200190600190039081610bed5790505b50905060005b8151811015610ec1576002600086815260200190815260200160002060008281526020019081526020016000206040518060800160405290816000820154815260200160018201604051806060016040529081600082018054610c70906142ed565b80601f0160208091040260200160405190810160405280929190818152602001828054610c9c906142ed565b8015610ce95780601f10610cbe57610100808354040283529160200191610ce9565b820191906000526020600020905b815481529060010190602001808311610ccc57829003601f168201915b50505050508152602001600182018054610d02906142ed565b80601f0160208091040260200160405190810160405280929190818152602001828054610d2e906142ed565b8015610d7b5780601f10610d5057610100808354040283529160200191610d7b565b820191906000526020600020905b815481529060010190602001808311610d5e57829003601f168201915b505050505081526020016002820160009054906101000a900461ffff1661ffff1661ffff168152505081526020016004820160009054906101000a900473ffffffffffffffffffffffffffffffffffffffff1673ffffffffffffffffffffffffffffffffffffffff1673ffffffffffffffffffffffffffffffffffffffff168152602001600582018054610e0e906142ed565b80601f0160208091040260200160405190810160405280929190818152602001828054610e3a906142ed565b8015610e875780601f10610e5c57610100808354040283529160200191610e87565b820191906000526020600020905b815481529060010190602001808311610e6a57829003601f168201915b505050505081525050828281518110610ea357610ea261431e565b5b60200260200101819052508080610eb99061437c565b915050610c0e565b508092505050919050565b610ed461303a565b600080600084815260200190815260200160002090506000604051806040016040528085815260200183604051806101800160405290816000820160009054906101000a900473ffffffffffffffffffffffffffffffffffffffff1673ffffffffffffffffffffffffffffffffffffffff1673ffffffffffffffffffffffffffffffffffffffff168152602001600182018054610f70906142ed565b80601f0160208091040260200160405190810160405280929190818152602001828054610f9c906142ed565b8015610fe95780601f10610fbe57610100808354040283529160200191610fe9565b820191906000526020600020905b815481529060010190602001808311610fcc57829003601f168201915b50505050508152602001600282018054611002906142ed565b80601f016020809104026020016040519081016040528092919081815260200182805461102e906142ed565b801561107b5780601f106110505761010080835404028352916020019161107b565b820191906000526020600020905b81548152906001019060200180831161105e57829003601f168201915b50505050508152602001600382018054611094906142ed565b80601f01602080910402602001604051908101604052809291908181526020018280546110c0906142ed565b801561110d5780601f106110e25761010080835404028352916020019161110d565b820191906000526020600020905b8154815290600101906020018083116110f057829003601f168201915b50505050508152602001600482015481526020016005820154815260200160068201548152602001600782015481526020016008820160009054906101000a900460ff16151515158152602001600982016040518060400160405290816000820160009054906101000a900473ffffffffffffffffffffffffffffffffffffffff1673ffffffffffffffffffffffffffffffffffffffff1673ffffffffffffffffffffffffffffffffffffffff1681526020016000820160149054906101000a900460ff1660ff1660ff16815250508152602001600a82016040518060400160405290816000820160009054906101000a900473ffffffffffffffffffffffffffffffffffffffff1673ffffffffffffffffffffffffffffffffffffffff1673ffffffffffffffffffffffffffffffffffffffff1681526020016000820160149054906101000a900460ff1660ff1660ff16815250508152602001600b82016040518060400160405290816000820160009054906101000a900473ffffffffffffffffffffffffffffffffffffffff1673ffffffffffffffffffffffffffffffffffffffff1673ffffffffffffffffffffffffffffffffffffffff1681526020016000820160149054906101000a900460ff1660ff1660ff16815250508152505081525090508092505050919050565b600080600085815260200190815260200160002090508060080160009054906101000a900460ff1615611365576040517f08c379a000000000000000000000000000000000000000000000000000000000815260040161135c90614410565b60405180910390fd5b428160050154116113ab576040517f08c379a00000000000000000000000000000000000000000000000000000000081526004016113a29061447c565b60405180910390fd5b60006001600086815260200190815260200160002084815481106113d2576113d161431e565b5b9060005260206000209060050201905083816000015414611428576040517f08c379a000000000000000000000000000000000000000000000000000000000815260040161141f906144e8565b60405180910390fd5b60008160040160049054906101000a900463ffffffff1663ffffffff1611611485576040517f08c379a000000000000000000000000000000000000000000000000000000000815260040161147c9061457a565b60405180910390fd5b6000816001016040518060600160405290816000820180546114a6906142ed565b80601f01602080910402602001604051908101604052809291908181526020018280546114d2906142ed565b801561151f5780601f106114f45761010080835404028352916020019161151f565b820191906000526020600020905b81548152906001019060200180831161150257829003601f168201915b50505050508152602001600182018054611538906142ed565b80601f0160208091040260200160405190810160405280929190818152602001828054611564906142ed565b80156115b15780601f10611586576101008083540402835291602001916115b1565b820191906000526020600020905b81548152906001019060200180831161159457829003601f168201915b505050505081526020016002820160009054906101000a900461ffff1661ffff1661ffff168152505090506000349050816040015161ffff1681101561162c576040517f08c379a0000000000000000000000000000000000000000000000000000000008152600401611623906145e6565b60405180910390fd5b61163887338488612edc565b60018360040160048282829054906101000a900463ffffffff1661165c9190614606565b92506101000a81548163ffffffff021916908363ffffffff160217905550600184600701600082825461168f919061463a565b92505081905550808460040160008282546116aa919061463a565b9250508190555083600601548460070154036116de5760018460080160006101000a81548160ff0219169083151502179055505b50505050505050565b60606000806000848152602001908152602001600020905080600101805461170e906142ed565b80601f016020809104026020016040519081016040528092919081815260200182805461173a906142ed565b80156117875780601f1061175c57610100808354040283529160200191611787565b820191906000526020600020905b81548152906001019060200180831161176a57829003601f168201915b5050505050915050919050565b6060600060035467ffffffffffffffff8111156117b4576117b3613aec565b5b6040519080825280602002602001820160405280156117ed57816020015b6117da61303a565b8152602001906001900390816117d25790505b50905060005b600354811015611c5057600080600083815260200190815260200160002090506000604051806040016040528084815260200183604051806101800160405290816000820160009054906101000a900473ffffffffffffffffffffffffffffffffffffffff1673ffffffffffffffffffffffffffffffffffffffff1673ffffffffffffffffffffffffffffffffffffffff168152602001600182018054611899906142ed565b80601f01602080910402602001604051908101604052809291908181526020018280546118c5906142ed565b80156119125780601f106118e757610100808354040283529160200191611912565b820191906000526020600020905b8154815290600101906020018083116118f557829003601f168201915b5050505050815260200160028201805461192b906142ed565b80601f0160208091040260200160405190810160405280929190818152602001828054611957906142ed565b80156119a45780601f10611979576101008083540402835291602001916119a4565b820191906000526020600020905b81548152906001019060200180831161198757829003601f168201915b505050505081526020016003820180546119bd906142ed565b80601f01602080910402602001604051908101604052809291908181526020018280546119e9906142ed565b8015611a365780601f10611a0b57610100808354040283529160200191611a36565b820191906000526020600020905b815481529060010190602001808311611a1957829003601f168201915b50505050508152602001600482015481526020016005820154815260200160068201548152602001600782015481526020016008820160009054906101000a900460ff16151515158152602001600982016040518060400160405290816000820160009054906101000a900473ffffffffffffffffffffffffffffffffffffffff1673ffffffffffffffffffffffffffffffffffffffff1673ffffffffffffffffffffffffffffffffffffffff1681526020016000820160149054906101000a900460ff1660ff1660ff16815250508152602001600a82016040518060400160405290816000820160009054906101000a900473ffffffffffffffffffffffffffffffffffffffff1673ffffffffffffffffffffffffffffffffffffffff1673ffffffffffffffffffffffffffffffffffffffff1681526020016000820160149054906101000a900460ff1660ff1660ff16815250508152602001600b82016040518060400160405290816000820160009054906101000a900473ffffffffffffffffffffffffffffffffffffffff1673ffffffffffffffffffffffffffffffffffffffff1673ffffffffffffffffffffffffffffffffffffffff1681526020016000820160149054906101000a900460ff1660ff1660ff168152505081525050815250905080848481518110611c3057611c2f61431e565b5b602002602001018190525050508080611c489061437c565b9150506117f3565b508091505090565b60026020528160005260406000206020528060005260406000206000915091505080600001549080600101604051806060016040529081600082018054611c9e906142ed565b80601f0160208091040260200160405190810160405280929190818152602001828054611cca906142ed565b8015611d175780601f10611cec57610100808354040283529160200191611d17565b820191906000526020600020905b815481529060010190602001808311611cfa57829003601f168201915b50505050508152602001600182018054611d30906142ed565b80601f0160208091040260200160405190810160405280929190818152602001828054611d5c906142ed565b8015611da95780601f10611d7e57610100808354040283529160200191611da9565b820191906000526020600020905b815481529060010190602001808311611d8c57829003601f168201915b505050505081526020016002820160009054906101000a900461ffff1661ffff1661ffff1681525050908060040160009054906101000a900473ffffffffffffffffffffffffffffffffffffffff1690806005018054611e08906142ed565b80601f0160208091040260200160405190810160405280929190818152602001828054611e34906142ed565b8015611e815780601f10611e5657610100808354040283529160200191611e81565b820191906000526020600020905b815481529060010190602001808311611e6457829003601f168201915b5050505050905084565b6060600060035467ffffffffffffffff811115611eab57611eaa613aec565b5b604051908082528060200260200182016040528015611ee457816020015b611ed161303a565b815260200190600190039081611ec95790505b50905060005b60035481101561235e57600080600083815260200190815260200160002090508060080160009054906101000a900460ff1661234a576000604051806040016040528084815260200183604051806101800160405290816000820160009054906101000a900473ffffffffffffffffffffffffffffffffffffffff1673ffffffffffffffffffffffffffffffffffffffff1673ffffffffffffffffffffffffffffffffffffffff168152602001600182018054611fa6906142ed565b80601f0160208091040260200160405190810160405280929190818152602001828054611fd2906142ed565b801561201f5780601f10611ff45761010080835404028352916020019161201f565b820191906000526020600020905b81548152906001019060200180831161200257829003601f168201915b50505050508152602001600282018054612038906142ed565b80601f0160208091040260200160405190810160405280929190818152602001828054612064906142ed565b80156120b15780601f10612086576101008083540402835291602001916120b1565b820191906000526020600020905b81548152906001019060200180831161209457829003601f168201915b505050505081526020016003820180546120ca906142ed565b80601f01602080910402602001604051908101604052809291908181526020018280546120f6906142ed565b80156121435780601f1061211857610100808354040283529160200191612143565b820191906000526020600020905b81548152906001019060200180831161212657829003601f168201915b50505050508152602001600482015481526020016005820154815260200160068201548152602001600782015481526020016008820160009054906101000a900460ff16151515158152602001600982016040518060400160405290816000820160009054906101000a900473ffffffffffffffffffffffffffffffffffffffff1673ffffffffffffffffffffffffffffffffffffffff1673ffffffffffffffffffffffffffffffffffffffff1681526020016000820160149054906101000a900460ff1660ff1660ff16815250508152602001600a82016040518060400160405290816000820160009054906101000a900473ffffffffffffffffffffffffffffffffffffffff1673ffffffffffffffffffffffffffffffffffffffff1673ffffffffffffffffffffffffffffffffffffffff1681526020016000820160149054906101000a900460ff1660ff1660ff16815250508152602001600b82016040518060400160405290816000820160009054906101000a900473ffffffffffffffffffffffffffffffffffffffff1673ffffffffffffffffffffffffffffffffffffffff1673ffffffffffffffffffffffffffffffffffffffff1681526020016000820160149054906101000a900460ff1660ff1660ff16815250508152505081525090508084848151811061233d5761233c61431e565b5b6020026020010181905250505b5080806123569061437c565b915050611eea565b508091505090565b600080600083815260200190815260200160002090508060080160009054906101000a900460ff166123cd576040517f08c379a00000000000000000000000000000000000000000000000000000000081526004016123c4906146dc565b60405180910390fd5b8060060154816007015414612417576040517f08c379a000000000000000000000000000000000000000000000000000000000815260040161240e90614748565b60405180910390fd5b60008160090160000160149054906101000a900460ff1660ff1682600401546124409190614768565b905060008260090160000160149054906101000a900460ff1660ff16836004015461246b9190614768565b905060008360090160000160149054906101000a900460ff1660ff1684600401546124969190614768565b90508360090160000160009054906101000a900473ffffffffffffffffffffffffffffffffffffffff1673ffffffffffffffffffffffffffffffffffffffff166108fc849081150290604051600060405180830381858888f19350505050158015612505573d6000803e3d6000fd5b5083600a0160000160009054906101000a900473ffffffffffffffffffffffffffffffffffffffff1673ffffffffffffffffffffffffffffffffffffffff166108fc839081150290604051600060405180830381858888f19350505050158015612573573d6000803e3d6000fd5b5083600b0160000160009054906101000a900473ffffffffffffffffffffffffffffffffffffffff1673ffffffffffffffffffffffffffffffffffffffff166108fc829081150290604051600060405180830381858888f193505050501580156125e1573d6000803e3d6000fd5b505050505050565b6000600354905090565b60008060008084815260200190815260200160002090508060080160009054906101000a900460ff161561265c576040517f08c379a00000000000000000000000000000000000000000000000000000000081526004016126539061480e565b60405180910390fd5b428160050154116126a2576040517f08c379a00000000000000000000000000000000000000000000000000000000081526004016126999061447c565b60405180910390fd5b8060000160009054906101000a900473ffffffffffffffffffffffffffffffffffffffff1673ffffffffffffffffffffffffffffffffffffffff163373ffffffffffffffffffffffffffffffffffffffff1614612734576040517f08c379a000000000000000000000000000000000000000000000000000000000815260040161272b906148a0565b60405180910390fd5b60018160080160006101000a81548160ff0219169083151502179055506001915050919050565b600062375f008663ffffffff1611156127a9576040517f08c379a00000000000000000000000000000000000000000000000000000000081526004016127a090614932565b60405180910390fd5b600042905060008763ffffffff16826127c2919061463a565b9050818111612806576040517f08c379a00000000000000000000000000000000000000000000000000000000081526004016127fd9061499e565b60405180910390fd5b6000876020015160ff1611801561282557506064876020015160ff1611155b612864576040517f08c379a000000000000000000000000000000000000000000000000000000000815260040161285b90614a56565b60405180910390fd5b6000866020015160ff1611801561288357506064866020015160ff1611155b6128c2576040517f08c379a00000000000000000000000000000000000000000000000000000000081526004016128b990614b0e565b60405180910390fd5b6000856020015160ff161180156128e157506064856020015160ff1611155b612920576040517f08c379a000000000000000000000000000000000000000000000000000000000815260040161291790614bc6565b60405180910390fd5b600085602001518760200151896020015161293b9190614be6565b6129459190614be6565b905060648160ff161461298d576040517f08c379a000000000000000000000000000000000000000000000000000000000815260040161298490614c8f565b60405180910390fd5b6000805b8651811015612add5760008782815181106129af576129ae61431e565b5b602002602001015190506000816040015163ffffffff1611612a06576040517f08c379a00000000000000000000000000000000000000000000000000000000081526004016129fd90614d21565b60405180910390fd5b806060015163ffffffff16816040015163ffffffff1614612a5c576040517f08c379a0000000000000000000000000000000000000000000000000000000008152600401612a5390614db3565b60405180910390fd5b806040015163ffffffff1683612a72919061463a565b92506000816020015190506000816040015161ffff1611612ac8576040517f08c379a0000000000000000000000000000000000000000000000000000000008152600401612abf90614e45565b60405180910390fd5b50508080612ad59061437c565b915050612991565b5060008111612b21576040517f08c379a0000000000000000000000000000000000000000000000000000000008152600401612b1890614eb1565b60405180910390fd5b6000806000600354815260200190815260200160002090508e8160000160006101000a81548173ffffffffffffffffffffffffffffffffffffffff021916908373ffffffffffffffffffffffffffffffffffffffff1602179055508d816001019080519060200190612b9492919061305a565b508c816002019080519060200190612bad92919061305a565b508b816003019080519060200190612bc692919061305a565b506000816004018190555083816005018190555060008160080160006101000a81548160ff02191690831515021790555081816006018190555060008160070181905550898160090160008201518160000160006101000a81548173ffffffffffffffffffffffffffffffffffffffff021916908373ffffffffffffffffffffffffffffffffffffffff16021790555060208201518160000160146101000a81548160ff021916908360ff1602179055509050508881600a0160008201518160000160006101000a81548173ffffffffffffffffffffffffffffffffffffffff021916908373ffffffffffffffffffffffffffffffffffffffff16021790555060208201518160000160146101000a81548160ff021916908360ff1602179055509050508781600b0160008201518160000160006101000a81548173ffffffffffffffffffffffffffffffffffffffff021916908373ffffffffffffffffffffffffffffffffffffffff16021790555060208201518160000160146101000a81548160ff021916908360ff1602179055509050506000600160006003548152602001908152602001600020905060005b8851811015612e9f576000898281518110612d9457612d9361431e565b5b6020026020010151905082819080600181540180825580915050600190039060005260206000209060050201600090919091909150600082015181600001556020820151816001016000820151816000019080519060200190612df892919061305a565b506020820151816001019080519060200190612e1592919061305a565b5060408201518160020160006101000a81548161ffff021916908361ffff160217905550505060408201518160040160006101000a81548163ffffffff021916908363ffffffff16021790555060608201518160040160046101000a81548163ffffffff021916908363ffffffff1602179055505050508080612e979061437c565b915050612d76565b5060036000815480929190612eb39061437c565b91905055506001600354612ec79190614ed1565b96505050505050509998505050505050505050565b6000806000868152602001908152602001600020905060008160070154905060006002600088815260200190815260200160002060008381526020019081526020016000209050818160000181905550858160040160006101000a81548173ffffffffffffffffffffffffffffffffffffffff021916908373ffffffffffffffffffffffffffffffffffffffff16021790555084816001016000820151816000019080519060200190612f9092919061305a565b506020820151816001019080519060200190612fad92919061305a565b5060408201518160020160006101000a81548161ffff021916908361ffff16021790555090505083816005019080519060200190612fec92919061305a565b5050505050505050565b6040518060800160405280600081526020016130106130e0565b8152602001600073ffffffffffffffffffffffffffffffffffffffff168152602001606081525090565b604051806040016040528060008152602001613054613105565b81525090565b828054613066906142ed565b90600052602060002090601f01602090048101928261308857600085556130cf565b82601f106130a157805160ff19168380011785556130cf565b828001600101855582156130cf579182015b828111156130ce5782518255916020019190600101906130b3565b5b5090506130dc9190613190565b5090565b60405180606001604052806060815260200160608152602001600061ffff1681525090565b604051806101800160405280600073ffffffffffffffffffffffffffffffffffffffff168152602001606081526020016060815260200160608152602001600081526020016000815260200160008152602001600081526020016000151581526020016131706131ad565b815260200161317d6131ad565b815260200161318a6131ad565b81525090565b5b808211156131a9576000816000905550600101613191565b5090565b6040518060400160405280600073ffffffffffffffffffffffffffffffffffffffff168152602001600060ff1681525090565b6000819050919050565b6131f3816131e0565b82525050565b600060208201905061320e60008301846131ea565b92915050565b6000604051905090565b600080fd5b600080fd5b613231816131e0565b811461323c57600080fd5b50565b60008135905061324e81613228565b92915050565b6000806040838503121561326b5761326a61321e565b5b60006132798582860161323f565b925050602061328a8582860161323f565b9150509250929050565b600081519050919050565b600082825260208201905092915050565b60005b838110156132ce5780820151818401526020810190506132b3565b838111156132dd576000848401525b50505050565b6000601f19601f8301169050919050565b60006132ff82613294565b613309818561329f565b93506133198185602086016132b0565b613322816132e3565b840191505092915050565b600061ffff82169050919050565b6133448161332d565b82525050565b6000606083016000830151848203600086015261336782826132f4565b9150506020830151848203602086015261338182826132f4565b9150506040830151613396604086018261333b565b508091505092915050565b600063ffffffff82169050919050565b6133ba816133a1565b82525050565b60006080820190506133d560008301876131ea565b81810360208301526133e7818661334a565b90506133f660408301856133b1565b61340360608301846133b1565b95945050505050565b6000602082840312156134225761342161321e565b5b60006134308482850161323f565b91505092915050565b600073ffffffffffffffffffffffffffffffffffffffff82169050919050565b600061346482613439565b9050919050565b61347481613459565b82525050565b600082825260208201905092915050565b600061349682613294565b6134a0818561347a565b93506134b08185602086016132b0565b6134b9816132e3565b840191505092915050565b60008115159050919050565b6134d9816134c4565b82525050565b60006134ea82613439565b9050919050565b6134fa816134df565b82525050565b600060ff82169050919050565b61351681613500565b82525050565b60408201600082015161353260008501826134f1565b506020820151613545602085018261350d565b50505050565b60006101e082019050613561600083018f61346b565b8181036020830152613573818e61348b565b90508181036040830152613587818d61348b565b9050818103606083015261359b818c61348b565b90506135aa608083018b6131ea565b6135b760a083018a6131ea565b6135c460c08301896131ea565b6135d160e08301886131ea565b6135df6101008301876134d0565b6135ed61012083018661351c565b6135fb61016083018561351c565b6136096101a083018461351c565b9d9c50505050505050505050505050565b600081519050919050565b600082825260208201905092915050565b6000819050602082019050919050565b61364f816131e0565b82525050565b6000606083016000830151848203600086015261367282826132f4565b9150506020830151848203602086015261368c82826132f4565b91505060408301516136a1604086018261333b565b508091505092915050565b6136b5816133a1565b82525050565b60006080830160008301516136d36000860182613646565b50602083015184820360208601526136eb8282613655565b915050604083015161370060408601826136ac565b50606083015161371360608601826136ac565b508091505092915050565b600061372a83836136bb565b905092915050565b6000602082019050919050565b600061374a8261361a565b6137548185613625565b93508360208202850161376685613636565b8060005b858110156137a25784840389528151613783858261371e565b945061378e83613732565b925060208a0199505060018101905061376a565b50829750879550505050505092915050565b600060208201905081810360008301526137ce818461373f565b905092915050565b600081519050919050565b600082825260208201905092915050565b6000819050602082019050919050565b61380b81613459565b82525050565b60006080830160008301516138296000860182613646565b50602083015184820360208601526138418282613655565b91505060408301516138566040860182613802565b506060830151848203606086015261386e82826132f4565b9150508091505092915050565b60006138878383613811565b905092915050565b6000602082019050919050565b60006138a7826137d6565b6138b181856137e1565b9350836020820285016138c3856137f2565b8060005b858110156138ff57848403895281516138e0858261387b565b94506138eb8361388f565b925060208a019950506001810190506138c7565b50829750879550505050505092915050565b6000602082019050818103600083015261392b818461389c565b905092915050565b61393c816134c4565b82525050565b60408201600082015161395860008501826134f1565b50602082015161396b602085018261350d565b50505050565b60006101e08301600083015161398a6000860182613802565b50602083015184820360208601526139a282826132f4565b915050604083015184820360408601526139bc82826132f4565b915050606083015184820360608601526139d682826132f4565b91505060808301516139eb6080860182613646565b5060a08301516139fe60a0860182613646565b5060c0830151613a1160c0860182613646565b5060e0830151613a2460e0860182613646565b50610100830151613a39610100860182613933565b50610120830151613a4e610120860182613942565b50610140830151613a63610160860182613942565b50610160830151613a786101a0860182613942565b508091505092915050565b6000604083016000830151613a9b6000860182613646565b5060208301518482036020860152613ab38282613971565b9150508091505092915050565b60006020820190508181036000830152613ada8184613a83565b905092915050565b600080fd5b600080fd5b7f4e487b7100000000000000000000000000000000000000000000000000000000600052604160045260246000fd5b613b24826132e3565b810181811067ffffffffffffffff82111715613b4357613b42613aec565b5b80604052505050565b6000613b56613214565b9050613b628282613b1b565b919050565b600067ffffffffffffffff821115613b8257613b81613aec565b5b613b8b826132e3565b9050602081019050919050565b82818337600083830152505050565b6000613bba613bb584613b67565b613b4c565b905082815260208101848484011115613bd657613bd5613ae7565b5b613be1848285613b98565b509392505050565b600082601f830112613bfe57613bfd613ae2565b5b8135613c0e848260208601613ba7565b91505092915050565b600080600060608486031215613c3057613c2f61321e565b5b6000613c3e8682870161323f565b9350506020613c4f8682870161323f565b925050604084013567ffffffffffffffff811115613c7057613c6f613223565b5b613c7c86828701613be9565b9150509250925092565b60006020820190508181036000830152613ca0818461348b565b905092915050565b600081519050919050565b600082825260208201905092915050565b6000819050602082019050919050565b6000604083016000830151613cec6000860182613646565b5060208301518482036020860152613d048282613971565b9150508091505092915050565b6000613d1d8383613cd4565b905092915050565b6000602082019050919050565b6000613d3d82613ca8565b613d478185613cb3565b935083602082028501613d5985613cc4565b8060005b85811015613d955784840389528151613d768582613d11565b9450613d8183613d25565b925060208a01995050600181019050613d5d565b50829750879550505050505092915050565b60006020820190508181036000830152613dc18184613d32565b905092915050565b6000608082019050613dde60008301876131ea565b8181036020830152613df0818661334a565b9050613dff604083018561346b565b8181036060830152613e11818461348b565b905095945050505050565b6000602082019050613e3160008301846134d0565b92915050565b613e4081613459565b8114613e4b57600080fd5b50565b600081359050613e5d81613e37565b92915050565b613e6c816133a1565b8114613e7757600080fd5b50565b600081359050613e8981613e63565b92915050565b600080fd5b600080fd5b613ea2816134df565b8114613ead57600080fd5b50565b600081359050613ebf81613e99565b92915050565b613ece81613500565b8114613ed957600080fd5b50565b600081359050613eeb81613ec5565b92915050565b600060408284031215613f0757613f06613e8f565b5b613f116040613b4c565b90506000613f2184828501613eb0565b6000830152506020613f3584828501613edc565b60208301525092915050565b600067ffffffffffffffff821115613f5c57613f5b613aec565b5b602082029050602081019050919050565b600080fd5b613f7b8161332d565b8114613f8657600080fd5b50565b600081359050613f9881613f72565b92915050565b600060608284031215613fb457613fb3613e8f565b5b613fbe6060613b4c565b9050600082013567ffffffffffffffff811115613fde57613fdd613e94565b5b613fea84828501613be9565b600083015250602082013567ffffffffffffffff81111561400e5761400d613e94565b5b61401a84828501613be9565b602083015250604061402e84828501613f89565b60408301525092915050565b6000608082840312156140505761404f613e8f565b5b61405a6080613b4c565b9050600061406a8482850161323f565b600083015250602082013567ffffffffffffffff81111561408e5761408d613e94565b5b61409a84828501613f9e565b60208301525060406140ae84828501613e7a565b60408301525060606140c284828501613e7a565b60608301525092915050565b60006140e16140dc84613f41565b613b4c565b9050808382526020820190506020840283018581111561410457614103613f6d565b5b835b8181101561414b57803567ffffffffffffffff81111561412957614128613ae2565b5b808601614136898261403a565b85526020850194505050602081019050614106565b5050509392505050565b600082601f83011261416a57614169613ae2565b5b813561417a8482602086016140ce565b91505092915050565b60008060008060008060008060006101808a8c0312156141a6576141a561321e565b5b60006141b48c828d01613e4e565b99505060208a013567ffffffffffffffff8111156141d5576141d4613223565b5b6141e18c828d01613be9565b98505060408a013567ffffffffffffffff81111561420257614201613223565b5b61420e8c828d01613be9565b97505060608a013567ffffffffffffffff81111561422f5761422e613223565b5b61423b8c828d01613be9565b965050608061424c8c828d01613e7a565b95505060a061425d8c828d01613ef1565b94505060e061426e8c828d01613ef1565b9350506101206142808c828d01613ef1565b9250506101608a013567ffffffffffffffff8111156142a2576142a1613223565b5b6142ae8c828d01614155565b9150509295985092959850929598565b7f4e487b7100000000000000000000000000000000000000000000000000000000600052602260045260246000fd5b6000600282049050600182168061430557607f821691505b602082108103614318576143176142be565b5b50919050565b7f4e487b7100000000000000000000000000000000000000000000000000000000600052603260045260246000fd5b7f4e487b7100000000000000000000000000000000000000000000000000000000600052601160045260246000fd5b6000614387826131e0565b91507fffffffffffffffffffffffffffffffffffffffffffffffffffffffffffffffff82036143b9576143b861434d565b5b600182019050919050565b7f546869732063616d706169676e206861732073746f7070656400000000000000600082015250565b60006143fa60198361347a565b9150614405826143c4565b602082019050919050565b60006020820190508181036000830152614429816143ed565b9050919050565b7f546869732063616d706169676e206973206f7665720000000000000000000000600082015250565b600061446660158361347a565b915061447182614430565b602082019050919050565b6000602082019050818103600083015261449581614459565b9050919050565b7f54686520626f7820494420697320696e76616c69640000000000000000000000600082015250565b60006144d260158361347a565b91506144dd8261449c565b602082019050919050565b60006020820190508181036000830152614501816144c5565b9050919050565b7f416c6c20626f786573206f66207468697320747970652068617665206265656e60008201527f20736f6c64000000000000000000000000000000000000000000000000000000602082015250565b600061456460258361347a565b915061456f82614508565b604082019050919050565b6000602082019050818103600083015261459381614557565b9050919050565b7f476976656e20616d6f756e742069732062656c6f7720626f7820707269636500600082015250565b60006145d0601f8361347a565b91506145db8261459a565b602082019050919050565b600060208201905081810360008301526145ff816145c3565b9050919050565b6000614611826133a1565b915061461c836133a1565b92508282101561462f5761462e61434d565b5b828203905092915050565b6000614645826131e0565b9150614650836131e0565b9250827fffffffffffffffffffffffffffffffffffffffffffffffffffffffffffffffff038211156146855761468461434d565b5b828201905092915050565b7f5468652063616d706169676e206d7573742062652066696e6973686564000000600082015250565b60006146c6601d8361347a565b91506146d182614690565b602082019050919050565b600060208201905081810360008301526146f5816146b9565b9050919050565b7f54686572652063616e277420626520616e7920626f786573206c656674000000600082015250565b6000614732601d8361347a565b915061473d826146fc565b602082019050919050565b6000602082019050818103600083015261476181614725565b9050919050565b6000614773826131e0565b915061477e836131e0565b9250817fffffffffffffffffffffffffffffffffffffffffffffffffffffffffffffffff04831182151516156147b7576147b661434d565b5b828202905092915050565b7f43616d706169676e20616c72656164792073746f707065640000000000000000600082015250565b60006147f860188361347a565b9150614803826147c2565b602082019050919050565b60006020820190508181036000830152614827816147eb565b9050919050565b7f4f6e6c7920746865206f776e65722063616e2073746f7020612063616d70616960008201527f676e000000000000000000000000000000000000000000000000000000000000602082015250565b600061488a60228361347a565b91506148958261482e565b604082019050919050565b600060208201905081810360008301526148b98161487d565b9050919050565b7f4475726174696f6e2063616e277420626520686967686572207468616e20362060008201527f7765656b73000000000000000000000000000000000000000000000000000000602082015250565b600061491c60258361347a565b9150614927826148c0565b604082019050919050565b6000602082019050818103600083015261494b8161490f565b9050919050565b7f446561646c696e65206d75737420626520696e20746865206675747572650000600082015250565b6000614988601e8361347a565b915061499382614952565b602082019050919050565b600060208201905081810360008301526149b78161497b565b9050919050565b7f4661726d6572207368617265206d75737420626520686967686572207468616e60008201527f20302520616e642063616e277420626520686967686572207468616e2031303060208201527f2500000000000000000000000000000000000000000000000000000000000000604082015250565b6000614a4060418361347a565b9150614a4b826149be565b606082019050919050565b60006020820190508181036000830152614a6f81614a33565b9050919050565b7f42757463686572207368617265206d757374206265206869676865722074686160008201527f6e20302520616e642063616e277420626520686967686572207468616e20313060208201527f3025000000000000000000000000000000000000000000000000000000000000604082015250565b6000614af860428361347a565b9150614b0382614a76565b606082019050919050565b60006020820190508181036000830152614b2781614aeb565b9050919050565b7f44656c69766572792053657276696365207368617265206d757374206265206860008201527f6967686572207468616e20302520616e642063616e277420626520686967686560208201527f72207468616e2031303025000000000000000000000000000000000000000000604082015250565b6000614bb0604b8361347a565b9150614bbb82614b2e565b606082019050919050565b60006020820190508181036000830152614bdf81614ba3565b9050919050565b6000614bf182613500565b9150614bfc83613500565b92508260ff03821115614c1257614c1161434d565b5b828201905092915050565b7f54686520746f74616c207368617265206f6620616c6c207374616b65686f6c6460008201527f657273206d75737420626520657175616c20746f203130302500000000000000602082015250565b6000614c7960398361347a565b9150614c8482614c1d565b604082019050919050565b60006020820190508181036000830152614ca881614c6c565b9050919050565b7f5468657265206d757374206265206174206c65617374206f6e6520626f78207460008201527f6f2073656c6c0000000000000000000000000000000000000000000000000000602082015250565b6000614d0b60268361347a565b9150614d1682614caf565b604082019050919050565b60006020820190508181036000830152614d3a81614cfe565b9050919050565b7f496e697469616c6c7920746f74616c206e756d626572206f6620626f7865732060008201527f616e6420617661696c61626c65206d75737420626520657175616c0000000000602082015250565b6000614d9d603b8361347a565b9150614da882614d41565b604082019050919050565b60006020820190508181036000830152614dcc81614d90565b9050919050565b7f4120626f7820726571756972657320612070726963652068696768657220746860008201527f616e203000000000000000000000000000000000000000000000000000000000602082015250565b6000614e2f60248361347a565b9150614e3a82614dd3565b604082019050919050565b60006020820190508181036000830152614e5e81614e22565b9050919050565b7f4174206c65617374206f6e6520626f7820697320726571756972656400000000600082015250565b6000614e9b601c8361347a565b9150614ea682614e65565b602082019050919050565b60006020820190508181036000830152614eca81614e8e565b9050919050565b6000614edc826131e0565b9150614ee7836131e0565b925082821015614efa57614ef961434d565b5b82820390509291505056fea26469706673582212201a93f37649392b87e5b8c2c09845f13738ce8190f6651a2faa1927dbb2ceb68864736f6c634300080d0033",
  "immutableReferences": {},
  "source": "// SPDX-License-Identifier: AGPL\npragma solidity ^0.8.13;\n\ncontract Crowdfunding {\n\n    struct Box {\n        /// Title of a box\n        string title;\n        /// Description of a box\n        string description;\n        /// The price of this box in wei\n        uint16 price;\n    }\n\n    struct BoxOffer {\n        /// Id of the Offer\n        uint256 id;\n        /// The box to sell\n        Box box;\n        /// Total number of boxes\n        uint32 total;\n        /// Number of available boxes\n        uint32 available;\n    }\n\n    struct BoxSellRef {\n      /// The id of the specific sell\n      uint256 id;\n      /// The box\n      Box box;\n      /// Address of the owner\n      address owner;\n      /// Physical address of the box owner\n      string physAddress;\n    }\n\n    struct Stakeholder {\n      /// Address of the stakeholder\n      address payable owner;\n      /// Share in %\n      uint8 share;\n    }\n\n    struct Campaign {\n        /// Owner of this campaign\n        address owner;\n        /// Owners public key\n        string ownerPublicKey;\n        /// The campaigns title\n        string title;\n        /// The campaigns description\n        string description;\n        /// Total amount collected in eth\n        uint256 collectedAmount;\n        /// The deadline of this campaign\n        uint256 deadline;\n        /// Total number of boxes\n        uint256 totalBoxes;\n        /// Number of sold boxes\n        uint256 boxesSold;\n        /// Is it already stopped\n        bool isStopped;\n        /// Responsible farmer\n        Stakeholder farmer;\n        /// Resonsible butcher\n        Stakeholder butcher;\n        /// Responsible delivery service\n        Stakeholder delivery;\n    }\n\n    struct CampaignRef {\n      /// Campaign id\n      uint256 id;\n      /// reference to the campaign\n      Campaign campaign;\n    }\n\n    // all campaigns\n    mapping(uint256 => Campaign) public campaigns;\n    // available boxes for specific campaigns\n    mapping(uint256 => BoxOffer[]) public boxOffers;\n    // sold boxes for specific campaigns (campginId => sellId => BoxSellRef)\n    mapping(uint256 => mapping(uint256 => BoxSellRef)) public soldBoxesCampaign;\n    // sold boxes for specific addresses\n    //mapping(address => mapping(uint => BoxSellRef[])) public soldBoxesAddress;\n\n    uint256 public numberOfCampaigns = 0;\n\n    /**\n     * Adds a buyer\n     */\n    function addBuyer(uint256 _campaignId, address _buyer, Box memory _box, string memory _physAddress) private {\n      Campaign storage campaign = campaigns[_campaignId];\n      // Make sure boxesSold has not been increased yet\n      uint256 boxId = campaign.boxesSold;\n\n      BoxSellRef storage soldBox = soldBoxesCampaign[_campaignId][boxId];\n      soldBox.id = boxId;\n      soldBox.owner = _buyer;\n      soldBox.box = _box;\n      soldBox.physAddress = _physAddress;\n    }\n\n    /**\n     * Creates a new campaign\n     */\n    function createCampaign(\n        address _owner,\n        string memory _ownerPublicKey,\n        string memory _title,\n        string memory _description,\n        uint32 _duration,\n        Stakeholder memory _farmer,\n        Stakeholder memory _butcher,\n        Stakeholder memory _delivery,\n        BoxOffer[] memory _boxes\n    ) public returns (uint256) {\n        // check crowdfunding duration\n        require(_duration <= 6 weeks, \"Duration can't be higher than 6 weeks\");\n\n        // create deadline by adding the duration to the current timestamp\n        uint256 current = block.timestamp;\n        uint256 deadline = current + _duration;\n\n        // deadline can't be in the past\n        require(\n            deadline > current,\n            \"Deadline must be in the future\"\n        );\n\n        // validate stakeholders\n        require(_farmer.share > 0 && _farmer.share <= 100, \"Farmer share must be higher than 0% and can't be higher than 100%\");\n        require(_butcher.share > 0 && _butcher.share <= 100, \"Butcher share must be higher than 0% and can't be higher than 100%\");\n        require(_delivery.share > 0 && _delivery.share <= 100, \"Delivery Service share must be higher than 0% and can't be higher than 100%\");\n        uint8 totalShare = _farmer.share + _butcher.share + _delivery.share;\n        require(totalShare == 100, \"The total share of all stakeholders must be equal to 100%\");\n\n        // validate boxes\n        uint256 numberOfBoxes = 0;\n        for (uint256 index = 0; index < _boxes.length; index++) {\n            BoxOffer memory offer = _boxes[index];\n            require(offer.total > 0, \"There must be at least one box to sell\");\n            require(offer.total == offer.available, \"Initially total number of boxes and available must be equal\");\n            numberOfBoxes += offer.total;\n\n            Box memory box = offer.box;\n            // A box requires a price\n            require(\n                box.price > 0,\n                \"A box requires a price higher than 0\"\n            );\n        }\n\n        require(numberOfBoxes > 0, \"At least one box is required\");\n\n        // Create campaign\n        Campaign storage campaign = campaigns[numberOfCampaigns];\n        campaign.owner = _owner;\n        campaign.ownerPublicKey = _ownerPublicKey;\n        campaign.title = _title;\n        campaign.description = _description;\n        campaign.collectedAmount = 0;\n        campaign.deadline = deadline;\n        campaign.isStopped = false;\n        campaign.totalBoxes = numberOfBoxes;\n        campaign.boxesSold = 0;\n        campaign.farmer = _farmer;\n        campaign.butcher = _butcher;\n        campaign.delivery = _delivery;\n\n        // add boxes\n        BoxOffer[] storage _offers = boxOffers[numberOfCampaigns];\n        for (uint256 index = 0; index < _boxes.length; index++) {\n            BoxOffer memory offer = _boxes[index];\n            _offers.push(offer);\n        }\n\n        // increase total num of campaigns\n        numberOfCampaigns++;\n\n        // return the most recent campaign index\n        return numberOfCampaigns - 1;\n    }\n\n    /**\n    * Returns the total number of campaigns\n    */\n    function getNumberOfCampaigns() public view returns (uint256) {\n      return numberOfCampaigns;\n    }\n\n    /**\n     * Returns the public key of a campaign\n     */\n    function getPublicKey(uint256 _campaignId) public view returns (string memory) {\n      Campaign storage campaign = campaigns[_campaignId];\n      return campaign.ownerPublicKey;\n    }\n\n    /**\n     * Removes a campaign\n     */\n    function stopCampaign(uint256 _campaignId) public returns (bool) {\n      Campaign storage campaign = campaigns[_campaignId];\n      require(!campaign.isStopped, \"Campaign already stopped\");\n      require(campaign.deadline > block.timestamp, \"This campaign is over\");\n      require(msg.sender == campaign.owner, \"Only the owner can stop a campaign\");\n\n      campaign.isStopped = true;\n\n      return true;\n    }\n\n    /**\n     * Buys a box\n     */\n    function buyBox(uint256 _campaignId, uint256 _boxId, string memory _physAddress) public payable {\n        // get campaign ref\n        Campaign storage campaign = campaigns[_campaignId];\n\n        // check if this is an ongoing campaign\n        require(!campaign.isStopped, \"This campaign has stopped\");\n        require(campaign.deadline > block.timestamp, \"This campaign is over\");\n\n        // check if this campaign still has available boxes for the requested kind\n        BoxOffer storage boxOffer = boxOffers[_campaignId][_boxId];\n        require(boxOffer.id == _boxId, \"The box ID is invalid\");\n        require(boxOffer.available > 0, \"All boxes of this type have been sold\");\n\n        // check if the offer is valid\n        Box memory box = boxOffer.box;\n        uint256 amount = msg.value;\n        require(amount >= box.price, \"Given amount is below box price\");\n\n        // Add buyer\n        addBuyer(_campaignId, msg.sender, box, _physAddress);\n\n        // Updates available boxes by one\n        boxOffer.available-=1;\n        campaign.boxesSold+=1;\n        // Add to total collected amount\n        campaign.collectedAmount+=amount;\n\n        if (campaign.boxesSold == campaign.totalBoxes) {\n          // Mark campaign as stopped\n          campaign.isStopped = true;\n          // TODO Start Supply Chain\n        }\n    }\n\n    /**\n     * Returns a specific campaign\n     */\n    function getCampaign(uint256 _campaignId) public view returns (CampaignRef memory) {\n        Campaign storage campaign = campaigns[_campaignId];\n        CampaignRef memory ref = CampaignRef({ id: _campaignId, campaign: campaign });\n        return ref;\n    }\n\n    /**\n     * Returns all campaigns\n     */\n    function getCampaigns() public view returns (CampaignRef[] memory) {\n        CampaignRef[] memory allCampaigns = new CampaignRef[](numberOfCampaigns);\n\n        for (uint256 index = 0; index < numberOfCampaigns; index++) {\n            Campaign storage campaign = campaigns[index];\n            CampaignRef memory ref = CampaignRef({ id: index, campaign: campaign });\n            allCampaigns[index] = ref;\n        }\n\n        return allCampaigns;\n    }\n\n    /**\n     * Returns all ongoing campaigns\n     */\n    function getOngoingCampaigns() public view returns (CampaignRef[] memory) {\n        CampaignRef[] memory allCampaigns = new CampaignRef[](numberOfCampaigns);\n\n        for (uint256 index = 0; index < numberOfCampaigns; index++) {\n            Campaign storage campaign = campaigns[index];\n            if (!campaign.isStopped) {\n              CampaignRef memory ref = CampaignRef({ id: index, campaign: campaign });\n              allCampaigns[index] = ref;\n            }\n        }\n\n        return allCampaigns;\n    }\n\n    /**\n     * Returns all boxes of a specific campaign\n     */\n    function getBoxes(uint256 _campaignId) public view returns (BoxOffer[] memory) {\n        BoxOffer[] storage boxOffer = boxOffers[_campaignId];\n        return boxOffer;\n    }\n\n    /**\n     * Returns a list of all sold boxes for a specific campaign\n     */\n    function getSoldBoxes(uint256 _campaignId) public view returns(BoxSellRef[] memory) {\n      Campaign storage campaign = campaigns[_campaignId];\n      BoxSellRef[] memory boxSells = new BoxSellRef[](campaign.boxesSold);\n\n      for (uint256 index = 0; index < boxSells.length; index++) {\n        boxSells[index] = soldBoxesCampaign[_campaignId][index];\n      }\n\n      return boxSells;\n    }\n\n    /**\n     * Pay-out all stakeholders of the campaign\n     */\n    function payOut(uint256 _campaignId) public {\n      Campaign storage campaign = campaigns[_campaignId];\n      require(campaign.isStopped, \"The campaign must be finished\");\n      require(campaign.boxesSold == campaign.totalBoxes, \"There can't be any boxes left\");\n\n      // TODO Check if supply chain has been completed\n      // e.g. require(campaign.supplyChain.isCompleted);\n\n      // Generate shares\n      uint256 farmerShare = campaign.collectedAmount * campaign.farmer.share;\n      uint256 butcherShare = campaign.collectedAmount * campaign.farmer.share;\n      uint256 deliveryShare = campaign.collectedAmount * campaign.farmer.share;\n\n      // payout stakeholders\n      payable(campaign.farmer.owner).transfer(farmerShare);\n      payable(campaign.butcher.owner).transfer(butcherShare);\n      payable(campaign.delivery.owner).transfer(deliveryShare);\n    }\n\n}\n",
  "sourcePath": "/workspaces/146157_Blockchain/smart_contracts/contracts/Crowdfunding.sol",
  "compiler": {
    "name": "solc",
    "version": "0.8.13+commit.abaa5c0e.Emscripten.clang"
  },
  "schemaVersion": "3.4.14",
  "updatedAt": "2023-07-24T08:20:37.086Z",
  "networkType": "ethereum",
  "devdoc": {
    "kind": "dev",
    "methods": {},
    "version": 1
  },
  "userdoc": {
    "kind": "user",
    "methods": {
      "buyBox(uint256,uint256,string)": {
        "notice": "Buys a box"
      },
      "createCampaign(address,string,string,string,uint32,(address,uint8),(address,uint8),(address,uint8),(uint256,(string,string,uint16),uint32,uint32)[])": {
        "notice": "Creates a new campaign"
      },
      "getBoxes(uint256)": {
        "notice": "Returns all boxes of a specific campaign"
      },
      "getCampaign(uint256)": {
        "notice": "Returns a specific campaign"
      },
      "getCampaigns()": {
        "notice": "Returns all campaigns"
      },
      "getNumberOfCampaigns()": {
        "notice": "Returns the total number of campaigns"
      },
      "getOngoingCampaigns()": {
        "notice": "Returns all ongoing campaigns"
      },
      "getPublicKey(uint256)": {
        "notice": "Returns the public key of a campaign"
      },
      "getSoldBoxes(uint256)": {
        "notice": "Returns a list of all sold boxes for a specific campaign"
      },
      "payOut(uint256)": {
        "notice": "Pay-out all stakeholders of the campaign"
      },
      "stopCampaign(uint256)": {
        "notice": "Removes a campaign"
      }
    },
    "version": 1
  }
}