{
  "contractName": "Crowdfunding",
  "abi": [
    {
      "inputs": [
        {
          "internalType": "uint256",
          "name": "",
          "type": "uint256"
        },
        {
          "internalType": "uint256",
          "name": "",
          "type": "uint256"
        }
      ],
      "name": "boxOffers",
      "outputs": [
        {
          "components": [
            {
              "internalType": "string",
              "name": "title",
              "type": "string"
            },
            {
              "internalType": "string",
              "name": "description",
              "type": "string"
            },
            {
              "internalType": "uint16",
              "name": "price",
              "type": "uint16"
            }
          ],
          "internalType": "struct Crowdfunding.Box",
          "name": "box",
          "type": "tuple"
        },
        {
          "internalType": "uint32",
          "name": "total",
          "type": "uint32"
        },
        {
          "internalType": "uint32",
          "name": "available",
          "type": "uint32"
        }
      ],
      "stateMutability": "view",
      "type": "function",
      "constant": true
    },
    {
      "inputs": [
        {
          "internalType": "uint256",
          "name": "",
          "type": "uint256"
        }
      ],
      "name": "campaigns",
      "outputs": [
        {
          "internalType": "address",
          "name": "owner",
          "type": "address"
        },
        {
          "internalType": "string",
          "name": "title",
          "type": "string"
        },
        {
          "internalType": "string",
          "name": "description",
          "type": "string"
        },
        {
          "internalType": "uint256",
          "name": "collectedAmount",
          "type": "uint256"
        },
        {
          "internalType": "uint256",
          "name": "deadline",
          "type": "uint256"
        },
        {
          "internalType": "uint256",
          "name": "boxesLeft",
          "type": "uint256"
        },
        {
          "internalType": "bool",
          "name": "isStopped",
          "type": "bool"
        },
        {
          "components": [
            {
              "internalType": "address",
              "name": "owner",
              "type": "address"
            },
            {
              "internalType": "uint8",
              "name": "share",
              "type": "uint8"
            }
          ],
          "internalType": "struct Crowdfunding.Stakeholder",
          "name": "farmer",
          "type": "tuple"
        },
        {
          "components": [
            {
              "internalType": "address",
              "name": "owner",
              "type": "address"
            },
            {
              "internalType": "uint8",
              "name": "share",
              "type": "uint8"
            }
          ],
          "internalType": "struct Crowdfunding.Stakeholder",
          "name": "butcher",
          "type": "tuple"
        },
        {
          "components": [
            {
              "internalType": "address",
              "name": "owner",
              "type": "address"
            },
            {
              "internalType": "uint8",
              "name": "share",
              "type": "uint8"
            }
          ],
          "internalType": "struct Crowdfunding.Stakeholder",
          "name": "delivery",
          "type": "tuple"
        }
      ],
      "stateMutability": "view",
      "type": "function",
      "constant": true
    },
    {
      "inputs": [],
      "name": "numberOfCampaigns",
      "outputs": [
        {
          "internalType": "uint256",
          "name": "",
          "type": "uint256"
        }
      ],
      "stateMutability": "view",
      "type": "function",
      "constant": true
    },
    {
      "inputs": [
        {
          "internalType": "address",
          "name": "",
          "type": "address"
        },
        {
          "internalType": "uint256",
          "name": "",
          "type": "uint256"
        },
        {
          "internalType": "uint256",
          "name": "",
          "type": "uint256"
        }
      ],
      "name": "soldBoxesAddress",
      "outputs": [
        {
          "internalType": "string",
          "name": "title",
          "type": "string"
        },
        {
          "internalType": "string",
          "name": "description",
          "type": "string"
        },
        {
          "internalType": "uint16",
          "name": "price",
          "type": "uint16"
        }
      ],
      "stateMutability": "view",
      "type": "function",
      "constant": true
    },
    {
      "inputs": [
        {
          "internalType": "uint256",
          "name": "",
          "type": "uint256"
        },
        {
          "internalType": "address",
          "name": "",
          "type": "address"
        },
        {
          "internalType": "uint256",
          "name": "",
          "type": "uint256"
        }
      ],
      "name": "soldBoxesCampaign",
      "outputs": [
        {
          "internalType": "string",
          "name": "title",
          "type": "string"
        },
        {
          "internalType": "string",
          "name": "description",
          "type": "string"
        },
        {
          "internalType": "uint16",
          "name": "price",
          "type": "uint16"
        }
      ],
      "stateMutability": "view",
      "type": "function",
      "constant": true
    },
    {
      "inputs": [
        {
          "internalType": "address",
          "name": "_owner",
          "type": "address"
        },
        {
          "internalType": "string",
          "name": "_title",
          "type": "string"
        },
        {
          "internalType": "string",
          "name": "_description",
          "type": "string"
        },
        {
          "internalType": "uint32",
          "name": "_duration",
          "type": "uint32"
        },
        {
          "components": [
            {
              "internalType": "address",
              "name": "owner",
              "type": "address"
            },
            {
              "internalType": "uint8",
              "name": "share",
              "type": "uint8"
            }
          ],
          "internalType": "struct Crowdfunding.Stakeholder",
          "name": "_farmer",
          "type": "tuple"
        },
        {
          "components": [
            {
              "internalType": "address",
              "name": "owner",
              "type": "address"
            },
            {
              "internalType": "uint8",
              "name": "share",
              "type": "uint8"
            }
          ],
          "internalType": "struct Crowdfunding.Stakeholder",
          "name": "_butcher",
          "type": "tuple"
        },
        {
          "components": [
            {
              "internalType": "address",
              "name": "owner",
              "type": "address"
            },
            {
              "internalType": "uint8",
              "name": "share",
              "type": "uint8"
            }
          ],
          "internalType": "struct Crowdfunding.Stakeholder",
          "name": "_delivery",
          "type": "tuple"
        },
        {
          "components": [
            {
              "components": [
                {
                  "internalType": "string",
                  "name": "title",
                  "type": "string"
                },
                {
                  "internalType": "string",
                  "name": "description",
                  "type": "string"
                },
                {
                  "internalType": "uint16",
                  "name": "price",
                  "type": "uint16"
                }
              ],
              "internalType": "struct Crowdfunding.Box",
              "name": "box",
              "type": "tuple"
            },
            {
              "internalType": "uint32",
              "name": "total",
              "type": "uint32"
            },
            {
              "internalType": "uint32",
              "name": "available",
              "type": "uint32"
            }
          ],
          "internalType": "struct Crowdfunding.BoxOffer[]",
          "name": "_boxes",
          "type": "tuple[]"
        }
      ],
      "name": "createCampaign",
      "outputs": [
        {
          "internalType": "uint256",
          "name": "",
          "type": "uint256"
        }
      ],
      "stateMutability": "nonpayable",
      "type": "function"
    },
    {
      "inputs": [],
      "name": "getNumberOfCampaigns",
      "outputs": [
        {
          "internalType": "uint256",
          "name": "",
          "type": "uint256"
        }
      ],
      "stateMutability": "view",
      "type": "function",
      "constant": true
    },
    {
      "inputs": [
        {
          "internalType": "uint256",
          "name": "_campaignId",
          "type": "uint256"
        }
      ],
      "name": "stopCampaign",
      "outputs": [
        {
          "internalType": "bool",
          "name": "",
          "type": "bool"
        }
      ],
      "stateMutability": "nonpayable",
      "type": "function"
    },
    {
      "inputs": [
        {
          "internalType": "uint256",
          "name": "_campaignId",
          "type": "uint256"
        },
        {
          "internalType": "uint256",
          "name": "_boxId",
          "type": "uint256"
        }
      ],
      "name": "buyBox",
      "outputs": [],
      "stateMutability": "payable",
      "type": "function",
      "payable": true
    },
    {
      "inputs": [
        {
          "internalType": "uint256",
          "name": "_campaignId",
          "type": "uint256"
        }
      ],
      "name": "getCampaign",
      "outputs": [
        {
          "components": [
            {
              "internalType": "uint256",
              "name": "id",
              "type": "uint256"
            },
            {
              "components": [
                {
                  "internalType": "address",
                  "name": "owner",
                  "type": "address"
                },
                {
                  "internalType": "string",
                  "name": "title",
                  "type": "string"
                },
                {
                  "internalType": "string",
                  "name": "description",
                  "type": "string"
                },
                {
                  "internalType": "uint256",
                  "name": "collectedAmount",
                  "type": "uint256"
                },
                {
                  "internalType": "uint256",
                  "name": "deadline",
                  "type": "uint256"
                },
                {
                  "internalType": "uint256",
                  "name": "boxesLeft",
                  "type": "uint256"
                },
                {
                  "internalType": "bool",
                  "name": "isStopped",
                  "type": "bool"
                },
                {
                  "components": [
                    {
                      "internalType": "address",
                      "name": "owner",
                      "type": "address"
                    },
                    {
                      "internalType": "uint8",
                      "name": "share",
                      "type": "uint8"
                    }
                  ],
                  "internalType": "struct Crowdfunding.Stakeholder",
                  "name": "farmer",
                  "type": "tuple"
                },
                {
                  "components": [
                    {
                      "internalType": "address",
                      "name": "owner",
                      "type": "address"
                    },
                    {
                      "internalType": "uint8",
                      "name": "share",
                      "type": "uint8"
                    }
                  ],
                  "internalType": "struct Crowdfunding.Stakeholder",
                  "name": "butcher",
                  "type": "tuple"
                },
                {
                  "components": [
                    {
                      "internalType": "address",
                      "name": "owner",
                      "type": "address"
                    },
                    {
                      "internalType": "uint8",
                      "name": "share",
                      "type": "uint8"
                    }
                  ],
                  "internalType": "struct Crowdfunding.Stakeholder",
                  "name": "delivery",
                  "type": "tuple"
                }
              ],
              "internalType": "struct Crowdfunding.Campaign",
              "name": "campaign",
              "type": "tuple"
            }
          ],
          "internalType": "struct Crowdfunding.CampaignRef",
          "name": "",
          "type": "tuple"
        }
      ],
      "stateMutability": "view",
      "type": "function",
      "constant": true
    },
    {
      "inputs": [],
      "name": "getCampaigns",
      "outputs": [
        {
          "components": [
            {
              "internalType": "uint256",
              "name": "id",
              "type": "uint256"
            },
            {
              "components": [
                {
                  "internalType": "address",
                  "name": "owner",
                  "type": "address"
                },
                {
                  "internalType": "string",
                  "name": "title",
                  "type": "string"
                },
                {
                  "internalType": "string",
                  "name": "description",
                  "type": "string"
                },
                {
                  "internalType": "uint256",
                  "name": "collectedAmount",
                  "type": "uint256"
                },
                {
                  "internalType": "uint256",
                  "name": "deadline",
                  "type": "uint256"
                },
                {
                  "internalType": "uint256",
                  "name": "boxesLeft",
                  "type": "uint256"
                },
                {
                  "internalType": "bool",
                  "name": "isStopped",
                  "type": "bool"
                },
                {
                  "components": [
                    {
                      "internalType": "address",
                      "name": "owner",
                      "type": "address"
                    },
                    {
                      "internalType": "uint8",
                      "name": "share",
                      "type": "uint8"
                    }
                  ],
                  "internalType": "struct Crowdfunding.Stakeholder",
                  "name": "farmer",
                  "type": "tuple"
                },
                {
                  "components": [
                    {
                      "internalType": "address",
                      "name": "owner",
                      "type": "address"
                    },
                    {
                      "internalType": "uint8",
                      "name": "share",
                      "type": "uint8"
                    }
                  ],
                  "internalType": "struct Crowdfunding.Stakeholder",
                  "name": "butcher",
                  "type": "tuple"
                },
                {
                  "components": [
                    {
                      "internalType": "address",
                      "name": "owner",
                      "type": "address"
                    },
                    {
                      "internalType": "uint8",
                      "name": "share",
                      "type": "uint8"
                    }
                  ],
                  "internalType": "struct Crowdfunding.Stakeholder",
                  "name": "delivery",
                  "type": "tuple"
                }
              ],
              "internalType": "struct Crowdfunding.Campaign",
              "name": "campaign",
              "type": "tuple"
            }
          ],
          "internalType": "struct Crowdfunding.CampaignRef[]",
          "name": "",
          "type": "tuple[]"
        }
      ],
      "stateMutability": "view",
      "type": "function",
      "constant": true
    },
    {
      "inputs": [],
      "name": "getOngoingCampaigns",
      "outputs": [
        {
          "components": [
            {
              "internalType": "uint256",
              "name": "id",
              "type": "uint256"
            },
            {
              "components": [
                {
                  "internalType": "address",
                  "name": "owner",
                  "type": "address"
                },
                {
                  "internalType": "string",
                  "name": "title",
                  "type": "string"
                },
                {
                  "internalType": "string",
                  "name": "description",
                  "type": "string"
                },
                {
                  "internalType": "uint256",
                  "name": "collectedAmount",
                  "type": "uint256"
                },
                {
                  "internalType": "uint256",
                  "name": "deadline",
                  "type": "uint256"
                },
                {
                  "internalType": "uint256",
                  "name": "boxesLeft",
                  "type": "uint256"
                },
                {
                  "internalType": "bool",
                  "name": "isStopped",
                  "type": "bool"
                },
                {
                  "components": [
                    {
                      "internalType": "address",
                      "name": "owner",
                      "type": "address"
                    },
                    {
                      "internalType": "uint8",
                      "name": "share",
                      "type": "uint8"
                    }
                  ],
                  "internalType": "struct Crowdfunding.Stakeholder",
                  "name": "farmer",
                  "type": "tuple"
                },
                {
                  "components": [
                    {
                      "internalType": "address",
                      "name": "owner",
                      "type": "address"
                    },
                    {
                      "internalType": "uint8",
                      "name": "share",
                      "type": "uint8"
                    }
                  ],
                  "internalType": "struct Crowdfunding.Stakeholder",
                  "name": "butcher",
                  "type": "tuple"
                },
                {
                  "components": [
                    {
                      "internalType": "address",
                      "name": "owner",
                      "type": "address"
                    },
                    {
                      "internalType": "uint8",
                      "name": "share",
                      "type": "uint8"
                    }
                  ],
                  "internalType": "struct Crowdfunding.Stakeholder",
                  "name": "delivery",
                  "type": "tuple"
                }
              ],
              "internalType": "struct Crowdfunding.Campaign",
              "name": "campaign",
              "type": "tuple"
            }
          ],
          "internalType": "struct Crowdfunding.CampaignRef[]",
          "name": "",
          "type": "tuple[]"
        }
      ],
      "stateMutability": "view",
      "type": "function",
      "constant": true
    },
    {
      "inputs": [
        {
          "internalType": "uint256",
          "name": "_campaignId",
          "type": "uint256"
        }
      ],
      "name": "getBoxes",
      "outputs": [
        {
          "components": [
            {
              "components": [
                {
                  "internalType": "string",
                  "name": "title",
                  "type": "string"
                },
                {
                  "internalType": "string",
                  "name": "description",
                  "type": "string"
                },
                {
                  "internalType": "uint16",
                  "name": "price",
                  "type": "uint16"
                }
              ],
              "internalType": "struct Crowdfunding.Box",
              "name": "box",
              "type": "tuple"
            },
            {
              "internalType": "uint32",
              "name": "total",
              "type": "uint32"
            },
            {
              "internalType": "uint32",
              "name": "available",
              "type": "uint32"
            }
          ],
          "internalType": "struct Crowdfunding.BoxOffer[]",
          "name": "",
          "type": "tuple[]"
        }
      ],
      "stateMutability": "view",
      "type": "function",
      "constant": true
    }
  ],
  "bytecode": "0x6080604052600060045534801561001557600080fd5b50613de4806100256000396000f3fe6080604052600436106100c25760003560e01c806366b5bb291161007f578063ad7f763711610059578063ad7f7637146102b4578063d30c1be1146102f3578063e4aafc2c1461031e578063ec6c821614610349576100c2565b806366b5bb291461020d57806378e7ac7b1461024c578063a6b0363314610289576100c2565b806307ca140d146100c75780631355879d146100f2578063141961bc146101315780633267f8ab14610177578063406d382a146101b45780635598f8cc146101d0575b600080fd5b3480156100d357600080fd5b506100dc610386565b6040516100e99190612770565b60405180910390f35b3480156100fe57600080fd5b50610119600480360381019061011491906127cb565b61038c565b60405161012893929190612937565b60405180910390f35b34801561013d57600080fd5b5061015860048036038101906101539190612975565b610541565b60405161016e9a99989796959493929190612aa2565b60405180910390f35b34801561018357600080fd5b5061019e60048036038101906101999190612975565b610849565b6040516101ab9190612cc4565b60405180910390f35b6101ce60048036038101906101c991906127cb565b610a65565b005b3480156101dc57600080fd5b506101f760048036038101906101f29190612975565b610e04565b6040516102049190612e51565b60405180910390f35b34801561021957600080fd5b50610234600480360381019061022f9190612e9f565b611199565b60405161024393929190612f01565b60405180910390f35b34801561025857600080fd5b50610273600480360381019061026e919061335b565b61130b565b6040516102809190612770565b60405180910390f35b34801561029557600080fd5b5061029e6118d6565b6040516102ab9190613566565b60405180910390f35b3480156102c057600080fd5b506102db60048036038101906102d69190613588565b611cfe565b6040516102ea93929190612f01565b60405180910390f35b3480156102ff57600080fd5b50610308611e70565b6040516103159190613566565b60405180910390f35b34801561032a57600080fd5b506103336122af565b6040516103409190612770565b60405180910390f35b34801561035557600080fd5b50610370600480360381019061036b9190612975565b6122b9565b60405161037d91906135db565b60405180910390f35b60045481565b600160205281600052604060002081815481106103a857600080fd5b906000526020600020906004020160009150915050806000016040518060600160405290816000820180546103dc90613625565b80601f016020809104026020016040519081016040528092919081815260200182805461040890613625565b80156104555780601f1061042a57610100808354040283529160200191610455565b820191906000526020600020905b81548152906001019060200180831161043857829003601f168201915b5050505050815260200160018201805461046e90613625565b80601f016020809104026020016040519081016040528092919081815260200182805461049a90613625565b80156104e75780601f106104bc576101008083540402835291602001916104e7565b820191906000526020600020905b8154815290600101906020018083116104ca57829003601f168201915b505050505081526020016002820160009054906101000a900461ffff1661ffff1661ffff1681525050908060030160009054906101000a900463ffffffff16908060030160049054906101000a900463ffffffff16905083565b60006020528060005260406000206000915090508060000160009054906101000a900473ffffffffffffffffffffffffffffffffffffffff169080600101805461058a90613625565b80601f01602080910402602001604051908101604052809291908181526020018280546105b690613625565b80156106035780601f106105d857610100808354040283529160200191610603565b820191906000526020600020905b8154815290600101906020018083116105e657829003601f168201915b50505050509080600201805461061890613625565b80601f016020809104026020016040519081016040528092919081815260200182805461064490613625565b80156106915780601f1061066657610100808354040283529160200191610691565b820191906000526020600020905b81548152906001019060200180831161067457829003601f168201915b5050505050908060030154908060040154908060050154908060060160009054906101000a900460ff1690806007016040518060400160405290816000820160009054906101000a900473ffffffffffffffffffffffffffffffffffffffff1673ffffffffffffffffffffffffffffffffffffffff1673ffffffffffffffffffffffffffffffffffffffff1681526020016000820160149054906101000a900460ff1660ff1660ff168152505090806008016040518060400160405290816000820160009054906101000a900473ffffffffffffffffffffffffffffffffffffffff1673ffffffffffffffffffffffffffffffffffffffff1673ffffffffffffffffffffffffffffffffffffffff1681526020016000820160149054906101000a900460ff1660ff1660ff168152505090806009016040518060400160405290816000820160009054906101000a900473ffffffffffffffffffffffffffffffffffffffff1673ffffffffffffffffffffffffffffffffffffffff1673ffffffffffffffffffffffffffffffffffffffff1681526020016000820160149054906101000a900460ff1660ff1660ff168152505090508a565b6060600060016000848152602001908152602001600020905080805480602002602001604051908101604052809291908181526020016000905b82821015610a595783829060005260206000209060040201604051806060016040529081600082016040518060600160405290816000820180546108c690613625565b80601f01602080910402602001604051908101604052809291908181526020018280546108f290613625565b801561093f5780601f106109145761010080835404028352916020019161093f565b820191906000526020600020905b81548152906001019060200180831161092257829003601f168201915b5050505050815260200160018201805461095890613625565b80601f016020809104026020016040519081016040528092919081815260200182805461098490613625565b80156109d15780601f106109a6576101008083540402835291602001916109d1565b820191906000526020600020905b8154815290600101906020018083116109b457829003601f168201915b505050505081526020016002820160009054906101000a900461ffff1661ffff1661ffff168152505081526020016003820160009054906101000a900463ffffffff1663ffffffff1663ffffffff1681526020016003820160049054906101000a900463ffffffff1663ffffffff1663ffffffff168152505081526020019060010190610883565b50505050915050919050565b600080600084815260200190815260200160002090508060060160009054906101000a900460ff1615610acd576040517f08c379a0000000000000000000000000000000000000000000000000000000008152600401610ac4906136a2565b60405180910390fd5b42816004015411610b13576040517f08c379a0000000000000000000000000000000000000000000000000000000008152600401610b0a9061370e565b60405180910390fd5b6000600160008581526020019081526020016000208381548110610b3a57610b3961372e565b5b9060005260206000209060040201905060008160030160049054906101000a900463ffffffff1663ffffffff1611610ba7576040517f08c379a0000000000000000000000000000000000000000000000000000000008152600401610b9e906137cf565b60405180910390fd5b600081600001604051806060016040529081600082018054610bc890613625565b80601f0160208091040260200160405190810160405280929190818152602001828054610bf490613625565b8015610c415780601f10610c1657610100808354040283529160200191610c41565b820191906000526020600020905b815481529060010190602001808311610c2457829003601f168201915b50505050508152602001600182018054610c5a90613625565b80601f0160208091040260200160405190810160405280929190818152602001828054610c8690613625565b8015610cd35780601f10610ca857610100808354040283529160200191610cd3565b820191906000526020600020905b815481529060010190602001808311610cb657829003601f168201915b505050505081526020016002820160009054906101000a900461ffff1661ffff1661ffff168152505090506000349050816040015161ffff16811015610d4e576040517f08c379a0000000000000000000000000000000000000000000000000000000008152600401610d459061383b565b60405180910390fd5b610d59863384612421565b60018360030160048282829054906101000a900463ffffffff16610d7d919061388a565b92506101000a81548163ffffffff021916908363ffffffff1602179055506001846005016000828254610db091906138be565b9250508190555080846003016000828254610dcb91906138f2565b925050819055506000846005015403610dfc5760018460060160006101000a81548160ff0219169083151502179055505b505050505050565b610e0c6125e4565b600080600084815260200190815260200160002090506000604051806040016040528085815260200183604051806101400160405290816000820160009054906101000a900473ffffffffffffffffffffffffffffffffffffffff1673ffffffffffffffffffffffffffffffffffffffff1673ffffffffffffffffffffffffffffffffffffffff168152602001600182018054610ea890613625565b80601f0160208091040260200160405190810160405280929190818152602001828054610ed490613625565b8015610f215780601f10610ef657610100808354040283529160200191610f21565b820191906000526020600020905b815481529060010190602001808311610f0457829003601f168201915b50505050508152602001600282018054610f3a90613625565b80601f0160208091040260200160405190810160405280929190818152602001828054610f6690613625565b8015610fb35780601f10610f8857610100808354040283529160200191610fb3565b820191906000526020600020905b815481529060010190602001808311610f9657829003601f168201915b505050505081526020016003820154815260200160048201548152602001600582015481526020016006820160009054906101000a900460ff16151515158152602001600782016040518060400160405290816000820160009054906101000a900473ffffffffffffffffffffffffffffffffffffffff1673ffffffffffffffffffffffffffffffffffffffff1673ffffffffffffffffffffffffffffffffffffffff1681526020016000820160149054906101000a900460ff1660ff1660ff16815250508152602001600882016040518060400160405290816000820160009054906101000a900473ffffffffffffffffffffffffffffffffffffffff1673ffffffffffffffffffffffffffffffffffffffff1673ffffffffffffffffffffffffffffffffffffffff1681526020016000820160149054906101000a900460ff1660ff1660ff16815250508152602001600982016040518060400160405290816000820160009054906101000a900473ffffffffffffffffffffffffffffffffffffffff1673ffffffffffffffffffffffffffffffffffffffff1673ffffffffffffffffffffffffffffffffffffffff1681526020016000820160149054906101000a900460ff1660ff1660ff16815250508152505081525090508092505050919050565b600360205282600052604060002060205281600052604060002081815481106111c157600080fd5b906000526020600020906003020160009250925050508060000180546111e690613625565b80601f016020809104026020016040519081016040528092919081815260200182805461121290613625565b801561125f5780601f106112345761010080835404028352916020019161125f565b820191906000526020600020905b81548152906001019060200180831161124257829003601f168201915b50505050509080600101805461127490613625565b80601f01602080910402602001604051908101604052809291908181526020018280546112a090613625565b80156112ed5780601f106112c2576101008083540402835291602001916112ed565b820191906000526020600020905b8154815290600101906020018083116112d057829003601f168201915b5050505050908060020160009054906101000a900461ffff16905083565b600062375f008663ffffffff161115611359576040517f08c379a0000000000000000000000000000000000000000000000000000000008152600401611350906139ba565b60405180910390fd5b600042905060008763ffffffff168261137291906138f2565b90508181116113b6576040517f08c379a00000000000000000000000000000000000000000000000000000000081526004016113ad90613a26565b60405180910390fd5b6000805b85518110156115065760008682815181106113d8576113d761372e565b5b602002602001015190506000816020015163ffffffff161161142f576040517f08c379a000000000000000000000000000000000000000000000000000000000815260040161142690613ab8565b60405180910390fd5b806040015163ffffffff16816020015163ffffffff1614611485576040517f08c379a000000000000000000000000000000000000000000000000000000000815260040161147c90613b4a565b60405180910390fd5b806020015163ffffffff168361149b91906138f2565b92506000816000015190506000816040015161ffff16116114f1576040517f08c379a00000000000000000000000000000000000000000000000000000000081526004016114e890613bdc565b60405180910390fd5b505080806114fe90613bfc565b9150506113ba565b506000811161154a576040517f08c379a000000000000000000000000000000000000000000000000000000000815260040161154190613c90565b60405180910390fd5b6000806000600454815260200190815260200160002090508c8160000160006101000a81548173ffffffffffffffffffffffffffffffffffffffff021916908373ffffffffffffffffffffffffffffffffffffffff1602179055508b8160010190805190602001906115bd929190612604565b508a8160020190805190602001906115d6929190612604565b506000816003018190555082816004018190555060008160060160006101000a81548160ff021916908315150217905550818160050181905550888160070160008201518160000160006101000a81548173ffffffffffffffffffffffffffffffffffffffff021916908373ffffffffffffffffffffffffffffffffffffffff16021790555060208201518160000160146101000a81548160ff021916908360ff160217905550905050878160080160008201518160000160006101000a81548173ffffffffffffffffffffffffffffffffffffffff021916908373ffffffffffffffffffffffffffffffffffffffff16021790555060208201518160000160146101000a81548160ff021916908360ff160217905550905050868160090160008201518160000160006101000a81548173ffffffffffffffffffffffffffffffffffffffff021916908373ffffffffffffffffffffffffffffffffffffffff16021790555060208201518160000160146101000a81548160ff021916908360ff1602179055509050506000600160006004548152602001908152602001600020905060005b875181101561189b57600088828151811061179a5761179961372e565b5b602002602001015190508281908060018154018082558091505060019003906000526020600020906004020160009091909190915060008201518160000160008201518160000190805190602001906117f4929190612604565b506020820151816001019080519060200190611811929190612604565b5060408201518160020160006101000a81548161ffff021916908361ffff160217905550505060208201518160030160006101000a81548163ffffffff021916908363ffffffff16021790555060408201518160030160046101000a81548163ffffffff021916908363ffffffff160217905550505050808061189390613bfc565b91505061177c565b50600460008154809291906118af90613bfc565b919050555060016004546118c391906138be565b9550505050505098975050505050505050565b6060600060045467ffffffffffffffff8111156118f6576118f5612f50565b5b60405190808252806020026020018201604052801561192f57816020015b61191c6125e4565b8152602001906001900390816119145790505b50905060005b600454811015611cf657600080600083815260200190815260200160002090506000604051806040016040528084815260200183604051806101400160405290816000820160009054906101000a900473ffffffffffffffffffffffffffffffffffffffff1673ffffffffffffffffffffffffffffffffffffffff1673ffffffffffffffffffffffffffffffffffffffff1681526020016001820180546119db90613625565b80601f0160208091040260200160405190810160405280929190818152602001828054611a0790613625565b8015611a545780601f10611a2957610100808354040283529160200191611a54565b820191906000526020600020905b815481529060010190602001808311611a3757829003601f168201915b50505050508152602001600282018054611a6d90613625565b80601f0160208091040260200160405190810160405280929190818152602001828054611a9990613625565b8015611ae65780601f10611abb57610100808354040283529160200191611ae6565b820191906000526020600020905b815481529060010190602001808311611ac957829003601f168201915b505050505081526020016003820154815260200160048201548152602001600582015481526020016006820160009054906101000a900460ff16151515158152602001600782016040518060400160405290816000820160009054906101000a900473ffffffffffffffffffffffffffffffffffffffff1673ffffffffffffffffffffffffffffffffffffffff1673ffffffffffffffffffffffffffffffffffffffff1681526020016000820160149054906101000a900460ff1660ff1660ff16815250508152602001600882016040518060400160405290816000820160009054906101000a900473ffffffffffffffffffffffffffffffffffffffff1673ffffffffffffffffffffffffffffffffffffffff1673ffffffffffffffffffffffffffffffffffffffff1681526020016000820160149054906101000a900460ff1660ff1660ff16815250508152602001600982016040518060400160405290816000820160009054906101000a900473ffffffffffffffffffffffffffffffffffffffff1673ffffffffffffffffffffffffffffffffffffffff1673ffffffffffffffffffffffffffffffffffffffff1681526020016000820160149054906101000a900460ff1660ff1660ff168152505081525050815250905080848481518110611cd657611cd561372e565b5b602002602001018190525050508080611cee90613bfc565b915050611935565b508091505090565b60026020528260005260406000206020528160005260406000208181548110611d2657600080fd5b90600052602060002090600302016000925092505050806000018054611d4b90613625565b80601f0160208091040260200160405190810160405280929190818152602001828054611d7790613625565b8015611dc45780601f10611d9957610100808354040283529160200191611dc4565b820191906000526020600020905b815481529060010190602001808311611da757829003601f168201915b505050505090806001018054611dd990613625565b80601f0160208091040260200160405190810160405280929190818152602001828054611e0590613625565b8015611e525780601f10611e2757610100808354040283529160200191611e52565b820191906000526020600020905b815481529060010190602001808311611e3557829003601f168201915b5050505050908060020160009054906101000a900461ffff16905083565b6060600060045467ffffffffffffffff811115611e9057611e8f612f50565b5b604051908082528060200260200182016040528015611ec957816020015b611eb66125e4565b815260200190600190039081611eae5790505b50905060005b6004548110156122a757600080600083815260200190815260200160002090508060060160009054906101000a900460ff16612293576000604051806040016040528084815260200183604051806101400160405290816000820160009054906101000a900473ffffffffffffffffffffffffffffffffffffffff1673ffffffffffffffffffffffffffffffffffffffff1673ffffffffffffffffffffffffffffffffffffffff168152602001600182018054611f8b90613625565b80601f0160208091040260200160405190810160405280929190818152602001828054611fb790613625565b80156120045780601f10611fd957610100808354040283529160200191612004565b820191906000526020600020905b815481529060010190602001808311611fe757829003601f168201915b5050505050815260200160028201805461201d90613625565b80601f016020809104026020016040519081016040528092919081815260200182805461204990613625565b80156120965780601f1061206b57610100808354040283529160200191612096565b820191906000526020600020905b81548152906001019060200180831161207957829003601f168201915b505050505081526020016003820154815260200160048201548152602001600582015481526020016006820160009054906101000a900460ff16151515158152602001600782016040518060400160405290816000820160009054906101000a900473ffffffffffffffffffffffffffffffffffffffff1673ffffffffffffffffffffffffffffffffffffffff1673ffffffffffffffffffffffffffffffffffffffff1681526020016000820160149054906101000a900460ff1660ff1660ff16815250508152602001600882016040518060400160405290816000820160009054906101000a900473ffffffffffffffffffffffffffffffffffffffff1673ffffffffffffffffffffffffffffffffffffffff1673ffffffffffffffffffffffffffffffffffffffff1681526020016000820160149054906101000a900460ff1660ff1660ff16815250508152602001600982016040518060400160405290816000820160009054906101000a900473ffffffffffffffffffffffffffffffffffffffff1673ffffffffffffffffffffffffffffffffffffffff1673ffffffffffffffffffffffffffffffffffffffff1681526020016000820160149054906101000a900460ff1660ff1660ff1681525050815250508152509050808484815181106122865761228561372e565b5b6020026020010181905250505b50808061229f90613bfc565b915050611ecf565b508091505090565b6000600454905090565b60008060008084815260200190815260200160002090508060060160009054906101000a900460ff1615612322576040517f08c379a000000000000000000000000000000000000000000000000000000000815260040161231990613cfc565b60405180910390fd5b42816004015411612368576040517f08c379a000000000000000000000000000000000000000000000000000000000815260040161235f9061370e565b60405180910390fd5b8060000160009054906101000a900473ffffffffffffffffffffffffffffffffffffffff1673ffffffffffffffffffffffffffffffffffffffff163373ffffffffffffffffffffffffffffffffffffffff16146123fa576040517f08c379a00000000000000000000000000000000000000000000000000000000081526004016123f190613d8e565b60405180910390fd5b60018160060160006101000a81548160ff0219169083151502179055506001915050919050565b60006002600085815260200190815260200160002060008473ffffffffffffffffffffffffffffffffffffffff1673ffffffffffffffffffffffffffffffffffffffff16815260200190815260200160002090506000600360008573ffffffffffffffffffffffffffffffffffffffff1673ffffffffffffffffffffffffffffffffffffffff16815260200190815260200160002060008681526020019081526020016000209050818390806001815401808255809150506001900390600052602060002090600302016000909190919091506000820151816000019080519060200190612510929190612604565b50602082015181600101908051906020019061252d929190612604565b5060408201518160020160006101000a81548161ffff021916908361ffff160217905550505080839080600181540180825580915050600190039060005260206000209060030201600090919091909150600082015181600001908051906020019061259a929190612604565b5060208201518160010190805190602001906125b7929190612604565b5060408201518160020160006101000a81548161ffff021916908361ffff16021790555050505050505050565b6040518060400160405280600081526020016125fe61268a565b81525090565b82805461261090613625565b90600052602060002090601f0160209004810192826126325760008555612679565b82601f1061264b57805160ff1916838001178555612679565b82800160010185558215612679579182015b8281111561267857825182559160200191906001019061265d565b5b5090506126869190612707565b5090565b604051806101400160405280600073ffffffffffffffffffffffffffffffffffffffff16815260200160608152602001606081526020016000815260200160008152602001600081526020016000151581526020016126e7612724565b81526020016126f4612724565b8152602001612701612724565b81525090565b5b80821115612720576000816000905550600101612708565b5090565b6040518060400160405280600073ffffffffffffffffffffffffffffffffffffffff168152602001600060ff1681525090565b6000819050919050565b61276a81612757565b82525050565b60006020820190506127856000830184612761565b92915050565b6000604051905090565b600080fd5b600080fd5b6127a881612757565b81146127b357600080fd5b50565b6000813590506127c58161279f565b92915050565b600080604083850312156127e2576127e1612795565b5b60006127f0858286016127b6565b9250506020612801858286016127b6565b9150509250929050565b600081519050919050565b600082825260208201905092915050565b60005b8381101561284557808201518184015260208101905061282a565b83811115612854576000848401525b50505050565b6000601f19601f8301169050919050565b60006128768261280b565b6128808185612816565b9350612890818560208601612827565b6128998161285a565b840191505092915050565b600061ffff82169050919050565b6128bb816128a4565b82525050565b600060608301600083015184820360008601526128de828261286b565b915050602083015184820360208601526128f8828261286b565b915050604083015161290d60408601826128b2565b508091505092915050565b600063ffffffff82169050919050565b61293181612918565b82525050565b6000606082019050818103600083015261295181866128c1565b90506129606020830185612928565b61296d6040830184612928565b949350505050565b60006020828403121561298b5761298a612795565b5b6000612999848285016127b6565b91505092915050565b600073ffffffffffffffffffffffffffffffffffffffff82169050919050565b60006129cd826129a2565b9050919050565b6129dd816129c2565b82525050565b600082825260208201905092915050565b60006129ff8261280b565b612a0981856129e3565b9350612a19818560208601612827565b612a228161285a565b840191505092915050565b60008115159050919050565b612a4281612a2d565b82525050565b612a51816129c2565b82525050565b600060ff82169050919050565b612a6d81612a57565b82525050565b604082016000820151612a896000850182612a48565b506020820151612a9c6020850182612a64565b50505050565b60006101a082019050612ab8600083018d6129d4565b8181036020830152612aca818c6129f4565b90508181036040830152612ade818b6129f4565b9050612aed606083018a612761565b612afa6080830189612761565b612b0760a0830188612761565b612b1460c0830187612a39565b612b2160e0830186612a73565b612b2f610120830185612a73565b612b3d610160830184612a73565b9b9a5050505050505050505050565b600081519050919050565b600082825260208201905092915050565b6000819050602082019050919050565b60006060830160008301518482036000860152612b95828261286b565b91505060208301518482036020860152612baf828261286b565b9150506040830151612bc460408601826128b2565b508091505092915050565b612bd881612918565b82525050565b60006060830160008301518482036000860152612bfb8282612b78565b9150506020830151612c106020860182612bcf565b506040830151612c236040860182612bcf565b508091505092915050565b6000612c3a8383612bde565b905092915050565b6000602082019050919050565b6000612c5a82612b4c565b612c648185612b57565b935083602082028501612c7685612b68565b8060005b85811015612cb25784840389528151612c938582612c2e565b9450612c9e83612c42565b925060208a01995050600181019050612c7a565b50829750879550505050505092915050565b60006020820190508181036000830152612cde8184612c4f565b905092915050565b612cef81612757565b82525050565b612cfe81612a2d565b82525050565b604082016000820151612d1a6000850182612a48565b506020820151612d2d6020850182612a64565b50505050565b60006101a083016000830151612d4c6000860182612a48565b5060208301518482036020860152612d64828261286b565b91505060408301518482036040860152612d7e828261286b565b9150506060830151612d936060860182612ce6565b506080830151612da66080860182612ce6565b5060a0830151612db960a0860182612ce6565b5060c0830151612dcc60c0860182612cf5565b5060e0830151612ddf60e0860182612d04565b50610100830151612df4610120860182612d04565b50610120830151612e09610160860182612d04565b508091505092915050565b6000604083016000830151612e2c6000860182612ce6565b5060208301518482036020860152612e448282612d33565b9150508091505092915050565b60006020820190508181036000830152612e6b8184612e14565b905092915050565b612e7c816129c2565b8114612e8757600080fd5b50565b600081359050612e9981612e73565b92915050565b600080600060608486031215612eb857612eb7612795565b5b6000612ec686828701612e8a565b9350506020612ed7868287016127b6565b9250506040612ee8868287016127b6565b9150509250925092565b612efb816128a4565b82525050565b60006060820190508181036000830152612f1b81866129f4565b90508181036020830152612f2f81856129f4565b9050612f3e6040830184612ef2565b949350505050565b600080fd5b600080fd5b7f4e487b7100000000000000000000000000000000000000000000000000000000600052604160045260246000fd5b612f888261285a565b810181811067ffffffffffffffff82111715612fa757612fa6612f50565b5b80604052505050565b6000612fba61278b565b9050612fc68282612f7f565b919050565b600067ffffffffffffffff821115612fe657612fe5612f50565b5b612fef8261285a565b9050602081019050919050565b82818337600083830152505050565b600061301e61301984612fcb565b612fb0565b90508281526020810184848401111561303a57613039612f4b565b5b613045848285612ffc565b509392505050565b600082601f83011261306257613061612f46565b5b813561307284826020860161300b565b91505092915050565b61308481612918565b811461308f57600080fd5b50565b6000813590506130a18161307b565b92915050565b600080fd5b600080fd5b6130ba81612a57565b81146130c557600080fd5b50565b6000813590506130d7816130b1565b92915050565b6000604082840312156130f3576130f26130a7565b5b6130fd6040612fb0565b9050600061310d84828501612e8a565b6000830152506020613121848285016130c8565b60208301525092915050565b600067ffffffffffffffff82111561314857613147612f50565b5b602082029050602081019050919050565b600080fd5b613167816128a4565b811461317257600080fd5b50565b6000813590506131848161315e565b92915050565b6000606082840312156131a05761319f6130a7565b5b6131aa6060612fb0565b9050600082013567ffffffffffffffff8111156131ca576131c96130ac565b5b6131d68482850161304d565b600083015250602082013567ffffffffffffffff8111156131fa576131f96130ac565b5b6132068482850161304d565b602083015250604061321a84828501613175565b60408301525092915050565b60006060828403121561323c5761323b6130a7565b5b6132466060612fb0565b9050600082013567ffffffffffffffff811115613266576132656130ac565b5b6132728482850161318a565b600083015250602061328684828501613092565b602083015250604061329a84828501613092565b60408301525092915050565b60006132b96132b48461312d565b612fb0565b905080838252602082019050602084028301858111156132dc576132db613159565b5b835b8181101561332357803567ffffffffffffffff81111561330157613300612f46565b5b80860161330e8982613226565b855260208501945050506020810190506132de565b5050509392505050565b600082601f83011261334257613341612f46565b5b81356133528482602086016132a6565b91505092915050565b600080600080600080600080610160898b03121561337c5761337b612795565b5b600061338a8b828c01612e8a565b985050602089013567ffffffffffffffff8111156133ab576133aa61279a565b5b6133b78b828c0161304d565b975050604089013567ffffffffffffffff8111156133d8576133d761279a565b5b6133e48b828c0161304d565b96505060606133f58b828c01613092565b95505060806134068b828c016130dd565b94505060c06134178b828c016130dd565b9350506101006134298b828c016130dd565b92505061014089013567ffffffffffffffff81111561344b5761344a61279a565b5b6134578b828c0161332d565b9150509295985092959890939650565b600081519050919050565b600082825260208201905092915050565b6000819050602082019050919050565b60006040830160008301516134ab6000860182612ce6565b50602083015184820360208601526134c38282612d33565b9150508091505092915050565b60006134dc8383613493565b905092915050565b6000602082019050919050565b60006134fc82613467565b6135068185613472565b93508360208202850161351885613483565b8060005b85811015613554578484038952815161353585826134d0565b9450613540836134e4565b925060208a0199505060018101905061351c565b50829750879550505050505092915050565b6000602082019050818103600083015261358081846134f1565b905092915050565b6000806000606084860312156135a1576135a0612795565b5b60006135af868287016127b6565b93505060206135c086828701612e8a565b92505060406135d1868287016127b6565b9150509250925092565b60006020820190506135f06000830184612a39565b92915050565b7f4e487b7100000000000000000000000000000000000000000000000000000000600052602260045260246000fd5b6000600282049050600182168061363d57607f821691505b6020821081036136505761364f6135f6565b5b50919050565b7f546869732063616d706169676e206861732073746f7070656400000000000000600082015250565b600061368c6019836129e3565b915061369782613656565b602082019050919050565b600060208201905081810360008301526136bb8161367f565b9050919050565b7f546869732063616d706169676e206973206f7665720000000000000000000000600082015250565b60006136f86015836129e3565b9150613703826136c2565b602082019050919050565b60006020820190508181036000830152613727816136eb565b9050919050565b7f4e487b7100000000000000000000000000000000000000000000000000000000600052603260045260246000fd5b7f416c6c20626f786573206f66207468697320747970652068617665206265656e60008201527f20736f6c64000000000000000000000000000000000000000000000000000000602082015250565b60006137b96025836129e3565b91506137c48261375d565b604082019050919050565b600060208201905081810360008301526137e8816137ac565b9050919050565b7f476976656e20616d6f756e742069732062656c6f7720626f7820707269636500600082015250565b6000613825601f836129e3565b9150613830826137ef565b602082019050919050565b6000602082019050818103600083015261385481613818565b9050919050565b7f4e487b7100000000000000000000000000000000000000000000000000000000600052601160045260246000fd5b600061389582612918565b91506138a083612918565b9250828210156138b3576138b261385b565b5b828203905092915050565b60006138c982612757565b91506138d483612757565b9250828210156138e7576138e661385b565b5b828203905092915050565b60006138fd82612757565b915061390883612757565b9250827fffffffffffffffffffffffffffffffffffffffffffffffffffffffffffffffff0382111561393d5761393c61385b565b5b828201905092915050565b7f4475726174696f6e2063616e277420626520686967686572207468616e20362060008201527f7765656b73000000000000000000000000000000000000000000000000000000602082015250565b60006139a46025836129e3565b91506139af82613948565b604082019050919050565b600060208201905081810360008301526139d381613997565b9050919050565b7f446561646c696e65206d75737420626520696e20746865206675747572650000600082015250565b6000613a10601e836129e3565b9150613a1b826139da565b602082019050919050565b60006020820190508181036000830152613a3f81613a03565b9050919050565b7f5468657265206d757374206265206174206c65617374206f6e6520626f78207460008201527f6f2073656c6c0000000000000000000000000000000000000000000000000000602082015250565b6000613aa26026836129e3565b9150613aad82613a46565b604082019050919050565b60006020820190508181036000830152613ad181613a95565b9050919050565b7f496e697469616c6c7920746f74616c206e756d626572206f6620626f7865732060008201527f616e6420617661696c61626c65206d75737420626520657175616c0000000000602082015250565b6000613b34603b836129e3565b9150613b3f82613ad8565b604082019050919050565b60006020820190508181036000830152613b6381613b27565b9050919050565b7f4120626f7820726571756972657320612070726963652068696768657220746860008201527f616e203000000000000000000000000000000000000000000000000000000000602082015250565b6000613bc66024836129e3565b9150613bd182613b6a565b604082019050919050565b60006020820190508181036000830152613bf581613bb9565b9050919050565b6000613c0782612757565b91507fffffffffffffffffffffffffffffffffffffffffffffffffffffffffffffffff8203613c3957613c3861385b565b5b600182019050919050565b7f4174206c65617374206f6e6520626f7820697320726571756972656400000000600082015250565b6000613c7a601c836129e3565b9150613c8582613c44565b602082019050919050565b60006020820190508181036000830152613ca981613c6d565b9050919050565b7f43616d706169676e20616c72656164792073746f707065640000000000000000600082015250565b6000613ce66018836129e3565b9150613cf182613cb0565b602082019050919050565b60006020820190508181036000830152613d1581613cd9565b9050919050565b7f4f6e6c7920746865206f776e65722063616e2073746f7020612063616d70616960008201527f676e000000000000000000000000000000000000000000000000000000000000602082015250565b6000613d786022836129e3565b9150613d8382613d1c565b604082019050919050565b60006020820190508181036000830152613da781613d6b565b905091905056fea26469706673582212204ee7da1c8da462adaabd74b0c5304be01663f46fa0e7ba7b2421ed1e5b02884264736f6c634300080d0033",
  "immutableReferences": {},
  "source": "// SPDX-License-Identifier: AGPL\npragma solidity ^0.8.13;\n\ncontract Crowdfunding {\n    struct Box {\n        /// Title of a box\n        string title;\n        /// Description of a box\n        string description;\n        /// The price of this box in wei\n        uint16 price;\n    }\n\n    struct BoxOffer {\n        /// The box to sell\n        Box box;\n        /// Total number of boxes\n        uint32 total;\n        /// Number of available boxes\n        uint32 available;\n    }\n\n    struct Stakeholder {\n      /// Address of the stakeholder\n      address owner;\n      /// Share in %\n      uint8 share;\n    }\n\n    struct Campaign {\n        /// Owner of this campaign\n        address owner;\n        /// The campaigns title\n        string title;\n        /// The campaigns description\n        string description;\n        /// Total amount collected in eth\n        uint256 collectedAmount;\n        /// The deadline of this campaign\n        uint256 deadline;\n        /// Number of left boxes\n        uint256 boxesLeft;\n        /// Is it already stopped\n        bool isStopped;\n        /// Responsible farmer\n        Stakeholder farmer;\n        /// Resonsible butcher\n        Stakeholder butcher;\n        /// Responsible delivery service\n        Stakeholder delivery;\n    }\n\n    struct CampaignRef {\n      /// Campaign id\n      uint256 id;\n      /// reference to the campaign\n      Campaign campaign;\n    }\n\n    // all campaigns\n    mapping(uint256 => Campaign) public campaigns;\n    // available boxes for specific campaigns\n    mapping(uint256 => BoxOffer[]) public boxOffers;\n    // sold boxes for specific campaigns\n    mapping(uint256 => mapping(address => Box[])) public soldBoxesCampaign;\n    // sold boxes for specific addresses\n    mapping(address => mapping(uint => Box[])) public soldBoxesAddress;\n\n    uint256 public numberOfCampaigns = 0;\n\n    /**\n     * Adds a buyer\n     */\n    function addBuyer(uint256 _campaignId, address _buyer, Box memory _box) private {\n      Box[] storage _soldBoxesCampaign = soldBoxesCampaign[_campaignId][_buyer];\n      Box[] storage _soldBoxesAddress = soldBoxesAddress[_buyer][_campaignId];\n      _soldBoxesCampaign.push(_box);\n      _soldBoxesAddress.push(_box);\n    }\n\n    /**\n     * Creates a new campaign\n     */\n    function createCampaign(\n        address _owner,\n        string memory _title,\n        string memory _description,\n        uint32 _duration,\n        Stakeholder memory _farmer,\n        Stakeholder memory _butcher,\n        Stakeholder memory _delivery,\n        BoxOffer[] memory _boxes\n    ) public returns (uint256) {\n        // check crowdfunding duration\n        require(_duration <= 6 weeks, \"Duration can't be higher than 6 weeks\");\n\n        // create deadline by adding the duration to the current timestamp\n        uint256 current = block.timestamp;\n        uint256 deadline = current + _duration;\n\n        // deadline can't be in the past\n        require(\n            deadline > current,\n            \"Deadline must be in the future\"\n        );\n\n        // validate boxes\n        uint256 numberOfBoxes = 0;\n        for (uint256 index = 0; index < _boxes.length; index++) {\n            BoxOffer memory offer = _boxes[index];\n            require(offer.total > 0, \"There must be at least one box to sell\");\n            require(offer.total == offer.available, \"Initially total number of boxes and available must be equal\");\n            numberOfBoxes += offer.total;\n\n            Box memory box = offer.box;\n            // A box requires a price\n            require(\n                box.price > 0,\n                \"A box requires a price higher than 0\"\n            );\n        }\n\n        require(numberOfBoxes > 0, \"At least one box is required\");\n\n        // Create campaign\n        Campaign storage campaign = campaigns[numberOfCampaigns];\n        campaign.owner = _owner;\n        campaign.title = _title;\n        campaign.description = _description;\n        campaign.collectedAmount = 0;\n        campaign.deadline = deadline;\n        campaign.isStopped = false;\n        campaign.boxesLeft = numberOfBoxes;\n        campaign.farmer = _farmer;\n        campaign.butcher = _butcher;\n        campaign.delivery = _delivery;\n\n        // add boxes\n        BoxOffer[] storage _offers = boxOffers[numberOfCampaigns];\n        for (uint256 index = 0; index < _boxes.length; index++) {\n            BoxOffer memory offer = _boxes[index];\n            _offers.push(offer);\n        }\n\n        // increase total num of campaigns\n        numberOfCampaigns++;\n\n        // return the most recent campaign index\n        return numberOfCampaigns - 1;\n    }\n\n    /**\n    * Returns the total number of campaigns\n    */\n    function getNumberOfCampaigns() public view returns (uint256) {\n      return numberOfCampaigns;\n    }\n\n    /**\n     * Removes a campaign\n     */\n    function stopCampaign(uint256 _campaignId) public returns (bool) {\n      Campaign storage campaign = campaigns[_campaignId];\n      require(!campaign.isStopped, \"Campaign already stopped\");\n      require(campaign.deadline > block.timestamp, \"This campaign is over\");\n      require(msg.sender == campaign.owner, \"Only the owner can stop a campaign\");\n\n      campaign.isStopped = true;\n\n      return true;\n    }\n\n    /**\n     * Buys a box\n     */\n    function buyBox(uint256 _campaignId, uint256 _boxId) public payable {\n        // get campaign ref\n        Campaign storage campaign = campaigns[_campaignId];\n\n        // check if this is an ongoing campaign\n        require(!campaign.isStopped, \"This campaign has stopped\");\n        require(campaign.deadline > block.timestamp, \"This campaign is over\");\n\n        // check if this campaign still has available boxes for the requested kind\n        BoxOffer storage boxOffer = boxOffers[_campaignId][_boxId];\n        require(boxOffer.available > 0, \"All boxes of this type have been sold\");\n\n        // check if the offer is valid\n        Box memory box = boxOffer.box;\n        uint256 amount = msg.value;\n        require(amount >= box.price, \"Given amount is below box price\");\n\n        // Add buyer\n        addBuyer(_campaignId, msg.sender, box);\n\n        // Reduce available boxes by one\n        boxOffer.available-=1;\n        campaign.boxesLeft-=1;\n        // Add to total collected amount\n        campaign.collectedAmount+=amount;\n\n        if (campaign.boxesLeft == 0) {\n          // Mark campaign as stopped\n          campaign.isStopped = true;\n          // TODO Start Supply Chain\n        }\n    }\n\n    /**\n     * Returns a specific campaign\n     */\n    function getCampaign(uint256 _campaignId) public view returns (CampaignRef memory) {\n        Campaign storage campaign = campaigns[_campaignId];\n        CampaignRef memory ref = CampaignRef({ id: _campaignId, campaign: campaign });\n        return ref;\n    }\n\n    /**\n     * Returns all campaigns\n     */\n    function getCampaigns() public view returns (CampaignRef[] memory) {\n        CampaignRef[] memory allCampaigns = new CampaignRef[](numberOfCampaigns);\n\n        for (uint256 index = 0; index < numberOfCampaigns; index++) {\n            Campaign storage campaign = campaigns[index];\n            CampaignRef memory ref = CampaignRef({ id: index, campaign: campaign });\n            allCampaigns[index] = ref;\n        }\n\n        return allCampaigns;\n    }\n\n    /**\n     * Returns all ongoing campaigns\n     */\n    function getOngoingCampaigns() public view returns (CampaignRef[] memory) {\n        CampaignRef[] memory allCampaigns = new CampaignRef[](numberOfCampaigns);\n\n        for (uint256 index = 0; index < numberOfCampaigns; index++) {\n            Campaign storage campaign = campaigns[index];\n            if (!campaign.isStopped) {\n              CampaignRef memory ref = CampaignRef({ id: index, campaign: campaign });\n              allCampaigns[index] = ref;\n            }\n        }\n\n        return allCampaigns;\n    }\n\n    /**\n     * Returns all boxes of a specific campaign\n     */\n    function getBoxes(uint256 _campaignId) public view returns (BoxOffer[] memory) {\n        BoxOffer[] storage boxOffer = boxOffers[_campaignId];\n        return boxOffer;\n    }\n\n}\n",
  "sourcePath": "/workspaces/146157_Blockchain/smart_contracts/contracts/Crowdfunding.sol",
  "compiler": {
    "name": "solc",
    "version": "0.8.13+commit.abaa5c0e.Emscripten.clang"
  },
  "schemaVersion": "3.4.14",
  "updatedAt": "2023-07-17T19:00:35.311Z",
  "networkType": "ethereum",
  "devdoc": {
    "kind": "dev",
    "methods": {},
    "version": 1
  },
  "userdoc": {
    "kind": "user",
    "methods": {
      "buyBox(uint256,uint256)": {
        "notice": "Buys a box"
      },
      "createCampaign(address,string,string,uint32,(address,uint8),(address,uint8),(address,uint8),((string,string,uint16),uint32,uint32)[])": {
        "notice": "Creates a new campaign"
      },
      "getBoxes(uint256)": {
        "notice": "Returns all boxes of a specific campaign"
      },
      "getCampaign(uint256)": {
        "notice": "Returns a specific campaign"
      },
      "getCampaigns()": {
        "notice": "Returns all campaigns"
      },
      "getNumberOfCampaigns()": {
        "notice": "Returns the total number of campaigns"
      },
      "getOngoingCampaigns()": {
        "notice": "Returns all ongoing campaigns"
      },
      "stopCampaign(uint256)": {
        "notice": "Removes a campaign"
      }
    },
    "version": 1
  }
}