{
  "contractName": "Crowdfunding",
  "abi": [
    {
      "inputs": [
        {
          "internalType": "uint256",
          "name": "",
          "type": "uint256"
        }
      ],
      "name": "campaigns",
      "outputs": [
        {
          "internalType": "uint256",
          "name": "id",
          "type": "uint256"
        },
        {
          "components": [
            {
              "internalType": "string",
              "name": "title",
              "type": "string"
            },
            {
              "internalType": "string",
              "name": "description",
              "type": "string"
            },
            {
              "internalType": "uint256",
              "name": "deadline",
              "type": "uint256"
            }
          ],
          "internalType": "struct CampaignInfo",
          "name": "info",
          "type": "tuple"
        },
        {
          "components": [
            {
              "internalType": "uint256",
              "name": "collectedAmount",
              "type": "uint256"
            },
            {
              "internalType": "uint256",
              "name": "createdAt",
              "type": "uint256"
            },
            {
              "internalType": "uint256",
              "name": "totalBoxes",
              "type": "uint256"
            },
            {
              "internalType": "uint256",
              "name": "boxesSold",
              "type": "uint256"
            },
            {
              "internalType": "uint256",
              "name": "totalBoxTypes",
              "type": "uint256"
            },
            {
              "internalType": "bool",
              "name": "isStopped",
              "type": "bool"
            }
          ],
          "internalType": "struct CampaignMeta",
          "name": "meta",
          "type": "tuple"
        },
        {
          "components": [
            {
              "internalType": "address",
              "name": "owner",
              "type": "address"
            },
            {
              "internalType": "string",
              "name": "ownerPublicKey",
              "type": "string"
            }
          ],
          "internalType": "struct CampaignOwner",
          "name": "owner",
          "type": "tuple"
        },
        {
          "components": [
            {
              "internalType": "string",
              "name": "earTag",
              "type": "string"
            },
            {
              "internalType": "string",
              "name": "name",
              "type": "string"
            },
            {
              "internalType": "string",
              "name": "farm",
              "type": "string"
            },
            {
              "internalType": "uint8",
              "name": "age",
              "type": "uint8"
            }
          ],
          "internalType": "struct CampaignAnimalData",
          "name": "animal",
          "type": "tuple"
        },
        {
          "components": [
            {
              "components": [
                {
                  "internalType": "address payable",
                  "name": "owner",
                  "type": "address"
                },
                {
                  "internalType": "uint8",
                  "name": "share",
                  "type": "uint8"
                },
                {
                  "internalType": "string",
                  "name": "info",
                  "type": "string"
                }
              ],
              "internalType": "struct Stakeholder",
              "name": "farmer",
              "type": "tuple"
            },
            {
              "components": [
                {
                  "internalType": "address payable",
                  "name": "owner",
                  "type": "address"
                },
                {
                  "internalType": "uint8",
                  "name": "share",
                  "type": "uint8"
                },
                {
                  "internalType": "string",
                  "name": "info",
                  "type": "string"
                }
              ],
              "internalType": "struct Stakeholder",
              "name": "butcher",
              "type": "tuple"
            },
            {
              "components": [
                {
                  "internalType": "address payable",
                  "name": "owner",
                  "type": "address"
                },
                {
                  "internalType": "uint8",
                  "name": "share",
                  "type": "uint8"
                },
                {
                  "internalType": "string",
                  "name": "info",
                  "type": "string"
                }
              ],
              "internalType": "struct Stakeholder",
              "name": "delivery",
              "type": "tuple"
            }
          ],
          "internalType": "struct StakeholderList",
          "name": "stakeholders",
          "type": "tuple"
        }
      ],
      "stateMutability": "view",
      "type": "function",
      "constant": true
    },
    {
      "inputs": [],
      "name": "numberOfCampaigns",
      "outputs": [
        {
          "internalType": "uint256",
          "name": "",
          "type": "uint256"
        }
      ],
      "stateMutability": "view",
      "type": "function",
      "constant": true
    },
    {
      "inputs": [
        {
          "internalType": "string",
          "name": "_title",
          "type": "string"
        },
        {
          "internalType": "string",
          "name": "_description",
          "type": "string"
        },
        {
          "internalType": "uint32",
          "name": "_duration",
          "type": "uint32"
        },
        {
          "components": [
            {
              "internalType": "address",
              "name": "owner",
              "type": "address"
            },
            {
              "internalType": "string",
              "name": "ownerPublicKey",
              "type": "string"
            }
          ],
          "internalType": "struct CampaignOwner",
          "name": "_campaignOwner",
          "type": "tuple"
        },
        {
          "components": [
            {
              "components": [
                {
                  "internalType": "address payable",
                  "name": "owner",
                  "type": "address"
                },
                {
                  "internalType": "uint8",
                  "name": "share",
                  "type": "uint8"
                },
                {
                  "internalType": "string",
                  "name": "info",
                  "type": "string"
                }
              ],
              "internalType": "struct Stakeholder",
              "name": "farmer",
              "type": "tuple"
            },
            {
              "components": [
                {
                  "internalType": "address payable",
                  "name": "owner",
                  "type": "address"
                },
                {
                  "internalType": "uint8",
                  "name": "share",
                  "type": "uint8"
                },
                {
                  "internalType": "string",
                  "name": "info",
                  "type": "string"
                }
              ],
              "internalType": "struct Stakeholder",
              "name": "butcher",
              "type": "tuple"
            },
            {
              "components": [
                {
                  "internalType": "address payable",
                  "name": "owner",
                  "type": "address"
                },
                {
                  "internalType": "uint8",
                  "name": "share",
                  "type": "uint8"
                },
                {
                  "internalType": "string",
                  "name": "info",
                  "type": "string"
                }
              ],
              "internalType": "struct Stakeholder",
              "name": "delivery",
              "type": "tuple"
            }
          ],
          "internalType": "struct StakeholderList",
          "name": "_stakeholders",
          "type": "tuple"
        },
        {
          "components": [
            {
              "internalType": "string",
              "name": "earTag",
              "type": "string"
            },
            {
              "internalType": "string",
              "name": "name",
              "type": "string"
            },
            {
              "internalType": "string",
              "name": "farm",
              "type": "string"
            },
            {
              "internalType": "uint8",
              "name": "age",
              "type": "uint8"
            }
          ],
          "internalType": "struct CampaignAnimalData",
          "name": "_animal",
          "type": "tuple"
        },
        {
          "components": [
            {
              "internalType": "uint8",
              "name": "id",
              "type": "uint8"
            },
            {
              "internalType": "string",
              "name": "title",
              "type": "string"
            },
            {
              "internalType": "string",
              "name": "description",
              "type": "string"
            },
            {
              "internalType": "uint256",
              "name": "price",
              "type": "uint256"
            },
            {
              "internalType": "uint8",
              "name": "total",
              "type": "uint8"
            },
            {
              "internalType": "uint8",
              "name": "available",
              "type": "uint8"
            }
          ],
          "internalType": "struct Box[]",
          "name": "_boxes",
          "type": "tuple[]"
        }
      ],
      "name": "createCampaign",
      "outputs": [],
      "stateMutability": "nonpayable",
      "type": "function"
    },
    {
      "inputs": [],
      "name": "getNumberOfCampaigns",
      "outputs": [
        {
          "internalType": "uint256",
          "name": "",
          "type": "uint256"
        }
      ],
      "stateMutability": "view",
      "type": "function"
    },
    {
      "inputs": [],
      "name": "getCampaigns",
      "outputs": [
        {
          "components": [
            {
              "internalType": "uint256",
              "name": "id",
              "type": "uint256"
            },
            {
              "components": [
                {
                  "internalType": "string",
                  "name": "title",
                  "type": "string"
                },
                {
                  "internalType": "string",
                  "name": "description",
                  "type": "string"
                },
                {
                  "internalType": "uint256",
                  "name": "deadline",
                  "type": "uint256"
                }
              ],
              "internalType": "struct CampaignInfo",
              "name": "info",
              "type": "tuple"
            },
            {
              "components": [
                {
                  "internalType": "uint256",
                  "name": "collectedAmount",
                  "type": "uint256"
                },
                {
                  "internalType": "uint256",
                  "name": "createdAt",
                  "type": "uint256"
                },
                {
                  "internalType": "uint16",
                  "name": "totalBoxes",
                  "type": "uint16"
                },
                {
                  "internalType": "uint16",
                  "name": "boxesSold",
                  "type": "uint16"
                },
                {
                  "internalType": "uint8",
                  "name": "totalBoxTypes",
                  "type": "uint8"
                },
                {
                  "internalType": "bool",
                  "name": "isStopped",
                  "type": "bool"
                }
              ],
              "internalType": "struct CampaignMeta",
              "name": "meta",
              "type": "tuple"
            },
            {
              "components": [
                {
                  "internalType": "address",
                  "name": "owner",
                  "type": "address"
                },
                {
                  "internalType": "string",
                  "name": "ownerPublicKey",
                  "type": "string"
                }
              ],
              "internalType": "struct CampaignOwner",
              "name": "owner",
              "type": "tuple"
            },
            {
              "components": [
                {
                  "internalType": "string",
                  "name": "earTag",
                  "type": "string"
                },
                {
                  "internalType": "string",
                  "name": "name",
                  "type": "string"
                },
                {
                  "internalType": "string",
                  "name": "farm",
                  "type": "string"
                },
                {
                  "internalType": "uint8",
                  "name": "age",
                  "type": "uint8"
                }
              ],
              "internalType": "struct CampaignAnimalData",
              "name": "animal",
              "type": "tuple"
            },
            {
              "components": [
                {
                  "components": [
                    {
                      "internalType": "address payable",
                      "name": "owner",
                      "type": "address"
                    },
                    {
                      "internalType": "uint8",
                      "name": "share",
                      "type": "uint8"
                    },
                    {
                      "internalType": "string",
                      "name": "info",
                      "type": "string"
                    }
                  ],
                  "internalType": "struct Stakeholder",
                  "name": "farmer",
                  "type": "tuple"
                },
                {
                  "components": [
                    {
                      "internalType": "address payable",
                      "name": "owner",
                      "type": "address"
                    },
                    {
                      "internalType": "uint8",
                      "name": "share",
                      "type": "uint8"
                    },
                    {
                      "internalType": "string",
                      "name": "info",
                      "type": "string"
                    }
                  ],
                  "internalType": "struct Stakeholder",
                  "name": "butcher",
                  "type": "tuple"
                },
                {
                  "components": [
                    {
                      "internalType": "address payable",
                      "name": "owner",
                      "type": "address"
                    },
                    {
                      "internalType": "uint8",
                      "name": "share",
                      "type": "uint8"
                    },
                    {
                      "internalType": "string",
                      "name": "info",
                      "type": "string"
                    }
                  ],
                  "internalType": "struct Stakeholder",
                  "name": "delivery",
                  "type": "tuple"
                }
              ],
              "internalType": "struct StakeholderList",
              "name": "stakeholders",
              "type": "tuple"
            }
          ],
          "internalType": "struct Campaign[]",
          "name": "",
          "type": "tuple[]"
        }
      ],
      "stateMutability": "view",
      "type": "function"
    },
    {
      "inputs": [
        {
          "internalType": "uint256",
          "name": "_campaignId",
          "type": "uint256"
        }
      ],
      "name": "getBoxes",
      "outputs": [
        {
          "components": [
            {
              "internalType": "uint8",
              "name": "id",
              "type": "uint8"
            },
            {
              "internalType": "string",
              "name": "title",
              "type": "string"
            },
            {
              "internalType": "string",
              "name": "description",
              "type": "string"
            },
            {
              "internalType": "uint256",
              "name": "price",
              "type": "uint256"
            },
            {
              "internalType": "uint8",
              "name": "total",
              "type": "uint8"
            },
            {
              "internalType": "uint8",
              "name": "available",
              "type": "uint8"
            }
          ],
          "internalType": "struct Box[]",
          "name": "",
          "type": "tuple[]"
        }
      ],
      "stateMutability": "view",
      "type": "function"
    },
    {
      "inputs": [
        {
          "internalType": "uint256",
          "name": "_campaignId",
          "type": "uint256"
        }
      ],
      "name": "getSoldBoxes",
      "outputs": [
        {
          "components": [
            {
              "internalType": "uint16",
              "name": "id",
              "type": "uint16"
            },
            {
              "internalType": "uint8",
              "name": "boxId",
              "type": "uint8"
            },
            {
              "internalType": "address",
              "name": "owner",
              "type": "address"
            },
            {
              "internalType": "uint256",
              "name": "boughtAt",
              "type": "uint256"
            },
            {
              "internalType": "string",
              "name": "physAddress",
              "type": "string"
            }
          ],
          "internalType": "struct BoxSellRef[]",
          "name": "",
          "type": "tuple[]"
        }
      ],
      "stateMutability": "view",
      "type": "function"
    },
    {
      "inputs": [
        {
          "internalType": "uint256",
          "name": "_campaignId",
          "type": "uint256"
        }
      ],
      "name": "stopCampaign",
      "outputs": [],
      "stateMutability": "nonpayable",
      "type": "function"
    },
    {
      "inputs": [
        {
          "internalType": "uint256",
          "name": "_campaignId",
          "type": "uint256"
        },
        {
          "internalType": "uint8",
          "name": "_boxId",
          "type": "uint8"
        },
        {
          "internalType": "string",
          "name": "_physAddress",
          "type": "string"
        }
      ],
      "name": "buyBox",
      "outputs": [],
      "stateMutability": "payable",
      "type": "function"
    },
    {
      "inputs": [
        {
          "internalType": "uint256",
          "name": "_campaignId",
          "type": "uint256"
        }
      ],
      "name": "payOut",
      "outputs": [],
      "stateMutability": "nonpayable",
      "type": "function"
    }
  ],
  "bytecode": "0x608060405260006004553480156200001657600080fd5b50604051620048493803806200484983398181016040528101906200003c9190620000ed565b806000806101000a81548173ffffffffffffffffffffffffffffffffffffffff021916908373ffffffffffffffffffffffffffffffffffffffff160217905550506200011f565b600080fd5b600073ffffffffffffffffffffffffffffffffffffffff82169050919050565b6000620000b58262000088565b9050919050565b620000c781620000a8565b8114620000d357600080fd5b50565b600081519050620000e781620000bc565b92915050565b60006020828403121562000106576200010562000083565b5b60006200011684828501620000d6565b91505092915050565b61471a806200012f6000396000f3fe6080604052600436106100865760003560e01c806382fc7ddd1161005957806382fc7ddd1461014c578063a6b0363314610175578063da333ca6146101a0578063e4aafc2c146101c9578063ec6c8216146101f457610086565b80630764d62a1461008b5780633267f8ab146100b657806332e75749146100f35780633e8abf2214610130575b600080fd5b34801561009757600080fd5b506100a061021d565b6040516100ad9190612513565b60405180910390f35b3480156100c257600080fd5b506100dd60048036038101906100d89190612578565b610241565b6040516100ea91906127bb565b60405180910390f35b3480156100ff57600080fd5b5061011a60048036038101906101159190612578565b6104df565b6040516101279190612941565b60405180910390f35b61014a60048036038101906101459190612ac4565b61072a565b005b34801561015857600080fd5b50610173600480360381019061016e9190613011565b610bac565b005b34801561018157600080fd5b5061018a6112cd565b6040516101979190613517565b60405180910390f35b3480156101ac57600080fd5b506101c760048036038101906101c29190612578565b611bc1565b005b3480156101d557600080fd5b506101de611f8e565b6040516101eb9190613548565b60405180910390f35b34801561020057600080fd5b5061021b60048036038101906102169190612578565b611f98565b005b60008054906101000a900473ffffffffffffffffffffffffffffffffffffffff1681565b6060600060016000848152602001908152602001600020905060008160040160020160049054906101000a900460ff16905060008160ff1667ffffffffffffffff81111561029257610291612999565b5b6040519080825280602002602001820160405280156102cb57816020015b6102b8612224565b8152602001906001900390816102b05790505b50905060005b8260ff168160ff1610156104d35760006002600088815260200190815260200160002060008360ff1660ff1681526020019081526020016000209050806040518060c00160405290816000820160009054906101000a900460ff1660ff1660ff16815260200160018201805461034690613592565b80601f016020809104026020016040519081016040528092919081815260200182805461037290613592565b80156103bf5780601f10610394576101008083540402835291602001916103bf565b820191906000526020600020905b8154815290600101906020018083116103a257829003601f168201915b505050505081526020016002820180546103d890613592565b80601f016020809104026020016040519081016040528092919081815260200182805461040490613592565b80156104515780601f1061042657610100808354040283529160200191610451565b820191906000526020600020905b81548152906001019060200180831161043457829003601f168201915b50505050508152602001600382015481526020016004820160009054906101000a900460ff1660ff1660ff1681526020016004820160019054906101000a900460ff1660ff1660ff1681525050838360ff16815181106104b4576104b36135c3565b5b60200260200101819052505080806104cb90613621565b9150506102d1565b50809350505050919050565b6060600060016000848152602001908152602001600020905060008160040160020160029054906101000a900461ffff16905060008161ffff1667ffffffffffffffff81111561053257610531612999565b5b60405190808252806020026020018201604052801561056b57816020015b610558612263565b8152602001906001900390816105505790505b50905060005b8261ffff168161ffff16101561071e5760006003600088815260200190815260200160002060008361ffff1681526020019081526020016000209050806040518060a00160405290816000820160009054906101000a900461ffff1661ffff1661ffff1681526020016000820160029054906101000a900460ff1660ff1660ff1681526020016000820160039054906101000a900473ffffffffffffffffffffffffffffffffffffffff1673ffffffffffffffffffffffffffffffffffffffff1673ffffffffffffffffffffffffffffffffffffffff1681526020016001820154815260200160028201805461066690613592565b80601f016020809104026020016040519081016040528092919081815260200182805461069290613592565b80156106df5780601f106106b4576101008083540402835291602001916106df565b820191906000526020600020905b8154815290600101906020018083116106c257829003601f168201915b505050505081525050838361ffff16815181106106ff576106fe6135c3565b5b60200260200101819052505080806107169061364a565b915050610571565b50809350505050919050565b60006001600085815260200190815260200160002090508060040160020160059054906101000a900460ff1615610796576040517f08c379a000000000000000000000000000000000000000000000000000000000815260040161078d906136d1565b60405180910390fd5b428160010160020154116107df576040517f08c379a00000000000000000000000000000000000000000000000000000000081526004016107d69061373d565b60405180910390fd5b60006002600086815260200190815260200160002060008560ff1660ff16815260200190815260200160002090508360ff168160000160009054906101000a900460ff1660ff1614610866576040517f08c379a000000000000000000000000000000000000000000000000000000000815260040161085d906137a9565b60405180910390fd5b60008160040160019054906101000a900460ff1660ff16116108bd576040517f08c379a00000000000000000000000000000000000000000000000000000000081526004016108b49061383b565b60405180910390fd5b60003490508160030154811015610909576040517f08c379a0000000000000000000000000000000000000000000000000000000008152600401610900906138a7565b60405180910390fd5b60008360040160020160029054906101000a900461ffff16905060006003600089815260200190815260200160002060008660040160020160029054906101000a900461ffff1661ffff16815260200190815260200160002090508360000160009054906101000a900460ff168160000160026101000a81548160ff021916908360ff160217905550818160000160006101000a81548161ffff021916908361ffff160217905550338160000160036101000a81548173ffffffffffffffffffffffffffffffffffffffff021916908373ffffffffffffffffffffffffffffffffffffffff16021790555085816002019080519060200190610a0c9291906122af565b5042816001018190555060018460040160018282829054906101000a900460ff16610a3791906138c7565b92506101000a81548160ff021916908360ff160217905550600085600401905060018160020160028282829054906101000a900461ffff16610a7991906138fb565b92506101000a81548161ffff021916908361ffff16021790555083816000016000828254610aa79190613933565b925050819055508560040160020160009054906101000a900461ffff1661ffff168660040160020160029054906101000a900461ffff1661ffff1603610ba15760018660040160020160056101000a81548160ff02191690831515021790555060008054906101000a900473ffffffffffffffffffffffffffffffffffffffff1673ffffffffffffffffffffffffffffffffffffffff1663606e9c5e87610b5189600001546104df565b6040518363ffffffff1660e01b8152600401610b6e929190613ef2565b600060405180830381600087803b158015610b8857600080fd5b505af1158015610b9c573d6000803e3d6000fd5b505050505b505050505050505050565b60008563ffffffff1611610bf5576040517f08c379a0000000000000000000000000000000000000000000000000000000008152600401610bec90613f75565b60405180910390fd5b62375f008563ffffffff161115610c41576040517f08c379a0000000000000000000000000000000000000000000000000000000008152600401610c3890614007565b60405180910390fd5b600042905060008663ffffffff1682610c5a9190613933565b9050818111610c9e576040517f08c379a0000000000000000000000000000000000000000000000000000000008152600401610c9590614073565b60405180910390fd5b60ff801683511115610ce5576040517f08c379a0000000000000000000000000000000000000000000000000000000008152600401610cdc90614105565b60405180910390fd5b6000805b84518160ff161015610eb5576000858260ff1681518110610d0d57610d0c6135c3565b5b602002602001015190506000816080015160ff1611610d61576040517f08c379a0000000000000000000000000000000000000000000000000000000008152600401610d5890614197565b60405180910390fd5b8060a0015160ff16816080015160ff1614610db1576040517f08c379a0000000000000000000000000000000000000000000000000000000008152600401610da890614229565b60405180910390fd5b806080015160ff1683610dc491906138fb565b9250806002600060045481526020019081526020016000206000836000015160ff1660ff16815260200190815260200160002060008201518160000160006101000a81548160ff021916908360ff1602179055506020820151816001019080519060200190610e349291906122af565b506040820151816002019080519060200190610e519291906122af565b506060820151816003015560808201518160040160006101000a81548160ff021916908360ff16021790555060a08201518160040160016101000a81548160ff021916908360ff160217905550905050508080610ead90613621565b915050610ce9565b5060008161ffff1611610efd576040517f08c379a0000000000000000000000000000000000000000000000000000000008152600401610ef4906142bb565b60405180910390fd5b600060016000600454815260200190815260200160002090506004548160000181905550878160070160008201518160000160006101000a81548173ffffffffffffffffffffffffffffffffffffffff021916908373ffffffffffffffffffffffffffffffffffffffff1602179055506020820151816001019080519060200190610f899291906122af565b509050508a816001016000019080519060200190610fa89291906122af565b5089816001016001019080519060200190610fc49291906122af565b508281600101600201819055504281600401600101819055506000816004016000018190555060008160040160020160056101000a81548160ff021916908315150217905550818160040160020160006101000a81548161ffff021916908361ffff16021790555060008160040160020160026101000a81548161ffff021916908361ffff16021790555084518160040160020160046101000a81548160ff021916908360ff160217905550858160090160008201518160000190805190602001906110919291906122af565b5060208201518160010190805190602001906110ae9291906122af565b5060408201518160020190805190602001906110cb9291906122af565b5060608201518160030160006101000a81548160ff021916908360ff1602179055509050508681600d0160008201518160000160008201518160000160006101000a81548173ffffffffffffffffffffffffffffffffffffffff021916908373ffffffffffffffffffffffffffffffffffffffff16021790555060208201518160000160146101000a81548160ff021916908360ff16021790555060408201518160010190805190602001906111829291906122af565b50505060208201518160020160008201518160000160006101000a81548173ffffffffffffffffffffffffffffffffffffffff021916908373ffffffffffffffffffffffffffffffffffffffff16021790555060208201518160000160146101000a81548160ff021916908360ff16021790555060408201518160010190805190602001906112129291906122af565b50505060408201518160040160008201518160000160006101000a81548173ffffffffffffffffffffffffffffffffffffffff021916908373ffffffffffffffffffffffffffffffffffffffff16021790555060208201518160000160146101000a81548160ff021916908360ff16021790555060408201518160010190805190602001906112a29291906122af565b505050905050600460008154809291906112bb906142db565b91905055505050505050505050505050565b6060600060045467ffffffffffffffff8111156112ed576112ec612999565b5b60405190808252806020026020018201604052801561132657816020015b611313612335565b81526020019060019003908161130b5790505b50905060005b600454811015611bb9576000600160008381526020019081526020016000209050806040518060c0016040529081600082015481526020016001820160405180606001604052908160008201805461138390613592565b80601f01602080910402602001604051908101604052809291908181526020018280546113af90613592565b80156113fc5780601f106113d1576101008083540402835291602001916113fc565b820191906000526020600020905b8154815290600101906020018083116113df57829003601f168201915b5050505050815260200160018201805461141590613592565b80601f016020809104026020016040519081016040528092919081815260200182805461144190613592565b801561148e5780601f106114635761010080835404028352916020019161148e565b820191906000526020600020905b81548152906001019060200180831161147157829003601f168201915b505050505081526020016002820154815250508152602001600482016040518060c001604052908160008201548152602001600182015481526020016002820160009054906101000a900461ffff1661ffff1661ffff1681526020016002820160029054906101000a900461ffff1661ffff1661ffff1681526020016002820160049054906101000a900460ff1660ff1660ff1681526020016002820160059054906101000a900460ff1615151515815250508152602001600782016040518060400160405290816000820160009054906101000a900473ffffffffffffffffffffffffffffffffffffffff1673ffffffffffffffffffffffffffffffffffffffff1673ffffffffffffffffffffffffffffffffffffffff1681526020016001820180546115bb90613592565b80601f01602080910402602001604051908101604052809291908181526020018280546115e790613592565b80156116345780601f1061160957610100808354040283529160200191611634565b820191906000526020600020905b81548152906001019060200180831161161757829003601f168201915b50505050508152505081526020016009820160405180608001604052908160008201805461166190613592565b80601f016020809104026020016040519081016040528092919081815260200182805461168d90613592565b80156116da5780601f106116af576101008083540402835291602001916116da565b820191906000526020600020905b8154815290600101906020018083116116bd57829003601f168201915b505050505081526020016001820180546116f390613592565b80601f016020809104026020016040519081016040528092919081815260200182805461171f90613592565b801561176c5780601f106117415761010080835404028352916020019161176c565b820191906000526020600020905b81548152906001019060200180831161174f57829003601f168201915b5050505050815260200160028201805461178590613592565b80601f01602080910402602001604051908101604052809291908181526020018280546117b190613592565b80156117fe5780601f106117d3576101008083540402835291602001916117fe565b820191906000526020600020905b8154815290600101906020018083116117e157829003601f168201915b505050505081526020016003820160009054906101000a900460ff1660ff1660ff16815250508152602001600d8201604051806060016040529081600082016040518060600160405290816000820160009054906101000a900473ffffffffffffffffffffffffffffffffffffffff1673ffffffffffffffffffffffffffffffffffffffff1673ffffffffffffffffffffffffffffffffffffffff1681526020016000820160149054906101000a900460ff1660ff1660ff1681526020016001820180546118cb90613592565b80601f01602080910402602001604051908101604052809291908181526020018280546118f790613592565b80156119445780601f1061191957610100808354040283529160200191611944565b820191906000526020600020905b81548152906001019060200180831161192757829003601f168201915b5050505050815250508152602001600282016040518060600160405290816000820160009054906101000a900473ffffffffffffffffffffffffffffffffffffffff1673ffffffffffffffffffffffffffffffffffffffff1673ffffffffffffffffffffffffffffffffffffffff1681526020016000820160149054906101000a900460ff1660ff1660ff1681526020016001820180546119e490613592565b80601f0160208091040260200160405190810160405280929190818152602001828054611a1090613592565b8015611a5d5780601f10611a3257610100808354040283529160200191611a5d565b820191906000526020600020905b815481529060010190602001808311611a4057829003601f168201915b5050505050815250508152602001600482016040518060600160405290816000820160009054906101000a900473ffffffffffffffffffffffffffffffffffffffff1673ffffffffffffffffffffffffffffffffffffffff1673ffffffffffffffffffffffffffffffffffffffff1681526020016000820160149054906101000a900460ff1660ff1660ff168152602001600182018054611afd90613592565b80601f0160208091040260200160405190810160405280929190818152602001828054611b2990613592565b8015611b765780601f10611b4b57610100808354040283529160200191611b76565b820191906000526020600020905b815481529060010190602001808311611b5957829003601f168201915b5050505050815250508152505081525050838381518110611b9a57611b996135c3565b5b6020026020010181905250508080611bb1906142db565b91505061132c565b508091505090565b60006001600083815260200190815260200160002090508060040160020160059054906101000a900460ff16611c2c576040517f08c379a0000000000000000000000000000000000000000000000000000000008152600401611c239061436f565b60405180910390fd5b8060040160020160009054906101000a900461ffff1661ffff168160040160020160029054906101000a900461ffff1661ffff1614611ca0576040517f08c379a0000000000000000000000000000000000000000000000000000000008152600401611c97906143db565b60405180910390fd5b60008054906101000a900473ffffffffffffffffffffffffffffffffffffffff1673ffffffffffffffffffffffffffffffffffffffff16637a41984b82600001546040518263ffffffff1660e01b8152600401611cfd9190613548565b602060405180830381865afa158015611d1a573d6000803e3d6000fd5b505050506040513d601f19601f82011682018060405250810190611d3e9190614427565b611d7d576040517f08c379a0000000000000000000000000000000000000000000000000000000008152600401611d74906144a0565b60405180910390fd5b6000606482600d0160000160000160149054906101000a900460ff1660ff168360040160000154611dae91906144c0565b611db89190614549565b90506000606483600d0160020160000160149054906101000a900460ff1660ff168460040160000154611deb91906144c0565b611df59190614549565b90506000606484600d0160040160000160149054906101000a900460ff1660ff168560040160000154611e2891906144c0565b611e329190614549565b905083600d0160000160000160009054906101000a900473ffffffffffffffffffffffffffffffffffffffff1673ffffffffffffffffffffffffffffffffffffffff166108fc849081150290604051600060405180830381858888f19350505050158015611ea4573d6000803e3d6000fd5b5083600d0160020160000160009054906101000a900473ffffffffffffffffffffffffffffffffffffffff1673ffffffffffffffffffffffffffffffffffffffff166108fc839081150290604051600060405180830381858888f19350505050158015611f15573d6000803e3d6000fd5b5083600d0160040160000160009054906101000a900473ffffffffffffffffffffffffffffffffffffffff1673ffffffffffffffffffffffffffffffffffffffff166108fc829081150290604051600060405180830381858888f19350505050158015611f86573d6000803e3d6000fd5b505050505050565b6000600454905090565b60006001600083815260200190815260200160002090508060040160020160059054906101000a900460ff1615612004576040517f08c379a0000000000000000000000000000000000000000000000000000000008152600401611ffb906145c6565b60405180910390fd5b4281600101600201541161204d576040517f08c379a000000000000000000000000000000000000000000000000000000000815260040161204490614632565b60405180910390fd5b8060070160000160009054906101000a900473ffffffffffffffffffffffffffffffffffffffff1673ffffffffffffffffffffffffffffffffffffffff163373ffffffffffffffffffffffffffffffffffffffff16146120e2576040517f08c379a00000000000000000000000000000000000000000000000000000000081526004016120d9906146c4565b60405180910390fd5b60008160040160020160029054906101000a900461ffff16905060005b8161ffff168161ffff1610156121fe5760006003600086815260200190815260200160002060008361ffff168152602001908152602001600020905060006002600087815260200190815260200160002060008360000160029054906101000a900460ff1660ff1660ff16815260200190815260200160002090508160000160039054906101000a900473ffffffffffffffffffffffffffffffffffffffff1673ffffffffffffffffffffffffffffffffffffffff166108fc82600301549081150290604051600060405180830381858888f193505050501580156121e8573d6000803e3d6000fd5b50505080806121f69061364a565b9150506120ff565b5060018260040160020160056101000a81548160ff021916908315150217905550505050565b6040518060c00160405280600060ff168152602001606081526020016060815260200160008152602001600060ff168152602001600060ff1681525090565b6040518060a00160405280600061ffff168152602001600060ff168152602001600073ffffffffffffffffffffffffffffffffffffffff16815260200160008152602001606081525090565b8280546122bb90613592565b90600052602060002090601f0160209004810192826122dd5760008555612324565b82601f106122f657805160ff1916838001178555612324565b82800160010185558215612324579182015b82811115612323578251825591602001919060010190612308565b5b5090506123319190612389565b5090565b6040518060c001604052806000815260200161234f6123a6565b815260200161235c6123c7565b815260200161236961240a565b815260200161237661243a565b8152602001612383612465565b81525090565b5b808211156123a257600081600090555060010161238a565b5090565b60405180606001604052806060815260200160608152602001600081525090565b6040518060c001604052806000815260200160008152602001600061ffff168152602001600061ffff168152602001600060ff1681526020016000151581525090565b6040518060400160405280600073ffffffffffffffffffffffffffffffffffffffff168152602001606081525090565b6040518060800160405280606081526020016060815260200160608152602001600060ff1681525090565b6040518060600160405280612478612498565b8152602001612485612498565b8152602001612492612498565b81525090565b6040518060600160405280600073ffffffffffffffffffffffffffffffffffffffff168152602001600060ff168152602001606081525090565b600073ffffffffffffffffffffffffffffffffffffffff82169050919050565b60006124fd826124d2565b9050919050565b61250d816124f2565b82525050565b60006020820190506125286000830184612504565b92915050565b6000604051905090565b600080fd5b600080fd5b6000819050919050565b61255581612542565b811461256057600080fd5b50565b6000813590506125728161254c565b92915050565b60006020828403121561258e5761258d612538565b5b600061259c84828501612563565b91505092915050565b600081519050919050565b600082825260208201905092915050565b6000819050602082019050919050565b600060ff82169050919050565b6125e7816125d1565b82525050565b600081519050919050565b600082825260208201905092915050565b60005b8381101561262757808201518184015260208101905061260c565b83811115612636576000848401525b50505050565b6000601f19601f8301169050919050565b6000612658826125ed565b61266281856125f8565b9350612672818560208601612609565b61267b8161263c565b840191505092915050565b61268f81612542565b82525050565b600060c0830160008301516126ad60008601826125de565b50602083015184820360208601526126c5828261264d565b915050604083015184820360408601526126df828261264d565b91505060608301516126f46060860182612686565b50608083015161270760808601826125de565b5060a083015161271a60a08601826125de565b508091505092915050565b60006127318383612695565b905092915050565b6000602082019050919050565b6000612751826125a5565b61275b81856125b0565b93508360208202850161276d856125c1565b8060005b858110156127a9578484038952815161278a8582612725565b945061279583612739565b925060208a01995050600181019050612771565b50829750879550505050505092915050565b600060208201905081810360008301526127d58184612746565b905092915050565b600081519050919050565b600082825260208201905092915050565b6000819050602082019050919050565b600061ffff82169050919050565b61282081612809565b82525050565b61282f816124f2565b82525050565b600060a08301600083015161284d6000860182612817565b50602083015161286060208601826125de565b5060408301516128736040860182612826565b5060608301516128866060860182612686565b506080830151848203608086015261289e828261264d565b9150508091505092915050565b60006128b78383612835565b905092915050565b6000602082019050919050565b60006128d7826127dd565b6128e181856127e8565b9350836020820285016128f3856127f9565b8060005b8581101561292f578484038952815161291085826128ab565b945061291b836128bf565b925060208a019950506001810190506128f7565b50829750879550505050505092915050565b6000602082019050818103600083015261295b81846128cc565b905092915050565b61296c816125d1565b811461297757600080fd5b50565b60008135905061298981612963565b92915050565b600080fd5b600080fd5b7f4e487b7100000000000000000000000000000000000000000000000000000000600052604160045260246000fd5b6129d18261263c565b810181811067ffffffffffffffff821117156129f0576129ef612999565b5b80604052505050565b6000612a0361252e565b9050612a0f82826129c8565b919050565b600067ffffffffffffffff821115612a2f57612a2e612999565b5b612a388261263c565b9050602081019050919050565b82818337600083830152505050565b6000612a67612a6284612a14565b6129f9565b905082815260208101848484011115612a8357612a82612994565b5b612a8e848285612a45565b509392505050565b600082601f830112612aab57612aaa61298f565b5b8135612abb848260208601612a54565b91505092915050565b600080600060608486031215612add57612adc612538565b5b6000612aeb86828701612563565b9350506020612afc8682870161297a565b925050604084013567ffffffffffffffff811115612b1d57612b1c61253d565b5b612b2986828701612a96565b9150509250925092565b600063ffffffff82169050919050565b612b4c81612b33565b8114612b5757600080fd5b50565b600081359050612b6981612b43565b92915050565b600080fd5b600080fd5b612b82816124f2565b8114612b8d57600080fd5b50565b600081359050612b9f81612b79565b92915050565b600060408284031215612bbb57612bba612b6f565b5b612bc560406129f9565b90506000612bd584828501612b90565b600083015250602082013567ffffffffffffffff811115612bf957612bf8612b74565b5b612c0584828501612a96565b60208301525092915050565b6000612c1c826124d2565b9050919050565b612c2c81612c11565b8114612c3757600080fd5b50565b600081359050612c4981612c23565b92915050565b600060608284031215612c6557612c64612b6f565b5b612c6f60606129f9565b90506000612c7f84828501612c3a565b6000830152506020612c938482850161297a565b602083015250604082013567ffffffffffffffff811115612cb757612cb6612b74565b5b612cc384828501612a96565b60408301525092915050565b600060608284031215612ce557612ce4612b6f565b5b612cef60606129f9565b9050600082013567ffffffffffffffff811115612d0f57612d0e612b74565b5b612d1b84828501612c4f565b600083015250602082013567ffffffffffffffff811115612d3f57612d3e612b74565b5b612d4b84828501612c4f565b602083015250604082013567ffffffffffffffff811115612d6f57612d6e612b74565b5b612d7b84828501612c4f565b60408301525092915050565b600060808284031215612d9d57612d9c612b6f565b5b612da760806129f9565b9050600082013567ffffffffffffffff811115612dc757612dc6612b74565b5b612dd384828501612a96565b600083015250602082013567ffffffffffffffff811115612df757612df6612b74565b5b612e0384828501612a96565b602083015250604082013567ffffffffffffffff811115612e2757612e26612b74565b5b612e3384828501612a96565b6040830152506060612e478482850161297a565b60608301525092915050565b600067ffffffffffffffff821115612e6e57612e6d612999565b5b602082029050602081019050919050565b600080fd5b600060c08284031215612e9a57612e99612b6f565b5b612ea460c06129f9565b90506000612eb48482850161297a565b600083015250602082013567ffffffffffffffff811115612ed857612ed7612b74565b5b612ee484828501612a96565b602083015250604082013567ffffffffffffffff811115612f0857612f07612b74565b5b612f1484828501612a96565b6040830152506060612f2884828501612563565b6060830152506080612f3c8482850161297a565b60808301525060a0612f508482850161297a565b60a08301525092915050565b6000612f6f612f6a84612e53565b6129f9565b90508083825260208201905060208402830185811115612f9257612f91612e7f565b5b835b81811015612fd957803567ffffffffffffffff811115612fb757612fb661298f565b5b808601612fc48982612e84565b85526020850194505050602081019050612f94565b5050509392505050565b600082601f830112612ff857612ff761298f565b5b8135613008848260208601612f5c565b91505092915050565b600080600080600080600060e0888a0312156130305761302f612538565b5b600088013567ffffffffffffffff81111561304e5761304d61253d565b5b61305a8a828b01612a96565b975050602088013567ffffffffffffffff81111561307b5761307a61253d565b5b6130878a828b01612a96565b96505060406130988a828b01612b5a565b955050606088013567ffffffffffffffff8111156130b9576130b861253d565b5b6130c58a828b01612ba5565b945050608088013567ffffffffffffffff8111156130e6576130e561253d565b5b6130f28a828b01612ccf565b93505060a088013567ffffffffffffffff8111156131135761311261253d565b5b61311f8a828b01612d87565b92505060c088013567ffffffffffffffff8111156131405761313f61253d565b5b61314c8a828b01612fe3565b91505092959891949750929550565b600081519050919050565b600082825260208201905092915050565b6000819050602082019050919050565b600060608301600083015184820360008601526131a4828261264d565b915050602083015184820360208601526131be828261264d565b91505060408301516131d36040860182612686565b508091505092915050565b60008115159050919050565b6131f3816131de565b82525050565b60c08201600082015161320f6000850182612686565b5060208201516132226020850182612686565b5060408201516132356040850182612817565b5060608201516132486060850182612817565b50608082015161325b60808501826125de565b5060a082015161326e60a08501826131ea565b50505050565b600060408301600083015161328c6000860182612826565b50602083015184820360208601526132a4828261264d565b9150508091505092915050565b600060808301600083015184820360008601526132ce828261264d565b915050602083015184820360208601526132e8828261264d565b91505060408301518482036040860152613302828261264d565b915050606083015161331760608601826125de565b508091505092915050565b61332b81612c11565b82525050565b60006060830160008301516133496000860182613322565b50602083015161335c60208601826125de565b5060408301518482036040860152613374828261264d565b9150508091505092915050565b6000606083016000830151848203600086015261339e8282613331565b915050602083015184820360208601526133b88282613331565b915050604083015184820360408601526133d28282613331565b9150508091505092915050565b6000610160830160008301516133f86000860182612686565b50602083015184820360208601526134108282613187565b915050604083015161342560408601826131f9565b50606083015184820361010086015261343e8282613274565b915050608083015184820361012086015261345982826132b1565b91505060a08301518482036101408601526134748282613381565b9150508091505092915050565b600061348d83836133df565b905092915050565b6000602082019050919050565b60006134ad8261315b565b6134b78185613166565b9350836020820285016134c985613177565b8060005b8581101561350557848403895281516134e68582613481565b94506134f183613495565b925060208a019950506001810190506134cd565b50829750879550505050505092915050565b6000602082019050818103600083015261353181846134a2565b905092915050565b61354281612542565b82525050565b600060208201905061355d6000830184613539565b92915050565b7f4e487b7100000000000000000000000000000000000000000000000000000000600052602260045260246000fd5b600060028204905060018216806135aa57607f821691505b6020821081036135bd576135bc613563565b5b50919050565b7f4e487b7100000000000000000000000000000000000000000000000000000000600052603260045260246000fd5b7f4e487b7100000000000000000000000000000000000000000000000000000000600052601160045260246000fd5b600061362c826125d1565b915060ff820361363f5761363e6135f2565b5b600182019050919050565b600061365582612809565b915061ffff8203613669576136686135f2565b5b600182019050919050565b600082825260208201905092915050565b7f546869732063616d706169676e206861732073746f7070656400000000000000600082015250565b60006136bb601983613674565b91506136c682613685565b602082019050919050565b600060208201905081810360008301526136ea816136ae565b9050919050565b7f546869732063616d706169676e20697320616c7265616479206f766572000000600082015250565b6000613727601d83613674565b9150613732826136f1565b602082019050919050565b600060208201905081810360008301526137568161371a565b9050919050565b7f54686520626f7820494420697320696e76616c69640000000000000000000000600082015250565b6000613793601583613674565b915061379e8261375d565b602082019050919050565b600060208201905081810360008301526137c281613786565b9050919050565b7f416c6c20626f786573206f66207468697320747970652068617665206265656e60008201527f20736f6c64000000000000000000000000000000000000000000000000000000602082015250565b6000613825602583613674565b9150613830826137c9565b604082019050919050565b6000602082019050818103600083015261385481613818565b9050919050565b7f476976656e20616d6f756e742069732062656c6f7720626f7820707269636500600082015250565b6000613891601f83613674565b915061389c8261385b565b602082019050919050565b600060208201905081810360008301526138c081613884565b9050919050565b60006138d2826125d1565b91506138dd836125d1565b9250828210156138f0576138ef6135f2565b5b828203905092915050565b600061390682612809565b915061391183612809565b92508261ffff03821115613928576139276135f2565b5b828201905092915050565b600061393e82612542565b915061394983612542565b9250827fffffffffffffffffffffffffffffffffffffffffffffffffffffffffffffffff0382111561397e5761397d6135f2565b5b828201905092915050565b60008160001c9050919050565b6000819050919050565b60006139b36139ae83613989565b613996565b9050919050565b60008190508160005260206000209050919050565b600081546139dc81613592565b6139e681866125f8565b94506001821660008114613a015760018114613a1357613a46565b60ff1983168652602086019350613a46565b613a1c856139ba565b60005b83811015613a3e57815481890152600182019150602081019050613a1f565b808801955050505b50505092915050565b60006060830160008084018583036000870152613a6c83826139cf565b925050600184018583036020870152613a8583826139cf565b92505060028401549050613a98816139a0565b613aa56040870182612686565b50819250505092915050565b600061ffff82169050919050565b6000613ad2613acd83613989565b613ab1565b9050919050565b60008160101c9050919050565b6000613af9613af483613ad9565b613ab1565b9050919050565b60008160201c9050919050565b600060ff82169050919050565b6000613b2d613b2883613b00565b613b0d565b9050919050565b60008160281c9050919050565b600060ff82169050919050565b6000613b61613b5c83613b34565b613b41565b9050919050565b60c082016000808301549050613b7d816139a0565b613b8a6000860182612686565b5060018301549050613b9b816139a0565b613ba86020860182612686565b5060028301549050613bb981613abf565b613bc66040860182612817565b50613bd081613ae6565b613bdd6060860182612817565b50613be781613b1a565b613bf460808601826125de565b50613bfe81613b4e565b613c0b60a08601826131ea565b5050505050565b600073ffffffffffffffffffffffffffffffffffffffff82169050919050565b6000613c45613c4083613989565b613c12565b9050919050565b6000604083016000808401549050613c6381613c32565b613c706000870182612826565b50600184018583036020870152613c8783826139cf565b925050819250505092915050565b6000613ca8613ca383613989565b613b0d565b9050919050565b60006080830160008084018583036000870152613ccc83826139cf565b925050600184018583036020870152613ce583826139cf565b925050600284018583036040870152613cfe83826139cf565b92505060038401549050613d1181613c95565b613d1e60608701826125de565b50819250505092915050565b600073ffffffffffffffffffffffffffffffffffffffff82169050919050565b6000613d5d613d5883613989565b613d2a565b9050919050565b60008160a01c9050919050565b6000613d84613d7f83613d64565b613b0d565b9050919050565b6000606083016000808401549050613da281613d4a565b613daf6000870182613322565b50613db981613d71565b613dc660208701826125de565b50600184018583036040870152613ddd83826139cf565b925050819250505092915050565b60006060830160008084018583036000870152613e088382613d8b565b925050600284018583036020870152613e218382613d8b565b925050600484018583036040870152613e3a8382613d8b565b925050819250505092915050565b600061016083016000808401549050613e60816139a0565b613e6d6000870182612686565b50600184018583036020870152613e848382613a4f565b92505060048401613e986040870182613b68565b5060078401858303610100870152613eb08382613c4c565b92505060098401858303610120870152613eca8382613caf565b925050600d8401858303610140870152613ee48382613deb565b925050819250505092915050565b60006040820190508181036000830152613f0c8185613e48565b90508181036020830152613f2081846128cc565b90509392505050565b7f4475726174696f6e206d75737420626520686967686572207468616e20300000600082015250565b6000613f5f601e83613674565b9150613f6a82613f29565b602082019050919050565b60006020820190508181036000830152613f8e81613f52565b9050919050565b7f4475726174696f6e2063616e277420626520686967686572207468616e20362060008201527f7765656b73000000000000000000000000000000000000000000000000000000602082015250565b6000613ff1602583613674565b9150613ffc82613f95565b604082019050919050565b6000602082019050818103600083015261402081613fe4565b9050919050565b7f446561646c696e65206d75737420626520696e20746865206675747572650000600082015250565b600061405d601e83613674565b915061406882614027565b602082019050919050565b6000602082019050818103600083015261408c81614050565b9050919050565b7f4e756d626572206f6620626f7865732063616e2774206265206869676865722060008201527f7468616e2028325e38292d310000000000000000000000000000000000000000602082015250565b60006140ef602c83613674565b91506140fa82614093565b604082019050919050565b6000602082019050818103600083015261411e816140e2565b9050919050565b7f5468657265206d757374206265206174206c65617374206f6e6520706965636560008201527f206f66206561636820626f780000000000000000000000000000000000000000602082015250565b6000614181602c83613674565b915061418c82614125565b604082019050919050565b600060208201905081810360008301526141b081614174565b9050919050565b7f496e697469616c6c7920746f74616c20616e6420617661696c61626c65206f6660008201527f206120626f78206d75737420626520657175616c000000000000000000000000602082015250565b6000614213603483613674565b915061421e826141b7565b604082019050919050565b6000602082019050818103600083015261424281614206565b9050919050565b7f5468657265206d757374206265206174206c65617374206f6e6520626f78206960008201527f6e20746f74616c00000000000000000000000000000000000000000000000000602082015250565b60006142a5602783613674565b91506142b082614249565b604082019050919050565b600060208201905081810360008301526142d481614298565b9050919050565b60006142e682612542565b91507fffffffffffffffffffffffffffffffffffffffffffffffffffffffffffffffff8203614318576143176135f2565b5b600182019050919050565b7f5468652063616d706169676e206d7573742062652066696e6973686564000000600082015250565b6000614359601d83613674565b915061436482614323565b602082019050919050565b600060208201905081810360008301526143888161434c565b9050919050565b7f54686572652063616e277420626520616e7920626f786573206c656674000000600082015250565b60006143c5601d83613674565b91506143d08261438f565b602082019050919050565b600060208201905081810360008301526143f4816143b8565b9050919050565b614404816131de565b811461440f57600080fd5b50565b600081519050614421816143fb565b92915050565b60006020828403121561443d5761443c612538565b5b600061444b84828501614412565b91505092915050565b7f537570706c7920636861696e206d75737420626520636f6d706c657465640000600082015250565b600061448a601e83613674565b915061449582614454565b602082019050919050565b600060208201905081810360008301526144b98161447d565b9050919050565b60006144cb82612542565b91506144d683612542565b9250817fffffffffffffffffffffffffffffffffffffffffffffffffffffffffffffffff048311821515161561450f5761450e6135f2565b5b828202905092915050565b7f4e487b7100000000000000000000000000000000000000000000000000000000600052601260045260246000fd5b600061455482612542565b915061455f83612542565b92508261456f5761456e61451a565b5b828204905092915050565b7f43616d706169676e20616c72656164792073746f707065640000000000000000600082015250565b60006145b0601883613674565b91506145bb8261457a565b602082019050919050565b600060208201905081810360008301526145df816145a3565b9050919050565b7f546869732063616d706169676e206973206f7665720000000000000000000000600082015250565b600061461c601583613674565b9150614627826145e6565b602082019050919050565b6000602082019050818103600083015261464b8161460f565b9050919050565b7f4f6e6c7920746865206f776e65722063616e2073746f7020612063616d70616960008201527f676e000000000000000000000000000000000000000000000000000000000000602082015250565b60006146ae602283613674565b91506146b982614652565b604082019050919050565b600060208201905081810360008301526146dd816146a1565b905091905056fea2646970667358221220c379448fa00f8bcc78660a285f3ca3a06d93eba4fd37104bef2072bd596b7dc364736f6c634300080d0033",
  "immutableReferences": {},
  "source": "// SPDX-License-Identifier: AGPL\npragma solidity ^0.8.13;\n\nimport \"./CrowdfundingTypes.sol\";\nimport \"./SupplyChains.sol\";\n\ncontract Crowdfunding {\n    // address of the supply chain contract\n    address public supplychainAddress;\n\n    // all campaigns\n    mapping(uint256 => Campaign) campaigns;\n    // Boxes of each campaign\n    mapping(uint256 => mapping(uint8 => Box)) boxes;\n    // Sold boxes of each campaign (campignId => sellId => BoxSellRef)\n    mapping(uint256 => mapping(uint256 => BoxSellRef)) soldBoxes;\n\n    uint256 numberOfCampaigns = 0;\n\n    // retrieve supply chain contract address from truffle deployment\n    constructor(address _supplychainAddress) {\n        supplychainAddress = _supplychainAddress;\n    }\n\n    /**\n     * Creates a new campaign\n     */\n    function createCampaign(\n        string memory _title,\n        string memory _description,\n        uint32 _duration,\n        CampaignOwner memory _campaignOwner,\n        StakeholderList memory _stakeholders,\n        CampaignAnimalData memory _animal,\n        Box[] memory _boxes\n    ) public {\n        // check crowdfunding duration\n        require(_duration > 0, \"Duration must be higher than 0\");\n        require(_duration <= 6 weeks, \"Duration can't be higher than 6 weeks\");\n\n        // create deadline by adding the duration to the current timestamp\n        uint256 current = block.timestamp;\n        uint256 deadline = current + _duration;\n\n        // validate\n        require(deadline > current, \"Deadline must be in the future\");\n\n        // add boxes to campaign\n        require(_boxes.length <= type(uint8).max, \"Number of boxes can't be higher than (2^8)-1\");\n        uint16 totalNumOfBoxes = 0;\n        for (uint8 index = 0; index < _boxes.length; index++) {\n            Box memory box = _boxes[index];\n            require(\n                box.total > 0,\n                \"There must be at least one piece of each box\"\n            );\n            require(\n                box.total == box.available,\n                \"Initially total and available of a box must be equal\"\n            );\n            totalNumOfBoxes += box.total;\n            boxes[numberOfCampaigns][box.id] = box;\n        }\n        require(totalNumOfBoxes > 0, \"There must be at least one box in total\");\n\n        Campaign storage campaign = campaigns[numberOfCampaigns];\n        campaign.id = numberOfCampaigns;\n        campaign.owner = _campaignOwner;\n        campaign.info.title = _title;\n        campaign.info.description = _description;\n        campaign.info.deadline = deadline;\n        campaign.meta.createdAt = block.timestamp;\n        campaign.meta.collectedAmount = 0;\n        campaign.meta.isStopped = false;\n        campaign.meta.totalBoxes = totalNumOfBoxes;\n        campaign.meta.boxesSold = 0;\n        campaign.meta.totalBoxTypes = uint8(_boxes.length);\n        campaign.animal = _animal;\n        campaign.stakeholders = _stakeholders;\n\n        // increase total num of campaigns\n        numberOfCampaigns++;\n    }\n\n    /**\n     * Returns the total number of campaigns\n     */\n    function getNumberOfCampaigns() public view returns (uint256) {\n        return numberOfCampaigns;\n    }\n\n    /**\n     * Returns all campaigns\n     */\n    function getCampaigns() public view returns (Campaign[] memory) {\n        Campaign[] memory allCampaigns = new Campaign[](numberOfCampaigns);\n        for (uint256 index = 0; index < numberOfCampaigns; index++) {\n            Campaign storage campaign = campaigns[index];\n            allCampaigns[index] = campaign;\n        }\n        return allCampaigns;\n    }\n\n    /**\n     * Returns all boxes of a specific campaign\n     */\n    function getBoxes(uint256 _campaignId) public view returns (Box[] memory) {\n        Campaign storage campaign = campaigns[_campaignId];\n        uint8 totalBoxTypes = campaign.meta.totalBoxTypes;\n        Box[] memory boxesOfCampaign = new Box[](totalBoxTypes);\n        for (uint8 index = 0; index < totalBoxTypes; index++) {\n            Box storage box = boxes[_campaignId][index];\n            boxesOfCampaign[index] = box;\n        }\n        return boxesOfCampaign;\n    }\n\n    /**\n     * Returns the sell reference of boxes for a specific campaign\n     */\n    function getSoldBoxes(\n        uint256 _campaignId\n    ) public view returns (BoxSellRef[] memory) {\n        Campaign storage campaign = campaigns[_campaignId];\n        uint16 boxesSold = campaign.meta.boxesSold;\n        BoxSellRef[] memory sellRefs = new BoxSellRef[](boxesSold);\n        for (uint16 index = 0; index < boxesSold; index++) {\n            BoxSellRef storage sellRef = soldBoxes[_campaignId][index];\n            sellRefs[index] = sellRef;\n        }\n        return sellRefs;\n    }\n\n    /**\n     * Removes a campaign\n     */\n    function stopCampaign(uint256 _campaignId) public {\n        Campaign storage campaign = campaigns[_campaignId];\n        require(!campaign.meta.isStopped, \"Campaign already stopped\");\n        require(\n            campaign.info.deadline > block.timestamp,\n            \"This campaign is over\"\n        );\n        require(\n            msg.sender == campaign.owner.owner,\n            \"Only the owner can stop a campaign\"\n        );\n\n        // Pay ether back\n        uint16 boxesSold = campaign.meta.boxesSold;\n        for (uint16 index = 0; index < boxesSold; index++) {\n            BoxSellRef storage sellRef = soldBoxes[_campaignId][index];\n            Box storage box = boxes[_campaignId][sellRef.boxId];\n            payable(sellRef.owner).transfer(box.price);\n        }\n\n        campaign.meta.isStopped = true;\n    }\n\n    /**\n     * Buys a box\n     */\n    function buyBox(\n        uint256 _campaignId,\n        uint8 _boxId,\n        string memory _physAddress\n    ) public payable {\n        // get campaign ref\n        Campaign storage campaign = campaigns[_campaignId];\n        // check if this is an ongoing campaign\n        require(!campaign.meta.isStopped, \"This campaign has stopped\");\n        require(\n            campaign.info.deadline > block.timestamp,\n            \"This campaign is already over\"\n        );\n\n        // check if this campaign still has available boxes for the requested kind\n        Box storage box = boxes[_campaignId][_boxId];\n        require(box.id == _boxId, \"The box ID is invalid\");\n        require(box.available > 0, \"All boxes of this type have been sold\");\n        uint256 amount = msg.value;\n        require(amount >= box.price, \"Given amount is below box price\");\n\n        // Add buyer (Don't increase boxes sold yet, we need it starting at 0)\n        uint16 sellId = campaign.meta.boxesSold;\n        BoxSellRef storage sellRef = soldBoxes[_campaignId][\n            campaign.meta.boxesSold\n        ];\n        sellRef.boxId = box.id;\n        sellRef.id = sellId;\n        sellRef.owner = msg.sender;\n        sellRef.physAddress = _physAddress;\n        sellRef.boughtAt = block.timestamp;\n\n        // Updates available boxes by one\n        box.available -= 1;\n        // Update campaign meta\n        CampaignMeta storage meta = campaign.meta;\n        meta.boxesSold += 1;\n        meta.collectedAmount += amount;\n\n        if (campaign.meta.boxesSold == campaign.meta.totalBoxes) {\n            // Mark campaign as stopped\n            campaign.meta.isStopped = true;\n            // Start supply chain\n            SupplyChains(supplychainAddress).StartSupplyChain(campaign, getSoldBoxes(campaign.id));\n        }\n    }\n\n    /**\n     * Pay-out all stakeholders of the campaign\n     */\n    function payOut(uint256 _campaignId) public {\n        Campaign storage campaign = campaigns[_campaignId];\n        require(campaign.meta.isStopped, \"The campaign must be finished\");\n        require(\n            campaign.meta.boxesSold == campaign.meta.totalBoxes,\n            \"There can't be any boxes left\"\n        );\n        // Check if supply chain has been completed\n        require(\n            SupplyChains(supplychainAddress).isCompleted(campaign.id),\n            \"Supply chain must be completed\"\n        );\n\n        // Generate shares\n        uint256 farmerShare = (campaign.meta.collectedAmount * campaign.stakeholders.farmer.share) / 100;\n        uint256 butcherShare = (campaign.meta.collectedAmount * campaign.stakeholders.butcher.share) / 100;\n        uint256 deliveryShare = (campaign.meta.collectedAmount * campaign.stakeholders.delivery.share) / 100;\n\n        // payout stakeholders\n        payable(campaign.stakeholders.farmer.owner).transfer(farmerShare);\n        payable(campaign.stakeholders.butcher.owner).transfer(butcherShare);\n        payable(campaign.stakeholders.delivery.owner).transfer(deliveryShare);\n    }\n}\n",
  "sourcePath": "/workspaces/146157_Blockchain/smart_contracts/contracts/Crowdfunding.sol",
  "compiler": {
    "name": "solc",
    "version": "0.8.13+commit.abaa5c0e.Emscripten.clang"
  },
  "schemaVersion": "3.4.14",
  "updatedAt": "2023-08-16T10:08:57.376Z",
  "devdoc": {
    "kind": "dev",
    "methods": {},
    "version": 1
  },
  "userdoc": {
    "kind": "user",
    "methods": {
      "buyBox(uint256,uint8,string)": {
        "notice": "Buys a box"
      },
      "createCampaign(string,string,uint32,(address,string),((address,uint8,string),(address,uint8,string),(address,uint8,string)),(string,string,string,uint8),(uint8,string,string,uint256,uint8,uint8)[])": {
        "notice": "Creates a new campaign"
      },
      "getBoxes(uint256)": {
        "notice": "Returns all boxes of a specific campaign"
      },
      "getCampaigns()": {
        "notice": "Returns all campaigns"
      },
      "getNumberOfCampaigns()": {
        "notice": "Returns the total number of campaigns"
      },
      "getSoldBoxes(uint256)": {
        "notice": "Returns the sell reference of boxes for a specific campaign"
      },
      "payOut(uint256)": {
        "notice": "Pay-out all stakeholders of the campaign"
      },
      "stopCampaign(uint256)": {
        "notice": "Removes a campaign"
      }
    },
    "version": 1
  }
}