{
  "contractName": "Crowdfunding",
  "abi": [
    {
      "inputs": [
        {
          "internalType": "address",
          "name": "_supplychainAddress",
          "type": "address"
        }
      ],
      "stateMutability": "nonpayable",
      "type": "constructor"
    },
    {
      "inputs": [
        {
          "internalType": "uint256",
          "name": "",
          "type": "uint256"
        }
      ],
      "name": "campaigns",
      "outputs": [
        {
          "internalType": "uint256",
          "name": "id",
          "type": "uint256"
        },
        {
          "components": [
            {
              "internalType": "string",
              "name": "title",
              "type": "string"
            },
            {
              "internalType": "string",
              "name": "description",
              "type": "string"
            },
            {
              "internalType": "uint256",
              "name": "deadline",
              "type": "uint256"
            }
          ],
          "internalType": "struct CampaignInfo",
          "name": "info",
          "type": "tuple"
        },
        {
          "components": [
            {
              "internalType": "uint256",
              "name": "collectedAmount",
              "type": "uint256"
            },
            {
              "internalType": "uint256",
              "name": "createdAt",
              "type": "uint256"
            },
            {
              "internalType": "uint256",
              "name": "totalBoxes",
              "type": "uint256"
            },
            {
              "internalType": "uint256",
              "name": "boxesSold",
              "type": "uint256"
            },
            {
              "internalType": "uint256",
              "name": "totalBoxTypes",
              "type": "uint256"
            },
            {
              "internalType": "bool",
              "name": "isStopped",
              "type": "bool"
            }
          ],
          "internalType": "struct CampaignMeta",
          "name": "meta",
          "type": "tuple"
        },
        {
          "components": [
            {
              "internalType": "address",
              "name": "owner",
              "type": "address"
            },
            {
              "internalType": "string",
              "name": "ownerPublicKey",
              "type": "string"
            }
          ],
          "internalType": "struct CampaignOwner",
          "name": "owner",
          "type": "tuple"
        },
        {
          "components": [
            {
              "internalType": "string",
              "name": "earTag",
              "type": "string"
            },
            {
              "internalType": "string",
              "name": "name",
              "type": "string"
            },
            {
              "internalType": "string",
              "name": "farm",
              "type": "string"
            },
            {
              "internalType": "uint8",
              "name": "age",
              "type": "uint8"
            }
          ],
          "internalType": "struct CampaignAnimalData",
          "name": "animal",
          "type": "tuple"
        },
        {
          "components": [
            {
              "components": [
                {
                  "internalType": "address payable",
                  "name": "owner",
                  "type": "address"
                },
                {
                  "internalType": "uint8",
                  "name": "share",
                  "type": "uint8"
                },
                {
                  "internalType": "string",
                  "name": "info",
                  "type": "string"
                }
              ],
              "internalType": "struct Stakeholder",
              "name": "farmer",
              "type": "tuple"
            },
            {
              "components": [
                {
                  "internalType": "address payable",
                  "name": "owner",
                  "type": "address"
                },
                {
                  "internalType": "uint8",
                  "name": "share",
                  "type": "uint8"
                },
                {
                  "internalType": "string",
                  "name": "info",
                  "type": "string"
                }
              ],
              "internalType": "struct Stakeholder",
              "name": "butcher",
              "type": "tuple"
            },
            {
              "components": [
                {
                  "internalType": "address payable",
                  "name": "owner",
                  "type": "address"
                },
                {
                  "internalType": "uint8",
                  "name": "share",
                  "type": "uint8"
                },
                {
                  "internalType": "string",
                  "name": "info",
                  "type": "string"
                }
              ],
              "internalType": "struct Stakeholder",
              "name": "delivery",
              "type": "tuple"
            }
          ],
          "internalType": "struct StakeholderList",
          "name": "stakeholders",
          "type": "tuple"
        }
      ],
      "stateMutability": "view",
      "type": "function"
    },
    {
      "inputs": [],
      "name": "numberOfCampaigns",
      "outputs": [
        {
          "internalType": "uint256",
          "name": "",
          "type": "uint256"
        }
      ],
      "stateMutability": "view",
      "type": "function"
    },
    {
      "inputs": [],
      "name": "supplychainAddress",
      "outputs": [
        {
          "internalType": "address",
          "name": "",
          "type": "address"
        }
      ],
      "stateMutability": "view",
      "type": "function"
    },
    {
      "inputs": [
        {
          "internalType": "string",
          "name": "_title",
          "type": "string"
        },
        {
          "internalType": "string",
          "name": "_description",
          "type": "string"
        },
        {
          "internalType": "uint32",
          "name": "_duration",
          "type": "uint32"
        },
        {
          "components": [
            {
              "internalType": "address",
              "name": "owner",
              "type": "address"
            },
            {
              "internalType": "string",
              "name": "ownerPublicKey",
              "type": "string"
            }
          ],
          "internalType": "struct CampaignOwner",
          "name": "_campaignOwner",
          "type": "tuple"
        },
        {
          "components": [
            {
              "components": [
                {
                  "internalType": "address payable",
                  "name": "owner",
                  "type": "address"
                },
                {
                  "internalType": "uint8",
                  "name": "share",
                  "type": "uint8"
                },
                {
                  "internalType": "string",
                  "name": "info",
                  "type": "string"
                }
              ],
              "internalType": "struct Stakeholder",
              "name": "farmer",
              "type": "tuple"
            },
            {
              "components": [
                {
                  "internalType": "address payable",
                  "name": "owner",
                  "type": "address"
                },
                {
                  "internalType": "uint8",
                  "name": "share",
                  "type": "uint8"
                },
                {
                  "internalType": "string",
                  "name": "info",
                  "type": "string"
                }
              ],
              "internalType": "struct Stakeholder",
              "name": "butcher",
              "type": "tuple"
            },
            {
              "components": [
                {
                  "internalType": "address payable",
                  "name": "owner",
                  "type": "address"
                },
                {
                  "internalType": "uint8",
                  "name": "share",
                  "type": "uint8"
                },
                {
                  "internalType": "string",
                  "name": "info",
                  "type": "string"
                }
              ],
              "internalType": "struct Stakeholder",
              "name": "delivery",
              "type": "tuple"
            }
          ],
          "internalType": "struct StakeholderList",
          "name": "_stakeholders",
          "type": "tuple"
        },
        {
          "components": [
            {
              "internalType": "string",
              "name": "earTag",
              "type": "string"
            },
            {
              "internalType": "string",
              "name": "name",
              "type": "string"
            },
            {
              "internalType": "string",
              "name": "farm",
              "type": "string"
            },
            {
              "internalType": "uint8",
              "name": "age",
              "type": "uint8"
            }
          ],
          "internalType": "struct CampaignAnimalData",
          "name": "_animal",
          "type": "tuple"
        },
        {
          "components": [
            {
              "internalType": "uint256",
              "name": "id",
              "type": "uint256"
            },
            {
              "internalType": "string",
              "name": "title",
              "type": "string"
            },
            {
              "internalType": "string",
              "name": "description",
              "type": "string"
            },
            {
              "internalType": "uint256",
              "name": "price",
              "type": "uint256"
            },
            {
              "internalType": "uint32",
              "name": "total",
              "type": "uint32"
            },
            {
              "internalType": "uint32",
              "name": "available",
              "type": "uint32"
            }
          ],
          "internalType": "struct Box[]",
          "name": "_boxes",
          "type": "tuple[]"
        }
      ],
      "name": "createCampaign",
      "outputs": [
        {
          "internalType": "uint256",
          "name": "",
          "type": "uint256"
        }
      ],
      "stateMutability": "nonpayable",
      "type": "function"
    },
    {
      "inputs": [],
      "name": "getNumberOfCampaigns",
      "outputs": [
        {
          "internalType": "uint256",
          "name": "",
          "type": "uint256"
        }
      ],
      "stateMutability": "view",
      "type": "function"
    },
    {
      "inputs": [],
      "name": "getCampaigns",
      "outputs": [
        {
          "components": [
            {
              "internalType": "uint256",
              "name": "id",
              "type": "uint256"
            },
            {
              "components": [
                {
                  "internalType": "string",
                  "name": "title",
                  "type": "string"
                },
                {
                  "internalType": "string",
                  "name": "description",
                  "type": "string"
                },
                {
                  "internalType": "uint256",
                  "name": "deadline",
                  "type": "uint256"
                }
              ],
              "internalType": "struct CampaignInfo",
              "name": "info",
              "type": "tuple"
            },
            {
              "components": [
                {
                  "internalType": "uint256",
                  "name": "collectedAmount",
                  "type": "uint256"
                },
                {
                  "internalType": "uint256",
                  "name": "createdAt",
                  "type": "uint256"
                },
                {
                  "internalType": "uint256",
                  "name": "totalBoxes",
                  "type": "uint256"
                },
                {
                  "internalType": "uint256",
                  "name": "boxesSold",
                  "type": "uint256"
                },
                {
                  "internalType": "uint256",
                  "name": "totalBoxTypes",
                  "type": "uint256"
                },
                {
                  "internalType": "bool",
                  "name": "isStopped",
                  "type": "bool"
                }
              ],
              "internalType": "struct CampaignMeta",
              "name": "meta",
              "type": "tuple"
            },
            {
              "components": [
                {
                  "internalType": "address",
                  "name": "owner",
                  "type": "address"
                },
                {
                  "internalType": "string",
                  "name": "ownerPublicKey",
                  "type": "string"
                }
              ],
              "internalType": "struct CampaignOwner",
              "name": "owner",
              "type": "tuple"
            },
            {
              "components": [
                {
                  "internalType": "string",
                  "name": "earTag",
                  "type": "string"
                },
                {
                  "internalType": "string",
                  "name": "name",
                  "type": "string"
                },
                {
                  "internalType": "string",
                  "name": "farm",
                  "type": "string"
                },
                {
                  "internalType": "uint8",
                  "name": "age",
                  "type": "uint8"
                }
              ],
              "internalType": "struct CampaignAnimalData",
              "name": "animal",
              "type": "tuple"
            },
            {
              "components": [
                {
                  "components": [
                    {
                      "internalType": "address payable",
                      "name": "owner",
                      "type": "address"
                    },
                    {
                      "internalType": "uint8",
                      "name": "share",
                      "type": "uint8"
                    },
                    {
                      "internalType": "string",
                      "name": "info",
                      "type": "string"
                    }
                  ],
                  "internalType": "struct Stakeholder",
                  "name": "farmer",
                  "type": "tuple"
                },
                {
                  "components": [
                    {
                      "internalType": "address payable",
                      "name": "owner",
                      "type": "address"
                    },
                    {
                      "internalType": "uint8",
                      "name": "share",
                      "type": "uint8"
                    },
                    {
                      "internalType": "string",
                      "name": "info",
                      "type": "string"
                    }
                  ],
                  "internalType": "struct Stakeholder",
                  "name": "butcher",
                  "type": "tuple"
                },
                {
                  "components": [
                    {
                      "internalType": "address payable",
                      "name": "owner",
                      "type": "address"
                    },
                    {
                      "internalType": "uint8",
                      "name": "share",
                      "type": "uint8"
                    },
                    {
                      "internalType": "string",
                      "name": "info",
                      "type": "string"
                    }
                  ],
                  "internalType": "struct Stakeholder",
                  "name": "delivery",
                  "type": "tuple"
                }
              ],
              "internalType": "struct StakeholderList",
              "name": "stakeholders",
              "type": "tuple"
            }
          ],
          "internalType": "struct Campaign[]",
          "name": "",
          "type": "tuple[]"
        }
      ],
      "stateMutability": "view",
      "type": "function"
    },
    {
      "inputs": [
        {
          "internalType": "uint256",
          "name": "_campaignId",
          "type": "uint256"
        }
      ],
      "name": "getBoxes",
      "outputs": [
        {
          "components": [
            {
              "internalType": "uint256",
              "name": "id",
              "type": "uint256"
            },
            {
              "internalType": "string",
              "name": "title",
              "type": "string"
            },
            {
              "internalType": "string",
              "name": "description",
              "type": "string"
            },
            {
              "internalType": "uint256",
              "name": "price",
              "type": "uint256"
            },
            {
              "internalType": "uint32",
              "name": "total",
              "type": "uint32"
            },
            {
              "internalType": "uint32",
              "name": "available",
              "type": "uint32"
            }
          ],
          "internalType": "struct Box[]",
          "name": "",
          "type": "tuple[]"
        }
      ],
      "stateMutability": "view",
      "type": "function"
    },
    {
      "inputs": [
        {
          "internalType": "uint256",
          "name": "_campaignId",
          "type": "uint256"
        }
      ],
      "name": "getSoldBoxes",
      "outputs": [
        {
          "components": [
            {
              "internalType": "uint256",
              "name": "id",
              "type": "uint256"
            },
            {
              "internalType": "uint256",
              "name": "boxId",
              "type": "uint256"
            },
            {
              "internalType": "address",
              "name": "owner",
              "type": "address"
            },
            {
              "internalType": "uint256",
              "name": "boughtAt",
              "type": "uint256"
            },
            {
              "internalType": "string",
              "name": "physAddress",
              "type": "string"
            }
          ],
          "internalType": "struct BoxSellRef[]",
          "name": "",
          "type": "tuple[]"
        }
      ],
      "stateMutability": "view",
      "type": "function"
    },
    {
      "inputs": [
        {
          "internalType": "uint256",
          "name": "_campaignId",
          "type": "uint256"
        }
      ],
      "name": "stopCampaign",
      "outputs": [
        {
          "internalType": "bool",
          "name": "",
          "type": "bool"
        }
      ],
      "stateMutability": "nonpayable",
      "type": "function"
    },
    {
      "inputs": [
        {
          "internalType": "uint256",
          "name": "_campaignId",
          "type": "uint256"
        },
        {
          "internalType": "uint256",
          "name": "_boxId",
          "type": "uint256"
        },
        {
          "internalType": "string",
          "name": "_physAddress",
          "type": "string"
        }
      ],
      "name": "buyBox",
      "outputs": [],
      "stateMutability": "payable",
      "type": "function"
    },
    {
      "inputs": [
        {
          "internalType": "uint256",
          "name": "_campaignId",
          "type": "uint256"
        }
      ],
      "name": "payOut",
      "outputs": [],
      "stateMutability": "nonpayable",
      "type": "function"
    },
    {
      "inputs": [
        {
          "internalType": "address payable",
          "name": "owner",
          "type": "address"
        },
        {
          "internalType": "address payable",
          "name": "farmer",
          "type": "address"
        },
        {
          "internalType": "address payable",
          "name": "butcher",
          "type": "address"
        },
        {
          "internalType": "address payable",
          "name": "delivery",
          "type": "address"
        },
        {
          "internalType": "string",
          "name": "private_key",
          "type": "string"
        }
      ],
      "name": "initializeData",
      "outputs": [],
      "stateMutability": "nonpayable",
      "type": "function"
    }
  ],
  "bytecode": "0x608060405260006004553480156200001657600080fd5b50604051620054f6380380620054f683398181016040528101906200003c9190620000ed565b806000806101000a81548173ffffffffffffffffffffffffffffffffffffffff021916908373ffffffffffffffffffffffffffffffffffffffff160217905550506200011f565b600080fd5b600073ffffffffffffffffffffffffffffffffffffffff82169050919050565b6000620000b58262000088565b9050919050565b620000c781620000a8565b8114620000d357600080fd5b50565b600081519050620000e781620000bc565b92915050565b60006020828403121562000106576200010562000083565b5b60006200011684828501620000d6565b91505092915050565b6153c7806200012f6000396000f3fe6080604052600436106100a75760003560e01c80636e8ae035116100645780636e8ae035146101e75780639102007e14610203578063a6b0363314610240578063da333ca61461026b578063e4aafc2c14610294578063ec6c8216146102bf576100a7565b80630764d62a146100ac57806307ca140d146100d7578063141961bc146101025780633267f8ab1461014457806332e757491461018157806360d41e6e146101be575b600080fd5b3480156100b857600080fd5b506100c16102fc565b6040516100ce9190613065565b60405180910390f35b3480156100e357600080fd5b506100ec610320565b6040516100f99190613099565b60405180910390f35b34801561010e57600080fd5b50610129600480360381019061012491906130f4565b610326565b60405161013b9695949392919061345e565b60405180910390f35b34801561015057600080fd5b5061016b600480360381019061016691906130f4565b610b15565b6040516101789190613650565b60405180910390f35b34801561018d57600080fd5b506101a860048036038101906101a391906130f4565b610d93565b6040516101b591906137aa565b60405180910390f35b3480156101ca57600080fd5b506101e560048036038101906101e0919061392d565b610f93565b005b61020160048036038101906101fc91906139c4565b611550565b005b34801561020f57600080fd5b5061022a60048036038101906102259190613eef565b61192d565b6040516102379190613099565b60405180910390f35b34801561024c57600080fd5b50610255611fcc565b604051610262919061437b565b60405180910390f35b34801561027757600080fd5b50610292600480360381019061028d91906130f4565b612881565b005b3480156102a057600080fd5b506102a9612c06565b6040516102b69190613099565b60405180910390f35b3480156102cb57600080fd5b506102e660048036038101906102e191906130f4565b612c10565b6040516102f391906143ac565b60405180910390f35b60008054906101000a900473ffffffffffffffffffffffffffffffffffffffff1681565b60045481565b60016020528060005260406000206000915090508060000154908060010160405180606001604052908160008201805461035f906143f6565b80601f016020809104026020016040519081016040528092919081815260200182805461038b906143f6565b80156103d85780601f106103ad576101008083540402835291602001916103d8565b820191906000526020600020905b8154815290600101906020018083116103bb57829003601f168201915b505050505081526020016001820180546103f1906143f6565b80601f016020809104026020016040519081016040528092919081815260200182805461041d906143f6565b801561046a5780601f1061043f5761010080835404028352916020019161046a565b820191906000526020600020905b81548152906001019060200180831161044d57829003601f168201915b5050505050815260200160028201548152505090806004016040518060c001604052908160008201548152602001600182015481526020016002820154815260200160038201548152602001600482015481526020016005820160009054906101000a900460ff1615151515815250509080600a016040518060400160405290816000820160009054906101000a900473ffffffffffffffffffffffffffffffffffffffff1673ffffffffffffffffffffffffffffffffffffffff1673ffffffffffffffffffffffffffffffffffffffff168152602001600182018054610550906143f6565b80601f016020809104026020016040519081016040528092919081815260200182805461057c906143f6565b80156105c95780601f1061059e576101008083540402835291602001916105c9565b820191906000526020600020905b8154815290600101906020018083116105ac57829003601f168201915b5050505050815250509080600c016040518060800160405290816000820180546105f2906143f6565b80601f016020809104026020016040519081016040528092919081815260200182805461061e906143f6565b801561066b5780601f106106405761010080835404028352916020019161066b565b820191906000526020600020905b81548152906001019060200180831161064e57829003601f168201915b50505050508152602001600182018054610684906143f6565b80601f01602080910402602001604051908101604052809291908181526020018280546106b0906143f6565b80156106fd5780601f106106d2576101008083540402835291602001916106fd565b820191906000526020600020905b8154815290600101906020018083116106e057829003601f168201915b50505050508152602001600282018054610716906143f6565b80601f0160208091040260200160405190810160405280929190818152602001828054610742906143f6565b801561078f5780601f106107645761010080835404028352916020019161078f565b820191906000526020600020905b81548152906001019060200180831161077257829003601f168201915b505050505081526020016003820160009054906101000a900460ff1660ff1660ff16815250509080601001604051806060016040529081600082016040518060600160405290816000820160009054906101000a900473ffffffffffffffffffffffffffffffffffffffff1673ffffffffffffffffffffffffffffffffffffffff1673ffffffffffffffffffffffffffffffffffffffff1681526020016000820160149054906101000a900460ff1660ff1660ff168152602001600182018054610858906143f6565b80601f0160208091040260200160405190810160405280929190818152602001828054610884906143f6565b80156108d15780601f106108a6576101008083540402835291602001916108d1565b820191906000526020600020905b8154815290600101906020018083116108b457829003601f168201915b5050505050815250508152602001600282016040518060600160405290816000820160009054906101000a900473ffffffffffffffffffffffffffffffffffffffff1673ffffffffffffffffffffffffffffffffffffffff1673ffffffffffffffffffffffffffffffffffffffff1681526020016000820160149054906101000a900460ff1660ff1660ff168152602001600182018054610971906143f6565b80601f016020809104026020016040519081016040528092919081815260200182805461099d906143f6565b80156109ea5780601f106109bf576101008083540402835291602001916109ea565b820191906000526020600020905b8154815290600101906020018083116109cd57829003601f168201915b5050505050815250508152602001600482016040518060600160405290816000820160009054906101000a900473ffffffffffffffffffffffffffffffffffffffff1673ffffffffffffffffffffffffffffffffffffffff1673ffffffffffffffffffffffffffffffffffffffff1681526020016000820160149054906101000a900460ff1660ff1660ff168152602001600182018054610a8a906143f6565b80601f0160208091040260200160405190810160405280929190818152602001828054610ab6906143f6565b8015610b035780601f10610ad857610100808354040283529160200191610b03565b820191906000526020600020905b815481529060010190602001808311610ae657829003601f168201915b50505050508152505081525050905086565b6060600060016000848152602001908152602001600020905060008160040160040154905060008167ffffffffffffffff811115610b5657610b55613802565b5b604051908082528060200260200182016040528015610b8f57816020015b610b7c612d85565b815260200190600190039081610b745790505b50905060005b82811015610d875760006002600088815260200190815260200160002060008381526020019081526020016000209050806040518060c001604052908160008201548152602001600182018054610beb906143f6565b80601f0160208091040260200160405190810160405280929190818152602001828054610c17906143f6565b8015610c645780601f10610c3957610100808354040283529160200191610c64565b820191906000526020600020905b815481529060010190602001808311610c4757829003601f168201915b50505050508152602001600282018054610c7d906143f6565b80601f0160208091040260200160405190810160405280929190818152602001828054610ca9906143f6565b8015610cf65780601f10610ccb57610100808354040283529160200191610cf6565b820191906000526020600020905b815481529060010190602001808311610cd957829003601f168201915b50505050508152602001600382015481526020016004820160009054906101000a900463ffffffff1663ffffffff1663ffffffff1681526020016004820160049054906101000a900463ffffffff1663ffffffff1663ffffffff1681525050838381518110610d6857610d67614427565b5b6020026020010181905250508080610d7f90614485565b915050610b95565b50809350505050919050565b6060600060016000848152602001908152602001600020905060008160040160030154905060008167ffffffffffffffff811115610dd457610dd3613802565b5b604051908082528060200260200182016040528015610e0d57816020015b610dfa612dc7565b815260200190600190039081610df25790505b50905060005b82811015610f875760006003600088815260200190815260200160002060008381526020019081526020016000209050806040518060a001604052908160008201548152602001600182015481526020016002820160009054906101000a900473ffffffffffffffffffffffffffffffffffffffff1673ffffffffffffffffffffffffffffffffffffffff1673ffffffffffffffffffffffffffffffffffffffff16815260200160038201548152602001600482018054610ed3906143f6565b80601f0160208091040260200160405190810160405280929190818152602001828054610eff906143f6565b8015610f4c5780601f10610f2157610100808354040283529160200191610f4c565b820191906000526020600020905b815481529060010190602001808311610f2f57829003601f168201915b505050505081525050838381518110610f6857610f67614427565b5b6020026020010181905250508080610f7f90614485565b915050610e13565b50809350505050919050565b60006040518060400160405280600d81526020017f546573742043616d706169676e00000000000000000000000000000000000000815250905060006040518060400160405280601781526020017f54686973206973206120746573742063616d706169676e0000000000000000008152509050600062375f009050600060405180604001604052808a73ffffffffffffffffffffffffffffffffffffffff168152602001868152509050600060405180606001604052808a73ffffffffffffffffffffffffffffffffffffffff168152602001601460ff1681526020016040518060400160405280600681526020017f4661726d657200000000000000000000000000000000000000000000000000008152508152509050600060405180606001604052808a73ffffffffffffffffffffffffffffffffffffffff168152602001601e60ff1681526020016040518060400160405280600781526020017f42757463686572000000000000000000000000000000000000000000000000008152508152509050600060405180606001604052808a73ffffffffffffffffffffffffffffffffffffffff168152602001603260ff1681526020016040518060400160405280600881526020017f44656c6976657279000000000000000000000000000000000000000000000000815250815250905060006040518060600160405280858152602001848152602001838152509050600060405180608001604052806040518060400160405280600981526020017f313233343536373839000000000000000000000000000000000000000000000081525081526020016040518060400160405280600581526020017f426572746100000000000000000000000000000000000000000000000000000081525081526020016040518060400160405280600981526020017f42617565726e686f6600000000000000000000000000000000000000000000008152508152602001600260ff1681525090506000600367ffffffffffffffff81111561128c5761128b613802565b5b6040519080825280602002602001820160405280156112c557816020015b6112b2612d85565b8152602001906001900390816112aa5790505b50905060006040518060c00160405280600081526020016040518060400160405280600a81526020017f5465737420426f7820310000000000000000000000000000000000000000000081525081526020016040518060400160405280600b81526020017f6465736372697470696f6e00000000000000000000000000000000000000000081525081526020016127108152602001600163ffffffff168152602001600163ffffffff16815250905060006040518060c00160405280600181526020016040518060400160405280600a81526020017f5465737420426f7820320000000000000000000000000000000000000000000081525081526020016040518060400160405280600b81526020017f6465736372697470696f6e0000000000000000000000000000000000000000008152508152602001613a988152602001600263ffffffff168152602001600263ffffffff16815250905060006040518060c00160405280600281526020016040518060400160405280600a81526020017f5465737420426f7820330000000000000000000000000000000000000000000081525081526020016040518060400160405280600b81526020017f6465736372697470696f6e0000000000000000000000000000000000000000008152508152602001614e208152602001600163ffffffff168152602001600163ffffffff16815250905082846000815181106114e1576114e0614427565b5b6020026020010181905250818460018151811061150157611500614427565b5b6020026020010181905250808460028151811061152157611520614427565b5b602002602001018190525061153b8d8d8d8d8a8a8a61192d565b50505050505050505050505050505050505050565b60006001600085815260200190815260200160002090508060040160050160009054906101000a900460ff16156115bc576040517f08c379a00000000000000000000000000000000000000000000000000000000081526004016115b39061452a565b60405180910390fd5b42816001016002015411611605576040517f08c379a00000000000000000000000000000000000000000000000000000000081526004016115fc90614596565b60405180910390fd5b6000600260008681526020019081526020016000206000858152602001908152602001600020905083816000015414611673576040517f08c379a000000000000000000000000000000000000000000000000000000000815260040161166a90614602565b60405180910390fd5b60008160040160049054906101000a900463ffffffff1663ffffffff16116116d0576040517f08c379a00000000000000000000000000000000000000000000000000000000081526004016116c790614694565b60405180910390fd5b6000349050816003015481101561171c576040517f08c379a000000000000000000000000000000000000000000000000000000000815260040161171390614700565b60405180910390fd5b600083600401600301549050600060036000898152602001908152602001600020600086600401600301548152602001908152602001600020905083600001548160010181905550818160000181905550338160020160006101000a81548173ffffffffffffffffffffffffffffffffffffffff021916908373ffffffffffffffffffffffffffffffffffffffff160217905550858160040190805190602001906117c8929190612e0c565b5042816003018190555060018460040160048282829054906101000a900463ffffffff166117f69190614720565b92506101000a81548163ffffffff021916908363ffffffff160217905550600085600401905060018160030160008282546118319190614754565b925050819055508381600001600082825461184c9190614754565b9250508190555085600401600201548660040160030154036119225760018660040160050160006101000a81548160ff02191690831515021790555060008054906101000a900473ffffffffffffffffffffffffffffffffffffffff1673ffffffffffffffffffffffffffffffffffffffff16633d709a29876118d28960000154610d93565b6040518363ffffffff1660e01b81526004016118ef929190614ca5565b600060405180830381600087803b15801561190957600080fd5b505af115801561191d573d6000803e3d6000fd5b505050505b505050505050505050565b6000808663ffffffff1611611977576040517f08c379a000000000000000000000000000000000000000000000000000000000815260040161196e90614d28565b60405180910390fd5b62375f008663ffffffff1611156119c3576040517f08c379a00000000000000000000000000000000000000000000000000000000081526004016119ba90614dba565b60405180910390fd5b600042905060008763ffffffff16826119dc9190614754565b9050818111611a20576040517f08c379a0000000000000000000000000000000000000000000000000000000008152600401611a1790614e26565b60405180910390fd5b6000805b8551811015611be5576000868281518110611a4257611a41614427565b5b602002602001015190506000816080015163ffffffff1611611a99576040517f08c379a0000000000000000000000000000000000000000000000000000000008152600401611a9090614eb8565b60405180910390fd5b8060a0015163ffffffff16816080015163ffffffff1614611aef576040517f08c379a0000000000000000000000000000000000000000000000000000000008152600401611ae690614f4a565b60405180910390fd5b806080015163ffffffff1683611b059190614754565b925080600260006004548152602001908152602001600020600083600001518152602001908152602001600020600082015181600001556020820151816001019080519060200190611b58929190612e0c565b506040820151816002019080519060200190611b75929190612e0c565b506060820151816003015560808201518160040160006101000a81548163ffffffff021916908363ffffffff16021790555060a08201518160040160046101000a81548163ffffffff021916908363ffffffff160217905550905050508080611bdd90614485565b915050611a24565b5060008111611c29576040517f08c379a0000000000000000000000000000000000000000000000000000000008152600401611c2090614fdc565b60405180910390fd5b6000600160006004548152602001908152602001600020905060045481600001819055508881600a0160008201518160000160006101000a81548173ffffffffffffffffffffffffffffffffffffffff021916908373ffffffffffffffffffffffffffffffffffffffff1602179055506020820151816001019080519060200190611cb5929190612e0c565b509050508b816001016000019080519060200190611cd4929190612e0c565b508a816001016001019080519060200190611cf0929190612e0c565b508281600101600201819055504281600401600101819055506000816004016000018190555060008160040160050160006101000a81548160ff02191690831515021790555081816004016002018190555060008160040160030181905550855181600401600401819055508681600c016000820151816000019080519060200190611d7d929190612e0c565b506020820151816001019080519060200190611d9a929190612e0c565b506040820151816002019080519060200190611db7929190612e0c565b5060608201518160030160006101000a81548160ff021916908360ff160217905550905050878160100160008201518160000160008201518160000160006101000a81548173ffffffffffffffffffffffffffffffffffffffff021916908373ffffffffffffffffffffffffffffffffffffffff16021790555060208201518160000160146101000a81548160ff021916908360ff1602179055506040820151816001019080519060200190611e6e929190612e0c565b50505060208201518160020160008201518160000160006101000a81548173ffffffffffffffffffffffffffffffffffffffff021916908373ffffffffffffffffffffffffffffffffffffffff16021790555060208201518160000160146101000a81548160ff021916908360ff1602179055506040820151816001019080519060200190611efe929190612e0c565b50505060408201518160040160008201518160000160006101000a81548173ffffffffffffffffffffffffffffffffffffffff021916908373ffffffffffffffffffffffffffffffffffffffff16021790555060208201518160000160146101000a81548160ff021916908360ff1602179055506040820151816001019080519060200190611f8e929190612e0c565b50505090505060046000815480929190611fa790614485565b91905055506001600454611fbb9190614ffc565b945050505050979650505050505050565b6060600060045467ffffffffffffffff811115611fec57611feb613802565b5b60405190808252806020026020018201604052801561202557816020015b612012612e92565b81526020019060019003908161200a5790505b50905060005b600454811015612879576000600160008381526020019081526020016000209050806040518060c00160405290816000820154815260200160018201604051806060016040529081600082018054612082906143f6565b80601f01602080910402602001604051908101604052809291908181526020018280546120ae906143f6565b80156120fb5780601f106120d0576101008083540402835291602001916120fb565b820191906000526020600020905b8154815290600101906020018083116120de57829003601f168201915b50505050508152602001600182018054612114906143f6565b80601f0160208091040260200160405190810160405280929190818152602001828054612140906143f6565b801561218d5780601f106121625761010080835404028352916020019161218d565b820191906000526020600020905b81548152906001019060200180831161217057829003601f168201915b505050505081526020016002820154815250508152602001600482016040518060c001604052908160008201548152602001600182015481526020016002820154815260200160038201548152602001600482015481526020016005820160009054906101000a900460ff1615151515815250508152602001600a82016040518060400160405290816000820160009054906101000a900473ffffffffffffffffffffffffffffffffffffffff1673ffffffffffffffffffffffffffffffffffffffff1673ffffffffffffffffffffffffffffffffffffffff16815260200160018201805461227b906143f6565b80601f01602080910402602001604051908101604052809291908181526020018280546122a7906143f6565b80156122f45780601f106122c9576101008083540402835291602001916122f4565b820191906000526020600020905b8154815290600101906020018083116122d757829003601f168201915b5050505050815250508152602001600c8201604051806080016040529081600082018054612321906143f6565b80601f016020809104026020016040519081016040528092919081815260200182805461234d906143f6565b801561239a5780601f1061236f5761010080835404028352916020019161239a565b820191906000526020600020905b81548152906001019060200180831161237d57829003601f168201915b505050505081526020016001820180546123b3906143f6565b80601f01602080910402602001604051908101604052809291908181526020018280546123df906143f6565b801561242c5780601f106124015761010080835404028352916020019161242c565b820191906000526020600020905b81548152906001019060200180831161240f57829003601f168201915b50505050508152602001600282018054612445906143f6565b80601f0160208091040260200160405190810160405280929190818152602001828054612471906143f6565b80156124be5780601f10612493576101008083540402835291602001916124be565b820191906000526020600020905b8154815290600101906020018083116124a157829003601f168201915b505050505081526020016003820160009054906101000a900460ff1660ff1660ff1681525050815260200160108201604051806060016040529081600082016040518060600160405290816000820160009054906101000a900473ffffffffffffffffffffffffffffffffffffffff1673ffffffffffffffffffffffffffffffffffffffff1673ffffffffffffffffffffffffffffffffffffffff1681526020016000820160149054906101000a900460ff1660ff1660ff16815260200160018201805461258b906143f6565b80601f01602080910402602001604051908101604052809291908181526020018280546125b7906143f6565b80156126045780601f106125d957610100808354040283529160200191612604565b820191906000526020600020905b8154815290600101906020018083116125e757829003601f168201915b5050505050815250508152602001600282016040518060600160405290816000820160009054906101000a900473ffffffffffffffffffffffffffffffffffffffff1673ffffffffffffffffffffffffffffffffffffffff1673ffffffffffffffffffffffffffffffffffffffff1681526020016000820160149054906101000a900460ff1660ff1660ff1681526020016001820180546126a4906143f6565b80601f01602080910402602001604051908101604052809291908181526020018280546126d0906143f6565b801561271d5780601f106126f25761010080835404028352916020019161271d565b820191906000526020600020905b81548152906001019060200180831161270057829003601f168201915b5050505050815250508152602001600482016040518060600160405290816000820160009054906101000a900473ffffffffffffffffffffffffffffffffffffffff1673ffffffffffffffffffffffffffffffffffffffff1673ffffffffffffffffffffffffffffffffffffffff1681526020016000820160149054906101000a900460ff1660ff1660ff1681526020016001820180546127bd906143f6565b80601f01602080910402602001604051908101604052809291908181526020018280546127e9906143f6565b80156128365780601f1061280b57610100808354040283529160200191612836565b820191906000526020600020905b81548152906001019060200180831161281957829003601f168201915b505050505081525050815250508152505083838151811061285a57612859614427565b5b602002602001018190525050808061287190614485565b91505061202b565b508091505090565b60006001600083815260200190815260200160002090508060040160050160009054906101000a900460ff166128ec576040517f08c379a00000000000000000000000000000000000000000000000000000000081526004016128e39061507c565b60405180910390fd5b806004016002015481600401600301541461293c576040517f08c379a0000000000000000000000000000000000000000000000000000000008152600401612933906150e8565b60405180910390fd5b60008054906101000a900473ffffffffffffffffffffffffffffffffffffffff1673ffffffffffffffffffffffffffffffffffffffff16637a41984b82600001546040518263ffffffff1660e01b81526004016129999190613099565b602060405180830381865afa1580156129b6573d6000803e3d6000fd5b505050506040513d601f19601f820116820180604052508101906129da9190615134565b612a19576040517f08c379a0000000000000000000000000000000000000000000000000000000008152600401612a10906151ad565b60405180910390fd5b60008160100160000160000160149054906101000a900460ff1660ff168260040160000154612a4891906151cd565b905060008260100160020160000160149054906101000a900460ff1660ff168360040160000154612a7991906151cd565b905060008360100160040160000160149054906101000a900460ff1660ff168460040160000154612aaa91906151cd565b90508360100160000160000160009054906101000a900473ffffffffffffffffffffffffffffffffffffffff1673ffffffffffffffffffffffffffffffffffffffff166108fc849081150290604051600060405180830381858888f19350505050158015612b1c573d6000803e3d6000fd5b508360100160020160000160009054906101000a900473ffffffffffffffffffffffffffffffffffffffff1673ffffffffffffffffffffffffffffffffffffffff166108fc839081150290604051600060405180830381858888f19350505050158015612b8d573d6000803e3d6000fd5b508360100160040160000160009054906101000a900473ffffffffffffffffffffffffffffffffffffffff1673ffffffffffffffffffffffffffffffffffffffff166108fc829081150290604051600060405180830381858888f19350505050158015612bfe573d6000803e3d6000fd5b505050505050565b6000600454905090565b6000806001600084815260200190815260200160002090508060040160050160009054906101000a900460ff1615612c7d576040517f08c379a0000000000000000000000000000000000000000000000000000000008152600401612c7490615273565b60405180910390fd5b42816001016002015411612cc6576040517f08c379a0000000000000000000000000000000000000000000000000000000008152600401612cbd906152df565b60405180910390fd5b80600a0160000160009054906101000a900473ffffffffffffffffffffffffffffffffffffffff1673ffffffffffffffffffffffffffffffffffffffff163373ffffffffffffffffffffffffffffffffffffffff1614612d5b576040517f08c379a0000000000000000000000000000000000000000000000000000000008152600401612d5290615371565b60405180910390fd5b60018160040160050160006101000a81548160ff0219169083151502179055506001915050919050565b6040518060c0016040528060008152602001606081526020016060815260200160008152602001600063ffffffff168152602001600063ffffffff1681525090565b6040518060a001604052806000815260200160008152602001600073ffffffffffffffffffffffffffffffffffffffff16815260200160008152602001606081525090565b828054612e18906143f6565b90600052602060002090601f016020900481019282612e3a5760008555612e81565b82601f10612e5357805160ff1916838001178555612e81565b82800160010185558215612e81579182015b82811115612e80578251825591602001919060010190612e65565b5b509050612e8e9190612ee6565b5090565b6040518060c0016040528060008152602001612eac612f03565b8152602001612eb9612f24565b8152602001612ec6612f5c565b8152602001612ed3612f8c565b8152602001612ee0612fb7565b81525090565b5b80821115612eff576000816000905550600101612ee7565b5090565b60405180606001604052806060815260200160608152602001600081525090565b6040518060c0016040528060008152602001600081526020016000815260200160008152602001600081526020016000151581525090565b6040518060400160405280600073ffffffffffffffffffffffffffffffffffffffff168152602001606081525090565b6040518060800160405280606081526020016060815260200160608152602001600060ff1681525090565b6040518060600160405280612fca612fea565b8152602001612fd7612fea565b8152602001612fe4612fea565b81525090565b6040518060600160405280600073ffffffffffffffffffffffffffffffffffffffff168152602001600060ff168152602001606081525090565b600073ffffffffffffffffffffffffffffffffffffffff82169050919050565b600061304f82613024565b9050919050565b61305f81613044565b82525050565b600060208201905061307a6000830184613056565b92915050565b6000819050919050565b61309381613080565b82525050565b60006020820190506130ae600083018461308a565b92915050565b6000604051905090565b600080fd5b600080fd5b6130d181613080565b81146130dc57600080fd5b50565b6000813590506130ee816130c8565b92915050565b60006020828403121561310a576131096130be565b5b6000613118848285016130df565b91505092915050565b600081519050919050565b600082825260208201905092915050565b60005b8381101561315b578082015181840152602081019050613140565b8381111561316a576000848401525b50505050565b6000601f19601f8301169050919050565b600061318c82613121565b613196818561312c565b93506131a681856020860161313d565b6131af81613170565b840191505092915050565b6131c381613080565b82525050565b600060608301600083015184820360008601526131e68282613181565b915050602083015184820360208601526132008282613181565b915050604083015161321560408601826131ba565b508091505092915050565b60008115159050919050565b61323581613220565b82525050565b60c08201600082015161325160008501826131ba565b50602082015161326460208501826131ba565b50604082015161327760408501826131ba565b50606082015161328a60608501826131ba565b50608082015161329d60808501826131ba565b5060a08201516132b060a085018261322c565b50505050565b6132bf81613044565b82525050565b60006040830160008301516132dd60008601826132b6565b50602083015184820360208601526132f58282613181565b9150508091505092915050565b600060ff82169050919050565b61331881613302565b82525050565b6000608083016000830151848203600086015261333b8282613181565b915050602083015184820360208601526133558282613181565b9150506040830151848203604086015261336f8282613181565b9150506060830151613384606086018261330f565b508091505092915050565b600061339a82613024565b9050919050565b6133aa8161338f565b82525050565b60006060830160008301516133c860008601826133a1565b5060208301516133db602086018261330f565b50604083015184820360408601526133f38282613181565b9150508091505092915050565b6000606083016000830151848203600086015261341d82826133b0565b9150506020830151848203602086015261343782826133b0565b9150506040830151848203604086015261345182826133b0565b9150508091505092915050565b600061016082019050613474600083018961308a565b818103602083015261348681886131c9565b9050613495604083018761323b565b8181036101008301526134a881866132c5565b90508181036101208301526134bd818561331e565b90508181036101408301526134d28184613400565b9050979650505050505050565b600081519050919050565b600082825260208201905092915050565b6000819050602082019050919050565b600063ffffffff82169050919050565b6135248161350b565b82525050565b600060c08301600083015161354260008601826131ba565b506020830151848203602086015261355a8282613181565b915050604083015184820360408601526135748282613181565b915050606083015161358960608601826131ba565b50608083015161359c608086018261351b565b5060a08301516135af60a086018261351b565b508091505092915050565b60006135c6838361352a565b905092915050565b6000602082019050919050565b60006135e6826134df565b6135f081856134ea565b935083602082028501613602856134fb565b8060005b8581101561363e578484038952815161361f85826135ba565b945061362a836135ce565b925060208a01995050600181019050613606565b50829750879550505050505092915050565b6000602082019050818103600083015261366a81846135db565b905092915050565b600081519050919050565b600082825260208201905092915050565b6000819050602082019050919050565b600060a0830160008301516136b660008601826131ba565b5060208301516136c960208601826131ba565b5060408301516136dc60408601826132b6565b5060608301516136ef60608601826131ba565b50608083015184820360808601526137078282613181565b9150508091505092915050565b6000613720838361369e565b905092915050565b6000602082019050919050565b600061374082613672565b61374a818561367d565b93508360208202850161375c8561368e565b8060005b8581101561379857848403895281516137798582613714565b945061378483613728565b925060208a01995050600181019050613760565b50829750879550505050505092915050565b600060208201905081810360008301526137c48184613735565b905092915050565b6137d58161338f565b81146137e057600080fd5b50565b6000813590506137f2816137cc565b92915050565b600080fd5b600080fd5b7f4e487b7100000000000000000000000000000000000000000000000000000000600052604160045260246000fd5b61383a82613170565b810181811067ffffffffffffffff8211171561385957613858613802565b5b80604052505050565b600061386c6130b4565b90506138788282613831565b919050565b600067ffffffffffffffff82111561389857613897613802565b5b6138a182613170565b9050602081019050919050565b82818337600083830152505050565b60006138d06138cb8461387d565b613862565b9050828152602081018484840111156138ec576138eb6137fd565b5b6138f78482856138ae565b509392505050565b600082601f830112613914576139136137f8565b5b81356139248482602086016138bd565b91505092915050565b600080600080600060a08688031215613949576139486130be565b5b6000613957888289016137e3565b9550506020613968888289016137e3565b9450506040613979888289016137e3565b935050606061398a888289016137e3565b925050608086013567ffffffffffffffff8111156139ab576139aa6130c3565b5b6139b7888289016138ff565b9150509295509295909350565b6000806000606084860312156139dd576139dc6130be565b5b60006139eb868287016130df565b93505060206139fc868287016130df565b925050604084013567ffffffffffffffff811115613a1d57613a1c6130c3565b5b613a29868287016138ff565b9150509250925092565b613a3c8161350b565b8114613a4757600080fd5b50565b600081359050613a5981613a33565b92915050565b600080fd5b600080fd5b613a7281613044565b8114613a7d57600080fd5b50565b600081359050613a8f81613a69565b92915050565b600060408284031215613aab57613aaa613a5f565b5b613ab56040613862565b90506000613ac584828501613a80565b600083015250602082013567ffffffffffffffff811115613ae957613ae8613a64565b5b613af5848285016138ff565b60208301525092915050565b613b0a81613302565b8114613b1557600080fd5b50565b600081359050613b2781613b01565b92915050565b600060608284031215613b4357613b42613a5f565b5b613b4d6060613862565b90506000613b5d848285016137e3565b6000830152506020613b7184828501613b18565b602083015250604082013567ffffffffffffffff811115613b9557613b94613a64565b5b613ba1848285016138ff565b60408301525092915050565b600060608284031215613bc357613bc2613a5f565b5b613bcd6060613862565b9050600082013567ffffffffffffffff811115613bed57613bec613a64565b5b613bf984828501613b2d565b600083015250602082013567ffffffffffffffff811115613c1d57613c1c613a64565b5b613c2984828501613b2d565b602083015250604082013567ffffffffffffffff811115613c4d57613c4c613a64565b5b613c5984828501613b2d565b60408301525092915050565b600060808284031215613c7b57613c7a613a5f565b5b613c856080613862565b9050600082013567ffffffffffffffff811115613ca557613ca4613a64565b5b613cb1848285016138ff565b600083015250602082013567ffffffffffffffff811115613cd557613cd4613a64565b5b613ce1848285016138ff565b602083015250604082013567ffffffffffffffff811115613d0557613d04613a64565b5b613d11848285016138ff565b6040830152506060613d2584828501613b18565b60608301525092915050565b600067ffffffffffffffff821115613d4c57613d4b613802565b5b602082029050602081019050919050565b600080fd5b600060c08284031215613d7857613d77613a5f565b5b613d8260c0613862565b90506000613d92848285016130df565b600083015250602082013567ffffffffffffffff811115613db657613db5613a64565b5b613dc2848285016138ff565b602083015250604082013567ffffffffffffffff811115613de657613de5613a64565b5b613df2848285016138ff565b6040830152506060613e06848285016130df565b6060830152506080613e1a84828501613a4a565b60808301525060a0613e2e84828501613a4a565b60a08301525092915050565b6000613e4d613e4884613d31565b613862565b90508083825260208201905060208402830185811115613e7057613e6f613d5d565b5b835b81811015613eb757803567ffffffffffffffff811115613e9557613e946137f8565b5b808601613ea28982613d62565b85526020850194505050602081019050613e72565b5050509392505050565b600082601f830112613ed657613ed56137f8565b5b8135613ee6848260208601613e3a565b91505092915050565b600080600080600080600060e0888a031215613f0e57613f0d6130be565b5b600088013567ffffffffffffffff811115613f2c57613f2b6130c3565b5b613f388a828b016138ff565b975050602088013567ffffffffffffffff811115613f5957613f586130c3565b5b613f658a828b016138ff565b9650506040613f768a828b01613a4a565b955050606088013567ffffffffffffffff811115613f9757613f966130c3565b5b613fa38a828b01613a95565b945050608088013567ffffffffffffffff811115613fc457613fc36130c3565b5b613fd08a828b01613bad565b93505060a088013567ffffffffffffffff811115613ff157613ff06130c3565b5b613ffd8a828b01613c65565b92505060c088013567ffffffffffffffff81111561401e5761401d6130c3565b5b61402a8a828b01613ec1565b91505092959891949750929550565b600081519050919050565b600082825260208201905092915050565b6000819050602082019050919050565b600060608301600083015184820360008601526140828282613181565b9150506020830151848203602086015261409c8282613181565b91505060408301516140b160408601826131ba565b508091505092915050565b60c0820160008201516140d260008501826131ba565b5060208201516140e560208501826131ba565b5060408201516140f860408501826131ba565b50606082015161410b60608501826131ba565b50608082015161411e60808501826131ba565b5060a082015161413160a085018261322c565b50505050565b600060408301600083015161414f60008601826132b6565b50602083015184820360208601526141678282613181565b9150508091505092915050565b600060808301600083015184820360008601526141918282613181565b915050602083015184820360208601526141ab8282613181565b915050604083015184820360408601526141c58282613181565b91505060608301516141da606086018261330f565b508091505092915050565b6000606083016000830151848203600086015261420282826133b0565b9150506020830151848203602086015261421c82826133b0565b9150506040830151848203604086015261423682826133b0565b9150508091505092915050565b60006101608301600083015161425c60008601826131ba565b50602083015184820360208601526142748282614065565b915050604083015161428960408601826140bc565b5060608301518482036101008601526142a28282614137565b91505060808301518482036101208601526142bd8282614174565b91505060a08301518482036101408601526142d882826141e5565b9150508091505092915050565b60006142f18383614243565b905092915050565b6000602082019050919050565b600061431182614039565b61431b8185614044565b93508360208202850161432d85614055565b8060005b85811015614369578484038952815161434a85826142e5565b9450614355836142f9565b925060208a01995050600181019050614331565b50829750879550505050505092915050565b600060208201905081810360008301526143958184614306565b905092915050565b6143a681613220565b82525050565b60006020820190506143c1600083018461439d565b92915050565b7f4e487b7100000000000000000000000000000000000000000000000000000000600052602260045260246000fd5b6000600282049050600182168061440e57607f821691505b602082108103614421576144206143c7565b5b50919050565b7f4e487b7100000000000000000000000000000000000000000000000000000000600052603260045260246000fd5b7f4e487b7100000000000000000000000000000000000000000000000000000000600052601160045260246000fd5b600061449082613080565b91507fffffffffffffffffffffffffffffffffffffffffffffffffffffffffffffffff82036144c2576144c1614456565b5b600182019050919050565b600082825260208201905092915050565b7f546869732063616d706169676e206861732073746f7070656400000000000000600082015250565b60006145146019836144cd565b915061451f826144de565b602082019050919050565b6000602082019050818103600083015261454381614507565b9050919050565b7f546869732063616d706169676e20697320616c7265616479206f766572000000600082015250565b6000614580601d836144cd565b915061458b8261454a565b602082019050919050565b600060208201905081810360008301526145af81614573565b9050919050565b7f54686520626f7820494420697320696e76616c69640000000000000000000000600082015250565b60006145ec6015836144cd565b91506145f7826145b6565b602082019050919050565b6000602082019050818103600083015261461b816145df565b9050919050565b7f416c6c20626f786573206f66207468697320747970652068617665206265656e60008201527f20736f6c64000000000000000000000000000000000000000000000000000000602082015250565b600061467e6025836144cd565b915061468982614622565b604082019050919050565b600060208201905081810360008301526146ad81614671565b9050919050565b7f476976656e20616d6f756e742069732062656c6f7720626f7820707269636500600082015250565b60006146ea601f836144cd565b91506146f5826146b4565b602082019050919050565b60006020820190508181036000830152614719816146dd565b9050919050565b600061472b8261350b565b91506147368361350b565b92508282101561474957614748614456565b5b828203905092915050565b600061475f82613080565b915061476a83613080565b9250827fffffffffffffffffffffffffffffffffffffffffffffffffffffffffffffffff0382111561479f5761479e614456565b5b828201905092915050565b60008160001c9050919050565b6000819050919050565b60006147d46147cf836147aa565b6147b7565b9050919050565b60008190508160005260206000209050919050565b600081546147fd816143f6565b614807818661312c565b94506001821660008114614822576001811461483457614867565b60ff1983168652602086019350614867565b61483d856147db565b60005b8381101561485f57815481890152600182019150602081019050614840565b808801955050505b50505092915050565b6000606083016000808401858303600087015261488d83826147f0565b9250506001840185830360208701526148a683826147f0565b925050600284015490506148b9816147c1565b6148c660408701826131ba565b50819250505092915050565b600060ff82169050919050565b60006148f26148ed836147aa565b6148d2565b9050919050565b60c08201600080830154905061490e816147c1565b61491b60008601826131ba565b506001830154905061492c816147c1565b61493960208601826131ba565b506002830154905061494a816147c1565b61495760408601826131ba565b5060038301549050614968816147c1565b61497560608601826131ba565b5060048301549050614986816147c1565b61499360808601826131ba565b50600583015490506149a4816148df565b6149b160a086018261322c565b5050505050565b600073ffffffffffffffffffffffffffffffffffffffff82169050919050565b60006149eb6149e6836147aa565b6149b8565b9050919050565b6000604083016000808401549050614a09816149d8565b614a1660008701826132b6565b50600184018583036020870152614a2d83826147f0565b925050819250505092915050565b600060ff82169050919050565b6000614a5b614a56836147aa565b614a3b565b9050919050565b60006080830160008084018583036000870152614a7f83826147f0565b925050600184018583036020870152614a9883826147f0565b925050600284018583036040870152614ab183826147f0565b92505060038401549050614ac481614a48565b614ad1606087018261330f565b50819250505092915050565b600073ffffffffffffffffffffffffffffffffffffffff82169050919050565b6000614b10614b0b836147aa565b614add565b9050919050565b60008160a01c9050919050565b6000614b37614b3283614b17565b614a3b565b9050919050565b6000606083016000808401549050614b5581614afd565b614b6260008701826133a1565b50614b6c81614b24565b614b79602087018261330f565b50600184018583036040870152614b9083826147f0565b925050819250505092915050565b60006060830160008084018583036000870152614bbb8382614b3e565b925050600284018583036020870152614bd48382614b3e565b925050600484018583036040870152614bed8382614b3e565b925050819250505092915050565b600061016083016000808401549050614c13816147c1565b614c2060008701826131ba565b50600184018583036020870152614c378382614870565b92505060048401614c4b60408701826148f9565b50600a8401858303610100870152614c6383826149f2565b925050600c8401858303610120870152614c7d8382614a62565b92505060108401858303610140870152614c978382614b9e565b925050819250505092915050565b60006040820190508181036000830152614cbf8185614bfb565b90508181036020830152614cd38184613735565b90509392505050565b7f4475726174696f6e206d75737420626520686967686572207468616e20300000600082015250565b6000614d12601e836144cd565b9150614d1d82614cdc565b602082019050919050565b60006020820190508181036000830152614d4181614d05565b9050919050565b7f4475726174696f6e2063616e277420626520686967686572207468616e20362060008201527f7765656b73000000000000000000000000000000000000000000000000000000602082015250565b6000614da46025836144cd565b9150614daf82614d48565b604082019050919050565b60006020820190508181036000830152614dd381614d97565b9050919050565b7f446561646c696e65206d75737420626520696e20746865206675747572650000600082015250565b6000614e10601e836144cd565b9150614e1b82614dda565b602082019050919050565b60006020820190508181036000830152614e3f81614e03565b9050919050565b7f5468657265206d757374206265206174206c65617374206f6e6520706965636560008201527f206f66206561636820626f780000000000000000000000000000000000000000602082015250565b6000614ea2602c836144cd565b9150614ead82614e46565b604082019050919050565b60006020820190508181036000830152614ed181614e95565b9050919050565b7f496e697469616c6c7920746f74616c20616e6420617661696c61626c65206d7560008201527f737420626520657175616c000000000000000000000000000000000000000000602082015250565b6000614f34602b836144cd565b9150614f3f82614ed8565b604082019050919050565b60006020820190508181036000830152614f6381614f27565b9050919050565b7f5468657265206d757374206265206174206c65617374206f6e6520626f78206960008201527f6e20746f74616c00000000000000000000000000000000000000000000000000602082015250565b6000614fc66027836144cd565b9150614fd182614f6a565b604082019050919050565b60006020820190508181036000830152614ff581614fb9565b9050919050565b600061500782613080565b915061501283613080565b92508282101561502557615024614456565b5b828203905092915050565b7f5468652063616d706169676e206d7573742062652066696e6973686564000000600082015250565b6000615066601d836144cd565b915061507182615030565b602082019050919050565b6000602082019050818103600083015261509581615059565b9050919050565b7f54686572652063616e277420626520616e7920626f786573206c656674000000600082015250565b60006150d2601d836144cd565b91506150dd8261509c565b602082019050919050565b60006020820190508181036000830152615101816150c5565b9050919050565b61511181613220565b811461511c57600080fd5b50565b60008151905061512e81615108565b92915050565b60006020828403121561514a576151496130be565b5b60006151588482850161511f565b91505092915050565b7f537570706c7920636861696e206d75737420626520636f6d706c657465640000600082015250565b6000615197601e836144cd565b91506151a282615161565b602082019050919050565b600060208201905081810360008301526151c68161518a565b9050919050565b60006151d882613080565b91506151e383613080565b9250817fffffffffffffffffffffffffffffffffffffffffffffffffffffffffffffffff048311821515161561521c5761521b614456565b5b828202905092915050565b7f43616d706169676e20616c72656164792073746f707065640000000000000000600082015250565b600061525d6018836144cd565b915061526882615227565b602082019050919050565b6000602082019050818103600083015261528c81615250565b9050919050565b7f546869732063616d706169676e206973206f7665720000000000000000000000600082015250565b60006152c96015836144cd565b91506152d482615293565b602082019050919050565b600060208201905081810360008301526152f8816152bc565b9050919050565b7f4f6e6c7920746865206f776e65722063616e2073746f7020612063616d70616960008201527f676e000000000000000000000000000000000000000000000000000000000000602082015250565b600061535b6022836144cd565b9150615366826152ff565b604082019050919050565b6000602082019050818103600083015261538a8161534e565b905091905056fea26469706673582212209caa1ab4f3105eff35045272dfe9c2afe9d1f1cd8e7f498e886a41c6f2871ff764736f6c634300080d0033",
  "immutableReferences": {},
  "source": "// SPDX-License-Identifier: AGPL\npragma solidity ^0.8.13;\n\nimport \"./Types.sol\";\nimport \"./SupplyChains.sol\";\n\ncontract Crowdfunding {\n    // address of the supply chain contract\n    address public supplychainAddress;\n\n    // all campaigns\n    mapping(uint256 => Campaign) public campaigns;\n    // Boxes of each campaign\n    mapping(uint256 => mapping(uint256 => Box)) boxes;\n    // Sold boxes of each campaign (campignId => sellId => BoxSellRef)\n    mapping(uint256 => mapping(uint256 => BoxSellRef)) soldBoxes;\n\n    uint256 public numberOfCampaigns = 0;\n\n    // retrieve supply chain contract address from truffle deployment\n    constructor(address _supplychainAddress) {\n        supplychainAddress = _supplychainAddress;\n    }\n\n    /**\n     * Creates a new campaign\n     */\n    function createCampaign(\n        string memory _title,\n        string memory _description,\n        uint32 _duration,\n        CampaignOwner memory _campaignOwner,\n        StakeholderList memory _stakeholders,\n        CampaignAnimalData memory _animal,\n        Box[] memory _boxes\n    ) public returns (uint256) {\n        // check crowdfunding duration\n        require(_duration > 0, \"Duration must be higher than 0\");\n        require(_duration <= 6 weeks, \"Duration can't be higher than 6 weeks\");\n\n        // create deadline by adding the duration to the current timestamp\n        uint256 current = block.timestamp;\n        uint256 deadline = current + _duration;\n\n        // validate\n        require(deadline > current, \"Deadline must be in the future\");\n\n        // add boxes to campaign\n        uint256 totalNumOfBoxes = 0;\n        for (uint256 index = 0; index < _boxes.length; index++) {\n            Box memory box = _boxes[index];\n            require(\n                box.total > 0,\n                \"There must be at least one piece of each box\"\n            );\n            require(\n                box.total == box.available,\n                \"Initially total and available must be equal\"\n            );\n            totalNumOfBoxes += box.total;\n            boxes[numberOfCampaigns][box.id] = box;\n        }\n        require(totalNumOfBoxes > 0, \"There must be at least one box in total\");\n\n        Campaign storage campaign = campaigns[numberOfCampaigns];\n        campaign.id = numberOfCampaigns;\n        campaign.owner = _campaignOwner;\n        campaign.info.title = _title;\n        campaign.info.description = _description;\n        campaign.info.deadline = deadline;\n        campaign.meta.createdAt = block.timestamp;\n        campaign.meta.collectedAmount = 0;\n        campaign.meta.isStopped = false;\n        campaign.meta.totalBoxes = totalNumOfBoxes;\n        campaign.meta.boxesSold = 0;\n        campaign.meta.totalBoxTypes = _boxes.length;\n        campaign.animal = _animal;\n        campaign.stakeholders = _stakeholders;\n\n        // increase total num of campaigns\n        numberOfCampaigns++;\n\n        // return the most recent campaign index\n        return numberOfCampaigns - 1;\n    }\n\n    /**\n     * Returns the total number of campaigns\n     */\n    function getNumberOfCampaigns() public view returns (uint256) {\n        return numberOfCampaigns;\n    }\n\n    /**\n     * Returns all campaigns\n     */\n    function getCampaigns() public view returns (Campaign[] memory) {\n        Campaign[] memory allCampaigns = new Campaign[](numberOfCampaigns);\n        for (uint256 index = 0; index < numberOfCampaigns; index++) {\n            Campaign storage campaign = campaigns[index];\n            allCampaigns[index] = campaign;\n        }\n        return allCampaigns;\n    }\n\n    /**\n     * Returns all boxes of a specific campaign\n     */\n    function getBoxes(uint256 _campaignId) public view returns (Box[] memory) {\n        Campaign storage campaign = campaigns[_campaignId];\n        uint256 totalBoxTypes = campaign.meta.totalBoxTypes;\n        Box[] memory boxesOfCampaign = new Box[](totalBoxTypes);\n        for (uint256 index = 0; index < totalBoxTypes; index++) {\n            Box storage box = boxes[_campaignId][index];\n            boxesOfCampaign[index] = box;\n        }\n        return boxesOfCampaign;\n    }\n\n    /**\n     * Returns the sell reference of boxes for a specific campaign\n     */\n    function getSoldBoxes(\n        uint256 _campaignId\n    ) public view returns (BoxSellRef[] memory) {\n        Campaign storage campaign = campaigns[_campaignId];\n        uint256 boxesSold = campaign.meta.boxesSold;\n        BoxSellRef[] memory sellRefs = new BoxSellRef[](boxesSold);\n        for (uint256 index = 0; index < boxesSold; index++) {\n            BoxSellRef storage sellRef = soldBoxes[_campaignId][index];\n            sellRefs[index] = sellRef;\n        }\n        return sellRefs;\n    }\n\n    /**\n     * Removes a campaign\n     */\n    function stopCampaign(uint256 _campaignId) public returns (bool) {\n        Campaign storage campaign = campaigns[_campaignId];\n        require(!campaign.meta.isStopped, \"Campaign already stopped\");\n        require(\n            campaign.info.deadline > block.timestamp,\n            \"This campaign is over\"\n        );\n        require(\n            msg.sender == campaign.owner.owner,\n            \"Only the owner can stop a campaign\"\n        );\n\n        campaign.meta.isStopped = true;\n\n        return true;\n    }\n\n    /**\n     * Buys a box\n     */\n    function buyBox(\n        uint256 _campaignId,\n        uint256 _boxId,\n        string memory _physAddress\n    ) public payable {\n        // get campaign ref\n        Campaign storage campaign = campaigns[_campaignId];\n        // check if this is an ongoing campaign\n        require(!campaign.meta.isStopped, \"This campaign has stopped\");\n        require(\n            campaign.info.deadline > block.timestamp,\n            \"This campaign is already over\"\n        );\n\n        // check if this campaign still has available boxes for the requested kind\n        Box storage box = boxes[_campaignId][_boxId];\n        require(box.id == _boxId, \"The box ID is invalid\");\n        require(box.available > 0, \"All boxes of this type have been sold\");\n        uint256 amount = msg.value;\n        require(amount >= box.price, \"Given amount is below box price\");\n\n        // Add buyer (Don't increase boxes sold yet, we need it starting at 0)\n        uint256 sellId = campaign.meta.boxesSold;\n        BoxSellRef storage sellRef = soldBoxes[_campaignId][\n            campaign.meta.boxesSold\n        ];\n        sellRef.boxId = box.id;\n        sellRef.id = sellId;\n        sellRef.owner = msg.sender;\n        sellRef.physAddress = _physAddress;\n        sellRef.boughtAt = block.timestamp;\n\n        // Updates available boxes by one\n        box.available -= 1;\n        // Update campaign meta\n        CampaignMeta storage meta = campaign.meta;\n        meta.boxesSold += 1;\n        meta.collectedAmount += amount;\n\n        if (campaign.meta.boxesSold == campaign.meta.totalBoxes) {\n            // Mark campaign as stopped\n            campaign.meta.isStopped = true;\n            // Start supply chain\n            SupplyChains(supplychainAddress).StartSupplyChain(campaign, getSoldBoxes(campaign.id));\n        }\n    }\n\n    /**\n     * Pay-out all stakeholders of the campaign\n     */\n    function payOut(uint256 _campaignId) public {\n        Campaign storage campaign = campaigns[_campaignId];\n        require(campaign.meta.isStopped, \"The campaign must be finished\");\n        require(\n            campaign.meta.boxesSold == campaign.meta.totalBoxes,\n            \"There can't be any boxes left\"\n        );\n        // Check if supply chain has been completed\n        require(\n            SupplyChains(supplychainAddress).isCompleted(campaign.id), \n            \"Supply chain must be completed\"\n        );\n\n        // Generate shares\n        uint256 farmerShare = campaign.meta.collectedAmount * campaign.stakeholders.farmer.share;\n        uint256 butcherShare = campaign.meta.collectedAmount * campaign.stakeholders.butcher.share;\n        uint256 deliveryShare = campaign.meta.collectedAmount * campaign.stakeholders.delivery.share;\n\n        // payout stakeholders\n        payable(campaign.stakeholders.farmer.owner).transfer(farmerShare);\n        payable(campaign.stakeholders.butcher.owner).transfer(butcherShare);\n        payable(campaign.stakeholders.delivery.owner).transfer(deliveryShare);\n    }\n\n    /*\n    * Initialize data for supply chain testing purposes: add a new campaign\n    */\n    function initializeData(\n        address payable owner,\n        address payable farmer, \n        address payable butcher,\n        address payable delivery,\n        string memory private_key\n    ) public {\n        string memory title = \"Test Campaign\";\n        string memory descritpion = \"This is a test campaign\";\n        uint32 duration = 6 weeks;\n        CampaignOwner memory campaign_owner = CampaignOwner(owner, private_key);\n\n        Stakeholder memory test_farmer = Stakeholder(farmer, 20, \"Farmer\");\n        Stakeholder memory test_butcher = Stakeholder(butcher, 30, \"Butcher\");\n        Stakeholder memory test_delivery = Stakeholder(delivery, 50, \"Delivery\");\n        StakeholderList memory stakeholders = StakeholderList(test_farmer, test_butcher, test_delivery);\n\n        CampaignAnimalData memory animal = CampaignAnimalData(\"123456789\", \"Berta\", \"Bauernhof\", 2);\n\n        Box[] memory test_boxes = new Box[](3);\n        Box memory box1 = Box(0, \"Test Box 1\", \"descritpion\", 10000, 1, 1);\n        Box memory box2 = Box(1, \"Test Box 2\", \"descritpion\", 15000, 2, 2);\n        Box memory box3 = Box(2, \"Test Box 3\", \"descritpion\", 20000, 1, 1);\n        test_boxes[0] = box1;\n        test_boxes[1] = box2;\n        test_boxes[2] = box3;\n\n        createCampaign(title, descritpion, duration, campaign_owner, stakeholders, animal, test_boxes);\n    }\n}\n",
  "sourcePath": "/Users/cassolseba/VSCode/blockchain/146157_Blockchain/smart_contracts/contracts/Crowdfunding.sol",
  "compiler": {
    "name": "solc",
    "version": "0.8.13+commit.abaa5c0e.Emscripten.clang"
  },
  "schemaVersion": "3.4.14",
  "updatedAt": "2023-08-12T10:13:54.166Z",
  "devdoc": {
    "kind": "dev",
    "methods": {},
    "version": 1
  },
  "userdoc": {
    "kind": "user",
    "methods": {
      "buyBox(uint256,uint256,string)": {
        "notice": "Buys a box"
      },
      "createCampaign(string,string,uint32,(address,string),((address,uint8,string),(address,uint8,string),(address,uint8,string)),(string,string,string,uint8),(uint256,string,string,uint256,uint32,uint32)[])": {
        "notice": "Creates a new campaign"
      },
      "getBoxes(uint256)": {
        "notice": "Returns all boxes of a specific campaign"
      },
      "getCampaigns()": {
        "notice": "Returns all campaigns"
      },
      "getNumberOfCampaigns()": {
        "notice": "Returns the total number of campaigns"
      },
      "getSoldBoxes(uint256)": {
        "notice": "Returns the sell reference of boxes for a specific campaign"
      },
      "payOut(uint256)": {
        "notice": "Pay-out all stakeholders of the campaign"
      },
      "stopCampaign(uint256)": {
        "notice": "Removes a campaign"
      }
    },
    "version": 1
  }
}