{
  "contractName": "Crowdfunding",
  "abi": [
    {
      "inputs": [],
      "name": "supplychainAddress",
      "outputs": [
        {
          "internalType": "address",
          "name": "",
          "type": "address"
        }
      ],
      "stateMutability": "view",
      "type": "function"
    },
    {
      "inputs": [
        {
          "internalType": "address",
          "name": "_supplychainAddress",
          "type": "address"
        }
      ],
      "name": "setSupplyChainsAddress",
      "outputs": [],
      "stateMutability": "nonpayable",
      "type": "function"
    },
    {
      "inputs": [
        {
          "internalType": "string",
          "name": "_title",
          "type": "string"
        },
        {
          "internalType": "string",
          "name": "_description",
          "type": "string"
        },
        {
          "internalType": "uint32",
          "name": "_duration",
          "type": "uint32"
        },
        {
          "components": [
            {
              "internalType": "address",
              "name": "owner",
              "type": "address"
            },
            {
              "internalType": "string",
              "name": "ownerPublicKey",
              "type": "string"
            }
          ],
          "internalType": "struct CampaignOwner",
          "name": "_campaignOwner",
          "type": "tuple"
        },
        {
          "components": [
            {
              "components": [
                {
                  "internalType": "address payable",
                  "name": "owner",
                  "type": "address"
                },
                {
                  "internalType": "uint8",
                  "name": "share",
                  "type": "uint8"
                },
                {
                  "internalType": "string",
                  "name": "info",
                  "type": "string"
                }
              ],
              "internalType": "struct Stakeholder",
              "name": "farmer",
              "type": "tuple"
            },
            {
              "components": [
                {
                  "internalType": "address payable",
                  "name": "owner",
                  "type": "address"
                },
                {
                  "internalType": "uint8",
                  "name": "share",
                  "type": "uint8"
                },
                {
                  "internalType": "string",
                  "name": "info",
                  "type": "string"
                }
              ],
              "internalType": "struct Stakeholder",
              "name": "butcher",
              "type": "tuple"
            },
            {
              "components": [
                {
                  "internalType": "address payable",
                  "name": "owner",
                  "type": "address"
                },
                {
                  "internalType": "uint8",
                  "name": "share",
                  "type": "uint8"
                },
                {
                  "internalType": "string",
                  "name": "info",
                  "type": "string"
                }
              ],
              "internalType": "struct Stakeholder",
              "name": "delivery",
              "type": "tuple"
            }
          ],
          "internalType": "struct StakeholderList",
          "name": "_stakeholders",
          "type": "tuple"
        },
        {
          "components": [
            {
              "internalType": "string",
              "name": "earTag",
              "type": "string"
            },
            {
              "internalType": "string",
              "name": "name",
              "type": "string"
            },
            {
              "internalType": "string",
              "name": "farm",
              "type": "string"
            },
            {
              "internalType": "uint8",
              "name": "age",
              "type": "uint8"
            }
          ],
          "internalType": "struct CampaignAnimalData",
          "name": "_animal",
          "type": "tuple"
        },
        {
          "components": [
            {
              "internalType": "uint8",
              "name": "id",
              "type": "uint8"
            },
            {
              "internalType": "string",
              "name": "title",
              "type": "string"
            },
            {
              "internalType": "string",
              "name": "description",
              "type": "string"
            },
            {
              "internalType": "uint256",
              "name": "price",
              "type": "uint256"
            },
            {
              "internalType": "uint8",
              "name": "total",
              "type": "uint8"
            },
            {
              "internalType": "uint8",
              "name": "available",
              "type": "uint8"
            }
          ],
          "internalType": "struct Box[]",
          "name": "_boxes",
          "type": "tuple[]"
        }
      ],
      "name": "createCampaign",
      "outputs": [],
      "stateMutability": "nonpayable",
      "type": "function"
    },
    {
      "inputs": [],
      "name": "getNumberOfCampaigns",
      "outputs": [
        {
          "internalType": "uint256",
          "name": "",
          "type": "uint256"
        }
      ],
      "stateMutability": "view",
      "type": "function"
    },
    {
      "inputs": [],
      "name": "getCampaigns",
      "outputs": [
        {
          "components": [
            {
              "internalType": "uint256",
              "name": "id",
              "type": "uint256"
            },
            {
              "components": [
                {
                  "internalType": "string",
                  "name": "title",
                  "type": "string"
                },
                {
                  "internalType": "string",
                  "name": "description",
                  "type": "string"
                },
                {
                  "internalType": "uint256",
                  "name": "deadline",
                  "type": "uint256"
                }
              ],
              "internalType": "struct CampaignInfo",
              "name": "info",
              "type": "tuple"
            },
            {
              "components": [
                {
                  "internalType": "uint256",
                  "name": "collectedAmount",
                  "type": "uint256"
                },
                {
                  "internalType": "uint256",
                  "name": "createdAt",
                  "type": "uint256"
                },
                {
                  "internalType": "uint16",
                  "name": "totalBoxes",
                  "type": "uint16"
                },
                {
                  "internalType": "uint16",
                  "name": "boxesSold",
                  "type": "uint16"
                },
                {
                  "internalType": "uint8",
                  "name": "totalBoxTypes",
                  "type": "uint8"
                },
                {
                  "internalType": "bool",
                  "name": "isStopped",
                  "type": "bool"
                }
              ],
              "internalType": "struct CampaignMeta",
              "name": "meta",
              "type": "tuple"
            },
            {
              "components": [
                {
                  "internalType": "address",
                  "name": "owner",
                  "type": "address"
                },
                {
                  "internalType": "string",
                  "name": "ownerPublicKey",
                  "type": "string"
                }
              ],
              "internalType": "struct CampaignOwner",
              "name": "owner",
              "type": "tuple"
            },
            {
              "components": [
                {
                  "internalType": "string",
                  "name": "earTag",
                  "type": "string"
                },
                {
                  "internalType": "string",
                  "name": "name",
                  "type": "string"
                },
                {
                  "internalType": "string",
                  "name": "farm",
                  "type": "string"
                },
                {
                  "internalType": "uint8",
                  "name": "age",
                  "type": "uint8"
                }
              ],
              "internalType": "struct CampaignAnimalData",
              "name": "animal",
              "type": "tuple"
            },
            {
              "components": [
                {
                  "components": [
                    {
                      "internalType": "address payable",
                      "name": "owner",
                      "type": "address"
                    },
                    {
                      "internalType": "uint8",
                      "name": "share",
                      "type": "uint8"
                    },
                    {
                      "internalType": "string",
                      "name": "info",
                      "type": "string"
                    }
                  ],
                  "internalType": "struct Stakeholder",
                  "name": "farmer",
                  "type": "tuple"
                },
                {
                  "components": [
                    {
                      "internalType": "address payable",
                      "name": "owner",
                      "type": "address"
                    },
                    {
                      "internalType": "uint8",
                      "name": "share",
                      "type": "uint8"
                    },
                    {
                      "internalType": "string",
                      "name": "info",
                      "type": "string"
                    }
                  ],
                  "internalType": "struct Stakeholder",
                  "name": "butcher",
                  "type": "tuple"
                },
                {
                  "components": [
                    {
                      "internalType": "address payable",
                      "name": "owner",
                      "type": "address"
                    },
                    {
                      "internalType": "uint8",
                      "name": "share",
                      "type": "uint8"
                    },
                    {
                      "internalType": "string",
                      "name": "info",
                      "type": "string"
                    }
                  ],
                  "internalType": "struct Stakeholder",
                  "name": "delivery",
                  "type": "tuple"
                }
              ],
              "internalType": "struct StakeholderList",
              "name": "stakeholders",
              "type": "tuple"
            }
          ],
          "internalType": "struct Campaign[]",
          "name": "",
          "type": "tuple[]"
        }
      ],
      "stateMutability": "view",
      "type": "function"
    },
    {
      "inputs": [
        {
          "internalType": "uint256",
          "name": "_campaignId",
          "type": "uint256"
        }
      ],
      "name": "getBoxes",
      "outputs": [
        {
          "components": [
            {
              "internalType": "uint8",
              "name": "id",
              "type": "uint8"
            },
            {
              "internalType": "string",
              "name": "title",
              "type": "string"
            },
            {
              "internalType": "string",
              "name": "description",
              "type": "string"
            },
            {
              "internalType": "uint256",
              "name": "price",
              "type": "uint256"
            },
            {
              "internalType": "uint8",
              "name": "total",
              "type": "uint8"
            },
            {
              "internalType": "uint8",
              "name": "available",
              "type": "uint8"
            }
          ],
          "internalType": "struct Box[]",
          "name": "",
          "type": "tuple[]"
        }
      ],
      "stateMutability": "view",
      "type": "function"
    },
    {
      "inputs": [
        {
          "internalType": "uint256",
          "name": "_campaignId",
          "type": "uint256"
        }
      ],
      "name": "getSoldBoxes",
      "outputs": [
        {
          "components": [
            {
              "internalType": "uint16",
              "name": "id",
              "type": "uint16"
            },
            {
              "internalType": "uint8",
              "name": "boxId",
              "type": "uint8"
            },
            {
              "internalType": "address",
              "name": "owner",
              "type": "address"
            },
            {
              "internalType": "uint256",
              "name": "boughtAt",
              "type": "uint256"
            },
            {
              "internalType": "string",
              "name": "physAddress",
              "type": "string"
            }
          ],
          "internalType": "struct BoxSellRef[]",
          "name": "",
          "type": "tuple[]"
        }
      ],
      "stateMutability": "view",
      "type": "function"
    },
    {
      "inputs": [
        {
          "internalType": "uint256",
          "name": "_campaignId",
          "type": "uint256"
        }
      ],
      "name": "stopCampaign",
      "outputs": [],
      "stateMutability": "nonpayable",
      "type": "function"
    },
    {
      "inputs": [
        {
          "internalType": "uint256",
          "name": "_campaignId",
          "type": "uint256"
        },
        {
          "internalType": "uint8",
          "name": "_boxId",
          "type": "uint8"
        },
        {
          "internalType": "string",
          "name": "_physAddress",
          "type": "string"
        }
      ],
      "name": "buyBox",
      "outputs": [],
      "stateMutability": "payable",
      "type": "function"
    },
    {
      "inputs": [
        {
          "internalType": "uint256",
          "name": "_campaignId",
          "type": "uint256"
        }
      ],
      "name": "payOut",
      "outputs": [],
      "stateMutability": "payable",
      "type": "function"
    }
  ],
  "bytecode": "0x6080604052600060045534801561001557600080fd5b506149b0806100256000396000f3fe6080604052600436106100915760003560e01c806382fc7ddd1161005957806382fc7ddd14610180578063a6b03633146101a9578063da333ca6146101d4578063e4aafc2c146101f0578063ec6c82161461021b57610091565b80630764d62a146100965780633267f8ab146100c157806332e75749146100fe5780633e8abf221461013b578063766609d914610157575b600080fd5b3480156100a257600080fd5b506100ab610244565b6040516100b8919061268b565b60405180910390f35b3480156100cd57600080fd5b506100e860048036038101906100e391906126f0565b610268565b6040516100f59190612933565b60405180910390f35b34801561010a57600080fd5b50610125600480360381019061012091906126f0565b610506565b6040516101329190612ab9565b60405180910390f35b61015560048036038101906101509190612c3c565b610751565b005b34801561016357600080fd5b5061017e60048036038101906101799190612cd7565b610c56565b005b34801561018c57600080fd5b506101a760048036038101906101a291906131b6565b610c99565b005b3480156101b557600080fd5b506101be611445565b6040516101cb91906136bc565b60405180910390f35b6101ee60048036038101906101e991906126f0565b611d39565b005b3480156101fc57600080fd5b50610205612106565b60405161021291906136ed565b60405180910390f35b34801561022757600080fd5b50610242600480360381019061023d91906126f0565b612110565b005b60008054906101000a900473ffffffffffffffffffffffffffffffffffffffff1681565b6060600060016000848152602001908152602001600020905060008160040160020160049054906101000a900460ff16905060008160ff1667ffffffffffffffff8111156102b9576102b8612b11565b5b6040519080825280602002602001820160405280156102f257816020015b6102df61239c565b8152602001906001900390816102d75790505b50905060005b8260ff168160ff1610156104fa5760006002600088815260200190815260200160002060008360ff1660ff1681526020019081526020016000209050806040518060c00160405290816000820160009054906101000a900460ff1660ff1660ff16815260200160018201805461036d90613737565b80601f016020809104026020016040519081016040528092919081815260200182805461039990613737565b80156103e65780601f106103bb576101008083540402835291602001916103e6565b820191906000526020600020905b8154815290600101906020018083116103c957829003601f168201915b505050505081526020016002820180546103ff90613737565b80601f016020809104026020016040519081016040528092919081815260200182805461042b90613737565b80156104785780601f1061044d57610100808354040283529160200191610478565b820191906000526020600020905b81548152906001019060200180831161045b57829003601f168201915b50505050508152602001600382015481526020016004820160009054906101000a900460ff1660ff1660ff1681526020016004820160019054906101000a900460ff1660ff1660ff1681525050838360ff16815181106104db576104da613768565b5b60200260200101819052505080806104f2906137c6565b9150506102f8565b50809350505050919050565b6060600060016000848152602001908152602001600020905060008160040160020160029054906101000a900461ffff16905060008161ffff1667ffffffffffffffff81111561055957610558612b11565b5b60405190808252806020026020018201604052801561059257816020015b61057f6123db565b8152602001906001900390816105775790505b50905060005b8261ffff168161ffff1610156107455760006003600088815260200190815260200160002060008361ffff1681526020019081526020016000209050806040518060a00160405290816000820160009054906101000a900461ffff1661ffff1661ffff1681526020016000820160029054906101000a900460ff1660ff1660ff1681526020016000820160039054906101000a900473ffffffffffffffffffffffffffffffffffffffff1673ffffffffffffffffffffffffffffffffffffffff1673ffffffffffffffffffffffffffffffffffffffff1681526020016001820154815260200160028201805461068d90613737565b80601f01602080910402602001604051908101604052809291908181526020018280546106b990613737565b80156107065780601f106106db57610100808354040283529160200191610706565b820191906000526020600020905b8154815290600101906020018083116106e957829003601f168201915b505050505081525050838361ffff168151811061072657610725613768565b5b602002602001018190525050808061073d906137ef565b915050610598565b50809350505050919050565b60006001600085815260200190815260200160002090508060040160020160059054906101000a900460ff16156107bd576040517f08c379a00000000000000000000000000000000000000000000000000000000081526004016107b490613876565b60405180910390fd5b42816001016002015411610806576040517f08c379a00000000000000000000000000000000000000000000000000000000081526004016107fd906138e2565b60405180910390fd5b60006002600086815260200190815260200160002060008560ff1660ff16815260200190815260200160002090508360ff168160000160009054906101000a900460ff1660ff161461088d576040517f08c379a00000000000000000000000000000000000000000000000000000000081526004016108849061394e565b60405180910390fd5b60008160040160019054906101000a900460ff1660ff16116108e4576040517f08c379a00000000000000000000000000000000000000000000000000000000081526004016108db906139e0565b60405180910390fd5b60003490508160030154811015610930576040517f08c379a000000000000000000000000000000000000000000000000000000000815260040161092790613a4c565b60405180910390fd5b60008360040160020160029054906101000a900461ffff16905060006003600089815260200190815260200160002060008660040160020160029054906101000a900461ffff1661ffff16815260200190815260200160002090508360000160009054906101000a900460ff168160000160026101000a81548160ff021916908360ff160217905550818160000160006101000a81548161ffff021916908361ffff160217905550338160000160036101000a81548173ffffffffffffffffffffffffffffffffffffffff021916908373ffffffffffffffffffffffffffffffffffffffff16021790555085816002019080519060200190610a33929190612427565b5042816001018190555060018460040160018282829054906101000a900460ff16610a5e9190613a6c565b92506101000a81548160ff021916908360ff160217905550600085600401905060018160020160028282829054906101000a900461ffff16610aa09190613aa0565b92506101000a81548161ffff021916908361ffff16021790555083816000016000828254610ace9190613ad8565b9250508190555060008054906101000a900473ffffffffffffffffffffffffffffffffffffffff1673ffffffffffffffffffffffffffffffffffffffff1663868142568a846040518363ffffffff1660e01b8152600401610b30929190613d2c565b600060405180830381600087803b158015610b4a57600080fd5b505af1158015610b5e573d6000803e3d6000fd5b505050508560040160020160009054906101000a900461ffff1661ffff168660040160020160029054906101000a900461ffff1661ffff1603610c4b5760018660040160020160056101000a81548160ff02191690831515021790555060008054906101000a900473ffffffffffffffffffffffffffffffffffffffff1673ffffffffffffffffffffffffffffffffffffffff16635c9f048d87600001546040518263ffffffff1660e01b8152600401610c1891906136ed565b600060405180830381600087803b158015610c3257600080fd5b505af1158015610c46573d6000803e3d6000fd5b505050505b505050505050505050565b806000806101000a81548173ffffffffffffffffffffffffffffffffffffffff021916908373ffffffffffffffffffffffffffffffffffffffff16021790555050565b60008563ffffffff1611610ce2576040517f08c379a0000000000000000000000000000000000000000000000000000000008152600401610cd990613da8565b60405180910390fd5b62375f008563ffffffff161115610d2e576040517f08c379a0000000000000000000000000000000000000000000000000000000008152600401610d2590613e3a565b60405180910390fd5b600042905060008663ffffffff1682610d479190613ad8565b9050818111610d8b576040517f08c379a0000000000000000000000000000000000000000000000000000000008152600401610d8290613ea6565b60405180910390fd5b60ff801683511115610dd2576040517f08c379a0000000000000000000000000000000000000000000000000000000008152600401610dc990613f38565b60405180910390fd5b6000805b84518160ff161015610fa2576000858260ff1681518110610dfa57610df9613768565b5b602002602001015190506000816080015160ff1611610e4e576040517f08c379a0000000000000000000000000000000000000000000000000000000008152600401610e4590613fca565b60405180910390fd5b8060a0015160ff16816080015160ff1614610e9e576040517f08c379a0000000000000000000000000000000000000000000000000000000008152600401610e959061405c565b60405180910390fd5b806080015160ff1683610eb19190613aa0565b9250806002600060045481526020019081526020016000206000836000015160ff1660ff16815260200190815260200160002060008201518160000160006101000a81548160ff021916908360ff1602179055506020820151816001019080519060200190610f21929190612427565b506040820151816002019080519060200190610f3e929190612427565b506060820151816003015560808201518160040160006101000a81548160ff021916908360ff16021790555060a08201518160040160016101000a81548160ff021916908360ff160217905550905050508080610f9a906137c6565b915050610dd6565b5060008161ffff1611610fea576040517f08c379a0000000000000000000000000000000000000000000000000000000008152600401610fe1906140ee565b60405180910390fd5b600060016000600454815260200190815260200160002090506004548160000181905550878160070160008201518160000160006101000a81548173ffffffffffffffffffffffffffffffffffffffff021916908373ffffffffffffffffffffffffffffffffffffffff1602179055506020820151816001019080519060200190611076929190612427565b509050508a816001016000019080519060200190611095929190612427565b50898160010160010190805190602001906110b1929190612427565b508281600101600201819055504281600401600101819055506000816004016000018190555060008160040160020160056101000a81548160ff021916908315150217905550818160040160020160006101000a81548161ffff021916908361ffff16021790555060008160040160020160026101000a81548161ffff021916908361ffff16021790555084518160040160020160046101000a81548160ff021916908360ff1602179055508581600901600082015181600001908051906020019061117e929190612427565b50602082015181600101908051906020019061119b929190612427565b5060408201518160020190805190602001906111b8929190612427565b5060608201518160030160006101000a81548160ff021916908360ff1602179055509050508681600d0160008201518160000160008201518160000160006101000a81548173ffffffffffffffffffffffffffffffffffffffff021916908373ffffffffffffffffffffffffffffffffffffffff16021790555060208201518160000160146101000a81548160ff021916908360ff160217905550604082015181600101908051906020019061126f929190612427565b50505060208201518160020160008201518160000160006101000a81548173ffffffffffffffffffffffffffffffffffffffff021916908373ffffffffffffffffffffffffffffffffffffffff16021790555060208201518160000160146101000a81548160ff021916908360ff16021790555060408201518160010190805190602001906112ff929190612427565b50505060408201518160040160008201518160000160006101000a81548173ffffffffffffffffffffffffffffffffffffffff021916908373ffffffffffffffffffffffffffffffffffffffff16021790555060208201518160000160146101000a81548160ff021916908360ff160217905550604082015181600101908051906020019061138f929190612427565b505050905050600460008154809291906113a89061410e565b919050555060008054906101000a900473ffffffffffffffffffffffffffffffffffffffff1673ffffffffffffffffffffffffffffffffffffffff1663dc055475826040518263ffffffff1660e01b81526004016114069190614597565b600060405180830381600087803b15801561142057600080fd5b505af1158015611434573d6000803e3d6000fd5b505050505050505050505050505050565b6060600060045467ffffffffffffffff81111561146557611464612b11565b5b60405190808252806020026020018201604052801561149e57816020015b61148b6124ad565b8152602001906001900390816114835790505b50905060005b600454811015611d31576000600160008381526020019081526020016000209050806040518060c001604052908160008201548152602001600182016040518060600160405290816000820180546114fb90613737565b80601f016020809104026020016040519081016040528092919081815260200182805461152790613737565b80156115745780601f1061154957610100808354040283529160200191611574565b820191906000526020600020905b81548152906001019060200180831161155757829003601f168201915b5050505050815260200160018201805461158d90613737565b80601f01602080910402602001604051908101604052809291908181526020018280546115b990613737565b80156116065780601f106115db57610100808354040283529160200191611606565b820191906000526020600020905b8154815290600101906020018083116115e957829003601f168201915b505050505081526020016002820154815250508152602001600482016040518060c001604052908160008201548152602001600182015481526020016002820160009054906101000a900461ffff1661ffff1661ffff1681526020016002820160029054906101000a900461ffff1661ffff1661ffff1681526020016002820160049054906101000a900460ff1660ff1660ff1681526020016002820160059054906101000a900460ff1615151515815250508152602001600782016040518060400160405290816000820160009054906101000a900473ffffffffffffffffffffffffffffffffffffffff1673ffffffffffffffffffffffffffffffffffffffff1673ffffffffffffffffffffffffffffffffffffffff16815260200160018201805461173390613737565b80601f016020809104026020016040519081016040528092919081815260200182805461175f90613737565b80156117ac5780601f10611781576101008083540402835291602001916117ac565b820191906000526020600020905b81548152906001019060200180831161178f57829003601f168201915b5050505050815250508152602001600982016040518060800160405290816000820180546117d990613737565b80601f016020809104026020016040519081016040528092919081815260200182805461180590613737565b80156118525780601f1061182757610100808354040283529160200191611852565b820191906000526020600020905b81548152906001019060200180831161183557829003601f168201915b5050505050815260200160018201805461186b90613737565b80601f016020809104026020016040519081016040528092919081815260200182805461189790613737565b80156118e45780601f106118b9576101008083540402835291602001916118e4565b820191906000526020600020905b8154815290600101906020018083116118c757829003601f168201915b505050505081526020016002820180546118fd90613737565b80601f016020809104026020016040519081016040528092919081815260200182805461192990613737565b80156119765780601f1061194b57610100808354040283529160200191611976565b820191906000526020600020905b81548152906001019060200180831161195957829003601f168201915b505050505081526020016003820160009054906101000a900460ff1660ff1660ff16815250508152602001600d8201604051806060016040529081600082016040518060600160405290816000820160009054906101000a900473ffffffffffffffffffffffffffffffffffffffff1673ffffffffffffffffffffffffffffffffffffffff1673ffffffffffffffffffffffffffffffffffffffff1681526020016000820160149054906101000a900460ff1660ff1660ff168152602001600182018054611a4390613737565b80601f0160208091040260200160405190810160405280929190818152602001828054611a6f90613737565b8015611abc5780601f10611a9157610100808354040283529160200191611abc565b820191906000526020600020905b815481529060010190602001808311611a9f57829003601f168201915b5050505050815250508152602001600282016040518060600160405290816000820160009054906101000a900473ffffffffffffffffffffffffffffffffffffffff1673ffffffffffffffffffffffffffffffffffffffff1673ffffffffffffffffffffffffffffffffffffffff1681526020016000820160149054906101000a900460ff1660ff1660ff168152602001600182018054611b5c90613737565b80601f0160208091040260200160405190810160405280929190818152602001828054611b8890613737565b8015611bd55780601f10611baa57610100808354040283529160200191611bd5565b820191906000526020600020905b815481529060010190602001808311611bb857829003601f168201915b5050505050815250508152602001600482016040518060600160405290816000820160009054906101000a900473ffffffffffffffffffffffffffffffffffffffff1673ffffffffffffffffffffffffffffffffffffffff1673ffffffffffffffffffffffffffffffffffffffff1681526020016000820160149054906101000a900460ff1660ff1660ff168152602001600182018054611c7590613737565b80601f0160208091040260200160405190810160405280929190818152602001828054611ca190613737565b8015611cee5780601f10611cc357610100808354040283529160200191611cee565b820191906000526020600020905b815481529060010190602001808311611cd157829003601f168201915b5050505050815250508152505081525050838381518110611d1257611d11613768565b5b6020026020010181905250508080611d299061410e565b9150506114a4565b508091505090565b60006001600083815260200190815260200160002090508060040160020160059054906101000a900460ff16611da4576040517f08c379a0000000000000000000000000000000000000000000000000000000008152600401611d9b90614605565b60405180910390fd5b8060040160020160009054906101000a900461ffff1661ffff168160040160020160029054906101000a900461ffff1661ffff1614611e18576040517f08c379a0000000000000000000000000000000000000000000000000000000008152600401611e0f90614671565b60405180910390fd5b60008054906101000a900473ffffffffffffffffffffffffffffffffffffffff1673ffffffffffffffffffffffffffffffffffffffff16637a41984b82600001546040518263ffffffff1660e01b8152600401611e7591906136ed565b602060405180830381865afa158015611e92573d6000803e3d6000fd5b505050506040513d601f19601f82011682018060405250810190611eb691906146bd565b611ef5576040517f08c379a0000000000000000000000000000000000000000000000000000000008152600401611eec90614736565b60405180910390fd5b6000606482600d0160000160000160149054906101000a900460ff1660ff168360040160000154611f269190614756565b611f3091906147df565b90506000606483600d0160020160000160149054906101000a900460ff1660ff168460040160000154611f639190614756565b611f6d91906147df565b90506000606484600d0160040160000160149054906101000a900460ff1660ff168560040160000154611fa09190614756565b611faa91906147df565b905083600d0160000160000160009054906101000a900473ffffffffffffffffffffffffffffffffffffffff1673ffffffffffffffffffffffffffffffffffffffff166108fc849081150290604051600060405180830381858888f1935050505015801561201c573d6000803e3d6000fd5b5083600d0160020160000160009054906101000a900473ffffffffffffffffffffffffffffffffffffffff1673ffffffffffffffffffffffffffffffffffffffff166108fc839081150290604051600060405180830381858888f1935050505015801561208d573d6000803e3d6000fd5b5083600d0160040160000160009054906101000a900473ffffffffffffffffffffffffffffffffffffffff1673ffffffffffffffffffffffffffffffffffffffff166108fc829081150290604051600060405180830381858888f193505050501580156120fe573d6000803e3d6000fd5b505050505050565b6000600454905090565b60006001600083815260200190815260200160002090508060040160020160059054906101000a900460ff161561217c576040517f08c379a00000000000000000000000000000000000000000000000000000000081526004016121739061485c565b60405180910390fd5b428160010160020154116121c5576040517f08c379a00000000000000000000000000000000000000000000000000000000081526004016121bc906148c8565b60405180910390fd5b8060070160000160009054906101000a900473ffffffffffffffffffffffffffffffffffffffff1673ffffffffffffffffffffffffffffffffffffffff163373ffffffffffffffffffffffffffffffffffffffff161461225a576040517f08c379a00000000000000000000000000000000000000000000000000000000081526004016122519061495a565b60405180910390fd5b60008160040160020160029054906101000a900461ffff16905060005b8161ffff168161ffff1610156123765760006003600086815260200190815260200160002060008361ffff168152602001908152602001600020905060006002600087815260200190815260200160002060008360000160029054906101000a900460ff1660ff1660ff16815260200190815260200160002090508160000160039054906101000a900473ffffffffffffffffffffffffffffffffffffffff1673ffffffffffffffffffffffffffffffffffffffff166108fc82600301549081150290604051600060405180830381858888f19350505050158015612360573d6000803e3d6000fd5b505050808061236e906137ef565b915050612277565b5060018260040160020160056101000a81548160ff021916908315150217905550505050565b6040518060c00160405280600060ff168152602001606081526020016060815260200160008152602001600060ff168152602001600060ff1681525090565b6040518060a00160405280600061ffff168152602001600060ff168152602001600073ffffffffffffffffffffffffffffffffffffffff16815260200160008152602001606081525090565b82805461243390613737565b90600052602060002090601f016020900481019282612455576000855561249c565b82601f1061246e57805160ff191683800117855561249c565b8280016001018555821561249c579182015b8281111561249b578251825591602001919060010190612480565b5b5090506124a99190612501565b5090565b6040518060c00160405280600081526020016124c761251e565b81526020016124d461253f565b81526020016124e1612582565b81526020016124ee6125b2565b81526020016124fb6125dd565b81525090565b5b8082111561251a576000816000905550600101612502565b5090565b60405180606001604052806060815260200160608152602001600081525090565b6040518060c001604052806000815260200160008152602001600061ffff168152602001600061ffff168152602001600060ff1681526020016000151581525090565b6040518060400160405280600073ffffffffffffffffffffffffffffffffffffffff168152602001606081525090565b6040518060800160405280606081526020016060815260200160608152602001600060ff1681525090565b60405180606001604052806125f0612610565b81526020016125fd612610565b815260200161260a612610565b81525090565b6040518060600160405280600073ffffffffffffffffffffffffffffffffffffffff168152602001600060ff168152602001606081525090565b600073ffffffffffffffffffffffffffffffffffffffff82169050919050565b60006126758261264a565b9050919050565b6126858161266a565b82525050565b60006020820190506126a0600083018461267c565b92915050565b6000604051905090565b600080fd5b600080fd5b6000819050919050565b6126cd816126ba565b81146126d857600080fd5b50565b6000813590506126ea816126c4565b92915050565b600060208284031215612706576127056126b0565b5b6000612714848285016126db565b91505092915050565b600081519050919050565b600082825260208201905092915050565b6000819050602082019050919050565b600060ff82169050919050565b61275f81612749565b82525050565b600081519050919050565b600082825260208201905092915050565b60005b8381101561279f578082015181840152602081019050612784565b838111156127ae576000848401525b50505050565b6000601f19601f8301169050919050565b60006127d082612765565b6127da8185612770565b93506127ea818560208601612781565b6127f3816127b4565b840191505092915050565b612807816126ba565b82525050565b600060c0830160008301516128256000860182612756565b506020830151848203602086015261283d82826127c5565b9150506040830151848203604086015261285782826127c5565b915050606083015161286c60608601826127fe565b50608083015161287f6080860182612756565b5060a083015161289260a0860182612756565b508091505092915050565b60006128a9838361280d565b905092915050565b6000602082019050919050565b60006128c98261271d565b6128d38185612728565b9350836020820285016128e585612739565b8060005b858110156129215784840389528151612902858261289d565b945061290d836128b1565b925060208a019950506001810190506128e9565b50829750879550505050505092915050565b6000602082019050818103600083015261294d81846128be565b905092915050565b600081519050919050565b600082825260208201905092915050565b6000819050602082019050919050565b600061ffff82169050919050565b61299881612981565b82525050565b6129a78161266a565b82525050565b600060a0830160008301516129c5600086018261298f565b5060208301516129d86020860182612756565b5060408301516129eb604086018261299e565b5060608301516129fe60608601826127fe565b5060808301518482036080860152612a1682826127c5565b9150508091505092915050565b6000612a2f83836129ad565b905092915050565b6000602082019050919050565b6000612a4f82612955565b612a598185612960565b935083602082028501612a6b85612971565b8060005b85811015612aa75784840389528151612a888582612a23565b9450612a9383612a37565b925060208a01995050600181019050612a6f565b50829750879550505050505092915050565b60006020820190508181036000830152612ad38184612a44565b905092915050565b612ae481612749565b8114612aef57600080fd5b50565b600081359050612b0181612adb565b92915050565b600080fd5b600080fd5b7f4e487b7100000000000000000000000000000000000000000000000000000000600052604160045260246000fd5b612b49826127b4565b810181811067ffffffffffffffff82111715612b6857612b67612b11565b5b80604052505050565b6000612b7b6126a6565b9050612b878282612b40565b919050565b600067ffffffffffffffff821115612ba757612ba6612b11565b5b612bb0826127b4565b9050602081019050919050565b82818337600083830152505050565b6000612bdf612bda84612b8c565b612b71565b905082815260208101848484011115612bfb57612bfa612b0c565b5b612c06848285612bbd565b509392505050565b600082601f830112612c2357612c22612b07565b5b8135612c33848260208601612bcc565b91505092915050565b600080600060608486031215612c5557612c546126b0565b5b6000612c63868287016126db565b9350506020612c7486828701612af2565b925050604084013567ffffffffffffffff811115612c9557612c946126b5565b5b612ca186828701612c0e565b9150509250925092565b612cb48161266a565b8114612cbf57600080fd5b50565b600081359050612cd181612cab565b92915050565b600060208284031215612ced57612cec6126b0565b5b6000612cfb84828501612cc2565b91505092915050565b600063ffffffff82169050919050565b612d1d81612d04565b8114612d2857600080fd5b50565b600081359050612d3a81612d14565b92915050565b600080fd5b600080fd5b600060408284031215612d6057612d5f612d40565b5b612d6a6040612b71565b90506000612d7a84828501612cc2565b600083015250602082013567ffffffffffffffff811115612d9e57612d9d612d45565b5b612daa84828501612c0e565b60208301525092915050565b6000612dc18261264a565b9050919050565b612dd181612db6565b8114612ddc57600080fd5b50565b600081359050612dee81612dc8565b92915050565b600060608284031215612e0a57612e09612d40565b5b612e146060612b71565b90506000612e2484828501612ddf565b6000830152506020612e3884828501612af2565b602083015250604082013567ffffffffffffffff811115612e5c57612e5b612d45565b5b612e6884828501612c0e565b60408301525092915050565b600060608284031215612e8a57612e89612d40565b5b612e946060612b71565b9050600082013567ffffffffffffffff811115612eb457612eb3612d45565b5b612ec084828501612df4565b600083015250602082013567ffffffffffffffff811115612ee457612ee3612d45565b5b612ef084828501612df4565b602083015250604082013567ffffffffffffffff811115612f1457612f13612d45565b5b612f2084828501612df4565b60408301525092915050565b600060808284031215612f4257612f41612d40565b5b612f4c6080612b71565b9050600082013567ffffffffffffffff811115612f6c57612f6b612d45565b5b612f7884828501612c0e565b600083015250602082013567ffffffffffffffff811115612f9c57612f9b612d45565b5b612fa884828501612c0e565b602083015250604082013567ffffffffffffffff811115612fcc57612fcb612d45565b5b612fd884828501612c0e565b6040830152506060612fec84828501612af2565b60608301525092915050565b600067ffffffffffffffff82111561301357613012612b11565b5b602082029050602081019050919050565b600080fd5b600060c0828403121561303f5761303e612d40565b5b61304960c0612b71565b9050600061305984828501612af2565b600083015250602082013567ffffffffffffffff81111561307d5761307c612d45565b5b61308984828501612c0e565b602083015250604082013567ffffffffffffffff8111156130ad576130ac612d45565b5b6130b984828501612c0e565b60408301525060606130cd848285016126db565b60608301525060806130e184828501612af2565b60808301525060a06130f584828501612af2565b60a08301525092915050565b600061311461310f84612ff8565b612b71565b9050808382526020820190506020840283018581111561313757613136613024565b5b835b8181101561317e57803567ffffffffffffffff81111561315c5761315b612b07565b5b8086016131698982613029565b85526020850194505050602081019050613139565b5050509392505050565b600082601f83011261319d5761319c612b07565b5b81356131ad848260208601613101565b91505092915050565b600080600080600080600060e0888a0312156131d5576131d46126b0565b5b600088013567ffffffffffffffff8111156131f3576131f26126b5565b5b6131ff8a828b01612c0e565b975050602088013567ffffffffffffffff8111156132205761321f6126b5565b5b61322c8a828b01612c0e565b965050604061323d8a828b01612d2b565b955050606088013567ffffffffffffffff81111561325e5761325d6126b5565b5b61326a8a828b01612d4a565b945050608088013567ffffffffffffffff81111561328b5761328a6126b5565b5b6132978a828b01612e74565b93505060a088013567ffffffffffffffff8111156132b8576132b76126b5565b5b6132c48a828b01612f2c565b92505060c088013567ffffffffffffffff8111156132e5576132e46126b5565b5b6132f18a828b01613188565b91505092959891949750929550565b600081519050919050565b600082825260208201905092915050565b6000819050602082019050919050565b6000606083016000830151848203600086015261334982826127c5565b9150506020830151848203602086015261336382826127c5565b915050604083015161337860408601826127fe565b508091505092915050565b60008115159050919050565b61339881613383565b82525050565b60c0820160008201516133b460008501826127fe565b5060208201516133c760208501826127fe565b5060408201516133da604085018261298f565b5060608201516133ed606085018261298f565b5060808201516134006080850182612756565b5060a082015161341360a085018261338f565b50505050565b6000604083016000830151613431600086018261299e565b506020830151848203602086015261344982826127c5565b9150508091505092915050565b6000608083016000830151848203600086015261347382826127c5565b9150506020830151848203602086015261348d82826127c5565b915050604083015184820360408601526134a782826127c5565b91505060608301516134bc6060860182612756565b508091505092915050565b6134d081612db6565b82525050565b60006060830160008301516134ee60008601826134c7565b5060208301516135016020860182612756565b506040830151848203604086015261351982826127c5565b9150508091505092915050565b6000606083016000830151848203600086015261354382826134d6565b9150506020830151848203602086015261355d82826134d6565b9150506040830151848203604086015261357782826134d6565b9150508091505092915050565b60006101608301600083015161359d60008601826127fe565b50602083015184820360208601526135b5828261332c565b91505060408301516135ca604086018261339e565b5060608301518482036101008601526135e38282613419565b91505060808301518482036101208601526135fe8282613456565b91505060a08301518482036101408601526136198282613526565b9150508091505092915050565b60006136328383613584565b905092915050565b6000602082019050919050565b600061365282613300565b61365c818561330b565b93508360208202850161366e8561331c565b8060005b858110156136aa578484038952815161368b8582613626565b94506136968361363a565b925060208a01995050600181019050613672565b50829750879550505050505092915050565b600060208201905081810360008301526136d68184613647565b905092915050565b6136e7816126ba565b82525050565b600060208201905061370260008301846136de565b92915050565b7f4e487b7100000000000000000000000000000000000000000000000000000000600052602260045260246000fd5b6000600282049050600182168061374f57607f821691505b60208210810361376257613761613708565b5b50919050565b7f4e487b7100000000000000000000000000000000000000000000000000000000600052603260045260246000fd5b7f4e487b7100000000000000000000000000000000000000000000000000000000600052601160045260246000fd5b60006137d182612749565b915060ff82036137e4576137e3613797565b5b600182019050919050565b60006137fa82612981565b915061ffff820361380e5761380d613797565b5b600182019050919050565b600082825260208201905092915050565b7f546869732063616d706169676e206861732073746f7070656400000000000000600082015250565b6000613860601983613819565b915061386b8261382a565b602082019050919050565b6000602082019050818103600083015261388f81613853565b9050919050565b7f546869732063616d706169676e20697320616c7265616479206f766572000000600082015250565b60006138cc601d83613819565b91506138d782613896565b602082019050919050565b600060208201905081810360008301526138fb816138bf565b9050919050565b7f54686520626f7820494420697320696e76616c69640000000000000000000000600082015250565b6000613938601583613819565b915061394382613902565b602082019050919050565b600060208201905081810360008301526139678161392b565b9050919050565b7f416c6c20626f786573206f66207468697320747970652068617665206265656e60008201527f20736f6c64000000000000000000000000000000000000000000000000000000602082015250565b60006139ca602583613819565b91506139d58261396e565b604082019050919050565b600060208201905081810360008301526139f9816139bd565b9050919050565b7f476976656e20616d6f756e742069732062656c6f7720626f7820707269636500600082015250565b6000613a36601f83613819565b9150613a4182613a00565b602082019050919050565b60006020820190508181036000830152613a6581613a29565b9050919050565b6000613a7782612749565b9150613a8283612749565b925082821015613a9557613a94613797565b5b828203905092915050565b6000613aab82612981565b9150613ab683612981565b92508261ffff03821115613acd57613acc613797565b5b828201905092915050565b6000613ae3826126ba565b9150613aee836126ba565b9250827fffffffffffffffffffffffffffffffffffffffffffffffffffffffffffffffff03821115613b2357613b22613797565b5b828201905092915050565b60008160001c9050919050565b600061ffff82169050919050565b6000613b5c613b5783613b2e565b613b3b565b9050919050565b60008160101c9050919050565b600060ff82169050919050565b6000613b90613b8b83613b63565b613b70565b9050919050565b60008160181c9050919050565b600073ffffffffffffffffffffffffffffffffffffffff82169050919050565b6000613bd7613bd283613b97565b613ba4565b9050919050565b6000819050919050565b6000613bfb613bf683613b2e565b613bde565b9050919050565b60008190508160005260206000209050919050565b60008154613c2481613737565b613c2e8186612770565b94506001821660008114613c495760018114613c5b57613c8e565b60ff1983168652602086019350613c8e565b613c6485613c02565b60005b83811015613c8657815481890152600182019150602081019050613c67565b808801955050505b50505092915050565b600060a083016000808401549050613cae81613b49565b613cbb600087018261298f565b50613cc581613b7d565b613cd26020870182612756565b50613cdc81613bc4565b613ce9604087018261299e565b5060018401549050613cfa81613be8565b613d0760608701826127fe565b50600284018583036080870152613d1e8382613c17565b925050819250505092915050565b6000604082019050613d4160008301856136de565b8181036020830152613d538184613c97565b90509392505050565b7f4475726174696f6e206d75737420626520686967686572207468616e20300000600082015250565b6000613d92601e83613819565b9150613d9d82613d5c565b602082019050919050565b60006020820190508181036000830152613dc181613d85565b9050919050565b7f4475726174696f6e2063616e277420626520686967686572207468616e20362060008201527f7765656b73000000000000000000000000000000000000000000000000000000602082015250565b6000613e24602583613819565b9150613e2f82613dc8565b604082019050919050565b60006020820190508181036000830152613e5381613e17565b9050919050565b7f446561646c696e65206d75737420626520696e20746865206675747572650000600082015250565b6000613e90601e83613819565b9150613e9b82613e5a565b602082019050919050565b60006020820190508181036000830152613ebf81613e83565b9050919050565b7f4e756d626572206f6620626f7865732063616e2774206265206869676865722060008201527f7468616e2028325e38292d310000000000000000000000000000000000000000602082015250565b6000613f22602c83613819565b9150613f2d82613ec6565b604082019050919050565b60006020820190508181036000830152613f5181613f15565b9050919050565b7f5468657265206d757374206265206174206c65617374206f6e6520706965636560008201527f206f66206561636820626f780000000000000000000000000000000000000000602082015250565b6000613fb4602c83613819565b9150613fbf82613f58565b604082019050919050565b60006020820190508181036000830152613fe381613fa7565b9050919050565b7f496e697469616c6c7920746f74616c20616e6420617661696c61626c65206f6660008201527f206120626f78206d75737420626520657175616c000000000000000000000000602082015250565b6000614046603483613819565b915061405182613fea565b604082019050919050565b6000602082019050818103600083015261407581614039565b9050919050565b7f5468657265206d757374206265206174206c65617374206f6e6520626f78206960008201527f6e20746f74616c00000000000000000000000000000000000000000000000000602082015250565b60006140d8602783613819565b91506140e38261407c565b604082019050919050565b60006020820190508181036000830152614107816140cb565b9050919050565b6000614119826126ba565b91507fffffffffffffffffffffffffffffffffffffffffffffffffffffffffffffffff820361414b5761414a613797565b5b600182019050919050565b600060608301600080840185830360008701526141738382613c17565b92505060018401858303602087015261418c8382613c17565b9250506002840154905061419f81613be8565b6141ac60408701826127fe565b50819250505092915050565b60006141cb6141c683613b63565b613b3b565b9050919050565b60008160201c9050919050565b60006141f26141ed836141d2565b613b70565b9050919050565b60008160281c9050919050565b600060ff82169050919050565b6000614226614221836141f9565b614206565b9050919050565b60c08201600080830154905061424281613be8565b61424f60008601826127fe565b506001830154905061426081613be8565b61426d60208601826127fe565b506002830154905061427e81613b49565b61428b604086018261298f565b50614295816141b8565b6142a2606086018261298f565b506142ac816141df565b6142b96080860182612756565b506142c381614213565b6142d060a086018261338f565b5050505050565b60006142ea6142e583613b2e565b613ba4565b9050919050565b6000604083016000808401549050614308816142d7565b614315600087018261299e565b5060018401858303602087015261432c8382613c17565b925050819250505092915050565b600061434d61434883613b2e565b613b70565b9050919050565b600060808301600080840185830360008701526143718382613c17565b92505060018401858303602087015261438a8382613c17565b9250506002840185830360408701526143a38382613c17565b925050600384015490506143b68161433a565b6143c36060870182612756565b50819250505092915050565b600073ffffffffffffffffffffffffffffffffffffffff82169050919050565b60006144026143fd83613b2e565b6143cf565b9050919050565b60008160a01c9050919050565b600061442961442483614409565b613b70565b9050919050565b6000606083016000808401549050614447816143ef565b61445460008701826134c7565b5061445e81614416565b61446b6020870182612756565b506001840185830360408701526144828382613c17565b925050819250505092915050565b600060608301600080840185830360008701526144ad8382614430565b9250506002840185830360208701526144c68382614430565b9250506004840185830360408701526144df8382614430565b925050819250505092915050565b60006101608301600080840154905061450581613be8565b61451260008701826127fe565b506001840185830360208701526145298382614156565b9250506004840161453d604087018261422d565b506007840185830361010087015261455583826142f1565b9250506009840185830361012087015261456f8382614354565b925050600d84018583036101408701526145898382614490565b925050819250505092915050565b600060208201905081810360008301526145b181846144ed565b905092915050565b7f5468652063616d706169676e206d7573742062652066696e6973686564000000600082015250565b60006145ef601d83613819565b91506145fa826145b9565b602082019050919050565b6000602082019050818103600083015261461e816145e2565b9050919050565b7f54686572652063616e277420626520616e7920626f786573206c656674000000600082015250565b600061465b601d83613819565b915061466682614625565b602082019050919050565b6000602082019050818103600083015261468a8161464e565b9050919050565b61469a81613383565b81146146a557600080fd5b50565b6000815190506146b781614691565b92915050565b6000602082840312156146d3576146d26126b0565b5b60006146e1848285016146a8565b91505092915050565b7f537570706c7920636861696e206d75737420626520636f6d706c657465640000600082015250565b6000614720601e83613819565b915061472b826146ea565b602082019050919050565b6000602082019050818103600083015261474f81614713565b9050919050565b6000614761826126ba565b915061476c836126ba565b9250817fffffffffffffffffffffffffffffffffffffffffffffffffffffffffffffffff04831182151516156147a5576147a4613797565b5b828202905092915050565b7f4e487b7100000000000000000000000000000000000000000000000000000000600052601260045260246000fd5b60006147ea826126ba565b91506147f5836126ba565b925082614805576148046147b0565b5b828204905092915050565b7f43616d706169676e20616c72656164792073746f707065640000000000000000600082015250565b6000614846601883613819565b915061485182614810565b602082019050919050565b6000602082019050818103600083015261487581614839565b9050919050565b7f546869732063616d706169676e206973206f7665720000000000000000000000600082015250565b60006148b2601583613819565b91506148bd8261487c565b602082019050919050565b600060208201905081810360008301526148e1816148a5565b9050919050565b7f4f6e6c7920746865206f776e65722063616e2073746f7020612063616d70616960008201527f676e000000000000000000000000000000000000000000000000000000000000602082015250565b6000614944602283613819565b915061494f826148e8565b604082019050919050565b6000602082019050818103600083015261497381614937565b905091905056fea26469706673582212208061e9a9efe9e27078052185d0f6f233cd90dcfa8a80cc65b135376306f0d06464736f6c634300080d0033",
  "immutableReferences": {},
  "source": "// SPDX-License-Identifier: AGPL\npragma solidity ^0.8.13;\n\nimport \"./CrowdfundingTypes.sol\";\nimport \"./SupplyChains.sol\";\n\ncontract Crowdfunding {\n    // address of the supply chain contract\n    address public supplychainAddress;\n\n    // all campaigns\n    mapping(uint256 => Campaign) campaigns;\n    // Boxes of each campaign\n    mapping(uint256 => mapping(uint8 => Box)) boxes;\n    // Sold boxes of each campaign (campignId => sellId => BoxSellRef)\n    mapping(uint256 => mapping(uint256 => BoxSellRef)) soldBoxes;\n\n    uint256 numberOfCampaigns = 0;\n    \n    // Add the address of the supply chain contract\n    function setSupplyChainsAddress(address _supplychainAddress) public {\n        supplychainAddress = _supplychainAddress;\n    }\n\n    /**\n     * Creates a new campaign\n     */\n    function createCampaign(\n        string memory _title,\n        string memory _description,\n        uint32 _duration,\n        CampaignOwner memory _campaignOwner,\n        StakeholderList memory _stakeholders,\n        CampaignAnimalData memory _animal,\n        Box[] memory _boxes\n    ) public {\n        // check crowdfunding duration\n        require(_duration > 0, \"Duration must be higher than 0\");\n        require(_duration <= 6 weeks, \"Duration can't be higher than 6 weeks\");\n\n        // create deadline by adding the duration to the current timestamp\n        uint256 current = block.timestamp;\n        uint256 deadline = current + _duration;\n\n        // validate\n        require(deadline > current, \"Deadline must be in the future\");\n\n        // add boxes to campaign\n        require(_boxes.length <= type(uint8).max, \"Number of boxes can't be higher than (2^8)-1\");\n        uint16 totalNumOfBoxes = 0;\n        for (uint8 index = 0; index < _boxes.length; index++) {\n            Box memory box = _boxes[index];\n            require(\n                box.total > 0,\n                \"There must be at least one piece of each box\"\n            );\n            require(\n                box.total == box.available,\n                \"Initially total and available of a box must be equal\"\n            );\n            totalNumOfBoxes += box.total;\n            boxes[numberOfCampaigns][box.id] = box;\n        }\n        require(totalNumOfBoxes > 0, \"There must be at least one box in total\");\n\n        Campaign storage campaign = campaigns[numberOfCampaigns];\n        campaign.id = numberOfCampaigns;\n        campaign.owner = _campaignOwner;\n        campaign.info.title = _title;\n        campaign.info.description = _description;\n        campaign.info.deadline = deadline;\n        campaign.meta.createdAt = block.timestamp;\n        campaign.meta.collectedAmount = 0;\n        campaign.meta.isStopped = false;\n        campaign.meta.totalBoxes = totalNumOfBoxes;\n        campaign.meta.boxesSold = 0;\n        campaign.meta.totalBoxTypes = uint8(_boxes.length);\n        campaign.animal = _animal;\n        campaign.stakeholders = _stakeholders;\n\n        // increase total num of campaigns\n        numberOfCampaigns++;\n\n        // Start supply chain\n        SupplyChains(supplychainAddress).createSupplyChain(campaign);\n    }\n\n    /**\n     * Returns the total number of campaigns\n     */\n    function getNumberOfCampaigns() public view returns (uint256) {\n        return numberOfCampaigns;\n    }\n\n    /**\n     * Returns all campaigns\n     */\n    function getCampaigns() public view returns (Campaign[] memory) {\n        Campaign[] memory allCampaigns = new Campaign[](numberOfCampaigns);\n        for (uint256 index = 0; index < numberOfCampaigns; index++) {\n            Campaign storage campaign = campaigns[index];\n            allCampaigns[index] = campaign;\n        }\n        return allCampaigns;\n    }\n\n    /**\n     * Returns all boxes of a specific campaign\n     */\n    function getBoxes(uint256 _campaignId) public view returns (Box[] memory) {\n        Campaign storage campaign = campaigns[_campaignId];\n        uint8 totalBoxTypes = campaign.meta.totalBoxTypes;\n        Box[] memory boxesOfCampaign = new Box[](totalBoxTypes);\n        for (uint8 index = 0; index < totalBoxTypes; index++) {\n            Box storage box = boxes[_campaignId][index];\n            boxesOfCampaign[index] = box;\n        }\n        return boxesOfCampaign;\n    }\n\n    /**\n     * Returns the sell reference of boxes for a specific campaign\n     */\n    function getSoldBoxes(\n        uint256 _campaignId\n    ) public view returns (BoxSellRef[] memory) {\n        Campaign storage campaign = campaigns[_campaignId];\n        uint16 boxesSold = campaign.meta.boxesSold;\n        BoxSellRef[] memory sellRefs = new BoxSellRef[](boxesSold);\n        for (uint16 index = 0; index < boxesSold; index++) {\n            BoxSellRef storage sellRef = soldBoxes[_campaignId][index];\n            sellRefs[index] = sellRef;\n        }\n        return sellRefs;\n    }\n\n    /**\n     * Removes a campaign\n     */\n    function stopCampaign(uint256 _campaignId) public {\n        Campaign storage campaign = campaigns[_campaignId];\n        require(!campaign.meta.isStopped, \"Campaign already stopped\");\n        require(\n            campaign.info.deadline > block.timestamp,\n            \"This campaign is over\"\n        );\n        require(\n            msg.sender == campaign.owner.owner,\n            \"Only the owner can stop a campaign\"\n        );\n\n        // Pay ether back\n        uint16 boxesSold = campaign.meta.boxesSold;\n        for (uint16 index = 0; index < boxesSold; index++) {\n            BoxSellRef storage sellRef = soldBoxes[_campaignId][index];\n            Box storage box = boxes[_campaignId][sellRef.boxId];\n            payable(sellRef.owner).transfer(box.price);\n        }\n\n        campaign.meta.isStopped = true;\n    }\n\n    /**\n     * Buys a box\n     */\n    function buyBox(\n        uint256 _campaignId,\n        uint8 _boxId,\n        string memory _physAddress\n    ) public payable {\n        // get campaign ref\n        Campaign storage campaign = campaigns[_campaignId];\n        // check if this is an ongoing campaign\n        require(!campaign.meta.isStopped, \"This campaign has stopped\");\n        require(\n            campaign.info.deadline > block.timestamp,\n            \"This campaign is already over\"\n        );\n\n        // check if this campaign still has available boxes for the requested kind\n        Box storage box = boxes[_campaignId][_boxId];\n        require(box.id == _boxId, \"The box ID is invalid\");\n        require(box.available > 0, \"All boxes of this type have been sold\");\n        uint256 amount = msg.value;\n        require(amount >= box.price, \"Given amount is below box price\");\n\n        // Add buyer (Don't increase boxes sold yet, we need it starting at 0)\n        uint16 sellId = campaign.meta.boxesSold;\n        BoxSellRef storage sellRef = soldBoxes[_campaignId][\n            campaign.meta.boxesSold\n        ];\n        sellRef.boxId = box.id;\n        sellRef.id = sellId;\n        sellRef.owner = msg.sender;\n        sellRef.physAddress = _physAddress;\n        sellRef.boughtAt = block.timestamp;\n\n        // Updates available boxes by one\n        box.available -= 1;\n        // Update campaign meta\n        CampaignMeta storage meta = campaign.meta;\n        meta.boxesSold += 1;\n        meta.collectedAmount += amount;\n\n        SupplyChains(supplychainAddress).addBox(_campaignId, sellRef);\n\n        if (campaign.meta.boxesSold == campaign.meta.totalBoxes) {\n            // Mark campaign as stopped\n            campaign.meta.isStopped = true;\n            // Start supply chain\n            SupplyChains(supplychainAddress).startSupplyChain(campaign.id);\n        }\n    }\n\n    /**\n     * Pay-out all stakeholders of the campaign\n     */\n    function payOut(uint256 _campaignId) external payable {\n        Campaign storage campaign = campaigns[_campaignId];\n        require(campaign.meta.isStopped, \"The campaign must be finished\");\n        require(\n            campaign.meta.boxesSold == campaign.meta.totalBoxes,\n            \"There can't be any boxes left\"\n        );\n        // Check if supply chain has been completed\n        require(\n            SupplyChains(supplychainAddress).isCompleted(campaign.id),\n            \"Supply chain must be completed\"\n        );\n\n        // Generate shares\n        uint256 farmerShare = (campaign.meta.collectedAmount * campaign.stakeholders.farmer.share) / 100;\n        uint256 butcherShare = (campaign.meta.collectedAmount * campaign.stakeholders.butcher.share) / 100;\n        uint256 deliveryShare = (campaign.meta.collectedAmount * campaign.stakeholders.delivery.share) / 100;\n\n        // payout stakeholders\n        payable(campaign.stakeholders.farmer.owner).transfer(farmerShare);\n        payable(campaign.stakeholders.butcher.owner).transfer(butcherShare);\n        payable(campaign.stakeholders.delivery.owner).transfer(deliveryShare);\n    }\n}\n",
  "sourcePath": "/Users/cassolseba/VSCode/blockchain/146157_Blockchain/smart_contracts/contracts/Crowdfunding.sol",
  "compiler": {
    "name": "solc",
    "version": "0.8.13+commit.abaa5c0e.Emscripten.clang"
  },
  "schemaVersion": "3.4.14",
  "updatedAt": "2023-08-16T17:42:54.127Z",
  "devdoc": {
    "kind": "dev",
    "methods": {},
    "version": 1
  },
  "userdoc": {
    "kind": "user",
    "methods": {
      "buyBox(uint256,uint8,string)": {
        "notice": "Buys a box"
      },
      "createCampaign(string,string,uint32,(address,string),((address,uint8,string),(address,uint8,string),(address,uint8,string)),(string,string,string,uint8),(uint8,string,string,uint256,uint8,uint8)[])": {
        "notice": "Creates a new campaign"
      },
      "getBoxes(uint256)": {
        "notice": "Returns all boxes of a specific campaign"
      },
      "getCampaigns()": {
        "notice": "Returns all campaigns"
      },
      "getNumberOfCampaigns()": {
        "notice": "Returns the total number of campaigns"
      },
      "getSoldBoxes(uint256)": {
        "notice": "Returns the sell reference of boxes for a specific campaign"
      },
      "payOut(uint256)": {
        "notice": "Pay-out all stakeholders of the campaign"
      },
      "stopCampaign(uint256)": {
        "notice": "Removes a campaign"
      }
    },
    "version": 1
  }
}