{
  "contractName": "Crowdfunding",
  "abi": [
    {
      "inputs": [
        {
          "internalType": "uint256",
          "name": "",
          "type": "uint256"
        }
      ],
      "name": "campaigns",
      "outputs": [
        {
          "internalType": "uint256",
          "name": "id",
          "type": "uint256"
        },
        {
          "components": [
            {
              "internalType": "string",
              "name": "title",
              "type": "string"
            },
            {
              "internalType": "string",
              "name": "description",
              "type": "string"
            },
            {
              "internalType": "uint256",
              "name": "deadline",
              "type": "uint256"
            }
          ],
          "internalType": "struct CampaignInfo",
          "name": "info",
          "type": "tuple"
        },
        {
          "components": [
            {
              "internalType": "uint256",
              "name": "collectedAmount",
              "type": "uint256"
            },
            {
              "internalType": "uint256",
              "name": "createdAt",
              "type": "uint256"
            },
            {
              "internalType": "uint256",
              "name": "totalBoxes",
              "type": "uint256"
            },
            {
              "internalType": "uint256",
              "name": "boxesSold",
              "type": "uint256"
            },
            {
              "internalType": "uint256",
              "name": "totalBoxTypes",
              "type": "uint256"
            },
            {
              "internalType": "bool",
              "name": "isStopped",
              "type": "bool"
            }
          ],
          "internalType": "struct CampaignMeta",
          "name": "meta",
          "type": "tuple"
        },
        {
          "components": [
            {
              "internalType": "address",
              "name": "owner",
              "type": "address"
            },
            {
              "internalType": "string",
              "name": "ownerPublicKey",
              "type": "string"
            }
          ],
          "internalType": "struct CampaignOwner",
          "name": "owner",
          "type": "tuple"
        },
        {
          "components": [
            {
              "internalType": "string",
              "name": "earTag",
              "type": "string"
            },
            {
              "internalType": "string",
              "name": "name",
              "type": "string"
            },
            {
              "internalType": "string",
              "name": "farm",
              "type": "string"
            },
            {
              "internalType": "uint8",
              "name": "age",
              "type": "uint8"
            }
          ],
          "internalType": "struct CampaignAnimalData",
          "name": "animal",
          "type": "tuple"
        },
        {
          "components": [
            {
              "components": [
                {
                  "internalType": "address payable",
                  "name": "owner",
                  "type": "address"
                },
                {
                  "internalType": "uint8",
                  "name": "share",
                  "type": "uint8"
                },
                {
                  "internalType": "string",
                  "name": "info",
                  "type": "string"
                }
              ],
              "internalType": "struct Stakeholder",
              "name": "farmer",
              "type": "tuple"
            },
            {
              "components": [
                {
                  "internalType": "address payable",
                  "name": "owner",
                  "type": "address"
                },
                {
                  "internalType": "uint8",
                  "name": "share",
                  "type": "uint8"
                },
                {
                  "internalType": "string",
                  "name": "info",
                  "type": "string"
                }
              ],
              "internalType": "struct Stakeholder",
              "name": "butcher",
              "type": "tuple"
            },
            {
              "components": [
                {
                  "internalType": "address payable",
                  "name": "owner",
                  "type": "address"
                },
                {
                  "internalType": "uint8",
                  "name": "share",
                  "type": "uint8"
                },
                {
                  "internalType": "string",
                  "name": "info",
                  "type": "string"
                }
              ],
              "internalType": "struct Stakeholder",
              "name": "delivery",
              "type": "tuple"
            }
          ],
          "internalType": "struct StakeholderList",
          "name": "stakeholders",
          "type": "tuple"
        }
      ],
      "stateMutability": "view",
      "type": "function",
      "constant": true
    },
    {
      "inputs": [],
      "name": "numberOfCampaigns",
      "outputs": [
        {
          "internalType": "uint256",
          "name": "",
          "type": "uint256"
        }
      ],
      "stateMutability": "view",
      "type": "function",
      "constant": true
    },
    {
      "inputs": [
        {
          "internalType": "string",
          "name": "_title",
          "type": "string"
        },
        {
          "internalType": "string",
          "name": "_description",
          "type": "string"
        },
        {
          "internalType": "uint32",
          "name": "_duration",
          "type": "uint32"
        },
        {
          "components": [
            {
              "internalType": "address",
              "name": "owner",
              "type": "address"
            },
            {
              "internalType": "string",
              "name": "ownerPublicKey",
              "type": "string"
            }
          ],
          "internalType": "struct CampaignOwner",
          "name": "_campaignOwner",
          "type": "tuple"
        },
        {
          "components": [
            {
              "components": [
                {
                  "internalType": "address payable",
                  "name": "owner",
                  "type": "address"
                },
                {
                  "internalType": "uint8",
                  "name": "share",
                  "type": "uint8"
                },
                {
                  "internalType": "string",
                  "name": "info",
                  "type": "string"
                }
              ],
              "internalType": "struct Stakeholder",
              "name": "farmer",
              "type": "tuple"
            },
            {
              "components": [
                {
                  "internalType": "address payable",
                  "name": "owner",
                  "type": "address"
                },
                {
                  "internalType": "uint8",
                  "name": "share",
                  "type": "uint8"
                },
                {
                  "internalType": "string",
                  "name": "info",
                  "type": "string"
                }
              ],
              "internalType": "struct Stakeholder",
              "name": "butcher",
              "type": "tuple"
            },
            {
              "components": [
                {
                  "internalType": "address payable",
                  "name": "owner",
                  "type": "address"
                },
                {
                  "internalType": "uint8",
                  "name": "share",
                  "type": "uint8"
                },
                {
                  "internalType": "string",
                  "name": "info",
                  "type": "string"
                }
              ],
              "internalType": "struct Stakeholder",
              "name": "delivery",
              "type": "tuple"
            }
          ],
          "internalType": "struct StakeholderList",
          "name": "_stakeholders",
          "type": "tuple"
        },
        {
          "components": [
            {
              "internalType": "string",
              "name": "earTag",
              "type": "string"
            },
            {
              "internalType": "string",
              "name": "name",
              "type": "string"
            },
            {
              "internalType": "string",
              "name": "farm",
              "type": "string"
            },
            {
              "internalType": "uint8",
              "name": "age",
              "type": "uint8"
            }
          ],
          "internalType": "struct CampaignAnimalData",
          "name": "_animal",
          "type": "tuple"
        },
        {
          "components": [
            {
              "internalType": "uint256",
              "name": "id",
              "type": "uint256"
            },
            {
              "internalType": "string",
              "name": "title",
              "type": "string"
            },
            {
              "internalType": "string",
              "name": "description",
              "type": "string"
            },
            {
              "internalType": "uint256",
              "name": "price",
              "type": "uint256"
            },
            {
              "internalType": "uint32",
              "name": "total",
              "type": "uint32"
            },
            {
              "internalType": "uint32",
              "name": "available",
              "type": "uint32"
            }
          ],
          "internalType": "struct Box[]",
          "name": "_boxes",
          "type": "tuple[]"
        }
      ],
      "name": "createCampaign",
      "outputs": [
        {
          "internalType": "uint256",
          "name": "",
          "type": "uint256"
        }
      ],
      "stateMutability": "nonpayable",
      "type": "function"
    },
    {
      "inputs": [],
      "name": "getNumberOfCampaigns",
      "outputs": [
        {
          "internalType": "uint256",
          "name": "",
          "type": "uint256"
        }
      ],
      "stateMutability": "view",
      "type": "function",
      "constant": true
    },
    {
      "inputs": [],
      "name": "getCampaigns",
      "outputs": [
        {
          "components": [
            {
              "internalType": "uint256",
              "name": "id",
              "type": "uint256"
            },
            {
              "components": [
                {
                  "internalType": "string",
                  "name": "title",
                  "type": "string"
                },
                {
                  "internalType": "string",
                  "name": "description",
                  "type": "string"
                },
                {
                  "internalType": "uint256",
                  "name": "deadline",
                  "type": "uint256"
                }
              ],
              "internalType": "struct CampaignInfo",
              "name": "info",
              "type": "tuple"
            },
            {
              "components": [
                {
                  "internalType": "uint256",
                  "name": "collectedAmount",
                  "type": "uint256"
                },
                {
                  "internalType": "uint256",
                  "name": "createdAt",
                  "type": "uint256"
                },
                {
                  "internalType": "uint256",
                  "name": "totalBoxes",
                  "type": "uint256"
                },
                {
                  "internalType": "uint256",
                  "name": "boxesSold",
                  "type": "uint256"
                },
                {
                  "internalType": "uint256",
                  "name": "totalBoxTypes",
                  "type": "uint256"
                },
                {
                  "internalType": "bool",
                  "name": "isStopped",
                  "type": "bool"
                }
              ],
              "internalType": "struct CampaignMeta",
              "name": "meta",
              "type": "tuple"
            },
            {
              "components": [
                {
                  "internalType": "address",
                  "name": "owner",
                  "type": "address"
                },
                {
                  "internalType": "string",
                  "name": "ownerPublicKey",
                  "type": "string"
                }
              ],
              "internalType": "struct CampaignOwner",
              "name": "owner",
              "type": "tuple"
            },
            {
              "components": [
                {
                  "internalType": "string",
                  "name": "earTag",
                  "type": "string"
                },
                {
                  "internalType": "string",
                  "name": "name",
                  "type": "string"
                },
                {
                  "internalType": "string",
                  "name": "farm",
                  "type": "string"
                },
                {
                  "internalType": "uint8",
                  "name": "age",
                  "type": "uint8"
                }
              ],
              "internalType": "struct CampaignAnimalData",
              "name": "animal",
              "type": "tuple"
            },
            {
              "components": [
                {
                  "components": [
                    {
                      "internalType": "address payable",
                      "name": "owner",
                      "type": "address"
                    },
                    {
                      "internalType": "uint8",
                      "name": "share",
                      "type": "uint8"
                    },
                    {
                      "internalType": "string",
                      "name": "info",
                      "type": "string"
                    }
                  ],
                  "internalType": "struct Stakeholder",
                  "name": "farmer",
                  "type": "tuple"
                },
                {
                  "components": [
                    {
                      "internalType": "address payable",
                      "name": "owner",
                      "type": "address"
                    },
                    {
                      "internalType": "uint8",
                      "name": "share",
                      "type": "uint8"
                    },
                    {
                      "internalType": "string",
                      "name": "info",
                      "type": "string"
                    }
                  ],
                  "internalType": "struct Stakeholder",
                  "name": "butcher",
                  "type": "tuple"
                },
                {
                  "components": [
                    {
                      "internalType": "address payable",
                      "name": "owner",
                      "type": "address"
                    },
                    {
                      "internalType": "uint8",
                      "name": "share",
                      "type": "uint8"
                    },
                    {
                      "internalType": "string",
                      "name": "info",
                      "type": "string"
                    }
                  ],
                  "internalType": "struct Stakeholder",
                  "name": "delivery",
                  "type": "tuple"
                }
              ],
              "internalType": "struct StakeholderList",
              "name": "stakeholders",
              "type": "tuple"
            }
          ],
          "internalType": "struct Campaign[]",
          "name": "",
          "type": "tuple[]"
        }
      ],
      "stateMutability": "view",
      "type": "function",
      "constant": true
    },
    {
      "inputs": [
        {
          "internalType": "uint256",
          "name": "_campaignId",
          "type": "uint256"
        }
      ],
      "name": "getBoxes",
      "outputs": [
        {
          "components": [
            {
              "internalType": "uint256",
              "name": "id",
              "type": "uint256"
            },
            {
              "internalType": "string",
              "name": "title",
              "type": "string"
            },
            {
              "internalType": "string",
              "name": "description",
              "type": "string"
            },
            {
              "internalType": "uint256",
              "name": "price",
              "type": "uint256"
            },
            {
              "internalType": "uint32",
              "name": "total",
              "type": "uint32"
            },
            {
              "internalType": "uint32",
              "name": "available",
              "type": "uint32"
            }
          ],
          "internalType": "struct Box[]",
          "name": "",
          "type": "tuple[]"
        }
      ],
      "stateMutability": "view",
      "type": "function",
      "constant": true
    },
    {
      "inputs": [
        {
          "internalType": "uint256",
          "name": "_campaignId",
          "type": "uint256"
        }
      ],
      "name": "getSoldBoxes",
      "outputs": [
        {
          "components": [
            {
              "internalType": "uint256",
              "name": "id",
              "type": "uint256"
            },
            {
              "internalType": "uint256",
              "name": "boxId",
              "type": "uint256"
            },
            {
              "internalType": "address",
              "name": "owner",
              "type": "address"
            },
            {
              "internalType": "uint256",
              "name": "boughtAt",
              "type": "uint256"
            },
            {
              "internalType": "string",
              "name": "physAddress",
              "type": "string"
            }
          ],
          "internalType": "struct BoxSellRef[]",
          "name": "",
          "type": "tuple[]"
        }
      ],
      "stateMutability": "view",
      "type": "function",
      "constant": true
    },
    {
      "inputs": [
        {
          "internalType": "uint256",
          "name": "_campaignId",
          "type": "uint256"
        }
      ],
      "name": "stopCampaign",
      "outputs": [
        {
          "internalType": "bool",
          "name": "",
          "type": "bool"
        }
      ],
      "stateMutability": "nonpayable",
      "type": "function"
    },
    {
      "inputs": [
        {
          "internalType": "uint256",
          "name": "_campaignId",
          "type": "uint256"
        },
        {
          "internalType": "uint256",
          "name": "_boxId",
          "type": "uint256"
        },
        {
          "internalType": "string",
          "name": "_physAddress",
          "type": "string"
        }
      ],
      "name": "buyBox",
      "outputs": [],
      "stateMutability": "payable",
      "type": "function",
      "payable": true
    },
    {
      "inputs": [
        {
          "internalType": "uint256",
          "name": "_campaignId",
          "type": "uint256"
        }
      ],
      "name": "payOut",
      "outputs": [],
      "stateMutability": "nonpayable",
      "type": "function"
    }
  ],
  "bytecode": "0x6080604052600060035534801561001557600080fd5b50614547806100256000396000f3fe6080604052600436106100915760003560e01c80639102007e116100595780639102007e14610199578063a6b03633146101d6578063da333ca614610201578063e4aafc2c1461022a578063ec6c82161461025557610091565b806307ca140d14610096578063141961bc146100c15780633267f8ab1461010357806332e75749146101405780636e8ae0351461017d575b600080fd5b3480156100a257600080fd5b506100ab610292565b6040516100b89190612875565b60405180910390f35b3480156100cd57600080fd5b506100e860048036038101906100e391906128d0565b610298565b6040516100fa96959493929190612c6c565b60405180910390f35b34801561010f57600080fd5b5061012a600480360381019061012591906128d0565b610a87565b6040516101379190612e5e565b60405180910390f35b34801561014c57600080fd5b50610167600480360381019061016291906128d0565b610d04565b6040516101749190612fb8565b60405180910390f35b6101976004803603810190610192919061310f565b610f03565b005b3480156101a557600080fd5b506101c060048036038101906101bb9190613666565b611246565b6040516101cd9190612875565b60405180910390f35b3480156101e257600080fd5b506101eb6118e4565b6040516101f89190613af2565b60405180910390f35b34801561020d57600080fd5b50610228600480360381019061022391906128d0565b612198565b005b34801561023657600080fd5b5061023f61243f565b60405161024c9190612875565b60405180910390f35b34801561026157600080fd5b5061027c600480360381019061027791906128d0565b612449565b6040516102899190613b23565b60405180910390f35b60035481565b6000602052806000526040600020600091509050806000015490806001016040518060600160405290816000820180546102d190613b6d565b80601f01602080910402602001604051908101604052809291908181526020018280546102fd90613b6d565b801561034a5780601f1061031f5761010080835404028352916020019161034a565b820191906000526020600020905b81548152906001019060200180831161032d57829003601f168201915b5050505050815260200160018201805461036390613b6d565b80601f016020809104026020016040519081016040528092919081815260200182805461038f90613b6d565b80156103dc5780601f106103b1576101008083540402835291602001916103dc565b820191906000526020600020905b8154815290600101906020018083116103bf57829003601f168201915b5050505050815260200160028201548152505090806004016040518060c001604052908160008201548152602001600182015481526020016002820154815260200160038201548152602001600482015481526020016005820160009054906101000a900460ff1615151515815250509080600a016040518060400160405290816000820160009054906101000a900473ffffffffffffffffffffffffffffffffffffffff1673ffffffffffffffffffffffffffffffffffffffff1673ffffffffffffffffffffffffffffffffffffffff1681526020016001820180546104c290613b6d565b80601f01602080910402602001604051908101604052809291908181526020018280546104ee90613b6d565b801561053b5780601f106105105761010080835404028352916020019161053b565b820191906000526020600020905b81548152906001019060200180831161051e57829003601f168201915b5050505050815250509080600c0160405180608001604052908160008201805461056490613b6d565b80601f016020809104026020016040519081016040528092919081815260200182805461059090613b6d565b80156105dd5780601f106105b2576101008083540402835291602001916105dd565b820191906000526020600020905b8154815290600101906020018083116105c057829003601f168201915b505050505081526020016001820180546105f690613b6d565b80601f016020809104026020016040519081016040528092919081815260200182805461062290613b6d565b801561066f5780601f106106445761010080835404028352916020019161066f565b820191906000526020600020905b81548152906001019060200180831161065257829003601f168201915b5050505050815260200160028201805461068890613b6d565b80601f01602080910402602001604051908101604052809291908181526020018280546106b490613b6d565b80156107015780601f106106d657610100808354040283529160200191610701565b820191906000526020600020905b8154815290600101906020018083116106e457829003601f168201915b505050505081526020016003820160009054906101000a900460ff1660ff1660ff16815250509080601001604051806060016040529081600082016040518060600160405290816000820160009054906101000a900473ffffffffffffffffffffffffffffffffffffffff1673ffffffffffffffffffffffffffffffffffffffff1673ffffffffffffffffffffffffffffffffffffffff1681526020016000820160149054906101000a900460ff1660ff1660ff1681526020016001820180546107ca90613b6d565b80601f01602080910402602001604051908101604052809291908181526020018280546107f690613b6d565b80156108435780601f1061081857610100808354040283529160200191610843565b820191906000526020600020905b81548152906001019060200180831161082657829003601f168201915b5050505050815250508152602001600282016040518060600160405290816000820160009054906101000a900473ffffffffffffffffffffffffffffffffffffffff1673ffffffffffffffffffffffffffffffffffffffff1673ffffffffffffffffffffffffffffffffffffffff1681526020016000820160149054906101000a900460ff1660ff1660ff1681526020016001820180546108e390613b6d565b80601f016020809104026020016040519081016040528092919081815260200182805461090f90613b6d565b801561095c5780601f106109315761010080835404028352916020019161095c565b820191906000526020600020905b81548152906001019060200180831161093f57829003601f168201915b5050505050815250508152602001600482016040518060600160405290816000820160009054906101000a900473ffffffffffffffffffffffffffffffffffffffff1673ffffffffffffffffffffffffffffffffffffffff1673ffffffffffffffffffffffffffffffffffffffff1681526020016000820160149054906101000a900460ff1660ff1660ff1681526020016001820180546109fc90613b6d565b80601f0160208091040260200160405190810160405280929190818152602001828054610a2890613b6d565b8015610a755780601f10610a4a57610100808354040283529160200191610a75565b820191906000526020600020905b815481529060010190602001808311610a5857829003601f168201915b50505050508152505081525050905086565b60606000806000848152602001908152602001600020905060008160040160040154905060008167ffffffffffffffff811115610ac757610ac6612fe4565b5b604051908082528060200260200182016040528015610b0057816020015b610aed6125bd565b815260200190600190039081610ae55790505b50905060005b82811015610cf85760006001600088815260200190815260200160002060008381526020019081526020016000209050806040518060c001604052908160008201548152602001600182018054610b5c90613b6d565b80601f0160208091040260200160405190810160405280929190818152602001828054610b8890613b6d565b8015610bd55780601f10610baa57610100808354040283529160200191610bd5565b820191906000526020600020905b815481529060010190602001808311610bb857829003601f168201915b50505050508152602001600282018054610bee90613b6d565b80601f0160208091040260200160405190810160405280929190818152602001828054610c1a90613b6d565b8015610c675780601f10610c3c57610100808354040283529160200191610c67565b820191906000526020600020905b815481529060010190602001808311610c4a57829003601f168201915b50505050508152602001600382015481526020016004820160009054906101000a900463ffffffff1663ffffffff1663ffffffff1681526020016004820160049054906101000a900463ffffffff1663ffffffff1663ffffffff1681525050838381518110610cd957610cd8613b9e565b5b6020026020010181905250508080610cf090613bfc565b915050610b06565b50809350505050919050565b60606000806000848152602001908152602001600020905060008160040160030154905060008167ffffffffffffffff811115610d4457610d43612fe4565b5b604051908082528060200260200182016040528015610d7d57816020015b610d6a6125ff565b815260200190600190039081610d625790505b50905060005b82811015610ef75760006002600088815260200190815260200160002060008381526020019081526020016000209050806040518060a001604052908160008201548152602001600182015481526020016002820160009054906101000a900473ffffffffffffffffffffffffffffffffffffffff1673ffffffffffffffffffffffffffffffffffffffff1673ffffffffffffffffffffffffffffffffffffffff16815260200160038201548152602001600482018054610e4390613b6d565b80601f0160208091040260200160405190810160405280929190818152602001828054610e6f90613b6d565b8015610ebc5780601f10610e9157610100808354040283529160200191610ebc565b820191906000526020600020905b815481529060010190602001808311610e9f57829003601f168201915b505050505081525050838381518110610ed857610ed7613b9e565b5b6020026020010181905250508080610eef90613bfc565b915050610d83565b50809350505050919050565b600080600085815260200190815260200160002090508060040160050160009054906101000a900460ff1615610f6e576040517f08c379a0000000000000000000000000000000000000000000000000000000008152600401610f6590613ca1565b60405180910390fd5b42816001016002015411610fb7576040517f08c379a0000000000000000000000000000000000000000000000000000000008152600401610fae90613d0d565b60405180910390fd5b6000600160008681526020019081526020016000206000858152602001908152602001600020905083816000015414611025576040517f08c379a000000000000000000000000000000000000000000000000000000000815260040161101c90613d79565b60405180910390fd5b60008160040160049054906101000a900463ffffffff1663ffffffff1611611082576040517f08c379a000000000000000000000000000000000000000000000000000000000815260040161107990613e0b565b60405180910390fd5b600034905081600301548110156110ce576040517f08c379a00000000000000000000000000000000000000000000000000000000081526004016110c590613e77565b60405180910390fd5b600083600401600301549050600060026000898152602001908152602001600020600086600401600301548152602001908152602001600020905083600001548160010181905550818160000181905550338160020160006101000a81548173ffffffffffffffffffffffffffffffffffffffff021916908373ffffffffffffffffffffffffffffffffffffffff1602179055508581600401908051906020019061117a929190612644565b5042816003018190555060018460040160048282829054906101000a900463ffffffff166111a89190613e97565b92506101000a81548163ffffffff021916908363ffffffff160217905550600085600401905060018160030160008282546111e39190613ecb565b92505081905550838160000160008282546111fe9190613ecb565b92505081905550856004016002015486600401600301540361123b5760018660040160050160006101000a81548160ff0219169083151502179055505b505050505050505050565b6000808663ffffffff1611611290576040517f08c379a000000000000000000000000000000000000000000000000000000000815260040161128790613f6d565b60405180910390fd5b62375f008663ffffffff1611156112dc576040517f08c379a00000000000000000000000000000000000000000000000000000000081526004016112d390613fff565b60405180910390fd5b600042905060008763ffffffff16826112f59190613ecb565b9050818111611339576040517f08c379a00000000000000000000000000000000000000000000000000000000081526004016113309061406b565b60405180910390fd5b6000805b85518110156114fe57600086828151811061135b5761135a613b9e565b5b602002602001015190506000816080015163ffffffff16116113b2576040517f08c379a00000000000000000000000000000000000000000000000000000000081526004016113a9906140fd565b60405180910390fd5b8060a0015163ffffffff16816080015163ffffffff1614611408576040517f08c379a00000000000000000000000000000000000000000000000000000000081526004016113ff9061418f565b60405180910390fd5b806080015163ffffffff168361141e9190613ecb565b925080600160006003548152602001908152602001600020600083600001518152602001908152602001600020600082015181600001556020820151816001019080519060200190611471929190612644565b50604082015181600201908051906020019061148e929190612644565b506060820151816003015560808201518160040160006101000a81548163ffffffff021916908363ffffffff16021790555060a08201518160040160046101000a81548163ffffffff021916908363ffffffff1602179055509050505080806114f690613bfc565b91505061133d565b5060008111611542576040517f08c379a000000000000000000000000000000000000000000000000000000000815260040161153990614221565b60405180910390fd5b60008060006003548152602001908152602001600020905060035481600001819055508881600a0160008201518160000160006101000a81548173ffffffffffffffffffffffffffffffffffffffff021916908373ffffffffffffffffffffffffffffffffffffffff16021790555060208201518160010190805190602001906115cd929190612644565b509050508b8160010160000190805190602001906115ec929190612644565b508a816001016001019080519060200190611608929190612644565b508281600101600201819055504281600401600101819055506000816004016000018190555060008160040160050160006101000a81548160ff02191690831515021790555081816004016002018190555060008160040160030181905550855181600401600401819055508681600c016000820151816000019080519060200190611695929190612644565b5060208201518160010190805190602001906116b2929190612644565b5060408201518160020190805190602001906116cf929190612644565b5060608201518160030160006101000a81548160ff021916908360ff160217905550905050878160100160008201518160000160008201518160000160006101000a81548173ffffffffffffffffffffffffffffffffffffffff021916908373ffffffffffffffffffffffffffffffffffffffff16021790555060208201518160000160146101000a81548160ff021916908360ff1602179055506040820151816001019080519060200190611786929190612644565b50505060208201518160020160008201518160000160006101000a81548173ffffffffffffffffffffffffffffffffffffffff021916908373ffffffffffffffffffffffffffffffffffffffff16021790555060208201518160000160146101000a81548160ff021916908360ff1602179055506040820151816001019080519060200190611816929190612644565b50505060408201518160040160008201518160000160006101000a81548173ffffffffffffffffffffffffffffffffffffffff021916908373ffffffffffffffffffffffffffffffffffffffff16021790555060208201518160000160146101000a81548160ff021916908360ff16021790555060408201518160010190805190602001906118a6929190612644565b505050905050600360008154809291906118bf90613bfc565b919050555060016003546118d39190614241565b945050505050979650505050505050565b6060600060035467ffffffffffffffff81111561190457611903612fe4565b5b60405190808252806020026020018201604052801561193d57816020015b61192a6126ca565b8152602001906001900390816119225790505b50905060005b6003548110156121905760008060008381526020019081526020016000209050806040518060c0016040529081600082015481526020016001820160405180606001604052908160008201805461199990613b6d565b80601f01602080910402602001604051908101604052809291908181526020018280546119c590613b6d565b8015611a125780601f106119e757610100808354040283529160200191611a12565b820191906000526020600020905b8154815290600101906020018083116119f557829003601f168201915b50505050508152602001600182018054611a2b90613b6d565b80601f0160208091040260200160405190810160405280929190818152602001828054611a5790613b6d565b8015611aa45780601f10611a7957610100808354040283529160200191611aa4565b820191906000526020600020905b815481529060010190602001808311611a8757829003601f168201915b505050505081526020016002820154815250508152602001600482016040518060c001604052908160008201548152602001600182015481526020016002820154815260200160038201548152602001600482015481526020016005820160009054906101000a900460ff1615151515815250508152602001600a82016040518060400160405290816000820160009054906101000a900473ffffffffffffffffffffffffffffffffffffffff1673ffffffffffffffffffffffffffffffffffffffff1673ffffffffffffffffffffffffffffffffffffffff168152602001600182018054611b9290613b6d565b80601f0160208091040260200160405190810160405280929190818152602001828054611bbe90613b6d565b8015611c0b5780601f10611be057610100808354040283529160200191611c0b565b820191906000526020600020905b815481529060010190602001808311611bee57829003601f168201915b5050505050815250508152602001600c8201604051806080016040529081600082018054611c3890613b6d565b80601f0160208091040260200160405190810160405280929190818152602001828054611c6490613b6d565b8015611cb15780601f10611c8657610100808354040283529160200191611cb1565b820191906000526020600020905b815481529060010190602001808311611c9457829003601f168201915b50505050508152602001600182018054611cca90613b6d565b80601f0160208091040260200160405190810160405280929190818152602001828054611cf690613b6d565b8015611d435780601f10611d1857610100808354040283529160200191611d43565b820191906000526020600020905b815481529060010190602001808311611d2657829003601f168201915b50505050508152602001600282018054611d5c90613b6d565b80601f0160208091040260200160405190810160405280929190818152602001828054611d8890613b6d565b8015611dd55780601f10611daa57610100808354040283529160200191611dd5565b820191906000526020600020905b815481529060010190602001808311611db857829003601f168201915b505050505081526020016003820160009054906101000a900460ff1660ff1660ff1681525050815260200160108201604051806060016040529081600082016040518060600160405290816000820160009054906101000a900473ffffffffffffffffffffffffffffffffffffffff1673ffffffffffffffffffffffffffffffffffffffff1673ffffffffffffffffffffffffffffffffffffffff1681526020016000820160149054906101000a900460ff1660ff1660ff168152602001600182018054611ea290613b6d565b80601f0160208091040260200160405190810160405280929190818152602001828054611ece90613b6d565b8015611f1b5780601f10611ef057610100808354040283529160200191611f1b565b820191906000526020600020905b815481529060010190602001808311611efe57829003601f168201915b5050505050815250508152602001600282016040518060600160405290816000820160009054906101000a900473ffffffffffffffffffffffffffffffffffffffff1673ffffffffffffffffffffffffffffffffffffffff1673ffffffffffffffffffffffffffffffffffffffff1681526020016000820160149054906101000a900460ff1660ff1660ff168152602001600182018054611fbb90613b6d565b80601f0160208091040260200160405190810160405280929190818152602001828054611fe790613b6d565b80156120345780601f1061200957610100808354040283529160200191612034565b820191906000526020600020905b81548152906001019060200180831161201757829003601f168201915b5050505050815250508152602001600482016040518060600160405290816000820160009054906101000a900473ffffffffffffffffffffffffffffffffffffffff1673ffffffffffffffffffffffffffffffffffffffff1673ffffffffffffffffffffffffffffffffffffffff1681526020016000820160149054906101000a900460ff1660ff1660ff1681526020016001820180546120d490613b6d565b80601f016020809104026020016040519081016040528092919081815260200182805461210090613b6d565b801561214d5780601f106121225761010080835404028352916020019161214d565b820191906000526020600020905b81548152906001019060200180831161213057829003601f168201915b505050505081525050815250508152505083838151811061217157612170613b9e565b5b602002602001018190525050808061218890613bfc565b915050611943565b508091505090565b600080600083815260200190815260200160002090508060040160050160009054906101000a900460ff16612202576040517f08c379a00000000000000000000000000000000000000000000000000000000081526004016121f9906142c1565b60405180910390fd5b8060040160020154816004016003015414612252576040517f08c379a00000000000000000000000000000000000000000000000000000000081526004016122499061432d565b60405180910390fd5b60008160100160000160000160149054906101000a900460ff1660ff168260040160000154612281919061434d565b905060008260100160020160000160149054906101000a900460ff1660ff1683600401600001546122b2919061434d565b905060008360100160040160000160149054906101000a900460ff1660ff1684600401600001546122e3919061434d565b90508360100160000160000160009054906101000a900473ffffffffffffffffffffffffffffffffffffffff1673ffffffffffffffffffffffffffffffffffffffff166108fc849081150290604051600060405180830381858888f19350505050158015612355573d6000803e3d6000fd5b508360100160020160000160009054906101000a900473ffffffffffffffffffffffffffffffffffffffff1673ffffffffffffffffffffffffffffffffffffffff166108fc839081150290604051600060405180830381858888f193505050501580156123c6573d6000803e3d6000fd5b508360100160040160000160009054906101000a900473ffffffffffffffffffffffffffffffffffffffff1673ffffffffffffffffffffffffffffffffffffffff166108fc829081150290604051600060405180830381858888f19350505050158015612437573d6000803e3d6000fd5b505050505050565b6000600354905090565b60008060008084815260200190815260200160002090508060040160050160009054906101000a900460ff16156124b5576040517f08c379a00000000000000000000000000000000000000000000000000000000081526004016124ac906143f3565b60405180910390fd5b428160010160020154116124fe576040517f08c379a00000000000000000000000000000000000000000000000000000000081526004016124f59061445f565b60405180910390fd5b80600a0160000160009054906101000a900473ffffffffffffffffffffffffffffffffffffffff1673ffffffffffffffffffffffffffffffffffffffff163373ffffffffffffffffffffffffffffffffffffffff1614612593576040517f08c379a000000000000000000000000000000000000000000000000000000000815260040161258a906144f1565b60405180910390fd5b60018160040160050160006101000a81548160ff0219169083151502179055506001915050919050565b6040518060c0016040528060008152602001606081526020016060815260200160008152602001600063ffffffff168152602001600063ffffffff1681525090565b6040518060a001604052806000815260200160008152602001600073ffffffffffffffffffffffffffffffffffffffff16815260200160008152602001606081525090565b82805461265090613b6d565b90600052602060002090601f01602090048101928261267257600085556126b9565b82601f1061268b57805160ff19168380011785556126b9565b828001600101855582156126b9579182015b828111156126b857825182559160200191906001019061269d565b5b5090506126c6919061271e565b5090565b6040518060c00160405280600081526020016126e461273b565b81526020016126f161275c565b81526020016126fe612794565b815260200161270b6127c4565b81526020016127186127ef565b81525090565b5b8082111561273757600081600090555060010161271f565b5090565b60405180606001604052806060815260200160608152602001600081525090565b6040518060c0016040528060008152602001600081526020016000815260200160008152602001600081526020016000151581525090565b6040518060400160405280600073ffffffffffffffffffffffffffffffffffffffff168152602001606081525090565b6040518060800160405280606081526020016060815260200160608152602001600060ff1681525090565b6040518060600160405280612802612822565b815260200161280f612822565b815260200161281c612822565b81525090565b6040518060600160405280600073ffffffffffffffffffffffffffffffffffffffff168152602001600060ff168152602001606081525090565b6000819050919050565b61286f8161285c565b82525050565b600060208201905061288a6000830184612866565b92915050565b6000604051905090565b600080fd5b600080fd5b6128ad8161285c565b81146128b857600080fd5b50565b6000813590506128ca816128a4565b92915050565b6000602082840312156128e6576128e561289a565b5b60006128f4848285016128bb565b91505092915050565b600081519050919050565b600082825260208201905092915050565b60005b8381101561293757808201518184015260208101905061291c565b83811115612946576000848401525b50505050565b6000601f19601f8301169050919050565b6000612968826128fd565b6129728185612908565b9350612982818560208601612919565b61298b8161294c565b840191505092915050565b61299f8161285c565b82525050565b600060608301600083015184820360008601526129c2828261295d565b915050602083015184820360208601526129dc828261295d565b91505060408301516129f16040860182612996565b508091505092915050565b60008115159050919050565b612a11816129fc565b82525050565b60c082016000820151612a2d6000850182612996565b506020820151612a406020850182612996565b506040820151612a536040850182612996565b506060820151612a666060850182612996565b506080820151612a796080850182612996565b5060a0820151612a8c60a0850182612a08565b50505050565b600073ffffffffffffffffffffffffffffffffffffffff82169050919050565b6000612abd82612a92565b9050919050565b612acd81612ab2565b82525050565b6000604083016000830151612aeb6000860182612ac4565b5060208301518482036020860152612b03828261295d565b9150508091505092915050565b600060ff82169050919050565b612b2681612b10565b82525050565b60006080830160008301518482036000860152612b49828261295d565b91505060208301518482036020860152612b63828261295d565b91505060408301518482036040860152612b7d828261295d565b9150506060830151612b926060860182612b1d565b508091505092915050565b6000612ba882612a92565b9050919050565b612bb881612b9d565b82525050565b6000606083016000830151612bd66000860182612baf565b506020830151612be96020860182612b1d565b5060408301518482036040860152612c01828261295d565b9150508091505092915050565b60006060830160008301518482036000860152612c2b8282612bbe565b91505060208301518482036020860152612c458282612bbe565b91505060408301518482036040860152612c5f8282612bbe565b9150508091505092915050565b600061016082019050612c826000830189612866565b8181036020830152612c9481886129a5565b9050612ca36040830187612a17565b818103610100830152612cb68186612ad3565b9050818103610120830152612ccb8185612b2c565b9050818103610140830152612ce08184612c0e565b9050979650505050505050565b600081519050919050565b600082825260208201905092915050565b6000819050602082019050919050565b600063ffffffff82169050919050565b612d3281612d19565b82525050565b600060c083016000830151612d506000860182612996565b5060208301518482036020860152612d68828261295d565b91505060408301518482036040860152612d82828261295d565b9150506060830151612d976060860182612996565b506080830151612daa6080860182612d29565b5060a0830151612dbd60a0860182612d29565b508091505092915050565b6000612dd48383612d38565b905092915050565b6000602082019050919050565b6000612df482612ced565b612dfe8185612cf8565b935083602082028501612e1085612d09565b8060005b85811015612e4c5784840389528151612e2d8582612dc8565b9450612e3883612ddc565b925060208a01995050600181019050612e14565b50829750879550505050505092915050565b60006020820190508181036000830152612e788184612de9565b905092915050565b600081519050919050565b600082825260208201905092915050565b6000819050602082019050919050565b600060a083016000830151612ec46000860182612996565b506020830151612ed76020860182612996565b506040830151612eea6040860182612ac4565b506060830151612efd6060860182612996565b5060808301518482036080860152612f15828261295d565b9150508091505092915050565b6000612f2e8383612eac565b905092915050565b6000602082019050919050565b6000612f4e82612e80565b612f588185612e8b565b935083602082028501612f6a85612e9c565b8060005b85811015612fa65784840389528151612f878582612f22565b9450612f9283612f36565b925060208a01995050600181019050612f6e565b50829750879550505050505092915050565b60006020820190508181036000830152612fd28184612f43565b905092915050565b600080fd5b600080fd5b7f4e487b7100000000000000000000000000000000000000000000000000000000600052604160045260246000fd5b61301c8261294c565b810181811067ffffffffffffffff8211171561303b5761303a612fe4565b5b80604052505050565b600061304e612890565b905061305a8282613013565b919050565b600067ffffffffffffffff82111561307a57613079612fe4565b5b6130838261294c565b9050602081019050919050565b82818337600083830152505050565b60006130b26130ad8461305f565b613044565b9050828152602081018484840111156130ce576130cd612fdf565b5b6130d9848285613090565b509392505050565b600082601f8301126130f6576130f5612fda565b5b813561310684826020860161309f565b91505092915050565b6000806000606084860312156131285761312761289a565b5b6000613136868287016128bb565b9350506020613147868287016128bb565b925050604084013567ffffffffffffffff8111156131685761316761289f565b5b613174868287016130e1565b9150509250925092565b61318781612d19565b811461319257600080fd5b50565b6000813590506131a48161317e565b92915050565b600080fd5b600080fd5b6131bd81612ab2565b81146131c857600080fd5b50565b6000813590506131da816131b4565b92915050565b6000604082840312156131f6576131f56131aa565b5b6132006040613044565b90506000613210848285016131cb565b600083015250602082013567ffffffffffffffff811115613234576132336131af565b5b613240848285016130e1565b60208301525092915050565b61325581612b9d565b811461326057600080fd5b50565b6000813590506132728161324c565b92915050565b61328181612b10565b811461328c57600080fd5b50565b60008135905061329e81613278565b92915050565b6000606082840312156132ba576132b96131aa565b5b6132c46060613044565b905060006132d484828501613263565b60008301525060206132e88482850161328f565b602083015250604082013567ffffffffffffffff81111561330c5761330b6131af565b5b613318848285016130e1565b60408301525092915050565b60006060828403121561333a576133396131aa565b5b6133446060613044565b9050600082013567ffffffffffffffff811115613364576133636131af565b5b613370848285016132a4565b600083015250602082013567ffffffffffffffff811115613394576133936131af565b5b6133a0848285016132a4565b602083015250604082013567ffffffffffffffff8111156133c4576133c36131af565b5b6133d0848285016132a4565b60408301525092915050565b6000608082840312156133f2576133f16131aa565b5b6133fc6080613044565b9050600082013567ffffffffffffffff81111561341c5761341b6131af565b5b613428848285016130e1565b600083015250602082013567ffffffffffffffff81111561344c5761344b6131af565b5b613458848285016130e1565b602083015250604082013567ffffffffffffffff81111561347c5761347b6131af565b5b613488848285016130e1565b604083015250606061349c8482850161328f565b60608301525092915050565b600067ffffffffffffffff8211156134c3576134c2612fe4565b5b602082029050602081019050919050565b600080fd5b600060c082840312156134ef576134ee6131aa565b5b6134f960c0613044565b90506000613509848285016128bb565b600083015250602082013567ffffffffffffffff81111561352d5761352c6131af565b5b613539848285016130e1565b602083015250604082013567ffffffffffffffff81111561355d5761355c6131af565b5b613569848285016130e1565b604083015250606061357d848285016128bb565b606083015250608061359184828501613195565b60808301525060a06135a584828501613195565b60a08301525092915050565b60006135c46135bf846134a8565b613044565b905080838252602082019050602084028301858111156135e7576135e66134d4565b5b835b8181101561362e57803567ffffffffffffffff81111561360c5761360b612fda565b5b80860161361989826134d9565b855260208501945050506020810190506135e9565b5050509392505050565b600082601f83011261364d5761364c612fda565b5b813561365d8482602086016135b1565b91505092915050565b600080600080600080600060e0888a0312156136855761368461289a565b5b600088013567ffffffffffffffff8111156136a3576136a261289f565b5b6136af8a828b016130e1565b975050602088013567ffffffffffffffff8111156136d0576136cf61289f565b5b6136dc8a828b016130e1565b96505060406136ed8a828b01613195565b955050606088013567ffffffffffffffff81111561370e5761370d61289f565b5b61371a8a828b016131e0565b945050608088013567ffffffffffffffff81111561373b5761373a61289f565b5b6137478a828b01613324565b93505060a088013567ffffffffffffffff8111156137685761376761289f565b5b6137748a828b016133dc565b92505060c088013567ffffffffffffffff8111156137955761379461289f565b5b6137a18a828b01613638565b91505092959891949750929550565b600081519050919050565b600082825260208201905092915050565b6000819050602082019050919050565b600060608301600083015184820360008601526137f9828261295d565b91505060208301518482036020860152613813828261295d565b91505060408301516138286040860182612996565b508091505092915050565b60c0820160008201516138496000850182612996565b50602082015161385c6020850182612996565b50604082015161386f6040850182612996565b5060608201516138826060850182612996565b5060808201516138956080850182612996565b5060a08201516138a860a0850182612a08565b50505050565b60006040830160008301516138c66000860182612ac4565b50602083015184820360208601526138de828261295d565b9150508091505092915050565b60006080830160008301518482036000860152613908828261295d565b91505060208301518482036020860152613922828261295d565b9150506040830151848203604086015261393c828261295d565b91505060608301516139516060860182612b1d565b508091505092915050565b600060608301600083015184820360008601526139798282612bbe565b915050602083015184820360208601526139938282612bbe565b915050604083015184820360408601526139ad8282612bbe565b9150508091505092915050565b6000610160830160008301516139d36000860182612996565b50602083015184820360208601526139eb82826137dc565b9150506040830151613a006040860182613833565b506060830151848203610100860152613a1982826138ae565b9150506080830151848203610120860152613a3482826138eb565b91505060a0830151848203610140860152613a4f828261395c565b9150508091505092915050565b6000613a6883836139ba565b905092915050565b6000602082019050919050565b6000613a88826137b0565b613a9281856137bb565b935083602082028501613aa4856137cc565b8060005b85811015613ae05784840389528151613ac18582613a5c565b9450613acc83613a70565b925060208a01995050600181019050613aa8565b50829750879550505050505092915050565b60006020820190508181036000830152613b0c8184613a7d565b905092915050565b613b1d816129fc565b82525050565b6000602082019050613b386000830184613b14565b92915050565b7f4e487b7100000000000000000000000000000000000000000000000000000000600052602260045260246000fd5b60006002820490506001821680613b8557607f821691505b602082108103613b9857613b97613b3e565b5b50919050565b7f4e487b7100000000000000000000000000000000000000000000000000000000600052603260045260246000fd5b7f4e487b7100000000000000000000000000000000000000000000000000000000600052601160045260246000fd5b6000613c078261285c565b91507fffffffffffffffffffffffffffffffffffffffffffffffffffffffffffffffff8203613c3957613c38613bcd565b5b600182019050919050565b600082825260208201905092915050565b7f546869732063616d706169676e206861732073746f7070656400000000000000600082015250565b6000613c8b601983613c44565b9150613c9682613c55565b602082019050919050565b60006020820190508181036000830152613cba81613c7e565b9050919050565b7f546869732063616d706169676e20697320616c7265616479206f766572000000600082015250565b6000613cf7601d83613c44565b9150613d0282613cc1565b602082019050919050565b60006020820190508181036000830152613d2681613cea565b9050919050565b7f54686520626f7820494420697320696e76616c69640000000000000000000000600082015250565b6000613d63601583613c44565b9150613d6e82613d2d565b602082019050919050565b60006020820190508181036000830152613d9281613d56565b9050919050565b7f416c6c20626f786573206f66207468697320747970652068617665206265656e60008201527f20736f6c64000000000000000000000000000000000000000000000000000000602082015250565b6000613df5602583613c44565b9150613e0082613d99565b604082019050919050565b60006020820190508181036000830152613e2481613de8565b9050919050565b7f476976656e20616d6f756e742069732062656c6f7720626f7820707269636500600082015250565b6000613e61601f83613c44565b9150613e6c82613e2b565b602082019050919050565b60006020820190508181036000830152613e9081613e54565b9050919050565b6000613ea282612d19565b9150613ead83612d19565b925082821015613ec057613ebf613bcd565b5b828203905092915050565b6000613ed68261285c565b9150613ee18361285c565b9250827fffffffffffffffffffffffffffffffffffffffffffffffffffffffffffffffff03821115613f1657613f15613bcd565b5b828201905092915050565b7f4475726174696f6e206d75737420626520686967686572207468616e20300000600082015250565b6000613f57601e83613c44565b9150613f6282613f21565b602082019050919050565b60006020820190508181036000830152613f8681613f4a565b9050919050565b7f4475726174696f6e2063616e277420626520686967686572207468616e20362060008201527f7765656b73000000000000000000000000000000000000000000000000000000602082015250565b6000613fe9602583613c44565b9150613ff482613f8d565b604082019050919050565b6000602082019050818103600083015261401881613fdc565b9050919050565b7f446561646c696e65206d75737420626520696e20746865206675747572650000600082015250565b6000614055601e83613c44565b91506140608261401f565b602082019050919050565b6000602082019050818103600083015261408481614048565b9050919050565b7f5468657265206d757374206265206174206c65617374206f6e6520706965636560008201527f206f66206561636820626f780000000000000000000000000000000000000000602082015250565b60006140e7602c83613c44565b91506140f28261408b565b604082019050919050565b60006020820190508181036000830152614116816140da565b9050919050565b7f496e697469616c6c7920746f74616c20616e6420617661696c61626c65206d7560008201527f737420626520657175616c000000000000000000000000000000000000000000602082015250565b6000614179602b83613c44565b91506141848261411d565b604082019050919050565b600060208201905081810360008301526141a88161416c565b9050919050565b7f5468657265206d757374206265206174206c65617374206f6e6520626f78206960008201527f6e20746f74616c00000000000000000000000000000000000000000000000000602082015250565b600061420b602783613c44565b9150614216826141af565b604082019050919050565b6000602082019050818103600083015261423a816141fe565b9050919050565b600061424c8261285c565b91506142578361285c565b92508282101561426a57614269613bcd565b5b828203905092915050565b7f5468652063616d706169676e206d7573742062652066696e6973686564000000600082015250565b60006142ab601d83613c44565b91506142b682614275565b602082019050919050565b600060208201905081810360008301526142da8161429e565b9050919050565b7f54686572652063616e277420626520616e7920626f786573206c656674000000600082015250565b6000614317601d83613c44565b9150614322826142e1565b602082019050919050565b600060208201905081810360008301526143468161430a565b9050919050565b60006143588261285c565b91506143638361285c565b9250817fffffffffffffffffffffffffffffffffffffffffffffffffffffffffffffffff048311821515161561439c5761439b613bcd565b5b828202905092915050565b7f43616d706169676e20616c72656164792073746f707065640000000000000000600082015250565b60006143dd601883613c44565b91506143e8826143a7565b602082019050919050565b6000602082019050818103600083015261440c816143d0565b9050919050565b7f546869732063616d706169676e206973206f7665720000000000000000000000600082015250565b6000614449601583613c44565b915061445482614413565b602082019050919050565b600060208201905081810360008301526144788161443c565b9050919050565b7f4f6e6c7920746865206f776e65722063616e2073746f7020612063616d70616960008201527f676e000000000000000000000000000000000000000000000000000000000000602082015250565b60006144db602283613c44565b91506144e68261447f565b604082019050919050565b6000602082019050818103600083015261450a816144ce565b905091905056fea264697066735822122062d357bb30d9f3fe0392fa113c877b01389c9fa08c2a141dcb4d1c1ac2abc51364736f6c634300080d0033",
  "immutableReferences": {},
  "source": "// SPDX-License-Identifier: AGPL\npragma solidity ^0.8.13;\n\nimport \"./Types.sol\";\n\ncontract Crowdfunding {\n    // all campaigns\n    mapping(uint256 => Campaign) public campaigns;\n    // Boxes of each campaign\n    mapping(uint256 => mapping(uint256 => Box)) boxes;\n    // Sold boxes of each campaign (campignId => sellId => BoxSellRef)\n    mapping(uint256 => mapping(uint256 => BoxSellRef)) soldBoxes;\n\n    uint256 public numberOfCampaigns = 0;\n\n    /**\n     * Creates a new campaign\n     */\n    function createCampaign(\n        string memory _title,\n        string memory _description,\n        uint32 _duration,\n        CampaignOwner memory _campaignOwner,\n        StakeholderList memory _stakeholders,\n        CampaignAnimalData memory _animal,\n        Box[] memory _boxes\n    ) public returns (uint256) {\n        // check crowdfunding duration\n        require(_duration > 0, \"Duration must be higher than 0\");\n        require(_duration <= 6 weeks, \"Duration can't be higher than 6 weeks\");\n\n        // create deadline by adding the duration to the current timestamp\n        uint256 current = block.timestamp;\n        uint256 deadline = current + _duration;\n\n        // validate\n        require(deadline > current, \"Deadline must be in the future\");\n\n        // add boxes to campaign\n        uint256 totalNumOfBoxes = 0;\n        for (uint256 index = 0; index < _boxes.length; index++) {\n            Box memory box = _boxes[index];\n            require(\n                box.total > 0,\n                \"There must be at least one piece of each box\"\n            );\n            require(\n                box.total == box.available,\n                \"Initially total and available must be equal\"\n            );\n            totalNumOfBoxes += box.total;\n            boxes[numberOfCampaigns][box.id] = box;\n        }\n        require(totalNumOfBoxes > 0, \"There must be at least one box in total\");\n\n        Campaign storage campaign = campaigns[numberOfCampaigns];\n        campaign.id = numberOfCampaigns;\n        campaign.owner = _campaignOwner;\n        campaign.info.title = _title;\n        campaign.info.description = _description;\n        campaign.info.deadline = deadline;\n        campaign.meta.createdAt = block.timestamp;\n        campaign.meta.collectedAmount = 0;\n        campaign.meta.isStopped = false;\n        campaign.meta.totalBoxes = totalNumOfBoxes;\n        campaign.meta.boxesSold = 0;\n        campaign.meta.totalBoxTypes = _boxes.length;\n        campaign.animal = _animal;\n        campaign.stakeholders = _stakeholders;\n\n        // increase total num of campaigns\n        numberOfCampaigns++;\n\n        // return the most recent campaign index\n        return numberOfCampaigns - 1;\n    }\n\n    /**\n     * Returns the total number of campaigns\n     */\n    function getNumberOfCampaigns() public view returns (uint256) {\n        return numberOfCampaigns;\n    }\n\n    /**\n     * Returns all campaigns\n     */\n    function getCampaigns() public view returns (Campaign[] memory) {\n        Campaign[] memory allCampaigns = new Campaign[](numberOfCampaigns);\n        for (uint256 index = 0; index < numberOfCampaigns; index++) {\n            Campaign storage campaign = campaigns[index];\n            allCampaigns[index] = campaign;\n        }\n        return allCampaigns;\n    }\n\n    /**\n     * Returns all boxes of a specific campaign\n     */\n    function getBoxes(uint256 _campaignId) public view returns (Box[] memory) {\n        Campaign storage campaign = campaigns[_campaignId];\n        uint256 totalBoxTypes = campaign.meta.totalBoxTypes;\n        Box[] memory boxesOfCampaign = new Box[](totalBoxTypes);\n        for (uint256 index = 0; index < totalBoxTypes; index++) {\n            Box storage box = boxes[_campaignId][index];\n            boxesOfCampaign[index] = box;\n        }\n        return boxesOfCampaign;\n    }\n\n    /**\n     * Returns the sell reference of boxes for a specific campaign\n     */\n    function getSoldBoxes(\n        uint256 _campaignId\n    ) public view returns (BoxSellRef[] memory) {\n        Campaign storage campaign = campaigns[_campaignId];\n        uint256 boxesSold = campaign.meta.boxesSold;\n        BoxSellRef[] memory sellRefs = new BoxSellRef[](boxesSold);\n        for (uint256 index = 0; index < boxesSold; index++) {\n            BoxSellRef storage sellRef = soldBoxes[_campaignId][index];\n            sellRefs[index] = sellRef;\n        }\n        return sellRefs;\n    }\n\n    /**\n     * Removes a campaign\n     */\n    function stopCampaign(uint256 _campaignId) public returns (bool) {\n        Campaign storage campaign = campaigns[_campaignId];\n        require(!campaign.meta.isStopped, \"Campaign already stopped\");\n        require(\n            campaign.info.deadline > block.timestamp,\n            \"This campaign is over\"\n        );\n        require(\n            msg.sender == campaign.owner.owner,\n            \"Only the owner can stop a campaign\"\n        );\n\n        campaign.meta.isStopped = true;\n\n        return true;\n    }\n\n    /**\n     * Buys a box\n     */\n    function buyBox(\n        uint256 _campaignId,\n        uint256 _boxId,\n        string memory _physAddress\n    ) public payable {\n        // get campaign ref\n        Campaign storage campaign = campaigns[_campaignId];\n        // check if this is an ongoing campaign\n        require(!campaign.meta.isStopped, \"This campaign has stopped\");\n        require(\n            campaign.info.deadline > block.timestamp,\n            \"This campaign is already over\"\n        );\n\n        // check if this campaign still has available boxes for the requested kind\n        Box storage box = boxes[_campaignId][_boxId];\n        require(box.id == _boxId, \"The box ID is invalid\");\n        require(box.available > 0, \"All boxes of this type have been sold\");\n        uint256 amount = msg.value;\n        require(amount >= box.price, \"Given amount is below box price\");\n\n        // Add buyer (Don't increase boxes sold yet, we need it starting at 0)\n        uint256 sellId = campaign.meta.boxesSold;\n        BoxSellRef storage sellRef = soldBoxes[_campaignId][\n            campaign.meta.boxesSold\n        ];\n        sellRef.boxId = box.id;\n        sellRef.id = sellId;\n        sellRef.owner = msg.sender;\n        sellRef.physAddress = _physAddress;\n        sellRef.boughtAt = block.timestamp;\n\n        // Updates available boxes by one\n        box.available -= 1;\n        // Update campaign meta\n        CampaignMeta storage meta = campaign.meta;\n        meta.boxesSold += 1;\n        meta.collectedAmount += amount;\n\n        if (campaign.meta.boxesSold == campaign.meta.totalBoxes) {\n            // Mark campaign as stopped\n            campaign.meta.isStopped = true;\n            // TODO Start Supply Chain\n        }\n    }\n\n    /**\n     * Pay-out all stakeholders of the campaign\n     */\n    function payOut(uint256 _campaignId) public {\n        Campaign storage campaign = campaigns[_campaignId];\n        require(campaign.meta.isStopped, \"The campaign must be finished\");\n        require(\n            campaign.meta.boxesSold == campaign.meta.totalBoxes,\n            \"There can't be any boxes left\"\n        );\n\n        // TODO Check if supply chain has been completed\n        // e.g. require(campaign.supplyChain.isCompleted);\n\n        // Generate shares\n        uint256 farmerShare = campaign.meta.collectedAmount * campaign.stakeholders.farmer.share;\n        uint256 butcherShare = campaign.meta.collectedAmount * campaign.stakeholders.butcher.share;\n        uint256 deliveryShare = campaign.meta.collectedAmount * campaign.stakeholders.delivery.share;\n\n        // payout stakeholders\n        payable(campaign.stakeholders.farmer.owner).transfer(farmerShare);\n        payable(campaign.stakeholders.butcher.owner).transfer(butcherShare);\n        payable(campaign.stakeholders.delivery.owner).transfer(deliveryShare);\n    }\n}\n",
  "sourcePath": "/workspaces/146157_Blockchain/smart_contracts/contracts/Crowdfunding.sol",
  "compiler": {
    "name": "solc",
    "version": "0.8.13+commit.abaa5c0e.Emscripten.clang"
  },
  "schemaVersion": "3.4.14",
  "updatedAt": "2023-08-13T15:18:49.560Z",
  "networkType": "ethereum",
  "devdoc": {
    "kind": "dev",
    "methods": {},
    "version": 1
  },
  "userdoc": {
    "kind": "user",
    "methods": {
      "buyBox(uint256,uint256,string)": {
        "notice": "Buys a box"
      },
      "createCampaign(string,string,uint32,(address,string),((address,uint8,string),(address,uint8,string),(address,uint8,string)),(string,string,string,uint8),(uint256,string,string,uint256,uint32,uint32)[])": {
        "notice": "Creates a new campaign"
      },
      "getBoxes(uint256)": {
        "notice": "Returns all boxes of a specific campaign"
      },
      "getCampaigns()": {
        "notice": "Returns all campaigns"
      },
      "getNumberOfCampaigns()": {
        "notice": "Returns the total number of campaigns"
      },
      "getSoldBoxes(uint256)": {
        "notice": "Returns the sell reference of boxes for a specific campaign"
      },
      "payOut(uint256)": {
        "notice": "Pay-out all stakeholders of the campaign"
      },
      "stopCampaign(uint256)": {
        "notice": "Removes a campaign"
      }
    },
    "version": 1
  }
}