{
  "contractName": "Crowdfunding",
  "abi": [
    {
      "inputs": [
        {
          "internalType": "string",
          "name": "_title",
          "type": "string"
        },
        {
          "internalType": "string",
          "name": "_description",
          "type": "string"
        },
        {
          "internalType": "uint32",
          "name": "_duration",
          "type": "uint32"
        },
        {
          "components": [
            {
              "internalType": "address",
              "name": "owner",
              "type": "address"
            },
            {
              "internalType": "string",
              "name": "ownerPublicKey",
              "type": "string"
            }
          ],
          "internalType": "struct CampaignOwner",
          "name": "_campaignOwner",
          "type": "tuple"
        },
        {
          "components": [
            {
              "components": [
                {
                  "internalType": "address payable",
                  "name": "owner",
                  "type": "address"
                },
                {
                  "internalType": "uint8",
                  "name": "share",
                  "type": "uint8"
                },
                {
                  "internalType": "string",
                  "name": "info",
                  "type": "string"
                }
              ],
              "internalType": "struct Stakeholder",
              "name": "farmer",
              "type": "tuple"
            },
            {
              "components": [
                {
                  "internalType": "address payable",
                  "name": "owner",
                  "type": "address"
                },
                {
                  "internalType": "uint8",
                  "name": "share",
                  "type": "uint8"
                },
                {
                  "internalType": "string",
                  "name": "info",
                  "type": "string"
                }
              ],
              "internalType": "struct Stakeholder",
              "name": "butcher",
              "type": "tuple"
            },
            {
              "components": [
                {
                  "internalType": "address payable",
                  "name": "owner",
                  "type": "address"
                },
                {
                  "internalType": "uint8",
                  "name": "share",
                  "type": "uint8"
                },
                {
                  "internalType": "string",
                  "name": "info",
                  "type": "string"
                }
              ],
              "internalType": "struct Stakeholder",
              "name": "delivery",
              "type": "tuple"
            }
          ],
          "internalType": "struct StakeholderList",
          "name": "_stakeholders",
          "type": "tuple"
        },
        {
          "components": [
            {
              "internalType": "string",
              "name": "earTag",
              "type": "string"
            },
            {
              "internalType": "string",
              "name": "name",
              "type": "string"
            },
            {
              "internalType": "string",
              "name": "farm",
              "type": "string"
            },
            {
              "internalType": "uint8",
              "name": "age",
              "type": "uint8"
            }
          ],
          "internalType": "struct CampaignAnimalData",
          "name": "_animal",
          "type": "tuple"
        },
        {
          "components": [
            {
              "internalType": "uint8",
              "name": "id",
              "type": "uint8"
            },
            {
              "internalType": "string",
              "name": "title",
              "type": "string"
            },
            {
              "internalType": "string",
              "name": "description",
              "type": "string"
            },
            {
              "internalType": "uint256",
              "name": "price",
              "type": "uint256"
            },
            {
              "internalType": "uint8",
              "name": "total",
              "type": "uint8"
            },
            {
              "internalType": "uint8",
              "name": "available",
              "type": "uint8"
            }
          ],
          "internalType": "struct Box[]",
          "name": "_boxes",
          "type": "tuple[]"
        }
      ],
      "name": "createCampaign",
      "outputs": [],
      "stateMutability": "nonpayable",
      "type": "function"
    },
    {
      "inputs": [],
      "name": "getNumberOfCampaigns",
      "outputs": [
        {
          "internalType": "uint256",
          "name": "",
          "type": "uint256"
        }
      ],
      "stateMutability": "view",
      "type": "function",
      "constant": true
    },
    {
      "inputs": [],
      "name": "getCampaigns",
      "outputs": [
        {
          "components": [
            {
              "internalType": "uint256",
              "name": "id",
              "type": "uint256"
            },
            {
              "components": [
                {
                  "internalType": "string",
                  "name": "title",
                  "type": "string"
                },
                {
                  "internalType": "string",
                  "name": "description",
                  "type": "string"
                },
                {
                  "internalType": "uint256",
                  "name": "deadline",
                  "type": "uint256"
                }
              ],
              "internalType": "struct CampaignInfo",
              "name": "info",
              "type": "tuple"
            },
            {
              "components": [
                {
                  "internalType": "uint256",
                  "name": "collectedAmount",
                  "type": "uint256"
                },
                {
                  "internalType": "uint256",
                  "name": "createdAt",
                  "type": "uint256"
                },
                {
                  "internalType": "uint16",
                  "name": "totalBoxes",
                  "type": "uint16"
                },
                {
                  "internalType": "uint16",
                  "name": "boxesSold",
                  "type": "uint16"
                },
                {
                  "internalType": "uint8",
                  "name": "totalBoxTypes",
                  "type": "uint8"
                },
                {
                  "internalType": "bool",
                  "name": "isStopped",
                  "type": "bool"
                }
              ],
              "internalType": "struct CampaignMeta",
              "name": "meta",
              "type": "tuple"
            },
            {
              "components": [
                {
                  "internalType": "address",
                  "name": "owner",
                  "type": "address"
                },
                {
                  "internalType": "string",
                  "name": "ownerPublicKey",
                  "type": "string"
                }
              ],
              "internalType": "struct CampaignOwner",
              "name": "owner",
              "type": "tuple"
            },
            {
              "components": [
                {
                  "internalType": "string",
                  "name": "earTag",
                  "type": "string"
                },
                {
                  "internalType": "string",
                  "name": "name",
                  "type": "string"
                },
                {
                  "internalType": "string",
                  "name": "farm",
                  "type": "string"
                },
                {
                  "internalType": "uint8",
                  "name": "age",
                  "type": "uint8"
                }
              ],
              "internalType": "struct CampaignAnimalData",
              "name": "animal",
              "type": "tuple"
            },
            {
              "components": [
                {
                  "components": [
                    {
                      "internalType": "address payable",
                      "name": "owner",
                      "type": "address"
                    },
                    {
                      "internalType": "uint8",
                      "name": "share",
                      "type": "uint8"
                    },
                    {
                      "internalType": "string",
                      "name": "info",
                      "type": "string"
                    }
                  ],
                  "internalType": "struct Stakeholder",
                  "name": "farmer",
                  "type": "tuple"
                },
                {
                  "components": [
                    {
                      "internalType": "address payable",
                      "name": "owner",
                      "type": "address"
                    },
                    {
                      "internalType": "uint8",
                      "name": "share",
                      "type": "uint8"
                    },
                    {
                      "internalType": "string",
                      "name": "info",
                      "type": "string"
                    }
                  ],
                  "internalType": "struct Stakeholder",
                  "name": "butcher",
                  "type": "tuple"
                },
                {
                  "components": [
                    {
                      "internalType": "address payable",
                      "name": "owner",
                      "type": "address"
                    },
                    {
                      "internalType": "uint8",
                      "name": "share",
                      "type": "uint8"
                    },
                    {
                      "internalType": "string",
                      "name": "info",
                      "type": "string"
                    }
                  ],
                  "internalType": "struct Stakeholder",
                  "name": "delivery",
                  "type": "tuple"
                }
              ],
              "internalType": "struct StakeholderList",
              "name": "stakeholders",
              "type": "tuple"
            }
          ],
          "internalType": "struct Campaign[]",
          "name": "",
          "type": "tuple[]"
        }
      ],
      "stateMutability": "view",
      "type": "function",
      "constant": true
    },
    {
      "inputs": [
        {
          "internalType": "uint256",
          "name": "_campaignId",
          "type": "uint256"
        }
      ],
      "name": "getBoxes",
      "outputs": [
        {
          "components": [
            {
              "internalType": "uint8",
              "name": "id",
              "type": "uint8"
            },
            {
              "internalType": "string",
              "name": "title",
              "type": "string"
            },
            {
              "internalType": "string",
              "name": "description",
              "type": "string"
            },
            {
              "internalType": "uint256",
              "name": "price",
              "type": "uint256"
            },
            {
              "internalType": "uint8",
              "name": "total",
              "type": "uint8"
            },
            {
              "internalType": "uint8",
              "name": "available",
              "type": "uint8"
            }
          ],
          "internalType": "struct Box[]",
          "name": "",
          "type": "tuple[]"
        }
      ],
      "stateMutability": "view",
      "type": "function",
      "constant": true
    },
    {
      "inputs": [
        {
          "internalType": "uint256",
          "name": "_campaignId",
          "type": "uint256"
        }
      ],
      "name": "getSoldBoxes",
      "outputs": [
        {
          "components": [
            {
              "internalType": "uint16",
              "name": "id",
              "type": "uint16"
            },
            {
              "internalType": "uint8",
              "name": "boxId",
              "type": "uint8"
            },
            {
              "internalType": "address",
              "name": "owner",
              "type": "address"
            },
            {
              "internalType": "uint256",
              "name": "boughtAt",
              "type": "uint256"
            },
            {
              "internalType": "string",
              "name": "physAddress",
              "type": "string"
            }
          ],
          "internalType": "struct BoxSellRef[]",
          "name": "",
          "type": "tuple[]"
        }
      ],
      "stateMutability": "view",
      "type": "function",
      "constant": true
    },
    {
      "inputs": [
        {
          "internalType": "uint256",
          "name": "_campaignId",
          "type": "uint256"
        }
      ],
      "name": "stopCampaign",
      "outputs": [],
      "stateMutability": "nonpayable",
      "type": "function"
    },
    {
      "inputs": [
        {
          "internalType": "uint256",
          "name": "_campaignId",
          "type": "uint256"
        },
        {
          "internalType": "uint8",
          "name": "_boxId",
          "type": "uint8"
        },
        {
          "internalType": "string",
          "name": "_physAddress",
          "type": "string"
        }
      ],
      "name": "buyBox",
      "outputs": [],
      "stateMutability": "payable",
      "type": "function",
      "payable": true
    },
    {
      "inputs": [
        {
          "internalType": "uint256",
          "name": "_campaignId",
          "type": "uint256"
        }
      ],
      "name": "payOut",
      "outputs": [],
      "stateMutability": "nonpayable",
      "type": "function"
    }
  ],
  "bytecode": "0x6080604052600060035534801561001557600080fd5b50613e30806100256000396000f3fe60806040526004361061007b5760003560e01c8063a6b036331161004e578063a6b036331461013f578063da333ca61461016a578063e4aafc2c14610193578063ec6c8216146101be5761007b565b80633267f8ab1461008057806332e75749146100bd5780633e8abf22146100fa57806382fc7ddd14610116575b600080fd5b34801561008c57600080fd5b506100a760048036038101906100a29190612321565b6101e7565b6040516100b49190612564565b60405180910390f35b3480156100c957600080fd5b506100e460048036038101906100df9190612321565b610484565b6040516100f1919061271c565b60405180910390f35b610114600480360381019061010f919061289f565b6106ce565b005b34801561012257600080fd5b5061013d60048036038101906101389190612dec565b610ab6565b005b34801561014b57600080fd5b506101546111d6565b60405161016191906132f2565b60405180910390f35b34801561017657600080fd5b50610191600480360381019061018c9190612321565b611ac9565b005b34801561019f57600080fd5b506101a8611d94565b6040516101b59190613323565b60405180910390f35b3480156101ca57600080fd5b506101e560048036038101906101e09190612321565b611d9e565b005b60606000806000848152602001908152602001600020905060008160040160020160049054906101000a900460ff16905060008160ff1667ffffffffffffffff81111561023757610236612774565b5b60405190808252806020026020018201604052801561027057816020015b61025d612029565b8152602001906001900390816102555790505b50905060005b8260ff168160ff1610156104785760006001600088815260200190815260200160002060008360ff1660ff1681526020019081526020016000209050806040518060c00160405290816000820160009054906101000a900460ff1660ff1660ff1681526020016001820180546102eb9061336d565b80601f01602080910402602001604051908101604052809291908181526020018280546103179061336d565b80156103645780601f1061033957610100808354040283529160200191610364565b820191906000526020600020905b81548152906001019060200180831161034757829003601f168201915b5050505050815260200160028201805461037d9061336d565b80601f01602080910402602001604051908101604052809291908181526020018280546103a99061336d565b80156103f65780601f106103cb576101008083540402835291602001916103f6565b820191906000526020600020905b8154815290600101906020018083116103d957829003601f168201915b50505050508152602001600382015481526020016004820160009054906101000a900460ff1660ff1660ff1681526020016004820160019054906101000a900460ff1660ff1660ff1681525050838360ff16815181106104595761045861339e565b5b6020026020010181905250508080610470906133fc565b915050610276565b50809350505050919050565b60606000806000848152602001908152602001600020905060008160040160020160029054906101000a900461ffff16905060008161ffff1667ffffffffffffffff8111156104d6576104d5612774565b5b60405190808252806020026020018201604052801561050f57816020015b6104fc612068565b8152602001906001900390816104f45790505b50905060005b8261ffff168161ffff1610156106c25760006002600088815260200190815260200160002060008361ffff1681526020019081526020016000209050806040518060a00160405290816000820160009054906101000a900461ffff1661ffff1661ffff1681526020016000820160029054906101000a900460ff1660ff1660ff1681526020016000820160039054906101000a900473ffffffffffffffffffffffffffffffffffffffff1673ffffffffffffffffffffffffffffffffffffffff1673ffffffffffffffffffffffffffffffffffffffff1681526020016001820154815260200160028201805461060a9061336d565b80601f01602080910402602001604051908101604052809291908181526020018280546106369061336d565b80156106835780601f1061065857610100808354040283529160200191610683565b820191906000526020600020905b81548152906001019060200180831161066657829003601f168201915b505050505081525050838361ffff16815181106106a3576106a261339e565b5b60200260200101819052505080806106ba90613425565b915050610515565b50809350505050919050565b600080600085815260200190815260200160002090508060040160020160059054906101000a900460ff1615610739576040517f08c379a0000000000000000000000000000000000000000000000000000000008152600401610730906134ac565b60405180910390fd5b42816001016002015411610782576040517f08c379a000000000000000000000000000000000000000000000000000000000815260040161077990613518565b60405180910390fd5b60006001600086815260200190815260200160002060008560ff1660ff16815260200190815260200160002090508360ff168160000160009054906101000a900460ff1660ff1614610809576040517f08c379a000000000000000000000000000000000000000000000000000000000815260040161080090613584565b60405180910390fd5b60008160040160019054906101000a900460ff1660ff1611610860576040517f08c379a000000000000000000000000000000000000000000000000000000000815260040161085790613616565b60405180910390fd5b600034905081600301548110156108ac576040517f08c379a00000000000000000000000000000000000000000000000000000000081526004016108a390613682565b60405180910390fd5b60008360040160020160029054906101000a900461ffff16905060006002600089815260200190815260200160002060008660040160020160029054906101000a900461ffff1661ffff16815260200190815260200160002090508360000160009054906101000a900460ff168160000160026101000a81548160ff021916908360ff160217905550818160000160006101000a81548161ffff021916908361ffff160217905550338160000160036101000a81548173ffffffffffffffffffffffffffffffffffffffff021916908373ffffffffffffffffffffffffffffffffffffffff160217905550858160020190805190602001906109af9291906120b4565b5042816001018190555060018460040160018282829054906101000a900460ff166109da91906136a2565b92506101000a81548160ff021916908360ff160217905550600085600401905060018160020160028282829054906101000a900461ffff16610a1c91906136d6565b92506101000a81548161ffff021916908361ffff16021790555083816000016000828254610a4a919061370e565b925050819055508560040160020160009054906101000a900461ffff1661ffff168660040160020160029054906101000a900461ffff1661ffff1603610aab5760018660040160020160056101000a81548160ff0219169083151502179055505b505050505050505050565b60008563ffffffff1611610aff576040517f08c379a0000000000000000000000000000000000000000000000000000000008152600401610af6906137b0565b60405180910390fd5b62375f008563ffffffff161115610b4b576040517f08c379a0000000000000000000000000000000000000000000000000000000008152600401610b4290613842565b60405180910390fd5b600042905060008663ffffffff1682610b64919061370e565b9050818111610ba8576040517f08c379a0000000000000000000000000000000000000000000000000000000008152600401610b9f906138ae565b60405180910390fd5b60ff801683511115610bef576040517f08c379a0000000000000000000000000000000000000000000000000000000008152600401610be690613940565b60405180910390fd5b6000805b84518160ff161015610dbf576000858260ff1681518110610c1757610c1661339e565b5b602002602001015190506000816080015160ff1611610c6b576040517f08c379a0000000000000000000000000000000000000000000000000000000008152600401610c62906139d2565b60405180910390fd5b8060a0015160ff16816080015160ff1614610cbb576040517f08c379a0000000000000000000000000000000000000000000000000000000008152600401610cb290613a64565b60405180910390fd5b806080015160ff1683610cce91906136d6565b9250806001600060035481526020019081526020016000206000836000015160ff1660ff16815260200190815260200160002060008201518160000160006101000a81548160ff021916908360ff1602179055506020820151816001019080519060200190610d3e9291906120b4565b506040820151816002019080519060200190610d5b9291906120b4565b506060820151816003015560808201518160040160006101000a81548160ff021916908360ff16021790555060a08201518160040160016101000a81548160ff021916908360ff160217905550905050508080610db7906133fc565b915050610bf3565b5060008161ffff1611610e07576040517f08c379a0000000000000000000000000000000000000000000000000000000008152600401610dfe90613af6565b60405180910390fd5b6000806000600354815260200190815260200160002090506003548160000181905550878160070160008201518160000160006101000a81548173ffffffffffffffffffffffffffffffffffffffff021916908373ffffffffffffffffffffffffffffffffffffffff1602179055506020820151816001019080519060200190610e929291906120b4565b509050508a816001016000019080519060200190610eb19291906120b4565b5089816001016001019080519060200190610ecd9291906120b4565b508281600101600201819055504281600401600101819055506000816004016000018190555060008160040160020160056101000a81548160ff021916908315150217905550818160040160020160006101000a81548161ffff021916908361ffff16021790555060008160040160020160026101000a81548161ffff021916908361ffff16021790555084518160040160020160046101000a81548160ff021916908360ff16021790555085816009016000820151816000019080519060200190610f9a9291906120b4565b506020820151816001019080519060200190610fb79291906120b4565b506040820151816002019080519060200190610fd49291906120b4565b5060608201518160030160006101000a81548160ff021916908360ff1602179055509050508681600d0160008201518160000160008201518160000160006101000a81548173ffffffffffffffffffffffffffffffffffffffff021916908373ffffffffffffffffffffffffffffffffffffffff16021790555060208201518160000160146101000a81548160ff021916908360ff160217905550604082015181600101908051906020019061108b9291906120b4565b50505060208201518160020160008201518160000160006101000a81548173ffffffffffffffffffffffffffffffffffffffff021916908373ffffffffffffffffffffffffffffffffffffffff16021790555060208201518160000160146101000a81548160ff021916908360ff160217905550604082015181600101908051906020019061111b9291906120b4565b50505060408201518160040160008201518160000160006101000a81548173ffffffffffffffffffffffffffffffffffffffff021916908373ffffffffffffffffffffffffffffffffffffffff16021790555060208201518160000160146101000a81548160ff021916908360ff16021790555060408201518160010190805190602001906111ab9291906120b4565b505050905050600360008154809291906111c490613b16565b91905055505050505050505050505050565b6060600060035467ffffffffffffffff8111156111f6576111f5612774565b5b60405190808252806020026020018201604052801561122f57816020015b61121c61213a565b8152602001906001900390816112145790505b50905060005b600354811015611ac15760008060008381526020019081526020016000209050806040518060c0016040529081600082015481526020016001820160405180606001604052908160008201805461128b9061336d565b80601f01602080910402602001604051908101604052809291908181526020018280546112b79061336d565b80156113045780601f106112d957610100808354040283529160200191611304565b820191906000526020600020905b8154815290600101906020018083116112e757829003601f168201915b5050505050815260200160018201805461131d9061336d565b80601f01602080910402602001604051908101604052809291908181526020018280546113499061336d565b80156113965780601f1061136b57610100808354040283529160200191611396565b820191906000526020600020905b81548152906001019060200180831161137957829003601f168201915b505050505081526020016002820154815250508152602001600482016040518060c001604052908160008201548152602001600182015481526020016002820160009054906101000a900461ffff1661ffff1661ffff1681526020016002820160029054906101000a900461ffff1661ffff1661ffff1681526020016002820160049054906101000a900460ff1660ff1660ff1681526020016002820160059054906101000a900460ff1615151515815250508152602001600782016040518060400160405290816000820160009054906101000a900473ffffffffffffffffffffffffffffffffffffffff1673ffffffffffffffffffffffffffffffffffffffff1673ffffffffffffffffffffffffffffffffffffffff1681526020016001820180546114c39061336d565b80601f01602080910402602001604051908101604052809291908181526020018280546114ef9061336d565b801561153c5780601f106115115761010080835404028352916020019161153c565b820191906000526020600020905b81548152906001019060200180831161151f57829003601f168201915b5050505050815250508152602001600982016040518060800160405290816000820180546115699061336d565b80601f01602080910402602001604051908101604052809291908181526020018280546115959061336d565b80156115e25780601f106115b7576101008083540402835291602001916115e2565b820191906000526020600020905b8154815290600101906020018083116115c557829003601f168201915b505050505081526020016001820180546115fb9061336d565b80601f01602080910402602001604051908101604052809291908181526020018280546116279061336d565b80156116745780601f1061164957610100808354040283529160200191611674565b820191906000526020600020905b81548152906001019060200180831161165757829003601f168201915b5050505050815260200160028201805461168d9061336d565b80601f01602080910402602001604051908101604052809291908181526020018280546116b99061336d565b80156117065780601f106116db57610100808354040283529160200191611706565b820191906000526020600020905b8154815290600101906020018083116116e957829003601f168201915b505050505081526020016003820160009054906101000a900460ff1660ff1660ff16815250508152602001600d8201604051806060016040529081600082016040518060600160405290816000820160009054906101000a900473ffffffffffffffffffffffffffffffffffffffff1673ffffffffffffffffffffffffffffffffffffffff1673ffffffffffffffffffffffffffffffffffffffff1681526020016000820160149054906101000a900460ff1660ff1660ff1681526020016001820180546117d39061336d565b80601f01602080910402602001604051908101604052809291908181526020018280546117ff9061336d565b801561184c5780601f106118215761010080835404028352916020019161184c565b820191906000526020600020905b81548152906001019060200180831161182f57829003601f168201915b5050505050815250508152602001600282016040518060600160405290816000820160009054906101000a900473ffffffffffffffffffffffffffffffffffffffff1673ffffffffffffffffffffffffffffffffffffffff1673ffffffffffffffffffffffffffffffffffffffff1681526020016000820160149054906101000a900460ff1660ff1660ff1681526020016001820180546118ec9061336d565b80601f01602080910402602001604051908101604052809291908181526020018280546119189061336d565b80156119655780601f1061193a57610100808354040283529160200191611965565b820191906000526020600020905b81548152906001019060200180831161194857829003601f168201915b5050505050815250508152602001600482016040518060600160405290816000820160009054906101000a900473ffffffffffffffffffffffffffffffffffffffff1673ffffffffffffffffffffffffffffffffffffffff1673ffffffffffffffffffffffffffffffffffffffff1681526020016000820160149054906101000a900460ff1660ff1660ff168152602001600182018054611a059061336d565b80601f0160208091040260200160405190810160405280929190818152602001828054611a319061336d565b8015611a7e5780601f10611a5357610100808354040283529160200191611a7e565b820191906000526020600020905b815481529060010190602001808311611a6157829003601f168201915b5050505050815250508152505081525050838381518110611aa257611aa161339e565b5b6020026020010181905250508080611ab990613b16565b915050611235565b508091505090565b600080600083815260200190815260200160002090508060040160020160059054906101000a900460ff16611b33576040517f08c379a0000000000000000000000000000000000000000000000000000000008152600401611b2a90613baa565b60405180910390fd5b8060040160020160009054906101000a900461ffff1661ffff168160040160020160029054906101000a900461ffff1661ffff1614611ba7576040517f08c379a0000000000000000000000000000000000000000000000000000000008152600401611b9e90613c16565b60405180910390fd5b600081600d0160000160000160149054906101000a900460ff1660ff168260040160000154611bd69190613c36565b9050600082600d0160020160000160149054906101000a900460ff1660ff168360040160000154611c079190613c36565b9050600083600d0160040160000160149054906101000a900460ff1660ff168460040160000154611c389190613c36565b905083600d0160000160000160009054906101000a900473ffffffffffffffffffffffffffffffffffffffff1673ffffffffffffffffffffffffffffffffffffffff166108fc849081150290604051600060405180830381858888f19350505050158015611caa573d6000803e3d6000fd5b5083600d0160020160000160009054906101000a900473ffffffffffffffffffffffffffffffffffffffff1673ffffffffffffffffffffffffffffffffffffffff166108fc839081150290604051600060405180830381858888f19350505050158015611d1b573d6000803e3d6000fd5b5083600d0160040160000160009054906101000a900473ffffffffffffffffffffffffffffffffffffffff1673ffffffffffffffffffffffffffffffffffffffff166108fc829081150290604051600060405180830381858888f19350505050158015611d8c573d6000803e3d6000fd5b505050505050565b6000600354905090565b600080600083815260200190815260200160002090508060040160020160059054906101000a900460ff1615611e09576040517f08c379a0000000000000000000000000000000000000000000000000000000008152600401611e0090613cdc565b60405180910390fd5b42816001016002015411611e52576040517f08c379a0000000000000000000000000000000000000000000000000000000008152600401611e4990613d48565b60405180910390fd5b8060070160000160009054906101000a900473ffffffffffffffffffffffffffffffffffffffff1673ffffffffffffffffffffffffffffffffffffffff163373ffffffffffffffffffffffffffffffffffffffff1614611ee7576040517f08c379a0000000000000000000000000000000000000000000000000000000008152600401611ede90613dda565b60405180910390fd5b60008160040160020160029054906101000a900461ffff16905060005b8161ffff168161ffff1610156120035760006002600086815260200190815260200160002060008361ffff168152602001908152602001600020905060006001600087815260200190815260200160002060008360000160029054906101000a900460ff1660ff1660ff16815260200190815260200160002090508160000160039054906101000a900473ffffffffffffffffffffffffffffffffffffffff1673ffffffffffffffffffffffffffffffffffffffff166108fc82600301549081150290604051600060405180830381858888f19350505050158015611fed573d6000803e3d6000fd5b5050508080611ffb90613425565b915050611f04565b5060018260040160020160056101000a81548160ff021916908315150217905550505050565b6040518060c00160405280600060ff168152602001606081526020016060815260200160008152602001600060ff168152602001600060ff1681525090565b6040518060a00160405280600061ffff168152602001600060ff168152602001600073ffffffffffffffffffffffffffffffffffffffff16815260200160008152602001606081525090565b8280546120c09061336d565b90600052602060002090601f0160209004810192826120e25760008555612129565b82601f106120fb57805160ff1916838001178555612129565b82800160010185558215612129579182015b8281111561212857825182559160200191906001019061210d565b5b509050612136919061218e565b5090565b6040518060c00160405280600081526020016121546121ab565b81526020016121616121cc565b815260200161216e61220f565b815260200161217b61223f565b815260200161218861226a565b81525090565b5b808211156121a757600081600090555060010161218f565b5090565b60405180606001604052806060815260200160608152602001600081525090565b6040518060c001604052806000815260200160008152602001600061ffff168152602001600061ffff168152602001600060ff1681526020016000151581525090565b6040518060400160405280600073ffffffffffffffffffffffffffffffffffffffff168152602001606081525090565b6040518060800160405280606081526020016060815260200160608152602001600060ff1681525090565b604051806060016040528061227d61229d565b815260200161228a61229d565b815260200161229761229d565b81525090565b6040518060600160405280600073ffffffffffffffffffffffffffffffffffffffff168152602001600060ff168152602001606081525090565b6000604051905090565b600080fd5b600080fd5b6000819050919050565b6122fe816122eb565b811461230957600080fd5b50565b60008135905061231b816122f5565b92915050565b600060208284031215612337576123366122e1565b5b60006123458482850161230c565b91505092915050565b600081519050919050565b600082825260208201905092915050565b6000819050602082019050919050565b600060ff82169050919050565b6123908161237a565b82525050565b600081519050919050565b600082825260208201905092915050565b60005b838110156123d05780820151818401526020810190506123b5565b838111156123df576000848401525b50505050565b6000601f19601f8301169050919050565b600061240182612396565b61240b81856123a1565b935061241b8185602086016123b2565b612424816123e5565b840191505092915050565b612438816122eb565b82525050565b600060c0830160008301516124566000860182612387565b506020830151848203602086015261246e82826123f6565b9150506040830151848203604086015261248882826123f6565b915050606083015161249d606086018261242f565b5060808301516124b06080860182612387565b5060a08301516124c360a0860182612387565b508091505092915050565b60006124da838361243e565b905092915050565b6000602082019050919050565b60006124fa8261234e565b6125048185612359565b9350836020820285016125168561236a565b8060005b85811015612552578484038952815161253385826124ce565b945061253e836124e2565b925060208a0199505060018101905061251a565b50829750879550505050505092915050565b6000602082019050818103600083015261257e81846124ef565b905092915050565b600081519050919050565b600082825260208201905092915050565b6000819050602082019050919050565b600061ffff82169050919050565b6125c9816125b2565b82525050565b600073ffffffffffffffffffffffffffffffffffffffff82169050919050565b60006125fa826125cf565b9050919050565b61260a816125ef565b82525050565b600060a08301600083015161262860008601826125c0565b50602083015161263b6020860182612387565b50604083015161264e6040860182612601565b506060830151612661606086018261242f565b506080830151848203608086015261267982826123f6565b9150508091505092915050565b60006126928383612610565b905092915050565b6000602082019050919050565b60006126b282612586565b6126bc8185612591565b9350836020820285016126ce856125a2565b8060005b8581101561270a57848403895281516126eb8582612686565b94506126f68361269a565b925060208a019950506001810190506126d2565b50829750879550505050505092915050565b6000602082019050818103600083015261273681846126a7565b905092915050565b6127478161237a565b811461275257600080fd5b50565b6000813590506127648161273e565b92915050565b600080fd5b600080fd5b7f4e487b7100000000000000000000000000000000000000000000000000000000600052604160045260246000fd5b6127ac826123e5565b810181811067ffffffffffffffff821117156127cb576127ca612774565b5b80604052505050565b60006127de6122d7565b90506127ea82826127a3565b919050565b600067ffffffffffffffff82111561280a57612809612774565b5b612813826123e5565b9050602081019050919050565b82818337600083830152505050565b600061284261283d846127ef565b6127d4565b90508281526020810184848401111561285e5761285d61276f565b5b612869848285612820565b509392505050565b600082601f8301126128865761288561276a565b5b813561289684826020860161282f565b91505092915050565b6000806000606084860312156128b8576128b76122e1565b5b60006128c68682870161230c565b93505060206128d786828701612755565b925050604084013567ffffffffffffffff8111156128f8576128f76122e6565b5b61290486828701612871565b9150509250925092565b600063ffffffff82169050919050565b6129278161290e565b811461293257600080fd5b50565b6000813590506129448161291e565b92915050565b600080fd5b600080fd5b61295d816125ef565b811461296857600080fd5b50565b60008135905061297a81612954565b92915050565b6000604082840312156129965761299561294a565b5b6129a060406127d4565b905060006129b08482850161296b565b600083015250602082013567ffffffffffffffff8111156129d4576129d361294f565b5b6129e084828501612871565b60208301525092915050565b60006129f7826125cf565b9050919050565b612a07816129ec565b8114612a1257600080fd5b50565b600081359050612a24816129fe565b92915050565b600060608284031215612a4057612a3f61294a565b5b612a4a60606127d4565b90506000612a5a84828501612a15565b6000830152506020612a6e84828501612755565b602083015250604082013567ffffffffffffffff811115612a9257612a9161294f565b5b612a9e84828501612871565b60408301525092915050565b600060608284031215612ac057612abf61294a565b5b612aca60606127d4565b9050600082013567ffffffffffffffff811115612aea57612ae961294f565b5b612af684828501612a2a565b600083015250602082013567ffffffffffffffff811115612b1a57612b1961294f565b5b612b2684828501612a2a565b602083015250604082013567ffffffffffffffff811115612b4a57612b4961294f565b5b612b5684828501612a2a565b60408301525092915050565b600060808284031215612b7857612b7761294a565b5b612b8260806127d4565b9050600082013567ffffffffffffffff811115612ba257612ba161294f565b5b612bae84828501612871565b600083015250602082013567ffffffffffffffff811115612bd257612bd161294f565b5b612bde84828501612871565b602083015250604082013567ffffffffffffffff811115612c0257612c0161294f565b5b612c0e84828501612871565b6040830152506060612c2284828501612755565b60608301525092915050565b600067ffffffffffffffff821115612c4957612c48612774565b5b602082029050602081019050919050565b600080fd5b600060c08284031215612c7557612c7461294a565b5b612c7f60c06127d4565b90506000612c8f84828501612755565b600083015250602082013567ffffffffffffffff811115612cb357612cb261294f565b5b612cbf84828501612871565b602083015250604082013567ffffffffffffffff811115612ce357612ce261294f565b5b612cef84828501612871565b6040830152506060612d038482850161230c565b6060830152506080612d1784828501612755565b60808301525060a0612d2b84828501612755565b60a08301525092915050565b6000612d4a612d4584612c2e565b6127d4565b90508083825260208201905060208402830185811115612d6d57612d6c612c5a565b5b835b81811015612db457803567ffffffffffffffff811115612d9257612d9161276a565b5b808601612d9f8982612c5f565b85526020850194505050602081019050612d6f565b5050509392505050565b600082601f830112612dd357612dd261276a565b5b8135612de3848260208601612d37565b91505092915050565b600080600080600080600060e0888a031215612e0b57612e0a6122e1565b5b600088013567ffffffffffffffff811115612e2957612e286122e6565b5b612e358a828b01612871565b975050602088013567ffffffffffffffff811115612e5657612e556122e6565b5b612e628a828b01612871565b9650506040612e738a828b01612935565b955050606088013567ffffffffffffffff811115612e9457612e936122e6565b5b612ea08a828b01612980565b945050608088013567ffffffffffffffff811115612ec157612ec06122e6565b5b612ecd8a828b01612aaa565b93505060a088013567ffffffffffffffff811115612eee57612eed6122e6565b5b612efa8a828b01612b62565b92505060c088013567ffffffffffffffff811115612f1b57612f1a6122e6565b5b612f278a828b01612dbe565b91505092959891949750929550565b600081519050919050565b600082825260208201905092915050565b6000819050602082019050919050565b60006060830160008301518482036000860152612f7f82826123f6565b91505060208301518482036020860152612f9982826123f6565b9150506040830151612fae604086018261242f565b508091505092915050565b60008115159050919050565b612fce81612fb9565b82525050565b60c082016000820151612fea600085018261242f565b506020820151612ffd602085018261242f565b50604082015161301060408501826125c0565b50606082015161302360608501826125c0565b5060808201516130366080850182612387565b5060a082015161304960a0850182612fc5565b50505050565b60006040830160008301516130676000860182612601565b506020830151848203602086015261307f82826123f6565b9150508091505092915050565b600060808301600083015184820360008601526130a982826123f6565b915050602083015184820360208601526130c382826123f6565b915050604083015184820360408601526130dd82826123f6565b91505060608301516130f26060860182612387565b508091505092915050565b613106816129ec565b82525050565b600060608301600083015161312460008601826130fd565b5060208301516131376020860182612387565b506040830151848203604086015261314f82826123f6565b9150508091505092915050565b60006060830160008301518482036000860152613179828261310c565b91505060208301518482036020860152613193828261310c565b915050604083015184820360408601526131ad828261310c565b9150508091505092915050565b6000610160830160008301516131d3600086018261242f565b50602083015184820360208601526131eb8282612f62565b91505060408301516132006040860182612fd4565b506060830151848203610100860152613219828261304f565b9150506080830151848203610120860152613234828261308c565b91505060a083015184820361014086015261324f828261315c565b9150508091505092915050565b600061326883836131ba565b905092915050565b6000602082019050919050565b600061328882612f36565b6132928185612f41565b9350836020820285016132a485612f52565b8060005b858110156132e057848403895281516132c1858261325c565b94506132cc83613270565b925060208a019950506001810190506132a8565b50829750879550505050505092915050565b6000602082019050818103600083015261330c818461327d565b905092915050565b61331d816122eb565b82525050565b60006020820190506133386000830184613314565b92915050565b7f4e487b7100000000000000000000000000000000000000000000000000000000600052602260045260246000fd5b6000600282049050600182168061338557607f821691505b6020821081036133985761339761333e565b5b50919050565b7f4e487b7100000000000000000000000000000000000000000000000000000000600052603260045260246000fd5b7f4e487b7100000000000000000000000000000000000000000000000000000000600052601160045260246000fd5b60006134078261237a565b915060ff820361341a576134196133cd565b5b600182019050919050565b6000613430826125b2565b915061ffff8203613444576134436133cd565b5b600182019050919050565b600082825260208201905092915050565b7f546869732063616d706169676e206861732073746f7070656400000000000000600082015250565b600061349660198361344f565b91506134a182613460565b602082019050919050565b600060208201905081810360008301526134c581613489565b9050919050565b7f546869732063616d706169676e20697320616c7265616479206f766572000000600082015250565b6000613502601d8361344f565b915061350d826134cc565b602082019050919050565b60006020820190508181036000830152613531816134f5565b9050919050565b7f54686520626f7820494420697320696e76616c69640000000000000000000000600082015250565b600061356e60158361344f565b915061357982613538565b602082019050919050565b6000602082019050818103600083015261359d81613561565b9050919050565b7f416c6c20626f786573206f66207468697320747970652068617665206265656e60008201527f20736f6c64000000000000000000000000000000000000000000000000000000602082015250565b600061360060258361344f565b915061360b826135a4565b604082019050919050565b6000602082019050818103600083015261362f816135f3565b9050919050565b7f476976656e20616d6f756e742069732062656c6f7720626f7820707269636500600082015250565b600061366c601f8361344f565b915061367782613636565b602082019050919050565b6000602082019050818103600083015261369b8161365f565b9050919050565b60006136ad8261237a565b91506136b88361237a565b9250828210156136cb576136ca6133cd565b5b828203905092915050565b60006136e1826125b2565b91506136ec836125b2565b92508261ffff03821115613703576137026133cd565b5b828201905092915050565b6000613719826122eb565b9150613724836122eb565b9250827fffffffffffffffffffffffffffffffffffffffffffffffffffffffffffffffff03821115613759576137586133cd565b5b828201905092915050565b7f4475726174696f6e206d75737420626520686967686572207468616e20300000600082015250565b600061379a601e8361344f565b91506137a582613764565b602082019050919050565b600060208201905081810360008301526137c98161378d565b9050919050565b7f4475726174696f6e2063616e277420626520686967686572207468616e20362060008201527f7765656b73000000000000000000000000000000000000000000000000000000602082015250565b600061382c60258361344f565b9150613837826137d0565b604082019050919050565b6000602082019050818103600083015261385b8161381f565b9050919050565b7f446561646c696e65206d75737420626520696e20746865206675747572650000600082015250565b6000613898601e8361344f565b91506138a382613862565b602082019050919050565b600060208201905081810360008301526138c78161388b565b9050919050565b7f4e756d626572206f6620626f7865732063616e2774206265206869676865722060008201527f7468616e2028325e38292d310000000000000000000000000000000000000000602082015250565b600061392a602c8361344f565b9150613935826138ce565b604082019050919050565b600060208201905081810360008301526139598161391d565b9050919050565b7f5468657265206d757374206265206174206c65617374206f6e6520706965636560008201527f206f66206561636820626f780000000000000000000000000000000000000000602082015250565b60006139bc602c8361344f565b91506139c782613960565b604082019050919050565b600060208201905081810360008301526139eb816139af565b9050919050565b7f496e697469616c6c7920746f74616c20616e6420617661696c61626c65206f6660008201527f206120626f78206d75737420626520657175616c000000000000000000000000602082015250565b6000613a4e60348361344f565b9150613a59826139f2565b604082019050919050565b60006020820190508181036000830152613a7d81613a41565b9050919050565b7f5468657265206d757374206265206174206c65617374206f6e6520626f78206960008201527f6e20746f74616c00000000000000000000000000000000000000000000000000602082015250565b6000613ae060278361344f565b9150613aeb82613a84565b604082019050919050565b60006020820190508181036000830152613b0f81613ad3565b9050919050565b6000613b21826122eb565b91507fffffffffffffffffffffffffffffffffffffffffffffffffffffffffffffffff8203613b5357613b526133cd565b5b600182019050919050565b7f5468652063616d706169676e206d7573742062652066696e6973686564000000600082015250565b6000613b94601d8361344f565b9150613b9f82613b5e565b602082019050919050565b60006020820190508181036000830152613bc381613b87565b9050919050565b7f54686572652063616e277420626520616e7920626f786573206c656674000000600082015250565b6000613c00601d8361344f565b9150613c0b82613bca565b602082019050919050565b60006020820190508181036000830152613c2f81613bf3565b9050919050565b6000613c41826122eb565b9150613c4c836122eb565b9250817fffffffffffffffffffffffffffffffffffffffffffffffffffffffffffffffff0483118215151615613c8557613c846133cd565b5b828202905092915050565b7f43616d706169676e20616c72656164792073746f707065640000000000000000600082015250565b6000613cc660188361344f565b9150613cd182613c90565b602082019050919050565b60006020820190508181036000830152613cf581613cb9565b9050919050565b7f546869732063616d706169676e206973206f7665720000000000000000000000600082015250565b6000613d3260158361344f565b9150613d3d82613cfc565b602082019050919050565b60006020820190508181036000830152613d6181613d25565b9050919050565b7f4f6e6c7920746865206f776e65722063616e2073746f7020612063616d70616960008201527f676e000000000000000000000000000000000000000000000000000000000000602082015250565b6000613dc460228361344f565b9150613dcf82613d68565b604082019050919050565b60006020820190508181036000830152613df381613db7565b905091905056fea2646970667358221220c701beeae2ce522fe530cc316465e341b6844d63feb0cd82ccd58fa43404dc0764736f6c634300080d0033",
  "immutableReferences": {},
  "source": "// SPDX-License-Identifier: AGPL\npragma solidity ^0.8.13;\n\nimport \"./CrowdfundingTypes.sol\";\n\ncontract Crowdfunding {\n    // all campaigns\n    mapping(uint256 => Campaign) campaigns;\n    // Boxes of each campaign\n    mapping(uint256 => mapping(uint8 => Box)) boxes;\n    // Sold boxes of each campaign (campignId => sellId => BoxSellRef)\n    mapping(uint256 => mapping(uint256 => BoxSellRef)) soldBoxes;\n\n    uint256 numberOfCampaigns = 0;\n\n    /**\n     * Creates a new campaign\n     */\n    function createCampaign(\n        string memory _title,\n        string memory _description,\n        uint32 _duration,\n        CampaignOwner memory _campaignOwner,\n        StakeholderList memory _stakeholders,\n        CampaignAnimalData memory _animal,\n        Box[] memory _boxes\n    ) public {\n        // check crowdfunding duration\n        require(_duration > 0, \"Duration must be higher than 0\");\n        require(_duration <= 6 weeks, \"Duration can't be higher than 6 weeks\");\n\n        // create deadline by adding the duration to the current timestamp\n        uint256 current = block.timestamp;\n        uint256 deadline = current + _duration;\n\n        // validate\n        require(deadline > current, \"Deadline must be in the future\");\n\n        // add boxes to campaign\n        require(_boxes.length <= type(uint8).max, \"Number of boxes can't be higher than (2^8)-1\");\n        uint16 totalNumOfBoxes = 0;\n        for (uint8 index = 0; index < _boxes.length; index++) {\n            Box memory box = _boxes[index];\n            require(\n                box.total > 0,\n                \"There must be at least one piece of each box\"\n            );\n            require(\n                box.total == box.available,\n                \"Initially total and available of a box must be equal\"\n            );\n            totalNumOfBoxes += box.total;\n            boxes[numberOfCampaigns][box.id] = box;\n        }\n        require(totalNumOfBoxes > 0, \"There must be at least one box in total\");\n\n        Campaign storage campaign = campaigns[numberOfCampaigns];\n        campaign.id = numberOfCampaigns;\n        campaign.owner = _campaignOwner;\n        campaign.info.title = _title;\n        campaign.info.description = _description;\n        campaign.info.deadline = deadline;\n        campaign.meta.createdAt = block.timestamp;\n        campaign.meta.collectedAmount = 0;\n        campaign.meta.isStopped = false;\n        campaign.meta.totalBoxes = totalNumOfBoxes;\n        campaign.meta.boxesSold = 0;\n        campaign.meta.totalBoxTypes = uint8(_boxes.length);\n        campaign.animal = _animal;\n        campaign.stakeholders = _stakeholders;\n\n        // increase total num of campaigns\n        numberOfCampaigns++;\n    }\n\n    /**\n     * Returns the total number of campaigns\n     */\n    function getNumberOfCampaigns() public view returns (uint256) {\n        return numberOfCampaigns;\n    }\n\n    /**\n     * Returns all campaigns\n     */\n    function getCampaigns() public view returns (Campaign[] memory) {\n        Campaign[] memory allCampaigns = new Campaign[](numberOfCampaigns);\n        for (uint256 index = 0; index < numberOfCampaigns; index++) {\n            Campaign storage campaign = campaigns[index];\n            allCampaigns[index] = campaign;\n        }\n        return allCampaigns;\n    }\n\n    /**\n     * Returns all boxes of a specific campaign\n     */\n    function getBoxes(uint256 _campaignId) public view returns (Box[] memory) {\n        Campaign storage campaign = campaigns[_campaignId];\n        uint8 totalBoxTypes = campaign.meta.totalBoxTypes;\n        Box[] memory boxesOfCampaign = new Box[](totalBoxTypes);\n        for (uint8 index = 0; index < totalBoxTypes; index++) {\n            Box storage box = boxes[_campaignId][index];\n            boxesOfCampaign[index] = box;\n        }\n        return boxesOfCampaign;\n    }\n\n    /**\n     * Returns the sell reference of boxes for a specific campaign\n     */\n    function getSoldBoxes(\n        uint256 _campaignId\n    ) public view returns (BoxSellRef[] memory) {\n        Campaign storage campaign = campaigns[_campaignId];\n        uint16 boxesSold = campaign.meta.boxesSold;\n        BoxSellRef[] memory sellRefs = new BoxSellRef[](boxesSold);\n        for (uint16 index = 0; index < boxesSold; index++) {\n            BoxSellRef storage sellRef = soldBoxes[_campaignId][index];\n            sellRefs[index] = sellRef;\n        }\n        return sellRefs;\n    }\n\n    /**\n     * Removes a campaign\n     */\n    function stopCampaign(uint256 _campaignId) public {\n        Campaign storage campaign = campaigns[_campaignId];\n        require(!campaign.meta.isStopped, \"Campaign already stopped\");\n        require(\n            campaign.info.deadline > block.timestamp,\n            \"This campaign is over\"\n        );\n        require(\n            msg.sender == campaign.owner.owner,\n            \"Only the owner can stop a campaign\"\n        );\n\n        // Pay ether back\n        uint16 boxesSold = campaign.meta.boxesSold;\n        for (uint16 index = 0; index < boxesSold; index++) {\n            BoxSellRef storage sellRef = soldBoxes[_campaignId][index];\n            Box storage box = boxes[_campaignId][sellRef.boxId];\n            payable(sellRef.owner).transfer(box.price);\n        }\n\n        campaign.meta.isStopped = true;\n    }\n\n    /**\n     * Buys a box\n     */\n    function buyBox(\n        uint256 _campaignId,\n        uint8 _boxId,\n        string memory _physAddress\n    ) public payable {\n        // get campaign ref\n        Campaign storage campaign = campaigns[_campaignId];\n        // check if this is an ongoing campaign\n        require(!campaign.meta.isStopped, \"This campaign has stopped\");\n        require(\n            campaign.info.deadline > block.timestamp,\n            \"This campaign is already over\"\n        );\n\n        // check if this campaign still has available boxes for the requested kind\n        Box storage box = boxes[_campaignId][_boxId];\n        require(box.id == _boxId, \"The box ID is invalid\");\n        require(box.available > 0, \"All boxes of this type have been sold\");\n        uint256 amount = msg.value;\n        require(amount >= box.price, \"Given amount is below box price\");\n\n        // Add buyer (Don't increase boxes sold yet, we need it starting at 0)\n        uint16 sellId = campaign.meta.boxesSold;\n        BoxSellRef storage sellRef = soldBoxes[_campaignId][\n            campaign.meta.boxesSold\n        ];\n        sellRef.boxId = box.id;\n        sellRef.id = sellId;\n        sellRef.owner = msg.sender;\n        sellRef.physAddress = _physAddress;\n        sellRef.boughtAt = block.timestamp;\n\n        // Updates available boxes by one\n        box.available -= 1;\n        // Update campaign meta\n        CampaignMeta storage meta = campaign.meta;\n        meta.boxesSold += 1;\n        meta.collectedAmount += amount;\n\n        if (campaign.meta.boxesSold == campaign.meta.totalBoxes) {\n            // Mark campaign as stopped\n            campaign.meta.isStopped = true;\n            // TODO Start Supply Chain\n        }\n    }\n\n    /**\n     * Pay-out all stakeholders of the campaign\n     */\n    function payOut(uint256 _campaignId) public {\n        Campaign storage campaign = campaigns[_campaignId];\n        require(campaign.meta.isStopped, \"The campaign must be finished\");\n        require(\n            campaign.meta.boxesSold == campaign.meta.totalBoxes,\n            \"There can't be any boxes left\"\n        );\n\n        // TODO Check if supply chain has been completed\n        // e.g. require(campaign.supplyChain.isCompleted);\n\n        // Generate shares\n        uint256 farmerShare = campaign.meta.collectedAmount * campaign.stakeholders.farmer.share;\n        uint256 butcherShare = campaign.meta.collectedAmount * campaign.stakeholders.butcher.share;\n        uint256 deliveryShare = campaign.meta.collectedAmount * campaign.stakeholders.delivery.share;\n\n        // payout stakeholders\n        payable(campaign.stakeholders.farmer.owner).transfer(farmerShare);\n        payable(campaign.stakeholders.butcher.owner).transfer(butcherShare);\n        payable(campaign.stakeholders.delivery.owner).transfer(deliveryShare);\n    }\n}\n",
  "sourcePath": "/workspaces/146157_Blockchain/smart_contracts/contracts/Crowdfunding.sol",
  "compiler": {
    "name": "solc",
    "version": "0.8.13+commit.abaa5c0e.Emscripten.clang"
  },
  "schemaVersion": "3.4.14",
  "updatedAt": "2023-08-14T09:43:43.139Z",
  "networkType": "ethereum",
  "devdoc": {
    "kind": "dev",
    "methods": {},
    "version": 1
  },
  "userdoc": {
    "kind": "user",
    "methods": {
      "buyBox(uint256,uint8,string)": {
        "notice": "Buys a box"
      },
      "createCampaign(string,string,uint32,(address,string),((address,uint8,string),(address,uint8,string),(address,uint8,string)),(string,string,string,uint8),(uint8,string,string,uint256,uint8,uint8)[])": {
        "notice": "Creates a new campaign"
      },
      "getBoxes(uint256)": {
        "notice": "Returns all boxes of a specific campaign"
      },
      "getCampaigns()": {
        "notice": "Returns all campaigns"
      },
      "getNumberOfCampaigns()": {
        "notice": "Returns the total number of campaigns"
      },
      "getSoldBoxes(uint256)": {
        "notice": "Returns the sell reference of boxes for a specific campaign"
      },
      "payOut(uint256)": {
        "notice": "Pay-out all stakeholders of the campaign"
      },
      "stopCampaign(uint256)": {
        "notice": "Removes a campaign"
      }
    },
    "version": 1
  }
}