{
  "contractName": "Crowdfunding",
  "abi": [
    {
      "inputs": [
        {
          "internalType": "uint256",
          "name": "",
          "type": "uint256"
        },
        {
          "internalType": "uint256",
          "name": "",
          "type": "uint256"
        }
      ],
      "name": "availableBoxes",
      "outputs": [
        {
          "components": [
            {
              "internalType": "string",
              "name": "title",
              "type": "string"
            },
            {
              "internalType": "string",
              "name": "description",
              "type": "string"
            },
            {
              "internalType": "uint8",
              "name": "percentage",
              "type": "uint8"
            },
            {
              "internalType": "uint256",
              "name": "price",
              "type": "uint256"
            }
          ],
          "internalType": "struct Crowdfunding.Box",
          "name": "box",
          "type": "tuple"
        },
        {
          "internalType": "uint256",
          "name": "available",
          "type": "uint256"
        },
        {
          "internalType": "uint256",
          "name": "total",
          "type": "uint256"
        }
      ],
      "stateMutability": "view",
      "type": "function",
      "constant": true
    },
    {
      "inputs": [
        {
          "internalType": "uint256",
          "name": "",
          "type": "uint256"
        }
      ],
      "name": "campaigns",
      "outputs": [
        {
          "internalType": "address",
          "name": "owner",
          "type": "address"
        },
        {
          "internalType": "string",
          "name": "title",
          "type": "string"
        },
        {
          "internalType": "string",
          "name": "description",
          "type": "string"
        },
        {
          "internalType": "uint256",
          "name": "collectedAmount",
          "type": "uint256"
        },
        {
          "internalType": "uint8",
          "name": "progress",
          "type": "uint8"
        },
        {
          "internalType": "uint256",
          "name": "deadline",
          "type": "uint256"
        }
      ],
      "stateMutability": "view",
      "type": "function",
      "constant": true
    },
    {
      "inputs": [],
      "name": "numberOfCampaigns",
      "outputs": [
        {
          "internalType": "uint256",
          "name": "",
          "type": "uint256"
        }
      ],
      "stateMutability": "view",
      "type": "function",
      "constant": true
    },
    {
      "inputs": [
        {
          "internalType": "uint256",
          "name": "",
          "type": "uint256"
        },
        {
          "internalType": "uint256",
          "name": "",
          "type": "uint256"
        }
      ],
      "name": "soldBoxes",
      "outputs": [
        {
          "internalType": "address",
          "name": "buyer",
          "type": "address"
        },
        {
          "components": [
            {
              "internalType": "string",
              "name": "title",
              "type": "string"
            },
            {
              "internalType": "string",
              "name": "description",
              "type": "string"
            },
            {
              "internalType": "uint8",
              "name": "percentage",
              "type": "uint8"
            },
            {
              "internalType": "uint256",
              "name": "price",
              "type": "uint256"
            }
          ],
          "internalType": "struct Crowdfunding.Box",
          "name": "box",
          "type": "tuple"
        }
      ],
      "stateMutability": "view",
      "type": "function",
      "constant": true
    },
    {
      "inputs": [
        {
          "internalType": "address",
          "name": "_owner",
          "type": "address"
        },
        {
          "internalType": "string",
          "name": "_title",
          "type": "string"
        },
        {
          "internalType": "string",
          "name": "_description",
          "type": "string"
        },
        {
          "internalType": "uint256",
          "name": "_deadline",
          "type": "uint256"
        },
        {
          "components": [
            {
              "components": [
                {
                  "internalType": "string",
                  "name": "title",
                  "type": "string"
                },
                {
                  "internalType": "string",
                  "name": "description",
                  "type": "string"
                },
                {
                  "internalType": "uint8",
                  "name": "percentage",
                  "type": "uint8"
                },
                {
                  "internalType": "uint256",
                  "name": "price",
                  "type": "uint256"
                }
              ],
              "internalType": "struct Crowdfunding.Box",
              "name": "box",
              "type": "tuple"
            },
            {
              "internalType": "uint256",
              "name": "available",
              "type": "uint256"
            },
            {
              "internalType": "uint256",
              "name": "total",
              "type": "uint256"
            }
          ],
          "internalType": "struct Crowdfunding.BoxOffer[]",
          "name": "_boxes",
          "type": "tuple[]"
        }
      ],
      "name": "createCampaign",
      "outputs": [
        {
          "internalType": "uint256",
          "name": "",
          "type": "uint256"
        }
      ],
      "stateMutability": "nonpayable",
      "type": "function"
    },
    {
      "inputs": [
        {
          "internalType": "uint256",
          "name": "_campaignId",
          "type": "uint256"
        },
        {
          "internalType": "uint256",
          "name": "_boxId",
          "type": "uint256"
        }
      ],
      "name": "buyBox",
      "outputs": [],
      "stateMutability": "payable",
      "type": "function",
      "payable": true
    },
    {
      "inputs": [
        {
          "internalType": "uint256",
          "name": "_campaignId",
          "type": "uint256"
        }
      ],
      "name": "getCampaign",
      "outputs": [
        {
          "components": [
            {
              "internalType": "address",
              "name": "owner",
              "type": "address"
            },
            {
              "internalType": "string",
              "name": "title",
              "type": "string"
            },
            {
              "internalType": "string",
              "name": "description",
              "type": "string"
            },
            {
              "internalType": "uint256",
              "name": "collectedAmount",
              "type": "uint256"
            },
            {
              "internalType": "uint8",
              "name": "progress",
              "type": "uint8"
            },
            {
              "internalType": "uint256",
              "name": "deadline",
              "type": "uint256"
            }
          ],
          "internalType": "struct Crowdfunding.Campaign",
          "name": "",
          "type": "tuple"
        }
      ],
      "stateMutability": "view",
      "type": "function",
      "constant": true
    },
    {
      "inputs": [],
      "name": "getCampaigns",
      "outputs": [
        {
          "components": [
            {
              "internalType": "address",
              "name": "owner",
              "type": "address"
            },
            {
              "internalType": "string",
              "name": "title",
              "type": "string"
            },
            {
              "internalType": "string",
              "name": "description",
              "type": "string"
            },
            {
              "internalType": "uint256",
              "name": "collectedAmount",
              "type": "uint256"
            },
            {
              "internalType": "uint8",
              "name": "progress",
              "type": "uint8"
            },
            {
              "internalType": "uint256",
              "name": "deadline",
              "type": "uint256"
            }
          ],
          "internalType": "struct Crowdfunding.Campaign[]",
          "name": "",
          "type": "tuple[]"
        }
      ],
      "stateMutability": "view",
      "type": "function",
      "constant": true
    },
    {
      "inputs": [
        {
          "internalType": "uint256",
          "name": "_campaignId",
          "type": "uint256"
        }
      ],
      "name": "getAvailableBoxes",
      "outputs": [
        {
          "components": [
            {
              "components": [
                {
                  "internalType": "string",
                  "name": "title",
                  "type": "string"
                },
                {
                  "internalType": "string",
                  "name": "description",
                  "type": "string"
                },
                {
                  "internalType": "uint8",
                  "name": "percentage",
                  "type": "uint8"
                },
                {
                  "internalType": "uint256",
                  "name": "price",
                  "type": "uint256"
                }
              ],
              "internalType": "struct Crowdfunding.Box",
              "name": "box",
              "type": "tuple"
            },
            {
              "internalType": "uint256",
              "name": "available",
              "type": "uint256"
            },
            {
              "internalType": "uint256",
              "name": "total",
              "type": "uint256"
            }
          ],
          "internalType": "struct Crowdfunding.BoxOffer[]",
          "name": "",
          "type": "tuple[]"
        }
      ],
      "stateMutability": "view",
      "type": "function",
      "constant": true
    }
  ],
  "bytecode": "0x6080604052600060035534801561001557600080fd5b506127d2806100256000396000f3fe6080604052600436106100865760003560e01c80635598f8cc116100595780635598f8cc1461015257806359e5ec871461018f57806398224427146101ce578063a6b036331461020b578063d5b18ecc1461023657610086565b806307ca140d1461008b578063141961bc146100b65780632f6d6353146100f8578063406d382a14610136575b600080fd5b34801561009757600080fd5b506100a0610273565b6040516100ad919061163e565b60405180910390f35b3480156100c257600080fd5b506100dd60048036038101906100d89190611699565b610279565b6040516100ef969594939291906117bc565b60405180910390f35b34801561010457600080fd5b5061011f600480360381019061011a919061182b565b6103f2565b60405161012d92919061193d565b60405180910390f35b610150600480360381019061014b919061182b565b6105a8565b005b34801561015e57600080fd5b5061017960048036038101906101749190611699565b6109d2565b6040516101869190611a0c565b60405180910390f35b34801561019b57600080fd5b506101b660048036038101906101b1919061182b565b610baf565b6040516101c593929190611a2e565b60405180910390f35b3480156101da57600080fd5b506101f560048036038101906101f09190611e19565b610d4b565b604051610202919061163e565b60405180910390f35b34801561021757600080fd5b506102206110d8565b60405161022d919061203a565b60405180910390f35b34801561024257600080fd5b5061025d60048036038101906102589190611699565b611348565b60405161026a91906121d8565b60405180910390f35b60035481565b60006020528060005260406000206000915090508060000160009054906101000a900473ffffffffffffffffffffffffffffffffffffffff16908060010180546102c290612229565b80601f01602080910402602001604051908101604052809291908181526020018280546102ee90612229565b801561033b5780601f106103105761010080835404028352916020019161033b565b820191906000526020600020905b81548152906001019060200180831161031e57829003601f168201915b50505050509080600201805461035090612229565b80601f016020809104026020016040519081016040528092919081815260200182805461037c90612229565b80156103c95780601f1061039e576101008083540402835291602001916103c9565b820191906000526020600020905b8154815290600101906020018083116103ac57829003601f168201915b5050505050908060030154908060040160009054906101000a900460ff16908060050154905086565b6002602052816000526040600020818154811061040e57600080fd5b9060005260206000209060050201600091509150508060000160009054906101000a900473ffffffffffffffffffffffffffffffffffffffff16908060010160405180608001604052908160008201805461046890612229565b80601f016020809104026020016040519081016040528092919081815260200182805461049490612229565b80156104e15780601f106104b6576101008083540402835291602001916104e1565b820191906000526020600020905b8154815290600101906020018083116104c457829003601f168201915b505050505081526020016001820180546104fa90612229565b80601f016020809104026020016040519081016040528092919081815260200182805461052690612229565b80156105735780601f1061054857610100808354040283529160200191610573565b820191906000526020600020905b81548152906001019060200180831161055657829003601f168201915b505050505081526020016002820160009054906101000a900460ff1660ff1660ff168152602001600382015481525050905082565b600034905060008060008581526020019081526020016000209050428160050154111561060a576040517f08c379a0000000000000000000000000000000000000000000000000000000008152600401610601906122a6565b60405180910390fd5b6000600160008681526020019081526020016000208481548110610631576106306122c6565b5b906000526020600020906006020190506000816004015411610688576040517f08c379a000000000000000000000000000000000000000000000000000000000815260040161067f90612367565b60405180910390fd5b6000816000016040518060800160405290816000820180546106a990612229565b80601f01602080910402602001604051908101604052809291908181526020018280546106d590612229565b80156107225780601f106106f757610100808354040283529160200191610722565b820191906000526020600020905b81548152906001019060200180831161070557829003601f168201915b5050505050815260200160018201805461073b90612229565b80601f016020809104026020016040519081016040528092919081815260200182805461076790612229565b80156107b45780601f10610789576101008083540402835291602001916107b4565b820191906000526020600020905b81548152906001019060200180831161079757829003601f168201915b505050505081526020016002820160009054906101000a900460ff1660ff1660ff1681526020016003820154815250509050838160600151111561082d576040517f08c379a0000000000000000000000000000000000000000000000000000000008152600401610824906123d3565b60405180910390fd5b81600401600081548092919061084290612422565b919050555080604001518360040160008282829054906101000a900460ff1661086b919061244b565b92506101000a81548160ff021916908360ff160217905550838360030160008282546108979190612482565b925050819055506000600260008881526020019081526020016000209050600060405180604001604052803373ffffffffffffffffffffffffffffffffffffffff1681526020018481525090508181908060018154018082558091505060019003906000526020600020906005020160009091909190915060008201518160000160006101000a81548173ffffffffffffffffffffffffffffffffffffffff021916908373ffffffffffffffffffffffffffffffffffffffff160217905550602082015181600101600082015181600001908051906020019061097b929190611533565b506020820151816001019080519060200190610998929190611533565b5060408201518160020160006101000a81548160ff021916908360ff16021790555060608201518160030155505050505050505050505050565b6109da6115b9565b60008060008481526020019081526020016000209050806040518060c00160405290816000820160009054906101000a900473ffffffffffffffffffffffffffffffffffffffff1673ffffffffffffffffffffffffffffffffffffffff1673ffffffffffffffffffffffffffffffffffffffff168152602001600182018054610a6290612229565b80601f0160208091040260200160405190810160405280929190818152602001828054610a8e90612229565b8015610adb5780601f10610ab057610100808354040283529160200191610adb565b820191906000526020600020905b815481529060010190602001808311610abe57829003601f168201915b50505050508152602001600282018054610af490612229565b80601f0160208091040260200160405190810160405280929190818152602001828054610b2090612229565b8015610b6d5780601f10610b4257610100808354040283529160200191610b6d565b820191906000526020600020905b815481529060010190602001808311610b5057829003601f168201915b50505050508152602001600382015481526020016004820160009054906101000a900460ff1660ff1660ff168152602001600582015481525050915050919050565b60016020528160005260406000208181548110610bcb57600080fd5b90600052602060002090600602016000915091505080600001604051806080016040529081600082018054610bff90612229565b80601f0160208091040260200160405190810160405280929190818152602001828054610c2b90612229565b8015610c785780601f10610c4d57610100808354040283529160200191610c78565b820191906000526020600020905b815481529060010190602001808311610c5b57829003601f168201915b50505050508152602001600182018054610c9190612229565b80601f0160208091040260200160405190810160405280929190818152602001828054610cbd90612229565b8015610d0a5780601f10610cdf57610100808354040283529160200191610d0a565b820191906000526020600020905b815481529060010190602001808311610ced57829003601f168201915b505050505081526020016002820160009054906101000a900460ff1660ff1660ff168152602001600382015481525050908060040154908060050154905083565b600080600080600354815260200190815260200160002090506000600160006003548152602001908152602001600020905042826005015410610dc3576040517f08c379a0000000000000000000000000000000000000000000000000000000008152600401610dba90612524565b60405180910390fd5b6000805b8551811015610ec5576000868281518110610de557610de46122c6565b5b60200260200101519050600181602001511015610e37576040517f08c379a0000000000000000000000000000000000000000000000000000000008152600401610e2e906125b6565b60405180910390fd5b6000816000015190506000816040015160ff16118015610e5f57506064816040015160ff1611155b610e9e576040517f08c379a0000000000000000000000000000000000000000000000000000000008152600401610e959061266e565b60405180910390fd5b806040015184610eae919061244b565b935050508080610ebd9061268e565b915050610dc7565b5060648160ff1614610f0c576040517f08c379a0000000000000000000000000000000000000000000000000000000008152600401610f0390612748565b60405180910390fd5b888360000160006101000a81548173ffffffffffffffffffffffffffffffffffffffff021916908373ffffffffffffffffffffffffffffffffffffffff16021790555087836001019080519060200190610f67929190611533565b5086836002019080519060200190610f80929190611533565b506000836003018190555060008360040160006101000a81548160ff021916908360ff16021790555085836005018190555060005b85518110156110a2576000868281518110610fd357610fd26122c6565b5b6020026020010151905083819080600181540180825580915050600190039060005260206000209060060201600090919091909150600082015181600001600082015181600001908051906020019061102d929190611533565b50602082015181600101908051906020019061104a929190611533565b5060408201518160020160006101000a81548160ff021916908360ff1602179055506060820151816003015550506020820151816004015560408201518160050155505050808061109a9061268e565b915050610fb5565b50600360008154809291906110b69061268e565b919050555060016003546110ca9190612768565b935050505095945050505050565b6060600060035467ffffffffffffffff8111156110f8576110f7611aa2565b5b60405190808252806020026020018201604052801561113157816020015b61111e6115b9565b8152602001906001900390816111165790505b50905060005b6003548110156113405760008060008381526020019081526020016000209050806040518060c00160405290816000820160009054906101000a900473ffffffffffffffffffffffffffffffffffffffff1673ffffffffffffffffffffffffffffffffffffffff1673ffffffffffffffffffffffffffffffffffffffff1681526020016001820180546111c990612229565b80601f01602080910402602001604051908101604052809291908181526020018280546111f590612229565b80156112425780601f1061121757610100808354040283529160200191611242565b820191906000526020600020905b81548152906001019060200180831161122557829003601f168201915b5050505050815260200160028201805461125b90612229565b80601f016020809104026020016040519081016040528092919081815260200182805461128790612229565b80156112d45780601f106112a9576101008083540402835291602001916112d4565b820191906000526020600020905b8154815290600101906020018083116112b757829003601f168201915b50505050508152602001600382015481526020016004820160009054906101000a900460ff1660ff1660ff168152602001600582015481525050838381518110611321576113206122c6565b5b60200260200101819052505080806113389061268e565b915050611137565b508091505090565b6060600060016000848152602001908152602001600020905080805480602002602001604051908101604052809291908181526020016000905b828210156115275783829060005260206000209060060201604051806060016040529081600082016040518060800160405290816000820180546113c590612229565b80601f01602080910402602001604051908101604052809291908181526020018280546113f190612229565b801561143e5780601f106114135761010080835404028352916020019161143e565b820191906000526020600020905b81548152906001019060200180831161142157829003601f168201915b5050505050815260200160018201805461145790612229565b80601f016020809104026020016040519081016040528092919081815260200182805461148390612229565b80156114d05780601f106114a5576101008083540402835291602001916114d0565b820191906000526020600020905b8154815290600101906020018083116114b357829003601f168201915b505050505081526020016002820160009054906101000a900460ff1660ff1660ff16815260200160038201548152505081526020016004820154815260200160058201548152505081526020019060010190611382565b50505050915050919050565b82805461153f90612229565b90600052602060002090601f01602090048101928261156157600085556115a8565b82601f1061157a57805160ff19168380011785556115a8565b828001600101855582156115a8579182015b828111156115a757825182559160200191906001019061158c565b5b5090506115b59190611608565b5090565b6040518060c00160405280600073ffffffffffffffffffffffffffffffffffffffff168152602001606081526020016060815260200160008152602001600060ff168152602001600081525090565b5b80821115611621576000816000905550600101611609565b5090565b6000819050919050565b61163881611625565b82525050565b6000602082019050611653600083018461162f565b92915050565b6000604051905090565b600080fd5b600080fd5b61167681611625565b811461168157600080fd5b50565b6000813590506116938161166d565b92915050565b6000602082840312156116af576116ae611663565b5b60006116bd84828501611684565b91505092915050565b600073ffffffffffffffffffffffffffffffffffffffff82169050919050565b60006116f1826116c6565b9050919050565b611701816116e6565b82525050565b600081519050919050565b600082825260208201905092915050565b60005b83811015611741578082015181840152602081019050611726565b83811115611750576000848401525b50505050565b6000601f19601f8301169050919050565b600061177282611707565b61177c8185611712565b935061178c818560208601611723565b61179581611756565b840191505092915050565b600060ff82169050919050565b6117b6816117a0565b82525050565b600060c0820190506117d160008301896116f8565b81810360208301526117e38188611767565b905081810360408301526117f78187611767565b9050611806606083018661162f565b61181360808301856117ad565b61182060a083018461162f565b979650505050505050565b6000806040838503121561184257611841611663565b5b600061185085828601611684565b925050602061186185828601611684565b9150509250929050565b600082825260208201905092915050565b600061188782611707565b611891818561186b565b93506118a1818560208601611723565b6118aa81611756565b840191505092915050565b6118be816117a0565b82525050565b6118cd81611625565b82525050565b600060808301600083015184820360008601526118f0828261187c565b9150506020830151848203602086015261190a828261187c565b915050604083015161191f60408601826118b5565b50606083015161193260608601826118c4565b508091505092915050565b600060408201905061195260008301856116f8565b818103602083015261196481846118d3565b90509392505050565b611976816116e6565b82525050565b600060c083016000830151611994600086018261196d565b50602083015184820360208601526119ac828261187c565b915050604083015184820360408601526119c6828261187c565b91505060608301516119db60608601826118c4565b5060808301516119ee60808601826118b5565b5060a0830151611a0160a08601826118c4565b508091505092915050565b60006020820190508181036000830152611a26818461197c565b905092915050565b60006060820190508181036000830152611a4881866118d3565b9050611a57602083018561162f565b611a64604083018461162f565b949350505050565b611a75816116e6565b8114611a8057600080fd5b50565b600081359050611a9281611a6c565b92915050565b600080fd5b600080fd5b7f4e487b7100000000000000000000000000000000000000000000000000000000600052604160045260246000fd5b611ada82611756565b810181811067ffffffffffffffff82111715611af957611af8611aa2565b5b80604052505050565b6000611b0c611659565b9050611b188282611ad1565b919050565b600067ffffffffffffffff821115611b3857611b37611aa2565b5b611b4182611756565b9050602081019050919050565b82818337600083830152505050565b6000611b70611b6b84611b1d565b611b02565b905082815260208101848484011115611b8c57611b8b611a9d565b5b611b97848285611b4e565b509392505050565b600082601f830112611bb457611bb3611a98565b5b8135611bc4848260208601611b5d565b91505092915050565b600067ffffffffffffffff821115611be857611be7611aa2565b5b602082029050602081019050919050565b600080fd5b600080fd5b600080fd5b611c11816117a0565b8114611c1c57600080fd5b50565b600081359050611c2e81611c08565b92915050565b600060808284031215611c4a57611c49611bfe565b5b611c546080611b02565b9050600082013567ffffffffffffffff811115611c7457611c73611c03565b5b611c8084828501611b9f565b600083015250602082013567ffffffffffffffff811115611ca457611ca3611c03565b5b611cb084828501611b9f565b6020830152506040611cc484828501611c1f565b6040830152506060611cd884828501611684565b60608301525092915050565b600060608284031215611cfa57611cf9611bfe565b5b611d046060611b02565b9050600082013567ffffffffffffffff811115611d2457611d23611c03565b5b611d3084828501611c34565b6000830152506020611d4484828501611684565b6020830152506040611d5884828501611684565b60408301525092915050565b6000611d77611d7284611bcd565b611b02565b90508083825260208201905060208402830185811115611d9a57611d99611bf9565b5b835b81811015611de157803567ffffffffffffffff811115611dbf57611dbe611a98565b5b808601611dcc8982611ce4565b85526020850194505050602081019050611d9c565b5050509392505050565b600082601f830112611e0057611dff611a98565b5b8135611e10848260208601611d64565b91505092915050565b600080600080600060a08688031215611e3557611e34611663565b5b6000611e4388828901611a83565b955050602086013567ffffffffffffffff811115611e6457611e63611668565b5b611e7088828901611b9f565b945050604086013567ffffffffffffffff811115611e9157611e90611668565b5b611e9d88828901611b9f565b9350506060611eae88828901611684565b925050608086013567ffffffffffffffff811115611ecf57611ece611668565b5b611edb88828901611deb565b9150509295509295909350565b600081519050919050565b600082825260208201905092915050565b6000819050602082019050919050565b600060c083016000830151611f2c600086018261196d565b5060208301518482036020860152611f44828261187c565b91505060408301518482036040860152611f5e828261187c565b9150506060830151611f7360608601826118c4565b506080830151611f8660808601826118b5565b5060a0830151611f9960a08601826118c4565b508091505092915050565b6000611fb08383611f14565b905092915050565b6000602082019050919050565b6000611fd082611ee8565b611fda8185611ef3565b935083602082028501611fec85611f04565b8060005b8581101561202857848403895281516120098582611fa4565b945061201483611fb8565b925060208a01995050600181019050611ff0565b50829750879550505050505092915050565b600060208201905081810360008301526120548184611fc5565b905092915050565b600081519050919050565b600082825260208201905092915050565b6000819050602082019050919050565b600060808301600083015184820360008601526120a5828261187c565b915050602083015184820360208601526120bf828261187c565b91505060408301516120d460408601826118b5565b5060608301516120e760608601826118c4565b508091505092915050565b6000606083016000830151848203600086015261210f8282612088565b915050602083015161212460208601826118c4565b50604083015161213760408601826118c4565b508091505092915050565b600061214e83836120f2565b905092915050565b6000602082019050919050565b600061216e8261205c565b6121788185612067565b93508360208202850161218a85612078565b8060005b858110156121c657848403895281516121a78582612142565b94506121b283612156565b925060208a0199505060018101905061218e565b50829750879550505050505092915050565b600060208201905081810360008301526121f28184612163565b905092915050565b7f4e487b7100000000000000000000000000000000000000000000000000000000600052602260045260246000fd5b6000600282049050600182168061224157607f821691505b602082108103612254576122536121fa565b5b50919050565b7f546869732063616d706169676e206973206f7665720000000000000000000000600082015250565b6000612290601583611712565b915061229b8261225a565b602082019050919050565b600060208201905081810360008301526122bf81612283565b9050919050565b7f4e487b7100000000000000000000000000000000000000000000000000000000600052603260045260246000fd5b7f416c6c20626f786573206f66207468697320747970652068617665206265656e60008201527f20736f6c64000000000000000000000000000000000000000000000000000000602082015250565b6000612351602583611712565b915061235c826122f5565b604082019050919050565b6000602082019050818103600083015261238081612344565b9050919050565b7f476976656e20616d6f756e742069732062656c6f7720626f7820707269636500600082015250565b60006123bd601f83611712565b91506123c882612387565b602082019050919050565b600060208201905081810360008301526123ec816123b0565b9050919050565b7f4e487b7100000000000000000000000000000000000000000000000000000000600052601160045260246000fd5b600061242d82611625565b9150600082036124405761243f6123f3565b5b600182039050919050565b6000612456826117a0565b9150612461836117a0565b92508260ff03821115612477576124766123f3565b5b828201905092915050565b600061248d82611625565b915061249883611625565b9250827fffffffffffffffffffffffffffffffffffffffffffffffffffffffffffffffff038211156124cd576124cc6123f3565b5b828201905092915050565b7f446561646c696e65206d75737420626520696e20746865206675747572650000600082015250565b600061250e601e83611712565b9150612519826124d8565b602082019050919050565b6000602082019050818103600083015261253d81612501565b9050919050565b7f5468657265206d757374206265206174206c65617374206f6e6520626f78207460008201527f6f2073656c6c0000000000000000000000000000000000000000000000000000602082015250565b60006125a0602683611712565b91506125ab82612544565b604082019050919050565b600060208201905081810360008301526125cf81612593565b9050919050565b7f5468652070657263656e74616765206f66206120626f782063616e2774206d7560008201527f737420626520686967686572207468616e203020616e64206c6f776572206f7260208201527f20657175616c20746f2031303000000000000000000000000000000000000000604082015250565b6000612658604d83611712565b9150612663826125d6565b606082019050919050565b600060208201905081810360008301526126878161264b565b9050919050565b600061269982611625565b91507fffffffffffffffffffffffffffffffffffffffffffffffffffffffffffffffff82036126cb576126ca6123f3565b5b600182019050919050565b7f53756d206f66207468652070657263656e74616765206f6620616c6c20626f7860008201527f6573206d75737420626520657175616c20746f20313030000000000000000000602082015250565b6000612732603783611712565b915061273d826126d6565b604082019050919050565b6000602082019050818103600083015261276181612725565b9050919050565b600061277382611625565b915061277e83611625565b925082821015612791576127906123f3565b5b82820390509291505056fea2646970667358221220c103d784c6a0457527572e3a63c7b124e2a5714f10e36b2b84b5d892b1b53df464736f6c634300080d0033",
  "immutableReferences": {},
  "source": "// SPDX-License-Identifier: AGPL\npragma solidity ^0.8.13;\n\ncontract Crowdfunding {\n    struct Box {\n        /// Title of a box\n        string title;\n        /// Description of a box\n        string description;\n        /// The percentage a box adds up to the total\n        uint8 percentage;\n        /// The price of this box in eth\n        uint256 price;\n    }\n\n    struct BoxSell {\n        /// Buyer of the box\n        address buyer;\n        /// Sold box\n        Box box;\n    }\n\n    struct BoxOffer {\n        /// The box to sell\n        Box box;\n        /// Number of available boxes\n        uint256 available;\n        /// Total number of boxes\n        uint256 total;\n    }\n\n    struct Campaign {\n        /// Owner of this campaign\n        address owner;\n        /// The campaigns title\n        string title;\n        /// The campaigns description\n        string description;\n        /// Total amount collected in eth\n        uint256 collectedAmount;\n        /// Sold percentage\n        uint8 progress;\n        /// The deadline of this campaign\n        uint256 deadline;\n    }\n\n    // all campaigns\n    mapping(uint256 => Campaign) public campaigns;\n    // available boxes for specific campaigns\n    mapping(uint256 => BoxOffer[]) public availableBoxes;\n    // sold boxes for specific campaign\n    mapping(uint256 => BoxSell[]) public soldBoxes;\n\n    uint256 public numberOfCampaigns = 0;\n\n    /**\n     * Creates a new campaign\n     */\n    function createCampaign(\n        address _owner,\n        string memory _title,\n        string memory _description,\n        uint256 _deadline,\n        BoxOffer[] memory _boxes\n    ) public returns (uint256) {\n        Campaign storage campaign = campaigns[numberOfCampaigns];\n        BoxOffer[] storage _availableBoxes = availableBoxes[numberOfCampaigns];\n\n        // deadline can't be in the past\n        require(\n            campaign.deadline < block.timestamp,\n            \"Deadline must be in the future\"\n        );\n\n        // all boxes have to add up to 100\n        uint8 totalPercentage = 0;\n        for (uint256 index = 0; index < _boxes.length; index++) {\n            BoxOffer memory offer = _boxes[index];\n            require(offer.available >= 1, \"There must be at least one box to sell\");\n\n            Box memory box = offer.box;\n            // A box must add some percentage to the total\n            require(\n                box.percentage > 0 && box.percentage <= 100,\n                \"The percentage of a box can't must be higher than 0 and lower or equal to 100\"\n            );\n\n            totalPercentage += box.percentage;\n        }\n        require(\n            totalPercentage == 100,\n            \"Sum of the percentage of all boxes must be equal to 100\"\n        );\n\n        // Create campaign\n        campaign.owner = _owner;\n        campaign.title = _title;\n        campaign.description = _description;\n        campaign.collectedAmount = 0;\n        campaign.progress = 0;\n        campaign.deadline = _deadline;\n\n        // add boxes\n        for (uint256 index = 0; index < _boxes.length; index++) {\n            BoxOffer memory offer = _boxes[index];\n            _availableBoxes.push(offer);\n        }\n\n        // increase total num of campaigns\n        numberOfCampaigns++;\n\n        // return the most recent campaign index\n        return numberOfCampaigns - 1;\n    }\n\n    /**\n     * Buys a box\n     */\n    function buyBox(uint256 _campaignId, uint256 _boxId) public payable {\n        uint256 amount = msg.value;\n\n        // get desired campaign and box\n        Campaign storage campaign = campaigns[_campaignId];\n        require(campaign.deadline <= block.timestamp, \"This campaign is over\");\n        BoxOffer storage boxOffer = availableBoxes[_campaignId][_boxId];\n        require(boxOffer.available > 0, \"All boxes of this type have been sold\");\n        Box memory box = boxOffer.box;\n        require(box.price <= amount, \"Given amount is below box price\");\n\n        // Reduce available boxes by one\n        boxOffer.available--;\n        // Add to total percentage\n        campaign.progress+=box.percentage;\n        // Add total collected amount\n        campaign.collectedAmount+=amount;\n        // Add buyer\n        BoxSell[] storage _soldBoxes = soldBoxes[_campaignId];\n        BoxSell memory boxSell = BoxSell({buyer: msg.sender, box: box});\n        _soldBoxes.push(boxSell);\n\n        // TODO Check if percentage is 100%, if yes -> start chain\n    }\n\n    /**\n     * Returns a specific campaign\n     */\n    function getCampaign(uint256 _campaignId) public view returns (Campaign memory) {\n        Campaign storage campaign = campaigns[_campaignId];\n        return campaign;\n    }\n\n    /**\n     * Returns all campaigns\n     */\n    function getCampaigns() public view returns (Campaign[] memory) {\n        Campaign[] memory allCampaigns = new Campaign[](numberOfCampaigns);\n\n        for (uint256 index = 0; index < numberOfCampaigns; index++) {\n            Campaign storage campaign = campaigns[index];\n            allCampaigns[index] = campaign;\n        }\n\n        return allCampaigns;\n    }\n\n    /**\n     * Returns all available boxes for a specific campaign\n     */\n    function getAvailableBoxes(uint256 _campaignId) public view returns (BoxOffer[] memory) {\n        BoxOffer[] storage boxOffer = availableBoxes[_campaignId];\n        return boxOffer;\n    }\n\n}\n",
  "sourcePath": "/workspaces/146157_Blockchain/smart_contracts/contracts/Crowdfunding.sol",
  "compiler": {
    "name": "solc",
    "version": "0.8.13+commit.abaa5c0e.Emscripten.clang"
  },
  "schemaVersion": "3.4.14",
  "updatedAt": "2023-07-10T16:09:03.069Z",
  "networkType": "ethereum",
  "devdoc": {
    "kind": "dev",
    "methods": {},
    "version": 1
  },
  "userdoc": {
    "kind": "user",
    "methods": {
      "buyBox(uint256,uint256)": {
        "notice": "Buys a box"
      },
      "createCampaign(address,string,string,uint256,((string,string,uint8,uint256),uint256,uint256)[])": {
        "notice": "Creates a new campaign"
      },
      "getAvailableBoxes(uint256)": {
        "notice": "Returns all available boxes for a specific campaign"
      },
      "getCampaign(uint256)": {
        "notice": "Returns a specific campaign"
      },
      "getCampaigns()": {
        "notice": "Returns all campaigns"
      }
    },
    "version": 1
  }
}