{
  "contractName": "Crowdfunding",
  "abi": [
    {
      "inputs": [
        {
          "internalType": "uint256",
          "name": "",
          "type": "uint256"
        }
      ],
      "name": "campaigns",
      "outputs": [
        {
          "internalType": "uint256",
          "name": "id",
          "type": "uint256"
        },
        {
          "components": [
            {
              "internalType": "string",
              "name": "title",
              "type": "string"
            },
            {
              "internalType": "string",
              "name": "description",
              "type": "string"
            },
            {
              "internalType": "uint256",
              "name": "deadline",
              "type": "uint256"
            }
          ],
          "internalType": "struct CampaignInfo",
          "name": "info",
          "type": "tuple"
        },
        {
          "components": [
            {
              "internalType": "uint256",
              "name": "collectedAmount",
              "type": "uint256"
            },
            {
              "internalType": "uint256",
              "name": "createdAt",
              "type": "uint256"
            },
            {
              "internalType": "uint256",
              "name": "totalBoxes",
              "type": "uint256"
            },
            {
              "internalType": "uint256",
              "name": "boxesSold",
              "type": "uint256"
            },
            {
              "internalType": "uint256",
              "name": "totalBoxTypes",
              "type": "uint256"
            },
            {
              "internalType": "bool",
              "name": "isStopped",
              "type": "bool"
            }
          ],
          "internalType": "struct CampaignMeta",
          "name": "meta",
          "type": "tuple"
        },
        {
          "components": [
            {
              "internalType": "address",
              "name": "owner",
              "type": "address"
            },
            {
              "internalType": "string",
              "name": "ownerPublicKey",
              "type": "string"
            }
          ],
          "internalType": "struct CampaignOwner",
          "name": "owner",
          "type": "tuple"
        },
        {
          "components": [
            {
              "internalType": "string",
              "name": "earTag",
              "type": "string"
            },
            {
              "internalType": "string",
              "name": "name",
              "type": "string"
            },
            {
              "internalType": "string",
              "name": "farm",
              "type": "string"
            },
            {
              "internalType": "uint8",
              "name": "age",
              "type": "uint8"
            }
          ],
          "internalType": "struct CampaignAnimalData",
          "name": "animal",
          "type": "tuple"
        },
        {
          "components": [
            {
              "components": [
                {
                  "internalType": "address payable",
                  "name": "owner",
                  "type": "address"
                },
                {
                  "internalType": "uint8",
                  "name": "share",
                  "type": "uint8"
                },
                {
                  "internalType": "string",
                  "name": "info",
                  "type": "string"
                }
              ],
              "internalType": "struct Stakeholder",
              "name": "farmer",
              "type": "tuple"
            },
            {
              "components": [
                {
                  "internalType": "address payable",
                  "name": "owner",
                  "type": "address"
                },
                {
                  "internalType": "uint8",
                  "name": "share",
                  "type": "uint8"
                },
                {
                  "internalType": "string",
                  "name": "info",
                  "type": "string"
                }
              ],
              "internalType": "struct Stakeholder",
              "name": "butcher",
              "type": "tuple"
            },
            {
              "components": [
                {
                  "internalType": "address payable",
                  "name": "owner",
                  "type": "address"
                },
                {
                  "internalType": "uint8",
                  "name": "share",
                  "type": "uint8"
                },
                {
                  "internalType": "string",
                  "name": "info",
                  "type": "string"
                }
              ],
              "internalType": "struct Stakeholder",
              "name": "delivery",
              "type": "tuple"
            }
          ],
          "internalType": "struct StakeholderList",
          "name": "stakeholders",
          "type": "tuple"
        }
      ],
      "stateMutability": "view",
      "type": "function"
    },
    {
      "inputs": [],
      "name": "numberOfCampaigns",
      "outputs": [
        {
          "internalType": "uint256",
          "name": "",
          "type": "uint256"
        }
      ],
      "stateMutability": "view",
      "type": "function"
    },
    {
      "inputs": [
        {
          "internalType": "string",
          "name": "_title",
          "type": "string"
        },
        {
          "internalType": "string",
          "name": "_description",
          "type": "string"
        },
        {
          "internalType": "uint32",
          "name": "_duration",
          "type": "uint32"
        },
        {
          "components": [
            {
              "internalType": "address",
              "name": "owner",
              "type": "address"
            },
            {
              "internalType": "string",
              "name": "ownerPublicKey",
              "type": "string"
            }
          ],
          "internalType": "struct CampaignOwner",
          "name": "_campaignOwner",
          "type": "tuple"
        },
        {
          "components": [
            {
              "components": [
                {
                  "internalType": "address payable",
                  "name": "owner",
                  "type": "address"
                },
                {
                  "internalType": "uint8",
                  "name": "share",
                  "type": "uint8"
                },
                {
                  "internalType": "string",
                  "name": "info",
                  "type": "string"
                }
              ],
              "internalType": "struct Stakeholder",
              "name": "farmer",
              "type": "tuple"
            },
            {
              "components": [
                {
                  "internalType": "address payable",
                  "name": "owner",
                  "type": "address"
                },
                {
                  "internalType": "uint8",
                  "name": "share",
                  "type": "uint8"
                },
                {
                  "internalType": "string",
                  "name": "info",
                  "type": "string"
                }
              ],
              "internalType": "struct Stakeholder",
              "name": "butcher",
              "type": "tuple"
            },
            {
              "components": [
                {
                  "internalType": "address payable",
                  "name": "owner",
                  "type": "address"
                },
                {
                  "internalType": "uint8",
                  "name": "share",
                  "type": "uint8"
                },
                {
                  "internalType": "string",
                  "name": "info",
                  "type": "string"
                }
              ],
              "internalType": "struct Stakeholder",
              "name": "delivery",
              "type": "tuple"
            }
          ],
          "internalType": "struct StakeholderList",
          "name": "_stakeholders",
          "type": "tuple"
        },
        {
          "components": [
            {
              "internalType": "string",
              "name": "earTag",
              "type": "string"
            },
            {
              "internalType": "string",
              "name": "name",
              "type": "string"
            },
            {
              "internalType": "string",
              "name": "farm",
              "type": "string"
            },
            {
              "internalType": "uint8",
              "name": "age",
              "type": "uint8"
            }
          ],
          "internalType": "struct CampaignAnimalData",
          "name": "_animal",
          "type": "tuple"
        },
        {
          "components": [
            {
              "internalType": "uint256",
              "name": "id",
              "type": "uint256"
            },
            {
              "internalType": "string",
              "name": "title",
              "type": "string"
            },
            {
              "internalType": "string",
              "name": "description",
              "type": "string"
            },
            {
              "internalType": "uint256",
              "name": "price",
              "type": "uint256"
            },
            {
              "internalType": "uint32",
              "name": "total",
              "type": "uint32"
            },
            {
              "internalType": "uint32",
              "name": "available",
              "type": "uint32"
            }
          ],
          "internalType": "struct Box[]",
          "name": "_boxes",
          "type": "tuple[]"
        }
      ],
      "name": "createCampaign",
      "outputs": [
        {
          "internalType": "uint256",
          "name": "",
          "type": "uint256"
        }
      ],
      "stateMutability": "nonpayable",
      "type": "function"
    },
    {
      "inputs": [],
      "name": "getNumberOfCampaigns",
      "outputs": [
        {
          "internalType": "uint256",
          "name": "",
          "type": "uint256"
        }
      ],
      "stateMutability": "view",
      "type": "function"
    },
    {
      "inputs": [],
      "name": "getCampaigns",
      "outputs": [
        {
          "components": [
            {
              "internalType": "uint256",
              "name": "id",
              "type": "uint256"
            },
            {
              "components": [
                {
                  "internalType": "string",
                  "name": "title",
                  "type": "string"
                },
                {
                  "internalType": "string",
                  "name": "description",
                  "type": "string"
                },
                {
                  "internalType": "uint256",
                  "name": "deadline",
                  "type": "uint256"
                }
              ],
              "internalType": "struct CampaignInfo",
              "name": "info",
              "type": "tuple"
            },
            {
              "components": [
                {
                  "internalType": "uint256",
                  "name": "collectedAmount",
                  "type": "uint256"
                },
                {
                  "internalType": "uint256",
                  "name": "createdAt",
                  "type": "uint256"
                },
                {
                  "internalType": "uint256",
                  "name": "totalBoxes",
                  "type": "uint256"
                },
                {
                  "internalType": "uint256",
                  "name": "boxesSold",
                  "type": "uint256"
                },
                {
                  "internalType": "uint256",
                  "name": "totalBoxTypes",
                  "type": "uint256"
                },
                {
                  "internalType": "bool",
                  "name": "isStopped",
                  "type": "bool"
                }
              ],
              "internalType": "struct CampaignMeta",
              "name": "meta",
              "type": "tuple"
            },
            {
              "components": [
                {
                  "internalType": "address",
                  "name": "owner",
                  "type": "address"
                },
                {
                  "internalType": "string",
                  "name": "ownerPublicKey",
                  "type": "string"
                }
              ],
              "internalType": "struct CampaignOwner",
              "name": "owner",
              "type": "tuple"
            },
            {
              "components": [
                {
                  "internalType": "string",
                  "name": "earTag",
                  "type": "string"
                },
                {
                  "internalType": "string",
                  "name": "name",
                  "type": "string"
                },
                {
                  "internalType": "string",
                  "name": "farm",
                  "type": "string"
                },
                {
                  "internalType": "uint8",
                  "name": "age",
                  "type": "uint8"
                }
              ],
              "internalType": "struct CampaignAnimalData",
              "name": "animal",
              "type": "tuple"
            },
            {
              "components": [
                {
                  "components": [
                    {
                      "internalType": "address payable",
                      "name": "owner",
                      "type": "address"
                    },
                    {
                      "internalType": "uint8",
                      "name": "share",
                      "type": "uint8"
                    },
                    {
                      "internalType": "string",
                      "name": "info",
                      "type": "string"
                    }
                  ],
                  "internalType": "struct Stakeholder",
                  "name": "farmer",
                  "type": "tuple"
                },
                {
                  "components": [
                    {
                      "internalType": "address payable",
                      "name": "owner",
                      "type": "address"
                    },
                    {
                      "internalType": "uint8",
                      "name": "share",
                      "type": "uint8"
                    },
                    {
                      "internalType": "string",
                      "name": "info",
                      "type": "string"
                    }
                  ],
                  "internalType": "struct Stakeholder",
                  "name": "butcher",
                  "type": "tuple"
                },
                {
                  "components": [
                    {
                      "internalType": "address payable",
                      "name": "owner",
                      "type": "address"
                    },
                    {
                      "internalType": "uint8",
                      "name": "share",
                      "type": "uint8"
                    },
                    {
                      "internalType": "string",
                      "name": "info",
                      "type": "string"
                    }
                  ],
                  "internalType": "struct Stakeholder",
                  "name": "delivery",
                  "type": "tuple"
                }
              ],
              "internalType": "struct StakeholderList",
              "name": "stakeholders",
              "type": "tuple"
            }
          ],
          "internalType": "struct Campaign[]",
          "name": "",
          "type": "tuple[]"
        }
      ],
      "stateMutability": "view",
      "type": "function"
    },
    {
      "inputs": [
        {
          "internalType": "uint256",
          "name": "_campaignId",
          "type": "uint256"
        }
      ],
      "name": "getBoxes",
      "outputs": [
        {
          "components": [
            {
              "internalType": "uint256",
              "name": "id",
              "type": "uint256"
            },
            {
              "internalType": "string",
              "name": "title",
              "type": "string"
            },
            {
              "internalType": "string",
              "name": "description",
              "type": "string"
            },
            {
              "internalType": "uint256",
              "name": "price",
              "type": "uint256"
            },
            {
              "internalType": "uint32",
              "name": "total",
              "type": "uint32"
            },
            {
              "internalType": "uint32",
              "name": "available",
              "type": "uint32"
            }
          ],
          "internalType": "struct Box[]",
          "name": "",
          "type": "tuple[]"
        }
      ],
      "stateMutability": "view",
      "type": "function"
    },
    {
      "inputs": [
        {
          "internalType": "uint256",
          "name": "_campaignId",
          "type": "uint256"
        }
      ],
      "name": "getSoldBoxes",
      "outputs": [
        {
          "components": [
            {
              "internalType": "uint256",
              "name": "id",
              "type": "uint256"
            },
            {
              "internalType": "uint256",
              "name": "boxId",
              "type": "uint256"
            },
            {
              "internalType": "address",
              "name": "owner",
              "type": "address"
            },
            {
              "internalType": "uint256",
              "name": "boughtAt",
              "type": "uint256"
            },
            {
              "internalType": "string",
              "name": "physAddress",
              "type": "string"
            }
          ],
          "internalType": "struct BoxSellRef[]",
          "name": "",
          "type": "tuple[]"
        }
      ],
      "stateMutability": "view",
      "type": "function"
    },
    {
      "inputs": [
        {
          "internalType": "uint256",
          "name": "_campaignId",
          "type": "uint256"
        }
      ],
      "name": "stopCampaign",
      "outputs": [
        {
          "internalType": "bool",
          "name": "",
          "type": "bool"
        }
      ],
      "stateMutability": "nonpayable",
      "type": "function"
    },
    {
      "inputs": [
        {
          "internalType": "uint256",
          "name": "_campaignId",
          "type": "uint256"
        },
        {
          "internalType": "uint256",
          "name": "_boxId",
          "type": "uint256"
        },
        {
          "internalType": "string",
          "name": "_physAddress",
          "type": "string"
        }
      ],
      "name": "buyBox",
      "outputs": [],
      "stateMutability": "payable",
      "type": "function"
    },
    {
      "inputs": [
        {
          "internalType": "uint256",
          "name": "_campaignId",
          "type": "uint256"
        }
      ],
      "name": "payOut",
      "outputs": [],
      "stateMutability": "nonpayable",
      "type": "function"
    }
  ],
  "bytecode": "0x6080604052600060035534801561001557600080fd5b5061453c806100256000396000f3fe6080604052600436106100915760003560e01c80639102007e116100595780639102007e14610199578063a6b03633146101d6578063da333ca614610201578063e4aafc2c1461022a578063ec6c82161461025557610091565b806307ca140d14610096578063141961bc146100c15780633267f8ab1461010357806332e75749146101405780636e8ae0351461017d575b600080fd5b3480156100a257600080fd5b506100ab610292565b6040516100b8919061286a565b60405180910390f35b3480156100cd57600080fd5b506100e860048036038101906100e391906128c5565b610298565b6040516100fa96959493929190612c61565b60405180910390f35b34801561010f57600080fd5b5061012a600480360381019061012591906128c5565b610a87565b6040516101379190612e53565b60405180910390f35b34801561014c57600080fd5b50610167600480360381019061016291906128c5565b610d04565b6040516101749190612fad565b60405180910390f35b61019760048036038101906101929190613104565b610f03565b005b3480156101a557600080fd5b506101c060048036038101906101bb919061365b565b611246565b6040516101cd919061286a565b60405180910390f35b3480156101e257600080fd5b506101eb6118d9565b6040516101f89190613ae7565b60405180910390f35b34801561020d57600080fd5b50610228600480360381019061022391906128c5565b61218d565b005b34801561023657600080fd5b5061023f612434565b60405161024c919061286a565b60405180910390f35b34801561026157600080fd5b5061027c600480360381019061027791906128c5565b61243e565b6040516102899190613b18565b60405180910390f35b60035481565b6000602052806000526040600020600091509050806000015490806001016040518060600160405290816000820180546102d190613b62565b80601f01602080910402602001604051908101604052809291908181526020018280546102fd90613b62565b801561034a5780601f1061031f5761010080835404028352916020019161034a565b820191906000526020600020905b81548152906001019060200180831161032d57829003601f168201915b5050505050815260200160018201805461036390613b62565b80601f016020809104026020016040519081016040528092919081815260200182805461038f90613b62565b80156103dc5780601f106103b1576101008083540402835291602001916103dc565b820191906000526020600020905b8154815290600101906020018083116103bf57829003601f168201915b5050505050815260200160028201548152505090806004016040518060c001604052908160008201548152602001600182015481526020016002820154815260200160038201548152602001600482015481526020016005820160009054906101000a900460ff1615151515815250509080600a016040518060400160405290816000820160009054906101000a900473ffffffffffffffffffffffffffffffffffffffff1673ffffffffffffffffffffffffffffffffffffffff1673ffffffffffffffffffffffffffffffffffffffff1681526020016001820180546104c290613b62565b80601f01602080910402602001604051908101604052809291908181526020018280546104ee90613b62565b801561053b5780601f106105105761010080835404028352916020019161053b565b820191906000526020600020905b81548152906001019060200180831161051e57829003601f168201915b5050505050815250509080600c0160405180608001604052908160008201805461056490613b62565b80601f016020809104026020016040519081016040528092919081815260200182805461059090613b62565b80156105dd5780601f106105b2576101008083540402835291602001916105dd565b820191906000526020600020905b8154815290600101906020018083116105c057829003601f168201915b505050505081526020016001820180546105f690613b62565b80601f016020809104026020016040519081016040528092919081815260200182805461062290613b62565b801561066f5780601f106106445761010080835404028352916020019161066f565b820191906000526020600020905b81548152906001019060200180831161065257829003601f168201915b5050505050815260200160028201805461068890613b62565b80601f01602080910402602001604051908101604052809291908181526020018280546106b490613b62565b80156107015780601f106106d657610100808354040283529160200191610701565b820191906000526020600020905b8154815290600101906020018083116106e457829003601f168201915b505050505081526020016003820160009054906101000a900460ff1660ff1660ff16815250509080601001604051806060016040529081600082016040518060600160405290816000820160009054906101000a900473ffffffffffffffffffffffffffffffffffffffff1673ffffffffffffffffffffffffffffffffffffffff1673ffffffffffffffffffffffffffffffffffffffff1681526020016000820160149054906101000a900460ff1660ff1660ff1681526020016001820180546107ca90613b62565b80601f01602080910402602001604051908101604052809291908181526020018280546107f690613b62565b80156108435780601f1061081857610100808354040283529160200191610843565b820191906000526020600020905b81548152906001019060200180831161082657829003601f168201915b5050505050815250508152602001600282016040518060600160405290816000820160009054906101000a900473ffffffffffffffffffffffffffffffffffffffff1673ffffffffffffffffffffffffffffffffffffffff1673ffffffffffffffffffffffffffffffffffffffff1681526020016000820160149054906101000a900460ff1660ff1660ff1681526020016001820180546108e390613b62565b80601f016020809104026020016040519081016040528092919081815260200182805461090f90613b62565b801561095c5780601f106109315761010080835404028352916020019161095c565b820191906000526020600020905b81548152906001019060200180831161093f57829003601f168201915b5050505050815250508152602001600482016040518060600160405290816000820160009054906101000a900473ffffffffffffffffffffffffffffffffffffffff1673ffffffffffffffffffffffffffffffffffffffff1673ffffffffffffffffffffffffffffffffffffffff1681526020016000820160149054906101000a900460ff1660ff1660ff1681526020016001820180546109fc90613b62565b80601f0160208091040260200160405190810160405280929190818152602001828054610a2890613b62565b8015610a755780601f10610a4a57610100808354040283529160200191610a75565b820191906000526020600020905b815481529060010190602001808311610a5857829003601f168201915b50505050508152505081525050905086565b60606000806000848152602001908152602001600020905060008160040160040154905060008167ffffffffffffffff811115610ac757610ac6612fd9565b5b604051908082528060200260200182016040528015610b0057816020015b610aed6125b2565b815260200190600190039081610ae55790505b50905060005b82811015610cf85760006001600088815260200190815260200160002060008381526020019081526020016000209050806040518060c001604052908160008201548152602001600182018054610b5c90613b62565b80601f0160208091040260200160405190810160405280929190818152602001828054610b8890613b62565b8015610bd55780601f10610baa57610100808354040283529160200191610bd5565b820191906000526020600020905b815481529060010190602001808311610bb857829003601f168201915b50505050508152602001600282018054610bee90613b62565b80601f0160208091040260200160405190810160405280929190818152602001828054610c1a90613b62565b8015610c675780601f10610c3c57610100808354040283529160200191610c67565b820191906000526020600020905b815481529060010190602001808311610c4a57829003601f168201915b50505050508152602001600382015481526020016004820160009054906101000a900463ffffffff1663ffffffff1663ffffffff1681526020016004820160049054906101000a900463ffffffff1663ffffffff1663ffffffff1681525050838381518110610cd957610cd8613b93565b5b6020026020010181905250508080610cf090613bf1565b915050610b06565b50809350505050919050565b60606000806000848152602001908152602001600020905060008160040160030154905060008167ffffffffffffffff811115610d4457610d43612fd9565b5b604051908082528060200260200182016040528015610d7d57816020015b610d6a6125f4565b815260200190600190039081610d625790505b50905060005b82811015610ef75760006002600088815260200190815260200160002060008381526020019081526020016000209050806040518060a001604052908160008201548152602001600182015481526020016002820160009054906101000a900473ffffffffffffffffffffffffffffffffffffffff1673ffffffffffffffffffffffffffffffffffffffff1673ffffffffffffffffffffffffffffffffffffffff16815260200160038201548152602001600482018054610e4390613b62565b80601f0160208091040260200160405190810160405280929190818152602001828054610e6f90613b62565b8015610ebc5780601f10610e9157610100808354040283529160200191610ebc565b820191906000526020600020905b815481529060010190602001808311610e9f57829003601f168201915b505050505081525050838381518110610ed857610ed7613b93565b5b6020026020010181905250508080610eef90613bf1565b915050610d83565b50809350505050919050565b600080600085815260200190815260200160002090508060040160050160009054906101000a900460ff1615610f6e576040517f08c379a0000000000000000000000000000000000000000000000000000000008152600401610f6590613c96565b60405180910390fd5b42816001016002015411610fb7576040517f08c379a0000000000000000000000000000000000000000000000000000000008152600401610fae90613d02565b60405180910390fd5b6000600160008681526020019081526020016000206000858152602001908152602001600020905083816000015414611025576040517f08c379a000000000000000000000000000000000000000000000000000000000815260040161101c90613d6e565b60405180910390fd5b60008160040160049054906101000a900463ffffffff1663ffffffff1611611082576040517f08c379a000000000000000000000000000000000000000000000000000000000815260040161107990613e00565b60405180910390fd5b600034905081600301548110156110ce576040517f08c379a00000000000000000000000000000000000000000000000000000000081526004016110c590613e6c565b60405180910390fd5b600083600401600301549050600060026000898152602001908152602001600020600086600401600301548152602001908152602001600020905083600001548160010181905550818160000181905550338160020160006101000a81548173ffffffffffffffffffffffffffffffffffffffff021916908373ffffffffffffffffffffffffffffffffffffffff1602179055508581600401908051906020019061117a929190612639565b5042816003018190555060018460040160048282829054906101000a900463ffffffff166111a89190613e8c565b92506101000a81548163ffffffff021916908363ffffffff160217905550600085600401905060018160030160008282546111e39190613ec0565b92505081905550838160000160008282546111fe9190613ec0565b92505081905550856004016002015486600401600301540361123b5760018660040160050160006101000a81548160ff0219169083151502179055505b505050505050505050565b6000808663ffffffff1611611290576040517f08c379a000000000000000000000000000000000000000000000000000000000815260040161128790613f62565b60405180910390fd5b62375f008663ffffffff1611156112dc576040517f08c379a00000000000000000000000000000000000000000000000000000000081526004016112d390613ff4565b60405180910390fd5b600042905060008763ffffffff16826112f59190613ec0565b9050818111611339576040517f08c379a000000000000000000000000000000000000000000000000000000000815260040161133090614060565b60405180910390fd5b6000805b85518110156114fe57600086828151811061135b5761135a613b93565b5b602002602001015190506000816080015163ffffffff16116113b2576040517f08c379a00000000000000000000000000000000000000000000000000000000081526004016113a9906140f2565b60405180910390fd5b8060a0015163ffffffff16816080015163ffffffff1614611408576040517f08c379a00000000000000000000000000000000000000000000000000000000081526004016113ff90614184565b60405180910390fd5b806080015163ffffffff168361141e9190613ec0565b925080600160006003548152602001908152602001600020600083600001518152602001908152602001600020600082015181600001556020820151816001019080519060200190611471929190612639565b50604082015181600201908051906020019061148e929190612639565b506060820151816003015560808201518160040160006101000a81548163ffffffff021916908363ffffffff16021790555060a08201518160040160046101000a81548163ffffffff021916908363ffffffff1602179055509050505080806114f690613bf1565b91505061133d565b5060008111611542576040517f08c379a000000000000000000000000000000000000000000000000000000000815260040161153990614216565b60405180910390fd5b6000806000600354815260200190815260200160002090508881600a0160008201518160000160006101000a81548173ffffffffffffffffffffffffffffffffffffffff021916908373ffffffffffffffffffffffffffffffffffffffff16021790555060208201518160010190805190602001906115c2929190612639565b509050508b8160010160000190805190602001906115e1929190612639565b508a8160010160010190805190602001906115fd929190612639565b508281600101600201819055504281600401600101819055506000816004016000018190555060008160040160050160006101000a81548160ff02191690831515021790555081816004016002018190555060008160040160030181905550855181600401600401819055508681600c01600082015181600001908051906020019061168a929190612639565b5060208201518160010190805190602001906116a7929190612639565b5060408201518160020190805190602001906116c4929190612639565b5060608201518160030160006101000a81548160ff021916908360ff160217905550905050878160100160008201518160000160008201518160000160006101000a81548173ffffffffffffffffffffffffffffffffffffffff021916908373ffffffffffffffffffffffffffffffffffffffff16021790555060208201518160000160146101000a81548160ff021916908360ff160217905550604082015181600101908051906020019061177b929190612639565b50505060208201518160020160008201518160000160006101000a81548173ffffffffffffffffffffffffffffffffffffffff021916908373ffffffffffffffffffffffffffffffffffffffff16021790555060208201518160000160146101000a81548160ff021916908360ff160217905550604082015181600101908051906020019061180b929190612639565b50505060408201518160040160008201518160000160006101000a81548173ffffffffffffffffffffffffffffffffffffffff021916908373ffffffffffffffffffffffffffffffffffffffff16021790555060208201518160000160146101000a81548160ff021916908360ff160217905550604082015181600101908051906020019061189b929190612639565b505050905050600360008154809291906118b490613bf1565b919050555060016003546118c89190614236565b945050505050979650505050505050565b6060600060035467ffffffffffffffff8111156118f9576118f8612fd9565b5b60405190808252806020026020018201604052801561193257816020015b61191f6126bf565b8152602001906001900390816119175790505b50905060005b6003548110156121855760008060008381526020019081526020016000209050806040518060c0016040529081600082015481526020016001820160405180606001604052908160008201805461198e90613b62565b80601f01602080910402602001604051908101604052809291908181526020018280546119ba90613b62565b8015611a075780601f106119dc57610100808354040283529160200191611a07565b820191906000526020600020905b8154815290600101906020018083116119ea57829003601f168201915b50505050508152602001600182018054611a2090613b62565b80601f0160208091040260200160405190810160405280929190818152602001828054611a4c90613b62565b8015611a995780601f10611a6e57610100808354040283529160200191611a99565b820191906000526020600020905b815481529060010190602001808311611a7c57829003601f168201915b505050505081526020016002820154815250508152602001600482016040518060c001604052908160008201548152602001600182015481526020016002820154815260200160038201548152602001600482015481526020016005820160009054906101000a900460ff1615151515815250508152602001600a82016040518060400160405290816000820160009054906101000a900473ffffffffffffffffffffffffffffffffffffffff1673ffffffffffffffffffffffffffffffffffffffff1673ffffffffffffffffffffffffffffffffffffffff168152602001600182018054611b8790613b62565b80601f0160208091040260200160405190810160405280929190818152602001828054611bb390613b62565b8015611c005780601f10611bd557610100808354040283529160200191611c00565b820191906000526020600020905b815481529060010190602001808311611be357829003601f168201915b5050505050815250508152602001600c8201604051806080016040529081600082018054611c2d90613b62565b80601f0160208091040260200160405190810160405280929190818152602001828054611c5990613b62565b8015611ca65780601f10611c7b57610100808354040283529160200191611ca6565b820191906000526020600020905b815481529060010190602001808311611c8957829003601f168201915b50505050508152602001600182018054611cbf90613b62565b80601f0160208091040260200160405190810160405280929190818152602001828054611ceb90613b62565b8015611d385780601f10611d0d57610100808354040283529160200191611d38565b820191906000526020600020905b815481529060010190602001808311611d1b57829003601f168201915b50505050508152602001600282018054611d5190613b62565b80601f0160208091040260200160405190810160405280929190818152602001828054611d7d90613b62565b8015611dca5780601f10611d9f57610100808354040283529160200191611dca565b820191906000526020600020905b815481529060010190602001808311611dad57829003601f168201915b505050505081526020016003820160009054906101000a900460ff1660ff1660ff1681525050815260200160108201604051806060016040529081600082016040518060600160405290816000820160009054906101000a900473ffffffffffffffffffffffffffffffffffffffff1673ffffffffffffffffffffffffffffffffffffffff1673ffffffffffffffffffffffffffffffffffffffff1681526020016000820160149054906101000a900460ff1660ff1660ff168152602001600182018054611e9790613b62565b80601f0160208091040260200160405190810160405280929190818152602001828054611ec390613b62565b8015611f105780601f10611ee557610100808354040283529160200191611f10565b820191906000526020600020905b815481529060010190602001808311611ef357829003601f168201915b5050505050815250508152602001600282016040518060600160405290816000820160009054906101000a900473ffffffffffffffffffffffffffffffffffffffff1673ffffffffffffffffffffffffffffffffffffffff1673ffffffffffffffffffffffffffffffffffffffff1681526020016000820160149054906101000a900460ff1660ff1660ff168152602001600182018054611fb090613b62565b80601f0160208091040260200160405190810160405280929190818152602001828054611fdc90613b62565b80156120295780601f10611ffe57610100808354040283529160200191612029565b820191906000526020600020905b81548152906001019060200180831161200c57829003601f168201915b5050505050815250508152602001600482016040518060600160405290816000820160009054906101000a900473ffffffffffffffffffffffffffffffffffffffff1673ffffffffffffffffffffffffffffffffffffffff1673ffffffffffffffffffffffffffffffffffffffff1681526020016000820160149054906101000a900460ff1660ff1660ff1681526020016001820180546120c990613b62565b80601f01602080910402602001604051908101604052809291908181526020018280546120f590613b62565b80156121425780601f1061211757610100808354040283529160200191612142565b820191906000526020600020905b81548152906001019060200180831161212557829003601f168201915b505050505081525050815250508152505083838151811061216657612165613b93565b5b602002602001018190525050808061217d90613bf1565b915050611938565b508091505090565b600080600083815260200190815260200160002090508060040160050160009054906101000a900460ff166121f7576040517f08c379a00000000000000000000000000000000000000000000000000000000081526004016121ee906142b6565b60405180910390fd5b8060040160020154816004016003015414612247576040517f08c379a000000000000000000000000000000000000000000000000000000000815260040161223e90614322565b60405180910390fd5b60008160100160000160000160149054906101000a900460ff1660ff1682600401600001546122769190614342565b905060008260100160020160000160149054906101000a900460ff1660ff1683600401600001546122a79190614342565b905060008360100160040160000160149054906101000a900460ff1660ff1684600401600001546122d89190614342565b90508360100160000160000160009054906101000a900473ffffffffffffffffffffffffffffffffffffffff1673ffffffffffffffffffffffffffffffffffffffff166108fc849081150290604051600060405180830381858888f1935050505015801561234a573d6000803e3d6000fd5b508360100160020160000160009054906101000a900473ffffffffffffffffffffffffffffffffffffffff1673ffffffffffffffffffffffffffffffffffffffff166108fc839081150290604051600060405180830381858888f193505050501580156123bb573d6000803e3d6000fd5b508360100160040160000160009054906101000a900473ffffffffffffffffffffffffffffffffffffffff1673ffffffffffffffffffffffffffffffffffffffff166108fc829081150290604051600060405180830381858888f1935050505015801561242c573d6000803e3d6000fd5b505050505050565b6000600354905090565b60008060008084815260200190815260200160002090508060040160050160009054906101000a900460ff16156124aa576040517f08c379a00000000000000000000000000000000000000000000000000000000081526004016124a1906143e8565b60405180910390fd5b428160010160020154116124f3576040517f08c379a00000000000000000000000000000000000000000000000000000000081526004016124ea90614454565b60405180910390fd5b80600a0160000160009054906101000a900473ffffffffffffffffffffffffffffffffffffffff1673ffffffffffffffffffffffffffffffffffffffff163373ffffffffffffffffffffffffffffffffffffffff1614612588576040517f08c379a000000000000000000000000000000000000000000000000000000000815260040161257f906144e6565b60405180910390fd5b60018160040160050160006101000a81548160ff0219169083151502179055506001915050919050565b6040518060c0016040528060008152602001606081526020016060815260200160008152602001600063ffffffff168152602001600063ffffffff1681525090565b6040518060a001604052806000815260200160008152602001600073ffffffffffffffffffffffffffffffffffffffff16815260200160008152602001606081525090565b82805461264590613b62565b90600052602060002090601f01602090048101928261266757600085556126ae565b82601f1061268057805160ff19168380011785556126ae565b828001600101855582156126ae579182015b828111156126ad578251825591602001919060010190612692565b5b5090506126bb9190612713565b5090565b6040518060c00160405280600081526020016126d9612730565b81526020016126e6612751565b81526020016126f3612789565b81526020016127006127b9565b815260200161270d6127e4565b81525090565b5b8082111561272c576000816000905550600101612714565b5090565b60405180606001604052806060815260200160608152602001600081525090565b6040518060c0016040528060008152602001600081526020016000815260200160008152602001600081526020016000151581525090565b6040518060400160405280600073ffffffffffffffffffffffffffffffffffffffff168152602001606081525090565b6040518060800160405280606081526020016060815260200160608152602001600060ff1681525090565b60405180606001604052806127f7612817565b8152602001612804612817565b8152602001612811612817565b81525090565b6040518060600160405280600073ffffffffffffffffffffffffffffffffffffffff168152602001600060ff168152602001606081525090565b6000819050919050565b61286481612851565b82525050565b600060208201905061287f600083018461285b565b92915050565b6000604051905090565b600080fd5b600080fd5b6128a281612851565b81146128ad57600080fd5b50565b6000813590506128bf81612899565b92915050565b6000602082840312156128db576128da61288f565b5b60006128e9848285016128b0565b91505092915050565b600081519050919050565b600082825260208201905092915050565b60005b8381101561292c578082015181840152602081019050612911565b8381111561293b576000848401525b50505050565b6000601f19601f8301169050919050565b600061295d826128f2565b61296781856128fd565b935061297781856020860161290e565b61298081612941565b840191505092915050565b61299481612851565b82525050565b600060608301600083015184820360008601526129b78282612952565b915050602083015184820360208601526129d18282612952565b91505060408301516129e6604086018261298b565b508091505092915050565b60008115159050919050565b612a06816129f1565b82525050565b60c082016000820151612a22600085018261298b565b506020820151612a35602085018261298b565b506040820151612a48604085018261298b565b506060820151612a5b606085018261298b565b506080820151612a6e608085018261298b565b5060a0820151612a8160a08501826129fd565b50505050565b600073ffffffffffffffffffffffffffffffffffffffff82169050919050565b6000612ab282612a87565b9050919050565b612ac281612aa7565b82525050565b6000604083016000830151612ae06000860182612ab9565b5060208301518482036020860152612af88282612952565b9150508091505092915050565b600060ff82169050919050565b612b1b81612b05565b82525050565b60006080830160008301518482036000860152612b3e8282612952565b91505060208301518482036020860152612b588282612952565b91505060408301518482036040860152612b728282612952565b9150506060830151612b876060860182612b12565b508091505092915050565b6000612b9d82612a87565b9050919050565b612bad81612b92565b82525050565b6000606083016000830151612bcb6000860182612ba4565b506020830151612bde6020860182612b12565b5060408301518482036040860152612bf68282612952565b9150508091505092915050565b60006060830160008301518482036000860152612c208282612bb3565b91505060208301518482036020860152612c3a8282612bb3565b91505060408301518482036040860152612c548282612bb3565b9150508091505092915050565b600061016082019050612c77600083018961285b565b8181036020830152612c89818861299a565b9050612c986040830187612a0c565b818103610100830152612cab8186612ac8565b9050818103610120830152612cc08185612b21565b9050818103610140830152612cd58184612c03565b9050979650505050505050565b600081519050919050565b600082825260208201905092915050565b6000819050602082019050919050565b600063ffffffff82169050919050565b612d2781612d0e565b82525050565b600060c083016000830151612d45600086018261298b565b5060208301518482036020860152612d5d8282612952565b91505060408301518482036040860152612d778282612952565b9150506060830151612d8c606086018261298b565b506080830151612d9f6080860182612d1e565b5060a0830151612db260a0860182612d1e565b508091505092915050565b6000612dc98383612d2d565b905092915050565b6000602082019050919050565b6000612de982612ce2565b612df38185612ced565b935083602082028501612e0585612cfe565b8060005b85811015612e415784840389528151612e228582612dbd565b9450612e2d83612dd1565b925060208a01995050600181019050612e09565b50829750879550505050505092915050565b60006020820190508181036000830152612e6d8184612dde565b905092915050565b600081519050919050565b600082825260208201905092915050565b6000819050602082019050919050565b600060a083016000830151612eb9600086018261298b565b506020830151612ecc602086018261298b565b506040830151612edf6040860182612ab9565b506060830151612ef2606086018261298b565b5060808301518482036080860152612f0a8282612952565b9150508091505092915050565b6000612f238383612ea1565b905092915050565b6000602082019050919050565b6000612f4382612e75565b612f4d8185612e80565b935083602082028501612f5f85612e91565b8060005b85811015612f9b5784840389528151612f7c8582612f17565b9450612f8783612f2b565b925060208a01995050600181019050612f63565b50829750879550505050505092915050565b60006020820190508181036000830152612fc78184612f38565b905092915050565b600080fd5b600080fd5b7f4e487b7100000000000000000000000000000000000000000000000000000000600052604160045260246000fd5b61301182612941565b810181811067ffffffffffffffff821117156130305761302f612fd9565b5b80604052505050565b6000613043612885565b905061304f8282613008565b919050565b600067ffffffffffffffff82111561306f5761306e612fd9565b5b61307882612941565b9050602081019050919050565b82818337600083830152505050565b60006130a76130a284613054565b613039565b9050828152602081018484840111156130c3576130c2612fd4565b5b6130ce848285613085565b509392505050565b600082601f8301126130eb576130ea612fcf565b5b81356130fb848260208601613094565b91505092915050565b60008060006060848603121561311d5761311c61288f565b5b600061312b868287016128b0565b935050602061313c868287016128b0565b925050604084013567ffffffffffffffff81111561315d5761315c612894565b5b613169868287016130d6565b9150509250925092565b61317c81612d0e565b811461318757600080fd5b50565b60008135905061319981613173565b92915050565b600080fd5b600080fd5b6131b281612aa7565b81146131bd57600080fd5b50565b6000813590506131cf816131a9565b92915050565b6000604082840312156131eb576131ea61319f565b5b6131f56040613039565b90506000613205848285016131c0565b600083015250602082013567ffffffffffffffff811115613229576132286131a4565b5b613235848285016130d6565b60208301525092915050565b61324a81612b92565b811461325557600080fd5b50565b60008135905061326781613241565b92915050565b61327681612b05565b811461328157600080fd5b50565b6000813590506132938161326d565b92915050565b6000606082840312156132af576132ae61319f565b5b6132b96060613039565b905060006132c984828501613258565b60008301525060206132dd84828501613284565b602083015250604082013567ffffffffffffffff811115613301576133006131a4565b5b61330d848285016130d6565b60408301525092915050565b60006060828403121561332f5761332e61319f565b5b6133396060613039565b9050600082013567ffffffffffffffff811115613359576133586131a4565b5b61336584828501613299565b600083015250602082013567ffffffffffffffff811115613389576133886131a4565b5b61339584828501613299565b602083015250604082013567ffffffffffffffff8111156133b9576133b86131a4565b5b6133c584828501613299565b60408301525092915050565b6000608082840312156133e7576133e661319f565b5b6133f16080613039565b9050600082013567ffffffffffffffff811115613411576134106131a4565b5b61341d848285016130d6565b600083015250602082013567ffffffffffffffff811115613441576134406131a4565b5b61344d848285016130d6565b602083015250604082013567ffffffffffffffff811115613471576134706131a4565b5b61347d848285016130d6565b604083015250606061349184828501613284565b60608301525092915050565b600067ffffffffffffffff8211156134b8576134b7612fd9565b5b602082029050602081019050919050565b600080fd5b600060c082840312156134e4576134e361319f565b5b6134ee60c0613039565b905060006134fe848285016128b0565b600083015250602082013567ffffffffffffffff811115613522576135216131a4565b5b61352e848285016130d6565b602083015250604082013567ffffffffffffffff811115613552576135516131a4565b5b61355e848285016130d6565b6040830152506060613572848285016128b0565b60608301525060806135868482850161318a565b60808301525060a061359a8482850161318a565b60a08301525092915050565b60006135b96135b48461349d565b613039565b905080838252602082019050602084028301858111156135dc576135db6134c9565b5b835b8181101561362357803567ffffffffffffffff81111561360157613600612fcf565b5b80860161360e89826134ce565b855260208501945050506020810190506135de565b5050509392505050565b600082601f83011261364257613641612fcf565b5b81356136528482602086016135a6565b91505092915050565b600080600080600080600060e0888a03121561367a5761367961288f565b5b600088013567ffffffffffffffff81111561369857613697612894565b5b6136a48a828b016130d6565b975050602088013567ffffffffffffffff8111156136c5576136c4612894565b5b6136d18a828b016130d6565b96505060406136e28a828b0161318a565b955050606088013567ffffffffffffffff81111561370357613702612894565b5b61370f8a828b016131d5565b945050608088013567ffffffffffffffff8111156137305761372f612894565b5b61373c8a828b01613319565b93505060a088013567ffffffffffffffff81111561375d5761375c612894565b5b6137698a828b016133d1565b92505060c088013567ffffffffffffffff81111561378a57613789612894565b5b6137968a828b0161362d565b91505092959891949750929550565b600081519050919050565b600082825260208201905092915050565b6000819050602082019050919050565b600060608301600083015184820360008601526137ee8282612952565b915050602083015184820360208601526138088282612952565b915050604083015161381d604086018261298b565b508091505092915050565b60c08201600082015161383e600085018261298b565b506020820151613851602085018261298b565b506040820151613864604085018261298b565b506060820151613877606085018261298b565b50608082015161388a608085018261298b565b5060a082015161389d60a08501826129fd565b50505050565b60006040830160008301516138bb6000860182612ab9565b50602083015184820360208601526138d38282612952565b9150508091505092915050565b600060808301600083015184820360008601526138fd8282612952565b915050602083015184820360208601526139178282612952565b915050604083015184820360408601526139318282612952565b91505060608301516139466060860182612b12565b508091505092915050565b6000606083016000830151848203600086015261396e8282612bb3565b915050602083015184820360208601526139888282612bb3565b915050604083015184820360408601526139a28282612bb3565b9150508091505092915050565b6000610160830160008301516139c8600086018261298b565b50602083015184820360208601526139e082826137d1565b91505060408301516139f56040860182613828565b506060830151848203610100860152613a0e82826138a3565b9150506080830151848203610120860152613a2982826138e0565b91505060a0830151848203610140860152613a448282613951565b9150508091505092915050565b6000613a5d83836139af565b905092915050565b6000602082019050919050565b6000613a7d826137a5565b613a8781856137b0565b935083602082028501613a99856137c1565b8060005b85811015613ad55784840389528151613ab68582613a51565b9450613ac183613a65565b925060208a01995050600181019050613a9d565b50829750879550505050505092915050565b60006020820190508181036000830152613b018184613a72565b905092915050565b613b12816129f1565b82525050565b6000602082019050613b2d6000830184613b09565b92915050565b7f4e487b7100000000000000000000000000000000000000000000000000000000600052602260045260246000fd5b60006002820490506001821680613b7a57607f821691505b602082108103613b8d57613b8c613b33565b5b50919050565b7f4e487b7100000000000000000000000000000000000000000000000000000000600052603260045260246000fd5b7f4e487b7100000000000000000000000000000000000000000000000000000000600052601160045260246000fd5b6000613bfc82612851565b91507fffffffffffffffffffffffffffffffffffffffffffffffffffffffffffffffff8203613c2e57613c2d613bc2565b5b600182019050919050565b600082825260208201905092915050565b7f546869732063616d706169676e206861732073746f7070656400000000000000600082015250565b6000613c80601983613c39565b9150613c8b82613c4a565b602082019050919050565b60006020820190508181036000830152613caf81613c73565b9050919050565b7f546869732063616d706169676e20697320616c7265616479206f766572000000600082015250565b6000613cec601d83613c39565b9150613cf782613cb6565b602082019050919050565b60006020820190508181036000830152613d1b81613cdf565b9050919050565b7f54686520626f7820494420697320696e76616c69640000000000000000000000600082015250565b6000613d58601583613c39565b9150613d6382613d22565b602082019050919050565b60006020820190508181036000830152613d8781613d4b565b9050919050565b7f416c6c20626f786573206f66207468697320747970652068617665206265656e60008201527f20736f6c64000000000000000000000000000000000000000000000000000000602082015250565b6000613dea602583613c39565b9150613df582613d8e565b604082019050919050565b60006020820190508181036000830152613e1981613ddd565b9050919050565b7f476976656e20616d6f756e742069732062656c6f7720626f7820707269636500600082015250565b6000613e56601f83613c39565b9150613e6182613e20565b602082019050919050565b60006020820190508181036000830152613e8581613e49565b9050919050565b6000613e9782612d0e565b9150613ea283612d0e565b925082821015613eb557613eb4613bc2565b5b828203905092915050565b6000613ecb82612851565b9150613ed683612851565b9250827fffffffffffffffffffffffffffffffffffffffffffffffffffffffffffffffff03821115613f0b57613f0a613bc2565b5b828201905092915050565b7f4475726174696f6e206d75737420626520686967686572207468616e20300000600082015250565b6000613f4c601e83613c39565b9150613f5782613f16565b602082019050919050565b60006020820190508181036000830152613f7b81613f3f565b9050919050565b7f4475726174696f6e2063616e277420626520686967686572207468616e20362060008201527f7765656b73000000000000000000000000000000000000000000000000000000602082015250565b6000613fde602583613c39565b9150613fe982613f82565b604082019050919050565b6000602082019050818103600083015261400d81613fd1565b9050919050565b7f446561646c696e65206d75737420626520696e20746865206675747572650000600082015250565b600061404a601e83613c39565b915061405582614014565b602082019050919050565b600060208201905081810360008301526140798161403d565b9050919050565b7f5468657265206d757374206265206174206c65617374206f6e6520706965636560008201527f206f66206561636820626f780000000000000000000000000000000000000000602082015250565b60006140dc602c83613c39565b91506140e782614080565b604082019050919050565b6000602082019050818103600083015261410b816140cf565b9050919050565b7f496e697469616c6c7920746f74616c20616e6420617661696c61626c65206d7560008201527f737420626520657175616c000000000000000000000000000000000000000000602082015250565b600061416e602b83613c39565b915061417982614112565b604082019050919050565b6000602082019050818103600083015261419d81614161565b9050919050565b7f5468657265206d757374206265206174206c65617374206f6e6520626f78206960008201527f6e20746f74616c00000000000000000000000000000000000000000000000000602082015250565b6000614200602783613c39565b915061420b826141a4565b604082019050919050565b6000602082019050818103600083015261422f816141f3565b9050919050565b600061424182612851565b915061424c83612851565b92508282101561425f5761425e613bc2565b5b828203905092915050565b7f5468652063616d706169676e206d7573742062652066696e6973686564000000600082015250565b60006142a0601d83613c39565b91506142ab8261426a565b602082019050919050565b600060208201905081810360008301526142cf81614293565b9050919050565b7f54686572652063616e277420626520616e7920626f786573206c656674000000600082015250565b600061430c601d83613c39565b9150614317826142d6565b602082019050919050565b6000602082019050818103600083015261433b816142ff565b9050919050565b600061434d82612851565b915061435883612851565b9250817fffffffffffffffffffffffffffffffffffffffffffffffffffffffffffffffff048311821515161561439157614390613bc2565b5b828202905092915050565b7f43616d706169676e20616c72656164792073746f707065640000000000000000600082015250565b60006143d2601883613c39565b91506143dd8261439c565b602082019050919050565b60006020820190508181036000830152614401816143c5565b9050919050565b7f546869732063616d706169676e206973206f7665720000000000000000000000600082015250565b600061443e601583613c39565b915061444982614408565b602082019050919050565b6000602082019050818103600083015261446d81614431565b9050919050565b7f4f6e6c7920746865206f776e65722063616e2073746f7020612063616d70616960008201527f676e000000000000000000000000000000000000000000000000000000000000602082015250565b60006144d0602283613c39565b91506144db82614474565b604082019050919050565b600060208201905081810360008301526144ff816144c3565b905091905056fea2646970667358221220fcd35648c63eb1ba662abe40aed86f9215f2b51b3572192b2ec6685d0dba022064736f6c634300080d0033",
  "immutableReferences": {},
  "source": "// SPDX-License-Identifier: AGPL\npragma solidity ^0.8.13;\n\nimport \"./Types.sol\";\n\ncontract Crowdfunding {\n    // all campaigns\n    mapping(uint256 => Campaign) public campaigns;\n    // Boxes of each campaign\n    mapping(uint256 => mapping(uint256 => Box)) boxes;\n    // Sold boxes of each campaign (campignId => sellId => BoxSellRef)\n    mapping(uint256 => mapping(uint256 => BoxSellRef)) soldBoxes;\n\n    uint256 public numberOfCampaigns = 0;\n\n    /**\n     * Creates a new campaign\n     */\n    function createCampaign(\n        string memory _title,\n        string memory _description,\n        uint32 _duration,\n        CampaignOwner memory _campaignOwner,\n        StakeholderList memory _stakeholders,\n        CampaignAnimalData memory _animal,\n        Box[] memory _boxes\n    ) public returns (uint256) {\n        // check crowdfunding duration\n        require(_duration > 0, \"Duration must be higher than 0\");\n        require(_duration <= 6 weeks, \"Duration can't be higher than 6 weeks\");\n\n        // create deadline by adding the duration to the current timestamp\n        uint256 current = block.timestamp;\n        uint256 deadline = current + _duration;\n\n        // validate\n        require(deadline > current, \"Deadline must be in the future\");\n\n        // add boxes to campaign\n        uint256 totalNumOfBoxes = 0;\n        for (uint256 index = 0; index < _boxes.length; index++) {\n            Box memory box = _boxes[index];\n            require(\n                box.total > 0,\n                \"There must be at least one piece of each box\"\n            );\n            require(\n                box.total == box.available,\n                \"Initially total and available must be equal\"\n            );\n            totalNumOfBoxes += box.total;\n            boxes[numberOfCampaigns][box.id] = box;\n        }\n        require(totalNumOfBoxes > 0, \"There must be at least one box in total\");\n\n        Campaign storage campaign = campaigns[numberOfCampaigns];\n        campaign.owner = _campaignOwner;\n        campaign.info.title = _title;\n        campaign.info.description = _description;\n        campaign.info.deadline = deadline;\n        campaign.meta.createdAt = block.timestamp;\n        campaign.meta.collectedAmount = 0;\n        campaign.meta.isStopped = false;\n        campaign.meta.totalBoxes = totalNumOfBoxes;\n        campaign.meta.boxesSold = 0;\n        campaign.meta.totalBoxTypes = _boxes.length;\n        campaign.animal = _animal;\n        campaign.stakeholders = _stakeholders;\n\n        // increase total num of campaigns\n        numberOfCampaigns++;\n\n        // return the most recent campaign index\n        return numberOfCampaigns - 1;\n    }\n\n    /**\n     * Returns the total number of campaigns\n     */\n    function getNumberOfCampaigns() public view returns (uint256) {\n        return numberOfCampaigns;\n    }\n\n    /**\n     * Returns all campaigns\n     */\n    function getCampaigns() public view returns (Campaign[] memory) {\n        Campaign[] memory allCampaigns = new Campaign[](numberOfCampaigns);\n        for (uint256 index = 0; index < numberOfCampaigns; index++) {\n            Campaign storage campaign = campaigns[index];\n            allCampaigns[index] = campaign;\n        }\n        return allCampaigns;\n    }\n\n    /**\n     * Returns all boxes of a specific campaign\n     */\n    function getBoxes(uint256 _campaignId) public view returns (Box[] memory) {\n        Campaign storage campaign = campaigns[_campaignId];\n        uint256 totalBoxTypes = campaign.meta.totalBoxTypes;\n        Box[] memory boxesOfCampaign = new Box[](totalBoxTypes);\n        for (uint256 index = 0; index < totalBoxTypes; index++) {\n            Box storage box = boxes[_campaignId][index];\n            boxesOfCampaign[index] = box;\n        }\n        return boxesOfCampaign;\n    }\n\n    /**\n     * Returns the sell reference of boxes for a specific campaign\n     */\n    function getSoldBoxes(\n        uint256 _campaignId\n    ) public view returns (BoxSellRef[] memory) {\n        Campaign storage campaign = campaigns[_campaignId];\n        uint256 boxesSold = campaign.meta.boxesSold;\n        BoxSellRef[] memory sellRefs = new BoxSellRef[](boxesSold);\n        for (uint256 index = 0; index < boxesSold; index++) {\n            BoxSellRef storage sellRef = soldBoxes[_campaignId][index];\n            sellRefs[index] = sellRef;\n        }\n        return sellRefs;\n    }\n\n    /**\n     * Removes a campaign\n     */\n    function stopCampaign(uint256 _campaignId) public returns (bool) {\n        Campaign storage campaign = campaigns[_campaignId];\n        require(!campaign.meta.isStopped, \"Campaign already stopped\");\n        require(\n            campaign.info.deadline > block.timestamp,\n            \"This campaign is over\"\n        );\n        require(\n            msg.sender == campaign.owner.owner,\n            \"Only the owner can stop a campaign\"\n        );\n\n        campaign.meta.isStopped = true;\n\n        return true;\n    }\n\n    /**\n     * Buys a box\n     */\n    function buyBox(\n        uint256 _campaignId,\n        uint256 _boxId,\n        string memory _physAddress\n    ) public payable {\n        // get campaign ref\n        Campaign storage campaign = campaigns[_campaignId];\n        // check if this is an ongoing campaign\n        require(!campaign.meta.isStopped, \"This campaign has stopped\");\n        require(\n            campaign.info.deadline > block.timestamp,\n            \"This campaign is already over\"\n        );\n\n        // check if this campaign still has available boxes for the requested kind\n        Box storage box = boxes[_campaignId][_boxId];\n        require(box.id == _boxId, \"The box ID is invalid\");\n        require(box.available > 0, \"All boxes of this type have been sold\");\n        uint256 amount = msg.value;\n        require(amount >= box.price, \"Given amount is below box price\");\n\n        // Add buyer (Don't increase boxes sold yet, we need it starting at 0)\n        uint256 sellId = campaign.meta.boxesSold;\n        BoxSellRef storage sellRef = soldBoxes[_campaignId][\n            campaign.meta.boxesSold\n        ];\n        sellRef.boxId = box.id;\n        sellRef.id = sellId;\n        sellRef.owner = msg.sender;\n        sellRef.physAddress = _physAddress;\n        sellRef.boughtAt = block.timestamp;\n\n        // Updates available boxes by one\n        box.available -= 1;\n        // Update campaign meta\n        CampaignMeta storage meta = campaign.meta;\n        meta.boxesSold += 1;\n        meta.collectedAmount += amount;\n\n        if (campaign.meta.boxesSold == campaign.meta.totalBoxes) {\n            // Mark campaign as stopped\n            campaign.meta.isStopped = true;\n            // TODO Start Supply Chain\n        }\n    }\n\n    /**\n     * Pay-out all stakeholders of the campaign\n     */\n    function payOut(uint256 _campaignId) public {\n        Campaign storage campaign = campaigns[_campaignId];\n        require(campaign.meta.isStopped, \"The campaign must be finished\");\n        require(\n            campaign.meta.boxesSold == campaign.meta.totalBoxes,\n            \"There can't be any boxes left\"\n        );\n\n        // TODO Check if supply chain has been completed\n        // e.g. require(campaign.supplyChain.isCompleted);\n\n        // Generate shares\n        uint256 farmerShare = campaign.meta.collectedAmount * campaign.stakeholders.farmer.share;\n        uint256 butcherShare = campaign.meta.collectedAmount * campaign.stakeholders.butcher.share;\n        uint256 deliveryShare = campaign.meta.collectedAmount * campaign.stakeholders.delivery.share;\n\n        // payout stakeholders\n        payable(campaign.stakeholders.farmer.owner).transfer(farmerShare);\n        payable(campaign.stakeholders.butcher.owner).transfer(butcherShare);\n        payable(campaign.stakeholders.delivery.owner).transfer(deliveryShare);\n    }\n}\n",
  "sourcePath": "/workspaces/146157_Blockchain/smart_contracts/contracts/Crowdfunding.sol",
  "compiler": {
    "name": "solc",
    "version": "0.8.13+commit.abaa5c0e.Emscripten.clang"
  },
  "schemaVersion": "3.4.14",
  "updatedAt": "2023-08-06T19:56:20.177Z",
  "devdoc": {
    "kind": "dev",
    "methods": {},
    "version": 1
  },
  "userdoc": {
    "kind": "user",
    "methods": {
      "buyBox(uint256,uint256,string)": {
        "notice": "Buys a box"
      },
      "createCampaign(string,string,uint32,(address,string),((address,uint8,string),(address,uint8,string),(address,uint8,string)),(string,string,string,uint8),(uint256,string,string,uint256,uint32,uint32)[])": {
        "notice": "Creates a new campaign"
      },
      "getBoxes(uint256)": {
        "notice": "Returns all boxes of a specific campaign"
      },
      "getCampaigns()": {
        "notice": "Returns all campaigns"
      },
      "getNumberOfCampaigns()": {
        "notice": "Returns the total number of campaigns"
      },
      "getSoldBoxes(uint256)": {
        "notice": "Returns the sell reference of boxes for a specific campaign"
      },
      "payOut(uint256)": {
        "notice": "Pay-out all stakeholders of the campaign"
      },
      "stopCampaign(uint256)": {
        "notice": "Removes a campaign"
      }
    },
    "version": 1
  }
}