{
  "contractName": "Crowdfunding",
  "abi": [
    {
      "inputs": [
        {
          "internalType": "address",
          "name": "_supplychainAddress",
          "type": "address"
        }
      ],
      "stateMutability": "nonpayable",
      "type": "constructor"
    },
    {
      "inputs": [
        {
          "internalType": "uint256",
          "name": "",
          "type": "uint256"
        }
      ],
      "name": "campaigns",
      "outputs": [
        {
          "internalType": "uint256",
          "name": "id",
          "type": "uint256"
        },
        {
          "components": [
            {
              "internalType": "string",
              "name": "title",
              "type": "string"
            },
            {
              "internalType": "string",
              "name": "description",
              "type": "string"
            },
            {
              "internalType": "uint256",
              "name": "deadline",
              "type": "uint256"
            }
          ],
          "internalType": "struct CampaignInfo",
          "name": "info",
          "type": "tuple"
        },
        {
          "components": [
            {
              "internalType": "uint256",
              "name": "collectedAmount",
              "type": "uint256"
            },
            {
              "internalType": "uint256",
              "name": "createdAt",
              "type": "uint256"
            },
            {
              "internalType": "uint256",
              "name": "totalBoxes",
              "type": "uint256"
            },
            {
              "internalType": "uint256",
              "name": "boxesSold",
              "type": "uint256"
            },
            {
              "internalType": "uint256",
              "name": "totalBoxTypes",
              "type": "uint256"
            },
            {
              "internalType": "bool",
              "name": "isStopped",
              "type": "bool"
            }
          ],
          "internalType": "struct CampaignMeta",
          "name": "meta",
          "type": "tuple"
        },
        {
          "components": [
            {
              "internalType": "address",
              "name": "owner",
              "type": "address"
            },
            {
              "internalType": "string",
              "name": "ownerPublicKey",
              "type": "string"
            }
          ],
          "internalType": "struct CampaignOwner",
          "name": "owner",
          "type": "tuple"
        },
        {
          "components": [
            {
              "internalType": "string",
              "name": "earTag",
              "type": "string"
            },
            {
              "internalType": "string",
              "name": "name",
              "type": "string"
            },
            {
              "internalType": "string",
              "name": "farm",
              "type": "string"
            },
            {
              "internalType": "uint8",
              "name": "age",
              "type": "uint8"
            }
          ],
          "internalType": "struct CampaignAnimalData",
          "name": "animal",
          "type": "tuple"
        },
        {
          "components": [
            {
              "components": [
                {
                  "internalType": "address payable",
                  "name": "owner",
                  "type": "address"
                },
                {
                  "internalType": "uint8",
                  "name": "share",
                  "type": "uint8"
                },
                {
                  "internalType": "string",
                  "name": "info",
                  "type": "string"
                }
              ],
              "internalType": "struct Stakeholder",
              "name": "farmer",
              "type": "tuple"
            },
            {
              "components": [
                {
                  "internalType": "address payable",
                  "name": "owner",
                  "type": "address"
                },
                {
                  "internalType": "uint8",
                  "name": "share",
                  "type": "uint8"
                },
                {
                  "internalType": "string",
                  "name": "info",
                  "type": "string"
                }
              ],
              "internalType": "struct Stakeholder",
              "name": "butcher",
              "type": "tuple"
            },
            {
              "components": [
                {
                  "internalType": "address payable",
                  "name": "owner",
                  "type": "address"
                },
                {
                  "internalType": "uint8",
                  "name": "share",
                  "type": "uint8"
                },
                {
                  "internalType": "string",
                  "name": "info",
                  "type": "string"
                }
              ],
              "internalType": "struct Stakeholder",
              "name": "delivery",
              "type": "tuple"
            }
          ],
          "internalType": "struct StakeholderList",
          "name": "stakeholders",
          "type": "tuple"
        }
      ],
      "stateMutability": "view",
      "type": "function",
      "constant": true
    },
    {
      "inputs": [],
      "name": "numberOfCampaigns",
      "outputs": [
        {
          "internalType": "uint256",
          "name": "",
          "type": "uint256"
        }
      ],
      "stateMutability": "view",
      "type": "function",
      "constant": true
    },
    {
      "inputs": [],
      "name": "supplychainAddress",
      "outputs": [
        {
          "internalType": "address",
          "name": "",
          "type": "address"
        }
      ],
      "stateMutability": "view",
      "type": "function",
      "constant": true
    },
    {
      "inputs": [
        {
          "internalType": "string",
          "name": "_title",
          "type": "string"
        },
        {
          "internalType": "string",
          "name": "_description",
          "type": "string"
        },
        {
          "internalType": "uint32",
          "name": "_duration",
          "type": "uint32"
        },
        {
          "components": [
            {
              "internalType": "address",
              "name": "owner",
              "type": "address"
            },
            {
              "internalType": "string",
              "name": "ownerPublicKey",
              "type": "string"
            }
          ],
          "internalType": "struct CampaignOwner",
          "name": "_campaignOwner",
          "type": "tuple"
        },
        {
          "components": [
            {
              "components": [
                {
                  "internalType": "address payable",
                  "name": "owner",
                  "type": "address"
                },
                {
                  "internalType": "uint8",
                  "name": "share",
                  "type": "uint8"
                },
                {
                  "internalType": "string",
                  "name": "info",
                  "type": "string"
                }
              ],
              "internalType": "struct Stakeholder",
              "name": "farmer",
              "type": "tuple"
            },
            {
              "components": [
                {
                  "internalType": "address payable",
                  "name": "owner",
                  "type": "address"
                },
                {
                  "internalType": "uint8",
                  "name": "share",
                  "type": "uint8"
                },
                {
                  "internalType": "string",
                  "name": "info",
                  "type": "string"
                }
              ],
              "internalType": "struct Stakeholder",
              "name": "butcher",
              "type": "tuple"
            },
            {
              "components": [
                {
                  "internalType": "address payable",
                  "name": "owner",
                  "type": "address"
                },
                {
                  "internalType": "uint8",
                  "name": "share",
                  "type": "uint8"
                },
                {
                  "internalType": "string",
                  "name": "info",
                  "type": "string"
                }
              ],
              "internalType": "struct Stakeholder",
              "name": "delivery",
              "type": "tuple"
            }
          ],
          "internalType": "struct StakeholderList",
          "name": "_stakeholders",
          "type": "tuple"
        },
        {
          "components": [
            {
              "internalType": "string",
              "name": "earTag",
              "type": "string"
            },
            {
              "internalType": "string",
              "name": "name",
              "type": "string"
            },
            {
              "internalType": "string",
              "name": "farm",
              "type": "string"
            },
            {
              "internalType": "uint8",
              "name": "age",
              "type": "uint8"
            }
          ],
          "internalType": "struct CampaignAnimalData",
          "name": "_animal",
          "type": "tuple"
        },
        {
          "components": [
            {
              "internalType": "uint256",
              "name": "id",
              "type": "uint256"
            },
            {
              "internalType": "string",
              "name": "title",
              "type": "string"
            },
            {
              "internalType": "string",
              "name": "description",
              "type": "string"
            },
            {
              "internalType": "uint256",
              "name": "price",
              "type": "uint256"
            },
            {
              "internalType": "uint32",
              "name": "total",
              "type": "uint32"
            },
            {
              "internalType": "uint32",
              "name": "available",
              "type": "uint32"
            }
          ],
          "internalType": "struct Box[]",
          "name": "_boxes",
          "type": "tuple[]"
        }
      ],
      "name": "createCampaign",
      "outputs": [
        {
          "internalType": "uint256",
          "name": "",
          "type": "uint256"
        }
      ],
      "stateMutability": "nonpayable",
      "type": "function"
    },
    {
      "inputs": [],
      "name": "getNumberOfCampaigns",
      "outputs": [
        {
          "internalType": "uint256",
          "name": "",
          "type": "uint256"
        }
      ],
      "stateMutability": "view",
      "type": "function",
      "constant": true
    },
    {
      "inputs": [],
      "name": "getCampaigns",
      "outputs": [
        {
          "components": [
            {
              "internalType": "uint256",
              "name": "id",
              "type": "uint256"
            },
            {
              "components": [
                {
                  "internalType": "string",
                  "name": "title",
                  "type": "string"
                },
                {
                  "internalType": "string",
                  "name": "description",
                  "type": "string"
                },
                {
                  "internalType": "uint256",
                  "name": "deadline",
                  "type": "uint256"
                }
              ],
              "internalType": "struct CampaignInfo",
              "name": "info",
              "type": "tuple"
            },
            {
              "components": [
                {
                  "internalType": "uint256",
                  "name": "collectedAmount",
                  "type": "uint256"
                },
                {
                  "internalType": "uint256",
                  "name": "createdAt",
                  "type": "uint256"
                },
                {
                  "internalType": "uint256",
                  "name": "totalBoxes",
                  "type": "uint256"
                },
                {
                  "internalType": "uint256",
                  "name": "boxesSold",
                  "type": "uint256"
                },
                {
                  "internalType": "uint256",
                  "name": "totalBoxTypes",
                  "type": "uint256"
                },
                {
                  "internalType": "bool",
                  "name": "isStopped",
                  "type": "bool"
                }
              ],
              "internalType": "struct CampaignMeta",
              "name": "meta",
              "type": "tuple"
            },
            {
              "components": [
                {
                  "internalType": "address",
                  "name": "owner",
                  "type": "address"
                },
                {
                  "internalType": "string",
                  "name": "ownerPublicKey",
                  "type": "string"
                }
              ],
              "internalType": "struct CampaignOwner",
              "name": "owner",
              "type": "tuple"
            },
            {
              "components": [
                {
                  "internalType": "string",
                  "name": "earTag",
                  "type": "string"
                },
                {
                  "internalType": "string",
                  "name": "name",
                  "type": "string"
                },
                {
                  "internalType": "string",
                  "name": "farm",
                  "type": "string"
                },
                {
                  "internalType": "uint8",
                  "name": "age",
                  "type": "uint8"
                }
              ],
              "internalType": "struct CampaignAnimalData",
              "name": "animal",
              "type": "tuple"
            },
            {
              "components": [
                {
                  "components": [
                    {
                      "internalType": "address payable",
                      "name": "owner",
                      "type": "address"
                    },
                    {
                      "internalType": "uint8",
                      "name": "share",
                      "type": "uint8"
                    },
                    {
                      "internalType": "string",
                      "name": "info",
                      "type": "string"
                    }
                  ],
                  "internalType": "struct Stakeholder",
                  "name": "farmer",
                  "type": "tuple"
                },
                {
                  "components": [
                    {
                      "internalType": "address payable",
                      "name": "owner",
                      "type": "address"
                    },
                    {
                      "internalType": "uint8",
                      "name": "share",
                      "type": "uint8"
                    },
                    {
                      "internalType": "string",
                      "name": "info",
                      "type": "string"
                    }
                  ],
                  "internalType": "struct Stakeholder",
                  "name": "butcher",
                  "type": "tuple"
                },
                {
                  "components": [
                    {
                      "internalType": "address payable",
                      "name": "owner",
                      "type": "address"
                    },
                    {
                      "internalType": "uint8",
                      "name": "share",
                      "type": "uint8"
                    },
                    {
                      "internalType": "string",
                      "name": "info",
                      "type": "string"
                    }
                  ],
                  "internalType": "struct Stakeholder",
                  "name": "delivery",
                  "type": "tuple"
                }
              ],
              "internalType": "struct StakeholderList",
              "name": "stakeholders",
              "type": "tuple"
            }
          ],
          "internalType": "struct Campaign[]",
          "name": "",
          "type": "tuple[]"
        }
      ],
      "stateMutability": "view",
      "type": "function",
      "constant": true
    },
    {
      "inputs": [
        {
          "internalType": "uint256",
          "name": "_campaignId",
          "type": "uint256"
        }
      ],
      "name": "getBoxes",
      "outputs": [
        {
          "components": [
            {
              "internalType": "uint256",
              "name": "id",
              "type": "uint256"
            },
            {
              "internalType": "string",
              "name": "title",
              "type": "string"
            },
            {
              "internalType": "string",
              "name": "description",
              "type": "string"
            },
            {
              "internalType": "uint256",
              "name": "price",
              "type": "uint256"
            },
            {
              "internalType": "uint32",
              "name": "total",
              "type": "uint32"
            },
            {
              "internalType": "uint32",
              "name": "available",
              "type": "uint32"
            }
          ],
          "internalType": "struct Box[]",
          "name": "",
          "type": "tuple[]"
        }
      ],
      "stateMutability": "view",
      "type": "function",
      "constant": true
    },
    {
      "inputs": [
        {
          "internalType": "uint256",
          "name": "_campaignId",
          "type": "uint256"
        }
      ],
      "name": "getSoldBoxes",
      "outputs": [
        {
          "components": [
            {
              "internalType": "uint256",
              "name": "id",
              "type": "uint256"
            },
            {
              "internalType": "uint256",
              "name": "boxId",
              "type": "uint256"
            },
            {
              "internalType": "address",
              "name": "owner",
              "type": "address"
            },
            {
              "internalType": "uint256",
              "name": "boughtAt",
              "type": "uint256"
            },
            {
              "internalType": "string",
              "name": "physAddress",
              "type": "string"
            }
          ],
          "internalType": "struct BoxSellRef[]",
          "name": "",
          "type": "tuple[]"
        }
      ],
      "stateMutability": "view",
      "type": "function",
      "constant": true
    },
    {
      "inputs": [
        {
          "internalType": "uint256",
          "name": "_campaignId",
          "type": "uint256"
        }
      ],
      "name": "stopCampaign",
      "outputs": [
        {
          "internalType": "bool",
          "name": "",
          "type": "bool"
        }
      ],
      "stateMutability": "nonpayable",
      "type": "function"
    },
    {
      "inputs": [
        {
          "internalType": "uint256",
          "name": "_campaignId",
          "type": "uint256"
        },
        {
          "internalType": "uint256",
          "name": "_boxId",
          "type": "uint256"
        },
        {
          "internalType": "string",
          "name": "_physAddress",
          "type": "string"
        }
      ],
      "name": "buyBox",
      "outputs": [],
      "stateMutability": "payable",
      "type": "function",
      "payable": true
    },
    {
      "inputs": [
        {
          "internalType": "uint256",
          "name": "_campaignId",
          "type": "uint256"
        }
      ],
      "name": "payOut",
      "outputs": [],
      "stateMutability": "nonpayable",
      "type": "function"
    }
  ],
  "bytecode": "0x608060405260006004553480156200001657600080fd5b5060405162004ef238038062004ef283398181016040528101906200003c9190620000ed565b806000806101000a81548173ffffffffffffffffffffffffffffffffffffffff021916908373ffffffffffffffffffffffffffffffffffffffff160217905550506200011f565b600080fd5b600073ffffffffffffffffffffffffffffffffffffffff82169050919050565b6000620000b58262000088565b9050919050565b620000c781620000a8565b8114620000d357600080fd5b50565b600081519050620000e781620000bc565b92915050565b60006020828403121562000106576200010562000083565b5b60006200011684828501620000d6565b91505092915050565b614dc3806200012f6000396000f3fe60806040526004361061009c5760003560e01c80636e8ae035116100645780636e8ae035146101b35780639102007e146101cf578063a6b036331461020c578063da333ca614610237578063e4aafc2c14610260578063ec6c82161461028b5761009c565b80630764d62a146100a157806307ca140d146100cc578063141961bc146100f75780633267f8ab1461013957806332e7574914610176575b600080fd5b3480156100ad57600080fd5b506100b66102c8565b6040516100c39190612a98565b60405180910390f35b3480156100d857600080fd5b506100e16102ec565b6040516100ee9190612acc565b60405180910390f35b34801561010357600080fd5b5061011e60048036038101906101199190612b27565b6102f2565b60405161013096959493929190612e91565b60405180910390f35b34801561014557600080fd5b50610160600480360381019061015b9190612b27565b610ae1565b60405161016d9190613083565b60405180910390f35b34801561018257600080fd5b5061019d60048036038101906101989190612b27565b610d5f565b6040516101aa91906131dd565b60405180910390f35b6101cd60048036038101906101c89190613334565b610f5f565b005b3480156101db57600080fd5b506101f660048036038101906101f1919061388b565b61133c565b6040516102039190612acc565b60405180910390f35b34801561021857600080fd5b506102216119db565b60405161022e9190613d17565b60405180910390f35b34801561024357600080fd5b5061025e60048036038101906102599190612b27565b612290565b005b34801561026c57600080fd5b50610275612639565b6040516102829190612acc565b60405180910390f35b34801561029757600080fd5b506102b260048036038101906102ad9190612b27565b612643565b6040516102bf9190613d48565b60405180910390f35b60008054906101000a900473ffffffffffffffffffffffffffffffffffffffff1681565b60045481565b60016020528060005260406000206000915090508060000154908060010160405180606001604052908160008201805461032b90613d92565b80601f016020809104026020016040519081016040528092919081815260200182805461035790613d92565b80156103a45780601f10610379576101008083540402835291602001916103a4565b820191906000526020600020905b81548152906001019060200180831161038757829003601f168201915b505050505081526020016001820180546103bd90613d92565b80601f01602080910402602001604051908101604052809291908181526020018280546103e990613d92565b80156104365780601f1061040b57610100808354040283529160200191610436565b820191906000526020600020905b81548152906001019060200180831161041957829003601f168201915b5050505050815260200160028201548152505090806004016040518060c001604052908160008201548152602001600182015481526020016002820154815260200160038201548152602001600482015481526020016005820160009054906101000a900460ff1615151515815250509080600a016040518060400160405290816000820160009054906101000a900473ffffffffffffffffffffffffffffffffffffffff1673ffffffffffffffffffffffffffffffffffffffff1673ffffffffffffffffffffffffffffffffffffffff16815260200160018201805461051c90613d92565b80601f016020809104026020016040519081016040528092919081815260200182805461054890613d92565b80156105955780601f1061056a57610100808354040283529160200191610595565b820191906000526020600020905b81548152906001019060200180831161057857829003601f168201915b5050505050815250509080600c016040518060800160405290816000820180546105be90613d92565b80601f01602080910402602001604051908101604052809291908181526020018280546105ea90613d92565b80156106375780601f1061060c57610100808354040283529160200191610637565b820191906000526020600020905b81548152906001019060200180831161061a57829003601f168201915b5050505050815260200160018201805461065090613d92565b80601f016020809104026020016040519081016040528092919081815260200182805461067c90613d92565b80156106c95780601f1061069e576101008083540402835291602001916106c9565b820191906000526020600020905b8154815290600101906020018083116106ac57829003601f168201915b505050505081526020016002820180546106e290613d92565b80601f016020809104026020016040519081016040528092919081815260200182805461070e90613d92565b801561075b5780601f106107305761010080835404028352916020019161075b565b820191906000526020600020905b81548152906001019060200180831161073e57829003601f168201915b505050505081526020016003820160009054906101000a900460ff1660ff1660ff16815250509080601001604051806060016040529081600082016040518060600160405290816000820160009054906101000a900473ffffffffffffffffffffffffffffffffffffffff1673ffffffffffffffffffffffffffffffffffffffff1673ffffffffffffffffffffffffffffffffffffffff1681526020016000820160149054906101000a900460ff1660ff1660ff16815260200160018201805461082490613d92565b80601f016020809104026020016040519081016040528092919081815260200182805461085090613d92565b801561089d5780601f106108725761010080835404028352916020019161089d565b820191906000526020600020905b81548152906001019060200180831161088057829003601f168201915b5050505050815250508152602001600282016040518060600160405290816000820160009054906101000a900473ffffffffffffffffffffffffffffffffffffffff1673ffffffffffffffffffffffffffffffffffffffff1673ffffffffffffffffffffffffffffffffffffffff1681526020016000820160149054906101000a900460ff1660ff1660ff16815260200160018201805461093d90613d92565b80601f016020809104026020016040519081016040528092919081815260200182805461096990613d92565b80156109b65780601f1061098b576101008083540402835291602001916109b6565b820191906000526020600020905b81548152906001019060200180831161099957829003601f168201915b5050505050815250508152602001600482016040518060600160405290816000820160009054906101000a900473ffffffffffffffffffffffffffffffffffffffff1673ffffffffffffffffffffffffffffffffffffffff1673ffffffffffffffffffffffffffffffffffffffff1681526020016000820160149054906101000a900460ff1660ff1660ff168152602001600182018054610a5690613d92565b80601f0160208091040260200160405190810160405280929190818152602001828054610a8290613d92565b8015610acf5780601f10610aa457610100808354040283529160200191610acf565b820191906000526020600020905b815481529060010190602001808311610ab257829003601f168201915b50505050508152505081525050905086565b6060600060016000848152602001908152602001600020905060008160040160040154905060008167ffffffffffffffff811115610b2257610b21613209565b5b604051908082528060200260200182016040528015610b5b57816020015b610b486127b8565b815260200190600190039081610b405790505b50905060005b82811015610d535760006002600088815260200190815260200160002060008381526020019081526020016000209050806040518060c001604052908160008201548152602001600182018054610bb790613d92565b80601f0160208091040260200160405190810160405280929190818152602001828054610be390613d92565b8015610c305780601f10610c0557610100808354040283529160200191610c30565b820191906000526020600020905b815481529060010190602001808311610c1357829003601f168201915b50505050508152602001600282018054610c4990613d92565b80601f0160208091040260200160405190810160405280929190818152602001828054610c7590613d92565b8015610cc25780601f10610c9757610100808354040283529160200191610cc2565b820191906000526020600020905b815481529060010190602001808311610ca557829003601f168201915b50505050508152602001600382015481526020016004820160009054906101000a900463ffffffff1663ffffffff1663ffffffff1681526020016004820160049054906101000a900463ffffffff1663ffffffff1663ffffffff1681525050838381518110610d3457610d33613dc3565b5b6020026020010181905250508080610d4b90613e21565b915050610b61565b50809350505050919050565b6060600060016000848152602001908152602001600020905060008160040160030154905060008167ffffffffffffffff811115610da057610d9f613209565b5b604051908082528060200260200182016040528015610dd957816020015b610dc66127fa565b815260200190600190039081610dbe5790505b50905060005b82811015610f535760006003600088815260200190815260200160002060008381526020019081526020016000209050806040518060a001604052908160008201548152602001600182015481526020016002820160009054906101000a900473ffffffffffffffffffffffffffffffffffffffff1673ffffffffffffffffffffffffffffffffffffffff1673ffffffffffffffffffffffffffffffffffffffff16815260200160038201548152602001600482018054610e9f90613d92565b80601f0160208091040260200160405190810160405280929190818152602001828054610ecb90613d92565b8015610f185780601f10610eed57610100808354040283529160200191610f18565b820191906000526020600020905b815481529060010190602001808311610efb57829003601f168201915b505050505081525050838381518110610f3457610f33613dc3565b5b6020026020010181905250508080610f4b90613e21565b915050610ddf565b50809350505050919050565b60006001600085815260200190815260200160002090508060040160050160009054906101000a900460ff1615610fcb576040517f08c379a0000000000000000000000000000000000000000000000000000000008152600401610fc290613ec6565b60405180910390fd5b42816001016002015411611014576040517f08c379a000000000000000000000000000000000000000000000000000000000815260040161100b90613f32565b60405180910390fd5b6000600260008681526020019081526020016000206000858152602001908152602001600020905083816000015414611082576040517f08c379a000000000000000000000000000000000000000000000000000000000815260040161107990613f9e565b60405180910390fd5b60008160040160049054906101000a900463ffffffff1663ffffffff16116110df576040517f08c379a00000000000000000000000000000000000000000000000000000000081526004016110d690614030565b60405180910390fd5b6000349050816003015481101561112b576040517f08c379a00000000000000000000000000000000000000000000000000000000081526004016111229061409c565b60405180910390fd5b600083600401600301549050600060036000898152602001908152602001600020600086600401600301548152602001908152602001600020905083600001548160010181905550818160000181905550338160020160006101000a81548173ffffffffffffffffffffffffffffffffffffffff021916908373ffffffffffffffffffffffffffffffffffffffff160217905550858160040190805190602001906111d792919061283f565b5042816003018190555060018460040160048282829054906101000a900463ffffffff1661120591906140bc565b92506101000a81548163ffffffff021916908363ffffffff1602179055506000856004019050600181600301600082825461124091906140f0565b925050819055508381600001600082825461125b91906140f0565b9250508190555085600401600201548660040160030154036113315760018660040160050160006101000a81548160ff02191690831515021790555060008054906101000a900473ffffffffffffffffffffffffffffffffffffffff1673ffffffffffffffffffffffffffffffffffffffff16633d709a29876112e18960000154610d5f565b6040518363ffffffff1660e01b81526004016112fe929190614641565b600060405180830381600087803b15801561131857600080fd5b505af115801561132c573d6000803e3d6000fd5b505050505b505050505050505050565b6000808663ffffffff1611611386576040517f08c379a000000000000000000000000000000000000000000000000000000000815260040161137d906146c4565b60405180910390fd5b62375f008663ffffffff1611156113d2576040517f08c379a00000000000000000000000000000000000000000000000000000000081526004016113c990614756565b60405180910390fd5b600042905060008763ffffffff16826113eb91906140f0565b905081811161142f576040517f08c379a0000000000000000000000000000000000000000000000000000000008152600401611426906147c2565b60405180910390fd5b6000805b85518110156115f457600086828151811061145157611450613dc3565b5b602002602001015190506000816080015163ffffffff16116114a8576040517f08c379a000000000000000000000000000000000000000000000000000000000815260040161149f90614854565b60405180910390fd5b8060a0015163ffffffff16816080015163ffffffff16146114fe576040517f08c379a00000000000000000000000000000000000000000000000000000000081526004016114f5906148e6565b60405180910390fd5b806080015163ffffffff168361151491906140f0565b92508060026000600454815260200190815260200160002060008360000151815260200190815260200160002060008201518160000155602082015181600101908051906020019061156792919061283f565b50604082015181600201908051906020019061158492919061283f565b506060820151816003015560808201518160040160006101000a81548163ffffffff021916908363ffffffff16021790555060a08201518160040160046101000a81548163ffffffff021916908363ffffffff1602179055509050505080806115ec90613e21565b915050611433565b5060008111611638576040517f08c379a000000000000000000000000000000000000000000000000000000000815260040161162f90614978565b60405180910390fd5b6000600160006004548152602001908152602001600020905060045481600001819055508881600a0160008201518160000160006101000a81548173ffffffffffffffffffffffffffffffffffffffff021916908373ffffffffffffffffffffffffffffffffffffffff16021790555060208201518160010190805190602001906116c492919061283f565b509050508b8160010160000190805190602001906116e392919061283f565b508a8160010160010190805190602001906116ff92919061283f565b508281600101600201819055504281600401600101819055506000816004016000018190555060008160040160050160006101000a81548160ff02191690831515021790555081816004016002018190555060008160040160030181905550855181600401600401819055508681600c01600082015181600001908051906020019061178c92919061283f565b5060208201518160010190805190602001906117a992919061283f565b5060408201518160020190805190602001906117c692919061283f565b5060608201518160030160006101000a81548160ff021916908360ff160217905550905050878160100160008201518160000160008201518160000160006101000a81548173ffffffffffffffffffffffffffffffffffffffff021916908373ffffffffffffffffffffffffffffffffffffffff16021790555060208201518160000160146101000a81548160ff021916908360ff160217905550604082015181600101908051906020019061187d92919061283f565b50505060208201518160020160008201518160000160006101000a81548173ffffffffffffffffffffffffffffffffffffffff021916908373ffffffffffffffffffffffffffffffffffffffff16021790555060208201518160000160146101000a81548160ff021916908360ff160217905550604082015181600101908051906020019061190d92919061283f565b50505060408201518160040160008201518160000160006101000a81548173ffffffffffffffffffffffffffffffffffffffff021916908373ffffffffffffffffffffffffffffffffffffffff16021790555060208201518160000160146101000a81548160ff021916908360ff160217905550604082015181600101908051906020019061199d92919061283f565b505050905050600460008154809291906119b690613e21565b919050555060016004546119ca9190614998565b945050505050979650505050505050565b6060600060045467ffffffffffffffff8111156119fb576119fa613209565b5b604051908082528060200260200182016040528015611a3457816020015b611a216128c5565b815260200190600190039081611a195790505b50905060005b600454811015612288576000600160008381526020019081526020016000209050806040518060c00160405290816000820154815260200160018201604051806060016040529081600082018054611a9190613d92565b80601f0160208091040260200160405190810160405280929190818152602001828054611abd90613d92565b8015611b0a5780601f10611adf57610100808354040283529160200191611b0a565b820191906000526020600020905b815481529060010190602001808311611aed57829003601f168201915b50505050508152602001600182018054611b2390613d92565b80601f0160208091040260200160405190810160405280929190818152602001828054611b4f90613d92565b8015611b9c5780601f10611b7157610100808354040283529160200191611b9c565b820191906000526020600020905b815481529060010190602001808311611b7f57829003601f168201915b505050505081526020016002820154815250508152602001600482016040518060c001604052908160008201548152602001600182015481526020016002820154815260200160038201548152602001600482015481526020016005820160009054906101000a900460ff1615151515815250508152602001600a82016040518060400160405290816000820160009054906101000a900473ffffffffffffffffffffffffffffffffffffffff1673ffffffffffffffffffffffffffffffffffffffff1673ffffffffffffffffffffffffffffffffffffffff168152602001600182018054611c8a90613d92565b80601f0160208091040260200160405190810160405280929190818152602001828054611cb690613d92565b8015611d035780601f10611cd857610100808354040283529160200191611d03565b820191906000526020600020905b815481529060010190602001808311611ce657829003601f168201915b5050505050815250508152602001600c8201604051806080016040529081600082018054611d3090613d92565b80601f0160208091040260200160405190810160405280929190818152602001828054611d5c90613d92565b8015611da95780601f10611d7e57610100808354040283529160200191611da9565b820191906000526020600020905b815481529060010190602001808311611d8c57829003601f168201915b50505050508152602001600182018054611dc290613d92565b80601f0160208091040260200160405190810160405280929190818152602001828054611dee90613d92565b8015611e3b5780601f10611e1057610100808354040283529160200191611e3b565b820191906000526020600020905b815481529060010190602001808311611e1e57829003601f168201915b50505050508152602001600282018054611e5490613d92565b80601f0160208091040260200160405190810160405280929190818152602001828054611e8090613d92565b8015611ecd5780601f10611ea257610100808354040283529160200191611ecd565b820191906000526020600020905b815481529060010190602001808311611eb057829003601f168201915b505050505081526020016003820160009054906101000a900460ff1660ff1660ff1681525050815260200160108201604051806060016040529081600082016040518060600160405290816000820160009054906101000a900473ffffffffffffffffffffffffffffffffffffffff1673ffffffffffffffffffffffffffffffffffffffff1673ffffffffffffffffffffffffffffffffffffffff1681526020016000820160149054906101000a900460ff1660ff1660ff168152602001600182018054611f9a90613d92565b80601f0160208091040260200160405190810160405280929190818152602001828054611fc690613d92565b80156120135780601f10611fe857610100808354040283529160200191612013565b820191906000526020600020905b815481529060010190602001808311611ff657829003601f168201915b5050505050815250508152602001600282016040518060600160405290816000820160009054906101000a900473ffffffffffffffffffffffffffffffffffffffff1673ffffffffffffffffffffffffffffffffffffffff1673ffffffffffffffffffffffffffffffffffffffff1681526020016000820160149054906101000a900460ff1660ff1660ff1681526020016001820180546120b390613d92565b80601f01602080910402602001604051908101604052809291908181526020018280546120df90613d92565b801561212c5780601f106121015761010080835404028352916020019161212c565b820191906000526020600020905b81548152906001019060200180831161210f57829003601f168201915b5050505050815250508152602001600482016040518060600160405290816000820160009054906101000a900473ffffffffffffffffffffffffffffffffffffffff1673ffffffffffffffffffffffffffffffffffffffff1673ffffffffffffffffffffffffffffffffffffffff1681526020016000820160149054906101000a900460ff1660ff1660ff1681526020016001820180546121cc90613d92565b80601f01602080910402602001604051908101604052809291908181526020018280546121f890613d92565b80156122455780601f1061221a57610100808354040283529160200191612245565b820191906000526020600020905b81548152906001019060200180831161222857829003601f168201915b505050505081525050815250508152505083838151811061226957612268613dc3565b5b602002602001018190525050808061228090613e21565b915050611a3a565b508091505090565b60006001600083815260200190815260200160002090508060040160050160009054906101000a900460ff166122fb576040517f08c379a00000000000000000000000000000000000000000000000000000000081526004016122f290614a18565b60405180910390fd5b806004016002015481600401600301541461234b576040517f08c379a000000000000000000000000000000000000000000000000000000000815260040161234290614a84565b60405180910390fd5b60008054906101000a900473ffffffffffffffffffffffffffffffffffffffff1673ffffffffffffffffffffffffffffffffffffffff16637a41984b82600001546040518263ffffffff1660e01b81526004016123a89190612acc565b602060405180830381865afa1580156123c5573d6000803e3d6000fd5b505050506040513d601f19601f820116820180604052508101906123e99190614ad0565b612428576040517f08c379a000000000000000000000000000000000000000000000000000000000815260040161241f90614b49565b60405180910390fd5b600060648260100160000160000160149054906101000a900460ff1660ff1683600401600001546124599190614b69565b6124639190614bf2565b9050600060648360100160020160000160149054906101000a900460ff1660ff1684600401600001546124969190614b69565b6124a09190614bf2565b9050600060648460100160040160000160149054906101000a900460ff1660ff1685600401600001546124d39190614b69565b6124dd9190614bf2565b90508360100160000160000160009054906101000a900473ffffffffffffffffffffffffffffffffffffffff1673ffffffffffffffffffffffffffffffffffffffff166108fc849081150290604051600060405180830381858888f1935050505015801561254f573d6000803e3d6000fd5b508360100160020160000160009054906101000a900473ffffffffffffffffffffffffffffffffffffffff1673ffffffffffffffffffffffffffffffffffffffff166108fc839081150290604051600060405180830381858888f193505050501580156125c0573d6000803e3d6000fd5b508360100160040160000160009054906101000a900473ffffffffffffffffffffffffffffffffffffffff1673ffffffffffffffffffffffffffffffffffffffff166108fc829081150290604051600060405180830381858888f19350505050158015612631573d6000803e3d6000fd5b505050505050565b6000600454905090565b6000806001600084815260200190815260200160002090508060040160050160009054906101000a900460ff16156126b0576040517f08c379a00000000000000000000000000000000000000000000000000000000081526004016126a790614c6f565b60405180910390fd5b428160010160020154116126f9576040517f08c379a00000000000000000000000000000000000000000000000000000000081526004016126f090614cdb565b60405180910390fd5b80600a0160000160009054906101000a900473ffffffffffffffffffffffffffffffffffffffff1673ffffffffffffffffffffffffffffffffffffffff163373ffffffffffffffffffffffffffffffffffffffff161461278e576040517f08c379a000000000000000000000000000000000000000000000000000000000815260040161278590614d6d565b60405180910390fd5b60018160040160050160006101000a81548160ff0219169083151502179055506001915050919050565b6040518060c0016040528060008152602001606081526020016060815260200160008152602001600063ffffffff168152602001600063ffffffff1681525090565b6040518060a001604052806000815260200160008152602001600073ffffffffffffffffffffffffffffffffffffffff16815260200160008152602001606081525090565b82805461284b90613d92565b90600052602060002090601f01602090048101928261286d57600085556128b4565b82601f1061288657805160ff19168380011785556128b4565b828001600101855582156128b4579182015b828111156128b3578251825591602001919060010190612898565b5b5090506128c19190612919565b5090565b6040518060c00160405280600081526020016128df612936565b81526020016128ec612957565b81526020016128f961298f565b81526020016129066129bf565b81526020016129136129ea565b81525090565b5b8082111561293257600081600090555060010161291a565b5090565b60405180606001604052806060815260200160608152602001600081525090565b6040518060c0016040528060008152602001600081526020016000815260200160008152602001600081526020016000151581525090565b6040518060400160405280600073ffffffffffffffffffffffffffffffffffffffff168152602001606081525090565b6040518060800160405280606081526020016060815260200160608152602001600060ff1681525090565b60405180606001604052806129fd612a1d565b8152602001612a0a612a1d565b8152602001612a17612a1d565b81525090565b6040518060600160405280600073ffffffffffffffffffffffffffffffffffffffff168152602001600060ff168152602001606081525090565b600073ffffffffffffffffffffffffffffffffffffffff82169050919050565b6000612a8282612a57565b9050919050565b612a9281612a77565b82525050565b6000602082019050612aad6000830184612a89565b92915050565b6000819050919050565b612ac681612ab3565b82525050565b6000602082019050612ae16000830184612abd565b92915050565b6000604051905090565b600080fd5b600080fd5b612b0481612ab3565b8114612b0f57600080fd5b50565b600081359050612b2181612afb565b92915050565b600060208284031215612b3d57612b3c612af1565b5b6000612b4b84828501612b12565b91505092915050565b600081519050919050565b600082825260208201905092915050565b60005b83811015612b8e578082015181840152602081019050612b73565b83811115612b9d576000848401525b50505050565b6000601f19601f8301169050919050565b6000612bbf82612b54565b612bc98185612b5f565b9350612bd9818560208601612b70565b612be281612ba3565b840191505092915050565b612bf681612ab3565b82525050565b60006060830160008301518482036000860152612c198282612bb4565b91505060208301518482036020860152612c338282612bb4565b9150506040830151612c486040860182612bed565b508091505092915050565b60008115159050919050565b612c6881612c53565b82525050565b60c082016000820151612c846000850182612bed565b506020820151612c976020850182612bed565b506040820151612caa6040850182612bed565b506060820151612cbd6060850182612bed565b506080820151612cd06080850182612bed565b5060a0820151612ce360a0850182612c5f565b50505050565b612cf281612a77565b82525050565b6000604083016000830151612d106000860182612ce9565b5060208301518482036020860152612d288282612bb4565b9150508091505092915050565b600060ff82169050919050565b612d4b81612d35565b82525050565b60006080830160008301518482036000860152612d6e8282612bb4565b91505060208301518482036020860152612d888282612bb4565b91505060408301518482036040860152612da28282612bb4565b9150506060830151612db76060860182612d42565b508091505092915050565b6000612dcd82612a57565b9050919050565b612ddd81612dc2565b82525050565b6000606083016000830151612dfb6000860182612dd4565b506020830151612e0e6020860182612d42565b5060408301518482036040860152612e268282612bb4565b9150508091505092915050565b60006060830160008301518482036000860152612e508282612de3565b91505060208301518482036020860152612e6a8282612de3565b91505060408301518482036040860152612e848282612de3565b9150508091505092915050565b600061016082019050612ea76000830189612abd565b8181036020830152612eb98188612bfc565b9050612ec86040830187612c6e565b818103610100830152612edb8186612cf8565b9050818103610120830152612ef08185612d51565b9050818103610140830152612f058184612e33565b9050979650505050505050565b600081519050919050565b600082825260208201905092915050565b6000819050602082019050919050565b600063ffffffff82169050919050565b612f5781612f3e565b82525050565b600060c083016000830151612f756000860182612bed565b5060208301518482036020860152612f8d8282612bb4565b91505060408301518482036040860152612fa78282612bb4565b9150506060830151612fbc6060860182612bed565b506080830151612fcf6080860182612f4e565b5060a0830151612fe260a0860182612f4e565b508091505092915050565b6000612ff98383612f5d565b905092915050565b6000602082019050919050565b600061301982612f12565b6130238185612f1d565b93508360208202850161303585612f2e565b8060005b8581101561307157848403895281516130528582612fed565b945061305d83613001565b925060208a01995050600181019050613039565b50829750879550505050505092915050565b6000602082019050818103600083015261309d818461300e565b905092915050565b600081519050919050565b600082825260208201905092915050565b6000819050602082019050919050565b600060a0830160008301516130e96000860182612bed565b5060208301516130fc6020860182612bed565b50604083015161310f6040860182612ce9565b5060608301516131226060860182612bed565b506080830151848203608086015261313a8282612bb4565b9150508091505092915050565b600061315383836130d1565b905092915050565b6000602082019050919050565b6000613173826130a5565b61317d81856130b0565b93508360208202850161318f856130c1565b8060005b858110156131cb57848403895281516131ac8582613147565b94506131b78361315b565b925060208a01995050600181019050613193565b50829750879550505050505092915050565b600060208201905081810360008301526131f78184613168565b905092915050565b600080fd5b600080fd5b7f4e487b7100000000000000000000000000000000000000000000000000000000600052604160045260246000fd5b61324182612ba3565b810181811067ffffffffffffffff821117156132605761325f613209565b5b80604052505050565b6000613273612ae7565b905061327f8282613238565b919050565b600067ffffffffffffffff82111561329f5761329e613209565b5b6132a882612ba3565b9050602081019050919050565b82818337600083830152505050565b60006132d76132d284613284565b613269565b9050828152602081018484840111156132f3576132f2613204565b5b6132fe8482856132b5565b509392505050565b600082601f83011261331b5761331a6131ff565b5b813561332b8482602086016132c4565b91505092915050565b60008060006060848603121561334d5761334c612af1565b5b600061335b86828701612b12565b935050602061336c86828701612b12565b925050604084013567ffffffffffffffff81111561338d5761338c612af6565b5b61339986828701613306565b9150509250925092565b6133ac81612f3e565b81146133b757600080fd5b50565b6000813590506133c9816133a3565b92915050565b600080fd5b600080fd5b6133e281612a77565b81146133ed57600080fd5b50565b6000813590506133ff816133d9565b92915050565b60006040828403121561341b5761341a6133cf565b5b6134256040613269565b90506000613435848285016133f0565b600083015250602082013567ffffffffffffffff811115613459576134586133d4565b5b61346584828501613306565b60208301525092915050565b61347a81612dc2565b811461348557600080fd5b50565b60008135905061349781613471565b92915050565b6134a681612d35565b81146134b157600080fd5b50565b6000813590506134c38161349d565b92915050565b6000606082840312156134df576134de6133cf565b5b6134e96060613269565b905060006134f984828501613488565b600083015250602061350d848285016134b4565b602083015250604082013567ffffffffffffffff811115613531576135306133d4565b5b61353d84828501613306565b60408301525092915050565b60006060828403121561355f5761355e6133cf565b5b6135696060613269565b9050600082013567ffffffffffffffff811115613589576135886133d4565b5b613595848285016134c9565b600083015250602082013567ffffffffffffffff8111156135b9576135b86133d4565b5b6135c5848285016134c9565b602083015250604082013567ffffffffffffffff8111156135e9576135e86133d4565b5b6135f5848285016134c9565b60408301525092915050565b600060808284031215613617576136166133cf565b5b6136216080613269565b9050600082013567ffffffffffffffff811115613641576136406133d4565b5b61364d84828501613306565b600083015250602082013567ffffffffffffffff811115613671576136706133d4565b5b61367d84828501613306565b602083015250604082013567ffffffffffffffff8111156136a1576136a06133d4565b5b6136ad84828501613306565b60408301525060606136c1848285016134b4565b60608301525092915050565b600067ffffffffffffffff8211156136e8576136e7613209565b5b602082029050602081019050919050565b600080fd5b600060c08284031215613714576137136133cf565b5b61371e60c0613269565b9050600061372e84828501612b12565b600083015250602082013567ffffffffffffffff811115613752576137516133d4565b5b61375e84828501613306565b602083015250604082013567ffffffffffffffff811115613782576137816133d4565b5b61378e84828501613306565b60408301525060606137a284828501612b12565b60608301525060806137b6848285016133ba565b60808301525060a06137ca848285016133ba565b60a08301525092915050565b60006137e96137e4846136cd565b613269565b9050808382526020820190506020840283018581111561380c5761380b6136f9565b5b835b8181101561385357803567ffffffffffffffff811115613831576138306131ff565b5b80860161383e89826136fe565b8552602085019450505060208101905061380e565b5050509392505050565b600082601f830112613872576138716131ff565b5b81356138828482602086016137d6565b91505092915050565b600080600080600080600060e0888a0312156138aa576138a9612af1565b5b600088013567ffffffffffffffff8111156138c8576138c7612af6565b5b6138d48a828b01613306565b975050602088013567ffffffffffffffff8111156138f5576138f4612af6565b5b6139018a828b01613306565b96505060406139128a828b016133ba565b955050606088013567ffffffffffffffff81111561393357613932612af6565b5b61393f8a828b01613405565b945050608088013567ffffffffffffffff8111156139605761395f612af6565b5b61396c8a828b01613549565b93505060a088013567ffffffffffffffff81111561398d5761398c612af6565b5b6139998a828b01613601565b92505060c088013567ffffffffffffffff8111156139ba576139b9612af6565b5b6139c68a828b0161385d565b91505092959891949750929550565b600081519050919050565b600082825260208201905092915050565b6000819050602082019050919050565b60006060830160008301518482036000860152613a1e8282612bb4565b91505060208301518482036020860152613a388282612bb4565b9150506040830151613a4d6040860182612bed565b508091505092915050565b60c082016000820151613a6e6000850182612bed565b506020820151613a816020850182612bed565b506040820151613a946040850182612bed565b506060820151613aa76060850182612bed565b506080820151613aba6080850182612bed565b5060a0820151613acd60a0850182612c5f565b50505050565b6000604083016000830151613aeb6000860182612ce9565b5060208301518482036020860152613b038282612bb4565b9150508091505092915050565b60006080830160008301518482036000860152613b2d8282612bb4565b91505060208301518482036020860152613b478282612bb4565b91505060408301518482036040860152613b618282612bb4565b9150506060830151613b766060860182612d42565b508091505092915050565b60006060830160008301518482036000860152613b9e8282612de3565b91505060208301518482036020860152613bb88282612de3565b91505060408301518482036040860152613bd28282612de3565b9150508091505092915050565b600061016083016000830151613bf86000860182612bed565b5060208301518482036020860152613c108282613a01565b9150506040830151613c256040860182613a58565b506060830151848203610100860152613c3e8282613ad3565b9150506080830151848203610120860152613c598282613b10565b91505060a0830151848203610140860152613c748282613b81565b9150508091505092915050565b6000613c8d8383613bdf565b905092915050565b6000602082019050919050565b6000613cad826139d5565b613cb781856139e0565b935083602082028501613cc9856139f1565b8060005b85811015613d055784840389528151613ce68582613c81565b9450613cf183613c95565b925060208a01995050600181019050613ccd565b50829750879550505050505092915050565b60006020820190508181036000830152613d318184613ca2565b905092915050565b613d4281612c53565b82525050565b6000602082019050613d5d6000830184613d39565b92915050565b7f4e487b7100000000000000000000000000000000000000000000000000000000600052602260045260246000fd5b60006002820490506001821680613daa57607f821691505b602082108103613dbd57613dbc613d63565b5b50919050565b7f4e487b7100000000000000000000000000000000000000000000000000000000600052603260045260246000fd5b7f4e487b7100000000000000000000000000000000000000000000000000000000600052601160045260246000fd5b6000613e2c82612ab3565b91507fffffffffffffffffffffffffffffffffffffffffffffffffffffffffffffffff8203613e5e57613e5d613df2565b5b600182019050919050565b600082825260208201905092915050565b7f546869732063616d706169676e206861732073746f7070656400000000000000600082015250565b6000613eb0601983613e69565b9150613ebb82613e7a565b602082019050919050565b60006020820190508181036000830152613edf81613ea3565b9050919050565b7f546869732063616d706169676e20697320616c7265616479206f766572000000600082015250565b6000613f1c601d83613e69565b9150613f2782613ee6565b602082019050919050565b60006020820190508181036000830152613f4b81613f0f565b9050919050565b7f54686520626f7820494420697320696e76616c69640000000000000000000000600082015250565b6000613f88601583613e69565b9150613f9382613f52565b602082019050919050565b60006020820190508181036000830152613fb781613f7b565b9050919050565b7f416c6c20626f786573206f66207468697320747970652068617665206265656e60008201527f20736f6c64000000000000000000000000000000000000000000000000000000602082015250565b600061401a602583613e69565b915061402582613fbe565b604082019050919050565b600060208201905081810360008301526140498161400d565b9050919050565b7f476976656e20616d6f756e742069732062656c6f7720626f7820707269636500600082015250565b6000614086601f83613e69565b915061409182614050565b602082019050919050565b600060208201905081810360008301526140b581614079565b9050919050565b60006140c782612f3e565b91506140d283612f3e565b9250828210156140e5576140e4613df2565b5b828203905092915050565b60006140fb82612ab3565b915061410683612ab3565b9250827fffffffffffffffffffffffffffffffffffffffffffffffffffffffffffffffff0382111561413b5761413a613df2565b5b828201905092915050565b60008160001c9050919050565b6000819050919050565b600061417061416b83614146565b614153565b9050919050565b60008190508160005260206000209050919050565b6000815461419981613d92565b6141a38186612b5f565b945060018216600081146141be57600181146141d057614203565b60ff1983168652602086019350614203565b6141d985614177565b60005b838110156141fb578154818901526001820191506020810190506141dc565b808801955050505b50505092915050565b60006060830160008084018583036000870152614229838261418c565b925050600184018583036020870152614242838261418c565b925050600284015490506142558161415d565b6142626040870182612bed565b50819250505092915050565b600060ff82169050919050565b600061428e61428983614146565b61426e565b9050919050565b60c0820160008083015490506142aa8161415d565b6142b76000860182612bed565b50600183015490506142c88161415d565b6142d56020860182612bed565b50600283015490506142e68161415d565b6142f36040860182612bed565b50600383015490506143048161415d565b6143116060860182612bed565b50600483015490506143228161415d565b61432f6080860182612bed565b50600583015490506143408161427b565b61434d60a0860182612c5f565b5050505050565b600073ffffffffffffffffffffffffffffffffffffffff82169050919050565b600061438761438283614146565b614354565b9050919050565b60006040830160008084015490506143a581614374565b6143b26000870182612ce9565b506001840185830360208701526143c9838261418c565b925050819250505092915050565b600060ff82169050919050565b60006143f76143f283614146565b6143d7565b9050919050565b6000608083016000808401858303600087015261441b838261418c565b925050600184018583036020870152614434838261418c565b92505060028401858303604087015261444d838261418c565b92505060038401549050614460816143e4565b61446d6060870182612d42565b50819250505092915050565b600073ffffffffffffffffffffffffffffffffffffffff82169050919050565b60006144ac6144a783614146565b614479565b9050919050565b60008160a01c9050919050565b60006144d36144ce836144b3565b6143d7565b9050919050565b60006060830160008084015490506144f181614499565b6144fe6000870182612dd4565b50614508816144c0565b6145156020870182612d42565b5060018401858303604087015261452c838261418c565b925050819250505092915050565b6000606083016000808401858303600087015261455783826144da565b92505060028401858303602087015261457083826144da565b92505060048401858303604087015261458983826144da565b925050819250505092915050565b6000610160830160008084015490506145af8161415d565b6145bc6000870182612bed565b506001840185830360208701526145d3838261420c565b925050600484016145e76040870182614295565b50600a84018583036101008701526145ff838261438e565b925050600c840185830361012087015261461983826143fe565b92505060108401858303610140870152614633838261453a565b925050819250505092915050565b6000604082019050818103600083015261465b8185614597565b9050818103602083015261466f8184613168565b90509392505050565b7f4475726174696f6e206d75737420626520686967686572207468616e20300000600082015250565b60006146ae601e83613e69565b91506146b982614678565b602082019050919050565b600060208201905081810360008301526146dd816146a1565b9050919050565b7f4475726174696f6e2063616e277420626520686967686572207468616e20362060008201527f7765656b73000000000000000000000000000000000000000000000000000000602082015250565b6000614740602583613e69565b915061474b826146e4565b604082019050919050565b6000602082019050818103600083015261476f81614733565b9050919050565b7f446561646c696e65206d75737420626520696e20746865206675747572650000600082015250565b60006147ac601e83613e69565b91506147b782614776565b602082019050919050565b600060208201905081810360008301526147db8161479f565b9050919050565b7f5468657265206d757374206265206174206c65617374206f6e6520706965636560008201527f206f66206561636820626f780000000000000000000000000000000000000000602082015250565b600061483e602c83613e69565b9150614849826147e2565b604082019050919050565b6000602082019050818103600083015261486d81614831565b9050919050565b7f496e697469616c6c7920746f74616c20616e6420617661696c61626c65206d7560008201527f737420626520657175616c000000000000000000000000000000000000000000602082015250565b60006148d0602b83613e69565b91506148db82614874565b604082019050919050565b600060208201905081810360008301526148ff816148c3565b9050919050565b7f5468657265206d757374206265206174206c65617374206f6e6520626f78206960008201527f6e20746f74616c00000000000000000000000000000000000000000000000000602082015250565b6000614962602783613e69565b915061496d82614906565b604082019050919050565b6000602082019050818103600083015261499181614955565b9050919050565b60006149a382612ab3565b91506149ae83612ab3565b9250828210156149c1576149c0613df2565b5b828203905092915050565b7f5468652063616d706169676e206d7573742062652066696e6973686564000000600082015250565b6000614a02601d83613e69565b9150614a0d826149cc565b602082019050919050565b60006020820190508181036000830152614a31816149f5565b9050919050565b7f54686572652063616e277420626520616e7920626f786573206c656674000000600082015250565b6000614a6e601d83613e69565b9150614a7982614a38565b602082019050919050565b60006020820190508181036000830152614a9d81614a61565b9050919050565b614aad81612c53565b8114614ab857600080fd5b50565b600081519050614aca81614aa4565b92915050565b600060208284031215614ae657614ae5612af1565b5b6000614af484828501614abb565b91505092915050565b7f537570706c7920636861696e206d75737420626520636f6d706c657465640000600082015250565b6000614b33601e83613e69565b9150614b3e82614afd565b602082019050919050565b60006020820190508181036000830152614b6281614b26565b9050919050565b6000614b7482612ab3565b9150614b7f83612ab3565b9250817fffffffffffffffffffffffffffffffffffffffffffffffffffffffffffffffff0483118215151615614bb857614bb7613df2565b5b828202905092915050565b7f4e487b7100000000000000000000000000000000000000000000000000000000600052601260045260246000fd5b6000614bfd82612ab3565b9150614c0883612ab3565b925082614c1857614c17614bc3565b5b828204905092915050565b7f43616d706169676e20616c72656164792073746f707065640000000000000000600082015250565b6000614c59601883613e69565b9150614c6482614c23565b602082019050919050565b60006020820190508181036000830152614c8881614c4c565b9050919050565b7f546869732063616d706169676e206973206f7665720000000000000000000000600082015250565b6000614cc5601583613e69565b9150614cd082614c8f565b602082019050919050565b60006020820190508181036000830152614cf481614cb8565b9050919050565b7f4f6e6c7920746865206f776e65722063616e2073746f7020612063616d70616960008201527f676e000000000000000000000000000000000000000000000000000000000000602082015250565b6000614d57602283613e69565b9150614d6282614cfb565b604082019050919050565b60006020820190508181036000830152614d8681614d4a565b905091905056fea26469706673582212209e655d59233d85852c13028817d8b340d7d1aff818c93eb3f86fae14f01d86f564736f6c634300080d0033",
  "immutableReferences": {},
  "source": "// SPDX-License-Identifier: AGPL\npragma solidity ^0.8.13;\n\nimport \"./Types.sol\";\nimport \"./SupplyChains.sol\";\n\ncontract Crowdfunding {\n    // address of the supply chain contract\n    address public supplychainAddress;\n\n    // all campaigns\n    mapping(uint256 => Campaign) public campaigns;\n    // Boxes of each campaign\n    mapping(uint256 => mapping(uint256 => Box)) boxes;\n    // Sold boxes of each campaign (campignId => sellId => BoxSellRef)\n    mapping(uint256 => mapping(uint256 => BoxSellRef)) soldBoxes;\n\n    uint256 public numberOfCampaigns = 0;\n\n    // retrieve supply chain contract address from truffle deployment\n    constructor(address _supplychainAddress) {\n        supplychainAddress = _supplychainAddress;\n    }\n\n    /**\n     * Creates a new campaign\n     */\n    function createCampaign(\n        string memory _title,\n        string memory _description,\n        uint32 _duration,\n        CampaignOwner memory _campaignOwner,\n        StakeholderList memory _stakeholders,\n        CampaignAnimalData memory _animal,\n        Box[] memory _boxes\n    ) public returns (uint256) {\n        // check crowdfunding duration\n        require(_duration > 0, \"Duration must be higher than 0\");\n        require(_duration <= 6 weeks, \"Duration can't be higher than 6 weeks\");\n\n        // create deadline by adding the duration to the current timestamp\n        uint256 current = block.timestamp;\n        uint256 deadline = current + _duration;\n\n        // validate\n        require(deadline > current, \"Deadline must be in the future\");\n\n        // add boxes to campaign\n        uint256 totalNumOfBoxes = 0;\n        for (uint256 index = 0; index < _boxes.length; index++) {\n            Box memory box = _boxes[index];\n            require(\n                box.total > 0,\n                \"There must be at least one piece of each box\"\n            );\n            require(\n                box.total == box.available,\n                \"Initially total and available must be equal\"\n            );\n            totalNumOfBoxes += box.total;\n            boxes[numberOfCampaigns][box.id] = box;\n        }\n        require(totalNumOfBoxes > 0, \"There must be at least one box in total\");\n\n        Campaign storage campaign = campaigns[numberOfCampaigns];\n        campaign.id = numberOfCampaigns;\n        campaign.owner = _campaignOwner;\n        campaign.info.title = _title;\n        campaign.info.description = _description;\n        campaign.info.deadline = deadline;\n        campaign.meta.createdAt = block.timestamp;\n        campaign.meta.collectedAmount = 0;\n        campaign.meta.isStopped = false;\n        campaign.meta.totalBoxes = totalNumOfBoxes;\n        campaign.meta.boxesSold = 0;\n        campaign.meta.totalBoxTypes = _boxes.length;\n        campaign.animal = _animal;\n        campaign.stakeholders = _stakeholders;\n\n        // increase total num of campaigns\n        numberOfCampaigns++;\n\n        // return the most recent campaign index\n        return numberOfCampaigns - 1;\n    }\n\n    /**\n     * Returns the total number of campaigns\n     */\n    function getNumberOfCampaigns() public view returns (uint256) {\n        return numberOfCampaigns;\n    }\n\n    /**\n     * Returns all campaigns\n     */\n    function getCampaigns() public view returns (Campaign[] memory) {\n        Campaign[] memory allCampaigns = new Campaign[](numberOfCampaigns);\n        for (uint256 index = 0; index < numberOfCampaigns; index++) {\n            Campaign storage campaign = campaigns[index];\n            allCampaigns[index] = campaign;\n        }\n        return allCampaigns;\n    }\n\n    /**\n     * Returns all boxes of a specific campaign\n     */\n    function getBoxes(uint256 _campaignId) public view returns (Box[] memory) {\n        Campaign storage campaign = campaigns[_campaignId];\n        uint256 totalBoxTypes = campaign.meta.totalBoxTypes;\n        Box[] memory boxesOfCampaign = new Box[](totalBoxTypes);\n        for (uint256 index = 0; index < totalBoxTypes; index++) {\n            Box storage box = boxes[_campaignId][index];\n            boxesOfCampaign[index] = box;\n        }\n        return boxesOfCampaign;\n    }\n\n    /**\n     * Returns the sell reference of boxes for a specific campaign\n     */\n    function getSoldBoxes(\n        uint256 _campaignId\n    ) public view returns (BoxSellRef[] memory) {\n        Campaign storage campaign = campaigns[_campaignId];\n        uint256 boxesSold = campaign.meta.boxesSold;\n        BoxSellRef[] memory sellRefs = new BoxSellRef[](boxesSold);\n        for (uint256 index = 0; index < boxesSold; index++) {\n            BoxSellRef storage sellRef = soldBoxes[_campaignId][index];\n            sellRefs[index] = sellRef;\n        }\n        return sellRefs;\n    }\n\n    /**\n     * Removes a campaign\n     */\n    function stopCampaign(uint256 _campaignId) public returns (bool) {\n        Campaign storage campaign = campaigns[_campaignId];\n        require(!campaign.meta.isStopped, \"Campaign already stopped\");\n        require(\n            campaign.info.deadline > block.timestamp,\n            \"This campaign is over\"\n        );\n        require(\n            msg.sender == campaign.owner.owner,\n            \"Only the owner can stop a campaign\"\n        );\n\n        campaign.meta.isStopped = true;\n\n        return true;\n    }\n\n    /**\n     * Buys a box\n     */\n    function buyBox(\n        uint256 _campaignId,\n        uint256 _boxId,\n        string memory _physAddress\n    ) public payable {\n        // get campaign ref\n        Campaign storage campaign = campaigns[_campaignId];\n        // check if this is an ongoing campaign\n        require(!campaign.meta.isStopped, \"This campaign has stopped\");\n        require(\n            campaign.info.deadline > block.timestamp,\n            \"This campaign is already over\"\n        );\n\n        // check if this campaign still has available boxes for the requested kind\n        Box storage box = boxes[_campaignId][_boxId];\n        require(box.id == _boxId, \"The box ID is invalid\");\n        require(box.available > 0, \"All boxes of this type have been sold\");\n        uint256 amount = msg.value;\n        require(amount >= box.price, \"Given amount is below box price\");\n\n        // Add buyer (Don't increase boxes sold yet, we need it starting at 0)\n        uint256 sellId = campaign.meta.boxesSold;\n        BoxSellRef storage sellRef = soldBoxes[_campaignId][\n            campaign.meta.boxesSold\n        ];\n        sellRef.boxId = box.id;\n        sellRef.id = sellId;\n        sellRef.owner = msg.sender;\n        sellRef.physAddress = _physAddress;\n        sellRef.boughtAt = block.timestamp;\n\n        // Updates available boxes by one\n        box.available -= 1;\n        // Update campaign meta\n        CampaignMeta storage meta = campaign.meta;\n        meta.boxesSold += 1;\n        meta.collectedAmount += amount;\n\n        if (campaign.meta.boxesSold == campaign.meta.totalBoxes) {\n            // Mark campaign as stopped\n            campaign.meta.isStopped = true;\n            // Start supply chain\n            SupplyChains(supplychainAddress).StartSupplyChain(campaign, getSoldBoxes(campaign.id));\n        }\n    }\n\n    /**\n     * Pay-out all stakeholders of the campaign\n     */\n    function payOut(uint256 _campaignId) public {\n        Campaign storage campaign = campaigns[_campaignId];\n        require(campaign.meta.isStopped, \"The campaign must be finished\");\n        require(\n            campaign.meta.boxesSold == campaign.meta.totalBoxes,\n            \"There can't be any boxes left\"\n        );\n        // Check if supply chain has been completed\n        require(\n            SupplyChains(supplychainAddress).isCompleted(campaign.id), \n            \"Supply chain must be completed\"\n        );\n\n        // Generate shares\n        uint256 farmerShare = (campaign.meta.collectedAmount * campaign.stakeholders.farmer.share) / 100;\n        uint256 butcherShare = (campaign.meta.collectedAmount * campaign.stakeholders.butcher.share) / 100; \n        uint256 deliveryShare = (campaign.meta.collectedAmount * campaign.stakeholders.delivery.share) / 100;\n\n        // payout stakeholders\n        payable(campaign.stakeholders.farmer.owner).transfer(farmerShare);\n        payable(campaign.stakeholders.butcher.owner).transfer(butcherShare);\n        payable(campaign.stakeholders.delivery.owner).transfer(deliveryShare);\n    }\n}\n",
  "sourcePath": "/Users/cassolseba/VSCode/blockchain/146157_Blockchain/smart_contracts/contracts/Crowdfunding.sol",
  "compiler": {
    "name": "solc",
    "version": "0.8.13+commit.abaa5c0e.Emscripten.clang"
  },
  "schemaVersion": "3.4.14",
  "updatedAt": "2023-08-14T20:13:09.240Z",
  "networkType": "ethereum",
  "devdoc": {
    "kind": "dev",
    "methods": {},
    "version": 1
  },
  "userdoc": {
    "kind": "user",
    "methods": {
      "buyBox(uint256,uint256,string)": {
        "notice": "Buys a box"
      },
      "createCampaign(string,string,uint32,(address,string),((address,uint8,string),(address,uint8,string),(address,uint8,string)),(string,string,string,uint8),(uint256,string,string,uint256,uint32,uint32)[])": {
        "notice": "Creates a new campaign"
      },
      "getBoxes(uint256)": {
        "notice": "Returns all boxes of a specific campaign"
      },
      "getCampaigns()": {
        "notice": "Returns all campaigns"
      },
      "getNumberOfCampaigns()": {
        "notice": "Returns the total number of campaigns"
      },
      "getSoldBoxes(uint256)": {
        "notice": "Returns the sell reference of boxes for a specific campaign"
      },
      "payOut(uint256)": {
        "notice": "Pay-out all stakeholders of the campaign"
      },
      "stopCampaign(uint256)": {
        "notice": "Removes a campaign"
      }
    },
    "version": 1
  }
}