{
  "contractName": "Crowdfunding",
  "abi": [
    {
      "inputs": [
        {
          "internalType": "uint256",
          "name": "",
          "type": "uint256"
        },
        {
          "internalType": "uint256",
          "name": "",
          "type": "uint256"
        }
      ],
      "name": "boxOffers",
      "outputs": [
        {
          "internalType": "uint256",
          "name": "id",
          "type": "uint256"
        },
        {
          "components": [
            {
              "internalType": "string",
              "name": "title",
              "type": "string"
            },
            {
              "internalType": "string",
              "name": "description",
              "type": "string"
            },
            {
              "internalType": "uint256",
              "name": "price",
              "type": "uint256"
            }
          ],
          "internalType": "struct Box",
          "name": "box",
          "type": "tuple"
        },
        {
          "internalType": "uint32",
          "name": "total",
          "type": "uint32"
        },
        {
          "internalType": "uint32",
          "name": "available",
          "type": "uint32"
        }
      ],
      "stateMutability": "view",
      "type": "function",
      "constant": true
    },
    {
      "inputs": [
        {
          "internalType": "uint256",
          "name": "",
          "type": "uint256"
        }
      ],
      "name": "campaigns",
      "outputs": [
        {
          "components": [
            {
              "internalType": "string",
              "name": "title",
              "type": "string"
            },
            {
              "internalType": "string",
              "name": "description",
              "type": "string"
            },
            {
              "internalType": "uint256",
              "name": "collectedAmount",
              "type": "uint256"
            },
            {
              "internalType": "uint256",
              "name": "deadline",
              "type": "uint256"
            },
            {
              "internalType": "uint256",
              "name": "totalBoxes",
              "type": "uint256"
            },
            {
              "internalType": "uint256",
              "name": "boxesSold",
              "type": "uint256"
            },
            {
              "internalType": "bool",
              "name": "isStopped",
              "type": "bool"
            }
          ],
          "internalType": "struct CampaignMeta",
          "name": "meta",
          "type": "tuple"
        },
        {
          "components": [
            {
              "internalType": "address",
              "name": "owner",
              "type": "address"
            },
            {
              "internalType": "string",
              "name": "ownerPublicKey",
              "type": "string"
            }
          ],
          "internalType": "struct CampaignOwner",
          "name": "owner",
          "type": "tuple"
        },
        {
          "components": [
            {
              "internalType": "string",
              "name": "earTag",
              "type": "string"
            },
            {
              "internalType": "string",
              "name": "name",
              "type": "string"
            },
            {
              "internalType": "string",
              "name": "farm",
              "type": "string"
            },
            {
              "internalType": "uint8",
              "name": "age",
              "type": "uint8"
            }
          ],
          "internalType": "struct CampaignAnimalData",
          "name": "animal",
          "type": "tuple"
        },
        {
          "components": [
            {
              "components": [
                {
                  "internalType": "address payable",
                  "name": "owner",
                  "type": "address"
                },
                {
                  "internalType": "uint8",
                  "name": "share",
                  "type": "uint8"
                }
              ],
              "internalType": "struct Stakeholder",
              "name": "farmer",
              "type": "tuple"
            },
            {
              "components": [
                {
                  "internalType": "address payable",
                  "name": "owner",
                  "type": "address"
                },
                {
                  "internalType": "uint8",
                  "name": "share",
                  "type": "uint8"
                }
              ],
              "internalType": "struct Stakeholder",
              "name": "butcher",
              "type": "tuple"
            },
            {
              "components": [
                {
                  "internalType": "address payable",
                  "name": "owner",
                  "type": "address"
                },
                {
                  "internalType": "uint8",
                  "name": "share",
                  "type": "uint8"
                }
              ],
              "internalType": "struct Stakeholder",
              "name": "delivery",
              "type": "tuple"
            }
          ],
          "internalType": "struct StakeholderList",
          "name": "stakeholders",
          "type": "tuple"
        }
      ],
      "stateMutability": "view",
      "type": "function",
      "constant": true
    },
    {
      "inputs": [],
      "name": "numberOfCampaigns",
      "outputs": [
        {
          "internalType": "uint256",
          "name": "",
          "type": "uint256"
        }
      ],
      "stateMutability": "view",
      "type": "function",
      "constant": true
    },
    {
      "inputs": [
        {
          "internalType": "uint256",
          "name": "",
          "type": "uint256"
        },
        {
          "internalType": "uint256",
          "name": "",
          "type": "uint256"
        }
      ],
      "name": "soldBoxesCampaign",
      "outputs": [
        {
          "internalType": "uint256",
          "name": "id",
          "type": "uint256"
        },
        {
          "components": [
            {
              "internalType": "string",
              "name": "title",
              "type": "string"
            },
            {
              "internalType": "string",
              "name": "description",
              "type": "string"
            },
            {
              "internalType": "uint256",
              "name": "price",
              "type": "uint256"
            }
          ],
          "internalType": "struct Box",
          "name": "box",
          "type": "tuple"
        },
        {
          "internalType": "address",
          "name": "owner",
          "type": "address"
        },
        {
          "internalType": "string",
          "name": "physAddress",
          "type": "string"
        }
      ],
      "stateMutability": "view",
      "type": "function",
      "constant": true
    },
    {
      "inputs": [
        {
          "internalType": "string",
          "name": "_title",
          "type": "string"
        },
        {
          "internalType": "string",
          "name": "_description",
          "type": "string"
        },
        {
          "internalType": "uint32",
          "name": "_duration",
          "type": "uint32"
        },
        {
          "components": [
            {
              "internalType": "address",
              "name": "owner",
              "type": "address"
            },
            {
              "internalType": "string",
              "name": "ownerPublicKey",
              "type": "string"
            }
          ],
          "internalType": "struct CampaignOwner",
          "name": "_campaignOwner",
          "type": "tuple"
        },
        {
          "components": [
            {
              "components": [
                {
                  "internalType": "address payable",
                  "name": "owner",
                  "type": "address"
                },
                {
                  "internalType": "uint8",
                  "name": "share",
                  "type": "uint8"
                }
              ],
              "internalType": "struct Stakeholder",
              "name": "farmer",
              "type": "tuple"
            },
            {
              "components": [
                {
                  "internalType": "address payable",
                  "name": "owner",
                  "type": "address"
                },
                {
                  "internalType": "uint8",
                  "name": "share",
                  "type": "uint8"
                }
              ],
              "internalType": "struct Stakeholder",
              "name": "butcher",
              "type": "tuple"
            },
            {
              "components": [
                {
                  "internalType": "address payable",
                  "name": "owner",
                  "type": "address"
                },
                {
                  "internalType": "uint8",
                  "name": "share",
                  "type": "uint8"
                }
              ],
              "internalType": "struct Stakeholder",
              "name": "delivery",
              "type": "tuple"
            }
          ],
          "internalType": "struct StakeholderList",
          "name": "_stakeholders",
          "type": "tuple"
        },
        {
          "components": [
            {
              "internalType": "string",
              "name": "earTag",
              "type": "string"
            },
            {
              "internalType": "string",
              "name": "name",
              "type": "string"
            },
            {
              "internalType": "string",
              "name": "farm",
              "type": "string"
            },
            {
              "internalType": "uint8",
              "name": "age",
              "type": "uint8"
            }
          ],
          "internalType": "struct CampaignAnimalData",
          "name": "_animal",
          "type": "tuple"
        },
        {
          "components": [
            {
              "internalType": "uint256",
              "name": "id",
              "type": "uint256"
            },
            {
              "components": [
                {
                  "internalType": "string",
                  "name": "title",
                  "type": "string"
                },
                {
                  "internalType": "string",
                  "name": "description",
                  "type": "string"
                },
                {
                  "internalType": "uint256",
                  "name": "price",
                  "type": "uint256"
                }
              ],
              "internalType": "struct Box",
              "name": "box",
              "type": "tuple"
            },
            {
              "internalType": "uint32",
              "name": "total",
              "type": "uint32"
            },
            {
              "internalType": "uint32",
              "name": "available",
              "type": "uint32"
            }
          ],
          "internalType": "struct BoxOffer[]",
          "name": "_boxes",
          "type": "tuple[]"
        }
      ],
      "name": "createCampaign",
      "outputs": [
        {
          "internalType": "uint256",
          "name": "",
          "type": "uint256"
        }
      ],
      "stateMutability": "nonpayable",
      "type": "function"
    },
    {
      "inputs": [],
      "name": "getNumberOfCampaigns",
      "outputs": [
        {
          "internalType": "uint256",
          "name": "",
          "type": "uint256"
        }
      ],
      "stateMutability": "view",
      "type": "function",
      "constant": true
    },
    {
      "inputs": [
        {
          "internalType": "uint256",
          "name": "_campaignId",
          "type": "uint256"
        }
      ],
      "name": "getPublicKey",
      "outputs": [
        {
          "internalType": "string",
          "name": "",
          "type": "string"
        }
      ],
      "stateMutability": "view",
      "type": "function",
      "constant": true
    },
    {
      "inputs": [
        {
          "internalType": "uint256",
          "name": "_campaignId",
          "type": "uint256"
        }
      ],
      "name": "stopCampaign",
      "outputs": [
        {
          "internalType": "bool",
          "name": "",
          "type": "bool"
        }
      ],
      "stateMutability": "nonpayable",
      "type": "function"
    },
    {
      "inputs": [
        {
          "internalType": "uint256",
          "name": "_campaignId",
          "type": "uint256"
        },
        {
          "internalType": "uint256",
          "name": "_boxId",
          "type": "uint256"
        },
        {
          "internalType": "string",
          "name": "_physAddress",
          "type": "string"
        }
      ],
      "name": "buyBox",
      "outputs": [],
      "stateMutability": "payable",
      "type": "function",
      "payable": true
    },
    {
      "inputs": [
        {
          "internalType": "uint256",
          "name": "_campaignId",
          "type": "uint256"
        }
      ],
      "name": "getCampaign",
      "outputs": [
        {
          "components": [
            {
              "internalType": "uint256",
              "name": "id",
              "type": "uint256"
            },
            {
              "components": [
                {
                  "components": [
                    {
                      "internalType": "string",
                      "name": "title",
                      "type": "string"
                    },
                    {
                      "internalType": "string",
                      "name": "description",
                      "type": "string"
                    },
                    {
                      "internalType": "uint256",
                      "name": "collectedAmount",
                      "type": "uint256"
                    },
                    {
                      "internalType": "uint256",
                      "name": "deadline",
                      "type": "uint256"
                    },
                    {
                      "internalType": "uint256",
                      "name": "totalBoxes",
                      "type": "uint256"
                    },
                    {
                      "internalType": "uint256",
                      "name": "boxesSold",
                      "type": "uint256"
                    },
                    {
                      "internalType": "bool",
                      "name": "isStopped",
                      "type": "bool"
                    }
                  ],
                  "internalType": "struct CampaignMeta",
                  "name": "meta",
                  "type": "tuple"
                },
                {
                  "components": [
                    {
                      "internalType": "address",
                      "name": "owner",
                      "type": "address"
                    },
                    {
                      "internalType": "string",
                      "name": "ownerPublicKey",
                      "type": "string"
                    }
                  ],
                  "internalType": "struct CampaignOwner",
                  "name": "owner",
                  "type": "tuple"
                },
                {
                  "components": [
                    {
                      "internalType": "string",
                      "name": "earTag",
                      "type": "string"
                    },
                    {
                      "internalType": "string",
                      "name": "name",
                      "type": "string"
                    },
                    {
                      "internalType": "string",
                      "name": "farm",
                      "type": "string"
                    },
                    {
                      "internalType": "uint8",
                      "name": "age",
                      "type": "uint8"
                    }
                  ],
                  "internalType": "struct CampaignAnimalData",
                  "name": "animal",
                  "type": "tuple"
                },
                {
                  "components": [
                    {
                      "components": [
                        {
                          "internalType": "address payable",
                          "name": "owner",
                          "type": "address"
                        },
                        {
                          "internalType": "uint8",
                          "name": "share",
                          "type": "uint8"
                        }
                      ],
                      "internalType": "struct Stakeholder",
                      "name": "farmer",
                      "type": "tuple"
                    },
                    {
                      "components": [
                        {
                          "internalType": "address payable",
                          "name": "owner",
                          "type": "address"
                        },
                        {
                          "internalType": "uint8",
                          "name": "share",
                          "type": "uint8"
                        }
                      ],
                      "internalType": "struct Stakeholder",
                      "name": "butcher",
                      "type": "tuple"
                    },
                    {
                      "components": [
                        {
                          "internalType": "address payable",
                          "name": "owner",
                          "type": "address"
                        },
                        {
                          "internalType": "uint8",
                          "name": "share",
                          "type": "uint8"
                        }
                      ],
                      "internalType": "struct Stakeholder",
                      "name": "delivery",
                      "type": "tuple"
                    }
                  ],
                  "internalType": "struct StakeholderList",
                  "name": "stakeholders",
                  "type": "tuple"
                }
              ],
              "internalType": "struct Campaign",
              "name": "campaign",
              "type": "tuple"
            }
          ],
          "internalType": "struct CampaignRef",
          "name": "",
          "type": "tuple"
        }
      ],
      "stateMutability": "view",
      "type": "function",
      "constant": true
    },
    {
      "inputs": [],
      "name": "getCampaigns",
      "outputs": [
        {
          "components": [
            {
              "internalType": "uint256",
              "name": "id",
              "type": "uint256"
            },
            {
              "components": [
                {
                  "components": [
                    {
                      "internalType": "string",
                      "name": "title",
                      "type": "string"
                    },
                    {
                      "internalType": "string",
                      "name": "description",
                      "type": "string"
                    },
                    {
                      "internalType": "uint256",
                      "name": "collectedAmount",
                      "type": "uint256"
                    },
                    {
                      "internalType": "uint256",
                      "name": "deadline",
                      "type": "uint256"
                    },
                    {
                      "internalType": "uint256",
                      "name": "totalBoxes",
                      "type": "uint256"
                    },
                    {
                      "internalType": "uint256",
                      "name": "boxesSold",
                      "type": "uint256"
                    },
                    {
                      "internalType": "bool",
                      "name": "isStopped",
                      "type": "bool"
                    }
                  ],
                  "internalType": "struct CampaignMeta",
                  "name": "meta",
                  "type": "tuple"
                },
                {
                  "components": [
                    {
                      "internalType": "address",
                      "name": "owner",
                      "type": "address"
                    },
                    {
                      "internalType": "string",
                      "name": "ownerPublicKey",
                      "type": "string"
                    }
                  ],
                  "internalType": "struct CampaignOwner",
                  "name": "owner",
                  "type": "tuple"
                },
                {
                  "components": [
                    {
                      "internalType": "string",
                      "name": "earTag",
                      "type": "string"
                    },
                    {
                      "internalType": "string",
                      "name": "name",
                      "type": "string"
                    },
                    {
                      "internalType": "string",
                      "name": "farm",
                      "type": "string"
                    },
                    {
                      "internalType": "uint8",
                      "name": "age",
                      "type": "uint8"
                    }
                  ],
                  "internalType": "struct CampaignAnimalData",
                  "name": "animal",
                  "type": "tuple"
                },
                {
                  "components": [
                    {
                      "components": [
                        {
                          "internalType": "address payable",
                          "name": "owner",
                          "type": "address"
                        },
                        {
                          "internalType": "uint8",
                          "name": "share",
                          "type": "uint8"
                        }
                      ],
                      "internalType": "struct Stakeholder",
                      "name": "farmer",
                      "type": "tuple"
                    },
                    {
                      "components": [
                        {
                          "internalType": "address payable",
                          "name": "owner",
                          "type": "address"
                        },
                        {
                          "internalType": "uint8",
                          "name": "share",
                          "type": "uint8"
                        }
                      ],
                      "internalType": "struct Stakeholder",
                      "name": "butcher",
                      "type": "tuple"
                    },
                    {
                      "components": [
                        {
                          "internalType": "address payable",
                          "name": "owner",
                          "type": "address"
                        },
                        {
                          "internalType": "uint8",
                          "name": "share",
                          "type": "uint8"
                        }
                      ],
                      "internalType": "struct Stakeholder",
                      "name": "delivery",
                      "type": "tuple"
                    }
                  ],
                  "internalType": "struct StakeholderList",
                  "name": "stakeholders",
                  "type": "tuple"
                }
              ],
              "internalType": "struct Campaign",
              "name": "campaign",
              "type": "tuple"
            }
          ],
          "internalType": "struct CampaignRef[]",
          "name": "",
          "type": "tuple[]"
        }
      ],
      "stateMutability": "view",
      "type": "function",
      "constant": true
    },
    {
      "inputs": [],
      "name": "getOngoingCampaigns",
      "outputs": [
        {
          "components": [
            {
              "internalType": "uint256",
              "name": "id",
              "type": "uint256"
            },
            {
              "components": [
                {
                  "components": [
                    {
                      "internalType": "string",
                      "name": "title",
                      "type": "string"
                    },
                    {
                      "internalType": "string",
                      "name": "description",
                      "type": "string"
                    },
                    {
                      "internalType": "uint256",
                      "name": "collectedAmount",
                      "type": "uint256"
                    },
                    {
                      "internalType": "uint256",
                      "name": "deadline",
                      "type": "uint256"
                    },
                    {
                      "internalType": "uint256",
                      "name": "totalBoxes",
                      "type": "uint256"
                    },
                    {
                      "internalType": "uint256",
                      "name": "boxesSold",
                      "type": "uint256"
                    },
                    {
                      "internalType": "bool",
                      "name": "isStopped",
                      "type": "bool"
                    }
                  ],
                  "internalType": "struct CampaignMeta",
                  "name": "meta",
                  "type": "tuple"
                },
                {
                  "components": [
                    {
                      "internalType": "address",
                      "name": "owner",
                      "type": "address"
                    },
                    {
                      "internalType": "string",
                      "name": "ownerPublicKey",
                      "type": "string"
                    }
                  ],
                  "internalType": "struct CampaignOwner",
                  "name": "owner",
                  "type": "tuple"
                },
                {
                  "components": [
                    {
                      "internalType": "string",
                      "name": "earTag",
                      "type": "string"
                    },
                    {
                      "internalType": "string",
                      "name": "name",
                      "type": "string"
                    },
                    {
                      "internalType": "string",
                      "name": "farm",
                      "type": "string"
                    },
                    {
                      "internalType": "uint8",
                      "name": "age",
                      "type": "uint8"
                    }
                  ],
                  "internalType": "struct CampaignAnimalData",
                  "name": "animal",
                  "type": "tuple"
                },
                {
                  "components": [
                    {
                      "components": [
                        {
                          "internalType": "address payable",
                          "name": "owner",
                          "type": "address"
                        },
                        {
                          "internalType": "uint8",
                          "name": "share",
                          "type": "uint8"
                        }
                      ],
                      "internalType": "struct Stakeholder",
                      "name": "farmer",
                      "type": "tuple"
                    },
                    {
                      "components": [
                        {
                          "internalType": "address payable",
                          "name": "owner",
                          "type": "address"
                        },
                        {
                          "internalType": "uint8",
                          "name": "share",
                          "type": "uint8"
                        }
                      ],
                      "internalType": "struct Stakeholder",
                      "name": "butcher",
                      "type": "tuple"
                    },
                    {
                      "components": [
                        {
                          "internalType": "address payable",
                          "name": "owner",
                          "type": "address"
                        },
                        {
                          "internalType": "uint8",
                          "name": "share",
                          "type": "uint8"
                        }
                      ],
                      "internalType": "struct Stakeholder",
                      "name": "delivery",
                      "type": "tuple"
                    }
                  ],
                  "internalType": "struct StakeholderList",
                  "name": "stakeholders",
                  "type": "tuple"
                }
              ],
              "internalType": "struct Campaign",
              "name": "campaign",
              "type": "tuple"
            }
          ],
          "internalType": "struct CampaignRef[]",
          "name": "",
          "type": "tuple[]"
        }
      ],
      "stateMutability": "view",
      "type": "function",
      "constant": true
    },
    {
      "inputs": [
        {
          "internalType": "uint256",
          "name": "_campaignId",
          "type": "uint256"
        }
      ],
      "name": "getBoxes",
      "outputs": [
        {
          "components": [
            {
              "internalType": "uint256",
              "name": "id",
              "type": "uint256"
            },
            {
              "components": [
                {
                  "internalType": "string",
                  "name": "title",
                  "type": "string"
                },
                {
                  "internalType": "string",
                  "name": "description",
                  "type": "string"
                },
                {
                  "internalType": "uint256",
                  "name": "price",
                  "type": "uint256"
                }
              ],
              "internalType": "struct Box",
              "name": "box",
              "type": "tuple"
            },
            {
              "internalType": "uint32",
              "name": "total",
              "type": "uint32"
            },
            {
              "internalType": "uint32",
              "name": "available",
              "type": "uint32"
            }
          ],
          "internalType": "struct BoxOffer[]",
          "name": "",
          "type": "tuple[]"
        }
      ],
      "stateMutability": "view",
      "type": "function",
      "constant": true
    },
    {
      "inputs": [
        {
          "internalType": "uint256",
          "name": "_campaignId",
          "type": "uint256"
        }
      ],
      "name": "getSoldBoxes",
      "outputs": [
        {
          "components": [
            {
              "internalType": "uint256",
              "name": "id",
              "type": "uint256"
            },
            {
              "components": [
                {
                  "internalType": "string",
                  "name": "title",
                  "type": "string"
                },
                {
                  "internalType": "string",
                  "name": "description",
                  "type": "string"
                },
                {
                  "internalType": "uint256",
                  "name": "price",
                  "type": "uint256"
                }
              ],
              "internalType": "struct Box",
              "name": "box",
              "type": "tuple"
            },
            {
              "internalType": "address",
              "name": "owner",
              "type": "address"
            },
            {
              "internalType": "string",
              "name": "physAddress",
              "type": "string"
            }
          ],
          "internalType": "struct BoxSellRef[]",
          "name": "",
          "type": "tuple[]"
        }
      ],
      "stateMutability": "view",
      "type": "function",
      "constant": true
    },
    {
      "inputs": [
        {
          "internalType": "uint256",
          "name": "_campaignId",
          "type": "uint256"
        }
      ],
      "name": "payOut",
      "outputs": [],
      "stateMutability": "nonpayable",
      "type": "function"
    }
  ],
  "bytecode": "0x6080604052600060035534801561001557600080fd5b50615dbb80620000266000396000f3fe6080604052600436106100e85760003560e01c806375d2c1ce1161008a578063d30c1be111610059578063d30c1be114610350578063da333ca61461037b578063e4aafc2c146103a4578063ec6c8216146103cf576100e8565b806375d2c1ce1461026b578063a6b03633146102a8578063b347f9ec146102d3578063b8d91ca514610310576100e8565b80633267f8ab116100c65780633267f8ab1461019857806332e75749146101d55780635598f8cc146102125780636e8ae0351461024f576100e8565b806307ca140d146100ed5780631355879d14610118578063141961bc14610158575b600080fd5b3480156100f957600080fd5b5061010261040c565b60405161010f9190613ce1565b60405180910390f35b34801561012457600080fd5b5061013f600480360381019061013a9190613d3c565b610412565b60405161014f9493929190613e9a565b60405180910390f35b34801561016457600080fd5b5061017f600480360381019061017a9190613ee6565b6105b7565b60405161018f949392919061416e565b60405180910390f35b3480156101a457600080fd5b506101bf60048036038101906101ba9190613ee6565b610bc6565b6040516101cc9190614354565b60405180910390f35b3480156101e157600080fd5b506101fc60048036038101906101f79190613ee6565b610dd6565b60405161020991906144a2565b60405180910390f35b34801561021e57600080fd5b5061023960048036038101906102349190613ee6565b6110f8565b6040516102469190614706565b60405180910390f35b6102696004803603810190610264919061485d565b61174b565b005b34801561027757600080fd5b50610292600480360381019061028d9190613ee6565b611b30565b60405161029f9190614916565b60405180910390f35b3480156102b457600080fd5b506102bd611be0565b6040516102ca9190614a37565b60405180910390f35b3480156102df57600080fd5b506102fa60048036038101906102f59190614f15565b6122c6565b6040516103079190613ce1565b60405180910390f35b34801561031c57600080fd5b5061033760048036038101906103329190613d3c565b612708565b6040516103479493929190615055565b60405180910390f35b34801561035c57600080fd5b50610365612925565b6040516103729190614a37565b60405180910390f35b34801561038757600080fd5b506103a2600480360381019061039d9190613ee6565b613025565b005b3480156103b057600080fd5b506103b9613260565b6040516103c69190613ce1565b60405180910390f35b3480156103db57600080fd5b506103f660048036038101906103f19190613ee6565b61326a565b60405161040391906150b7565b60405180910390f35b60035481565b6001602052816000526040600020818154811061042e57600080fd5b9060005260206000209060050201600091509150508060000154908060010160405180606001604052908160008201805461046890615101565b80601f016020809104026020016040519081016040528092919081815260200182805461049490615101565b80156104e15780601f106104b6576101008083540402835291602001916104e1565b820191906000526020600020905b8154815290600101906020018083116104c457829003601f168201915b505050505081526020016001820180546104fa90615101565b80601f016020809104026020016040519081016040528092919081815260200182805461052690615101565b80156105735780601f1061054857610100808354040283529160200191610573565b820191906000526020600020905b81548152906001019060200180831161055657829003601f168201915b50505050508152602001600282015481525050908060040160009054906101000a900463ffffffff16908060040160049054906101000a900463ffffffff16905084565b6000602052806000526040600020600091509050806000016040518060e00160405290816000820180546105ea90615101565b80601f016020809104026020016040519081016040528092919081815260200182805461061690615101565b80156106635780601f1061063857610100808354040283529160200191610663565b820191906000526020600020905b81548152906001019060200180831161064657829003601f168201915b5050505050815260200160018201805461067c90615101565b80601f01602080910402602001604051908101604052809291908181526020018280546106a890615101565b80156106f55780601f106106ca576101008083540402835291602001916106f5565b820191906000526020600020905b8154815290600101906020018083116106d857829003601f168201915b50505050508152602001600282015481526020016003820154815260200160048201548152602001600582015481526020016006820160009054906101000a900460ff16151515158152505090806007016040518060400160405290816000820160009054906101000a900473ffffffffffffffffffffffffffffffffffffffff1673ffffffffffffffffffffffffffffffffffffffff1673ffffffffffffffffffffffffffffffffffffffff1681526020016001820180546107b790615101565b80601f01602080910402602001604051908101604052809291908181526020018280546107e390615101565b80156108305780601f1061080557610100808354040283529160200191610830565b820191906000526020600020905b81548152906001019060200180831161081357829003601f168201915b505050505081525050908060090160405180608001604052908160008201805461085990615101565b80601f016020809104026020016040519081016040528092919081815260200182805461088590615101565b80156108d25780601f106108a7576101008083540402835291602001916108d2565b820191906000526020600020905b8154815290600101906020018083116108b557829003601f168201915b505050505081526020016001820180546108eb90615101565b80601f016020809104026020016040519081016040528092919081815260200182805461091790615101565b80156109645780601f1061093957610100808354040283529160200191610964565b820191906000526020600020905b81548152906001019060200180831161094757829003601f168201915b5050505050815260200160028201805461097d90615101565b80601f01602080910402602001604051908101604052809291908181526020018280546109a990615101565b80156109f65780601f106109cb576101008083540402835291602001916109f6565b820191906000526020600020905b8154815290600101906020018083116109d957829003601f168201915b505050505081526020016003820160009054906101000a900460ff1660ff1660ff16815250509080600d01604051806060016040529081600082016040518060400160405290816000820160009054906101000a900473ffffffffffffffffffffffffffffffffffffffff1673ffffffffffffffffffffffffffffffffffffffff1673ffffffffffffffffffffffffffffffffffffffff1681526020016000820160149054906101000a900460ff1660ff1660ff16815250508152602001600182016040518060400160405290816000820160009054906101000a900473ffffffffffffffffffffffffffffffffffffffff1673ffffffffffffffffffffffffffffffffffffffff1673ffffffffffffffffffffffffffffffffffffffff1681526020016000820160149054906101000a900460ff1660ff1660ff16815250508152602001600282016040518060400160405290816000820160009054906101000a900473ffffffffffffffffffffffffffffffffffffffff1673ffffffffffffffffffffffffffffffffffffffff1673ffffffffffffffffffffffffffffffffffffffff1681526020016000820160149054906101000a900460ff1660ff1660ff168152505081525050905084565b6060600060016000848152602001908152602001600020905080805480602002602001604051908101604052809291908181526020016000905b82821015610dca57838290600052602060002090600502016040518060800160405290816000820154815260200160018201604051806060016040529081600082018054610c4d90615101565b80601f0160208091040260200160405190810160405280929190818152602001828054610c7990615101565b8015610cc65780601f10610c9b57610100808354040283529160200191610cc6565b820191906000526020600020905b815481529060010190602001808311610ca957829003601f168201915b50505050508152602001600182018054610cdf90615101565b80601f0160208091040260200160405190810160405280929190818152602001828054610d0b90615101565b8015610d585780601f10610d2d57610100808354040283529160200191610d58565b820191906000526020600020905b815481529060010190602001808311610d3b57829003601f168201915b5050505050815260200160028201548152505081526020016004820160009054906101000a900463ffffffff1663ffffffff1663ffffffff1681526020016004820160049054906101000a900463ffffffff1663ffffffff1663ffffffff168152505081526020019060010190610c00565b50505050915050919050565b6060600080600084815260200190815260200160002090506000816000016005015467ffffffffffffffff811115610e1157610e10614732565b5b604051908082528060200260200182016040528015610e4a57816020015b610e37613a60565b815260200190600190039081610e2f5790505b50905060005b81518110156110ed576002600086815260200190815260200160002060008281526020019081526020016000206040518060800160405290816000820154815260200160018201604051806060016040529081600082018054610eb290615101565b80601f0160208091040260200160405190810160405280929190818152602001828054610ede90615101565b8015610f2b5780601f10610f0057610100808354040283529160200191610f2b565b820191906000526020600020905b815481529060010190602001808311610f0e57829003601f168201915b50505050508152602001600182018054610f4490615101565b80601f0160208091040260200160405190810160405280929190818152602001828054610f7090615101565b8015610fbd5780601f10610f9257610100808354040283529160200191610fbd565b820191906000526020600020905b815481529060010190602001808311610fa057829003601f168201915b5050505050815260200160028201548152505081526020016004820160009054906101000a900473ffffffffffffffffffffffffffffffffffffffff1673ffffffffffffffffffffffffffffffffffffffff1673ffffffffffffffffffffffffffffffffffffffff16815260200160058201805461103a90615101565b80601f016020809104026020016040519081016040528092919081815260200182805461106690615101565b80156110b35780601f10611088576101008083540402835291602001916110b3565b820191906000526020600020905b81548152906001019060200180831161109657829003601f168201915b5050505050815250508282815181106110cf576110ce615132565b5b602002602001018190525080806110e590615190565b915050610e50565b508092505050919050565b611100613aa4565b600080600084815260200190815260200160002090506000604051806040016040528085815260200183604051806080016040529081600082016040518060e001604052908160008201805461115590615101565b80601f016020809104026020016040519081016040528092919081815260200182805461118190615101565b80156111ce5780601f106111a3576101008083540402835291602001916111ce565b820191906000526020600020905b8154815290600101906020018083116111b157829003601f168201915b505050505081526020016001820180546111e790615101565b80601f016020809104026020016040519081016040528092919081815260200182805461121390615101565b80156112605780601f1061123557610100808354040283529160200191611260565b820191906000526020600020905b81548152906001019060200180831161124357829003601f168201915b50505050508152602001600282015481526020016003820154815260200160048201548152602001600582015481526020016006820160009054906101000a900460ff1615151515815250508152602001600782016040518060400160405290816000820160009054906101000a900473ffffffffffffffffffffffffffffffffffffffff1673ffffffffffffffffffffffffffffffffffffffff1673ffffffffffffffffffffffffffffffffffffffff16815260200160018201805461132690615101565b80601f016020809104026020016040519081016040528092919081815260200182805461135290615101565b801561139f5780601f106113745761010080835404028352916020019161139f565b820191906000526020600020905b81548152906001019060200180831161138257829003601f168201915b5050505050815250508152602001600982016040518060800160405290816000820180546113cc90615101565b80601f01602080910402602001604051908101604052809291908181526020018280546113f890615101565b80156114455780601f1061141a57610100808354040283529160200191611445565b820191906000526020600020905b81548152906001019060200180831161142857829003601f168201915b5050505050815260200160018201805461145e90615101565b80601f016020809104026020016040519081016040528092919081815260200182805461148a90615101565b80156114d75780601f106114ac576101008083540402835291602001916114d7565b820191906000526020600020905b8154815290600101906020018083116114ba57829003601f168201915b505050505081526020016002820180546114f090615101565b80601f016020809104026020016040519081016040528092919081815260200182805461151c90615101565b80156115695780601f1061153e57610100808354040283529160200191611569565b820191906000526020600020905b81548152906001019060200180831161154c57829003601f168201915b505050505081526020016003820160009054906101000a900460ff1660ff1660ff16815250508152602001600d8201604051806060016040529081600082016040518060400160405290816000820160009054906101000a900473ffffffffffffffffffffffffffffffffffffffff1673ffffffffffffffffffffffffffffffffffffffff1673ffffffffffffffffffffffffffffffffffffffff1681526020016000820160149054906101000a900460ff1660ff1660ff16815250508152602001600182016040518060400160405290816000820160009054906101000a900473ffffffffffffffffffffffffffffffffffffffff1673ffffffffffffffffffffffffffffffffffffffff1673ffffffffffffffffffffffffffffffffffffffff1681526020016000820160149054906101000a900460ff1660ff1660ff16815250508152602001600282016040518060400160405290816000820160009054906101000a900473ffffffffffffffffffffffffffffffffffffffff1673ffffffffffffffffffffffffffffffffffffffff1673ffffffffffffffffffffffffffffffffffffffff1681526020016000820160149054906101000a900460ff1660ff1660ff1681525050815250508152505081525090508092505050919050565b600080600085815260200190815260200160002090508060000160060160009054906101000a900460ff16156117b6576040517f08c379a00000000000000000000000000000000000000000000000000000000081526004016117ad90615224565b60405180910390fd5b428160000160030154116117ff576040517f08c379a00000000000000000000000000000000000000000000000000000000081526004016117f690615290565b60405180910390fd5b600060016000868152602001908152602001600020848154811061182657611825615132565b5b906000526020600020906005020190508381600001541461187c576040517f08c379a0000000000000000000000000000000000000000000000000000000008152600401611873906152fc565b60405180910390fd5b60008160040160049054906101000a900463ffffffff1663ffffffff16116118d9576040517f08c379a00000000000000000000000000000000000000000000000000000000081526004016118d09061538e565b60405180910390fd5b6000816001016040518060600160405290816000820180546118fa90615101565b80601f016020809104026020016040519081016040528092919081815260200182805461192690615101565b80156119735780601f1061194857610100808354040283529160200191611973565b820191906000526020600020905b81548152906001019060200180831161195657829003601f168201915b5050505050815260200160018201805461198c90615101565b80601f01602080910402602001604051908101604052809291908181526020018280546119b890615101565b8015611a055780601f106119da57610100808354040283529160200191611a05565b820191906000526020600020905b8154815290600101906020018083116119e857829003601f168201915b50505050508152602001600282015481525050905060003490508160400151811015611a66576040517f08c379a0000000000000000000000000000000000000000000000000000000008152600401611a5d906153fa565b60405180910390fd5b611a72873384886133de565b60018360040160048282829054906101000a900463ffffffff16611a96919061541a565b92506101000a81548163ffffffff021916908363ffffffff1602179055506001846000016005016000828254611acc919061544e565b9250508190555080846000016002016000828254611aea919061544e565b925050819055508360000160040154846000016005015403611b275760018460000160060160006101000a81548160ff0219169083151502179055505b50505050505050565b606060008060008481526020019081526020016000209050806007016001018054611b5a90615101565b80601f0160208091040260200160405190810160405280929190818152602001828054611b8690615101565b8015611bd35780601f10611ba857610100808354040283529160200191611bd3565b820191906000526020600020905b815481529060010190602001808311611bb657829003601f168201915b5050505050915050919050565b6060600060035467ffffffffffffffff811115611c0057611bff614732565b5b604051908082528060200260200182016040528015611c3957816020015b611c26613aa4565b815260200190600190039081611c1e5790505b50905060005b6003548110156122be57600080600083815260200190815260200160002090506000604051806040016040528084815260200183604051806080016040529081600082016040518060e0016040529081600082018054611c9e90615101565b80601f0160208091040260200160405190810160405280929190818152602001828054611cca90615101565b8015611d175780601f10611cec57610100808354040283529160200191611d17565b820191906000526020600020905b815481529060010190602001808311611cfa57829003601f168201915b50505050508152602001600182018054611d3090615101565b80601f0160208091040260200160405190810160405280929190818152602001828054611d5c90615101565b8015611da95780601f10611d7e57610100808354040283529160200191611da9565b820191906000526020600020905b815481529060010190602001808311611d8c57829003601f168201915b50505050508152602001600282015481526020016003820154815260200160048201548152602001600582015481526020016006820160009054906101000a900460ff1615151515815250508152602001600782016040518060400160405290816000820160009054906101000a900473ffffffffffffffffffffffffffffffffffffffff1673ffffffffffffffffffffffffffffffffffffffff1673ffffffffffffffffffffffffffffffffffffffff168152602001600182018054611e6f90615101565b80601f0160208091040260200160405190810160405280929190818152602001828054611e9b90615101565b8015611ee85780601f10611ebd57610100808354040283529160200191611ee8565b820191906000526020600020905b815481529060010190602001808311611ecb57829003601f168201915b505050505081525050815260200160098201604051806080016040529081600082018054611f1590615101565b80601f0160208091040260200160405190810160405280929190818152602001828054611f4190615101565b8015611f8e5780601f10611f6357610100808354040283529160200191611f8e565b820191906000526020600020905b815481529060010190602001808311611f7157829003601f168201915b50505050508152602001600182018054611fa790615101565b80601f0160208091040260200160405190810160405280929190818152602001828054611fd390615101565b80156120205780601f10611ff557610100808354040283529160200191612020565b820191906000526020600020905b81548152906001019060200180831161200357829003601f168201915b5050505050815260200160028201805461203990615101565b80601f016020809104026020016040519081016040528092919081815260200182805461206590615101565b80156120b25780601f10612087576101008083540402835291602001916120b2565b820191906000526020600020905b81548152906001019060200180831161209557829003601f168201915b505050505081526020016003820160009054906101000a900460ff1660ff1660ff16815250508152602001600d8201604051806060016040529081600082016040518060400160405290816000820160009054906101000a900473ffffffffffffffffffffffffffffffffffffffff1673ffffffffffffffffffffffffffffffffffffffff1673ffffffffffffffffffffffffffffffffffffffff1681526020016000820160149054906101000a900460ff1660ff1660ff16815250508152602001600182016040518060400160405290816000820160009054906101000a900473ffffffffffffffffffffffffffffffffffffffff1673ffffffffffffffffffffffffffffffffffffffff1673ffffffffffffffffffffffffffffffffffffffff1681526020016000820160149054906101000a900460ff1660ff1660ff16815250508152602001600282016040518060400160405290816000820160009054906101000a900473ffffffffffffffffffffffffffffffffffffffff1673ffffffffffffffffffffffffffffffffffffffff1673ffffffffffffffffffffffffffffffffffffffff1681526020016000820160149054906101000a900460ff1660ff1660ff1681525050815250508152505081525090508084848151811061229e5761229d615132565b5b6020026020010181905250505080806122b690615190565b915050611c3f565b508091505090565b6000808663ffffffff1611612310576040517f08c379a0000000000000000000000000000000000000000000000000000000008152600401612307906154f0565b60405180910390fd5b62375f008663ffffffff16111561235c576040517f08c379a000000000000000000000000000000000000000000000000000000000815260040161235390615582565b60405180910390fd5b600042905060008763ffffffff1682612375919061544e565b90508181116123b9576040517f08c379a00000000000000000000000000000000000000000000000000000000081526004016123b0906155ee565b60405180910390fd5b6123c2866134e2565b6123cb84613691565b60006123d685613825565b9050600080600060035481526020019081526020016000209050888160070160008201518160000160006101000a81548173ffffffffffffffffffffffffffffffffffffffff021916908373ffffffffffffffffffffffffffffffffffffffff1602179055506020820151816001019080519060200190612458929190613ac4565b509050508b816000016000019080519060200190612477929190613ac4565b508a816000016001019080519060200190612493929190613ac4565b506000816000016002018190555082816000016003018190555060008160000160060160006101000a81548160ff0219169083151502179055508181600001600401819055506000816000016005018190555086816009016000820151816000019080519060200190612507929190613ac4565b506020820151816001019080519060200190612524929190613ac4565b506040820151816002019080519060200190612541929190613ac4565b5060608201518160030160006101000a81548160ff021916908360ff1602179055509050508781600d0160008201518160000160008201518160000160006101000a81548173ffffffffffffffffffffffffffffffffffffffff021916908373ffffffffffffffffffffffffffffffffffffffff16021790555060208201518160000160146101000a81548160ff021916908360ff160217905550505060208201518160010160008201518160000160006101000a81548173ffffffffffffffffffffffffffffffffffffffff021916908373ffffffffffffffffffffffffffffffffffffffff16021790555060208201518160000160146101000a81548160ff021916908360ff160217905550505060408201518160020160008201518160000160006101000a81548173ffffffffffffffffffffffffffffffffffffffff021916908373ffffffffffffffffffffffffffffffffffffffff16021790555060208201518160000160146101000a81548160ff021916908360ff16021790555050509050506126d08661388d565b600360008154809291906126e390615190565b919050555060016003546126f7919061560e565b945050505050979650505050505050565b6002602052816000526040600020602052806000526040600020600091509150508060000154908060010160405180606001604052908160008201805461274e90615101565b80601f016020809104026020016040519081016040528092919081815260200182805461277a90615101565b80156127c75780601f1061279c576101008083540402835291602001916127c7565b820191906000526020600020905b8154815290600101906020018083116127aa57829003601f168201915b505050505081526020016001820180546127e090615101565b80601f016020809104026020016040519081016040528092919081815260200182805461280c90615101565b80156128595780601f1061282e57610100808354040283529160200191612859565b820191906000526020600020905b81548152906001019060200180831161283c57829003601f168201915b50505050508152602001600282015481525050908060040160009054906101000a900473ffffffffffffffffffffffffffffffffffffffff16908060050180546128a290615101565b80601f01602080910402602001604051908101604052809291908181526020018280546128ce90615101565b801561291b5780601f106128f05761010080835404028352916020019161291b565b820191906000526020600020905b8154815290600101906020018083116128fe57829003601f168201915b5050505050905084565b6060600060035467ffffffffffffffff81111561294557612944614732565b5b60405190808252806020026020018201604052801561297e57816020015b61296b613aa4565b8152602001906001900390816129635790505b50905060005b60035481101561301d57600080600083815260200190815260200160002090508060000160060160009054906101000a900460ff16613009576000604051806040016040528084815260200183604051806080016040529081600082016040518060e00160405290816000820180546129fc90615101565b80601f0160208091040260200160405190810160405280929190818152602001828054612a2890615101565b8015612a755780601f10612a4a57610100808354040283529160200191612a75565b820191906000526020600020905b815481529060010190602001808311612a5857829003601f168201915b50505050508152602001600182018054612a8e90615101565b80601f0160208091040260200160405190810160405280929190818152602001828054612aba90615101565b8015612b075780601f10612adc57610100808354040283529160200191612b07565b820191906000526020600020905b815481529060010190602001808311612aea57829003601f168201915b50505050508152602001600282015481526020016003820154815260200160048201548152602001600582015481526020016006820160009054906101000a900460ff1615151515815250508152602001600782016040518060400160405290816000820160009054906101000a900473ffffffffffffffffffffffffffffffffffffffff1673ffffffffffffffffffffffffffffffffffffffff1673ffffffffffffffffffffffffffffffffffffffff168152602001600182018054612bcd90615101565b80601f0160208091040260200160405190810160405280929190818152602001828054612bf990615101565b8015612c465780601f10612c1b57610100808354040283529160200191612c46565b820191906000526020600020905b815481529060010190602001808311612c2957829003601f168201915b505050505081525050815260200160098201604051806080016040529081600082018054612c7390615101565b80601f0160208091040260200160405190810160405280929190818152602001828054612c9f90615101565b8015612cec5780601f10612cc157610100808354040283529160200191612cec565b820191906000526020600020905b815481529060010190602001808311612ccf57829003601f168201915b50505050508152602001600182018054612d0590615101565b80601f0160208091040260200160405190810160405280929190818152602001828054612d3190615101565b8015612d7e5780601f10612d5357610100808354040283529160200191612d7e565b820191906000526020600020905b815481529060010190602001808311612d6157829003601f168201915b50505050508152602001600282018054612d9790615101565b80601f0160208091040260200160405190810160405280929190818152602001828054612dc390615101565b8015612e105780601f10612de557610100808354040283529160200191612e10565b820191906000526020600020905b815481529060010190602001808311612df357829003601f168201915b505050505081526020016003820160009054906101000a900460ff1660ff1660ff16815250508152602001600d8201604051806060016040529081600082016040518060400160405290816000820160009054906101000a900473ffffffffffffffffffffffffffffffffffffffff1673ffffffffffffffffffffffffffffffffffffffff1673ffffffffffffffffffffffffffffffffffffffff1681526020016000820160149054906101000a900460ff1660ff1660ff16815250508152602001600182016040518060400160405290816000820160009054906101000a900473ffffffffffffffffffffffffffffffffffffffff1673ffffffffffffffffffffffffffffffffffffffff1673ffffffffffffffffffffffffffffffffffffffff1681526020016000820160149054906101000a900460ff1660ff1660ff16815250508152602001600282016040518060400160405290816000820160009054906101000a900473ffffffffffffffffffffffffffffffffffffffff1673ffffffffffffffffffffffffffffffffffffffff1673ffffffffffffffffffffffffffffffffffffffff1681526020016000820160149054906101000a900460ff1660ff1660ff16815250508152505081525050815250905080848481518110612ffc57612ffb615132565b5b6020026020010181905250505b50808061301590615190565b915050612984565b508091505090565b600080600083815260200190815260200160002090508060000160060160009054906101000a900460ff1661308f576040517f08c379a00000000000000000000000000000000000000000000000000000000081526004016130869061568e565b60405180910390fd5b80600001600401548160000160050154146130df576040517f08c379a00000000000000000000000000000000000000000000000000000000081526004016130d6906156fa565b60405180910390fd5b60006130ea826139be565b905060006130f7836139f4565b9050600061310484613a2a565b905083600d0160000160000160009054906101000a900473ffffffffffffffffffffffffffffffffffffffff1673ffffffffffffffffffffffffffffffffffffffff166108fc849081150290604051600060405180830381858888f19350505050158015613176573d6000803e3d6000fd5b5083600d0160010160000160009054906101000a900473ffffffffffffffffffffffffffffffffffffffff1673ffffffffffffffffffffffffffffffffffffffff166108fc839081150290604051600060405180830381858888f193505050501580156131e7573d6000803e3d6000fd5b5083600d0160020160000160009054906101000a900473ffffffffffffffffffffffffffffffffffffffff1673ffffffffffffffffffffffffffffffffffffffff166108fc829081150290604051600060405180830381858888f19350505050158015613258573d6000803e3d6000fd5b505050505050565b6000600354905090565b60008060008084815260200190815260200160002090508060000160060160009054906101000a900460ff16156132d6576040517f08c379a00000000000000000000000000000000000000000000000000000000081526004016132cd90615766565b60405180910390fd5b4281600001600301541161331f576040517f08c379a000000000000000000000000000000000000000000000000000000000815260040161331690615290565b60405180910390fd5b8060070160000160009054906101000a900473ffffffffffffffffffffffffffffffffffffffff1673ffffffffffffffffffffffffffffffffffffffff163373ffffffffffffffffffffffffffffffffffffffff16146133b4576040517f08c379a00000000000000000000000000000000000000000000000000000000081526004016133ab906157f8565b60405180910390fd5b60018160000160060160006101000a81548160ff0219169083151502179055506001915050919050565b6000806000868152602001908152602001600020905060008160000160050154905060006002600088815260200190815260200160002060008381526020019081526020016000209050818160000181905550858160040160006101000a81548173ffffffffffffffffffffffffffffffffffffffff021916908373ffffffffffffffffffffffffffffffffffffffff16021790555084816001016000820151816000019080519060200190613495929190613ac4565b5060208201518160010190805190602001906134b2929190613ac4565b5060408201518160020155905050838160050190805190602001906134d8929190613ac4565b5050505050505050565b600081600001516020015160ff161180156135095750606481600001516020015160ff1611155b613548576040517f08c379a000000000000000000000000000000000000000000000000000000000815260040161353f906158b0565b60405180910390fd5b600081602001516020015160ff1611801561356f5750606481602001516020015160ff1611155b6135ae576040517f08c379a00000000000000000000000000000000000000000000000000000000081526004016135a590615968565b60405180910390fd5b600081604001516020015160ff161180156135d55750606481604001516020015160ff1611155b613614576040517f08c379a000000000000000000000000000000000000000000000000000000000815260040161360b90615a20565b60405180910390fd5b600081604001516020015182602001516020015183600001516020015161363b9190615a40565b6136459190615a40565b905060648160ff161461368d576040517f08c379a000000000000000000000000000000000000000000000000000000000815260040161368490615ae9565b60405180910390fd5b5050565b6000805b82518110156137dd5760008382815181106136b3576136b2615132565b5b602002602001015190506000816040015163ffffffff161161370a576040517f08c379a000000000000000000000000000000000000000000000000000000000815260040161370190615b7b565b60405180910390fd5b806060015163ffffffff16816040015163ffffffff1614613760576040517f08c379a000000000000000000000000000000000000000000000000000000000815260040161375790615c0d565b60405180910390fd5b806040015163ffffffff1683613776919061544e565b925060008160200151905060008160400151116137c8576040517f08c379a00000000000000000000000000000000000000000000000000000000081526004016137bf90615c9f565b60405180910390fd5b505080806137d590615190565b915050613695565b5060008111613821576040517f08c379a000000000000000000000000000000000000000000000000000000000815260040161381890615d0b565b60405180910390fd5b5050565b6000806000905060005b835181101561388357600084828151811061384d5761384c615132565b5b60200260200101519050806040015163ffffffff168361386d919061544e565b925050808061387b90615190565b91505061382f565b5080915050919050565b6000600160006003548152602001908152602001600020905060005b82518110156139b95760008382815181106138c7576138c6615132565b5b602002602001015190508281908060018154018082558091505060019003906000526020600020906005020160009091909190915060008201518160000155602082015181600101600082015181600001908051906020019061392b929190613ac4565b506020820151816001019080519060200190613948929190613ac4565b5060408201518160020155505060408201518160040160006101000a81548163ffffffff021916908363ffffffff16021790555060608201518160040160046101000a81548163ffffffff021916908363ffffffff16021790555050505080806139b190615190565b9150506138a9565b505050565b600081600d0160000160000160149054906101000a900460ff1660ff1682600001600201546139ed9190615d2b565b9050919050565b600081600d0160010160000160149054906101000a900460ff1660ff168260000160020154613a239190615d2b565b9050919050565b600081600d0160020160000160149054906101000a900460ff1660ff168260000160020154613a599190615d2b565b9050919050565b604051806080016040528060008152602001613a7a613b4a565b8152602001600073ffffffffffffffffffffffffffffffffffffffff168152602001606081525090565b604051806040016040528060008152602001613abe613b6b565b81525090565b828054613ad090615101565b90600052602060002090601f016020900481019282613af25760008555613b39565b82601f10613b0b57805160ff1916838001178555613b39565b82800160010185558215613b39579182015b82811115613b38578251825591602001919060010190613b1d565b5b509050613b469190613bab565b5090565b60405180606001604052806060815260200160608152602001600081525090565b6040518060800160405280613b7e613bc8565b8152602001613b8b613c07565b8152602001613b98613c37565b8152602001613ba5613c62565b81525090565b5b80821115613bc4576000816000905550600101613bac565b5090565b6040518060e001604052806060815260200160608152602001600081526020016000815260200160008152602001600081526020016000151581525090565b6040518060400160405280600073ffffffffffffffffffffffffffffffffffffffff168152602001606081525090565b6040518060800160405280606081526020016060815260200160608152602001600060ff1681525090565b6040518060600160405280613c75613c95565b8152602001613c82613c95565b8152602001613c8f613c95565b81525090565b6040518060400160405280600073ffffffffffffffffffffffffffffffffffffffff168152602001600060ff1681525090565b6000819050919050565b613cdb81613cc8565b82525050565b6000602082019050613cf66000830184613cd2565b92915050565b6000604051905090565b600080fd5b600080fd5b613d1981613cc8565b8114613d2457600080fd5b50565b600081359050613d3681613d10565b92915050565b60008060408385031215613d5357613d52613d06565b5b6000613d6185828601613d27565b9250506020613d7285828601613d27565b9150509250929050565b600081519050919050565b600082825260208201905092915050565b60005b83811015613db6578082015181840152602081019050613d9b565b83811115613dc5576000848401525b50505050565b6000601f19601f8301169050919050565b6000613de782613d7c565b613df18185613d87565b9350613e01818560208601613d98565b613e0a81613dcb565b840191505092915050565b613e1e81613cc8565b82525050565b60006060830160008301518482036000860152613e418282613ddc565b91505060208301518482036020860152613e5b8282613ddc565b9150506040830151613e706040860182613e15565b508091505092915050565b600063ffffffff82169050919050565b613e9481613e7b565b82525050565b6000608082019050613eaf6000830187613cd2565b8181036020830152613ec18186613e24565b9050613ed06040830185613e8b565b613edd6060830184613e8b565b95945050505050565b600060208284031215613efc57613efb613d06565b5b6000613f0a84828501613d27565b91505092915050565b60008115159050919050565b613f2881613f13565b82525050565b600060e0830160008301518482036000860152613f4b8282613ddc565b91505060208301518482036020860152613f658282613ddc565b9150506040830151613f7a6040860182613e15565b506060830151613f8d6060860182613e15565b506080830151613fa06080860182613e15565b5060a0830151613fb360a0860182613e15565b5060c0830151613fc660c0860182613f1f565b508091505092915050565b600073ffffffffffffffffffffffffffffffffffffffff82169050919050565b6000613ffc82613fd1565b9050919050565b61400c81613ff1565b82525050565b600060408301600083015161402a6000860182614003565b50602083015184820360208601526140428282613ddc565b9150508091505092915050565b600060ff82169050919050565b6140658161404f565b82525050565b600060808301600083015184820360008601526140888282613ddc565b915050602083015184820360208601526140a28282613ddc565b915050604083015184820360408601526140bc8282613ddc565b91505060608301516140d1606086018261405c565b508091505092915050565b60006140e782613fd1565b9050919050565b6140f7816140dc565b82525050565b60408201600082015161411360008501826140ee565b506020820151614126602085018261405c565b50505050565b60c08201600082015161414260008501826140fd565b50602082015161415560408501826140fd565b50604082015161416860808501826140fd565b50505050565b60006101208201905081810360008301526141898187613f2e565b9050818103602083015261419d8186614012565b905081810360408301526141b1818561406b565b90506141c0606083018461412c565b95945050505050565b600081519050919050565b600082825260208201905092915050565b6000819050602082019050919050565b600060608301600083015184820360008601526142128282613ddc565b9150506020830151848203602086015261422c8282613ddc565b91505060408301516142416040860182613e15565b508091505092915050565b61425581613e7b565b82525050565b60006080830160008301516142736000860182613e15565b506020830151848203602086015261428b82826141f5565b91505060408301516142a0604086018261424c565b5060608301516142b3606086018261424c565b508091505092915050565b60006142ca838361425b565b905092915050565b6000602082019050919050565b60006142ea826141c9565b6142f481856141d4565b935083602082028501614306856141e5565b8060005b85811015614342578484038952815161432385826142be565b945061432e836142d2565b925060208a0199505060018101905061430a565b50829750879550505050505092915050565b6000602082019050818103600083015261436e81846142df565b905092915050565b600081519050919050565b600082825260208201905092915050565b6000819050602082019050919050565b60006080830160008301516143ba6000860182613e15565b50602083015184820360208601526143d282826141f5565b91505060408301516143e76040860182614003565b50606083015184820360608601526143ff8282613ddc565b9150508091505092915050565b600061441883836143a2565b905092915050565b6000602082019050919050565b600061443882614376565b6144428185614381565b93508360208202850161445485614392565b8060005b858110156144905784840389528151614471858261440c565b945061447c83614420565b925060208a01995050600181019050614458565b50829750879550505050505092915050565b600060208201905081810360008301526144bc818461442d565b905092915050565b600060e08301600083015184820360008601526144e18282613ddc565b915050602083015184820360208601526144fb8282613ddc565b91505060408301516145106040860182613e15565b5060608301516145236060860182613e15565b5060808301516145366080860182613e15565b5060a083015161454960a0860182613e15565b5060c083015161455c60c0860182613f1f565b508091505092915050565b600060408301600083015161457f6000860182614003565b50602083015184820360208601526145978282613ddc565b9150508091505092915050565b600060808301600083015184820360008601526145c18282613ddc565b915050602083015184820360208601526145db8282613ddc565b915050604083015184820360408601526145f58282613ddc565b915050606083015161460a606086018261405c565b508091505092915050565b60c08201600082015161462b60008501826140fd565b50602082015161463e60408501826140fd565b50604082015161465160808501826140fd565b50505050565b600061012083016000830151848203600086015261467582826144c4565b9150506020830151848203602086015261468f8282614567565b915050604083015184820360408601526146a982826145a4565b91505060608301516146be6060860182614615565b508091505092915050565b60006040830160008301516146e16000860182613e15565b50602083015184820360208601526146f98282614657565b9150508091505092915050565b6000602082019050818103600083015261472081846146c9565b905092915050565b600080fd5b600080fd5b7f4e487b7100000000000000000000000000000000000000000000000000000000600052604160045260246000fd5b61476a82613dcb565b810181811067ffffffffffffffff8211171561478957614788614732565b5b80604052505050565b600061479c613cfc565b90506147a88282614761565b919050565b600067ffffffffffffffff8211156147c8576147c7614732565b5b6147d182613dcb565b9050602081019050919050565b82818337600083830152505050565b60006148006147fb846147ad565b614792565b90508281526020810184848401111561481c5761481b61472d565b5b6148278482856147de565b509392505050565b600082601f83011261484457614843614728565b5b81356148548482602086016147ed565b91505092915050565b60008060006060848603121561487657614875613d06565b5b600061488486828701613d27565b935050602061489586828701613d27565b925050604084013567ffffffffffffffff8111156148b6576148b5613d0b565b5b6148c28682870161482f565b9150509250925092565b600082825260208201905092915050565b60006148e882613d7c565b6148f281856148cc565b9350614902818560208601613d98565b61490b81613dcb565b840191505092915050565b6000602082019050818103600083015261493081846148dd565b905092915050565b600081519050919050565b600082825260208201905092915050565b6000819050602082019050919050565b600060408301600083015161497c6000860182613e15565b50602083015184820360208601526149948282614657565b9150508091505092915050565b60006149ad8383614964565b905092915050565b6000602082019050919050565b60006149cd82614938565b6149d78185614943565b9350836020820285016149e985614954565b8060005b85811015614a255784840389528151614a0685826149a1565b9450614a11836149b5565b925060208a019950506001810190506149ed565b50829750879550505050505092915050565b60006020820190508181036000830152614a5181846149c2565b905092915050565b614a6281613e7b565b8114614a6d57600080fd5b50565b600081359050614a7f81614a59565b92915050565b600080fd5b600080fd5b614a9881613ff1565b8114614aa357600080fd5b50565b600081359050614ab581614a8f565b92915050565b600060408284031215614ad157614ad0614a85565b5b614adb6040614792565b90506000614aeb84828501614aa6565b600083015250602082013567ffffffffffffffff811115614b0f57614b0e614a8a565b5b614b1b8482850161482f565b60208301525092915050565b614b30816140dc565b8114614b3b57600080fd5b50565b600081359050614b4d81614b27565b92915050565b614b5c8161404f565b8114614b6757600080fd5b50565b600081359050614b7981614b53565b92915050565b600060408284031215614b9557614b94614a85565b5b614b9f6040614792565b90506000614baf84828501614b3e565b6000830152506020614bc384828501614b6a565b60208301525092915050565b600060c08284031215614be557614be4614a85565b5b614bef6060614792565b90506000614bff84828501614b7f565b6000830152506040614c1384828501614b7f565b6020830152506080614c2784828501614b7f565b60408301525092915050565b600060808284031215614c4957614c48614a85565b5b614c536080614792565b9050600082013567ffffffffffffffff811115614c7357614c72614a8a565b5b614c7f8482850161482f565b600083015250602082013567ffffffffffffffff811115614ca357614ca2614a8a565b5b614caf8482850161482f565b602083015250604082013567ffffffffffffffff811115614cd357614cd2614a8a565b5b614cdf8482850161482f565b6040830152506060614cf384828501614b6a565b60608301525092915050565b600067ffffffffffffffff821115614d1a57614d19614732565b5b602082029050602081019050919050565b600080fd5b600060608284031215614d4657614d45614a85565b5b614d506060614792565b9050600082013567ffffffffffffffff811115614d7057614d6f614a8a565b5b614d7c8482850161482f565b600083015250602082013567ffffffffffffffff811115614da057614d9f614a8a565b5b614dac8482850161482f565b6020830152506040614dc084828501613d27565b60408301525092915050565b600060808284031215614de257614de1614a85565b5b614dec6080614792565b90506000614dfc84828501613d27565b600083015250602082013567ffffffffffffffff811115614e2057614e1f614a8a565b5b614e2c84828501614d30565b6020830152506040614e4084828501614a70565b6040830152506060614e5484828501614a70565b60608301525092915050565b6000614e73614e6e84614cff565b614792565b90508083825260208201905060208402830185811115614e9657614e95614d2b565b5b835b81811015614edd57803567ffffffffffffffff811115614ebb57614eba614728565b5b808601614ec88982614dcc565b85526020850194505050602081019050614e98565b5050509392505050565b600082601f830112614efc57614efb614728565b5b8135614f0c848260208601614e60565b91505092915050565b6000806000806000806000610180888a031215614f3557614f34613d06565b5b600088013567ffffffffffffffff811115614f5357614f52613d0b565b5b614f5f8a828b0161482f565b975050602088013567ffffffffffffffff811115614f8057614f7f613d0b565b5b614f8c8a828b0161482f565b9650506040614f9d8a828b01614a70565b955050606088013567ffffffffffffffff811115614fbe57614fbd613d0b565b5b614fca8a828b01614abb565b9450506080614fdb8a828b01614bcf565b93505061014088013567ffffffffffffffff811115614ffd57614ffc613d0b565b5b6150098a828b01614c33565b92505061016088013567ffffffffffffffff81111561502b5761502a613d0b565b5b6150378a828b01614ee7565b91505092959891949750929550565b61504f81613ff1565b82525050565b600060808201905061506a6000830187613cd2565b818103602083015261507c8186613e24565b905061508b6040830185615046565b818103606083015261509d81846148dd565b905095945050505050565b6150b181613f13565b82525050565b60006020820190506150cc60008301846150a8565b92915050565b7f4e487b7100000000000000000000000000000000000000000000000000000000600052602260045260246000fd5b6000600282049050600182168061511957607f821691505b60208210810361512c5761512b6150d2565b5b50919050565b7f4e487b7100000000000000000000000000000000000000000000000000000000600052603260045260246000fd5b7f4e487b7100000000000000000000000000000000000000000000000000000000600052601160045260246000fd5b600061519b82613cc8565b91507fffffffffffffffffffffffffffffffffffffffffffffffffffffffffffffffff82036151cd576151cc615161565b5b600182019050919050565b7f546869732063616d706169676e206861732073746f7070656400000000000000600082015250565b600061520e6019836148cc565b9150615219826151d8565b602082019050919050565b6000602082019050818103600083015261523d81615201565b9050919050565b7f546869732063616d706169676e206973206f7665720000000000000000000000600082015250565b600061527a6015836148cc565b915061528582615244565b602082019050919050565b600060208201905081810360008301526152a98161526d565b9050919050565b7f54686520626f7820494420697320696e76616c69640000000000000000000000600082015250565b60006152e66015836148cc565b91506152f1826152b0565b602082019050919050565b60006020820190508181036000830152615315816152d9565b9050919050565b7f416c6c20626f786573206f66207468697320747970652068617665206265656e60008201527f20736f6c64000000000000000000000000000000000000000000000000000000602082015250565b60006153786025836148cc565b91506153838261531c565b604082019050919050565b600060208201905081810360008301526153a78161536b565b9050919050565b7f476976656e20616d6f756e742069732062656c6f7720626f7820707269636500600082015250565b60006153e4601f836148cc565b91506153ef826153ae565b602082019050919050565b60006020820190508181036000830152615413816153d7565b9050919050565b600061542582613e7b565b915061543083613e7b565b92508282101561544357615442615161565b5b828203905092915050565b600061545982613cc8565b915061546483613cc8565b9250827fffffffffffffffffffffffffffffffffffffffffffffffffffffffffffffffff0382111561549957615498615161565b5b828201905092915050565b7f4475726174696f6e206d75737420626520686967686572207468616e20300000600082015250565b60006154da601e836148cc565b91506154e5826154a4565b602082019050919050565b60006020820190508181036000830152615509816154cd565b9050919050565b7f4475726174696f6e2063616e277420626520686967686572207468616e20362060008201527f7765656b73000000000000000000000000000000000000000000000000000000602082015250565b600061556c6025836148cc565b915061557782615510565b604082019050919050565b6000602082019050818103600083015261559b8161555f565b9050919050565b7f446561646c696e65206d75737420626520696e20746865206675747572650000600082015250565b60006155d8601e836148cc565b91506155e3826155a2565b602082019050919050565b60006020820190508181036000830152615607816155cb565b9050919050565b600061561982613cc8565b915061562483613cc8565b92508282101561563757615636615161565b5b828203905092915050565b7f5468652063616d706169676e206d7573742062652066696e6973686564000000600082015250565b6000615678601d836148cc565b915061568382615642565b602082019050919050565b600060208201905081810360008301526156a78161566b565b9050919050565b7f54686572652063616e277420626520616e7920626f786573206c656674000000600082015250565b60006156e4601d836148cc565b91506156ef826156ae565b602082019050919050565b60006020820190508181036000830152615713816156d7565b9050919050565b7f43616d706169676e20616c72656164792073746f707065640000000000000000600082015250565b60006157506018836148cc565b915061575b8261571a565b602082019050919050565b6000602082019050818103600083015261577f81615743565b9050919050565b7f4f6e6c7920746865206f776e65722063616e2073746f7020612063616d70616960008201527f676e000000000000000000000000000000000000000000000000000000000000602082015250565b60006157e26022836148cc565b91506157ed82615786565b604082019050919050565b60006020820190508181036000830152615811816157d5565b9050919050565b7f4661726d6572207368617265206d75737420626520686967686572207468616e60008201527f20302520616e642063616e277420626520686967686572207468616e2031303060208201527f2500000000000000000000000000000000000000000000000000000000000000604082015250565b600061589a6041836148cc565b91506158a582615818565b606082019050919050565b600060208201905081810360008301526158c98161588d565b9050919050565b7f42757463686572207368617265206d757374206265206869676865722074686160008201527f6e20302520616e642063616e277420626520686967686572207468616e20313060208201527f3025000000000000000000000000000000000000000000000000000000000000604082015250565b60006159526042836148cc565b915061595d826158d0565b606082019050919050565b6000602082019050818103600083015261598181615945565b9050919050565b7f44656c69766572792053657276696365207368617265206d757374206265206860008201527f6967686572207468616e20302520616e642063616e277420626520686967686560208201527f72207468616e2031303025000000000000000000000000000000000000000000604082015250565b6000615a0a604b836148cc565b9150615a1582615988565b606082019050919050565b60006020820190508181036000830152615a39816159fd565b9050919050565b6000615a4b8261404f565b9150615a568361404f565b92508260ff03821115615a6c57615a6b615161565b5b828201905092915050565b7f54686520746f74616c207368617265206f6620616c6c207374616b65686f6c6460008201527f657273206d75737420626520657175616c20746f203130302500000000000000602082015250565b6000615ad36039836148cc565b9150615ade82615a77565b604082019050919050565b60006020820190508181036000830152615b0281615ac6565b9050919050565b7f5468657265206d757374206265206174206c65617374206f6e6520626f78207460008201527f6f2073656c6c0000000000000000000000000000000000000000000000000000602082015250565b6000615b656026836148cc565b9150615b7082615b09565b604082019050919050565b60006020820190508181036000830152615b9481615b58565b9050919050565b7f496e697469616c6c7920746f74616c206e756d626572206f6620626f7865732060008201527f616e6420617661696c61626c65206d75737420626520657175616c0000000000602082015250565b6000615bf7603b836148cc565b9150615c0282615b9b565b604082019050919050565b60006020820190508181036000830152615c2681615bea565b9050919050565b7f4120626f7820726571756972657320612070726963652068696768657220746860008201527f616e203000000000000000000000000000000000000000000000000000000000602082015250565b6000615c896024836148cc565b9150615c9482615c2d565b604082019050919050565b60006020820190508181036000830152615cb881615c7c565b9050919050565b7f4174206c65617374206f6e6520626f7820697320726571756972656400000000600082015250565b6000615cf5601c836148cc565b9150615d0082615cbf565b602082019050919050565b60006020820190508181036000830152615d2481615ce8565b9050919050565b6000615d3682613cc8565b9150615d4183613cc8565b9250817fffffffffffffffffffffffffffffffffffffffffffffffffffffffffffffffff0483118215151615615d7a57615d79615161565b5b82820290509291505056fea26469706673582212203546e46bcb93a2360f38f1306f8daa8087fa7cdb94218ddb484642efd8838e1364736f6c634300080d0033",
  "immutableReferences": {},
  "source": "// SPDX-License-Identifier: AGPL\npragma solidity ^0.8.13;\n\nimport './CrowdfundingLib.sol';\nimport './Types.sol';\n\ncontract Crowdfunding {\n\n    // all campaigns\n    mapping(uint256 => Campaign) public campaigns;\n    // available boxes for specific campaigns\n    mapping(uint256 => BoxOffer[]) public boxOffers;\n    // sold boxes for specific campaigns (campginId => sellId => BoxSellRef)\n    mapping(uint256 => mapping(uint256 => BoxSellRef)) public soldBoxesCampaign;\n\n    uint256 public numberOfCampaigns = 0;\n\n    /**\n     * Adds a buyer\n     */\n    function addBuyer(uint256 _campaignId, address _buyer, Box memory _box, string memory _physAddress) private {\n      Campaign storage campaign = campaigns[_campaignId];\n      // Make sure boxesSold has not been increased yet\n      uint256 boxId = campaign.meta.boxesSold;\n\n      BoxSellRef storage soldBox = soldBoxesCampaign[_campaignId][boxId];\n      soldBox.id = boxId;\n      soldBox.owner = _buyer;\n      soldBox.box = _box;\n      soldBox.physAddress = _physAddress;\n    }\n\n    /**\n     * Adds a box to the boxOffers\n     */\n    function addBoxOffers(BoxOffer[] memory _boxes) private {\n      BoxOffer[] storage _offers = boxOffers[numberOfCampaigns];\n        for (uint256 index = 0; index < _boxes.length; index++) {\n            BoxOffer memory offer = _boxes[index];\n            _offers.push(offer);\n        }\n    }\n\n    /**\n     * Creates a new campaign\n     */\n    function createCampaign(\n        string memory _title,\n        string memory _description,\n        uint32 _duration,\n        CampaignOwner memory _campaignOwner,\n        StakeholderList memory _stakeholders,\n        CampaignAnimalData memory _animal,\n        BoxOffer[] memory _boxes\n    ) public returns (uint256) {\n        // check crowdfunding duration\n        require(_duration > 0, \"Duration must be higher than 0\");\n        require(_duration <= 6 weeks, \"Duration can't be higher than 6 weeks\");\n\n        // create deadline by adding the duration to the current timestamp\n        uint256 current = block.timestamp;\n        uint256 deadline = current + _duration;\n\n        // validate\n        require(\n            deadline > current,\n            \"Deadline must be in the future\"\n        );\n        CrowdfundingLib.validateStakeholders(_stakeholders);\n        CrowdfundingLib.validateBoxes(_boxes);\n\n        // Create campaign\n        uint256 totalBoxes = CrowdfundingLib.getTotalNumberOfBoxes(_boxes);\n        Campaign storage campaign = campaigns[numberOfCampaigns];\n        campaign.owner = _campaignOwner;\n        campaign.meta.title = _title;\n        campaign.meta.description = _description;\n        campaign.meta.collectedAmount = 0;\n        campaign.meta.deadline = deadline;\n        campaign.meta.isStopped = false;\n        campaign.meta.totalBoxes = totalBoxes;\n        campaign.meta.boxesSold = 0;\n        campaign.animal = _animal;\n        campaign.stakeholders = _stakeholders;\n\n        // add boxes\n        addBoxOffers(_boxes);\n\n        // increase total num of campaigns\n        numberOfCampaigns++;\n\n        // return the most recent campaign index\n        return numberOfCampaigns - 1;\n    }\n\n    /**\n    * Returns the total number of campaigns\n    */\n    function getNumberOfCampaigns() public view returns (uint256) {\n      return numberOfCampaigns;\n    }\n\n    /**\n     * Returns the public key of a campaign\n     */\n    function getPublicKey(uint256 _campaignId) public view returns (string memory) {\n      Campaign storage campaign = campaigns[_campaignId];\n      return campaign.owner.ownerPublicKey;\n    }\n\n    /**\n     * Removes a campaign\n     */\n    function stopCampaign(uint256 _campaignId) public returns (bool) {\n      Campaign storage campaign = campaigns[_campaignId];\n      require(!campaign.meta.isStopped, \"Campaign already stopped\");\n      require(campaign.meta.deadline > block.timestamp, \"This campaign is over\");\n      require(msg.sender == campaign.owner.owner, \"Only the owner can stop a campaign\");\n\n      campaign.meta.isStopped = true;\n\n      return true;\n    }\n\n    /**\n     * Buys a box\n     */\n    function buyBox(uint256 _campaignId, uint256 _boxId, string memory _physAddress) public payable {\n        // get campaign ref\n        Campaign storage campaign = campaigns[_campaignId];\n\n        // check if this is an ongoing campaign\n        require(!campaign.meta.isStopped, \"This campaign has stopped\");\n        require(campaign.meta.deadline > block.timestamp, \"This campaign is over\");\n\n        // check if this campaign still has available boxes for the requested kind\n        BoxOffer storage boxOffer = boxOffers[_campaignId][_boxId];\n        require(boxOffer.id == _boxId, \"The box ID is invalid\");\n        require(boxOffer.available > 0, \"All boxes of this type have been sold\");\n\n        // check if the offer is valid\n        Box memory box = boxOffer.box;\n        uint256 amount = msg.value;\n        require(amount >= box.price, \"Given amount is below box price\");\n\n        // Add buyer\n        addBuyer(_campaignId, msg.sender, box, _physAddress);\n\n        // Updates available boxes by one\n        boxOffer.available-=1;\n        campaign.meta.boxesSold+=1;\n        // Add to total collected amount\n        campaign.meta.collectedAmount+=amount;\n\n        if (campaign.meta.boxesSold == campaign.meta.totalBoxes) {\n          // Mark campaign as stopped\n          campaign.meta.isStopped = true;\n          // TODO Start Supply Chain\n        }\n    }\n\n    /**\n     * Returns a specific campaign\n     */\n    function getCampaign(uint256 _campaignId) public view returns (CampaignRef memory) {\n        Campaign storage campaign = campaigns[_campaignId];\n        CampaignRef memory ref = CampaignRef({ id: _campaignId, campaign: campaign });\n        return ref;\n    }\n\n    /**\n     * Returns all campaigns\n     */\n    function getCampaigns() public view returns (CampaignRef[] memory) {\n        CampaignRef[] memory allCampaigns = new CampaignRef[](numberOfCampaigns);\n\n        for (uint256 index = 0; index < numberOfCampaigns; index++) {\n            Campaign storage campaign = campaigns[index];\n            CampaignRef memory ref = CampaignRef({ id: index, campaign: campaign });\n            allCampaigns[index] = ref;\n        }\n\n        return allCampaigns;\n    }\n\n    /**\n     * Returns all ongoing campaigns\n     */\n    function getOngoingCampaigns() public view returns (CampaignRef[] memory) {\n        CampaignRef[] memory allCampaigns = new CampaignRef[](numberOfCampaigns);\n\n        for (uint256 index = 0; index < numberOfCampaigns; index++) {\n            Campaign storage campaign = campaigns[index];\n            if (!campaign.meta.isStopped) {\n              CampaignRef memory ref = CampaignRef({ id: index, campaign: campaign });\n              allCampaigns[index] = ref;\n            }\n        }\n\n        return allCampaigns;\n    }\n\n    /**\n     * Returns all boxes of a specific campaign\n     */\n    function getBoxes(uint256 _campaignId) public view returns (BoxOffer[] memory) {\n        BoxOffer[] storage boxOffer = boxOffers[_campaignId];\n        return boxOffer;\n    }\n\n    /**\n     * Returns a list of all sold boxes for a specific campaign\n     */\n    function getSoldBoxes(uint256 _campaignId) public view returns(BoxSellRef[] memory) {\n      Campaign storage campaign = campaigns[_campaignId];\n      BoxSellRef[] memory boxSells = new BoxSellRef[](campaign.meta.boxesSold);\n\n      for (uint256 index = 0; index < boxSells.length; index++) {\n        boxSells[index] = soldBoxesCampaign[_campaignId][index];\n      }\n\n      return boxSells;\n    }\n\n    /**\n     * Pay-out all stakeholders of the campaign\n     */\n    function payOut(uint256 _campaignId) public {\n      Campaign storage campaign = campaigns[_campaignId];\n      require(campaign.meta.isStopped, \"The campaign must be finished\");\n      require(campaign.meta.boxesSold == campaign.meta.totalBoxes, \"There can't be any boxes left\");\n\n      // TODO Check if supply chain has been completed\n      // e.g. require(campaign.supplyChain.isCompleted);\n\n      // Generate shares\n      uint256 farmerShare = CrowdfundingLib.getFarmerShare(campaign);\n      uint256 butcherShare = CrowdfundingLib.getButcherShare(campaign);\n      uint256 deliveryShare = CrowdfundingLib.getDeliveryShare(campaign);\n\n      // payout stakeholders\n      payable(campaign.stakeholders.farmer.owner).transfer(farmerShare);\n      payable(campaign.stakeholders.butcher.owner).transfer(butcherShare);\n      payable(campaign.stakeholders.delivery.owner).transfer(deliveryShare);\n    }\n\n}\n",
  "sourcePath": "/workspaces/146157_Blockchain/smart_contracts/contracts/Crowdfunding.sol",
  "compiler": {
    "name": "solc",
    "version": "0.8.13+commit.abaa5c0e.Emscripten.clang"
  },
  "schemaVersion": "3.4.14",
  "updatedAt": "2023-08-05T12:34:12.839Z",
  "networkType": "ethereum",
  "devdoc": {
    "kind": "dev",
    "methods": {},
    "version": 1
  },
  "userdoc": {
    "kind": "user",
    "methods": {
      "buyBox(uint256,uint256,string)": {
        "notice": "Buys a box"
      },
      "createCampaign(string,string,uint32,(address,string),((address,uint8),(address,uint8),(address,uint8)),(string,string,string,uint8),(uint256,(string,string,uint256),uint32,uint32)[])": {
        "notice": "Creates a new campaign"
      },
      "getBoxes(uint256)": {
        "notice": "Returns all boxes of a specific campaign"
      },
      "getCampaign(uint256)": {
        "notice": "Returns a specific campaign"
      },
      "getCampaigns()": {
        "notice": "Returns all campaigns"
      },
      "getNumberOfCampaigns()": {
        "notice": "Returns the total number of campaigns"
      },
      "getOngoingCampaigns()": {
        "notice": "Returns all ongoing campaigns"
      },
      "getPublicKey(uint256)": {
        "notice": "Returns the public key of a campaign"
      },
      "getSoldBoxes(uint256)": {
        "notice": "Returns a list of all sold boxes for a specific campaign"
      },
      "payOut(uint256)": {
        "notice": "Pay-out all stakeholders of the campaign"
      },
      "stopCampaign(uint256)": {
        "notice": "Removes a campaign"
      }
    },
    "version": 1
  }
}