{
  "contractName": "Crowdfunding",
  "abi": [
    {
      "inputs": [
        {
          "internalType": "string",
          "name": "_title",
          "type": "string"
        },
        {
          "internalType": "string",
          "name": "_description",
          "type": "string"
        },
        {
          "internalType": "uint32",
          "name": "_duration",
          "type": "uint32"
        },
        {
          "components": [
            {
              "internalType": "address",
              "name": "owner",
              "type": "address"
            },
            {
              "internalType": "string",
              "name": "ownerPublicKey",
              "type": "string"
            }
          ],
          "internalType": "struct CampaignOwner",
          "name": "_campaignOwner",
          "type": "tuple"
        },
        {
          "components": [
            {
              "components": [
                {
                  "internalType": "address payable",
                  "name": "owner",
                  "type": "address"
                },
                {
                  "internalType": "uint8",
                  "name": "share",
                  "type": "uint8"
                },
                {
                  "internalType": "string",
                  "name": "info",
                  "type": "string"
                }
              ],
              "internalType": "struct Stakeholder",
              "name": "farmer",
              "type": "tuple"
            },
            {
              "components": [
                {
                  "internalType": "address payable",
                  "name": "owner",
                  "type": "address"
                },
                {
                  "internalType": "uint8",
                  "name": "share",
                  "type": "uint8"
                },
                {
                  "internalType": "string",
                  "name": "info",
                  "type": "string"
                }
              ],
              "internalType": "struct Stakeholder",
              "name": "butcher",
              "type": "tuple"
            },
            {
              "components": [
                {
                  "internalType": "address payable",
                  "name": "owner",
                  "type": "address"
                },
                {
                  "internalType": "uint8",
                  "name": "share",
                  "type": "uint8"
                },
                {
                  "internalType": "string",
                  "name": "info",
                  "type": "string"
                }
              ],
              "internalType": "struct Stakeholder",
              "name": "delivery",
              "type": "tuple"
            }
          ],
          "internalType": "struct StakeholderList",
          "name": "_stakeholders",
          "type": "tuple"
        },
        {
          "components": [
            {
              "internalType": "string",
              "name": "earTag",
              "type": "string"
            },
            {
              "internalType": "string",
              "name": "name",
              "type": "string"
            },
            {
              "internalType": "string",
              "name": "farm",
              "type": "string"
            },
            {
              "internalType": "uint8",
              "name": "age",
              "type": "uint8"
            }
          ],
          "internalType": "struct CampaignAnimalData",
          "name": "_animal",
          "type": "tuple"
        },
        {
          "components": [
            {
              "internalType": "uint8",
              "name": "id",
              "type": "uint8"
            },
            {
              "internalType": "string",
              "name": "title",
              "type": "string"
            },
            {
              "internalType": "string",
              "name": "description",
              "type": "string"
            },
            {
              "internalType": "uint256",
              "name": "price",
              "type": "uint256"
            },
            {
              "internalType": "uint8",
              "name": "total",
              "type": "uint8"
            },
            {
              "internalType": "uint8",
              "name": "available",
              "type": "uint8"
            }
          ],
          "internalType": "struct Box[]",
          "name": "_boxes",
          "type": "tuple[]"
        }
      ],
      "name": "createCampaign",
      "outputs": [],
      "stateMutability": "nonpayable",
      "type": "function"
    },
    {
      "inputs": [],
      "name": "getNumberOfCampaigns",
      "outputs": [
        {
          "internalType": "uint256",
          "name": "",
          "type": "uint256"
        }
      ],
      "stateMutability": "view",
      "type": "function",
      "constant": true
    },
    {
      "inputs": [],
      "name": "getCampaigns",
      "outputs": [
        {
          "components": [
            {
              "internalType": "uint256",
              "name": "id",
              "type": "uint256"
            },
            {
              "components": [
                {
                  "internalType": "string",
                  "name": "title",
                  "type": "string"
                },
                {
                  "internalType": "string",
                  "name": "description",
                  "type": "string"
                },
                {
                  "internalType": "uint256",
                  "name": "deadline",
                  "type": "uint256"
                }
              ],
              "internalType": "struct CampaignInfo",
              "name": "info",
              "type": "tuple"
            },
            {
              "components": [
                {
                  "internalType": "uint256",
                  "name": "collectedAmount",
                  "type": "uint256"
                },
                {
                  "internalType": "uint256",
                  "name": "createdAt",
                  "type": "uint256"
                },
                {
                  "internalType": "uint16",
                  "name": "totalBoxes",
                  "type": "uint16"
                },
                {
                  "internalType": "uint16",
                  "name": "boxesSold",
                  "type": "uint16"
                },
                {
                  "internalType": "uint8",
                  "name": "totalBoxTypes",
                  "type": "uint8"
                },
                {
                  "internalType": "bool",
                  "name": "isStopped",
                  "type": "bool"
                }
              ],
              "internalType": "struct CampaignMeta",
              "name": "meta",
              "type": "tuple"
            },
            {
              "components": [
                {
                  "internalType": "address",
                  "name": "owner",
                  "type": "address"
                },
                {
                  "internalType": "string",
                  "name": "ownerPublicKey",
                  "type": "string"
                }
              ],
              "internalType": "struct CampaignOwner",
              "name": "owner",
              "type": "tuple"
            },
            {
              "components": [
                {
                  "internalType": "string",
                  "name": "earTag",
                  "type": "string"
                },
                {
                  "internalType": "string",
                  "name": "name",
                  "type": "string"
                },
                {
                  "internalType": "string",
                  "name": "farm",
                  "type": "string"
                },
                {
                  "internalType": "uint8",
                  "name": "age",
                  "type": "uint8"
                }
              ],
              "internalType": "struct CampaignAnimalData",
              "name": "animal",
              "type": "tuple"
            },
            {
              "components": [
                {
                  "components": [
                    {
                      "internalType": "address payable",
                      "name": "owner",
                      "type": "address"
                    },
                    {
                      "internalType": "uint8",
                      "name": "share",
                      "type": "uint8"
                    },
                    {
                      "internalType": "string",
                      "name": "info",
                      "type": "string"
                    }
                  ],
                  "internalType": "struct Stakeholder",
                  "name": "farmer",
                  "type": "tuple"
                },
                {
                  "components": [
                    {
                      "internalType": "address payable",
                      "name": "owner",
                      "type": "address"
                    },
                    {
                      "internalType": "uint8",
                      "name": "share",
                      "type": "uint8"
                    },
                    {
                      "internalType": "string",
                      "name": "info",
                      "type": "string"
                    }
                  ],
                  "internalType": "struct Stakeholder",
                  "name": "butcher",
                  "type": "tuple"
                },
                {
                  "components": [
                    {
                      "internalType": "address payable",
                      "name": "owner",
                      "type": "address"
                    },
                    {
                      "internalType": "uint8",
                      "name": "share",
                      "type": "uint8"
                    },
                    {
                      "internalType": "string",
                      "name": "info",
                      "type": "string"
                    }
                  ],
                  "internalType": "struct Stakeholder",
                  "name": "delivery",
                  "type": "tuple"
                }
              ],
              "internalType": "struct StakeholderList",
              "name": "stakeholders",
              "type": "tuple"
            }
          ],
          "internalType": "struct Campaign[]",
          "name": "",
          "type": "tuple[]"
        }
      ],
      "stateMutability": "view",
      "type": "function",
      "constant": true
    },
    {
      "inputs": [
        {
          "internalType": "uint256",
          "name": "_campaignId",
          "type": "uint256"
        }
      ],
      "name": "getBoxes",
      "outputs": [
        {
          "components": [
            {
              "internalType": "uint8",
              "name": "id",
              "type": "uint8"
            },
            {
              "internalType": "string",
              "name": "title",
              "type": "string"
            },
            {
              "internalType": "string",
              "name": "description",
              "type": "string"
            },
            {
              "internalType": "uint256",
              "name": "price",
              "type": "uint256"
            },
            {
              "internalType": "uint8",
              "name": "total",
              "type": "uint8"
            },
            {
              "internalType": "uint8",
              "name": "available",
              "type": "uint8"
            }
          ],
          "internalType": "struct Box[]",
          "name": "",
          "type": "tuple[]"
        }
      ],
      "stateMutability": "view",
      "type": "function",
      "constant": true
    },
    {
      "inputs": [
        {
          "internalType": "uint256",
          "name": "_campaignId",
          "type": "uint256"
        }
      ],
      "name": "getSoldBoxes",
      "outputs": [
        {
          "components": [
            {
              "internalType": "uint16",
              "name": "id",
              "type": "uint16"
            },
            {
              "internalType": "uint8",
              "name": "boxId",
              "type": "uint8"
            },
            {
              "internalType": "address",
              "name": "owner",
              "type": "address"
            },
            {
              "internalType": "uint256",
              "name": "boughtAt",
              "type": "uint256"
            },
            {
              "internalType": "string",
              "name": "physAddress",
              "type": "string"
            }
          ],
          "internalType": "struct BoxSellRef[]",
          "name": "",
          "type": "tuple[]"
        }
      ],
      "stateMutability": "view",
      "type": "function",
      "constant": true
    },
    {
      "inputs": [
        {
          "internalType": "uint256",
          "name": "_campaignId",
          "type": "uint256"
        }
      ],
      "name": "stopCampaign",
      "outputs": [],
      "stateMutability": "nonpayable",
      "type": "function"
    },
    {
      "inputs": [
        {
          "internalType": "uint256",
          "name": "_campaignId",
          "type": "uint256"
        },
        {
          "internalType": "uint8",
          "name": "_boxId",
          "type": "uint8"
        },
        {
          "internalType": "string",
          "name": "_physAddress",
          "type": "string"
        }
      ],
      "name": "buyBox",
      "outputs": [],
      "stateMutability": "payable",
      "type": "function",
      "payable": true
    },
    {
      "inputs": [
        {
          "internalType": "uint256",
          "name": "_campaignId",
          "type": "uint256"
        }
      ],
      "name": "payOut",
      "outputs": [],
      "stateMutability": "nonpayable",
      "type": "function"
    }
  ],
  "bytecode": "0x6080604052600060035534801561001557600080fd5b50613cd8806100256000396000f3fe60806040526004361061007b5760003560e01c8063a6b036331161004e578063a6b036331461013f578063da333ca61461016a578063e4aafc2c14610193578063ec6c8216146101be5761007b565b80633267f8ab1461008057806332e75749146100bd5780633e8abf22146100fa57806382fc7ddd14610116575b600080fd5b34801561008c57600080fd5b506100a760048036038101906100a291906121f3565b6101e7565b6040516100b49190612436565b60405180910390f35b3480156100c957600080fd5b506100e460048036038101906100df91906121f3565b610484565b6040516100f191906125ee565b60405180910390f35b610114600480360381019061010f9190612771565b6106be565b005b34801561012257600080fd5b5061013d60048036038101906101389190612cbe565b610aa6565b005b34801561014b57600080fd5b506101546111c6565b60405161016191906131c4565b60405180910390f35b34801561017657600080fd5b50610191600480360381019061018c91906121f3565b611ab9565b005b34801561019f57600080fd5b506101a8611d84565b6040516101b591906131f5565b60405180910390f35b3480156101ca57600080fd5b506101e560048036038101906101e091906121f3565b611d8e565b005b60606000806000848152602001908152602001600020905060008160040160020160049054906101000a900460ff16905060008160ff1667ffffffffffffffff81111561023757610236612646565b5b60405190808252806020026020018201604052801561027057816020015b61025d611efb565b8152602001906001900390816102555790505b50905060005b8260ff168160ff1610156104785760006001600088815260200190815260200160002060008360ff1660ff1681526020019081526020016000209050806040518060c00160405290816000820160009054906101000a900460ff1660ff1660ff1681526020016001820180546102eb9061323f565b80601f01602080910402602001604051908101604052809291908181526020018280546103179061323f565b80156103645780601f1061033957610100808354040283529160200191610364565b820191906000526020600020905b81548152906001019060200180831161034757829003601f168201915b5050505050815260200160028201805461037d9061323f565b80601f01602080910402602001604051908101604052809291908181526020018280546103a99061323f565b80156103f65780601f106103cb576101008083540402835291602001916103f6565b820191906000526020600020905b8154815290600101906020018083116103d957829003601f168201915b50505050508152602001600382015481526020016004820160009054906101000a900460ff1660ff1660ff1681526020016004820160019054906101000a900460ff1660ff1660ff1681525050838360ff168151811061045957610458613270565b5b6020026020010181905250508080610470906132ce565b915050610276565b50809350505050919050565b60606000806000848152602001908152602001600020905060008160040160020160029054906101000a900461ffff1661ffff16905060008167ffffffffffffffff8111156104d6576104d5612646565b5b60405190808252806020026020018201604052801561050f57816020015b6104fc611f3a565b8152602001906001900390816104f45790505b50905060005b828110156106b25760006002600088815260200190815260200160002060008381526020019081526020016000209050806040518060a00160405290816000820160009054906101000a900461ffff1661ffff1661ffff1681526020016000820160029054906101000a900460ff1660ff1660ff1681526020016000820160039054906101000a900473ffffffffffffffffffffffffffffffffffffffff1673ffffffffffffffffffffffffffffffffffffffff1673ffffffffffffffffffffffffffffffffffffffff168152602001600182015481526020016002820180546105fe9061323f565b80601f016020809104026020016040519081016040528092919081815260200182805461062a9061323f565b80156106775780601f1061064c57610100808354040283529160200191610677565b820191906000526020600020905b81548152906001019060200180831161065a57829003601f168201915b50505050508152505083838151811061069357610692613270565b5b60200260200101819052505080806106aa906132f7565b915050610515565b50809350505050919050565b600080600085815260200190815260200160002090508060040160020160059054906101000a900460ff1615610729576040517f08c379a00000000000000000000000000000000000000000000000000000000081526004016107209061339c565b60405180910390fd5b42816001016002015411610772576040517f08c379a000000000000000000000000000000000000000000000000000000000815260040161076990613408565b60405180910390fd5b60006001600086815260200190815260200160002060008560ff1660ff16815260200190815260200160002090508360ff168160000160009054906101000a900460ff1660ff16146107f9576040517f08c379a00000000000000000000000000000000000000000000000000000000081526004016107f090613474565b60405180910390fd5b60008160040160019054906101000a900460ff1660ff1611610850576040517f08c379a000000000000000000000000000000000000000000000000000000000815260040161084790613506565b60405180910390fd5b6000349050816003015481101561089c576040517f08c379a000000000000000000000000000000000000000000000000000000000815260040161089390613572565b60405180910390fd5b60008360040160020160029054906101000a900461ffff16905060006002600089815260200190815260200160002060008660040160020160029054906101000a900461ffff1661ffff16815260200190815260200160002090508360000160009054906101000a900460ff168160000160026101000a81548160ff021916908360ff160217905550818160000160006101000a81548161ffff021916908361ffff160217905550338160000160036101000a81548173ffffffffffffffffffffffffffffffffffffffff021916908373ffffffffffffffffffffffffffffffffffffffff1602179055508581600201908051906020019061099f929190611f86565b5042816001018190555060018460040160018282829054906101000a900460ff166109ca9190613592565b92506101000a81548160ff021916908360ff160217905550600085600401905060018160020160028282829054906101000a900461ffff16610a0c91906135c6565b92506101000a81548161ffff021916908361ffff16021790555083816000016000828254610a3a91906135fe565b925050819055508560040160020160009054906101000a900461ffff1661ffff168660040160020160029054906101000a900461ffff1661ffff1603610a9b5760018660040160020160056101000a81548160ff0219169083151502179055505b505050505050505050565b60008563ffffffff1611610aef576040517f08c379a0000000000000000000000000000000000000000000000000000000008152600401610ae6906136a0565b60405180910390fd5b62375f008563ffffffff161115610b3b576040517f08c379a0000000000000000000000000000000000000000000000000000000008152600401610b3290613732565b60405180910390fd5b600042905060008663ffffffff1682610b5491906135fe565b9050818111610b98576040517f08c379a0000000000000000000000000000000000000000000000000000000008152600401610b8f9061379e565b60405180910390fd5b60ff801683511115610bdf576040517f08c379a0000000000000000000000000000000000000000000000000000000008152600401610bd690613830565b60405180910390fd5b6000805b84518160ff161015610daf576000858260ff1681518110610c0757610c06613270565b5b602002602001015190506000816080015160ff1611610c5b576040517f08c379a0000000000000000000000000000000000000000000000000000000008152600401610c52906138c2565b60405180910390fd5b8060a0015160ff16816080015160ff1614610cab576040517f08c379a0000000000000000000000000000000000000000000000000000000008152600401610ca290613954565b60405180910390fd5b806080015160ff1683610cbe91906135c6565b9250806001600060035481526020019081526020016000206000836000015160ff1660ff16815260200190815260200160002060008201518160000160006101000a81548160ff021916908360ff1602179055506020820151816001019080519060200190610d2e929190611f86565b506040820151816002019080519060200190610d4b929190611f86565b506060820151816003015560808201518160040160006101000a81548160ff021916908360ff16021790555060a08201518160040160016101000a81548160ff021916908360ff160217905550905050508080610da7906132ce565b915050610be3565b5060008161ffff1611610df7576040517f08c379a0000000000000000000000000000000000000000000000000000000008152600401610dee906139e6565b60405180910390fd5b6000806000600354815260200190815260200160002090506003548160000181905550878160070160008201518160000160006101000a81548173ffffffffffffffffffffffffffffffffffffffff021916908373ffffffffffffffffffffffffffffffffffffffff1602179055506020820151816001019080519060200190610e82929190611f86565b509050508a816001016000019080519060200190610ea1929190611f86565b5089816001016001019080519060200190610ebd929190611f86565b508281600101600201819055504281600401600101819055506000816004016000018190555060008160040160020160056101000a81548160ff021916908315150217905550818160040160020160006101000a81548161ffff021916908361ffff16021790555060008160040160020160026101000a81548161ffff021916908361ffff16021790555084518160040160020160046101000a81548160ff021916908360ff16021790555085816009016000820151816000019080519060200190610f8a929190611f86565b506020820151816001019080519060200190610fa7929190611f86565b506040820151816002019080519060200190610fc4929190611f86565b5060608201518160030160006101000a81548160ff021916908360ff1602179055509050508681600d0160008201518160000160008201518160000160006101000a81548173ffffffffffffffffffffffffffffffffffffffff021916908373ffffffffffffffffffffffffffffffffffffffff16021790555060208201518160000160146101000a81548160ff021916908360ff160217905550604082015181600101908051906020019061107b929190611f86565b50505060208201518160020160008201518160000160006101000a81548173ffffffffffffffffffffffffffffffffffffffff021916908373ffffffffffffffffffffffffffffffffffffffff16021790555060208201518160000160146101000a81548160ff021916908360ff160217905550604082015181600101908051906020019061110b929190611f86565b50505060408201518160040160008201518160000160006101000a81548173ffffffffffffffffffffffffffffffffffffffff021916908373ffffffffffffffffffffffffffffffffffffffff16021790555060208201518160000160146101000a81548160ff021916908360ff160217905550604082015181600101908051906020019061119b929190611f86565b505050905050600360008154809291906111b4906132f7565b91905055505050505050505050505050565b6060600060035467ffffffffffffffff8111156111e6576111e5612646565b5b60405190808252806020026020018201604052801561121f57816020015b61120c61200c565b8152602001906001900390816112045790505b50905060005b600354811015611ab15760008060008381526020019081526020016000209050806040518060c0016040529081600082015481526020016001820160405180606001604052908160008201805461127b9061323f565b80601f01602080910402602001604051908101604052809291908181526020018280546112a79061323f565b80156112f45780601f106112c9576101008083540402835291602001916112f4565b820191906000526020600020905b8154815290600101906020018083116112d757829003601f168201915b5050505050815260200160018201805461130d9061323f565b80601f01602080910402602001604051908101604052809291908181526020018280546113399061323f565b80156113865780601f1061135b57610100808354040283529160200191611386565b820191906000526020600020905b81548152906001019060200180831161136957829003601f168201915b505050505081526020016002820154815250508152602001600482016040518060c001604052908160008201548152602001600182015481526020016002820160009054906101000a900461ffff1661ffff1661ffff1681526020016002820160029054906101000a900461ffff1661ffff1661ffff1681526020016002820160049054906101000a900460ff1660ff1660ff1681526020016002820160059054906101000a900460ff1615151515815250508152602001600782016040518060400160405290816000820160009054906101000a900473ffffffffffffffffffffffffffffffffffffffff1673ffffffffffffffffffffffffffffffffffffffff1673ffffffffffffffffffffffffffffffffffffffff1681526020016001820180546114b39061323f565b80601f01602080910402602001604051908101604052809291908181526020018280546114df9061323f565b801561152c5780601f106115015761010080835404028352916020019161152c565b820191906000526020600020905b81548152906001019060200180831161150f57829003601f168201915b5050505050815250508152602001600982016040518060800160405290816000820180546115599061323f565b80601f01602080910402602001604051908101604052809291908181526020018280546115859061323f565b80156115d25780601f106115a7576101008083540402835291602001916115d2565b820191906000526020600020905b8154815290600101906020018083116115b557829003601f168201915b505050505081526020016001820180546115eb9061323f565b80601f01602080910402602001604051908101604052809291908181526020018280546116179061323f565b80156116645780601f1061163957610100808354040283529160200191611664565b820191906000526020600020905b81548152906001019060200180831161164757829003601f168201915b5050505050815260200160028201805461167d9061323f565b80601f01602080910402602001604051908101604052809291908181526020018280546116a99061323f565b80156116f65780601f106116cb576101008083540402835291602001916116f6565b820191906000526020600020905b8154815290600101906020018083116116d957829003601f168201915b505050505081526020016003820160009054906101000a900460ff1660ff1660ff16815250508152602001600d8201604051806060016040529081600082016040518060600160405290816000820160009054906101000a900473ffffffffffffffffffffffffffffffffffffffff1673ffffffffffffffffffffffffffffffffffffffff1673ffffffffffffffffffffffffffffffffffffffff1681526020016000820160149054906101000a900460ff1660ff1660ff1681526020016001820180546117c39061323f565b80601f01602080910402602001604051908101604052809291908181526020018280546117ef9061323f565b801561183c5780601f106118115761010080835404028352916020019161183c565b820191906000526020600020905b81548152906001019060200180831161181f57829003601f168201915b5050505050815250508152602001600282016040518060600160405290816000820160009054906101000a900473ffffffffffffffffffffffffffffffffffffffff1673ffffffffffffffffffffffffffffffffffffffff1673ffffffffffffffffffffffffffffffffffffffff1681526020016000820160149054906101000a900460ff1660ff1660ff1681526020016001820180546118dc9061323f565b80601f01602080910402602001604051908101604052809291908181526020018280546119089061323f565b80156119555780601f1061192a57610100808354040283529160200191611955565b820191906000526020600020905b81548152906001019060200180831161193857829003601f168201915b5050505050815250508152602001600482016040518060600160405290816000820160009054906101000a900473ffffffffffffffffffffffffffffffffffffffff1673ffffffffffffffffffffffffffffffffffffffff1673ffffffffffffffffffffffffffffffffffffffff1681526020016000820160149054906101000a900460ff1660ff1660ff1681526020016001820180546119f59061323f565b80601f0160208091040260200160405190810160405280929190818152602001828054611a219061323f565b8015611a6e5780601f10611a4357610100808354040283529160200191611a6e565b820191906000526020600020905b815481529060010190602001808311611a5157829003601f168201915b5050505050815250508152505081525050838381518110611a9257611a91613270565b5b6020026020010181905250508080611aa9906132f7565b915050611225565b508091505090565b600080600083815260200190815260200160002090508060040160020160059054906101000a900460ff16611b23576040517f08c379a0000000000000000000000000000000000000000000000000000000008152600401611b1a90613a52565b60405180910390fd5b8060040160020160009054906101000a900461ffff1661ffff168160040160020160029054906101000a900461ffff1661ffff1614611b97576040517f08c379a0000000000000000000000000000000000000000000000000000000008152600401611b8e90613abe565b60405180910390fd5b600081600d0160000160000160149054906101000a900460ff1660ff168260040160000154611bc69190613ade565b9050600082600d0160020160000160149054906101000a900460ff1660ff168360040160000154611bf79190613ade565b9050600083600d0160040160000160149054906101000a900460ff1660ff168460040160000154611c289190613ade565b905083600d0160000160000160009054906101000a900473ffffffffffffffffffffffffffffffffffffffff1673ffffffffffffffffffffffffffffffffffffffff166108fc849081150290604051600060405180830381858888f19350505050158015611c9a573d6000803e3d6000fd5b5083600d0160020160000160009054906101000a900473ffffffffffffffffffffffffffffffffffffffff1673ffffffffffffffffffffffffffffffffffffffff166108fc839081150290604051600060405180830381858888f19350505050158015611d0b573d6000803e3d6000fd5b5083600d0160040160000160009054906101000a900473ffffffffffffffffffffffffffffffffffffffff1673ffffffffffffffffffffffffffffffffffffffff166108fc829081150290604051600060405180830381858888f19350505050158015611d7c573d6000803e3d6000fd5b505050505050565b6000600354905090565b600080600083815260200190815260200160002090508060040160020160059054906101000a900460ff1615611df9576040517f08c379a0000000000000000000000000000000000000000000000000000000008152600401611df090613b84565b60405180910390fd5b42816001016002015411611e42576040517f08c379a0000000000000000000000000000000000000000000000000000000008152600401611e3990613bf0565b60405180910390fd5b8060070160000160009054906101000a900473ffffffffffffffffffffffffffffffffffffffff1673ffffffffffffffffffffffffffffffffffffffff163373ffffffffffffffffffffffffffffffffffffffff1614611ed7576040517f08c379a0000000000000000000000000000000000000000000000000000000008152600401611ece90613c82565b60405180910390fd5b60018160040160020160056101000a81548160ff0219169083151502179055505050565b6040518060c00160405280600060ff168152602001606081526020016060815260200160008152602001600060ff168152602001600060ff1681525090565b6040518060a00160405280600061ffff168152602001600060ff168152602001600073ffffffffffffffffffffffffffffffffffffffff16815260200160008152602001606081525090565b828054611f929061323f565b90600052602060002090601f016020900481019282611fb45760008555611ffb565b82601f10611fcd57805160ff1916838001178555611ffb565b82800160010185558215611ffb579182015b82811115611ffa578251825591602001919060010190611fdf565b5b5090506120089190612060565b5090565b6040518060c001604052806000815260200161202661207d565b815260200161203361209e565b81526020016120406120e1565b815260200161204d612111565b815260200161205a61213c565b81525090565b5b80821115612079576000816000905550600101612061565b5090565b60405180606001604052806060815260200160608152602001600081525090565b6040518060c001604052806000815260200160008152602001600061ffff168152602001600061ffff168152602001600060ff1681526020016000151581525090565b6040518060400160405280600073ffffffffffffffffffffffffffffffffffffffff168152602001606081525090565b6040518060800160405280606081526020016060815260200160608152602001600060ff1681525090565b604051806060016040528061214f61216f565b815260200161215c61216f565b815260200161216961216f565b81525090565b6040518060600160405280600073ffffffffffffffffffffffffffffffffffffffff168152602001600060ff168152602001606081525090565b6000604051905090565b600080fd5b600080fd5b6000819050919050565b6121d0816121bd565b81146121db57600080fd5b50565b6000813590506121ed816121c7565b92915050565b600060208284031215612209576122086121b3565b5b6000612217848285016121de565b91505092915050565b600081519050919050565b600082825260208201905092915050565b6000819050602082019050919050565b600060ff82169050919050565b6122628161224c565b82525050565b600081519050919050565b600082825260208201905092915050565b60005b838110156122a2578082015181840152602081019050612287565b838111156122b1576000848401525b50505050565b6000601f19601f8301169050919050565b60006122d382612268565b6122dd8185612273565b93506122ed818560208601612284565b6122f6816122b7565b840191505092915050565b61230a816121bd565b82525050565b600060c0830160008301516123286000860182612259565b506020830151848203602086015261234082826122c8565b9150506040830151848203604086015261235a82826122c8565b915050606083015161236f6060860182612301565b5060808301516123826080860182612259565b5060a083015161239560a0860182612259565b508091505092915050565b60006123ac8383612310565b905092915050565b6000602082019050919050565b60006123cc82612220565b6123d6818561222b565b9350836020820285016123e88561223c565b8060005b85811015612424578484038952815161240585826123a0565b9450612410836123b4565b925060208a019950506001810190506123ec565b50829750879550505050505092915050565b6000602082019050818103600083015261245081846123c1565b905092915050565b600081519050919050565b600082825260208201905092915050565b6000819050602082019050919050565b600061ffff82169050919050565b61249b81612484565b82525050565b600073ffffffffffffffffffffffffffffffffffffffff82169050919050565b60006124cc826124a1565b9050919050565b6124dc816124c1565b82525050565b600060a0830160008301516124fa6000860182612492565b50602083015161250d6020860182612259565b50604083015161252060408601826124d3565b5060608301516125336060860182612301565b506080830151848203608086015261254b82826122c8565b9150508091505092915050565b600061256483836124e2565b905092915050565b6000602082019050919050565b600061258482612458565b61258e8185612463565b9350836020820285016125a085612474565b8060005b858110156125dc57848403895281516125bd8582612558565b94506125c88361256c565b925060208a019950506001810190506125a4565b50829750879550505050505092915050565b600060208201905081810360008301526126088184612579565b905092915050565b6126198161224c565b811461262457600080fd5b50565b60008135905061263681612610565b92915050565b600080fd5b600080fd5b7f4e487b7100000000000000000000000000000000000000000000000000000000600052604160045260246000fd5b61267e826122b7565b810181811067ffffffffffffffff8211171561269d5761269c612646565b5b80604052505050565b60006126b06121a9565b90506126bc8282612675565b919050565b600067ffffffffffffffff8211156126dc576126db612646565b5b6126e5826122b7565b9050602081019050919050565b82818337600083830152505050565b600061271461270f846126c1565b6126a6565b9050828152602081018484840111156127305761272f612641565b5b61273b8482856126f2565b509392505050565b600082601f8301126127585761275761263c565b5b8135612768848260208601612701565b91505092915050565b60008060006060848603121561278a576127896121b3565b5b6000612798868287016121de565b93505060206127a986828701612627565b925050604084013567ffffffffffffffff8111156127ca576127c96121b8565b5b6127d686828701612743565b9150509250925092565b600063ffffffff82169050919050565b6127f9816127e0565b811461280457600080fd5b50565b600081359050612816816127f0565b92915050565b600080fd5b600080fd5b61282f816124c1565b811461283a57600080fd5b50565b60008135905061284c81612826565b92915050565b6000604082840312156128685761286761281c565b5b61287260406126a6565b905060006128828482850161283d565b600083015250602082013567ffffffffffffffff8111156128a6576128a5612821565b5b6128b284828501612743565b60208301525092915050565b60006128c9826124a1565b9050919050565b6128d9816128be565b81146128e457600080fd5b50565b6000813590506128f6816128d0565b92915050565b6000606082840312156129125761291161281c565b5b61291c60606126a6565b9050600061292c848285016128e7565b600083015250602061294084828501612627565b602083015250604082013567ffffffffffffffff81111561296457612963612821565b5b61297084828501612743565b60408301525092915050565b6000606082840312156129925761299161281c565b5b61299c60606126a6565b9050600082013567ffffffffffffffff8111156129bc576129bb612821565b5b6129c8848285016128fc565b600083015250602082013567ffffffffffffffff8111156129ec576129eb612821565b5b6129f8848285016128fc565b602083015250604082013567ffffffffffffffff811115612a1c57612a1b612821565b5b612a28848285016128fc565b60408301525092915050565b600060808284031215612a4a57612a4961281c565b5b612a5460806126a6565b9050600082013567ffffffffffffffff811115612a7457612a73612821565b5b612a8084828501612743565b600083015250602082013567ffffffffffffffff811115612aa457612aa3612821565b5b612ab084828501612743565b602083015250604082013567ffffffffffffffff811115612ad457612ad3612821565b5b612ae084828501612743565b6040830152506060612af484828501612627565b60608301525092915050565b600067ffffffffffffffff821115612b1b57612b1a612646565b5b602082029050602081019050919050565b600080fd5b600060c08284031215612b4757612b4661281c565b5b612b5160c06126a6565b90506000612b6184828501612627565b600083015250602082013567ffffffffffffffff811115612b8557612b84612821565b5b612b9184828501612743565b602083015250604082013567ffffffffffffffff811115612bb557612bb4612821565b5b612bc184828501612743565b6040830152506060612bd5848285016121de565b6060830152506080612be984828501612627565b60808301525060a0612bfd84828501612627565b60a08301525092915050565b6000612c1c612c1784612b00565b6126a6565b90508083825260208201905060208402830185811115612c3f57612c3e612b2c565b5b835b81811015612c8657803567ffffffffffffffff811115612c6457612c6361263c565b5b808601612c718982612b31565b85526020850194505050602081019050612c41565b5050509392505050565b600082601f830112612ca557612ca461263c565b5b8135612cb5848260208601612c09565b91505092915050565b600080600080600080600060e0888a031215612cdd57612cdc6121b3565b5b600088013567ffffffffffffffff811115612cfb57612cfa6121b8565b5b612d078a828b01612743565b975050602088013567ffffffffffffffff811115612d2857612d276121b8565b5b612d348a828b01612743565b9650506040612d458a828b01612807565b955050606088013567ffffffffffffffff811115612d6657612d656121b8565b5b612d728a828b01612852565b945050608088013567ffffffffffffffff811115612d9357612d926121b8565b5b612d9f8a828b0161297c565b93505060a088013567ffffffffffffffff811115612dc057612dbf6121b8565b5b612dcc8a828b01612a34565b92505060c088013567ffffffffffffffff811115612ded57612dec6121b8565b5b612df98a828b01612c90565b91505092959891949750929550565b600081519050919050565b600082825260208201905092915050565b6000819050602082019050919050565b60006060830160008301518482036000860152612e5182826122c8565b91505060208301518482036020860152612e6b82826122c8565b9150506040830151612e806040860182612301565b508091505092915050565b60008115159050919050565b612ea081612e8b565b82525050565b60c082016000820151612ebc6000850182612301565b506020820151612ecf6020850182612301565b506040820151612ee26040850182612492565b506060820151612ef56060850182612492565b506080820151612f086080850182612259565b5060a0820151612f1b60a0850182612e97565b50505050565b6000604083016000830151612f3960008601826124d3565b5060208301518482036020860152612f5182826122c8565b9150508091505092915050565b60006080830160008301518482036000860152612f7b82826122c8565b91505060208301518482036020860152612f9582826122c8565b91505060408301518482036040860152612faf82826122c8565b9150506060830151612fc46060860182612259565b508091505092915050565b612fd8816128be565b82525050565b6000606083016000830151612ff66000860182612fcf565b5060208301516130096020860182612259565b506040830151848203604086015261302182826122c8565b9150508091505092915050565b6000606083016000830151848203600086015261304b8282612fde565b915050602083015184820360208601526130658282612fde565b9150506040830151848203604086015261307f8282612fde565b9150508091505092915050565b6000610160830160008301516130a56000860182612301565b50602083015184820360208601526130bd8282612e34565b91505060408301516130d26040860182612ea6565b5060608301518482036101008601526130eb8282612f21565b91505060808301518482036101208601526131068282612f5e565b91505060a0830151848203610140860152613121828261302e565b9150508091505092915050565b600061313a838361308c565b905092915050565b6000602082019050919050565b600061315a82612e08565b6131648185612e13565b93508360208202850161317685612e24565b8060005b858110156131b25784840389528151613193858261312e565b945061319e83613142565b925060208a0199505060018101905061317a565b50829750879550505050505092915050565b600060208201905081810360008301526131de818461314f565b905092915050565b6131ef816121bd565b82525050565b600060208201905061320a60008301846131e6565b92915050565b7f4e487b7100000000000000000000000000000000000000000000000000000000600052602260045260246000fd5b6000600282049050600182168061325757607f821691505b60208210810361326a57613269613210565b5b50919050565b7f4e487b7100000000000000000000000000000000000000000000000000000000600052603260045260246000fd5b7f4e487b7100000000000000000000000000000000000000000000000000000000600052601160045260246000fd5b60006132d98261224c565b915060ff82036132ec576132eb61329f565b5b600182019050919050565b6000613302826121bd565b91507fffffffffffffffffffffffffffffffffffffffffffffffffffffffffffffffff82036133345761333361329f565b5b600182019050919050565b600082825260208201905092915050565b7f546869732063616d706169676e206861732073746f7070656400000000000000600082015250565b600061338660198361333f565b915061339182613350565b602082019050919050565b600060208201905081810360008301526133b581613379565b9050919050565b7f546869732063616d706169676e20697320616c7265616479206f766572000000600082015250565b60006133f2601d8361333f565b91506133fd826133bc565b602082019050919050565b60006020820190508181036000830152613421816133e5565b9050919050565b7f54686520626f7820494420697320696e76616c69640000000000000000000000600082015250565b600061345e60158361333f565b915061346982613428565b602082019050919050565b6000602082019050818103600083015261348d81613451565b9050919050565b7f416c6c20626f786573206f66207468697320747970652068617665206265656e60008201527f20736f6c64000000000000000000000000000000000000000000000000000000602082015250565b60006134f060258361333f565b91506134fb82613494565b604082019050919050565b6000602082019050818103600083015261351f816134e3565b9050919050565b7f476976656e20616d6f756e742069732062656c6f7720626f7820707269636500600082015250565b600061355c601f8361333f565b915061356782613526565b602082019050919050565b6000602082019050818103600083015261358b8161354f565b9050919050565b600061359d8261224c565b91506135a88361224c565b9250828210156135bb576135ba61329f565b5b828203905092915050565b60006135d182612484565b91506135dc83612484565b92508261ffff038211156135f3576135f261329f565b5b828201905092915050565b6000613609826121bd565b9150613614836121bd565b9250827fffffffffffffffffffffffffffffffffffffffffffffffffffffffffffffffff038211156136495761364861329f565b5b828201905092915050565b7f4475726174696f6e206d75737420626520686967686572207468616e20300000600082015250565b600061368a601e8361333f565b915061369582613654565b602082019050919050565b600060208201905081810360008301526136b98161367d565b9050919050565b7f4475726174696f6e2063616e277420626520686967686572207468616e20362060008201527f7765656b73000000000000000000000000000000000000000000000000000000602082015250565b600061371c60258361333f565b9150613727826136c0565b604082019050919050565b6000602082019050818103600083015261374b8161370f565b9050919050565b7f446561646c696e65206d75737420626520696e20746865206675747572650000600082015250565b6000613788601e8361333f565b915061379382613752565b602082019050919050565b600060208201905081810360008301526137b78161377b565b9050919050565b7f4e756d626572206f6620626f7865732063616e2774206265206869676865722060008201527f7468616e2028325e3136292d3100000000000000000000000000000000000000602082015250565b600061381a602d8361333f565b9150613825826137be565b604082019050919050565b600060208201905081810360008301526138498161380d565b9050919050565b7f5468657265206d757374206265206174206c65617374206f6e6520706965636560008201527f206f66206561636820626f780000000000000000000000000000000000000000602082015250565b60006138ac602c8361333f565b91506138b782613850565b604082019050919050565b600060208201905081810360008301526138db8161389f565b9050919050565b7f496e697469616c6c7920746f74616c20616e6420617661696c61626c65206f6660008201527f206120626f78206d75737420626520657175616c000000000000000000000000602082015250565b600061393e60348361333f565b9150613949826138e2565b604082019050919050565b6000602082019050818103600083015261396d81613931565b9050919050565b7f5468657265206d757374206265206174206c65617374206f6e6520626f78206960008201527f6e20746f74616c00000000000000000000000000000000000000000000000000602082015250565b60006139d060278361333f565b91506139db82613974565b604082019050919050565b600060208201905081810360008301526139ff816139c3565b9050919050565b7f5468652063616d706169676e206d7573742062652066696e6973686564000000600082015250565b6000613a3c601d8361333f565b9150613a4782613a06565b602082019050919050565b60006020820190508181036000830152613a6b81613a2f565b9050919050565b7f54686572652063616e277420626520616e7920626f786573206c656674000000600082015250565b6000613aa8601d8361333f565b9150613ab382613a72565b602082019050919050565b60006020820190508181036000830152613ad781613a9b565b9050919050565b6000613ae9826121bd565b9150613af4836121bd565b9250817fffffffffffffffffffffffffffffffffffffffffffffffffffffffffffffffff0483118215151615613b2d57613b2c61329f565b5b828202905092915050565b7f43616d706169676e20616c72656164792073746f707065640000000000000000600082015250565b6000613b6e60188361333f565b9150613b7982613b38565b602082019050919050565b60006020820190508181036000830152613b9d81613b61565b9050919050565b7f546869732063616d706169676e206973206f7665720000000000000000000000600082015250565b6000613bda60158361333f565b9150613be582613ba4565b602082019050919050565b60006020820190508181036000830152613c0981613bcd565b9050919050565b7f4f6e6c7920746865206f776e65722063616e2073746f7020612063616d70616960008201527f676e000000000000000000000000000000000000000000000000000000000000602082015250565b6000613c6c60228361333f565b9150613c7782613c10565b604082019050919050565b60006020820190508181036000830152613c9b81613c5f565b905091905056fea264697066735822122066a140549fd6370a2254000f7a139d77109b8eff8b504ee2ecb724e9e919e72d64736f6c634300080d0033",
  "immutableReferences": {},
  "source": "// SPDX-License-Identifier: AGPL\npragma solidity ^0.8.13;\n\nimport \"./CrowdfundingTypes.sol\";\n\ncontract Crowdfunding {\n    // all campaigns\n    mapping(uint256 => Campaign) campaigns;\n    // Boxes of each campaign\n    mapping(uint256 => mapping(uint8 => Box)) boxes;\n    // Sold boxes of each campaign (campignId => sellId => BoxSellRef)\n    mapping(uint256 => mapping(uint256 => BoxSellRef)) soldBoxes;\n\n    uint256 numberOfCampaigns = 0;\n\n    /**\n     * Creates a new campaign\n     */\n    function createCampaign(\n        string memory _title,\n        string memory _description,\n        uint32 _duration,\n        CampaignOwner memory _campaignOwner,\n        StakeholderList memory _stakeholders,\n        CampaignAnimalData memory _animal,\n        Box[] memory _boxes\n    ) public {\n        // check crowdfunding duration\n        require(_duration > 0, \"Duration must be higher than 0\");\n        require(_duration <= 6 weeks, \"Duration can't be higher than 6 weeks\");\n\n        // create deadline by adding the duration to the current timestamp\n        uint256 current = block.timestamp;\n        uint256 deadline = current + _duration;\n\n        // validate\n        require(deadline > current, \"Deadline must be in the future\");\n\n        // add boxes to campaign\n        require(_boxes.length <= type(uint8).max, \"Number of boxes can't be higher than (2^16)-1\");\n        uint16 totalNumOfBoxes = 0;\n        for (uint8 index = 0; index < _boxes.length; index++) {\n            Box memory box = _boxes[index];\n            require(\n                box.total > 0,\n                \"There must be at least one piece of each box\"\n            );\n            require(\n                box.total == box.available,\n                \"Initially total and available of a box must be equal\"\n            );\n            totalNumOfBoxes += box.total;\n            boxes[numberOfCampaigns][box.id] = box;\n        }\n        require(totalNumOfBoxes > 0, \"There must be at least one box in total\");\n\n        Campaign storage campaign = campaigns[numberOfCampaigns];\n        campaign.id = numberOfCampaigns;\n        campaign.owner = _campaignOwner;\n        campaign.info.title = _title;\n        campaign.info.description = _description;\n        campaign.info.deadline = deadline;\n        campaign.meta.createdAt = block.timestamp;\n        campaign.meta.collectedAmount = 0;\n        campaign.meta.isStopped = false;\n        campaign.meta.totalBoxes = totalNumOfBoxes;\n        campaign.meta.boxesSold = 0;\n        campaign.meta.totalBoxTypes = uint8(_boxes.length);\n        campaign.animal = _animal;\n        campaign.stakeholders = _stakeholders;\n\n        // increase total num of campaigns\n        numberOfCampaigns++;\n    }\n\n    /**\n     * Returns the total number of campaigns\n     */\n    function getNumberOfCampaigns() public view returns (uint256) {\n        return numberOfCampaigns;\n    }\n\n    /**\n     * Returns all campaigns\n     */\n    function getCampaigns() public view returns (Campaign[] memory) {\n        Campaign[] memory allCampaigns = new Campaign[](numberOfCampaigns);\n        for (uint256 index = 0; index < numberOfCampaigns; index++) {\n            Campaign storage campaign = campaigns[index];\n            allCampaigns[index] = campaign;\n        }\n        return allCampaigns;\n    }\n\n    /**\n     * Returns all boxes of a specific campaign\n     */\n    function getBoxes(uint256 _campaignId) public view returns (Box[] memory) {\n        Campaign storage campaign = campaigns[_campaignId];\n        uint8 totalBoxTypes = campaign.meta.totalBoxTypes;\n        Box[] memory boxesOfCampaign = new Box[](totalBoxTypes);\n        for (uint8 index = 0; index < totalBoxTypes; index++) {\n            Box storage box = boxes[_campaignId][index];\n            boxesOfCampaign[index] = box;\n        }\n        return boxesOfCampaign;\n    }\n\n    /**\n     * Returns the sell reference of boxes for a specific campaign\n     */\n    function getSoldBoxes(\n        uint256 _campaignId\n    ) public view returns (BoxSellRef[] memory) {\n        Campaign storage campaign = campaigns[_campaignId];\n        uint256 boxesSold = campaign.meta.boxesSold;\n        BoxSellRef[] memory sellRefs = new BoxSellRef[](boxesSold);\n        for (uint256 index = 0; index < boxesSold; index++) {\n            BoxSellRef storage sellRef = soldBoxes[_campaignId][index];\n            sellRefs[index] = sellRef;\n        }\n        return sellRefs;\n    }\n\n    /**\n     * Removes a campaign\n     */\n    function stopCampaign(uint256 _campaignId) public {\n        Campaign storage campaign = campaigns[_campaignId];\n        require(!campaign.meta.isStopped, \"Campaign already stopped\");\n        require(\n            campaign.info.deadline > block.timestamp,\n            \"This campaign is over\"\n        );\n        require(\n            msg.sender == campaign.owner.owner,\n            \"Only the owner can stop a campaign\"\n        );\n\n        campaign.meta.isStopped = true;\n    }\n\n    /**\n     * Buys a box\n     */\n    function buyBox(\n        uint256 _campaignId,\n        uint8 _boxId,\n        string memory _physAddress\n    ) public payable {\n        // get campaign ref\n        Campaign storage campaign = campaigns[_campaignId];\n        // check if this is an ongoing campaign\n        require(!campaign.meta.isStopped, \"This campaign has stopped\");\n        require(\n            campaign.info.deadline > block.timestamp,\n            \"This campaign is already over\"\n        );\n\n        // check if this campaign still has available boxes for the requested kind\n        Box storage box = boxes[_campaignId][_boxId];\n        require(box.id == _boxId, \"The box ID is invalid\");\n        require(box.available > 0, \"All boxes of this type have been sold\");\n        uint256 amount = msg.value;\n        require(amount >= box.price, \"Given amount is below box price\");\n\n        // Add buyer (Don't increase boxes sold yet, we need it starting at 0)\n        uint16 sellId = campaign.meta.boxesSold;\n        BoxSellRef storage sellRef = soldBoxes[_campaignId][\n            campaign.meta.boxesSold\n        ];\n        sellRef.boxId = box.id;\n        sellRef.id = sellId;\n        sellRef.owner = msg.sender;\n        sellRef.physAddress = _physAddress;\n        sellRef.boughtAt = block.timestamp;\n\n        // Updates available boxes by one\n        box.available -= 1;\n        // Update campaign meta\n        CampaignMeta storage meta = campaign.meta;\n        meta.boxesSold += 1;\n        meta.collectedAmount += amount;\n\n        if (campaign.meta.boxesSold == campaign.meta.totalBoxes) {\n            // Mark campaign as stopped\n            campaign.meta.isStopped = true;\n            // TODO Start Supply Chain\n        }\n    }\n\n    /**\n     * Pay-out all stakeholders of the campaign\n     */\n    function payOut(uint256 _campaignId) public {\n        Campaign storage campaign = campaigns[_campaignId];\n        require(campaign.meta.isStopped, \"The campaign must be finished\");\n        require(\n            campaign.meta.boxesSold == campaign.meta.totalBoxes,\n            \"There can't be any boxes left\"\n        );\n\n        // TODO Check if supply chain has been completed\n        // e.g. require(campaign.supplyChain.isCompleted);\n\n        // Generate shares\n        uint256 farmerShare = campaign.meta.collectedAmount * campaign.stakeholders.farmer.share;\n        uint256 butcherShare = campaign.meta.collectedAmount * campaign.stakeholders.butcher.share;\n        uint256 deliveryShare = campaign.meta.collectedAmount * campaign.stakeholders.delivery.share;\n\n        // payout stakeholders\n        payable(campaign.stakeholders.farmer.owner).transfer(farmerShare);\n        payable(campaign.stakeholders.butcher.owner).transfer(butcherShare);\n        payable(campaign.stakeholders.delivery.owner).transfer(deliveryShare);\n    }\n}\n",
  "sourcePath": "/workspaces/146157_Blockchain/smart_contracts/contracts/Crowdfunding.sol",
  "compiler": {
    "name": "solc",
    "version": "0.8.13+commit.abaa5c0e.Emscripten.clang"
  },
  "schemaVersion": "3.4.14",
  "updatedAt": "2023-08-14T09:30:05.058Z",
  "networkType": "ethereum",
  "devdoc": {
    "kind": "dev",
    "methods": {},
    "version": 1
  },
  "userdoc": {
    "kind": "user",
    "methods": {
      "buyBox(uint256,uint8,string)": {
        "notice": "Buys a box"
      },
      "createCampaign(string,string,uint32,(address,string),((address,uint8,string),(address,uint8,string),(address,uint8,string)),(string,string,string,uint8),(uint8,string,string,uint256,uint8,uint8)[])": {
        "notice": "Creates a new campaign"
      },
      "getBoxes(uint256)": {
        "notice": "Returns all boxes of a specific campaign"
      },
      "getCampaigns()": {
        "notice": "Returns all campaigns"
      },
      "getNumberOfCampaigns()": {
        "notice": "Returns the total number of campaigns"
      },
      "getSoldBoxes(uint256)": {
        "notice": "Returns the sell reference of boxes for a specific campaign"
      },
      "payOut(uint256)": {
        "notice": "Pay-out all stakeholders of the campaign"
      },
      "stopCampaign(uint256)": {
        "notice": "Removes a campaign"
      }
    },
    "version": 1
  }
}