{
  "contractName": "Crowdfunding",
  "abi": [
    {
      "inputs": [
        {
          "internalType": "uint256",
          "name": "",
          "type": "uint256"
        },
        {
          "internalType": "uint256",
          "name": "",
          "type": "uint256"
        }
      ],
      "name": "availableBoxes",
      "outputs": [
        {
          "components": [
            {
              "internalType": "string",
              "name": "title",
              "type": "string"
            },
            {
              "internalType": "string",
              "name": "description",
              "type": "string"
            },
            {
              "internalType": "uint8",
              "name": "percentage",
              "type": "uint8"
            },
            {
              "internalType": "uint16",
              "name": "price",
              "type": "uint16"
            }
          ],
          "internalType": "struct Crowdfunding.Box",
          "name": "box",
          "type": "tuple"
        },
        {
          "internalType": "uint8",
          "name": "available",
          "type": "uint8"
        },
        {
          "internalType": "uint8",
          "name": "total",
          "type": "uint8"
        }
      ],
      "stateMutability": "view",
      "type": "function",
      "constant": true
    },
    {
      "inputs": [
        {
          "internalType": "uint256",
          "name": "",
          "type": "uint256"
        }
      ],
      "name": "campaigns",
      "outputs": [
        {
          "internalType": "address",
          "name": "owner",
          "type": "address"
        },
        {
          "internalType": "string",
          "name": "title",
          "type": "string"
        },
        {
          "internalType": "string",
          "name": "description",
          "type": "string"
        },
        {
          "internalType": "uint256",
          "name": "collectedAmount",
          "type": "uint256"
        },
        {
          "internalType": "uint8",
          "name": "progress",
          "type": "uint8"
        },
        {
          "internalType": "uint256",
          "name": "deadline",
          "type": "uint256"
        }
      ],
      "stateMutability": "view",
      "type": "function",
      "constant": true
    },
    {
      "inputs": [],
      "name": "numberOfCampaigns",
      "outputs": [
        {
          "internalType": "uint256",
          "name": "",
          "type": "uint256"
        }
      ],
      "stateMutability": "view",
      "type": "function",
      "constant": true
    },
    {
      "inputs": [
        {
          "internalType": "uint256",
          "name": "",
          "type": "uint256"
        },
        {
          "internalType": "uint256",
          "name": "",
          "type": "uint256"
        }
      ],
      "name": "soldBoxes",
      "outputs": [
        {
          "internalType": "address",
          "name": "buyer",
          "type": "address"
        },
        {
          "components": [
            {
              "internalType": "string",
              "name": "title",
              "type": "string"
            },
            {
              "internalType": "string",
              "name": "description",
              "type": "string"
            },
            {
              "internalType": "uint8",
              "name": "percentage",
              "type": "uint8"
            },
            {
              "internalType": "uint16",
              "name": "price",
              "type": "uint16"
            }
          ],
          "internalType": "struct Crowdfunding.Box",
          "name": "box",
          "type": "tuple"
        }
      ],
      "stateMutability": "view",
      "type": "function",
      "constant": true
    },
    {
      "inputs": [
        {
          "internalType": "address",
          "name": "_owner",
          "type": "address"
        },
        {
          "internalType": "string",
          "name": "_title",
          "type": "string"
        },
        {
          "internalType": "string",
          "name": "_description",
          "type": "string"
        },
        {
          "internalType": "uint32",
          "name": "_duration",
          "type": "uint32"
        },
        {
          "components": [
            {
              "components": [
                {
                  "internalType": "string",
                  "name": "title",
                  "type": "string"
                },
                {
                  "internalType": "string",
                  "name": "description",
                  "type": "string"
                },
                {
                  "internalType": "uint8",
                  "name": "percentage",
                  "type": "uint8"
                },
                {
                  "internalType": "uint16",
                  "name": "price",
                  "type": "uint16"
                }
              ],
              "internalType": "struct Crowdfunding.Box",
              "name": "box",
              "type": "tuple"
            },
            {
              "internalType": "uint8",
              "name": "available",
              "type": "uint8"
            },
            {
              "internalType": "uint8",
              "name": "total",
              "type": "uint8"
            }
          ],
          "internalType": "struct Crowdfunding.BoxOffer[]",
          "name": "_boxes",
          "type": "tuple[]"
        }
      ],
      "name": "createCampaign",
      "outputs": [
        {
          "internalType": "uint256",
          "name": "",
          "type": "uint256"
        }
      ],
      "stateMutability": "nonpayable",
      "type": "function"
    },
    {
      "inputs": [
        {
          "internalType": "uint256",
          "name": "_campaignId",
          "type": "uint256"
        },
        {
          "internalType": "uint256",
          "name": "_boxId",
          "type": "uint256"
        }
      ],
      "name": "buyBox",
      "outputs": [],
      "stateMutability": "payable",
      "type": "function",
      "payable": true
    },
    {
      "inputs": [
        {
          "internalType": "uint256",
          "name": "_campaignId",
          "type": "uint256"
        }
      ],
      "name": "getCampaign",
      "outputs": [
        {
          "components": [
            {
              "internalType": "uint256",
              "name": "id",
              "type": "uint256"
            },
            {
              "components": [
                {
                  "internalType": "address",
                  "name": "owner",
                  "type": "address"
                },
                {
                  "internalType": "string",
                  "name": "title",
                  "type": "string"
                },
                {
                  "internalType": "string",
                  "name": "description",
                  "type": "string"
                },
                {
                  "internalType": "uint256",
                  "name": "collectedAmount",
                  "type": "uint256"
                },
                {
                  "internalType": "uint8",
                  "name": "progress",
                  "type": "uint8"
                },
                {
                  "internalType": "uint256",
                  "name": "deadline",
                  "type": "uint256"
                }
              ],
              "internalType": "struct Crowdfunding.Campaign",
              "name": "campaign",
              "type": "tuple"
            }
          ],
          "internalType": "struct Crowdfunding.CampaignRef",
          "name": "",
          "type": "tuple"
        }
      ],
      "stateMutability": "view",
      "type": "function",
      "constant": true
    },
    {
      "inputs": [],
      "name": "getCampaigns",
      "outputs": [
        {
          "components": [
            {
              "internalType": "uint256",
              "name": "id",
              "type": "uint256"
            },
            {
              "components": [
                {
                  "internalType": "address",
                  "name": "owner",
                  "type": "address"
                },
                {
                  "internalType": "string",
                  "name": "title",
                  "type": "string"
                },
                {
                  "internalType": "string",
                  "name": "description",
                  "type": "string"
                },
                {
                  "internalType": "uint256",
                  "name": "collectedAmount",
                  "type": "uint256"
                },
                {
                  "internalType": "uint8",
                  "name": "progress",
                  "type": "uint8"
                },
                {
                  "internalType": "uint256",
                  "name": "deadline",
                  "type": "uint256"
                }
              ],
              "internalType": "struct Crowdfunding.Campaign",
              "name": "campaign",
              "type": "tuple"
            }
          ],
          "internalType": "struct Crowdfunding.CampaignRef[]",
          "name": "",
          "type": "tuple[]"
        }
      ],
      "stateMutability": "view",
      "type": "function",
      "constant": true
    },
    {
      "inputs": [
        {
          "internalType": "uint256",
          "name": "_campaignId",
          "type": "uint256"
        }
      ],
      "name": "getAvailableBoxes",
      "outputs": [
        {
          "components": [
            {
              "components": [
                {
                  "internalType": "string",
                  "name": "title",
                  "type": "string"
                },
                {
                  "internalType": "string",
                  "name": "description",
                  "type": "string"
                },
                {
                  "internalType": "uint8",
                  "name": "percentage",
                  "type": "uint8"
                },
                {
                  "internalType": "uint16",
                  "name": "price",
                  "type": "uint16"
                }
              ],
              "internalType": "struct Crowdfunding.Box",
              "name": "box",
              "type": "tuple"
            },
            {
              "internalType": "uint8",
              "name": "available",
              "type": "uint8"
            },
            {
              "internalType": "uint8",
              "name": "total",
              "type": "uint8"
            }
          ],
          "internalType": "struct Crowdfunding.BoxOffer[]",
          "name": "",
          "type": "tuple[]"
        }
      ],
      "stateMutability": "view",
      "type": "function",
      "constant": true
    }
  ],
  "bytecode": "0x6080604052600060035534801561001557600080fd5b50612ab5806100256000396000f3fe6080604052600436106100865760003560e01c80635598f8cc116100595780635598f8cc1461015257806359e5ec871461018f5780637b3a10ae146101ce578063a6b036331461020b578063d5b18ecc1461023657610086565b806307ca140d1461008b578063141961bc146100b65780632f6d6353146100f8578063406d382a14610136575b600080fd5b34801561009757600080fd5b506100a0610273565b6040516100ad9190611820565b60405180910390f35b3480156100c257600080fd5b506100dd60048036038101906100d8919061187b565b610279565b6040516100ef9695949392919061199e565b60405180910390f35b34801561010457600080fd5b5061011f600480360381019061011a9190611a0d565b6103f2565b60405161012d929190611b2d565b60405180910390f35b610150600480360381019061014b9190611a0d565b6105be565b005b34801561015e57600080fd5b506101796004803603810190610174919061187b565b610a4b565b6040516101869190611c48565b60405180910390f35b34801561019b57600080fd5b506101b660048036038101906101b19190611a0d565b610c42565b6040516101c593929190611c6a565b60405180910390f35b3480156101da57600080fd5b506101f560048036038101906101f091906120bd565b610e0e565b6040516102029190611820565b60405180910390f35b34801561021757600080fd5b50610220611244565b60405161022d919061228b565b60405180910390f35b34801561024257600080fd5b5061025d6004803603810190610258919061187b565b6114ce565b60405161026a9190612429565b60405180910390f35b60035481565b60006020528060005260406000206000915090508060000160009054906101000a900473ffffffffffffffffffffffffffffffffffffffff16908060010180546102c29061247a565b80601f01602080910402602001604051908101604052809291908181526020018280546102ee9061247a565b801561033b5780601f106103105761010080835404028352916020019161033b565b820191906000526020600020905b81548152906001019060200180831161031e57829003601f168201915b5050505050908060020180546103509061247a565b80601f016020809104026020016040519081016040528092919081815260200182805461037c9061247a565b80156103c95780601f1061039e576101008083540402835291602001916103c9565b820191906000526020600020905b8154815290600101906020018083116103ac57829003601f168201915b5050505050908060030154908060040160009054906101000a900460ff16908060050154905086565b6002602052816000526040600020818154811061040e57600080fd5b9060005260206000209060040201600091509150508060000160009054906101000a900473ffffffffffffffffffffffffffffffffffffffff1690806001016040518060800160405290816000820180546104689061247a565b80601f01602080910402602001604051908101604052809291908181526020018280546104949061247a565b80156104e15780601f106104b6576101008083540402835291602001916104e1565b820191906000526020600020905b8154815290600101906020018083116104c457829003601f168201915b505050505081526020016001820180546104fa9061247a565b80601f01602080910402602001604051908101604052809291908181526020018280546105269061247a565b80156105735780601f1061054857610100808354040283529160200191610573565b820191906000526020600020905b81548152906001019060200180831161055657829003601f168201915b505050505081526020016002820160009054906101000a900460ff1660ff1660ff1681526020016002820160019054906101000a900461ffff1661ffff1661ffff1681525050905082565b6000349050600080600085815260200190815260200160002090504281600501541115610620576040517f08c379a0000000000000000000000000000000000000000000000000000000008152600401610617906124f7565b60405180910390fd5b600060016000868152602001908152602001600020848154811061064757610646612517565b5b9060005260206000209060040201905060008160030160009054906101000a900460ff1660ff16116106ae576040517f08c379a00000000000000000000000000000000000000000000000000000000081526004016106a5906125b8565b60405180910390fd5b6000816000016040518060800160405290816000820180546106cf9061247a565b80601f01602080910402602001604051908101604052809291908181526020018280546106fb9061247a565b80156107485780601f1061071d57610100808354040283529160200191610748565b820191906000526020600020905b81548152906001019060200180831161072b57829003601f168201915b505050505081526020016001820180546107619061247a565b80601f016020809104026020016040519081016040528092919081815260200182805461078d9061247a565b80156107da5780601f106107af576101008083540402835291602001916107da565b820191906000526020600020905b8154815290600101906020018083116107bd57829003601f168201915b505050505081526020016002820160009054906101000a900460ff1660ff1660ff1681526020016002820160019054906101000a900461ffff1661ffff1661ffff1681525050905083816060015161ffff16111561086d576040517f08c379a000000000000000000000000000000000000000000000000000000000815260040161086490612624565b60405180910390fd5b81600301600081819054906101000a900460ff168092919061088e90612673565b91906101000a81548160ff021916908360ff1602179055505080604001518360040160008282829054906101000a900460ff166108cb919061269c565b92506101000a81548160ff021916908360ff160217905550838360030160008282546108f791906126d3565b925050819055506000600260008881526020019081526020016000209050600060405180604001604052803373ffffffffffffffffffffffffffffffffffffffff1681526020018481525090508181908060018154018082558091505060019003906000526020600020906004020160009091909190915060008201518160000160006101000a81548173ffffffffffffffffffffffffffffffffffffffff021916908373ffffffffffffffffffffffffffffffffffffffff16021790555060208201518160010160008201518160000190805190602001906109db9291906116f5565b5060208201518160010190805190602001906109f89291906116f5565b5060408201518160020160006101000a81548160ff021916908360ff16021790555060608201518160020160016101000a81548161ffff021916908361ffff160217905550505050505050505050505050565b610a5361177b565b6000806000848152602001908152602001600020905060006040518060400160405280858152602001836040518060c00160405290816000820160009054906101000a900473ffffffffffffffffffffffffffffffffffffffff1673ffffffffffffffffffffffffffffffffffffffff1673ffffffffffffffffffffffffffffffffffffffff168152602001600182018054610aee9061247a565b80601f0160208091040260200160405190810160405280929190818152602001828054610b1a9061247a565b8015610b675780601f10610b3c57610100808354040283529160200191610b67565b820191906000526020600020905b815481529060010190602001808311610b4a57829003601f168201915b50505050508152602001600282018054610b809061247a565b80601f0160208091040260200160405190810160405280929190818152602001828054610bac9061247a565b8015610bf95780601f10610bce57610100808354040283529160200191610bf9565b820191906000526020600020905b815481529060010190602001808311610bdc57829003601f168201915b50505050508152602001600382015481526020016004820160009054906101000a900460ff1660ff1660ff16815260200160058201548152505081525090508092505050919050565b60016020528160005260406000208181548110610c5e57600080fd5b90600052602060002090600402016000915091505080600001604051806080016040529081600082018054610c929061247a565b80601f0160208091040260200160405190810160405280929190818152602001828054610cbe9061247a565b8015610d0b5780601f10610ce057610100808354040283529160200191610d0b565b820191906000526020600020905b815481529060010190602001808311610cee57829003601f168201915b50505050508152602001600182018054610d249061247a565b80601f0160208091040260200160405190810160405280929190818152602001828054610d509061247a565b8015610d9d5780601f10610d7257610100808354040283529160200191610d9d565b820191906000526020600020905b815481529060010190602001808311610d8057829003601f168201915b505050505081526020016002820160009054906101000a900460ff1660ff1660ff1681526020016002820160019054906101000a900461ffff1661ffff1661ffff1681525050908060030160009054906101000a900460ff16908060030160019054906101000a900460ff16905083565b600080600080600354815260200190815260200160002090506000600160006003548152602001908152602001600020905062375f008563ffffffff161115610e8c576040517f08c379a0000000000000000000000000000000000000000000000000000000008152600401610e839061279b565b60405180910390fd5b60008563ffffffff1642610ea091906126d3565b9050428110610ee4576040517f08c379a0000000000000000000000000000000000000000000000000000000008152600401610edb90612807565b60405180910390fd5b6000805b8651811015610fe9576000878281518110610f0657610f05612517565b5b602002602001015190506001816020015160ff161015610f5b576040517f08c379a0000000000000000000000000000000000000000000000000000000008152600401610f5290612899565b60405180910390fd5b6000816000015190506000816040015160ff16118015610f8357506064816040015160ff1611155b610fc2576040517f08c379a0000000000000000000000000000000000000000000000000000000008152600401610fb990612951565b60405180910390fd5b806040015184610fd2919061269c565b935050508080610fe190612971565b915050610ee8565b5060648160ff1614611030576040517f08c379a000000000000000000000000000000000000000000000000000000000815260040161102790612a2b565b60405180910390fd5b898460000160006101000a81548173ffffffffffffffffffffffffffffffffffffffff021916908373ffffffffffffffffffffffffffffffffffffffff1602179055508884600101908051906020019061108b9291906116f5565b50878460020190805190602001906110a49291906116f5565b506000846003018190555060008460040160006101000a81548160ff021916908360ff16021790555081846005018190555060005b865181101561120d5760008782815181106110f7576110f6612517565b5b602002602001015190508481908060018154018082558091505060019003906000526020600020906004020160009091909190915060008201518160000160008201518160000190805190602001906111519291906116f5565b50602082015181600101908051906020019061116e9291906116f5565b5060408201518160020160006101000a81548160ff021916908360ff16021790555060608201518160020160016101000a81548161ffff021916908361ffff160217905550505060208201518160030160006101000a81548160ff021916908360ff16021790555060408201518160030160016101000a81548160ff021916908360ff160217905550505050808061120590612971565b9150506110d9565b506003600081548092919061122190612971565b919050555060016003546112359190612a4b565b94505050505095945050505050565b6060600060035467ffffffffffffffff81111561126457611263611cde565b5b60405190808252806020026020018201604052801561129d57816020015b61128a61177b565b8152602001906001900390816112825790505b50905060005b6003548110156114c6576000806000838152602001908152602001600020905060006040518060400160405280848152602001836040518060c00160405290816000820160009054906101000a900473ffffffffffffffffffffffffffffffffffffffff1673ffffffffffffffffffffffffffffffffffffffff1673ffffffffffffffffffffffffffffffffffffffff1681526020016001820180546113489061247a565b80601f01602080910402602001604051908101604052809291908181526020018280546113749061247a565b80156113c15780601f10611396576101008083540402835291602001916113c1565b820191906000526020600020905b8154815290600101906020018083116113a457829003601f168201915b505050505081526020016002820180546113da9061247a565b80601f01602080910402602001604051908101604052809291908181526020018280546114069061247a565b80156114535780601f1061142857610100808354040283529160200191611453565b820191906000526020600020905b81548152906001019060200180831161143657829003601f168201915b50505050508152602001600382015481526020016004820160009054906101000a900460ff1660ff1660ff1681526020016005820154815250508152509050808484815181106114a6576114a5612517565b5b6020026020010181905250505080806114be90612971565b9150506112a3565b508091505090565b6060600060016000848152602001908152602001600020905080805480602002602001604051908101604052809291908181526020016000905b828210156116e957838290600052602060002090600402016040518060600160405290816000820160405180608001604052908160008201805461154b9061247a565b80601f01602080910402602001604051908101604052809291908181526020018280546115779061247a565b80156115c45780601f10611599576101008083540402835291602001916115c4565b820191906000526020600020905b8154815290600101906020018083116115a757829003601f168201915b505050505081526020016001820180546115dd9061247a565b80601f01602080910402602001604051908101604052809291908181526020018280546116099061247a565b80156116565780601f1061162b57610100808354040283529160200191611656565b820191906000526020600020905b81548152906001019060200180831161163957829003601f168201915b505050505081526020016002820160009054906101000a900460ff1660ff1660ff1681526020016002820160019054906101000a900461ffff1661ffff1661ffff168152505081526020016003820160009054906101000a900460ff1660ff1660ff1681526020016003820160019054906101000a900460ff1660ff1660ff168152505081526020019060010190611508565b50505050915050919050565b8280546117019061247a565b90600052602060002090601f016020900481019282611723576000855561176a565b82601f1061173c57805160ff191683800117855561176a565b8280016001018555821561176a579182015b8281111561176957825182559160200191906001019061174e565b5b509050611777919061179b565b5090565b6040518060400160405280600081526020016117956117b8565b81525090565b5b808211156117b457600081600090555060010161179c565b5090565b6040518060c00160405280600073ffffffffffffffffffffffffffffffffffffffff168152602001606081526020016060815260200160008152602001600060ff168152602001600081525090565b6000819050919050565b61181a81611807565b82525050565b60006020820190506118356000830184611811565b92915050565b6000604051905090565b600080fd5b600080fd5b61185881611807565b811461186357600080fd5b50565b6000813590506118758161184f565b92915050565b60006020828403121561189157611890611845565b5b600061189f84828501611866565b91505092915050565b600073ffffffffffffffffffffffffffffffffffffffff82169050919050565b60006118d3826118a8565b9050919050565b6118e3816118c8565b82525050565b600081519050919050565b600082825260208201905092915050565b60005b83811015611923578082015181840152602081019050611908565b83811115611932576000848401525b50505050565b6000601f19601f8301169050919050565b6000611954826118e9565b61195e81856118f4565b935061196e818560208601611905565b61197781611938565b840191505092915050565b600060ff82169050919050565b61199881611982565b82525050565b600060c0820190506119b360008301896118da565b81810360208301526119c58188611949565b905081810360408301526119d98187611949565b90506119e86060830186611811565b6119f5608083018561198f565b611a0260a0830184611811565b979650505050505050565b60008060408385031215611a2457611a23611845565b5b6000611a3285828601611866565b9250506020611a4385828601611866565b9150509250929050565b600082825260208201905092915050565b6000611a69826118e9565b611a738185611a4d565b9350611a83818560208601611905565b611a8c81611938565b840191505092915050565b611aa081611982565b82525050565b600061ffff82169050919050565b611abd81611aa6565b82525050565b60006080830160008301518482036000860152611ae08282611a5e565b91505060208301518482036020860152611afa8282611a5e565b9150506040830151611b0f6040860182611a97565b506060830151611b226060860182611ab4565b508091505092915050565b6000604082019050611b4260008301856118da565b8181036020830152611b548184611ac3565b90509392505050565b611b6681611807565b82525050565b611b75816118c8565b82525050565b600060c083016000830151611b936000860182611b6c565b5060208301518482036020860152611bab8282611a5e565b91505060408301518482036040860152611bc58282611a5e565b9150506060830151611bda6060860182611b5d565b506080830151611bed6080860182611a97565b5060a0830151611c0060a0860182611b5d565b508091505092915050565b6000604083016000830151611c236000860182611b5d565b5060208301518482036020860152611c3b8282611b7b565b9150508091505092915050565b60006020820190508181036000830152611c628184611c0b565b905092915050565b60006060820190508181036000830152611c848186611ac3565b9050611c93602083018561198f565b611ca0604083018461198f565b949350505050565b611cb1816118c8565b8114611cbc57600080fd5b50565b600081359050611cce81611ca8565b92915050565b600080fd5b600080fd5b7f4e487b7100000000000000000000000000000000000000000000000000000000600052604160045260246000fd5b611d1682611938565b810181811067ffffffffffffffff82111715611d3557611d34611cde565b5b80604052505050565b6000611d4861183b565b9050611d548282611d0d565b919050565b600067ffffffffffffffff821115611d7457611d73611cde565b5b611d7d82611938565b9050602081019050919050565b82818337600083830152505050565b6000611dac611da784611d59565b611d3e565b905082815260208101848484011115611dc857611dc7611cd9565b5b611dd3848285611d8a565b509392505050565b600082601f830112611df057611def611cd4565b5b8135611e00848260208601611d99565b91505092915050565b600063ffffffff82169050919050565b611e2281611e09565b8114611e2d57600080fd5b50565b600081359050611e3f81611e19565b92915050565b600067ffffffffffffffff821115611e6057611e5f611cde565b5b602082029050602081019050919050565b600080fd5b600080fd5b600080fd5b611e8981611982565b8114611e9457600080fd5b50565b600081359050611ea681611e80565b92915050565b611eb581611aa6565b8114611ec057600080fd5b50565b600081359050611ed281611eac565b92915050565b600060808284031215611eee57611eed611e76565b5b611ef86080611d3e565b9050600082013567ffffffffffffffff811115611f1857611f17611e7b565b5b611f2484828501611ddb565b600083015250602082013567ffffffffffffffff811115611f4857611f47611e7b565b5b611f5484828501611ddb565b6020830152506040611f6884828501611e97565b6040830152506060611f7c84828501611ec3565b60608301525092915050565b600060608284031215611f9e57611f9d611e76565b5b611fa86060611d3e565b9050600082013567ffffffffffffffff811115611fc857611fc7611e7b565b5b611fd484828501611ed8565b6000830152506020611fe884828501611e97565b6020830152506040611ffc84828501611e97565b60408301525092915050565b600061201b61201684611e45565b611d3e565b9050808382526020820190506020840283018581111561203e5761203d611e71565b5b835b8181101561208557803567ffffffffffffffff81111561206357612062611cd4565b5b8086016120708982611f88565b85526020850194505050602081019050612040565b5050509392505050565b600082601f8301126120a4576120a3611cd4565b5b81356120b4848260208601612008565b91505092915050565b600080600080600060a086880312156120d9576120d8611845565b5b60006120e788828901611cbf565b955050602086013567ffffffffffffffff8111156121085761210761184a565b5b61211488828901611ddb565b945050604086013567ffffffffffffffff8111156121355761213461184a565b5b61214188828901611ddb565b935050606061215288828901611e30565b925050608086013567ffffffffffffffff8111156121735761217261184a565b5b61217f8882890161208f565b9150509295509295909350565b600081519050919050565b600082825260208201905092915050565b6000819050602082019050919050565b60006040830160008301516121d06000860182611b5d565b50602083015184820360208601526121e88282611b7b565b9150508091505092915050565b600061220183836121b8565b905092915050565b6000602082019050919050565b60006122218261218c565b61222b8185612197565b93508360208202850161223d856121a8565b8060005b85811015612279578484038952815161225a85826121f5565b945061226583612209565b925060208a01995050600181019050612241565b50829750879550505050505092915050565b600060208201905081810360008301526122a58184612216565b905092915050565b600081519050919050565b600082825260208201905092915050565b6000819050602082019050919050565b600060808301600083015184820360008601526122f68282611a5e565b915050602083015184820360208601526123108282611a5e565b91505060408301516123256040860182611a97565b5060608301516123386060860182611ab4565b508091505092915050565b6000606083016000830151848203600086015261236082826122d9565b91505060208301516123756020860182611a97565b5060408301516123886040860182611a97565b508091505092915050565b600061239f8383612343565b905092915050565b6000602082019050919050565b60006123bf826122ad565b6123c981856122b8565b9350836020820285016123db856122c9565b8060005b8581101561241757848403895281516123f88582612393565b9450612403836123a7565b925060208a019950506001810190506123df565b50829750879550505050505092915050565b6000602082019050818103600083015261244381846123b4565b905092915050565b7f4e487b7100000000000000000000000000000000000000000000000000000000600052602260045260246000fd5b6000600282049050600182168061249257607f821691505b6020821081036124a5576124a461244b565b5b50919050565b7f546869732063616d706169676e206973206f7665720000000000000000000000600082015250565b60006124e16015836118f4565b91506124ec826124ab565b602082019050919050565b60006020820190508181036000830152612510816124d4565b9050919050565b7f4e487b7100000000000000000000000000000000000000000000000000000000600052603260045260246000fd5b7f416c6c20626f786573206f66207468697320747970652068617665206265656e60008201527f20736f6c64000000000000000000000000000000000000000000000000000000602082015250565b60006125a26025836118f4565b91506125ad82612546565b604082019050919050565b600060208201905081810360008301526125d181612595565b9050919050565b7f476976656e20616d6f756e742069732062656c6f7720626f7820707269636500600082015250565b600061260e601f836118f4565b9150612619826125d8565b602082019050919050565b6000602082019050818103600083015261263d81612601565b9050919050565b7f4e487b7100000000000000000000000000000000000000000000000000000000600052601160045260246000fd5b600061267e82611982565b91506000820361269157612690612644565b5b600182039050919050565b60006126a782611982565b91506126b283611982565b92508260ff038211156126c8576126c7612644565b5b828201905092915050565b60006126de82611807565b91506126e983611807565b9250827fffffffffffffffffffffffffffffffffffffffffffffffffffffffffffffffff0382111561271e5761271d612644565b5b828201905092915050565b7f4475726174696f6e2063616e277420626520686967686572207468616e20362060008201527f7765656b73000000000000000000000000000000000000000000000000000000602082015250565b60006127856025836118f4565b915061279082612729565b604082019050919050565b600060208201905081810360008301526127b481612778565b9050919050565b7f446561646c696e65206d75737420626520696e20746865206675747572650000600082015250565b60006127f1601e836118f4565b91506127fc826127bb565b602082019050919050565b60006020820190508181036000830152612820816127e4565b9050919050565b7f5468657265206d757374206265206174206c65617374206f6e6520626f78207460008201527f6f2073656c6c0000000000000000000000000000000000000000000000000000602082015250565b60006128836026836118f4565b915061288e82612827565b604082019050919050565b600060208201905081810360008301526128b281612876565b9050919050565b7f5468652070657263656e74616765206f66206120626f782063616e2774206d7560008201527f737420626520686967686572207468616e203020616e64206c6f776572206f7260208201527f20657175616c20746f2031303000000000000000000000000000000000000000604082015250565b600061293b604d836118f4565b9150612946826128b9565b606082019050919050565b6000602082019050818103600083015261296a8161292e565b9050919050565b600061297c82611807565b91507fffffffffffffffffffffffffffffffffffffffffffffffffffffffffffffffff82036129ae576129ad612644565b5b600182019050919050565b7f53756d206f66207468652070657263656e74616765206f6620616c6c20626f7860008201527f6573206d75737420626520657175616c20746f20313030000000000000000000602082015250565b6000612a156037836118f4565b9150612a20826129b9565b604082019050919050565b60006020820190508181036000830152612a4481612a08565b9050919050565b6000612a5682611807565b9150612a6183611807565b925082821015612a7457612a73612644565b5b82820390509291505056fea2646970667358221220f8da38ef5485f3232e13c5d4ac03d0466d979ee26d6a9f282a22229d81b9a55a64736f6c634300080d0033",
  "immutableReferences": {},
  "source": "// SPDX-License-Identifier: AGPL\npragma solidity ^0.8.13;\n\ncontract Crowdfunding {\n    struct Box {\n        /// Title of a box\n        string title;\n        /// Description of a box\n        string description;\n        /// The percentage a box adds up to the total\n        uint8 percentage;\n        /// The price of this box in eth\n        uint16 price;\n    }\n\n    struct BoxSell {\n        /// Buyer of the box\n        address buyer;\n        /// Sold box\n        Box box;\n    }\n\n    struct BoxOffer {\n        /// The box to sell\n        Box box;\n        /// Number of available boxes\n        uint8 available;\n        /// Total number of boxes\n        uint8 total;\n    }\n\n    struct Campaign {\n        /// Owner of this campaign\n        address owner;\n        /// The campaigns title\n        string title;\n        /// The campaigns description\n        string description;\n        /// Total amount collected in eth\n        uint256 collectedAmount;\n        /// Sold percentage\n        uint8 progress;\n        /// The deadline of this campaign\n        uint256 deadline;\n    }\n\n    struct CampaignRef {\n      /// Campaign id\n      uint256 id;\n      /// reference to the campaign\n      Campaign campaign;\n    }\n\n    // all campaigns\n    mapping(uint256 => Campaign) public campaigns;\n    // available boxes for specific campaigns\n    mapping(uint256 => BoxOffer[]) public availableBoxes;\n    // sold boxes for specific campaign\n    mapping(uint256 => BoxSell[]) public soldBoxes;\n\n    uint256 public numberOfCampaigns = 0;\n\n    /**\n     * Creates a new campaign\n     */\n    function createCampaign(\n        address _owner,\n        string memory _title,\n        string memory _description,\n        uint32 _duration,\n        BoxOffer[] memory _boxes\n    ) public returns (uint256) {\n        Campaign storage campaign = campaigns[numberOfCampaigns];\n        BoxOffer[] storage _availableBoxes = availableBoxes[numberOfCampaigns];\n\n        /*\n        DAS MUSS: DEADLINE = TIMESTAMP + DEADLINE\n        DEADLINE IST DANN SEKUNDEN\n        */\n\n        // check crowdfunding duration\n        require(_duration <= 6 weeks, \"Duration can't be higher than 6 weeks\");\n\n        // in solidity dates are seconds\n        uint256 deadline = block.timestamp + _duration;\n\n        // deadline can't be in the past\n        require(\n            deadline < block.timestamp,\n            \"Deadline must be in the future\"\n        );\n\n        // all boxes have to add up to 100\n        uint8 totalPercentage = 0;\n        for (uint256 index = 0; index < _boxes.length; index++) {\n            BoxOffer memory offer = _boxes[index];\n            require(offer.available >= 1, \"There must be at least one box to sell\");\n\n            Box memory box = offer.box;\n            // A box must add some percentage to the total\n            require(\n                box.percentage > 0 && box.percentage <= 100,\n                \"The percentage of a box can't must be higher than 0 and lower or equal to 100\"\n            );\n\n            totalPercentage += box.percentage;\n        }\n        require(\n            totalPercentage == 100,\n            \"Sum of the percentage of all boxes must be equal to 100\"\n        );\n\n        // Create campaign\n        campaign.owner = _owner;\n        campaign.title = _title;\n        campaign.description = _description;\n        campaign.collectedAmount = 0;\n        campaign.progress = 0;\n        campaign.deadline = deadline;\n\n        // add boxes\n        for (uint256 index = 0; index < _boxes.length; index++) {\n            BoxOffer memory offer = _boxes[index];\n            _availableBoxes.push(offer);\n        }\n\n        // increase total num of campaigns\n        numberOfCampaigns++;\n\n        // return the most recent campaign index\n        return numberOfCampaigns - 1;\n    }\n\n    /**\n     * Buys a box\n     */\n    function buyBox(uint256 _campaignId, uint256 _boxId) public payable {\n        uint256 amount = msg.value;\n\n        // get desired campaign and box\n        Campaign storage campaign = campaigns[_campaignId];\n        require(campaign.deadline <= block.timestamp, \"This campaign is over\");\n        BoxOffer storage boxOffer = availableBoxes[_campaignId][_boxId];\n        require(boxOffer.available > 0, \"All boxes of this type have been sold\");\n        Box memory box = boxOffer.box;\n        require(box.price <= amount, \"Given amount is below box price\");\n\n        // Reduce available boxes by one\n        boxOffer.available--;\n        // Add to total percentage\n        campaign.progress+=box.percentage;\n        // Add total collected amount\n        campaign.collectedAmount+=amount;\n        // Add buyer\n        BoxSell[] storage _soldBoxes = soldBoxes[_campaignId];\n        BoxSell memory boxSell = BoxSell({buyer: msg.sender, box: box});\n        _soldBoxes.push(boxSell);\n\n        // TODO Check if percentage is 100%, if yes -> start chain\n    }\n\n    /**\n     * Returns a specific campaign\n     */\n    function getCampaign(uint256 _campaignId) public view returns (CampaignRef memory) {\n        Campaign storage campaign = campaigns[_campaignId];\n        CampaignRef memory ref = CampaignRef({ id: _campaignId, campaign: campaign });\n        return ref;\n    }\n\n    /**\n     * Returns all campaigns\n     */\n    function getCampaigns() public view returns (CampaignRef[] memory) {\n        CampaignRef[] memory allCampaigns = new CampaignRef[](numberOfCampaigns);\n\n        for (uint256 index = 0; index < numberOfCampaigns; index++) {\n            Campaign storage campaign = campaigns[index];\n            CampaignRef memory ref = CampaignRef({ id: index, campaign: campaign });\n            allCampaigns[index] = ref;\n        }\n\n        return allCampaigns;\n    }\n\n    /**\n     * Returns all available boxes for a specific campaign\n     */\n    function getAvailableBoxes(uint256 _campaignId) public view returns (BoxOffer[] memory) {\n        BoxOffer[] storage boxOffer = availableBoxes[_campaignId];\n        return boxOffer;\n    }\n\n}\n",
  "sourcePath": "/workspaces/146157_Blockchain/smart_contracts/contracts/Crowdfunding.sol",
  "compiler": {
    "name": "solc",
    "version": "0.8.13+commit.abaa5c0e.Emscripten.clang"
  },
  "schemaVersion": "3.4.14",
  "updatedAt": "2023-07-12T12:29:07.738Z",
  "networkType": "ethereum",
  "devdoc": {
    "kind": "dev",
    "methods": {},
    "version": 1
  },
  "userdoc": {
    "kind": "user",
    "methods": {
      "buyBox(uint256,uint256)": {
        "notice": "Buys a box"
      },
      "createCampaign(address,string,string,uint32,((string,string,uint8,uint16),uint8,uint8)[])": {
        "notice": "Creates a new campaign"
      },
      "getAvailableBoxes(uint256)": {
        "notice": "Returns all available boxes for a specific campaign"
      },
      "getCampaign(uint256)": {
        "notice": "Returns a specific campaign"
      },
      "getCampaigns()": {
        "notice": "Returns all campaigns"
      }
    },
    "version": 1
  }
}