{
  "contractName": "SupplyChains",
  "abi": [
    {
      "inputs": [],
      "name": "NumberOfSupplyChains",
      "outputs": [
        {
          "internalType": "uint256",
          "name": "",
          "type": "uint256"
        }
      ],
      "stateMutability": "view",
      "type": "function"
    },
    {
      "inputs": [
        {
          "internalType": "uint256",
          "name": "",
          "type": "uint256"
        }
      ],
      "name": "supplychains",
      "outputs": [
        {
          "internalType": "uint256",
          "name": "campaignRef",
          "type": "uint256"
        },
        {
          "internalType": "bool",
          "name": "isAnimalDelivered",
          "type": "bool"
        },
        {
          "internalType": "bool",
          "name": "isAnimalProcessed",
          "type": "bool"
        },
        {
          "internalType": "bool",
          "name": "areBoxesPrepared",
          "type": "bool"
        },
        {
          "internalType": "bool",
          "name": "areBoxesDistributed",
          "type": "bool"
        },
        {
          "internalType": "bool",
          "name": "areBoxesDelivered",
          "type": "bool"
        },
        {
          "internalType": "uint256",
          "name": "totalBoxes",
          "type": "uint256"
        },
        {
          "internalType": "uint256",
          "name": "preparedBoxes",
          "type": "uint256"
        },
        {
          "internalType": "uint256",
          "name": "deliveredBoxes",
          "type": "uint256"
        },
        {
          "internalType": "uint256",
          "name": "receivedBoxes",
          "type": "uint256"
        },
        {
          "components": [
            {
              "components": [
                {
                  "internalType": "address payable",
                  "name": "owner",
                  "type": "address"
                },
                {
                  "internalType": "uint8",
                  "name": "share",
                  "type": "uint8"
                },
                {
                  "internalType": "string",
                  "name": "info",
                  "type": "string"
                }
              ],
              "internalType": "struct Stakeholder",
              "name": "farmer",
              "type": "tuple"
            },
            {
              "components": [
                {
                  "internalType": "address payable",
                  "name": "owner",
                  "type": "address"
                },
                {
                  "internalType": "uint8",
                  "name": "share",
                  "type": "uint8"
                },
                {
                  "internalType": "string",
                  "name": "info",
                  "type": "string"
                }
              ],
              "internalType": "struct Stakeholder",
              "name": "butcher",
              "type": "tuple"
            },
            {
              "components": [
                {
                  "internalType": "address payable",
                  "name": "owner",
                  "type": "address"
                },
                {
                  "internalType": "uint8",
                  "name": "share",
                  "type": "uint8"
                },
                {
                  "internalType": "string",
                  "name": "info",
                  "type": "string"
                }
              ],
              "internalType": "struct Stakeholder",
              "name": "delivery",
              "type": "tuple"
            }
          ],
          "internalType": "struct StakeholderList",
          "name": "stakeholders",
          "type": "tuple"
        }
      ],
      "stateMutability": "view",
      "type": "function"
    },
    {
      "inputs": [
        {
          "components": [
            {
              "internalType": "uint256",
              "name": "id",
              "type": "uint256"
            },
            {
              "components": [
                {
                  "internalType": "string",
                  "name": "title",
                  "type": "string"
                },
                {
                  "internalType": "string",
                  "name": "description",
                  "type": "string"
                },
                {
                  "internalType": "uint256",
                  "name": "deadline",
                  "type": "uint256"
                }
              ],
              "internalType": "struct CampaignInfo",
              "name": "info",
              "type": "tuple"
            },
            {
              "components": [
                {
                  "internalType": "uint256",
                  "name": "collectedAmount",
                  "type": "uint256"
                },
                {
                  "internalType": "uint256",
                  "name": "createdAt",
                  "type": "uint256"
                },
                {
                  "internalType": "uint256",
                  "name": "totalBoxes",
                  "type": "uint256"
                },
                {
                  "internalType": "uint256",
                  "name": "boxesSold",
                  "type": "uint256"
                },
                {
                  "internalType": "uint256",
                  "name": "totalBoxTypes",
                  "type": "uint256"
                },
                {
                  "internalType": "bool",
                  "name": "isStopped",
                  "type": "bool"
                }
              ],
              "internalType": "struct CampaignMeta",
              "name": "meta",
              "type": "tuple"
            },
            {
              "components": [
                {
                  "internalType": "address",
                  "name": "owner",
                  "type": "address"
                },
                {
                  "internalType": "string",
                  "name": "ownerPublicKey",
                  "type": "string"
                }
              ],
              "internalType": "struct CampaignOwner",
              "name": "owner",
              "type": "tuple"
            },
            {
              "components": [
                {
                  "internalType": "string",
                  "name": "earTag",
                  "type": "string"
                },
                {
                  "internalType": "string",
                  "name": "name",
                  "type": "string"
                },
                {
                  "internalType": "string",
                  "name": "farm",
                  "type": "string"
                },
                {
                  "internalType": "uint8",
                  "name": "age",
                  "type": "uint8"
                }
              ],
              "internalType": "struct CampaignAnimalData",
              "name": "animal",
              "type": "tuple"
            },
            {
              "components": [
                {
                  "components": [
                    {
                      "internalType": "address payable",
                      "name": "owner",
                      "type": "address"
                    },
                    {
                      "internalType": "uint8",
                      "name": "share",
                      "type": "uint8"
                    },
                    {
                      "internalType": "string",
                      "name": "info",
                      "type": "string"
                    }
                  ],
                  "internalType": "struct Stakeholder",
                  "name": "farmer",
                  "type": "tuple"
                },
                {
                  "components": [
                    {
                      "internalType": "address payable",
                      "name": "owner",
                      "type": "address"
                    },
                    {
                      "internalType": "uint8",
                      "name": "share",
                      "type": "uint8"
                    },
                    {
                      "internalType": "string",
                      "name": "info",
                      "type": "string"
                    }
                  ],
                  "internalType": "struct Stakeholder",
                  "name": "butcher",
                  "type": "tuple"
                },
                {
                  "components": [
                    {
                      "internalType": "address payable",
                      "name": "owner",
                      "type": "address"
                    },
                    {
                      "internalType": "uint8",
                      "name": "share",
                      "type": "uint8"
                    },
                    {
                      "internalType": "string",
                      "name": "info",
                      "type": "string"
                    }
                  ],
                  "internalType": "struct Stakeholder",
                  "name": "delivery",
                  "type": "tuple"
                }
              ],
              "internalType": "struct StakeholderList",
              "name": "stakeholders",
              "type": "tuple"
            }
          ],
          "internalType": "struct Campaign",
          "name": "_campaign",
          "type": "tuple"
        },
        {
          "components": [
            {
              "internalType": "uint256",
              "name": "id",
              "type": "uint256"
            },
            {
              "internalType": "uint256",
              "name": "boxId",
              "type": "uint256"
            },
            {
              "internalType": "address",
              "name": "owner",
              "type": "address"
            },
            {
              "internalType": "uint256",
              "name": "boughtAt",
              "type": "uint256"
            },
            {
              "internalType": "string",
              "name": "physAddress",
              "type": "string"
            }
          ],
          "internalType": "struct BoxSellRef[]",
          "name": "_boxes",
          "type": "tuple[]"
        }
      ],
      "name": "StartSupplyChain",
      "outputs": [],
      "stateMutability": "nonpayable",
      "type": "function"
    },
    {
      "inputs": [
        {
          "internalType": "uint256",
          "name": "_campaignId",
          "type": "uint256"
        }
      ],
      "name": "getSupplyChainById",
      "outputs": [
        {
          "components": [
            {
              "internalType": "uint256",
              "name": "campaignRef",
              "type": "uint256"
            },
            {
              "internalType": "bool",
              "name": "isAnimalDelivered",
              "type": "bool"
            },
            {
              "internalType": "bool",
              "name": "isAnimalProcessed",
              "type": "bool"
            },
            {
              "internalType": "bool",
              "name": "areBoxesPrepared",
              "type": "bool"
            },
            {
              "internalType": "bool",
              "name": "areBoxesDistributed",
              "type": "bool"
            },
            {
              "internalType": "bool",
              "name": "areBoxesDelivered",
              "type": "bool"
            },
            {
              "internalType": "uint256",
              "name": "totalBoxes",
              "type": "uint256"
            },
            {
              "internalType": "uint256",
              "name": "preparedBoxes",
              "type": "uint256"
            },
            {
              "internalType": "uint256",
              "name": "deliveredBoxes",
              "type": "uint256"
            },
            {
              "internalType": "uint256",
              "name": "receivedBoxes",
              "type": "uint256"
            },
            {
              "components": [
                {
                  "components": [
                    {
                      "internalType": "address payable",
                      "name": "owner",
                      "type": "address"
                    },
                    {
                      "internalType": "uint8",
                      "name": "share",
                      "type": "uint8"
                    },
                    {
                      "internalType": "string",
                      "name": "info",
                      "type": "string"
                    }
                  ],
                  "internalType": "struct Stakeholder",
                  "name": "farmer",
                  "type": "tuple"
                },
                {
                  "components": [
                    {
                      "internalType": "address payable",
                      "name": "owner",
                      "type": "address"
                    },
                    {
                      "internalType": "uint8",
                      "name": "share",
                      "type": "uint8"
                    },
                    {
                      "internalType": "string",
                      "name": "info",
                      "type": "string"
                    }
                  ],
                  "internalType": "struct Stakeholder",
                  "name": "butcher",
                  "type": "tuple"
                },
                {
                  "components": [
                    {
                      "internalType": "address payable",
                      "name": "owner",
                      "type": "address"
                    },
                    {
                      "internalType": "uint8",
                      "name": "share",
                      "type": "uint8"
                    },
                    {
                      "internalType": "string",
                      "name": "info",
                      "type": "string"
                    }
                  ],
                  "internalType": "struct Stakeholder",
                  "name": "delivery",
                  "type": "tuple"
                }
              ],
              "internalType": "struct StakeholderList",
              "name": "stakeholders",
              "type": "tuple"
            }
          ],
          "internalType": "struct SupplyChain",
          "name": "",
          "type": "tuple"
        }
      ],
      "stateMutability": "view",
      "type": "function"
    },
    {
      "inputs": [
        {
          "internalType": "uint256",
          "name": "_campaignId",
          "type": "uint256"
        }
      ],
      "name": "getPreparedBoxesStatus",
      "outputs": [
        {
          "internalType": "bool[]",
          "name": "",
          "type": "bool[]"
        }
      ],
      "stateMutability": "view",
      "type": "function"
    },
    {
      "inputs": [
        {
          "internalType": "uint256",
          "name": "_campaignId",
          "type": "uint256"
        }
      ],
      "name": "markAnimalAsDelivered",
      "outputs": [],
      "stateMutability": "nonpayable",
      "type": "function"
    },
    {
      "inputs": [
        {
          "internalType": "uint256",
          "name": "_campaignId",
          "type": "uint256"
        }
      ],
      "name": "markAnimalAsProcessed",
      "outputs": [],
      "stateMutability": "nonpayable",
      "type": "function"
    },
    {
      "inputs": [
        {
          "internalType": "uint256",
          "name": "_campaignId",
          "type": "uint256"
        },
        {
          "internalType": "uint256",
          "name": "_boxId",
          "type": "uint256"
        }
      ],
      "name": "markBoxAsPrepared",
      "outputs": [],
      "stateMutability": "nonpayable",
      "type": "function"
    },
    {
      "inputs": [
        {
          "internalType": "uint256",
          "name": "_campaignId",
          "type": "uint256"
        },
        {
          "internalType": "uint256",
          "name": "_boxId",
          "type": "uint256"
        }
      ],
      "name": "markBoxAsDistributed",
      "outputs": [],
      "stateMutability": "nonpayable",
      "type": "function"
    },
    {
      "inputs": [
        {
          "internalType": "uint256",
          "name": "_campaignId",
          "type": "uint256"
        },
        {
          "internalType": "uint256",
          "name": "_boxId",
          "type": "uint256"
        }
      ],
      "name": "markBoxAsDelivered",
      "outputs": [],
      "stateMutability": "nonpayable",
      "type": "function"
    },
    {
      "inputs": [
        {
          "internalType": "uint256",
          "name": "_campaignId",
          "type": "uint256"
        }
      ],
      "name": "areAllBoxesPrepared",
      "outputs": [
        {
          "internalType": "bool",
          "name": "",
          "type": "bool"
        }
      ],
      "stateMutability": "view",
      "type": "function"
    },
    {
      "inputs": [
        {
          "internalType": "uint256",
          "name": "_campaignId",
          "type": "uint256"
        }
      ],
      "name": "areAllBoxesDistributed",
      "outputs": [
        {
          "internalType": "bool",
          "name": "",
          "type": "bool"
        }
      ],
      "stateMutability": "view",
      "type": "function"
    },
    {
      "inputs": [
        {
          "internalType": "uint256",
          "name": "_campaignId",
          "type": "uint256"
        }
      ],
      "name": "areAllBoxesDelivered",
      "outputs": [
        {
          "internalType": "bool",
          "name": "",
          "type": "bool"
        }
      ],
      "stateMutability": "view",
      "type": "function"
    },
    {
      "inputs": [
        {
          "internalType": "uint256",
          "name": "_campaignId",
          "type": "uint256"
        }
      ],
      "name": "isCompleted",
      "outputs": [
        {
          "internalType": "bool",
          "name": "",
          "type": "bool"
        }
      ],
      "stateMutability": "view",
      "type": "function"
    }
  ],
  "bytecode": "0x6080604052600060045534801561001557600080fd5b506140fc806100256000396000f3fe608060405234801561001057600080fd5b50600436106100ea5760003560e01c80636f439b461161008c578063aab83dec11610066578063aab83dec14610257578063d1d9e7c014610287578063e9368de9146102a5578063ebf91aed146102df576100ea565b80636f439b46146101db5780637a41984b146101f757806392ac8ca814610227576100ea565b80633d709a29116100c85780633d709a291461014357806341b5a2331461015f57806348e7a9a71461017b578063549775f3146101ab576100ea565b8063154a9fe1146100ef578063280f89491461010b5780633afe210914610127575b600080fd5b61010960048036038101906101049190612da5565b61030f565b005b61012560048036038101906101209190612dd2565b6103de565b005b610141600480360381019061013c9190612dd2565b6104fa565b005b61015d600480360381019061015891906136bd565b610616565b005b61017960048036038101906101749190612dd2565b610a31565b005b61019560048036038101906101909190612da5565b610b4c565b6040516101a29190613744565b60405180910390f35b6101c560048036038101906101c09190612da5565b610ff6565b6040516101d29190613744565b60405180910390f35b6101f560048036038101906101f09190612da5565b6114a0565b005b610211600480360381019061020c9190612da5565b61156f565b60405161021e9190613744565b60405180910390f35b610241600480360381019061023c9190612da5565b6119eb565b60405161024e919061381d565b60405180910390f35b610271600480360381019061026c9190612da5565b611efc565b60405161027e9190613a91565b60405180910390f35b61028f612341565b60405161029c9190613ac2565b60405180910390f35b6102bf60048036038101906102ba9190612da5565b612347565b6040516102d69b9a99989796959493929190613b3b565b60405180910390f35b6102f960048036038101906102f49190612da5565b612737565b6040516103069190613744565b60405180910390f35b600080600083815260200190815260200160002090508060060160020160000160009054906101000a900473ffffffffffffffffffffffffffffffffffffffff1673ffffffffffffffffffffffffffffffffffffffff163373ffffffffffffffffffffffffffffffffffffffff16146103bd576040517f08c379a00000000000000000000000000000000000000000000000000000000081526004016103b490613c70565b60405180910390fd5b60018160010160016101000a81548160ff0219169083151502179055505050565b600080600084815260200190815260200160002090508060060160040160000160009054906101000a900473ffffffffffffffffffffffffffffffffffffffff1673ffffffffffffffffffffffffffffffffffffffff163373ffffffffffffffffffffffffffffffffffffffff161461048c576040517f08c379a000000000000000000000000000000000000000000000000000000000815260040161048390613d02565b60405180910390fd5b600160036000858152602001908152602001600020600084815260200190815260200160002060006101000a81548160ff0219169083151502179055506104d283612737565b156104f55760018160010160046101000a81548160ff0219169083151502179055505b505050565b600080600084815260200190815260200160002090508060060160040160000160009054906101000a900473ffffffffffffffffffffffffffffffffffffffff1673ffffffffffffffffffffffffffffffffffffffff163373ffffffffffffffffffffffffffffffffffffffff16146105a8576040517f08c379a000000000000000000000000000000000000000000000000000000000815260040161059f90613d94565b60405180910390fd5b600160026000858152602001908152602001600020600084815260200190815260200160002060006101000a81548160ff0219169083151502179055506105ee83610ff6565b156106115760018160010160036101000a81548160ff0219169083151502179055505b505050565b60008060008460000151815260200190815260200160002090508260000151816000018190555060008160010160006101000a81548160ff02191690831515021790555060008160010160016101000a81548160ff02191690831515021790555060008160010160026101000a81548160ff02191690831515021790555060008160010160036101000a81548160ff02191690831515021790555060008160010160046101000a81548160ff0219169083151502179055506000805b83518110156107ec5760008482815181106106f0576106ef613db4565b5b602002602001015190506001836107079190613e12565b92506000600160008860000151815260200190815260200160002060008360000151815260200190815260200160002060006101000a81548160ff0219169083151502179055506000600260008860000151815260200190815260200160002060008360000151815260200190815260200160002060006101000a81548160ff0219169083151502179055506000600360008860000151815260200190815260200160002060008360000151815260200190815260200160002060006101000a81548160ff0219169083151502179055505080806107e490613e68565b9150506106d2565b5060008111610830576040517f08c379a000000000000000000000000000000000000000000000000000000000815260040161082790613f22565b60405180910390fd5b8082600201819055506000826003018190555060008260040181905550600082600501819055508360a001518260060160008201518160000160008201518160000160006101000a81548173ffffffffffffffffffffffffffffffffffffffff021916908373ffffffffffffffffffffffffffffffffffffffff16021790555060208201518160000160146101000a81548160ff021916908360ff16021790555060408201518160010190805190602001906108ed929190612be1565b50505060208201518160020160008201518160000160006101000a81548173ffffffffffffffffffffffffffffffffffffffff021916908373ffffffffffffffffffffffffffffffffffffffff16021790555060208201518160000160146101000a81548160ff021916908360ff160217905550604082015181600101908051906020019061097d929190612be1565b50505060408201518160040160008201518160000160006101000a81548173ffffffffffffffffffffffffffffffffffffffff021916908373ffffffffffffffffffffffffffffffffffffffff16021790555060208201518160000160146101000a81548160ff021916908360ff1602179055506040820151816001019080519060200190610a0d929190612be1565b50505090505060046000815480929190610a2690613e68565b919050555050505050565b600080600084815260200190815260200160002090508060060160020160000160009054906101000a900473ffffffffffffffffffffffffffffffffffffffff1673ffffffffffffffffffffffffffffffffffffffff163373ffffffffffffffffffffffffffffffffffffffff1614610adf576040517f08c379a0000000000000000000000000000000000000000000000000000000008152600401610ad690613fb4565b60405180910390fd5b6001806000858152602001908152602001600020600084815260200190815260200160002060006101000a81548160ff021916908315150217905550610b2483610b4c565b15610b475760018160010160026101000a81548160ff0219169083151502179055505b505050565b60008060008084815260200190815260200160002060405180610160016040529081600082015481526020016001820160009054906101000a900460ff161515151581526020016001820160019054906101000a900460ff161515151581526020016001820160029054906101000a900460ff161515151581526020016001820160039054906101000a900460ff161515151581526020016001820160049054906101000a900460ff161515151581526020016002820154815260200160038201548152602001600482015481526020016005820154815260200160068201604051806060016040529081600082016040518060600160405290816000820160009054906101000a900473ffffffffffffffffffffffffffffffffffffffff1673ffffffffffffffffffffffffffffffffffffffff1673ffffffffffffffffffffffffffffffffffffffff1681526020016000820160149054906101000a900460ff1660ff1660ff168152602001600182018054610cc990614003565b80601f0160208091040260200160405190810160405280929190818152602001828054610cf590614003565b8015610d425780601f10610d1757610100808354040283529160200191610d42565b820191906000526020600020905b815481529060010190602001808311610d2557829003601f168201915b5050505050815250508152602001600282016040518060600160405290816000820160009054906101000a900473ffffffffffffffffffffffffffffffffffffffff1673ffffffffffffffffffffffffffffffffffffffff1673ffffffffffffffffffffffffffffffffffffffff1681526020016000820160149054906101000a900460ff1660ff1660ff168152602001600182018054610de290614003565b80601f0160208091040260200160405190810160405280929190818152602001828054610e0e90614003565b8015610e5b5780601f10610e3057610100808354040283529160200191610e5b565b820191906000526020600020905b815481529060010190602001808311610e3e57829003601f168201915b5050505050815250508152602001600482016040518060600160405290816000820160009054906101000a900473ffffffffffffffffffffffffffffffffffffffff1673ffffffffffffffffffffffffffffffffffffffff1673ffffffffffffffffffffffffffffffffffffffff1681526020016000820160149054906101000a900460ff1660ff1660ff168152602001600182018054610efb90614003565b80601f0160208091040260200160405190810160405280929190818152602001828054610f2790614003565b8015610f745780601f10610f4957610100808354040283529160200191610f74565b820191906000526020600020905b815481529060010190602001808311610f5757829003601f168201915b5050505050815250508152505081525050905060005b8160c00151811015610fea5760016000858152602001908152602001600020600082815260200190815260200160002060009054906101000a900460ff16610fd757600092505050610ff1565b8080610fe290613e68565b915050610f8a565b5060019150505b919050565b60008060008084815260200190815260200160002060405180610160016040529081600082015481526020016001820160009054906101000a900460ff161515151581526020016001820160019054906101000a900460ff161515151581526020016001820160029054906101000a900460ff161515151581526020016001820160039054906101000a900460ff161515151581526020016001820160049054906101000a900460ff161515151581526020016002820154815260200160038201548152602001600482015481526020016005820154815260200160068201604051806060016040529081600082016040518060600160405290816000820160009054906101000a900473ffffffffffffffffffffffffffffffffffffffff1673ffffffffffffffffffffffffffffffffffffffff1673ffffffffffffffffffffffffffffffffffffffff1681526020016000820160149054906101000a900460ff1660ff1660ff16815260200160018201805461117390614003565b80601f016020809104026020016040519081016040528092919081815260200182805461119f90614003565b80156111ec5780601f106111c1576101008083540402835291602001916111ec565b820191906000526020600020905b8154815290600101906020018083116111cf57829003601f168201915b5050505050815250508152602001600282016040518060600160405290816000820160009054906101000a900473ffffffffffffffffffffffffffffffffffffffff1673ffffffffffffffffffffffffffffffffffffffff1673ffffffffffffffffffffffffffffffffffffffff1681526020016000820160149054906101000a900460ff1660ff1660ff16815260200160018201805461128c90614003565b80601f01602080910402602001604051908101604052809291908181526020018280546112b890614003565b80156113055780601f106112da57610100808354040283529160200191611305565b820191906000526020600020905b8154815290600101906020018083116112e857829003601f168201915b5050505050815250508152602001600482016040518060600160405290816000820160009054906101000a900473ffffffffffffffffffffffffffffffffffffffff1673ffffffffffffffffffffffffffffffffffffffff1673ffffffffffffffffffffffffffffffffffffffff1681526020016000820160149054906101000a900460ff1660ff1660ff1681526020016001820180546113a590614003565b80601f01602080910402602001604051908101604052809291908181526020018280546113d190614003565b801561141e5780601f106113f35761010080835404028352916020019161141e565b820191906000526020600020905b81548152906001019060200180831161140157829003601f168201915b5050505050815250508152505081525050905060005b8160c001518110156114945760026000858152602001908152602001600020600082815260200190815260200160002060009054906101000a900460ff166114815760009250505061149b565b808061148c90613e68565b915050611434565b5060019150505b919050565b600080600083815260200190815260200160002090508060060160000160000160009054906101000a900473ffffffffffffffffffffffffffffffffffffffff1673ffffffffffffffffffffffffffffffffffffffff163373ffffffffffffffffffffffffffffffffffffffff161461154e576040517f08c379a0000000000000000000000000000000000000000000000000000000008152600401611545906140a6565b60405180910390fd5b60018160010160006101000a81548160ff0219169083151502179055505050565b60008060008084815260200190815260200160002060405180610160016040529081600082015481526020016001820160009054906101000a900460ff161515151581526020016001820160019054906101000a900460ff161515151581526020016001820160029054906101000a900460ff161515151581526020016001820160039054906101000a900460ff161515151581526020016001820160049054906101000a900460ff161515151581526020016002820154815260200160038201548152602001600482015481526020016005820154815260200160068201604051806060016040529081600082016040518060600160405290816000820160009054906101000a900473ffffffffffffffffffffffffffffffffffffffff1673ffffffffffffffffffffffffffffffffffffffff1673ffffffffffffffffffffffffffffffffffffffff1681526020016000820160149054906101000a900460ff1660ff1660ff1681526020016001820180546116ec90614003565b80601f016020809104026020016040519081016040528092919081815260200182805461171890614003565b80156117655780601f1061173a57610100808354040283529160200191611765565b820191906000526020600020905b81548152906001019060200180831161174857829003601f168201915b5050505050815250508152602001600282016040518060600160405290816000820160009054906101000a900473ffffffffffffffffffffffffffffffffffffffff1673ffffffffffffffffffffffffffffffffffffffff1673ffffffffffffffffffffffffffffffffffffffff1681526020016000820160149054906101000a900460ff1660ff1660ff16815260200160018201805461180590614003565b80601f016020809104026020016040519081016040528092919081815260200182805461183190614003565b801561187e5780601f106118535761010080835404028352916020019161187e565b820191906000526020600020905b81548152906001019060200180831161186157829003601f168201915b5050505050815250508152602001600482016040518060600160405290816000820160009054906101000a900473ffffffffffffffffffffffffffffffffffffffff1673ffffffffffffffffffffffffffffffffffffffff1673ffffffffffffffffffffffffffffffffffffffff1681526020016000820160149054906101000a900460ff1660ff1660ff16815260200160018201805461191e90614003565b80601f016020809104026020016040519081016040528092919081815260200182805461194a90614003565b80156119975780601f1061196c57610100808354040283529160200191611997565b820191906000526020600020905b81548152906001019060200180831161197a57829003601f168201915b50505050508152505081525050815250509050806020015180156119bc575080604001515b80156119c9575080606001515b80156119d6575080608001515b80156119e357508060a001515b915050919050565b6060600080600084815260200190815260200160002060405180610160016040529081600082015481526020016001820160009054906101000a900460ff161515151581526020016001820160019054906101000a900460ff161515151581526020016001820160029054906101000a900460ff161515151581526020016001820160039054906101000a900460ff161515151581526020016001820160049054906101000a900460ff161515151581526020016002820154815260200160038201548152602001600482015481526020016005820154815260200160068201604051806060016040529081600082016040518060600160405290816000820160009054906101000a900473ffffffffffffffffffffffffffffffffffffffff1673ffffffffffffffffffffffffffffffffffffffff1673ffffffffffffffffffffffffffffffffffffffff1681526020016000820160149054906101000a900460ff1660ff1660ff168152602001600182018054611b6990614003565b80601f0160208091040260200160405190810160405280929190818152602001828054611b9590614003565b8015611be25780601f10611bb757610100808354040283529160200191611be2565b820191906000526020600020905b815481529060010190602001808311611bc557829003601f168201915b5050505050815250508152602001600282016040518060600160405290816000820160009054906101000a900473ffffffffffffffffffffffffffffffffffffffff1673ffffffffffffffffffffffffffffffffffffffff1673ffffffffffffffffffffffffffffffffffffffff1681526020016000820160149054906101000a900460ff1660ff1660ff168152602001600182018054611c8290614003565b80601f0160208091040260200160405190810160405280929190818152602001828054611cae90614003565b8015611cfb5780601f10611cd057610100808354040283529160200191611cfb565b820191906000526020600020905b815481529060010190602001808311611cde57829003601f168201915b5050505050815250508152602001600482016040518060600160405290816000820160009054906101000a900473ffffffffffffffffffffffffffffffffffffffff1673ffffffffffffffffffffffffffffffffffffffff1673ffffffffffffffffffffffffffffffffffffffff1681526020016000820160149054906101000a900460ff1660ff1660ff168152602001600182018054611d9b90614003565b80601f0160208091040260200160405190810160405280929190818152602001828054611dc790614003565b8015611e145780601f10611de957610100808354040283529160200191611e14565b820191906000526020600020905b815481529060010190602001808311611df757829003601f168201915b5050505050815250508152505081525050905060008160c0015167ffffffffffffffff811115611e4757611e46612e28565b5b604051908082528060200260200182016040528015611e755781602001602082028036833780820191505090505b50905060005b8260c00151811015611ef15760016000868152602001908152602001600020600082815260200190815260200160002060009054906101000a900460ff16828281518110611ecc57611ecb613db4565b5b6020026020010190151590811515815250508080611ee990613e68565b915050611e7b565b508092505050919050565b611f04612c67565b60008083815260200190815260200160002060405180610160016040529081600082015481526020016001820160009054906101000a900460ff161515151581526020016001820160019054906101000a900460ff161515151581526020016001820160029054906101000a900460ff161515151581526020016001820160039054906101000a900460ff161515151581526020016001820160049054906101000a900460ff161515151581526020016002820154815260200160038201548152602001600482015481526020016005820154815260200160068201604051806060016040529081600082016040518060600160405290816000820160009054906101000a900473ffffffffffffffffffffffffffffffffffffffff1673ffffffffffffffffffffffffffffffffffffffff1673ffffffffffffffffffffffffffffffffffffffff1681526020016000820160149054906101000a900460ff1660ff1660ff16815260200160018201805461207e90614003565b80601f01602080910402602001604051908101604052809291908181526020018280546120aa90614003565b80156120f75780601f106120cc576101008083540402835291602001916120f7565b820191906000526020600020905b8154815290600101906020018083116120da57829003601f168201915b5050505050815250508152602001600282016040518060600160405290816000820160009054906101000a900473ffffffffffffffffffffffffffffffffffffffff1673ffffffffffffffffffffffffffffffffffffffff1673ffffffffffffffffffffffffffffffffffffffff1681526020016000820160149054906101000a900460ff1660ff1660ff16815260200160018201805461219790614003565b80601f01602080910402602001604051908101604052809291908181526020018280546121c390614003565b80156122105780601f106121e557610100808354040283529160200191612210565b820191906000526020600020905b8154815290600101906020018083116121f357829003601f168201915b5050505050815250508152602001600482016040518060600160405290816000820160009054906101000a900473ffffffffffffffffffffffffffffffffffffffff1673ffffffffffffffffffffffffffffffffffffffff1673ffffffffffffffffffffffffffffffffffffffff1681526020016000820160149054906101000a900460ff1660ff1660ff1681526020016001820180546122b090614003565b80601f01602080910402602001604051908101604052809291908181526020018280546122dc90614003565b80156123295780601f106122fe57610100808354040283529160200191612329565b820191906000526020600020905b81548152906001019060200180831161230c57829003601f168201915b50505050508152505081525050815250509050919050565b60045481565b60006020528060005260406000206000915090508060000154908060010160009054906101000a900460ff16908060010160019054906101000a900460ff16908060010160029054906101000a900460ff16908060010160039054906101000a900460ff16908060010160049054906101000a900460ff169080600201549080600301549080600401549080600501549080600601604051806060016040529081600082016040518060600160405290816000820160009054906101000a900473ffffffffffffffffffffffffffffffffffffffff1673ffffffffffffffffffffffffffffffffffffffff1673ffffffffffffffffffffffffffffffffffffffff1681526020016000820160149054906101000a900460ff1660ff1660ff16815260200160018201805461247a90614003565b80601f01602080910402602001604051908101604052809291908181526020018280546124a690614003565b80156124f35780601f106124c8576101008083540402835291602001916124f3565b820191906000526020600020905b8154815290600101906020018083116124d657829003601f168201915b5050505050815250508152602001600282016040518060600160405290816000820160009054906101000a900473ffffffffffffffffffffffffffffffffffffffff1673ffffffffffffffffffffffffffffffffffffffff1673ffffffffffffffffffffffffffffffffffffffff1681526020016000820160149054906101000a900460ff1660ff1660ff16815260200160018201805461259390614003565b80601f01602080910402602001604051908101604052809291908181526020018280546125bf90614003565b801561260c5780601f106125e15761010080835404028352916020019161260c565b820191906000526020600020905b8154815290600101906020018083116125ef57829003601f168201915b5050505050815250508152602001600482016040518060600160405290816000820160009054906101000a900473ffffffffffffffffffffffffffffffffffffffff1673ffffffffffffffffffffffffffffffffffffffff1673ffffffffffffffffffffffffffffffffffffffff1681526020016000820160149054906101000a900460ff1660ff1660ff1681526020016001820180546126ac90614003565b80601f01602080910402602001604051908101604052809291908181526020018280546126d890614003565b80156127255780601f106126fa57610100808354040283529160200191612725565b820191906000526020600020905b81548152906001019060200180831161270857829003601f168201915b5050505050815250508152505090508b565b60008060008084815260200190815260200160002060405180610160016040529081600082015481526020016001820160009054906101000a900460ff161515151581526020016001820160019054906101000a900460ff161515151581526020016001820160029054906101000a900460ff161515151581526020016001820160039054906101000a900460ff161515151581526020016001820160049054906101000a900460ff161515151581526020016002820154815260200160038201548152602001600482015481526020016005820154815260200160068201604051806060016040529081600082016040518060600160405290816000820160009054906101000a900473ffffffffffffffffffffffffffffffffffffffff1673ffffffffffffffffffffffffffffffffffffffff1673ffffffffffffffffffffffffffffffffffffffff1681526020016000820160149054906101000a900460ff1660ff1660ff1681526020016001820180546128b490614003565b80601f01602080910402602001604051908101604052809291908181526020018280546128e090614003565b801561292d5780601f106129025761010080835404028352916020019161292d565b820191906000526020600020905b81548152906001019060200180831161291057829003601f168201915b5050505050815250508152602001600282016040518060600160405290816000820160009054906101000a900473ffffffffffffffffffffffffffffffffffffffff1673ffffffffffffffffffffffffffffffffffffffff1673ffffffffffffffffffffffffffffffffffffffff1681526020016000820160149054906101000a900460ff1660ff1660ff1681526020016001820180546129cd90614003565b80601f01602080910402602001604051908101604052809291908181526020018280546129f990614003565b8015612a465780601f10612a1b57610100808354040283529160200191612a46565b820191906000526020600020905b815481529060010190602001808311612a2957829003601f168201915b5050505050815250508152602001600482016040518060600160405290816000820160009054906101000a900473ffffffffffffffffffffffffffffffffffffffff1673ffffffffffffffffffffffffffffffffffffffff1673ffffffffffffffffffffffffffffffffffffffff1681526020016000820160149054906101000a900460ff1660ff1660ff168152602001600182018054612ae690614003565b80601f0160208091040260200160405190810160405280929190818152602001828054612b1290614003565b8015612b5f5780601f10612b3457610100808354040283529160200191612b5f565b820191906000526020600020905b815481529060010190602001808311612b4257829003601f168201915b5050505050815250508152505081525050905060005b8160c00151811015612bd55760036000858152602001908152602001600020600082815260200190815260200160002060009054906101000a900460ff16612bc257600092505050612bdc565b8080612bcd90613e68565b915050612b75565b5060019150505b919050565b828054612bed90614003565b90600052602060002090601f016020900481019282612c0f5760008555612c56565b82601f10612c2857805160ff1916838001178555612c56565b82800160010185558215612c56579182015b82811115612c55578251825591602001919060010190612c3a565b5b509050612c639190612cd1565b5090565b6040518061016001604052806000815260200160001515815260200160001515815260200160001515815260200160001515815260200160001515815260200160008152602001600081526020016000815260200160008152602001612ccb612cee565b81525090565b5b80821115612cea576000816000905550600101612cd2565b5090565b6040518060600160405280612d01612d21565b8152602001612d0e612d21565b8152602001612d1b612d21565b81525090565b6040518060600160405280600073ffffffffffffffffffffffffffffffffffffffff168152602001600060ff168152602001606081525090565b6000604051905090565b600080fd5b600080fd5b6000819050919050565b612d8281612d6f565b8114612d8d57600080fd5b50565b600081359050612d9f81612d79565b92915050565b600060208284031215612dbb57612dba612d65565b5b6000612dc984828501612d90565b91505092915050565b60008060408385031215612de957612de8612d65565b5b6000612df785828601612d90565b9250506020612e0885828601612d90565b9150509250929050565b600080fd5b6000601f19601f8301169050919050565b7f4e487b7100000000000000000000000000000000000000000000000000000000600052604160045260246000fd5b612e6082612e17565b810181811067ffffffffffffffff82111715612e7f57612e7e612e28565b5b80604052505050565b6000612e92612d5b565b9050612e9e8282612e57565b919050565b600080fd5b600080fd5b600080fd5b600067ffffffffffffffff821115612ecd57612ecc612e28565b5b612ed682612e17565b9050602081019050919050565b82818337600083830152505050565b6000612f05612f0084612eb2565b612e88565b905082815260208101848484011115612f2157612f20612ead565b5b612f2c848285612ee3565b509392505050565b600082601f830112612f4957612f48612ea8565b5b8135612f59848260208601612ef2565b91505092915050565b600060608284031215612f7857612f77612e12565b5b612f826060612e88565b9050600082013567ffffffffffffffff811115612fa257612fa1612ea3565b5b612fae84828501612f34565b600083015250602082013567ffffffffffffffff811115612fd257612fd1612ea3565b5b612fde84828501612f34565b6020830152506040612ff284828501612d90565b60408301525092915050565b60008115159050919050565b61301381612ffe565b811461301e57600080fd5b50565b6000813590506130308161300a565b92915050565b600060c0828403121561304c5761304b612e12565b5b61305660c0612e88565b9050600061306684828501612d90565b600083015250602061307a84828501612d90565b602083015250604061308e84828501612d90565b60408301525060606130a284828501612d90565b60608301525060806130b684828501612d90565b60808301525060a06130ca84828501613021565b60a08301525092915050565b600073ffffffffffffffffffffffffffffffffffffffff82169050919050565b6000613101826130d6565b9050919050565b613111816130f6565b811461311c57600080fd5b50565b60008135905061312e81613108565b92915050565b60006040828403121561314a57613149612e12565b5b6131546040612e88565b905060006131648482850161311f565b600083015250602082013567ffffffffffffffff81111561318857613187612ea3565b5b61319484828501612f34565b60208301525092915050565b600060ff82169050919050565b6131b6816131a0565b81146131c157600080fd5b50565b6000813590506131d3816131ad565b92915050565b6000608082840312156131ef576131ee612e12565b5b6131f96080612e88565b9050600082013567ffffffffffffffff81111561321957613218612ea3565b5b61322584828501612f34565b600083015250602082013567ffffffffffffffff81111561324957613248612ea3565b5b61325584828501612f34565b602083015250604082013567ffffffffffffffff81111561327957613278612ea3565b5b61328584828501612f34565b6040830152506060613299848285016131c4565b60608301525092915050565b60006132b0826130d6565b9050919050565b6132c0816132a5565b81146132cb57600080fd5b50565b6000813590506132dd816132b7565b92915050565b6000606082840312156132f9576132f8612e12565b5b6133036060612e88565b90506000613313848285016132ce565b6000830152506020613327848285016131c4565b602083015250604082013567ffffffffffffffff81111561334b5761334a612ea3565b5b61335784828501612f34565b60408301525092915050565b60006060828403121561337957613378612e12565b5b6133836060612e88565b9050600082013567ffffffffffffffff8111156133a3576133a2612ea3565b5b6133af848285016132e3565b600083015250602082013567ffffffffffffffff8111156133d3576133d2612ea3565b5b6133df848285016132e3565b602083015250604082013567ffffffffffffffff81111561340357613402612ea3565b5b61340f848285016132e3565b60408301525092915050565b6000610160828403121561343257613431612e12565b5b61343c60c0612e88565b9050600061344c84828501612d90565b600083015250602082013567ffffffffffffffff8111156134705761346f612ea3565b5b61347c84828501612f62565b602083015250604061349084828501613036565b60408301525061010082013567ffffffffffffffff8111156134b5576134b4612ea3565b5b6134c184828501613134565b60608301525061012082013567ffffffffffffffff8111156134e6576134e5612ea3565b5b6134f2848285016131d9565b60808301525061014082013567ffffffffffffffff81111561351757613516612ea3565b5b61352384828501613363565b60a08301525092915050565b600067ffffffffffffffff82111561354a57613549612e28565b5b602082029050602081019050919050565b600080fd5b600060a0828403121561357657613575612e12565b5b61358060a0612e88565b9050600061359084828501612d90565b60008301525060206135a484828501612d90565b60208301525060406135b88482850161311f565b60408301525060606135cc84828501612d90565b606083015250608082013567ffffffffffffffff8111156135f0576135ef612ea3565b5b6135fc84828501612f34565b60808301525092915050565b600061361b6136168461352f565b612e88565b9050808382526020820190506020840283018581111561363e5761363d61355b565b5b835b8181101561368557803567ffffffffffffffff81111561366357613662612ea8565b5b8086016136708982613560565b85526020850194505050602081019050613640565b5050509392505050565b600082601f8301126136a4576136a3612ea8565b5b81356136b4848260208601613608565b91505092915050565b600080604083850312156136d4576136d3612d65565b5b600083013567ffffffffffffffff8111156136f2576136f1612d6a565b5b6136fe8582860161341b565b925050602083013567ffffffffffffffff81111561371f5761371e612d6a565b5b61372b8582860161368f565b9150509250929050565b61373e81612ffe565b82525050565b60006020820190506137596000830184613735565b92915050565b600081519050919050565b600082825260208201905092915050565b6000819050602082019050919050565b61379481612ffe565b82525050565b60006137a6838361378b565b60208301905092915050565b6000602082019050919050565b60006137ca8261375f565b6137d4818561376a565b93506137df8361377b565b8060005b838110156138105781516137f7888261379a565b9750613802836137b2565b9250506001810190506137e3565b5085935050505092915050565b6000602082019050818103600083015261383781846137bf565b905092915050565b61384881612d6f565b82525050565b613857816132a5565b82525050565b613866816131a0565b82525050565b600081519050919050565b600082825260208201905092915050565b60005b838110156138a657808201518184015260208101905061388b565b838111156138b5576000848401525b50505050565b60006138c68261386c565b6138d08185613877565b93506138e0818560208601613888565b6138e981612e17565b840191505092915050565b600060608301600083015161390c600086018261384e565b50602083015161391f602086018261385d565b506040830151848203604086015261393782826138bb565b9150508091505092915050565b6000606083016000830151848203600086015261396182826138f4565b9150506020830151848203602086015261397b82826138f4565b9150506040830151848203604086015261399582826138f4565b9150508091505092915050565b6000610160830160008301516139bb600086018261383f565b5060208301516139ce602086018261378b565b5060408301516139e1604086018261378b565b5060608301516139f4606086018261378b565b506080830151613a07608086018261378b565b5060a0830151613a1a60a086018261378b565b5060c0830151613a2d60c086018261383f565b5060e0830151613a4060e086018261383f565b50610100830151613a5561010086018261383f565b50610120830151613a6a61012086018261383f565b50610140830151848203610140860152613a848282613944565b9150508091505092915050565b60006020820190508181036000830152613aab81846139a2565b905092915050565b613abc81612d6f565b82525050565b6000602082019050613ad76000830184613ab3565b92915050565b60006060830160008301518482036000860152613afa82826138f4565b91505060208301518482036020860152613b1482826138f4565b91505060408301518482036040860152613b2e82826138f4565b9150508091505092915050565b600061016082019050613b51600083018e613ab3565b613b5e602083018d613735565b613b6b604083018c613735565b613b78606083018b613735565b613b85608083018a613735565b613b9260a0830189613735565b613b9f60c0830188613ab3565b613bac60e0830187613ab3565b613bba610100830186613ab3565b613bc8610120830185613ab3565b818103610140830152613bdb8184613add565b90509c9b505050505050505050505050565b600082825260208201905092915050565b7f4f6e6c792074686520627574636865722063616e206d61726b2074686520616e60008201527f696d616c2061732070726f636573736564000000000000000000000000000000602082015250565b6000613c5a603183613bed565b9150613c6582613bfe565b604082019050919050565b60006020820190508181036000830152613c8981613c4d565b9050919050565b7f4f6e6c79207468652064656c697665727920736572766963652063616e206d6160008201527f726b206120626f782061732064656c6976657265640000000000000000000000602082015250565b6000613cec603583613bed565b9150613cf782613c90565b604082019050919050565b60006020820190508181036000830152613d1b81613cdf565b9050919050565b7f4f6e6c79207468652064656c697665727920736572766963652063616e206d6160008201527f726b206120626f78206173206469737472696275746564000000000000000000602082015250565b6000613d7e603783613bed565b9150613d8982613d22565b604082019050919050565b60006020820190508181036000830152613dad81613d71565b9050919050565b7f4e487b7100000000000000000000000000000000000000000000000000000000600052603260045260246000fd5b7f4e487b7100000000000000000000000000000000000000000000000000000000600052601160045260246000fd5b6000613e1d82612d6f565b9150613e2883612d6f565b9250827fffffffffffffffffffffffffffffffffffffffffffffffffffffffffffffffff03821115613e5d57613e5c613de3565b5b828201905092915050565b6000613e7382612d6f565b91507fffffffffffffffffffffffffffffffffffffffffffffffffffffffffffffffff8203613ea557613ea4613de3565b5b600182019050919050565b7f5468657265206d757374206265206174206c65617374206f6e6520626f78206960008201527f6e20746f74616c00000000000000000000000000000000000000000000000000602082015250565b6000613f0c602783613bed565b9150613f1782613eb0565b604082019050919050565b60006020820190508181036000830152613f3b81613eff565b9050919050565b7f4f6e6c792074686520627574636865722063616e206d61726b206120626f782060008201527f6173207072657061726564000000000000000000000000000000000000000000602082015250565b6000613f9e602b83613bed565b9150613fa982613f42565b604082019050919050565b60006020820190508181036000830152613fcd81613f91565b9050919050565b7f4e487b7100000000000000000000000000000000000000000000000000000000600052602260045260246000fd5b6000600282049050600182168061401b57607f821691505b60208210810361402e5761402d613fd4565b5b50919050565b7f4f6e6c7920746865206661726d65722063616e206d61726b2074686520616e6960008201527f6d616c2061732064656c69766572656400000000000000000000000000000000602082015250565b6000614090603083613bed565b915061409b82614034565b604082019050919050565b600060208201905081810360008301526140bf81614083565b905091905056fea2646970667358221220d3d7ac8f520ce30023477407f062cf6c9413e41eb58ec735ccb2ad3c4922a2fc64736f6c634300080d0033",
  "immutableReferences": {},
  "source": "// SPDX-License-Identifier: AGPL\npragma solidity ^0.8.13;\n\nimport \"./Types.sol\";\nimport \"./Crowdfunding.sol\";\n\ncontract SupplyChains {\n\n  mapping(uint256 => SupplyChain) public supplychains;\n\n  mapping(uint256 => mapping(uint256 => bool)) preparedBoxes;\n  mapping(uint256 => mapping(uint256 => bool)) distributedBoxes;\n  mapping(uint256 => mapping(uint256 => bool)) deliveredBoxes;\n\n  uint256 public NumberOfSupplyChains = 0;\n\n\n  function StartSupplyChain(Campaign memory _campaign, BoxSellRef[] memory _boxes) external {\n    // get the supplychain related to campaign id\n    SupplyChain storage supplychain = supplychains[_campaign.id];\n\n    supplychain.campaignRef = _campaign.id;\n    supplychain.isAnimalDelivered = false;\n    supplychain.isAnimalProcessed = false;\n    supplychain.areBoxesPrepared = false;\n    supplychain.areBoxesDistributed = false;\n    supplychain.areBoxesDelivered = false;\n\n    uint totalNumOfBoxes = 0;\n    for (uint256 index = 0; index < _boxes.length; index++) {\n      BoxSellRef memory box = _boxes[index];\n      totalNumOfBoxes += 1;\n      preparedBoxes[_campaign.id][box.id] = false;\n      distributedBoxes[_campaign.id][box.id] = false;\n      deliveredBoxes[_campaign.id][box.id] = false;\n    }\n    require(totalNumOfBoxes > 0, \"There must be at least one box in total\");\n\n    supplychain.totalBoxes = totalNumOfBoxes;\n    supplychain.preparedBoxes = 0;\n    supplychain.deliveredBoxes = 0;\n    supplychain.receivedBoxes = 0;\n\n    // import stakeholders from campaign\n    supplychain.stakeholders = _campaign.stakeholders;\n\n    NumberOfSupplyChains++;\n  }\n\n  /*\n  * Retrieve a supplychain by campaign id\n  */\n  function getSupplyChainById(uint256 _campaignId) public view returns (SupplyChain memory) {\n    return supplychains[_campaignId];\n  }\n\n  function getPreparedBoxesStatus(uint256 _campaignId) public view returns (bool[] memory) {\n    SupplyChain memory supplychain = supplychains[_campaignId];\n    bool[] memory preparedBoxesStatus = new bool[](supplychain.totalBoxes);\n    for (uint256 index = 0; index < supplychain.totalBoxes; index++) {\n      preparedBoxesStatus[index] = preparedBoxes[_campaignId][index];\n    }\n    return preparedBoxesStatus;\n  }\n\n  /*\n  * Mark the animal of a campaign as delivered (to the butcher)\n  */\n  function markAnimalAsDelivered(uint256 _campaignId) public {\n    SupplyChain storage supplychain = supplychains[_campaignId];\n\n    require(msg.sender == supplychain.stakeholders.farmer.owner, \"Only the farmer can mark the animal as delivered\");\n    supplychain.isAnimalDelivered = true;\n  }\n\n  /*\n  * Mark the animal as processed by the butcher\n  */\n  function markAnimalAsProcessed(uint256 _campaignId) public {\n    SupplyChain storage supplychain = supplychains[_campaignId];\n\n    require(msg.sender == supplychain.stakeholders.butcher.owner, \"Only the butcher can mark the animal as processed\");\n    supplychain.isAnimalProcessed = true;\n  }\n\n  /*\n  * Mark a box as prepared by the butcher\n  */\n  function markBoxAsPrepared(uint256 _campaignId, uint256 _boxId) public {\n    SupplyChain storage supplychain = supplychains[_campaignId];\n\n    require(msg.sender == supplychain.stakeholders.butcher.owner, \"Only the butcher can mark a box as prepared\");\n    preparedBoxes[_campaignId][_boxId] = true;\n\n    if(areAllBoxesPrepared(_campaignId)) {\n      supplychain.areBoxesPrepared = true;\n    }\n  }\n\n  /*\n  * Mark a box as distributed by the delivery service\n  */\n  function markBoxAsDistributed(uint256 _campaignId, uint256 _boxId) public {\n    SupplyChain storage supplychain = supplychains[_campaignId];\n\n    require(msg.sender == supplychain.stakeholders.delivery.owner, \"Only the delivery service can mark a box as distributed\");\n    distributedBoxes[_campaignId][_boxId] = true;\n\n    if(areAllBoxesDistributed(_campaignId)) {\n      supplychain.areBoxesDistributed = true;\n    }\n  }\n\n  /*\n  * Mark a box as delivered by the delivery service\n  */\n  function markBoxAsDelivered(uint256 _campaignId, uint256 _boxId) public {\n    SupplyChain storage supplychain = supplychains[_campaignId];\n\n    require(msg.sender == supplychain.stakeholders.delivery.owner, \"Only the delivery service can mark a box as delivered\");\n    deliveredBoxes[_campaignId][_boxId] = true;\n\n    if(areAllBoxesDelivered(_campaignId)) {\n      supplychain.areBoxesDelivered = true;\n    }\n  }\n\n  /*\n  * Check if all boxes are prepared by the butcher\n  */\n  function areAllBoxesPrepared(uint256 _campaignId) public view returns (bool) {\n    SupplyChain memory supplychain = supplychains[_campaignId];\n\n    for (uint256 index = 0; index < supplychain.totalBoxes; index++) {\n      if (!preparedBoxes[_campaignId][index]) {\n        return false;\n      }\n    }\n    return true;\n  }\n\n  /*\n  * Check if all boxes are distributed by the delivery service\n  */\n  function areAllBoxesDistributed(uint256 _campaignId) public view returns (bool) {\n    SupplyChain memory supplychain = supplychains[_campaignId];\n\n    for (uint256 index = 0; index < supplychain.totalBoxes; index++) {\n      if (!distributedBoxes[_campaignId][index]) {\n        return false;\n      }\n    }\n    return true;\n  }\n\n  /*\n  * Check if all boxes are delivered by the delivery service\n  */\n  function areAllBoxesDelivered(uint256 _campaignId) public view returns (bool) {\n    SupplyChain memory supplychain = supplychains[_campaignId];\n\n    for (uint256 index = 0; index < supplychain.totalBoxes; index++) {\n      if (!deliveredBoxes[_campaignId][index]) {\n        return false;\n      }\n    }\n    return true;\n  }\n\n  /*\n  * Check if the supply chain is completed\n  */\n  function isCompleted(uint256 _campaignId) external view returns (bool) {\n    SupplyChain memory supplychain = supplychains[_campaignId];\n    return (supplychain.isAnimalDelivered && supplychain.isAnimalProcessed && supplychain.areBoxesPrepared && supplychain.areBoxesDistributed && supplychain.areBoxesDelivered);\n  }\n}\n",
  "sourcePath": "/Users/cassolseba/VSCode/blockchain/146157_Blockchain/smart_contracts/contracts/SupplyChains.sol",
  "compiler": {
    "name": "solc",
    "version": "0.8.13+commit.abaa5c0e.Emscripten.clang"
  },
  "schemaVersion": "3.4.14",
  "updatedAt": "2023-08-10T21:47:41.857Z",
  "devdoc": {
    "kind": "dev",
    "methods": {},
    "version": 1
  },
  "userdoc": {
    "kind": "user",
    "methods": {},
    "version": 1
  }
}