{
  "contractName": "SupplyChains",
  "abi": [
    {
      "inputs": [],
      "name": "crowdfundingAddress",
      "outputs": [
        {
          "internalType": "address",
          "name": "",
          "type": "address"
        }
      ],
      "stateMutability": "view",
      "type": "function"
    },
    {
      "inputs": [
        {
          "internalType": "address",
          "name": "_crowdfundingAddress",
          "type": "address"
        }
      ],
      "name": "setCrowdfundingAddress",
      "outputs": [],
      "stateMutability": "nonpayable",
      "type": "function"
    },
    {
      "inputs": [
        {
          "components": [
            {
              "internalType": "uint256",
              "name": "id",
              "type": "uint256"
            },
            {
              "components": [
                {
                  "internalType": "string",
                  "name": "title",
                  "type": "string"
                },
                {
                  "internalType": "string",
                  "name": "description",
                  "type": "string"
                },
                {
                  "internalType": "uint256",
                  "name": "deadline",
                  "type": "uint256"
                }
              ],
              "internalType": "struct CampaignInfo",
              "name": "info",
              "type": "tuple"
            },
            {
              "components": [
                {
                  "internalType": "uint256",
                  "name": "collectedAmount",
                  "type": "uint256"
                },
                {
                  "internalType": "uint256",
                  "name": "createdAt",
                  "type": "uint256"
                },
                {
                  "internalType": "uint16",
                  "name": "totalBoxes",
                  "type": "uint16"
                },
                {
                  "internalType": "uint16",
                  "name": "boxesSold",
                  "type": "uint16"
                },
                {
                  "internalType": "uint8",
                  "name": "totalBoxTypes",
                  "type": "uint8"
                },
                {
                  "internalType": "bool",
                  "name": "isStopped",
                  "type": "bool"
                }
              ],
              "internalType": "struct CampaignMeta",
              "name": "meta",
              "type": "tuple"
            },
            {
              "components": [
                {
                  "internalType": "address",
                  "name": "owner",
                  "type": "address"
                },
                {
                  "internalType": "string",
                  "name": "ownerPublicKey",
                  "type": "string"
                }
              ],
              "internalType": "struct CampaignOwner",
              "name": "owner",
              "type": "tuple"
            },
            {
              "components": [
                {
                  "internalType": "string",
                  "name": "earTag",
                  "type": "string"
                },
                {
                  "internalType": "string",
                  "name": "name",
                  "type": "string"
                },
                {
                  "internalType": "string",
                  "name": "farm",
                  "type": "string"
                },
                {
                  "internalType": "uint8",
                  "name": "age",
                  "type": "uint8"
                }
              ],
              "internalType": "struct CampaignAnimalData",
              "name": "animal",
              "type": "tuple"
            },
            {
              "components": [
                {
                  "components": [
                    {
                      "internalType": "address payable",
                      "name": "owner",
                      "type": "address"
                    },
                    {
                      "internalType": "uint8",
                      "name": "share",
                      "type": "uint8"
                    },
                    {
                      "internalType": "string",
                      "name": "info",
                      "type": "string"
                    }
                  ],
                  "internalType": "struct Stakeholder",
                  "name": "farmer",
                  "type": "tuple"
                },
                {
                  "components": [
                    {
                      "internalType": "address payable",
                      "name": "owner",
                      "type": "address"
                    },
                    {
                      "internalType": "uint8",
                      "name": "share",
                      "type": "uint8"
                    },
                    {
                      "internalType": "string",
                      "name": "info",
                      "type": "string"
                    }
                  ],
                  "internalType": "struct Stakeholder",
                  "name": "butcher",
                  "type": "tuple"
                },
                {
                  "components": [
                    {
                      "internalType": "address payable",
                      "name": "owner",
                      "type": "address"
                    },
                    {
                      "internalType": "uint8",
                      "name": "share",
                      "type": "uint8"
                    },
                    {
                      "internalType": "string",
                      "name": "info",
                      "type": "string"
                    }
                  ],
                  "internalType": "struct Stakeholder",
                  "name": "delivery",
                  "type": "tuple"
                }
              ],
              "internalType": "struct StakeholderList",
              "name": "stakeholders",
              "type": "tuple"
            }
          ],
          "internalType": "struct Campaign",
          "name": "_campaign",
          "type": "tuple"
        }
      ],
      "name": "createSupplyChain",
      "outputs": [],
      "stateMutability": "nonpayable",
      "type": "function"
    },
    {
      "inputs": [
        {
          "internalType": "uint256",
          "name": "_campaignId",
          "type": "uint256"
        },
        {
          "components": [
            {
              "internalType": "uint16",
              "name": "id",
              "type": "uint16"
            },
            {
              "internalType": "uint8",
              "name": "boxId",
              "type": "uint8"
            },
            {
              "internalType": "address",
              "name": "owner",
              "type": "address"
            },
            {
              "internalType": "uint256",
              "name": "boughtAt",
              "type": "uint256"
            },
            {
              "internalType": "string",
              "name": "physAddress",
              "type": "string"
            }
          ],
          "internalType": "struct BoxSellRef",
          "name": "_box",
          "type": "tuple"
        }
      ],
      "name": "addBox",
      "outputs": [],
      "stateMutability": "nonpayable",
      "type": "function"
    },
    {
      "inputs": [
        {
          "internalType": "uint256",
          "name": "_campaignRef",
          "type": "uint256"
        }
      ],
      "name": "startSupplyChain",
      "outputs": [],
      "stateMutability": "nonpayable",
      "type": "function"
    },
    {
      "inputs": [],
      "name": "getSupplyChains",
      "outputs": [
        {
          "components": [
            {
              "internalType": "uint256",
              "name": "campaignRef",
              "type": "uint256"
            },
            {
              "internalType": "bool",
              "name": "isStarted",
              "type": "bool"
            },
            {
              "components": [
                {
                  "internalType": "bool",
                  "name": "farmer",
                  "type": "bool"
                },
                {
                  "internalType": "bool",
                  "name": "butcher",
                  "type": "bool"
                }
              ],
              "internalType": "struct AnimalDeliverStatus",
              "name": "isAnimalDelivered",
              "type": "tuple"
            },
            {
              "components": [
                {
                  "internalType": "bool",
                  "name": "butcher",
                  "type": "bool"
                }
              ],
              "internalType": "struct AnimalProcessStatus",
              "name": "isAnimalProcessed",
              "type": "tuple"
            },
            {
              "components": [
                {
                  "internalType": "bool",
                  "name": "butcher",
                  "type": "bool"
                }
              ],
              "internalType": "struct BoxesProcessStatus",
              "name": "areBoxesProcessed",
              "type": "tuple"
            },
            {
              "components": [
                {
                  "internalType": "bool",
                  "name": "butcher",
                  "type": "bool"
                },
                {
                  "internalType": "bool",
                  "name": "delivery",
                  "type": "bool"
                }
              ],
              "internalType": "struct BoxesDistributionStatus",
              "name": "areBoxesDistributed",
              "type": "tuple"
            },
            {
              "components": [
                {
                  "internalType": "bool",
                  "name": "delivery",
                  "type": "bool"
                }
              ],
              "internalType": "struct BoxesDeliverStatus",
              "name": "areBoxesDelivered",
              "type": "tuple"
            },
            {
              "internalType": "uint16",
              "name": "totalBoxes",
              "type": "uint16"
            },
            {
              "internalType": "uint16",
              "name": "deliveredBoxes",
              "type": "uint16"
            },
            {
              "components": [
                {
                  "components": [
                    {
                      "internalType": "address payable",
                      "name": "owner",
                      "type": "address"
                    },
                    {
                      "internalType": "uint8",
                      "name": "share",
                      "type": "uint8"
                    },
                    {
                      "internalType": "string",
                      "name": "info",
                      "type": "string"
                    }
                  ],
                  "internalType": "struct Stakeholder",
                  "name": "farmer",
                  "type": "tuple"
                },
                {
                  "components": [
                    {
                      "internalType": "address payable",
                      "name": "owner",
                      "type": "address"
                    },
                    {
                      "internalType": "uint8",
                      "name": "share",
                      "type": "uint8"
                    },
                    {
                      "internalType": "string",
                      "name": "info",
                      "type": "string"
                    }
                  ],
                  "internalType": "struct Stakeholder",
                  "name": "butcher",
                  "type": "tuple"
                },
                {
                  "components": [
                    {
                      "internalType": "address payable",
                      "name": "owner",
                      "type": "address"
                    },
                    {
                      "internalType": "uint8",
                      "name": "share",
                      "type": "uint8"
                    },
                    {
                      "internalType": "string",
                      "name": "info",
                      "type": "string"
                    }
                  ],
                  "internalType": "struct Stakeholder",
                  "name": "delivery",
                  "type": "tuple"
                }
              ],
              "internalType": "struct StakeholderList",
              "name": "stakeholders",
              "type": "tuple"
            }
          ],
          "internalType": "struct SupplyChain[]",
          "name": "",
          "type": "tuple[]"
        }
      ],
      "stateMutability": "view",
      "type": "function"
    },
    {
      "inputs": [
        {
          "internalType": "uint256",
          "name": "_campaignId",
          "type": "uint256"
        }
      ],
      "name": "getBoxesStatus",
      "outputs": [
        {
          "components": [
            {
              "internalType": "uint256",
              "name": "campaignRef",
              "type": "uint256"
            },
            {
              "internalType": "uint16",
              "name": "boxId",
              "type": "uint16"
            },
            {
              "internalType": "bool",
              "name": "isDelivered",
              "type": "bool"
            }
          ],
          "internalType": "struct BoxStatus[]",
          "name": "",
          "type": "tuple[]"
        }
      ],
      "stateMutability": "view",
      "type": "function"
    },
    {
      "inputs": [
        {
          "internalType": "uint256",
          "name": "_campaignId",
          "type": "uint256"
        }
      ],
      "name": "markAnimalAsDelivered",
      "outputs": [],
      "stateMutability": "nonpayable",
      "type": "function"
    },
    {
      "inputs": [
        {
          "internalType": "uint256",
          "name": "_campaignId",
          "type": "uint256"
        }
      ],
      "name": "markAnimalAsProcessed",
      "outputs": [],
      "stateMutability": "nonpayable",
      "type": "function"
    },
    {
      "inputs": [
        {
          "internalType": "uint256",
          "name": "_campaignId",
          "type": "uint256"
        }
      ],
      "name": "markBoxesAsProcessed",
      "outputs": [],
      "stateMutability": "nonpayable",
      "type": "function"
    },
    {
      "inputs": [
        {
          "internalType": "uint256",
          "name": "_campaignId",
          "type": "uint256"
        }
      ],
      "name": "markBoxesAsDistributed",
      "outputs": [],
      "stateMutability": "nonpayable",
      "type": "function"
    },
    {
      "inputs": [
        {
          "internalType": "uint256",
          "name": "_campaignId",
          "type": "uint256"
        },
        {
          "internalType": "uint16",
          "name": "_boxId",
          "type": "uint16"
        }
      ],
      "name": "markBoxAsDelivered",
      "outputs": [],
      "stateMutability": "nonpayable",
      "type": "function"
    },
    {
      "inputs": [
        {
          "internalType": "uint256",
          "name": "_campaignId",
          "type": "uint256"
        }
      ],
      "name": "isCompleted",
      "outputs": [
        {
          "internalType": "bool",
          "name": "",
          "type": "bool"
        }
      ],
      "stateMutability": "view",
      "type": "function"
    }
  ],
  "bytecode": "0x6080604052600060035534801561001557600080fd5b50614864806100256000396000f3fe608060405234801561001057600080fd5b50600436106100cf5760003560e01c8063868142561161008c578063afee730b11610066578063afee730b146101fa578063c0bd69c714610216578063dc05547514610234578063eca2e25b14610250576100cf565b806386814256146101925780638a2249a3146101ae578063a85b6f9a146101de576100cf565b8063154a9fe1146100d45780635c4caf95146100f05780635c9f048d1461010e5780636f439b461461012a5780637a41984b146101465780638417f2cf14610176575b600080fd5b6100ee60048036038101906100e99190612a09565b61026c565b005b6100f8610456565b6040516101059190612a77565b60405180910390f35b61012860048036038101906101239190612a09565b61047a565b005b610144600480360381019061013f9190612a09565b610504565b005b610160600480360381019061015b9190612a09565b610880565b60405161016d9190612aad565b60405180910390f35b610190600480360381019061018b9190612b02565b610e00565b005b6101ac60048036038101906101a79190612d9f565b611157565b005b6101c860048036038101906101c39190612a09565b611286565b6040516101d59190612f19565b60405180910390f35b6101f860048036038101906101f39190612f3b565b6118c3565b005b610214600480360381019061020f9190612a09565b611906565b005b61021e611ad3565b60405161022b919061331e565b60405180910390f35b61024e60048036038101906102499190613858565b61207f565b005b61026a60048036038101906102659190612a09565b6123bc565b005b60006001600083815260200190815260200160002090508060010160009054906101000a900460ff166102d4576040517f08c379a00000000000000000000000000000000000000000000000000000000081526004016102cb9061394a565b60405180910390fd5b8060080160020160000160009054906101000a900473ffffffffffffffffffffffffffffffffffffffff1673ffffffffffffffffffffffffffffffffffffffff163373ffffffffffffffffffffffffffffffffffffffff161461036c576040517f08c379a0000000000000000000000000000000000000000000000000000000008152600401610363906139dc565b60405180910390fd5b8060020160000160019054906101000a900460ff16801561039e57508060020160000160009054906101000a900460ff165b6103dd576040517f08c379a00000000000000000000000000000000000000000000000000000000081526004016103d490613a6e565b60405180910390fd5b8060030160000160009054906101000a900460ff1615610432576040517f08c379a000000000000000000000000000000000000000000000000000000000815260040161042990613ada565b60405180910390fd5b60018160030160000160006101000a81548160ff0219169083151502179055505050565b60008054906101000a900473ffffffffffffffffffffffffffffffffffffffff1681565b60006001600083815260200190815260200160002090508060010160009054906101000a900460ff16156104e3576040517f08c379a00000000000000000000000000000000000000000000000000000000081526004016104da90613b6c565b60405180910390fd5b60018160010160006101000a81548160ff0219169083151502179055505050565b60006001600083815260200190815260200160002090508060010160009054906101000a900460ff1661056c576040517f08c379a000000000000000000000000000000000000000000000000000000000815260040161056390613c24565b60405180910390fd5b8060080160000160000160009054906101000a900473ffffffffffffffffffffffffffffffffffffffff1673ffffffffffffffffffffffffffffffffffffffff163373ffffffffffffffffffffffffffffffffffffffff16148061062557508060080160020160000160009054906101000a900473ffffffffffffffffffffffffffffffffffffffff1673ffffffffffffffffffffffffffffffffffffffff163373ffffffffffffffffffffffffffffffffffffffff16145b610664576040517f08c379a000000000000000000000000000000000000000000000000000000000815260040161065b90613cb6565b60405180910390fd5b8060020160000160009054906101000a900460ff16158061069757508060020160000160019054906101000a900460ff16155b6106d6576040517f08c379a00000000000000000000000000000000000000000000000000000000081526004016106cd90613d22565b60405180910390fd5b8060080160000160000160009054906101000a900473ffffffffffffffffffffffffffffffffffffffff1673ffffffffffffffffffffffffffffffffffffffff163373ffffffffffffffffffffffffffffffffffffffff16036107a9578060020160000160009054906101000a900460ff1615610788576040517f08c379a000000000000000000000000000000000000000000000000000000000815260040161077f90613db4565b60405180910390fd5b60018160020160000160006101000a81548160ff0219169083151502179055505b8060080160020160000160009054906101000a900473ffffffffffffffffffffffffffffffffffffffff1673ffffffffffffffffffffffffffffffffffffffff163373ffffffffffffffffffffffffffffffffffffffff160361087c578060020160000160019054906101000a900460ff161561085b576040517f08c379a000000000000000000000000000000000000000000000000000000000815260040161085290613e46565b60405180910390fd5b60018160020160000160016101000a81548160ff0219169083151502179055505b5050565b6000806001600084815260200190815260200160002060405180610140016040529081600082015481526020016001820160009054906101000a900460ff16151515158152602001600282016040518060400160405290816000820160009054906101000a900460ff161515151581526020016000820160019054906101000a900460ff1615151515815250508152602001600382016040518060200160405290816000820160009054906101000a900460ff1615151515815250508152602001600482016040518060200160405290816000820160009054906101000a900460ff1615151515815250508152602001600582016040518060400160405290816000820160009054906101000a900460ff161515151581526020016000820160019054906101000a900460ff1615151515815250508152602001600682016040518060200160405290816000820160009054906101000a900460ff16151515158152505081526020016007820160009054906101000a900461ffff1661ffff1661ffff1681526020016007820160029054906101000a900461ffff1661ffff1661ffff16815260200160088201604051806060016040529081600082016040518060600160405290816000820160009054906101000a900473ffffffffffffffffffffffffffffffffffffffff1673ffffffffffffffffffffffffffffffffffffffff1673ffffffffffffffffffffffffffffffffffffffff1681526020016000820160149054906101000a900460ff1660ff1660ff168152602001600182018054610acb90613e95565b80601f0160208091040260200160405190810160405280929190818152602001828054610af790613e95565b8015610b445780601f10610b1957610100808354040283529160200191610b44565b820191906000526020600020905b815481529060010190602001808311610b2757829003601f168201915b5050505050815250508152602001600282016040518060600160405290816000820160009054906101000a900473ffffffffffffffffffffffffffffffffffffffff1673ffffffffffffffffffffffffffffffffffffffff1673ffffffffffffffffffffffffffffffffffffffff1681526020016000820160149054906101000a900460ff1660ff1660ff168152602001600182018054610be490613e95565b80601f0160208091040260200160405190810160405280929190818152602001828054610c1090613e95565b8015610c5d5780601f10610c3257610100808354040283529160200191610c5d565b820191906000526020600020905b815481529060010190602001808311610c4057829003601f168201915b5050505050815250508152602001600482016040518060600160405290816000820160009054906101000a900473ffffffffffffffffffffffffffffffffffffffff1673ffffffffffffffffffffffffffffffffffffffff1673ffffffffffffffffffffffffffffffffffffffff1681526020016000820160149054906101000a900460ff1660ff1660ff168152602001600182018054610cfd90613e95565b80601f0160208091040260200160405190810160405280929190818152602001828054610d2990613e95565b8015610d765780601f10610d4b57610100808354040283529160200191610d76565b820191906000526020600020905b815481529060010190602001808311610d5957829003601f168201915b505050505081525050815250508152505090508060400151600001518015610da357508060400151602001515b8015610db457508060600151600001515b8015610dc557508060800151600001515b8015610dd657508060a00151600001515b8015610de757508060a00151602001515b8015610df857508060c00151600001515b915050919050565b60006001600084815260200190815260200160002090508060010160009054906101000a900460ff16610e68576040517f08c379a0000000000000000000000000000000000000000000000000000000008152600401610e5f90613f5e565b60405180910390fd5b8060080160040160000160009054906101000a900473ffffffffffffffffffffffffffffffffffffffff1673ffffffffffffffffffffffffffffffffffffffff163373ffffffffffffffffffffffffffffffffffffffff1614610f00576040517f08c379a0000000000000000000000000000000000000000000000000000000008152600401610ef790613ff0565b60405180910390fd5b8060050160000160009054906101000a900460ff168015610f3257508060050160000160019054906101000a900460ff165b610f71576040517f08c379a0000000000000000000000000000000000000000000000000000000008152600401610f6890614082565b60405180910390fd5b6002600084815260200190815260200160002060008361ffff1661ffff16815260200190815260200160002060010160029054906101000a900460ff1615610fee576040517f08c379a0000000000000000000000000000000000000000000000000000000008152600401610fe5906140ee565b60405180910390fd5b60016002600085815260200190815260200160002060008461ffff1661ffff16815260200190815260200160002060010160026101000a81548160ff02191690831515021790555080600701600281819054906101000a900461ffff16809291906110589061413d565b91906101000a81548161ffff021916908361ffff160217905550508060070160029054906101000a900461ffff1661ffff168160070160009054906101000a900461ffff1661ffff16036111525760018160060160000160006101000a81548160ff02191690831515021790555060008054906101000a900473ffffffffffffffffffffffffffffffffffffffff1673ffffffffffffffffffffffffffffffffffffffff1663da333ca6846040518263ffffffff1660e01b815260040161111f9190614176565b600060405180830381600087803b15801561113957600080fd5b505af115801561114d573d6000803e3d6000fd5b505050505b505050565b600060016000848152602001908152602001600020905082600260008581526020019081526020016000206000846000015161ffff1661ffff168152602001908152602001600020600001819055508160000151600260008581526020019081526020016000206000846000015161ffff1661ffff16815260200190815260200160002060010160006101000a81548161ffff021916908361ffff1602179055506000600260008581526020019081526020016000206000846000015161ffff1661ffff16815260200190815260200160002060010160026101000a81548160ff02191690831515021790555080600701600081819054906101000a900461ffff16809291906112669061413d565b91906101000a81548161ffff021916908361ffff16021790555050505050565b606060006001600084815260200190815260200160002060405180610140016040529081600082015481526020016001820160009054906101000a900460ff16151515158152602001600282016040518060400160405290816000820160009054906101000a900460ff161515151581526020016000820160019054906101000a900460ff1615151515815250508152602001600382016040518060200160405290816000820160009054906101000a900460ff1615151515815250508152602001600482016040518060200160405290816000820160009054906101000a900460ff1615151515815250508152602001600582016040518060400160405290816000820160009054906101000a900460ff161515151581526020016000820160019054906101000a900460ff1615151515815250508152602001600682016040518060200160405290816000820160009054906101000a900460ff16151515158152505081526020016007820160009054906101000a900461ffff1661ffff1661ffff1681526020016007820160029054906101000a900461ffff1661ffff1661ffff16815260200160088201604051806060016040529081600082016040518060600160405290816000820160009054906101000a900473ffffffffffffffffffffffffffffffffffffffff1673ffffffffffffffffffffffffffffffffffffffff1673ffffffffffffffffffffffffffffffffffffffff1681526020016000820160149054906101000a900460ff1660ff1660ff1681526020016001820180546114d290613e95565b80601f01602080910402602001604051908101604052809291908181526020018280546114fe90613e95565b801561154b5780601f106115205761010080835404028352916020019161154b565b820191906000526020600020905b81548152906001019060200180831161152e57829003601f168201915b5050505050815250508152602001600282016040518060600160405290816000820160009054906101000a900473ffffffffffffffffffffffffffffffffffffffff1673ffffffffffffffffffffffffffffffffffffffff1673ffffffffffffffffffffffffffffffffffffffff1681526020016000820160149054906101000a900460ff1660ff1660ff1681526020016001820180546115eb90613e95565b80601f016020809104026020016040519081016040528092919081815260200182805461161790613e95565b80156116645780601f1061163957610100808354040283529160200191611664565b820191906000526020600020905b81548152906001019060200180831161164757829003601f168201915b5050505050815250508152602001600482016040518060600160405290816000820160009054906101000a900473ffffffffffffffffffffffffffffffffffffffff1673ffffffffffffffffffffffffffffffffffffffff1673ffffffffffffffffffffffffffffffffffffffff1681526020016000820160149054906101000a900460ff1660ff1660ff16815260200160018201805461170490613e95565b80601f016020809104026020016040519081016040528092919081815260200182805461173090613e95565b801561177d5780601f106117525761010080835404028352916020019161177d565b820191906000526020600020905b81548152906001019060200180831161176057829003601f168201915b5050505050815250508152505081525050905060008160e0015161ffff1667ffffffffffffffff8111156117b4576117b3612b58565b5b6040519080825280602002602001820160405280156117ed57816020015b6117da61278c565b8152602001906001900390816117d25790505b50905060005b8260e0015161ffff168161ffff1610156118b8576002600086815260200190815260200160002060008261ffff1661ffff168152602001908152602001600020604051806060016040529081600082015481526020016001820160009054906101000a900461ffff1661ffff1661ffff1681526020016001820160029054906101000a900460ff161515151581525050828261ffff168151811061189a57611899614191565b5b602002602001018190525080806118b09061413d565b9150506117f3565b508092505050919050565b806000806101000a81548173ffffffffffffffffffffffffffffffffffffffff021916908373ffffffffffffffffffffffffffffffffffffffff16021790555050565b60006001600083815260200190815260200160002090508060010160009054906101000a900460ff1661196e576040517f08c379a000000000000000000000000000000000000000000000000000000000815260040161196590614258565b60405180910390fd5b8060080160020160000160009054906101000a900473ffffffffffffffffffffffffffffffffffffffff1673ffffffffffffffffffffffffffffffffffffffff163373ffffffffffffffffffffffffffffffffffffffff1614611a06576040517f08c379a00000000000000000000000000000000000000000000000000000000081526004016119fd906142ea565b60405180910390fd5b8060030160000160009054906101000a900460ff16611a5a576040517f08c379a0000000000000000000000000000000000000000000000000000000008152600401611a519061437c565b60405180910390fd5b8060040160000160009054906101000a900460ff1615611aaf576040517f08c379a0000000000000000000000000000000000000000000000000000000008152600401611aa6906143e8565b60405180910390fd5b60018160040160000160006101000a81548160ff0219169083151502179055505050565b6060600060035467ffffffffffffffff811115611af357611af2612b58565b5b604051908082528060200260200182016040528015611b2c57816020015b611b196127b3565b815260200190600190039081611b115790505b50905060005b6003548110156120775760006001600083815260200190815260200160002090508060405180610140016040529081600082015481526020016001820160009054906101000a900460ff16151515158152602001600282016040518060400160405290816000820160009054906101000a900460ff161515151581526020016000820160019054906101000a900460ff1615151515815250508152602001600382016040518060200160405290816000820160009054906101000a900460ff1615151515815250508152602001600482016040518060200160405290816000820160009054906101000a900460ff1615151515815250508152602001600582016040518060400160405290816000820160009054906101000a900460ff161515151581526020016000820160019054906101000a900460ff1615151515815250508152602001600682016040518060200160405290816000820160009054906101000a900460ff16151515158152505081526020016007820160009054906101000a900461ffff1661ffff1661ffff1681526020016007820160029054906101000a900461ffff1661ffff1661ffff16815260200160088201604051806060016040529081600082016040518060600160405290816000820160009054906101000a900473ffffffffffffffffffffffffffffffffffffffff1673ffffffffffffffffffffffffffffffffffffffff1673ffffffffffffffffffffffffffffffffffffffff1681526020016000820160149054906101000a900460ff1660ff1660ff168152602001600182018054611d8990613e95565b80601f0160208091040260200160405190810160405280929190818152602001828054611db590613e95565b8015611e025780601f10611dd757610100808354040283529160200191611e02565b820191906000526020600020905b815481529060010190602001808311611de557829003601f168201915b5050505050815250508152602001600282016040518060600160405290816000820160009054906101000a900473ffffffffffffffffffffffffffffffffffffffff1673ffffffffffffffffffffffffffffffffffffffff1673ffffffffffffffffffffffffffffffffffffffff1681526020016000820160149054906101000a900460ff1660ff1660ff168152602001600182018054611ea290613e95565b80601f0160208091040260200160405190810160405280929190818152602001828054611ece90613e95565b8015611f1b5780601f10611ef057610100808354040283529160200191611f1b565b820191906000526020600020905b815481529060010190602001808311611efe57829003601f168201915b5050505050815250508152602001600482016040518060600160405290816000820160009054906101000a900473ffffffffffffffffffffffffffffffffffffffff1673ffffffffffffffffffffffffffffffffffffffff1673ffffffffffffffffffffffffffffffffffffffff1681526020016000820160149054906101000a900460ff1660ff1660ff168152602001600182018054611fbb90613e95565b80601f0160208091040260200160405190810160405280929190818152602001828054611fe790613e95565b80156120345780601f1061200957610100808354040283529160200191612034565b820191906000526020600020905b81548152906001019060200180831161201757829003601f168201915b505050505081525050815250508152505083838151811061205857612057614191565b5b602002602001018190525050808061206f90614408565b915050611b32565b508091505090565b6000600160008360000151815260200190815260200160002090508160000151816000018190555060008160010160006101000a81548160ff02191690831515021790555060008160020160000160016101000a81548160ff02191690831515021790555060008160020160000160006101000a81548160ff02191690831515021790555060008160030160000160006101000a81548160ff02191690831515021790555060008160040160000160006101000a81548160ff02191690831515021790555060008160050160000160006101000a81548160ff02191690831515021790555060008160050160000160016101000a81548160ff02191690831515021790555060008160060160000160006101000a81548160ff02191690831515021790555060008160070160006101000a81548161ffff021916908361ffff16021790555060008160070160026101000a81548161ffff021916908361ffff1602179055508160a001518160080160008201518160000160008201518160000160006101000a81548173ffffffffffffffffffffffffffffffffffffffff021916908373ffffffffffffffffffffffffffffffffffffffff16021790555060208201518160000160146101000a81548160ff021916908360ff160217905550604082015181600101908051906020019061227a929190612834565b50505060208201518160020160008201518160000160006101000a81548173ffffffffffffffffffffffffffffffffffffffff021916908373ffffffffffffffffffffffffffffffffffffffff16021790555060208201518160000160146101000a81548160ff021916908360ff160217905550604082015181600101908051906020019061230a929190612834565b50505060408201518160040160008201518160000160006101000a81548173ffffffffffffffffffffffffffffffffffffffff021916908373ffffffffffffffffffffffffffffffffffffffff16021790555060208201518160000160146101000a81548160ff021916908360ff160217905550604082015181600101908051906020019061239a929190612834565b505050905050600360008154809291906123b390614408565b91905055505050565b60006001600083815260200190815260200160002090508060010160009054906101000a900460ff16612424576040517f08c379a000000000000000000000000000000000000000000000000000000000815260040161241b906144e8565b60405180910390fd5b8060080160040160000160009054906101000a900473ffffffffffffffffffffffffffffffffffffffff1673ffffffffffffffffffffffffffffffffffffffff163373ffffffffffffffffffffffffffffffffffffffff1614806124dd57508060080160020160000160009054906101000a900473ffffffffffffffffffffffffffffffffffffffff1673ffffffffffffffffffffffffffffffffffffffff163373ffffffffffffffffffffffffffffffffffffffff16145b61251c576040517f08c379a0000000000000000000000000000000000000000000000000000000008152600401612513906145a0565b60405180910390fd5b8060040160000160009054906101000a900460ff16612570576040517f08c379a000000000000000000000000000000000000000000000000000000000815260040161256790614632565b60405180910390fd5b8060050160000160009054906101000a900460ff1615806125a357508060050160000160019054906101000a900460ff16155b6125e2576040517f08c379a00000000000000000000000000000000000000000000000000000000081526004016125d9906146c4565b60405180910390fd5b8060080160020160000160009054906101000a900473ffffffffffffffffffffffffffffffffffffffff1673ffffffffffffffffffffffffffffffffffffffff163373ffffffffffffffffffffffffffffffffffffffff16036126b5578060050160000160009054906101000a900460ff1615612694576040517f08c379a000000000000000000000000000000000000000000000000000000000815260040161268b90614756565b60405180910390fd5b60018160050160000160006101000a81548160ff0219169083151502179055505b8060080160040160000160009054906101000a900473ffffffffffffffffffffffffffffffffffffffff1673ffffffffffffffffffffffffffffffffffffffff163373ffffffffffffffffffffffffffffffffffffffff1603612788578060050160000160019054906101000a900460ff1615612767576040517f08c379a000000000000000000000000000000000000000000000000000000000815260040161275e9061480e565b60405180910390fd5b60018160050160000160016101000a81548160ff0219169083151502179055505b5050565b604051806060016040528060008152602001600061ffff1681526020016000151581525090565b604051806101400160405280600081526020016000151581526020016127d76128ba565b81526020016127e46128d8565b81526020016127f16128ed565b81526020016127fe612902565b815260200161280b612920565b8152602001600061ffff168152602001600061ffff16815260200161282e612935565b81525090565b82805461284090613e95565b90600052602060002090601f01602090048101928261286257600085556128a9565b82601f1061287b57805160ff19168380011785556128a9565b828001600101855582156128a9579182015b828111156128a857825182559160200191906001019061288d565b5b5090506128b69190612968565b5090565b60405180604001604052806000151581526020016000151581525090565b60405180602001604052806000151581525090565b60405180602001604052806000151581525090565b60405180604001604052806000151581526020016000151581525090565b60405180602001604052806000151581525090565b6040518060600160405280612948612985565b8152602001612955612985565b8152602001612962612985565b81525090565b5b80821115612981576000816000905550600101612969565b5090565b6040518060600160405280600073ffffffffffffffffffffffffffffffffffffffff168152602001600060ff168152602001606081525090565b6000604051905090565b600080fd5b600080fd5b6000819050919050565b6129e6816129d3565b81146129f157600080fd5b50565b600081359050612a03816129dd565b92915050565b600060208284031215612a1f57612a1e6129c9565b5b6000612a2d848285016129f4565b91505092915050565b600073ffffffffffffffffffffffffffffffffffffffff82169050919050565b6000612a6182612a36565b9050919050565b612a7181612a56565b82525050565b6000602082019050612a8c6000830184612a68565b92915050565b60008115159050919050565b612aa781612a92565b82525050565b6000602082019050612ac26000830184612a9e565b92915050565b600061ffff82169050919050565b612adf81612ac8565b8114612aea57600080fd5b50565b600081359050612afc81612ad6565b92915050565b60008060408385031215612b1957612b186129c9565b5b6000612b27858286016129f4565b9250506020612b3885828601612aed565b9150509250929050565b600080fd5b6000601f19601f8301169050919050565b7f4e487b7100000000000000000000000000000000000000000000000000000000600052604160045260246000fd5b612b9082612b47565b810181811067ffffffffffffffff82111715612baf57612bae612b58565b5b80604052505050565b6000612bc26129bf565b9050612bce8282612b87565b919050565b600080fd5b600060ff82169050919050565b612bee81612bd8565b8114612bf957600080fd5b50565b600081359050612c0b81612be5565b92915050565b612c1a81612a56565b8114612c2557600080fd5b50565b600081359050612c3781612c11565b92915050565b600080fd5b600080fd5b600067ffffffffffffffff821115612c6257612c61612b58565b5b612c6b82612b47565b9050602081019050919050565b82818337600083830152505050565b6000612c9a612c9584612c47565b612bb8565b905082815260208101848484011115612cb657612cb5612c42565b5b612cc1848285612c78565b509392505050565b600082601f830112612cde57612cdd612c3d565b5b8135612cee848260208601612c87565b91505092915050565b600060a08284031215612d0d57612d0c612b42565b5b612d1760a0612bb8565b90506000612d2784828501612aed565b6000830152506020612d3b84828501612bfc565b6020830152506040612d4f84828501612c28565b6040830152506060612d63848285016129f4565b606083015250608082013567ffffffffffffffff811115612d8757612d86612bd3565b5b612d9384828501612cc9565b60808301525092915050565b60008060408385031215612db657612db56129c9565b5b6000612dc4858286016129f4565b925050602083013567ffffffffffffffff811115612de557612de46129ce565b5b612df185828601612cf7565b9150509250929050565b600081519050919050565b600082825260208201905092915050565b6000819050602082019050919050565b612e30816129d3565b82525050565b612e3f81612ac8565b82525050565b612e4e81612a92565b82525050565b606082016000820151612e6a6000850182612e27565b506020820151612e7d6020850182612e36565b506040820151612e906040850182612e45565b50505050565b6000612ea28383612e54565b60608301905092915050565b6000602082019050919050565b6000612ec682612dfb565b612ed08185612e06565b9350612edb83612e17565b8060005b83811015612f0c578151612ef38882612e96565b9750612efe83612eae565b925050600181019050612edf565b5085935050505092915050565b60006020820190508181036000830152612f338184612ebb565b905092915050565b600060208284031215612f5157612f506129c9565b5b6000612f5f84828501612c28565b91505092915050565b600081519050919050565b600082825260208201905092915050565b6000819050602082019050919050565b604082016000820151612faa6000850182612e45565b506020820151612fbd6020850182612e45565b50505050565b602082016000820151612fd96000850182612e45565b50505050565b602082016000820151612ff56000850182612e45565b50505050565b6040820160008201516130116000850182612e45565b5060208201516130246020850182612e45565b50505050565b6020820160008201516130406000850182612e45565b50505050565b600061305182612a36565b9050919050565b61306181613046565b82525050565b61307081612bd8565b82525050565b600081519050919050565b600082825260208201905092915050565b60005b838110156130b0578082015181840152602081019050613095565b838111156130bf576000848401525b50505050565b60006130d082613076565b6130da8185613081565b93506130ea818560208601613092565b6130f381612b47565b840191505092915050565b60006060830160008301516131166000860182613058565b5060208301516131296020860182613067565b506040830151848203604086015261314182826130c5565b9150508091505092915050565b6000606083016000830151848203600086015261316b82826130fe565b9150506020830151848203602086015261318582826130fe565b9150506040830151848203604086015261319f82826130fe565b9150508091505092915050565b6000610180830160008301516131c56000860182612e27565b5060208301516131d86020860182612e45565b5060408301516131eb6040860182612f94565b5060608301516131fe6080860182612fc3565b50608083015161321160a0860182612fdf565b5060a083015161322460c0860182612ffb565b5060c083015161323861010086018261302a565b5060e083015161324c610120860182612e36565b50610100830151613261610140860182612e36565b5061012083015184820361016086015261327b828261314e565b9150508091505092915050565b600061329483836131ac565b905092915050565b6000602082019050919050565b60006132b482612f68565b6132be8185612f73565b9350836020820285016132d085612f84565b8060005b8581101561330c57848403895281516132ed8582613288565b94506132f88361329c565b925060208a019950506001810190506132d4565b50829750879550505050505092915050565b6000602082019050818103600083015261333881846132a9565b905092915050565b60006060828403121561335657613355612b42565b5b6133606060612bb8565b9050600082013567ffffffffffffffff8111156133805761337f612bd3565b5b61338c84828501612cc9565b600083015250602082013567ffffffffffffffff8111156133b0576133af612bd3565b5b6133bc84828501612cc9565b60208301525060406133d0848285016129f4565b60408301525092915050565b6133e581612a92565b81146133f057600080fd5b50565b600081359050613402816133dc565b92915050565b600060c0828403121561341e5761341d612b42565b5b61342860c0612bb8565b90506000613438848285016129f4565b600083015250602061344c848285016129f4565b602083015250604061346084828501612aed565b604083015250606061347484828501612aed565b606083015250608061348884828501612bfc565b60808301525060a061349c848285016133f3565b60a08301525092915050565b6000604082840312156134be576134bd612b42565b5b6134c86040612bb8565b905060006134d884828501612c28565b600083015250602082013567ffffffffffffffff8111156134fc576134fb612bd3565b5b61350884828501612cc9565b60208301525092915050565b60006080828403121561352a57613529612b42565b5b6135346080612bb8565b9050600082013567ffffffffffffffff81111561355457613553612bd3565b5b61356084828501612cc9565b600083015250602082013567ffffffffffffffff81111561358457613583612bd3565b5b61359084828501612cc9565b602083015250604082013567ffffffffffffffff8111156135b4576135b3612bd3565b5b6135c084828501612cc9565b60408301525060606135d484828501612bfc565b60608301525092915050565b6135e981613046565b81146135f457600080fd5b50565b600081359050613606816135e0565b92915050565b60006060828403121561362257613621612b42565b5b61362c6060612bb8565b9050600061363c848285016135f7565b600083015250602061365084828501612bfc565b602083015250604082013567ffffffffffffffff81111561367457613673612bd3565b5b61368084828501612cc9565b60408301525092915050565b6000606082840312156136a2576136a1612b42565b5b6136ac6060612bb8565b9050600082013567ffffffffffffffff8111156136cc576136cb612bd3565b5b6136d88482850161360c565b600083015250602082013567ffffffffffffffff8111156136fc576136fb612bd3565b5b6137088482850161360c565b602083015250604082013567ffffffffffffffff81111561372c5761372b612bd3565b5b6137388482850161360c565b60408301525092915050565b6000610160828403121561375b5761375a612b42565b5b61376560c0612bb8565b90506000613775848285016129f4565b600083015250602082013567ffffffffffffffff81111561379957613798612bd3565b5b6137a584828501613340565b60208301525060406137b984828501613408565b60408301525061010082013567ffffffffffffffff8111156137de576137dd612bd3565b5b6137ea848285016134a8565b60608301525061012082013567ffffffffffffffff81111561380f5761380e612bd3565b5b61381b84828501613514565b60808301525061014082013567ffffffffffffffff8111156138405761383f612bd3565b5b61384c8482850161368c565b60a08301525092915050565b60006020828403121561386e5761386d6129c9565b5b600082013567ffffffffffffffff81111561388c5761388b6129ce565b5b61389884828501613744565b91505092915050565b600082825260208201905092915050565b7f54686520737570706c7920636861696e206d757374206265207374617274656460008201527f206265666f7265206d61726b696e672074686520616e696d616c20617320707260208201527f6f63657373656400000000000000000000000000000000000000000000000000604082015250565b60006139346047836138a1565b915061393f826138b2565b606082019050919050565b6000602082019050818103600083015261396381613927565b9050919050565b7f4f6e6c792074686520627574636865722063616e206d61726b2074686520616e60008201527f696d616c2061732070726f636573736564000000000000000000000000000000602082015250565b60006139c66031836138a1565b91506139d18261396a565b604082019050919050565b600060208201905081810360008301526139f5816139b9565b9050919050565b7f54686520616e696d616c206d7573742062652064656c6976657265642062656660008201527f6f7265206265696e672070726f63657373656400000000000000000000000000602082015250565b6000613a586033836138a1565b9150613a63826139fc565b604082019050919050565b60006020820190508181036000830152613a8781613a4b565b9050919050565b7f54686520616e696d616c20697320616c72656164792070726f63657373656400600082015250565b6000613ac4601f836138a1565b9150613acf82613a8e565b602082019050919050565b60006020820190508181036000830152613af381613ab7565b9050919050565b7f54686520737570706c7920636861696e20697320616c7265616479207374617260008201527f7465640000000000000000000000000000000000000000000000000000000000602082015250565b6000613b566023836138a1565b9150613b6182613afa565b604082019050919050565b60006020820190508181036000830152613b8581613b49565b9050919050565b7f54686520737570706c7920636861696e206d757374206265207374617274656460008201527f206265666f7265206d61726b696e672074686520616e696d616c20617320646560208201527f6c69766572656400000000000000000000000000000000000000000000000000604082015250565b6000613c0e6047836138a1565b9150613c1982613b8c565b606082019050919050565b60006020820190508181036000830152613c3d81613c01565b9050919050565b7f4f6e6c7920746865206661726d657220616e642074686520627574636865722060008201527f63616e206d61726b2074686520616e696d616c2061732064656c697665726564602082015250565b6000613ca06040836138a1565b9150613cab82613c44565b604082019050919050565b60006020820190508181036000830152613ccf81613c93565b9050919050565b7f54686520616e696d616c20697320616c72656164792064656c69766572656400600082015250565b6000613d0c601f836138a1565b9150613d1782613cd6565b602082019050919050565b60006020820190508181036000830152613d3b81613cff565b9050919050565b7f54686520616e696d616c20697320616c7265616479206d61726b65642061732060008201527f64656c6976657265642066726f6d20746865206661726d657200000000000000602082015250565b6000613d9e6039836138a1565b9150613da982613d42565b604082019050919050565b60006020820190508181036000830152613dcd81613d91565b9050919050565b7f54686520616e696d616c20697320616c7265616479206d61726b65642061732060008201527f64656c6976657265642066726f6d207468652062757463686572000000000000602082015250565b6000613e30603a836138a1565b9150613e3b82613dd4565b604082019050919050565b60006020820190508181036000830152613e5f81613e23565b9050919050565b7f4e487b7100000000000000000000000000000000000000000000000000000000600052602260045260246000fd5b60006002820490506001821680613ead57607f821691505b602082108103613ec057613ebf613e66565b5b50919050565b7f54686520737570706c7920636861696e206d757374206265207374617274656460008201527f206265666f7265206d61726b696e67206120626f782061732064656c6976657260208201527f6564000000000000000000000000000000000000000000000000000000000000604082015250565b6000613f486042836138a1565b9150613f5382613ec6565b606082019050919050565b60006020820190508181036000830152613f7781613f3b565b9050919050565b7f4f6e6c79207468652064656c697665727920736572766963652063616e206d6160008201527f726b206120626f782061732064656c6976657265640000000000000000000000602082015250565b6000613fda6035836138a1565b9150613fe582613f7e565b604082019050919050565b6000602082019050818103600083015261400981613fcd565b9050919050565b7f426f786573206d757374206265206469737472696275746564206265666f726560008201527f206265696e672064656c69766572656400000000000000000000000000000000602082015250565b600061406c6030836138a1565b915061407782614010565b604082019050919050565b6000602082019050818103600083015261409b8161405f565b9050919050565b7f54686520626f7820697320616c72656164792064656c69766572656400000000600082015250565b60006140d8601c836138a1565b91506140e3826140a2565b602082019050919050565b60006020820190508181036000830152614107816140cb565b9050919050565b7f4e487b7100000000000000000000000000000000000000000000000000000000600052601160045260246000fd5b600061414882612ac8565b915061ffff820361415c5761415b61410e565b5b600182019050919050565b614170816129d3565b82525050565b600060208201905061418b6000830184614167565b92915050565b7f4e487b7100000000000000000000000000000000000000000000000000000000600052603260045260246000fd5b7f54686520737570706c7920636861696e206d757374206265207374617274656460008201527f206265666f7265206d61726b696e67206120626f782061732070726f6365737360208201527f6564000000000000000000000000000000000000000000000000000000000000604082015250565b60006142426042836138a1565b915061424d826141c0565b606082019050919050565b6000602082019050818103600083015261427181614235565b9050919050565b7f4f6e6c792074686520627574636865722063616e206d61726b206120626f782060008201527f61732070726f6365737365640000000000000000000000000000000000000000602082015250565b60006142d4602c836138a1565b91506142df82614278565b604082019050919050565b60006020820190508181036000830152614303816142c7565b9050919050565b7f54686520616e696d616c206d7573742062652070726f6365737365642062656660008201527f6f726520707265706172696e6720626f78657300000000000000000000000000602082015250565b60006143666033836138a1565b91506143718261430a565b604082019050919050565b6000602082019050818103600083015261439581614359565b9050919050565b7f54686520626f7865732061726520616c72656164792070726f63657373656400600082015250565b60006143d2601f836138a1565b91506143dd8261439c565b602082019050919050565b60006020820190508181036000830152614401816143c5565b9050919050565b6000614413826129d3565b91507fffffffffffffffffffffffffffffffffffffffffffffffffffffffffffffffff82036144455761444461410e565b5b600182019050919050565b7f54686520737570706c7920636861696e206d757374206265207374617274656460008201527f206265666f7265206d61726b696e67206120626f78206173206469737472696260208201527f7574656400000000000000000000000000000000000000000000000000000000604082015250565b60006144d26044836138a1565b91506144dd82614450565b606082019050919050565b60006020820190508181036000830152614501816144c5565b9050919050565b7f4f6e6c7920746865206275746368657220616e64207468652064656c6976657260008201527f7920736572766963652063616e206d61726b206120626f78206173206469737460208201527f7269627574656400000000000000000000000000000000000000000000000000604082015250565b600061458a6047836138a1565b915061459582614508565b606082019050919050565b600060208201905081810360008301526145b98161457d565b9050919050565b7f426f786573206d757374206265207072657061726564206265666f726520626560008201527f696e672064697374726962757465640000000000000000000000000000000000602082015250565b600061461c602f836138a1565b9150614627826145c0565b604082019050919050565b6000602082019050818103600083015261464b8161460f565b9050919050565b7f54686520626f7865732061726520616c7265616479206469737472696275746560008201527f6400000000000000000000000000000000000000000000000000000000000000602082015250565b60006146ae6021836138a1565b91506146b982614652565b604082019050919050565b600060208201905081810360008301526146dd816146a1565b9050919050565b7f54686520626f7865732061726520616c7265616479206d61726b65642061732060008201527f64697374726962757465642066726f6d20746865206275746368657200000000602082015250565b6000614740603c836138a1565b915061474b826146e4565b604082019050919050565b6000602082019050818103600083015261476f81614733565b9050919050565b7f54686520626f7865732061726520616c7265616479206d61726b65642061732060008201527f64697374726962757465642066726f6d207468652064656c697665727920736560208201527f7276696365000000000000000000000000000000000000000000000000000000604082015250565b60006147f86045836138a1565b915061480382614776565b606082019050919050565b60006020820190508181036000830152614827816147eb565b905091905056fea264697066735822122077141703489d91635f73d7d5164b552501c5e88fa77a1078ccd73965f94ca71864736f6c634300080d0033",
  "immutableReferences": {},
  "source": "// SPDX-License-Identifier: AGPL\npragma solidity ^0.8.13;\n\nimport \"./SupplyChainsTypes.sol\";\nimport \"./CrowdfundingTypes.sol\";\nimport \"./Crowdfunding.sol\";\n\ncontract SupplyChains {\n  // address of the crowdfunding contract\n  address public crowdfundingAddress;\n\n  mapping(uint256 => SupplyChain) supplychains;\n\n  mapping(uint256 => mapping(uint16 => BoxStatus)) boxesStatus;\n\n  uint256 NumberOfSupplyChains = 0;\n\n  // Add the address of the crowdfunding contract\n  function setCrowdfundingAddress(address _crowdfundingAddress) public {\n    crowdfundingAddress = _crowdfundingAddress;\n  }\n\n  /**\n  * Create a supply chain related to a campaign\n  */\n  function createSupplyChain(Campaign memory _campaign) external {\n    SupplyChain storage supplychain = supplychains[_campaign.id];\n\n    supplychain.campaignRef = _campaign.id;\n    supplychain.isStarted = false;\n    supplychain.isAnimalDelivered.butcher = false;\n    supplychain.isAnimalDelivered.farmer = false;\n    supplychain.isAnimalProcessed.butcher = false;\n    supplychain.areBoxesProcessed.butcher = false;\n    supplychain.areBoxesDistributed.butcher = false;\n    supplychain.areBoxesDistributed.delivery = false;\n    supplychain.areBoxesDelivered.delivery = false;\n    supplychain.totalBoxes = 0;\n    supplychain.deliveredBoxes = 0;\n\n    // import stakeholders from campaign\n    supplychain.stakeholders = _campaign.stakeholders;\n\n    NumberOfSupplyChains++;\n  }\n\n  /**\n  * Add a sold box to a supply chain\n  */\n  function addBox(uint256 _campaignId, BoxSellRef memory _box) external {\n    SupplyChain storage supplychain = supplychains[_campaignId];\n\n    boxesStatus[_campaignId][_box.id].campaignRef = _campaignId;\n    boxesStatus[_campaignId][_box.id].boxId = _box.id;\n    boxesStatus[_campaignId][_box.id].isDelivered = false;\n\n    supplychain.totalBoxes++;\n  }\n  \n  /**\n  * Mark a supply chain as started\n  */\n  function startSupplyChain(uint256 _campaignRef) external {\n    SupplyChain storage supplychain = supplychains[_campaignRef];\n\n    require(!supplychain.isStarted, \"The supply chain is already started\");\n    supplychain.isStarted = true;\n  }\n\n  /**\n  * Returns all supply chains\n  */\n  function getSupplyChains() public view returns (SupplyChain[] memory) {\n    SupplyChain[] memory allSupplychains = new SupplyChain[](NumberOfSupplyChains);\n    for (uint256 index = 0; index < NumberOfSupplyChains; index++) {\n      SupplyChain storage supplychain = supplychains[index];\n      allSupplychains[index] = supplychain;\n    }\n    return allSupplychains;\n  }\n\n  /**\n  * Returns all boxes status of a specific campaign\n  */\n  function getBoxesStatus(uint256 _campaignId) public view returns (BoxStatus[] memory) {\n    SupplyChain memory supplychain = supplychains[_campaignId];\n    BoxStatus[] memory boxesStatuses = new BoxStatus[](supplychain.totalBoxes);\n    for (uint16 index = 0; index < supplychain.totalBoxes; index++) {\n      boxesStatuses[index] = boxesStatus[_campaignId][index];\n    }\n    return boxesStatuses;\n  }\n\n  /**\n  * Mark the animal of a campaign as delivered (to the butcher)\n  */\n  function markAnimalAsDelivered(uint256 _campaignId) public {\n    SupplyChain storage supplychain = supplychains[_campaignId];\n    require(supplychain.isStarted, \"The supply chain must be started before marking the animal as delivered\");\n    require(\n      (msg.sender == supplychain.stakeholders.farmer.owner) || (msg.sender == supplychain.stakeholders.butcher.owner),\n      \"Only the farmer and the butcher can mark the animal as delivered\"\n    );\n    require(!supplychain.isAnimalDelivered.farmer || !supplychain.isAnimalDelivered.butcher, \"The animal is already delivered\");\n\n    if (msg.sender == supplychain.stakeholders.farmer.owner) {\n      require(!supplychain.isAnimalDelivered.farmer, \"The animal is already marked as delivered from the farmer\");\n\n      supplychain.isAnimalDelivered.farmer = true;\n    }\n    if (msg.sender == supplychain.stakeholders.butcher.owner) {\n      require(!supplychain.isAnimalDelivered.butcher, \"The animal is already marked as delivered from the butcher\");\n      supplychain.isAnimalDelivered.butcher = true;\n    }\n  }\n\n  /**\n  * Mark the animal as processed by the butcher\n  */\n  function markAnimalAsProcessed(uint256 _campaignId) public {\n    SupplyChain storage supplychain = supplychains[_campaignId];\n\n    require(supplychain.isStarted, \"The supply chain must be started before marking the animal as processed\");\n    require(msg.sender == supplychain.stakeholders.butcher.owner, \"Only the butcher can mark the animal as processed\");\n    require((supplychain.isAnimalDelivered.butcher && supplychain.isAnimalDelivered.farmer), \"The animal must be delivered before being processed\");\n    require(!supplychain.isAnimalProcessed.butcher, \"The animal is already processed\");\n\n    supplychain.isAnimalProcessed.butcher = true;\n  }\n\n  /**\n  * Mark boxes as processed by the butcher\n  */\n  function markBoxesAsProcessed(uint256 _campaignId) public {\n    SupplyChain storage supplychain = supplychains[_campaignId];\n\n    require(supplychain.isStarted, \"The supply chain must be started before marking a box as processed\");\n    require(msg.sender == supplychain.stakeholders.butcher.owner, \"Only the butcher can mark a box as processed\");\n    require(supplychain.isAnimalProcessed.butcher, \"The animal must be processed before preparing boxes\");\n    require(!supplychain.areBoxesProcessed.butcher, \"The boxes are already processed\");\n\n    supplychain.areBoxesProcessed.butcher = true;\n  }\n\n  /**\n  * Mark boxes as distributed from the butcher to the delivery service\n  */\n  function markBoxesAsDistributed(uint256 _campaignId) public {\n    SupplyChain storage supplychain = supplychains[_campaignId];\n\n    require(supplychain.isStarted, \"The supply chain must be started before marking a box as distributed\");\n    require(\n      (msg.sender == supplychain.stakeholders.delivery.owner) || (msg.sender == supplychain.stakeholders.butcher.owner),\n      \"Only the butcher and the delivery service can mark a box as distributed\");\n    require(supplychain.areBoxesProcessed.butcher, \"Boxes must be prepared before being distributed\");\n    require(\n      (!supplychain.areBoxesDistributed.butcher || !supplychain.areBoxesDistributed.delivery),\n      \"The boxes are already distributed\");\n\n    if (msg.sender == supplychain.stakeholders.butcher.owner) {\n      require(!supplychain.areBoxesDistributed.butcher, \"The boxes are already marked as distributed from the butcher\");\n\n      supplychain.areBoxesDistributed.butcher = true;\n    }\n\n    if (msg.sender == supplychain.stakeholders.delivery.owner) {\n      require(!supplychain.areBoxesDistributed.delivery, \"The boxes are already marked as distributed from the delivery service\");\n\n      supplychain.areBoxesDistributed.delivery = true;\n    }\n  }\n\n  /**\n  * Mark a box as delivered by the delivery service\n  */\n  function markBoxAsDelivered(uint256 _campaignId, uint16 _boxId) public {\n    SupplyChain storage supplychain = supplychains[_campaignId];\n\n    require(supplychain.isStarted, \"The supply chain must be started before marking a box as delivered\");\n    require(msg.sender == supplychain.stakeholders.delivery.owner, \"Only the delivery service can mark a box as delivered\");\n    require(\n      supplychain.areBoxesDistributed.butcher && supplychain.areBoxesDistributed.delivery,\n      \"Boxes must be distributed before being delivered\");\n    require(!boxesStatus[_campaignId][_boxId].isDelivered, \"The box is already delivered\");\n\n    boxesStatus[_campaignId][_boxId].isDelivered = true;\n\n    supplychain.deliveredBoxes++;\n\n    if(supplychain.totalBoxes == supplychain.deliveredBoxes) {\n      supplychain.areBoxesDelivered.delivery = true;\n      Crowdfunding(crowdfundingAddress).payOut(_campaignId);\n    }\n  }\n\n  /**\n  * Check if the supply chain is completed\n  */\n  function isCompleted(uint256 _campaignId) external view returns (bool) {\n    SupplyChain memory supplychain = supplychains[_campaignId];\n    return (\n      supplychain.isAnimalDelivered.farmer &&\n      supplychain.isAnimalDelivered.butcher &&\n      supplychain.isAnimalProcessed.butcher &&\n      supplychain.areBoxesProcessed.butcher &&\n      supplychain.areBoxesDistributed.butcher &&\n      supplychain.areBoxesDistributed.delivery &&\n      supplychain.areBoxesDelivered.delivery);\n  }\n}\n",
  "sourcePath": "/Users/cassolseba/VSCode/blockchain/146157_Blockchain/smart_contracts/contracts/SupplyChains.sol",
  "compiler": {
    "name": "solc",
    "version": "0.8.13+commit.abaa5c0e.Emscripten.clang"
  },
  "schemaVersion": "3.4.14",
  "updatedAt": "2023-08-18T16:19:29.626Z",
  "devdoc": {
    "kind": "dev",
    "methods": {},
    "version": 1
  },
  "userdoc": {
    "kind": "user",
    "methods": {
      "addBox(uint256,(uint16,uint8,address,uint256,string))": {
        "notice": "Add a sold box to a supply chain"
      },
      "createSupplyChain((uint256,(string,string,uint256),(uint256,uint256,uint16,uint16,uint8,bool),(address,string),(string,string,string,uint8),((address,uint8,string),(address,uint8,string),(address,uint8,string))))": {
        "notice": "Create a supply chain related to a campaign"
      },
      "getBoxesStatus(uint256)": {
        "notice": "Returns all boxes status of a specific campaign"
      },
      "getSupplyChains()": {
        "notice": "Returns all supply chains"
      },
      "isCompleted(uint256)": {
        "notice": "Check if the supply chain is completed"
      },
      "markAnimalAsDelivered(uint256)": {
        "notice": "Mark the animal of a campaign as delivered (to the butcher)"
      },
      "markAnimalAsProcessed(uint256)": {
        "notice": "Mark the animal as processed by the butcher"
      },
      "markBoxAsDelivered(uint256,uint16)": {
        "notice": "Mark a box as delivered by the delivery service"
      },
      "markBoxesAsDistributed(uint256)": {
        "notice": "Mark boxes as distributed from the butcher to the delivery service"
      },
      "markBoxesAsProcessed(uint256)": {
        "notice": "Mark boxes as processed by the butcher"
      },
      "startSupplyChain(uint256)": {
        "notice": "Mark a supply chain as started"
      }
    },
    "version": 1
  }
}