{
  "contractName": "SupplyChains",
  "abi": [
    {
      "inputs": [],
      "name": "NumberOfSupplyChains",
      "outputs": [
        {
          "internalType": "uint256",
          "name": "",
          "type": "uint256"
        }
      ],
      "stateMutability": "view",
      "type": "function"
    },
    {
      "inputs": [
        {
          "internalType": "uint256",
          "name": "",
          "type": "uint256"
        }
      ],
      "name": "supplychains",
      "outputs": [
        {
          "internalType": "uint256",
          "name": "campaignRef",
          "type": "uint256"
        },
        {
          "internalType": "bool",
          "name": "isAnimalDelivered",
          "type": "bool"
        },
        {
          "internalType": "bool",
          "name": "isAnimalProcessed",
          "type": "bool"
        },
        {
          "internalType": "bool",
          "name": "areBoxesPrepared",
          "type": "bool"
        },
        {
          "internalType": "bool",
          "name": "areBoxesDistributed",
          "type": "bool"
        },
        {
          "internalType": "bool",
          "name": "areBoxesDelivered",
          "type": "bool"
        },
        {
          "internalType": "uint256",
          "name": "totalBoxes",
          "type": "uint256"
        },
        {
          "internalType": "uint256",
          "name": "preparedBoxes",
          "type": "uint256"
        },
        {
          "internalType": "uint256",
          "name": "deliveredBoxes",
          "type": "uint256"
        },
        {
          "internalType": "uint256",
          "name": "receivedBoxes",
          "type": "uint256"
        },
        {
          "components": [
            {
              "components": [
                {
                  "internalType": "address payable",
                  "name": "owner",
                  "type": "address"
                },
                {
                  "internalType": "uint8",
                  "name": "share",
                  "type": "uint8"
                },
                {
                  "internalType": "string",
                  "name": "info",
                  "type": "string"
                }
              ],
              "internalType": "struct Stakeholder",
              "name": "farmer",
              "type": "tuple"
            },
            {
              "components": [
                {
                  "internalType": "address payable",
                  "name": "owner",
                  "type": "address"
                },
                {
                  "internalType": "uint8",
                  "name": "share",
                  "type": "uint8"
                },
                {
                  "internalType": "string",
                  "name": "info",
                  "type": "string"
                }
              ],
              "internalType": "struct Stakeholder",
              "name": "butcher",
              "type": "tuple"
            },
            {
              "components": [
                {
                  "internalType": "address payable",
                  "name": "owner",
                  "type": "address"
                },
                {
                  "internalType": "uint8",
                  "name": "share",
                  "type": "uint8"
                },
                {
                  "internalType": "string",
                  "name": "info",
                  "type": "string"
                }
              ],
              "internalType": "struct Stakeholder",
              "name": "delivery",
              "type": "tuple"
            }
          ],
          "internalType": "struct StakeholderList",
          "name": "stakeholders",
          "type": "tuple"
        }
      ],
      "stateMutability": "view",
      "type": "function"
    },
    {
      "inputs": [
        {
          "components": [
            {
              "internalType": "uint256",
              "name": "id",
              "type": "uint256"
            },
            {
              "components": [
                {
                  "internalType": "string",
                  "name": "title",
                  "type": "string"
                },
                {
                  "internalType": "string",
                  "name": "description",
                  "type": "string"
                },
                {
                  "internalType": "uint256",
                  "name": "deadline",
                  "type": "uint256"
                }
              ],
              "internalType": "struct CampaignInfo",
              "name": "info",
              "type": "tuple"
            },
            {
              "components": [
                {
                  "internalType": "uint256",
                  "name": "collectedAmount",
                  "type": "uint256"
                },
                {
                  "internalType": "uint256",
                  "name": "createdAt",
                  "type": "uint256"
                },
                {
                  "internalType": "uint256",
                  "name": "totalBoxes",
                  "type": "uint256"
                },
                {
                  "internalType": "uint256",
                  "name": "boxesSold",
                  "type": "uint256"
                },
                {
                  "internalType": "uint256",
                  "name": "totalBoxTypes",
                  "type": "uint256"
                },
                {
                  "internalType": "bool",
                  "name": "isStopped",
                  "type": "bool"
                }
              ],
              "internalType": "struct CampaignMeta",
              "name": "meta",
              "type": "tuple"
            },
            {
              "components": [
                {
                  "internalType": "address",
                  "name": "owner",
                  "type": "address"
                },
                {
                  "internalType": "string",
                  "name": "ownerPublicKey",
                  "type": "string"
                }
              ],
              "internalType": "struct CampaignOwner",
              "name": "owner",
              "type": "tuple"
            },
            {
              "components": [
                {
                  "internalType": "string",
                  "name": "earTag",
                  "type": "string"
                },
                {
                  "internalType": "string",
                  "name": "name",
                  "type": "string"
                },
                {
                  "internalType": "string",
                  "name": "farm",
                  "type": "string"
                },
                {
                  "internalType": "uint8",
                  "name": "age",
                  "type": "uint8"
                }
              ],
              "internalType": "struct CampaignAnimalData",
              "name": "animal",
              "type": "tuple"
            },
            {
              "components": [
                {
                  "components": [
                    {
                      "internalType": "address payable",
                      "name": "owner",
                      "type": "address"
                    },
                    {
                      "internalType": "uint8",
                      "name": "share",
                      "type": "uint8"
                    },
                    {
                      "internalType": "string",
                      "name": "info",
                      "type": "string"
                    }
                  ],
                  "internalType": "struct Stakeholder",
                  "name": "farmer",
                  "type": "tuple"
                },
                {
                  "components": [
                    {
                      "internalType": "address payable",
                      "name": "owner",
                      "type": "address"
                    },
                    {
                      "internalType": "uint8",
                      "name": "share",
                      "type": "uint8"
                    },
                    {
                      "internalType": "string",
                      "name": "info",
                      "type": "string"
                    }
                  ],
                  "internalType": "struct Stakeholder",
                  "name": "butcher",
                  "type": "tuple"
                },
                {
                  "components": [
                    {
                      "internalType": "address payable",
                      "name": "owner",
                      "type": "address"
                    },
                    {
                      "internalType": "uint8",
                      "name": "share",
                      "type": "uint8"
                    },
                    {
                      "internalType": "string",
                      "name": "info",
                      "type": "string"
                    }
                  ],
                  "internalType": "struct Stakeholder",
                  "name": "delivery",
                  "type": "tuple"
                }
              ],
              "internalType": "struct StakeholderList",
              "name": "stakeholders",
              "type": "tuple"
            }
          ],
          "internalType": "struct Campaign",
          "name": "_campaign",
          "type": "tuple"
        },
        {
          "components": [
            {
              "internalType": "uint256",
              "name": "id",
              "type": "uint256"
            },
            {
              "internalType": "uint256",
              "name": "boxId",
              "type": "uint256"
            },
            {
              "internalType": "address",
              "name": "owner",
              "type": "address"
            },
            {
              "internalType": "uint256",
              "name": "boughtAt",
              "type": "uint256"
            },
            {
              "internalType": "string",
              "name": "physAddress",
              "type": "string"
            }
          ],
          "internalType": "struct BoxSellRef[]",
          "name": "_boxes",
          "type": "tuple[]"
        }
      ],
      "name": "StartSupplyChain",
      "outputs": [],
      "stateMutability": "nonpayable",
      "type": "function"
    },
    {
      "inputs": [
        {
          "internalType": "uint256",
          "name": "_campaignId",
          "type": "uint256"
        }
      ],
      "name": "getSupplyChainById",
      "outputs": [
        {
          "components": [
            {
              "internalType": "uint256",
              "name": "campaignRef",
              "type": "uint256"
            },
            {
              "internalType": "bool",
              "name": "isAnimalDelivered",
              "type": "bool"
            },
            {
              "internalType": "bool",
              "name": "isAnimalProcessed",
              "type": "bool"
            },
            {
              "internalType": "bool",
              "name": "areBoxesPrepared",
              "type": "bool"
            },
            {
              "internalType": "bool",
              "name": "areBoxesDistributed",
              "type": "bool"
            },
            {
              "internalType": "bool",
              "name": "areBoxesDelivered",
              "type": "bool"
            },
            {
              "internalType": "uint256",
              "name": "totalBoxes",
              "type": "uint256"
            },
            {
              "internalType": "uint256",
              "name": "preparedBoxes",
              "type": "uint256"
            },
            {
              "internalType": "uint256",
              "name": "deliveredBoxes",
              "type": "uint256"
            },
            {
              "internalType": "uint256",
              "name": "receivedBoxes",
              "type": "uint256"
            },
            {
              "components": [
                {
                  "components": [
                    {
                      "internalType": "address payable",
                      "name": "owner",
                      "type": "address"
                    },
                    {
                      "internalType": "uint8",
                      "name": "share",
                      "type": "uint8"
                    },
                    {
                      "internalType": "string",
                      "name": "info",
                      "type": "string"
                    }
                  ],
                  "internalType": "struct Stakeholder",
                  "name": "farmer",
                  "type": "tuple"
                },
                {
                  "components": [
                    {
                      "internalType": "address payable",
                      "name": "owner",
                      "type": "address"
                    },
                    {
                      "internalType": "uint8",
                      "name": "share",
                      "type": "uint8"
                    },
                    {
                      "internalType": "string",
                      "name": "info",
                      "type": "string"
                    }
                  ],
                  "internalType": "struct Stakeholder",
                  "name": "butcher",
                  "type": "tuple"
                },
                {
                  "components": [
                    {
                      "internalType": "address payable",
                      "name": "owner",
                      "type": "address"
                    },
                    {
                      "internalType": "uint8",
                      "name": "share",
                      "type": "uint8"
                    },
                    {
                      "internalType": "string",
                      "name": "info",
                      "type": "string"
                    }
                  ],
                  "internalType": "struct Stakeholder",
                  "name": "delivery",
                  "type": "tuple"
                }
              ],
              "internalType": "struct StakeholderList",
              "name": "stakeholders",
              "type": "tuple"
            }
          ],
          "internalType": "struct SupplyChain",
          "name": "",
          "type": "tuple"
        }
      ],
      "stateMutability": "view",
      "type": "function"
    },
    {
      "inputs": [
        {
          "internalType": "uint256",
          "name": "_campaignId",
          "type": "uint256"
        }
      ],
      "name": "getPreparedBoxesStatus",
      "outputs": [
        {
          "internalType": "bool[]",
          "name": "",
          "type": "bool[]"
        }
      ],
      "stateMutability": "view",
      "type": "function"
    },
    {
      "inputs": [
        {
          "internalType": "uint256",
          "name": "_campaignId",
          "type": "uint256"
        }
      ],
      "name": "getDistributedBoxesStatus",
      "outputs": [
        {
          "internalType": "bool[]",
          "name": "",
          "type": "bool[]"
        }
      ],
      "stateMutability": "view",
      "type": "function"
    },
    {
      "inputs": [
        {
          "internalType": "uint256",
          "name": "_campaignId",
          "type": "uint256"
        }
      ],
      "name": "getDeliveredBoxesStatus",
      "outputs": [
        {
          "internalType": "bool[]",
          "name": "",
          "type": "bool[]"
        }
      ],
      "stateMutability": "view",
      "type": "function"
    },
    {
      "inputs": [
        {
          "internalType": "uint256",
          "name": "_campaignId",
          "type": "uint256"
        }
      ],
      "name": "markAnimalAsDelivered",
      "outputs": [],
      "stateMutability": "nonpayable",
      "type": "function"
    },
    {
      "inputs": [
        {
          "internalType": "uint256",
          "name": "_campaignId",
          "type": "uint256"
        }
      ],
      "name": "markAnimalAsProcessed",
      "outputs": [],
      "stateMutability": "nonpayable",
      "type": "function"
    },
    {
      "inputs": [
        {
          "internalType": "uint256",
          "name": "_campaignId",
          "type": "uint256"
        },
        {
          "internalType": "uint256",
          "name": "_boxId",
          "type": "uint256"
        }
      ],
      "name": "markBoxAsPrepared",
      "outputs": [],
      "stateMutability": "nonpayable",
      "type": "function"
    },
    {
      "inputs": [
        {
          "internalType": "uint256",
          "name": "_campaignId",
          "type": "uint256"
        },
        {
          "internalType": "uint256",
          "name": "_boxId",
          "type": "uint256"
        }
      ],
      "name": "markBoxAsDistributed",
      "outputs": [],
      "stateMutability": "nonpayable",
      "type": "function"
    },
    {
      "inputs": [
        {
          "internalType": "uint256",
          "name": "_campaignId",
          "type": "uint256"
        },
        {
          "internalType": "uint256",
          "name": "_boxId",
          "type": "uint256"
        }
      ],
      "name": "markBoxAsDelivered",
      "outputs": [],
      "stateMutability": "nonpayable",
      "type": "function"
    },
    {
      "inputs": [
        {
          "internalType": "uint256",
          "name": "_campaignId",
          "type": "uint256"
        }
      ],
      "name": "areAllBoxesPrepared",
      "outputs": [
        {
          "internalType": "bool",
          "name": "",
          "type": "bool"
        }
      ],
      "stateMutability": "view",
      "type": "function"
    },
    {
      "inputs": [
        {
          "internalType": "uint256",
          "name": "_campaignId",
          "type": "uint256"
        }
      ],
      "name": "areAllBoxesDistributed",
      "outputs": [
        {
          "internalType": "bool",
          "name": "",
          "type": "bool"
        }
      ],
      "stateMutability": "view",
      "type": "function"
    },
    {
      "inputs": [
        {
          "internalType": "uint256",
          "name": "_campaignId",
          "type": "uint256"
        }
      ],
      "name": "areAllBoxesDelivered",
      "outputs": [
        {
          "internalType": "bool",
          "name": "",
          "type": "bool"
        }
      ],
      "stateMutability": "view",
      "type": "function"
    },
    {
      "inputs": [
        {
          "internalType": "uint256",
          "name": "_campaignId",
          "type": "uint256"
        }
      ],
      "name": "isCompleted",
      "outputs": [
        {
          "internalType": "bool",
          "name": "",
          "type": "bool"
        }
      ],
      "stateMutability": "view",
      "type": "function"
    }
  ],
  "bytecode": "0x6080604052600060045534801561001557600080fd5b50614f20806100256000396000f3fe608060405234801561001057600080fd5b50600436106101005760003560e01c80636f439b4611610097578063d1d9e7c011610066578063d1d9e7c0146102cd578063e9368de9146102eb578063ebf91aed14610325578063f49ee42c1461035557610100565b80636f439b46146102215780637a41984b1461023d57806392ac8ca81461026d578063aab83dec1461029d57610100565b80633d709a29116100d35780633d709a291461018957806341b5a233146101a557806348e7a9a7146101c1578063549775f3146101f157610100565b8063073579ee14610105578063154a9fe114610135578063280f8949146101515780633afe21091461016d575b600080fd5b61011f600480360381019061011a9190613981565b610385565b60405161012c9190613a78565b60405180910390f35b61014f600480360381019061014a9190613981565b610896565b005b61016b60048036038101906101669190613a9a565b6109b6565b005b61018760048036038101906101829190613a9a565b610b23565b005b6101a3600480360381019061019e9190614379565b610c90565b005b6101bf60048036038101906101ba9190613a9a565b6110ab565b005b6101db60048036038101906101d69190613981565b611217565b6040516101e89190614400565b60405180910390f35b61020b60048036038101906102069190613981565b6116c1565b6040516102189190614400565b60405180910390f35b61023b60048036038101906102369190613981565b611b6b565b005b61025760048036038101906102529190613981565b611c3a565b6040516102649190614400565b60405180910390f35b61028760048036038101906102829190613981565b6120b6565b6040516102949190613a78565b60405180910390f35b6102b760048036038101906102b29190613981565b6125c7565b6040516102c4919061466d565b60405180910390f35b6102d5612a0c565b6040516102e2919061469e565b60405180910390f35b61030560048036038101906103009190613981565b612a12565b60405161031c9b9a99989796959493929190614717565b60405180910390f35b61033f600480360381019061033a9190613981565b612e02565b60405161034c9190614400565b60405180910390f35b61036f600480360381019061036a9190613981565b6132ac565b60405161037c9190613a78565b60405180910390f35b6060600080600084815260200190815260200160002060405180610160016040529081600082015481526020016001820160009054906101000a900460ff161515151581526020016001820160019054906101000a900460ff161515151581526020016001820160029054906101000a900460ff161515151581526020016001820160039054906101000a900460ff161515151581526020016001820160049054906101000a900460ff161515151581526020016002820154815260200160038201548152602001600482015481526020016005820154815260200160068201604051806060016040529081600082016040518060600160405290816000820160009054906101000a900473ffffffffffffffffffffffffffffffffffffffff1673ffffffffffffffffffffffffffffffffffffffff1673ffffffffffffffffffffffffffffffffffffffff1681526020016000820160149054906101000a900460ff1660ff1660ff168152602001600182018054610503906147f8565b80601f016020809104026020016040519081016040528092919081815260200182805461052f906147f8565b801561057c5780601f106105515761010080835404028352916020019161057c565b820191906000526020600020905b81548152906001019060200180831161055f57829003601f168201915b5050505050815250508152602001600282016040518060600160405290816000820160009054906101000a900473ffffffffffffffffffffffffffffffffffffffff1673ffffffffffffffffffffffffffffffffffffffff1673ffffffffffffffffffffffffffffffffffffffff1681526020016000820160149054906101000a900460ff1660ff1660ff16815260200160018201805461061c906147f8565b80601f0160208091040260200160405190810160405280929190818152602001828054610648906147f8565b80156106955780601f1061066a57610100808354040283529160200191610695565b820191906000526020600020905b81548152906001019060200180831161067857829003601f168201915b5050505050815250508152602001600482016040518060600160405290816000820160009054906101000a900473ffffffffffffffffffffffffffffffffffffffff1673ffffffffffffffffffffffffffffffffffffffff1673ffffffffffffffffffffffffffffffffffffffff1681526020016000820160149054906101000a900460ff1660ff1660ff168152602001600182018054610735906147f8565b80601f0160208091040260200160405190810160405280929190818152602001828054610761906147f8565b80156107ae5780601f10610783576101008083540402835291602001916107ae565b820191906000526020600020905b81548152906001019060200180831161079157829003601f168201915b5050505050815250508152505081525050905060008160c0015167ffffffffffffffff8111156107e1576107e0613af0565b5b60405190808252806020026020018201604052801561080f5781602001602082028036833780820191505090505b50905060005b8260c0015181101561088b5760026000868152602001908152602001600020600082815260200190815260200160002060009054906101000a900460ff1682828151811061086657610865614829565b5b602002602001019015159081151581525050808061088390614887565b915050610815565b508092505050919050565b600080600083815260200190815260200160002090508060060160020160000160009054906101000a900473ffffffffffffffffffffffffffffffffffffffff1673ffffffffffffffffffffffffffffffffffffffff163373ffffffffffffffffffffffffffffffffffffffff1614610944576040517f08c379a000000000000000000000000000000000000000000000000000000000815260040161093b90614952565b60405180910390fd5b8060010160009054906101000a900460ff16610995576040517f08c379a000000000000000000000000000000000000000000000000000000000815260040161098c906149e4565b60405180910390fd5b60018160010160016101000a81548160ff0219169083151502179055505050565b600080600084815260200190815260200160002090508060060160040160000160009054906101000a900473ffffffffffffffffffffffffffffffffffffffff1673ffffffffffffffffffffffffffffffffffffffff163373ffffffffffffffffffffffffffffffffffffffff1614610a64576040517f08c379a0000000000000000000000000000000000000000000000000000000008152600401610a5b90614a76565b60405180910390fd5b8060010160039054906101000a900460ff16610ab5576040517f08c379a0000000000000000000000000000000000000000000000000000000008152600401610aac90614b08565b60405180910390fd5b600160036000858152602001908152602001600020600084815260200190815260200160002060006101000a81548160ff021916908315150217905550610afb83612e02565b15610b1e5760018160010160046101000a81548160ff0219169083151502179055505b505050565b600080600084815260200190815260200160002090508060060160040160000160009054906101000a900473ffffffffffffffffffffffffffffffffffffffff1673ffffffffffffffffffffffffffffffffffffffff163373ffffffffffffffffffffffffffffffffffffffff1614610bd1576040517f08c379a0000000000000000000000000000000000000000000000000000000008152600401610bc890614b9a565b60405180910390fd5b8060010160029054906101000a900460ff16610c22576040517f08c379a0000000000000000000000000000000000000000000000000000000008152600401610c1990614c2c565b60405180910390fd5b600160026000858152602001908152602001600020600084815260200190815260200160002060006101000a81548160ff021916908315150217905550610c68836116c1565b15610c8b5760018160010160036101000a81548160ff0219169083151502179055505b505050565b60008060008460000151815260200190815260200160002090508260000151816000018190555060008160010160006101000a81548160ff02191690831515021790555060008160010160016101000a81548160ff02191690831515021790555060008160010160026101000a81548160ff02191690831515021790555060008160010160036101000a81548160ff02191690831515021790555060008160010160046101000a81548160ff0219169083151502179055506000805b8351811015610e66576000848281518110610d6a57610d69614829565b5b60200260200101519050600183610d819190614c4c565b92506000600160008860000151815260200190815260200160002060008360000151815260200190815260200160002060006101000a81548160ff0219169083151502179055506000600260008860000151815260200190815260200160002060008360000151815260200190815260200160002060006101000a81548160ff0219169083151502179055506000600360008860000151815260200190815260200160002060008360000151815260200190815260200160002060006101000a81548160ff021916908315150217905550508080610e5e90614887565b915050610d4c565b5060008111610eaa576040517f08c379a0000000000000000000000000000000000000000000000000000000008152600401610ea190614d14565b60405180910390fd5b8082600201819055506000826003018190555060008260040181905550600082600501819055508360a001518260060160008201518160000160008201518160000160006101000a81548173ffffffffffffffffffffffffffffffffffffffff021916908373ffffffffffffffffffffffffffffffffffffffff16021790555060208201518160000160146101000a81548160ff021916908360ff1602179055506040820151816001019080519060200190610f679291906137bd565b50505060208201518160020160008201518160000160006101000a81548173ffffffffffffffffffffffffffffffffffffffff021916908373ffffffffffffffffffffffffffffffffffffffff16021790555060208201518160000160146101000a81548160ff021916908360ff1602179055506040820151816001019080519060200190610ff79291906137bd565b50505060408201518160040160008201518160000160006101000a81548173ffffffffffffffffffffffffffffffffffffffff021916908373ffffffffffffffffffffffffffffffffffffffff16021790555060208201518160000160146101000a81548160ff021916908360ff16021790555060408201518160010190805190602001906110879291906137bd565b505050905050600460008154809291906110a090614887565b919050555050505050565b600080600084815260200190815260200160002090508060060160020160000160009054906101000a900473ffffffffffffffffffffffffffffffffffffffff1673ffffffffffffffffffffffffffffffffffffffff163373ffffffffffffffffffffffffffffffffffffffff1614611159576040517f08c379a000000000000000000000000000000000000000000000000000000000815260040161115090614da6565b60405180910390fd5b8060010160019054906101000a900460ff166111aa576040517f08c379a00000000000000000000000000000000000000000000000000000000081526004016111a190614e38565b60405180910390fd5b6001806000858152602001908152602001600020600084815260200190815260200160002060006101000a81548160ff0219169083151502179055506111ef83611217565b156112125760018160010160026101000a81548160ff0219169083151502179055505b505050565b60008060008084815260200190815260200160002060405180610160016040529081600082015481526020016001820160009054906101000a900460ff161515151581526020016001820160019054906101000a900460ff161515151581526020016001820160029054906101000a900460ff161515151581526020016001820160039054906101000a900460ff161515151581526020016001820160049054906101000a900460ff161515151581526020016002820154815260200160038201548152602001600482015481526020016005820154815260200160068201604051806060016040529081600082016040518060600160405290816000820160009054906101000a900473ffffffffffffffffffffffffffffffffffffffff1673ffffffffffffffffffffffffffffffffffffffff1673ffffffffffffffffffffffffffffffffffffffff1681526020016000820160149054906101000a900460ff1660ff1660ff168152602001600182018054611394906147f8565b80601f01602080910402602001604051908101604052809291908181526020018280546113c0906147f8565b801561140d5780601f106113e25761010080835404028352916020019161140d565b820191906000526020600020905b8154815290600101906020018083116113f057829003601f168201915b5050505050815250508152602001600282016040518060600160405290816000820160009054906101000a900473ffffffffffffffffffffffffffffffffffffffff1673ffffffffffffffffffffffffffffffffffffffff1673ffffffffffffffffffffffffffffffffffffffff1681526020016000820160149054906101000a900460ff1660ff1660ff1681526020016001820180546114ad906147f8565b80601f01602080910402602001604051908101604052809291908181526020018280546114d9906147f8565b80156115265780601f106114fb57610100808354040283529160200191611526565b820191906000526020600020905b81548152906001019060200180831161150957829003601f168201915b5050505050815250508152602001600482016040518060600160405290816000820160009054906101000a900473ffffffffffffffffffffffffffffffffffffffff1673ffffffffffffffffffffffffffffffffffffffff1673ffffffffffffffffffffffffffffffffffffffff1681526020016000820160149054906101000a900460ff1660ff1660ff1681526020016001820180546115c6906147f8565b80601f01602080910402602001604051908101604052809291908181526020018280546115f2906147f8565b801561163f5780601f106116145761010080835404028352916020019161163f565b820191906000526020600020905b81548152906001019060200180831161162257829003601f168201915b5050505050815250508152505081525050905060005b8160c001518110156116b55760016000858152602001908152602001600020600082815260200190815260200160002060009054906101000a900460ff166116a2576000925050506116bc565b80806116ad90614887565b915050611655565b5060019150505b919050565b60008060008084815260200190815260200160002060405180610160016040529081600082015481526020016001820160009054906101000a900460ff161515151581526020016001820160019054906101000a900460ff161515151581526020016001820160029054906101000a900460ff161515151581526020016001820160039054906101000a900460ff161515151581526020016001820160049054906101000a900460ff161515151581526020016002820154815260200160038201548152602001600482015481526020016005820154815260200160068201604051806060016040529081600082016040518060600160405290816000820160009054906101000a900473ffffffffffffffffffffffffffffffffffffffff1673ffffffffffffffffffffffffffffffffffffffff1673ffffffffffffffffffffffffffffffffffffffff1681526020016000820160149054906101000a900460ff1660ff1660ff16815260200160018201805461183e906147f8565b80601f016020809104026020016040519081016040528092919081815260200182805461186a906147f8565b80156118b75780601f1061188c576101008083540402835291602001916118b7565b820191906000526020600020905b81548152906001019060200180831161189a57829003601f168201915b5050505050815250508152602001600282016040518060600160405290816000820160009054906101000a900473ffffffffffffffffffffffffffffffffffffffff1673ffffffffffffffffffffffffffffffffffffffff1673ffffffffffffffffffffffffffffffffffffffff1681526020016000820160149054906101000a900460ff1660ff1660ff168152602001600182018054611957906147f8565b80601f0160208091040260200160405190810160405280929190818152602001828054611983906147f8565b80156119d05780601f106119a5576101008083540402835291602001916119d0565b820191906000526020600020905b8154815290600101906020018083116119b357829003601f168201915b5050505050815250508152602001600482016040518060600160405290816000820160009054906101000a900473ffffffffffffffffffffffffffffffffffffffff1673ffffffffffffffffffffffffffffffffffffffff1673ffffffffffffffffffffffffffffffffffffffff1681526020016000820160149054906101000a900460ff1660ff1660ff168152602001600182018054611a70906147f8565b80601f0160208091040260200160405190810160405280929190818152602001828054611a9c906147f8565b8015611ae95780601f10611abe57610100808354040283529160200191611ae9565b820191906000526020600020905b815481529060010190602001808311611acc57829003601f168201915b5050505050815250508152505081525050905060005b8160c00151811015611b5f5760026000858152602001908152602001600020600082815260200190815260200160002060009054906101000a900460ff16611b4c57600092505050611b66565b8080611b5790614887565b915050611aff565b5060019150505b919050565b600080600083815260200190815260200160002090508060060160000160000160009054906101000a900473ffffffffffffffffffffffffffffffffffffffff1673ffffffffffffffffffffffffffffffffffffffff163373ffffffffffffffffffffffffffffffffffffffff1614611c19576040517f08c379a0000000000000000000000000000000000000000000000000000000008152600401611c1090614eca565b60405180910390fd5b60018160010160006101000a81548160ff0219169083151502179055505050565b60008060008084815260200190815260200160002060405180610160016040529081600082015481526020016001820160009054906101000a900460ff161515151581526020016001820160019054906101000a900460ff161515151581526020016001820160029054906101000a900460ff161515151581526020016001820160039054906101000a900460ff161515151581526020016001820160049054906101000a900460ff161515151581526020016002820154815260200160038201548152602001600482015481526020016005820154815260200160068201604051806060016040529081600082016040518060600160405290816000820160009054906101000a900473ffffffffffffffffffffffffffffffffffffffff1673ffffffffffffffffffffffffffffffffffffffff1673ffffffffffffffffffffffffffffffffffffffff1681526020016000820160149054906101000a900460ff1660ff1660ff168152602001600182018054611db7906147f8565b80601f0160208091040260200160405190810160405280929190818152602001828054611de3906147f8565b8015611e305780601f10611e0557610100808354040283529160200191611e30565b820191906000526020600020905b815481529060010190602001808311611e1357829003601f168201915b5050505050815250508152602001600282016040518060600160405290816000820160009054906101000a900473ffffffffffffffffffffffffffffffffffffffff1673ffffffffffffffffffffffffffffffffffffffff1673ffffffffffffffffffffffffffffffffffffffff1681526020016000820160149054906101000a900460ff1660ff1660ff168152602001600182018054611ed0906147f8565b80601f0160208091040260200160405190810160405280929190818152602001828054611efc906147f8565b8015611f495780601f10611f1e57610100808354040283529160200191611f49565b820191906000526020600020905b815481529060010190602001808311611f2c57829003601f168201915b5050505050815250508152602001600482016040518060600160405290816000820160009054906101000a900473ffffffffffffffffffffffffffffffffffffffff1673ffffffffffffffffffffffffffffffffffffffff1673ffffffffffffffffffffffffffffffffffffffff1681526020016000820160149054906101000a900460ff1660ff1660ff168152602001600182018054611fe9906147f8565b80601f0160208091040260200160405190810160405280929190818152602001828054612015906147f8565b80156120625780601f1061203757610100808354040283529160200191612062565b820191906000526020600020905b81548152906001019060200180831161204557829003601f168201915b5050505050815250508152505081525050905080602001518015612087575080604001515b8015612094575080606001515b80156120a1575080608001515b80156120ae57508060a001515b915050919050565b6060600080600084815260200190815260200160002060405180610160016040529081600082015481526020016001820160009054906101000a900460ff161515151581526020016001820160019054906101000a900460ff161515151581526020016001820160029054906101000a900460ff161515151581526020016001820160039054906101000a900460ff161515151581526020016001820160049054906101000a900460ff161515151581526020016002820154815260200160038201548152602001600482015481526020016005820154815260200160068201604051806060016040529081600082016040518060600160405290816000820160009054906101000a900473ffffffffffffffffffffffffffffffffffffffff1673ffffffffffffffffffffffffffffffffffffffff1673ffffffffffffffffffffffffffffffffffffffff1681526020016000820160149054906101000a900460ff1660ff1660ff168152602001600182018054612234906147f8565b80601f0160208091040260200160405190810160405280929190818152602001828054612260906147f8565b80156122ad5780601f10612282576101008083540402835291602001916122ad565b820191906000526020600020905b81548152906001019060200180831161229057829003601f168201915b5050505050815250508152602001600282016040518060600160405290816000820160009054906101000a900473ffffffffffffffffffffffffffffffffffffffff1673ffffffffffffffffffffffffffffffffffffffff1673ffffffffffffffffffffffffffffffffffffffff1681526020016000820160149054906101000a900460ff1660ff1660ff16815260200160018201805461234d906147f8565b80601f0160208091040260200160405190810160405280929190818152602001828054612379906147f8565b80156123c65780601f1061239b576101008083540402835291602001916123c6565b820191906000526020600020905b8154815290600101906020018083116123a957829003601f168201915b5050505050815250508152602001600482016040518060600160405290816000820160009054906101000a900473ffffffffffffffffffffffffffffffffffffffff1673ffffffffffffffffffffffffffffffffffffffff1673ffffffffffffffffffffffffffffffffffffffff1681526020016000820160149054906101000a900460ff1660ff1660ff168152602001600182018054612466906147f8565b80601f0160208091040260200160405190810160405280929190818152602001828054612492906147f8565b80156124df5780601f106124b4576101008083540402835291602001916124df565b820191906000526020600020905b8154815290600101906020018083116124c257829003601f168201915b5050505050815250508152505081525050905060008160c0015167ffffffffffffffff81111561251257612511613af0565b5b6040519080825280602002602001820160405280156125405781602001602082028036833780820191505090505b50905060005b8260c001518110156125bc5760016000868152602001908152602001600020600082815260200190815260200160002060009054906101000a900460ff1682828151811061259757612596614829565b5b60200260200101901515908115158152505080806125b490614887565b915050612546565b508092505050919050565b6125cf613843565b60008083815260200190815260200160002060405180610160016040529081600082015481526020016001820160009054906101000a900460ff161515151581526020016001820160019054906101000a900460ff161515151581526020016001820160029054906101000a900460ff161515151581526020016001820160039054906101000a900460ff161515151581526020016001820160049054906101000a900460ff161515151581526020016002820154815260200160038201548152602001600482015481526020016005820154815260200160068201604051806060016040529081600082016040518060600160405290816000820160009054906101000a900473ffffffffffffffffffffffffffffffffffffffff1673ffffffffffffffffffffffffffffffffffffffff1673ffffffffffffffffffffffffffffffffffffffff1681526020016000820160149054906101000a900460ff1660ff1660ff168152602001600182018054612749906147f8565b80601f0160208091040260200160405190810160405280929190818152602001828054612775906147f8565b80156127c25780601f10612797576101008083540402835291602001916127c2565b820191906000526020600020905b8154815290600101906020018083116127a557829003601f168201915b5050505050815250508152602001600282016040518060600160405290816000820160009054906101000a900473ffffffffffffffffffffffffffffffffffffffff1673ffffffffffffffffffffffffffffffffffffffff1673ffffffffffffffffffffffffffffffffffffffff1681526020016000820160149054906101000a900460ff1660ff1660ff168152602001600182018054612862906147f8565b80601f016020809104026020016040519081016040528092919081815260200182805461288e906147f8565b80156128db5780601f106128b0576101008083540402835291602001916128db565b820191906000526020600020905b8154815290600101906020018083116128be57829003601f168201915b5050505050815250508152602001600482016040518060600160405290816000820160009054906101000a900473ffffffffffffffffffffffffffffffffffffffff1673ffffffffffffffffffffffffffffffffffffffff1673ffffffffffffffffffffffffffffffffffffffff1681526020016000820160149054906101000a900460ff1660ff1660ff16815260200160018201805461297b906147f8565b80601f01602080910402602001604051908101604052809291908181526020018280546129a7906147f8565b80156129f45780601f106129c9576101008083540402835291602001916129f4565b820191906000526020600020905b8154815290600101906020018083116129d757829003601f168201915b50505050508152505081525050815250509050919050565b60045481565b60006020528060005260406000206000915090508060000154908060010160009054906101000a900460ff16908060010160019054906101000a900460ff16908060010160029054906101000a900460ff16908060010160039054906101000a900460ff16908060010160049054906101000a900460ff169080600201549080600301549080600401549080600501549080600601604051806060016040529081600082016040518060600160405290816000820160009054906101000a900473ffffffffffffffffffffffffffffffffffffffff1673ffffffffffffffffffffffffffffffffffffffff1673ffffffffffffffffffffffffffffffffffffffff1681526020016000820160149054906101000a900460ff1660ff1660ff168152602001600182018054612b45906147f8565b80601f0160208091040260200160405190810160405280929190818152602001828054612b71906147f8565b8015612bbe5780601f10612b9357610100808354040283529160200191612bbe565b820191906000526020600020905b815481529060010190602001808311612ba157829003601f168201915b5050505050815250508152602001600282016040518060600160405290816000820160009054906101000a900473ffffffffffffffffffffffffffffffffffffffff1673ffffffffffffffffffffffffffffffffffffffff1673ffffffffffffffffffffffffffffffffffffffff1681526020016000820160149054906101000a900460ff1660ff1660ff168152602001600182018054612c5e906147f8565b80601f0160208091040260200160405190810160405280929190818152602001828054612c8a906147f8565b8015612cd75780601f10612cac57610100808354040283529160200191612cd7565b820191906000526020600020905b815481529060010190602001808311612cba57829003601f168201915b5050505050815250508152602001600482016040518060600160405290816000820160009054906101000a900473ffffffffffffffffffffffffffffffffffffffff1673ffffffffffffffffffffffffffffffffffffffff1673ffffffffffffffffffffffffffffffffffffffff1681526020016000820160149054906101000a900460ff1660ff1660ff168152602001600182018054612d77906147f8565b80601f0160208091040260200160405190810160405280929190818152602001828054612da3906147f8565b8015612df05780601f10612dc557610100808354040283529160200191612df0565b820191906000526020600020905b815481529060010190602001808311612dd357829003601f168201915b5050505050815250508152505090508b565b60008060008084815260200190815260200160002060405180610160016040529081600082015481526020016001820160009054906101000a900460ff161515151581526020016001820160019054906101000a900460ff161515151581526020016001820160029054906101000a900460ff161515151581526020016001820160039054906101000a900460ff161515151581526020016001820160049054906101000a900460ff161515151581526020016002820154815260200160038201548152602001600482015481526020016005820154815260200160068201604051806060016040529081600082016040518060600160405290816000820160009054906101000a900473ffffffffffffffffffffffffffffffffffffffff1673ffffffffffffffffffffffffffffffffffffffff1673ffffffffffffffffffffffffffffffffffffffff1681526020016000820160149054906101000a900460ff1660ff1660ff168152602001600182018054612f7f906147f8565b80601f0160208091040260200160405190810160405280929190818152602001828054612fab906147f8565b8015612ff85780601f10612fcd57610100808354040283529160200191612ff8565b820191906000526020600020905b815481529060010190602001808311612fdb57829003601f168201915b5050505050815250508152602001600282016040518060600160405290816000820160009054906101000a900473ffffffffffffffffffffffffffffffffffffffff1673ffffffffffffffffffffffffffffffffffffffff1673ffffffffffffffffffffffffffffffffffffffff1681526020016000820160149054906101000a900460ff1660ff1660ff168152602001600182018054613098906147f8565b80601f01602080910402602001604051908101604052809291908181526020018280546130c4906147f8565b80156131115780601f106130e657610100808354040283529160200191613111565b820191906000526020600020905b8154815290600101906020018083116130f457829003601f168201915b5050505050815250508152602001600482016040518060600160405290816000820160009054906101000a900473ffffffffffffffffffffffffffffffffffffffff1673ffffffffffffffffffffffffffffffffffffffff1673ffffffffffffffffffffffffffffffffffffffff1681526020016000820160149054906101000a900460ff1660ff1660ff1681526020016001820180546131b1906147f8565b80601f01602080910402602001604051908101604052809291908181526020018280546131dd906147f8565b801561322a5780601f106131ff5761010080835404028352916020019161322a565b820191906000526020600020905b81548152906001019060200180831161320d57829003601f168201915b5050505050815250508152505081525050905060005b8160c001518110156132a05760036000858152602001908152602001600020600082815260200190815260200160002060009054906101000a900460ff1661328d576000925050506132a7565b808061329890614887565b915050613240565b5060019150505b919050565b6060600080600084815260200190815260200160002060405180610160016040529081600082015481526020016001820160009054906101000a900460ff161515151581526020016001820160019054906101000a900460ff161515151581526020016001820160029054906101000a900460ff161515151581526020016001820160039054906101000a900460ff161515151581526020016001820160049054906101000a900460ff161515151581526020016002820154815260200160038201548152602001600482015481526020016005820154815260200160068201604051806060016040529081600082016040518060600160405290816000820160009054906101000a900473ffffffffffffffffffffffffffffffffffffffff1673ffffffffffffffffffffffffffffffffffffffff1673ffffffffffffffffffffffffffffffffffffffff1681526020016000820160149054906101000a900460ff1660ff1660ff16815260200160018201805461342a906147f8565b80601f0160208091040260200160405190810160405280929190818152602001828054613456906147f8565b80156134a35780601f10613478576101008083540402835291602001916134a3565b820191906000526020600020905b81548152906001019060200180831161348657829003601f168201915b5050505050815250508152602001600282016040518060600160405290816000820160009054906101000a900473ffffffffffffffffffffffffffffffffffffffff1673ffffffffffffffffffffffffffffffffffffffff1673ffffffffffffffffffffffffffffffffffffffff1681526020016000820160149054906101000a900460ff1660ff1660ff168152602001600182018054613543906147f8565b80601f016020809104026020016040519081016040528092919081815260200182805461356f906147f8565b80156135bc5780601f10613591576101008083540402835291602001916135bc565b820191906000526020600020905b81548152906001019060200180831161359f57829003601f168201915b5050505050815250508152602001600482016040518060600160405290816000820160009054906101000a900473ffffffffffffffffffffffffffffffffffffffff1673ffffffffffffffffffffffffffffffffffffffff1673ffffffffffffffffffffffffffffffffffffffff1681526020016000820160149054906101000a900460ff1660ff1660ff16815260200160018201805461365c906147f8565b80601f0160208091040260200160405190810160405280929190818152602001828054613688906147f8565b80156136d55780601f106136aa576101008083540402835291602001916136d5565b820191906000526020600020905b8154815290600101906020018083116136b857829003601f168201915b5050505050815250508152505081525050905060008160c0015167ffffffffffffffff81111561370857613707613af0565b5b6040519080825280602002602001820160405280156137365781602001602082028036833780820191505090505b50905060005b8260c001518110156137b25760036000868152602001908152602001600020600082815260200190815260200160002060009054906101000a900460ff1682828151811061378d5761378c614829565b5b60200260200101901515908115158152505080806137aa90614887565b91505061373c565b508092505050919050565b8280546137c9906147f8565b90600052602060002090601f0160209004810192826137eb5760008555613832565b82601f1061380457805160ff1916838001178555613832565b82800160010185558215613832579182015b82811115613831578251825591602001919060010190613816565b5b50905061383f91906138ad565b5090565b60405180610160016040528060008152602001600015158152602001600015158152602001600015158152602001600015158152602001600015158152602001600081526020016000815260200160008152602001600081526020016138a76138ca565b81525090565b5b808211156138c65760008160009055506001016138ae565b5090565b60405180606001604052806138dd6138fd565b81526020016138ea6138fd565b81526020016138f76138fd565b81525090565b6040518060600160405280600073ffffffffffffffffffffffffffffffffffffffff168152602001600060ff168152602001606081525090565b6000604051905090565b600080fd5b600080fd5b6000819050919050565b61395e8161394b565b811461396957600080fd5b50565b60008135905061397b81613955565b92915050565b60006020828403121561399757613996613941565b5b60006139a58482850161396c565b91505092915050565b600081519050919050565b600082825260208201905092915050565b6000819050602082019050919050565b60008115159050919050565b6139ef816139da565b82525050565b6000613a0183836139e6565b60208301905092915050565b6000602082019050919050565b6000613a25826139ae565b613a2f81856139b9565b9350613a3a836139ca565b8060005b83811015613a6b578151613a5288826139f5565b9750613a5d83613a0d565b925050600181019050613a3e565b5085935050505092915050565b60006020820190508181036000830152613a928184613a1a565b905092915050565b60008060408385031215613ab157613ab0613941565b5b6000613abf8582860161396c565b9250506020613ad08582860161396c565b9150509250929050565b600080fd5b6000601f19601f8301169050919050565b7f4e487b7100000000000000000000000000000000000000000000000000000000600052604160045260246000fd5b613b2882613adf565b810181811067ffffffffffffffff82111715613b4757613b46613af0565b5b80604052505050565b6000613b5a613937565b9050613b668282613b1f565b919050565b600080fd5b600080fd5b600080fd5b600067ffffffffffffffff821115613b9557613b94613af0565b5b613b9e82613adf565b9050602081019050919050565b82818337600083830152505050565b6000613bcd613bc884613b7a565b613b50565b905082815260208101848484011115613be957613be8613b75565b5b613bf4848285613bab565b509392505050565b600082601f830112613c1157613c10613b70565b5b8135613c21848260208601613bba565b91505092915050565b600060608284031215613c4057613c3f613ada565b5b613c4a6060613b50565b9050600082013567ffffffffffffffff811115613c6a57613c69613b6b565b5b613c7684828501613bfc565b600083015250602082013567ffffffffffffffff811115613c9a57613c99613b6b565b5b613ca684828501613bfc565b6020830152506040613cba8482850161396c565b60408301525092915050565b613ccf816139da565b8114613cda57600080fd5b50565b600081359050613cec81613cc6565b92915050565b600060c08284031215613d0857613d07613ada565b5b613d1260c0613b50565b90506000613d228482850161396c565b6000830152506020613d368482850161396c565b6020830152506040613d4a8482850161396c565b6040830152506060613d5e8482850161396c565b6060830152506080613d728482850161396c565b60808301525060a0613d8684828501613cdd565b60a08301525092915050565b600073ffffffffffffffffffffffffffffffffffffffff82169050919050565b6000613dbd82613d92565b9050919050565b613dcd81613db2565b8114613dd857600080fd5b50565b600081359050613dea81613dc4565b92915050565b600060408284031215613e0657613e05613ada565b5b613e106040613b50565b90506000613e2084828501613ddb565b600083015250602082013567ffffffffffffffff811115613e4457613e43613b6b565b5b613e5084828501613bfc565b60208301525092915050565b600060ff82169050919050565b613e7281613e5c565b8114613e7d57600080fd5b50565b600081359050613e8f81613e69565b92915050565b600060808284031215613eab57613eaa613ada565b5b613eb56080613b50565b9050600082013567ffffffffffffffff811115613ed557613ed4613b6b565b5b613ee184828501613bfc565b600083015250602082013567ffffffffffffffff811115613f0557613f04613b6b565b5b613f1184828501613bfc565b602083015250604082013567ffffffffffffffff811115613f3557613f34613b6b565b5b613f4184828501613bfc565b6040830152506060613f5584828501613e80565b60608301525092915050565b6000613f6c82613d92565b9050919050565b613f7c81613f61565b8114613f8757600080fd5b50565b600081359050613f9981613f73565b92915050565b600060608284031215613fb557613fb4613ada565b5b613fbf6060613b50565b90506000613fcf84828501613f8a565b6000830152506020613fe384828501613e80565b602083015250604082013567ffffffffffffffff81111561400757614006613b6b565b5b61401384828501613bfc565b60408301525092915050565b60006060828403121561403557614034613ada565b5b61403f6060613b50565b9050600082013567ffffffffffffffff81111561405f5761405e613b6b565b5b61406b84828501613f9f565b600083015250602082013567ffffffffffffffff81111561408f5761408e613b6b565b5b61409b84828501613f9f565b602083015250604082013567ffffffffffffffff8111156140bf576140be613b6b565b5b6140cb84828501613f9f565b60408301525092915050565b600061016082840312156140ee576140ed613ada565b5b6140f860c0613b50565b905060006141088482850161396c565b600083015250602082013567ffffffffffffffff81111561412c5761412b613b6b565b5b61413884828501613c2a565b602083015250604061414c84828501613cf2565b60408301525061010082013567ffffffffffffffff81111561417157614170613b6b565b5b61417d84828501613df0565b60608301525061012082013567ffffffffffffffff8111156141a2576141a1613b6b565b5b6141ae84828501613e95565b60808301525061014082013567ffffffffffffffff8111156141d3576141d2613b6b565b5b6141df8482850161401f565b60a08301525092915050565b600067ffffffffffffffff82111561420657614205613af0565b5b602082029050602081019050919050565b600080fd5b600060a0828403121561423257614231613ada565b5b61423c60a0613b50565b9050600061424c8482850161396c565b60008301525060206142608482850161396c565b602083015250604061427484828501613ddb565b60408301525060606142888482850161396c565b606083015250608082013567ffffffffffffffff8111156142ac576142ab613b6b565b5b6142b884828501613bfc565b60808301525092915050565b60006142d76142d2846141eb565b613b50565b905080838252602082019050602084028301858111156142fa576142f9614217565b5b835b8181101561434157803567ffffffffffffffff81111561431f5761431e613b70565b5b80860161432c898261421c565b855260208501945050506020810190506142fc565b5050509392505050565b600082601f8301126143605761435f613b70565b5b81356143708482602086016142c4565b91505092915050565b600080604083850312156143905761438f613941565b5b600083013567ffffffffffffffff8111156143ae576143ad613946565b5b6143ba858286016140d7565b925050602083013567ffffffffffffffff8111156143db576143da613946565b5b6143e78582860161434b565b9150509250929050565b6143fa816139da565b82525050565b600060208201905061441560008301846143f1565b92915050565b6144248161394b565b82525050565b61443381613f61565b82525050565b61444281613e5c565b82525050565b600081519050919050565b600082825260208201905092915050565b60005b83811015614482578082015181840152602081019050614467565b83811115614491576000848401525b50505050565b60006144a282614448565b6144ac8185614453565b93506144bc818560208601614464565b6144c581613adf565b840191505092915050565b60006060830160008301516144e8600086018261442a565b5060208301516144fb6020860182614439565b50604083015184820360408601526145138282614497565b9150508091505092915050565b6000606083016000830151848203600086015261453d82826144d0565b9150506020830151848203602086015261455782826144d0565b9150506040830151848203604086015261457182826144d0565b9150508091505092915050565b600061016083016000830151614597600086018261441b565b5060208301516145aa60208601826139e6565b5060408301516145bd60408601826139e6565b5060608301516145d060608601826139e6565b5060808301516145e360808601826139e6565b5060a08301516145f660a08601826139e6565b5060c083015161460960c086018261441b565b5060e083015161461c60e086018261441b565b5061010083015161463161010086018261441b565b5061012083015161464661012086018261441b565b506101408301518482036101408601526146608282614520565b9150508091505092915050565b60006020820190508181036000830152614687818461457e565b905092915050565b6146988161394b565b82525050565b60006020820190506146b3600083018461468f565b92915050565b600060608301600083015184820360008601526146d682826144d0565b915050602083015184820360208601526146f082826144d0565b9150506040830151848203604086015261470a82826144d0565b9150508091505092915050565b60006101608201905061472d600083018e61468f565b61473a602083018d6143f1565b614747604083018c6143f1565b614754606083018b6143f1565b614761608083018a6143f1565b61476e60a08301896143f1565b61477b60c083018861468f565b61478860e083018761468f565b61479661010083018661468f565b6147a461012083018561468f565b8181036101408301526147b781846146b9565b90509c9b505050505050505050505050565b7f4e487b7100000000000000000000000000000000000000000000000000000000600052602260045260246000fd5b6000600282049050600182168061481057607f821691505b602082108103614823576148226147c9565b5b50919050565b7f4e487b7100000000000000000000000000000000000000000000000000000000600052603260045260246000fd5b7f4e487b7100000000000000000000000000000000000000000000000000000000600052601160045260246000fd5b60006148928261394b565b91507fffffffffffffffffffffffffffffffffffffffffffffffffffffffffffffffff82036148c4576148c3614858565b5b600182019050919050565b600082825260208201905092915050565b7f4f6e6c792074686520627574636865722063616e206d61726b2074686520616e60008201527f696d616c2061732070726f636573736564000000000000000000000000000000602082015250565b600061493c6031836148cf565b9150614947826148e0565b604082019050919050565b6000602082019050818103600083015261496b8161492f565b9050919050565b7f54686520616e696d616c206d7573742062652064656c6976657265642062656660008201527f6f7265206265696e672070726f63657373656400000000000000000000000000602082015250565b60006149ce6033836148cf565b91506149d982614972565b604082019050919050565b600060208201905081810360008301526149fd816149c1565b9050919050565b7f4f6e6c79207468652064656c697665727920736572766963652063616e206d6160008201527f726b206120626f782061732064656c6976657265640000000000000000000000602082015250565b6000614a606035836148cf565b9150614a6b82614a04565b604082019050919050565b60006020820190508181036000830152614a8f81614a53565b9050919050565b7f426f786573206d757374206265206469737472696275746564206265666f726560008201527f206265696e672064656c69766572656400000000000000000000000000000000602082015250565b6000614af26030836148cf565b9150614afd82614a96565b604082019050919050565b60006020820190508181036000830152614b2181614ae5565b9050919050565b7f4f6e6c79207468652064656c697665727920736572766963652063616e206d6160008201527f726b206120626f78206173206469737472696275746564000000000000000000602082015250565b6000614b846037836148cf565b9150614b8f82614b28565b604082019050919050565b60006020820190508181036000830152614bb381614b77565b9050919050565b7f426f786573206d757374206265207072657061726564206265666f726520626560008201527f696e672064697374726962757465640000000000000000000000000000000000602082015250565b6000614c16602f836148cf565b9150614c2182614bba565b604082019050919050565b60006020820190508181036000830152614c4581614c09565b9050919050565b6000614c578261394b565b9150614c628361394b565b9250827fffffffffffffffffffffffffffffffffffffffffffffffffffffffffffffffff03821115614c9757614c96614858565b5b828201905092915050565b7f5468657265206d757374206265206174206c65617374206f6e6520626f78206960008201527f6e20746f74616c00000000000000000000000000000000000000000000000000602082015250565b6000614cfe6027836148cf565b9150614d0982614ca2565b604082019050919050565b60006020820190508181036000830152614d2d81614cf1565b9050919050565b7f4f6e6c792074686520627574636865722063616e206d61726b206120626f782060008201527f6173207072657061726564000000000000000000000000000000000000000000602082015250565b6000614d90602b836148cf565b9150614d9b82614d34565b604082019050919050565b60006020820190508181036000830152614dbf81614d83565b9050919050565b7f54686520616e696d616c206d7573742062652070726f6365737365642062656660008201527f6f726520707265706172696e6720626f78657300000000000000000000000000602082015250565b6000614e226033836148cf565b9150614e2d82614dc6565b604082019050919050565b60006020820190508181036000830152614e5181614e15565b9050919050565b7f4f6e6c7920746865206661726d65722063616e206d61726b2074686520616e6960008201527f6d616c2061732064656c69766572656400000000000000000000000000000000602082015250565b6000614eb46030836148cf565b9150614ebf82614e58565b604082019050919050565b60006020820190508181036000830152614ee381614ea7565b905091905056fea2646970667358221220a4944f111b50d26440c19f63f314a962b913ef4af7fb2b951a047139871943ce64736f6c634300080d0033",
  "immutableReferences": {},
  "source": "// SPDX-License-Identifier: AGPL\npragma solidity ^0.8.13;\n\nimport \"./Types.sol\";\nimport \"./Crowdfunding.sol\";\n\ncontract SupplyChains {\n\n  mapping(uint256 => SupplyChain) public supplychains;\n\n  mapping(uint256 => mapping(uint256 => bool)) preparedBoxes;\n  mapping(uint256 => mapping(uint256 => bool)) distributedBoxes;\n  mapping(uint256 => mapping(uint256 => bool)) deliveredBoxes;\n\n  uint256 public NumberOfSupplyChains = 0;\n\n\n  function StartSupplyChain(Campaign memory _campaign, BoxSellRef[] memory _boxes) external {\n    // get the supplychain related to campaign id\n    SupplyChain storage supplychain = supplychains[_campaign.id];\n\n    supplychain.campaignRef = _campaign.id;\n    supplychain.isAnimalDelivered = false;\n    supplychain.isAnimalProcessed = false;\n    supplychain.areBoxesPrepared = false;\n    supplychain.areBoxesDistributed = false;\n    supplychain.areBoxesDelivered = false;\n\n    uint totalNumOfBoxes = 0;\n    for (uint256 index = 0; index < _boxes.length; index++) {\n      BoxSellRef memory box = _boxes[index];\n      totalNumOfBoxes += 1;\n      preparedBoxes[_campaign.id][box.id] = false;\n      distributedBoxes[_campaign.id][box.id] = false;\n      deliveredBoxes[_campaign.id][box.id] = false;\n    }\n    require(totalNumOfBoxes > 0, \"There must be at least one box in total\");\n\n    supplychain.totalBoxes = totalNumOfBoxes;\n    supplychain.preparedBoxes = 0;\n    supplychain.deliveredBoxes = 0;\n    supplychain.receivedBoxes = 0;\n\n    // import stakeholders from campaign\n    supplychain.stakeholders = _campaign.stakeholders;\n\n    NumberOfSupplyChains++;\n  }\n\n  /*\n  * Retrieve a supplychain by campaign id\n  */\n  function getSupplyChainById(uint256 _campaignId) public view returns (SupplyChain memory) {\n    return supplychains[_campaignId];\n  }\n\n  /*\n  * Get an array of bool from the preparedBoxes mapping\n  */\n  function getPreparedBoxesStatus(uint256 _campaignId) public view returns (bool[] memory) {\n    SupplyChain memory supplychain = supplychains[_campaignId];\n    bool[] memory preparedBoxesStatus = new bool[](supplychain.totalBoxes);\n    for (uint256 index = 0; index < supplychain.totalBoxes; index++) {\n      preparedBoxesStatus[index] = preparedBoxes[_campaignId][index];\n    }\n    return preparedBoxesStatus;\n  }\n\n  /* \n  * Get an array of bool from the distributedBoxes mapping\n  */\n  function getDistributedBoxesStatus(uint256 _campaignId) public view returns (bool[] memory) {\n    SupplyChain memory supplychain = supplychains[_campaignId];\n    bool[] memory distributedBoxesStatus = new bool[](supplychain.totalBoxes);\n    for (uint256 index = 0; index < supplychain.totalBoxes; index++) {\n      distributedBoxesStatus[index] = distributedBoxes[_campaignId][index];\n    }\n    return distributedBoxesStatus;\n  }\n  /*\n  * Get an array of bool from the deliveredBoxes mapping\n  */\n  function getDeliveredBoxesStatus(uint256 _campaignId) public view returns (bool[] memory) {\n    SupplyChain memory supplychain = supplychains[_campaignId];\n    bool[] memory deliveredBoxesStatus = new bool[](supplychain.totalBoxes);\n    for (uint256 index = 0; index < supplychain.totalBoxes; index++) {\n      deliveredBoxesStatus[index] = deliveredBoxes[_campaignId][index];\n    }\n    return deliveredBoxesStatus;\n  }\n\n  /*\n  * Mark the animal of a campaign as delivered (to the butcher)\n  */\n  function markAnimalAsDelivered(uint256 _campaignId) public {\n    SupplyChain storage supplychain = supplychains[_campaignId];\n\n    require(msg.sender == supplychain.stakeholders.farmer.owner, \"Only the farmer can mark the animal as delivered\");\n    supplychain.isAnimalDelivered = true;\n  }\n\n  /*\n  * Mark the animal as processed by the butcher\n  */\n  function markAnimalAsProcessed(uint256 _campaignId) public {\n    SupplyChain storage supplychain = supplychains[_campaignId];\n\n    require(msg.sender == supplychain.stakeholders.butcher.owner, \"Only the butcher can mark the animal as processed\");\n    require(supplychain.isAnimalDelivered, \"The animal must be delivered before being processed\");\n    supplychain.isAnimalProcessed = true;\n  }\n\n  /*\n  * Mark a box as prepared by the butcher\n  */\n  function markBoxAsPrepared(uint256 _campaignId, uint256 _boxId) public {\n    SupplyChain storage supplychain = supplychains[_campaignId];\n\n    require(msg.sender == supplychain.stakeholders.butcher.owner, \"Only the butcher can mark a box as prepared\");\n    require(supplychain.isAnimalProcessed, \"The animal must be processed before preparing boxes\");\n    preparedBoxes[_campaignId][_boxId] = true;\n\n    if(areAllBoxesPrepared(_campaignId)) {\n      supplychain.areBoxesPrepared = true;\n    }\n  }\n\n  /*\n  * Mark a box as distributed by the delivery service\n  */\n  function markBoxAsDistributed(uint256 _campaignId, uint256 _boxId) public {\n    SupplyChain storage supplychain = supplychains[_campaignId];\n\n    require(msg.sender == supplychain.stakeholders.delivery.owner, \"Only the delivery service can mark a box as distributed\");\n    require(supplychain.areBoxesPrepared, \"Boxes must be prepared before being distributed\");\n    distributedBoxes[_campaignId][_boxId] = true;\n\n    if(areAllBoxesDistributed(_campaignId)) {\n      supplychain.areBoxesDistributed = true;\n    }\n  }\n\n  /*\n  * Mark a box as delivered by the delivery service\n  */\n  function markBoxAsDelivered(uint256 _campaignId, uint256 _boxId) public {\n    SupplyChain storage supplychain = supplychains[_campaignId];\n\n    require(msg.sender == supplychain.stakeholders.delivery.owner, \"Only the delivery service can mark a box as delivered\");\n    require(supplychain.areBoxesDistributed, \"Boxes must be distributed before being delivered\");\n    deliveredBoxes[_campaignId][_boxId] = true;\n\n    if(areAllBoxesDelivered(_campaignId)) {\n      supplychain.areBoxesDelivered = true;\n    }\n  }\n\n  /*\n  * Check if all boxes are prepared by the butcher\n  */\n  function areAllBoxesPrepared(uint256 _campaignId) public view returns (bool) {\n    SupplyChain memory supplychain = supplychains[_campaignId];\n\n    for (uint256 index = 0; index < supplychain.totalBoxes; index++) {\n      if (!preparedBoxes[_campaignId][index]) {\n        return false;\n      }\n    }\n    return true;\n  }\n\n  /*\n  * Check if all boxes are distributed by the delivery service\n  */\n  function areAllBoxesDistributed(uint256 _campaignId) public view returns (bool) {\n    SupplyChain memory supplychain = supplychains[_campaignId];\n\n    for (uint256 index = 0; index < supplychain.totalBoxes; index++) {\n      if (!distributedBoxes[_campaignId][index]) {\n        return false;\n      }\n    }\n    return true;\n  }\n\n  /*\n  * Check if all boxes are delivered by the delivery service\n  */\n  function areAllBoxesDelivered(uint256 _campaignId) public view returns (bool) {\n    SupplyChain memory supplychain = supplychains[_campaignId];\n\n    for (uint256 index = 0; index < supplychain.totalBoxes; index++) {\n      if (!deliveredBoxes[_campaignId][index]) {\n        return false;\n      }\n    }\n    return true;\n  }\n\n  /*\n  * Check if the supply chain is completed\n  */\n  function isCompleted(uint256 _campaignId) external view returns (bool) {\n    SupplyChain memory supplychain = supplychains[_campaignId];\n    return (supplychain.isAnimalDelivered && supplychain.isAnimalProcessed && supplychain.areBoxesPrepared && supplychain.areBoxesDistributed && supplychain.areBoxesDelivered);\n  }\n}\n",
  "sourcePath": "/Users/cassolseba/VSCode/blockchain/146157_Blockchain/smart_contracts/contracts/SupplyChains.sol",
  "compiler": {
    "name": "solc",
    "version": "0.8.13+commit.abaa5c0e.Emscripten.clang"
  },
  "schemaVersion": "3.4.14",
  "updatedAt": "2023-08-12T10:42:59.988Z",
  "devdoc": {
    "kind": "dev",
    "methods": {},
    "version": 1
  },
  "userdoc": {
    "kind": "user",
    "methods": {},
    "version": 1
  }
}