{
  "contractName": "SupplyChains",
  "abi": [
    {
      "anonymous": false,
      "inputs": [
        {
          "indexed": false,
          "internalType": "uint256",
          "name": "campaignRef",
          "type": "uint256"
        },
        {
          "indexed": false,
          "internalType": "string",
          "name": "user",
          "type": "string"
        },
        {
          "indexed": false,
          "internalType": "address",
          "name": "userAddress",
          "type": "address"
        }
      ],
      "name": "AnimalMarkedAsDelivered",
      "type": "event"
    },
    {
      "anonymous": false,
      "inputs": [
        {
          "indexed": false,
          "internalType": "uint256",
          "name": "campaignRef",
          "type": "uint256"
        },
        {
          "indexed": false,
          "internalType": "string",
          "name": "user",
          "type": "string"
        },
        {
          "indexed": false,
          "internalType": "address",
          "name": "userAddress",
          "type": "address"
        }
      ],
      "name": "AnimalMarkedAsProcessed",
      "type": "event"
    },
    {
      "anonymous": false,
      "inputs": [
        {
          "indexed": false,
          "internalType": "uint256",
          "name": "campaignRef",
          "type": "uint256"
        },
        {
          "indexed": false,
          "internalType": "uint16",
          "name": "boxId",
          "type": "uint16"
        },
        {
          "indexed": false,
          "internalType": "string",
          "name": "user",
          "type": "string"
        },
        {
          "indexed": false,
          "internalType": "address",
          "name": "userAddress",
          "type": "address"
        }
      ],
      "name": "BoxMarkedAsDelivered",
      "type": "event"
    },
    {
      "anonymous": false,
      "inputs": [
        {
          "indexed": false,
          "internalType": "uint256",
          "name": "campaignRef",
          "type": "uint256"
        },
        {
          "indexed": false,
          "internalType": "string",
          "name": "user",
          "type": "string"
        },
        {
          "indexed": false,
          "internalType": "address",
          "name": "userAddress",
          "type": "address"
        }
      ],
      "name": "BoxesMarkedAsDelivered",
      "type": "event"
    },
    {
      "anonymous": false,
      "inputs": [
        {
          "indexed": false,
          "internalType": "uint256",
          "name": "campaignRef",
          "type": "uint256"
        },
        {
          "indexed": false,
          "internalType": "string",
          "name": "user",
          "type": "string"
        },
        {
          "indexed": false,
          "internalType": "address",
          "name": "userAddress",
          "type": "address"
        }
      ],
      "name": "BoxesMarkedAsDistributed",
      "type": "event"
    },
    {
      "anonymous": false,
      "inputs": [
        {
          "indexed": false,
          "internalType": "uint256",
          "name": "campaignRef",
          "type": "uint256"
        },
        {
          "indexed": false,
          "internalType": "string",
          "name": "user",
          "type": "string"
        },
        {
          "indexed": false,
          "internalType": "address",
          "name": "userAddress",
          "type": "address"
        }
      ],
      "name": "BoxesMarkedAsProcessed",
      "type": "event"
    },
    {
      "anonymous": false,
      "inputs": [
        {
          "indexed": false,
          "internalType": "uint256",
          "name": "campaignRef",
          "type": "uint256"
        },
        {
          "indexed": false,
          "internalType": "uint16",
          "name": "SellRefId",
          "type": "uint16"
        }
      ],
      "name": "NewBox",
      "type": "event"
    },
    {
      "anonymous": false,
      "inputs": [
        {
          "indexed": false,
          "internalType": "uint256",
          "name": "campaignRef",
          "type": "uint256"
        }
      ],
      "name": "SupplyChainCreated",
      "type": "event"
    },
    {
      "anonymous": false,
      "inputs": [
        {
          "indexed": false,
          "internalType": "uint256",
          "name": "campaignRef",
          "type": "uint256"
        }
      ],
      "name": "SupplyChainStarted",
      "type": "event"
    },
    {
      "inputs": [],
      "name": "crowdfundingAddress",
      "outputs": [
        {
          "internalType": "address",
          "name": "",
          "type": "address"
        }
      ],
      "stateMutability": "view",
      "type": "function"
    },
    {
      "inputs": [
        {
          "internalType": "address",
          "name": "_crowdfundingAddress",
          "type": "address"
        }
      ],
      "name": "setCrowdfundingAddress",
      "outputs": [],
      "stateMutability": "nonpayable",
      "type": "function"
    },
    {
      "inputs": [
        {
          "internalType": "uint256",
          "name": "_campaignRef",
          "type": "uint256"
        },
        {
          "components": [
            {
              "components": [
                {
                  "internalType": "address payable",
                  "name": "owner",
                  "type": "address"
                },
                {
                  "internalType": "uint8",
                  "name": "share",
                  "type": "uint8"
                },
                {
                  "internalType": "string",
                  "name": "info",
                  "type": "string"
                }
              ],
              "internalType": "struct Stakeholder",
              "name": "farmer",
              "type": "tuple"
            },
            {
              "components": [
                {
                  "internalType": "address payable",
                  "name": "owner",
                  "type": "address"
                },
                {
                  "internalType": "uint8",
                  "name": "share",
                  "type": "uint8"
                },
                {
                  "internalType": "string",
                  "name": "info",
                  "type": "string"
                }
              ],
              "internalType": "struct Stakeholder",
              "name": "butcher",
              "type": "tuple"
            },
            {
              "components": [
                {
                  "internalType": "address payable",
                  "name": "owner",
                  "type": "address"
                },
                {
                  "internalType": "uint8",
                  "name": "share",
                  "type": "uint8"
                },
                {
                  "internalType": "string",
                  "name": "info",
                  "type": "string"
                }
              ],
              "internalType": "struct Stakeholder",
              "name": "delivery",
              "type": "tuple"
            }
          ],
          "internalType": "struct StakeholderList",
          "name": "_stakeholders",
          "type": "tuple"
        }
      ],
      "name": "createSupplyChain",
      "outputs": [],
      "stateMutability": "nonpayable",
      "type": "function"
    },
    {
      "inputs": [
        {
          "internalType": "uint256",
          "name": "_campaignRef",
          "type": "uint256"
        },
        {
          "components": [
            {
              "internalType": "uint16",
              "name": "id",
              "type": "uint16"
            },
            {
              "internalType": "uint8",
              "name": "boxId",
              "type": "uint8"
            },
            {
              "internalType": "address",
              "name": "owner",
              "type": "address"
            },
            {
              "internalType": "uint256",
              "name": "boughtAt",
              "type": "uint256"
            },
            {
              "internalType": "string",
              "name": "physAddress",
              "type": "string"
            }
          ],
          "internalType": "struct BoxSellRef",
          "name": "_box",
          "type": "tuple"
        }
      ],
      "name": "addBox",
      "outputs": [],
      "stateMutability": "nonpayable",
      "type": "function"
    },
    {
      "inputs": [
        {
          "internalType": "uint256",
          "name": "_campaignRef",
          "type": "uint256"
        }
      ],
      "name": "startSupplyChain",
      "outputs": [],
      "stateMutability": "nonpayable",
      "type": "function"
    },
    {
      "inputs": [],
      "name": "getSupplyChains",
      "outputs": [
        {
          "components": [
            {
              "internalType": "uint256",
              "name": "campaignRef",
              "type": "uint256"
            },
            {
              "internalType": "bool",
              "name": "isStarted",
              "type": "bool"
            },
            {
              "components": [
                {
                  "internalType": "bool",
                  "name": "farmer",
                  "type": "bool"
                },
                {
                  "internalType": "bool",
                  "name": "butcher",
                  "type": "bool"
                }
              ],
              "internalType": "struct AnimalDeliverStatus",
              "name": "isAnimalDelivered",
              "type": "tuple"
            },
            {
              "components": [
                {
                  "internalType": "bool",
                  "name": "butcher",
                  "type": "bool"
                }
              ],
              "internalType": "struct AnimalProcessStatus",
              "name": "isAnimalProcessed",
              "type": "tuple"
            },
            {
              "components": [
                {
                  "internalType": "bool",
                  "name": "butcher",
                  "type": "bool"
                }
              ],
              "internalType": "struct BoxesProcessStatus",
              "name": "areBoxesProcessed",
              "type": "tuple"
            },
            {
              "components": [
                {
                  "internalType": "bool",
                  "name": "butcher",
                  "type": "bool"
                },
                {
                  "internalType": "bool",
                  "name": "delivery",
                  "type": "bool"
                }
              ],
              "internalType": "struct BoxesDistributionStatus",
              "name": "areBoxesDistributed",
              "type": "tuple"
            },
            {
              "components": [
                {
                  "internalType": "bool",
                  "name": "delivery",
                  "type": "bool"
                }
              ],
              "internalType": "struct BoxesDeliverStatus",
              "name": "areBoxesDelivered",
              "type": "tuple"
            },
            {
              "internalType": "uint16",
              "name": "totalBoxes",
              "type": "uint16"
            },
            {
              "internalType": "uint16",
              "name": "deliveredBoxes",
              "type": "uint16"
            },
            {
              "components": [
                {
                  "components": [
                    {
                      "internalType": "address payable",
                      "name": "owner",
                      "type": "address"
                    },
                    {
                      "internalType": "uint8",
                      "name": "share",
                      "type": "uint8"
                    },
                    {
                      "internalType": "string",
                      "name": "info",
                      "type": "string"
                    }
                  ],
                  "internalType": "struct Stakeholder",
                  "name": "farmer",
                  "type": "tuple"
                },
                {
                  "components": [
                    {
                      "internalType": "address payable",
                      "name": "owner",
                      "type": "address"
                    },
                    {
                      "internalType": "uint8",
                      "name": "share",
                      "type": "uint8"
                    },
                    {
                      "internalType": "string",
                      "name": "info",
                      "type": "string"
                    }
                  ],
                  "internalType": "struct Stakeholder",
                  "name": "butcher",
                  "type": "tuple"
                },
                {
                  "components": [
                    {
                      "internalType": "address payable",
                      "name": "owner",
                      "type": "address"
                    },
                    {
                      "internalType": "uint8",
                      "name": "share",
                      "type": "uint8"
                    },
                    {
                      "internalType": "string",
                      "name": "info",
                      "type": "string"
                    }
                  ],
                  "internalType": "struct Stakeholder",
                  "name": "delivery",
                  "type": "tuple"
                }
              ],
              "internalType": "struct StakeholderList",
              "name": "stakeholders",
              "type": "tuple"
            }
          ],
          "internalType": "struct SupplyChain[]",
          "name": "",
          "type": "tuple[]"
        }
      ],
      "stateMutability": "view",
      "type": "function"
    },
    {
      "inputs": [
        {
          "internalType": "uint256",
          "name": "_campaignRef",
          "type": "uint256"
        }
      ],
      "name": "getBoxesStatus",
      "outputs": [
        {
          "components": [
            {
              "internalType": "uint256",
              "name": "campaignRef",
              "type": "uint256"
            },
            {
              "internalType": "uint16",
              "name": "boxId",
              "type": "uint16"
            },
            {
              "internalType": "bool",
              "name": "isDelivered",
              "type": "bool"
            }
          ],
          "internalType": "struct BoxStatus[]",
          "name": "",
          "type": "tuple[]"
        }
      ],
      "stateMutability": "view",
      "type": "function"
    },
    {
      "inputs": [
        {
          "internalType": "uint256",
          "name": "_campaignRef",
          "type": "uint256"
        }
      ],
      "name": "markAnimalAsDelivered",
      "outputs": [],
      "stateMutability": "nonpayable",
      "type": "function"
    },
    {
      "inputs": [
        {
          "internalType": "uint256",
          "name": "_campaignRef",
          "type": "uint256"
        }
      ],
      "name": "markAnimalAsProcessed",
      "outputs": [],
      "stateMutability": "nonpayable",
      "type": "function"
    },
    {
      "inputs": [
        {
          "internalType": "uint256",
          "name": "_campaignRef",
          "type": "uint256"
        }
      ],
      "name": "markBoxesAsProcessed",
      "outputs": [],
      "stateMutability": "nonpayable",
      "type": "function"
    },
    {
      "inputs": [
        {
          "internalType": "uint256",
          "name": "_campaignRef",
          "type": "uint256"
        }
      ],
      "name": "markBoxesAsDistributed",
      "outputs": [],
      "stateMutability": "nonpayable",
      "type": "function"
    },
    {
      "inputs": [
        {
          "internalType": "uint256",
          "name": "_campaignRef",
          "type": "uint256"
        },
        {
          "internalType": "uint16",
          "name": "_boxId",
          "type": "uint16"
        }
      ],
      "name": "markBoxAsDelivered",
      "outputs": [],
      "stateMutability": "nonpayable",
      "type": "function"
    },
    {
      "inputs": [
        {
          "internalType": "uint256",
          "name": "_campaignRef",
          "type": "uint256"
        }
      ],
      "name": "isCompleted",
      "outputs": [
        {
          "internalType": "bool",
          "name": "",
          "type": "bool"
        }
      ],
      "stateMutability": "view",
      "type": "function"
    }
  ],
  "bytecode": "0x6080604052600060035534801561001557600080fd5b50614cab806100256000396000f3fe608060405234801561001057600080fd5b50600436106100cf5760003560e01c80638417f2cf1161008c578063a85b6f9a11610066578063a85b6f9a146101fa578063afee730b14610216578063c0bd69c714610232578063eca2e25b14610250576100cf565b80638417f2cf1461019257806386814256146101ae5780638a2249a3146101ca576100cf565b8063154a9fe1146100d45780633a0e3a16146100f05780635c4caf951461010c5780635c9f048d1461012a5780636f439b46146101465780637a41984b14610162575b600080fd5b6100ee60048036038101906100e99190612e21565b61026c565b005b61010a6004803603810190610105919061316d565b61048f565b005b61011461088a565b60405161012191906131ea565b60405180910390f35b610144600480360381019061013f9190612e21565b6108ae565b005b610160600480360381019061015b9190612e21565b6109fd565b005b61017c60048036038101906101779190612e21565b610deb565b6040516101899190613220565b60405180910390f35b6101ac60048036038101906101a79190613275565b61136b565b005b6101c860048036038101906101c39190613389565b611736565b005b6101e460048036038101906101df9190612e21565b611930565b6040516101f19190613503565b60405180910390f35b610214600480360381019061020f9190613525565b611f6d565b005b610230600480360381019061022b9190612e21565b611fb0565b005b61023a6121b6565b60405161024791906138f6565b60405180910390f35b61026a60048036038101906102659190612e21565b612762565b005b60006001600083815260200190815260200160002090508060010160009054906101000a900460ff166102d4576040517f08c379a00000000000000000000000000000000000000000000000000000000081526004016102cb906139c1565b60405180910390fd5b8060080160020160000160009054906101000a900473ffffffffffffffffffffffffffffffffffffffff1673ffffffffffffffffffffffffffffffffffffffff163373ffffffffffffffffffffffffffffffffffffffff161461036c576040517f08c379a000000000000000000000000000000000000000000000000000000000815260040161036390613a53565b60405180910390fd5b8060020160000160019054906101000a900460ff16801561039e57508060020160000160009054906101000a900460ff165b6103dd576040517f08c379a00000000000000000000000000000000000000000000000000000000081526004016103d490613ae5565b60405180910390fd5b8060030160000160009054906101000a900460ff1615610432576040517f08c379a000000000000000000000000000000000000000000000000000000000815260040161042990613b51565b60405180910390fd5b60018160030160000160006101000a81548160ff0219169083151502179055507f8add3595a2c915b761227f6a28d2471c9afaa395cff649d59067f6caa4bafbc18233604051610483929190613bcc565b60405180910390a15050565b60008054906101000a900473ffffffffffffffffffffffffffffffffffffffff1673ffffffffffffffffffffffffffffffffffffffff163373ffffffffffffffffffffffffffffffffffffffff161461051d576040517f08c379a000000000000000000000000000000000000000000000000000000000815260040161051490613c7a565b60405180910390fd5b600060016000848152602001908152602001600020905082816000018190555060008160010160006101000a81548160ff02191690831515021790555060008160020160000160016101000a81548160ff02191690831515021790555060008160020160000160006101000a81548160ff02191690831515021790555060008160030160000160006101000a81548160ff02191690831515021790555060008160040160000160006101000a81548160ff02191690831515021790555060008160050160000160006101000a81548160ff02191690831515021790555060008160050160000160016101000a81548160ff02191690831515021790555060008160060160000160006101000a81548160ff02191690831515021790555060008160070160006101000a81548161ffff021916908361ffff16021790555060008160070160026101000a81548161ffff021916908361ffff160217905550818160080160008201518160000160008201518160000160006101000a81548173ffffffffffffffffffffffffffffffffffffffff021916908373ffffffffffffffffffffffffffffffffffffffff16021790555060208201518160000160146101000a81548160ff021916908360ff160217905550604082015181600101908051906020019061070c929190612ba4565b50505060208201518160020160008201518160000160006101000a81548173ffffffffffffffffffffffffffffffffffffffff021916908373ffffffffffffffffffffffffffffffffffffffff16021790555060208201518160000160146101000a81548160ff021916908360ff160217905550604082015181600101908051906020019061079c929190612ba4565b50505060408201518160040160008201518160000160006101000a81548173ffffffffffffffffffffffffffffffffffffffff021916908373ffffffffffffffffffffffffffffffffffffffff16021790555060208201518160000160146101000a81548160ff021916908360ff160217905550604082015181600101908051906020019061082c929190612ba4565b5050509050506003600081548092919061084590613cc9565b91905055507fb90e2d95045ce01190cfa032e64335c8342643b3c0d943efc945a755378e9839816000015460405161087d9190613d11565b60405180910390a1505050565b60008054906101000a900473ffffffffffffffffffffffffffffffffffffffff1681565b60008054906101000a900473ffffffffffffffffffffffffffffffffffffffff1673ffffffffffffffffffffffffffffffffffffffff163373ffffffffffffffffffffffffffffffffffffffff161461093c576040517f08c379a000000000000000000000000000000000000000000000000000000000815260040161093390613d9e565b60405180910390fd5b60006001600083815260200190815260200160002090508060010160009054906101000a900460ff16156109a5576040517f08c379a000000000000000000000000000000000000000000000000000000000815260040161099c90613e30565b60405180910390fd5b60018160010160006101000a81548160ff0219169083151502179055507f53d4035176d991da6b2d66ad46d9162d9093179aa960277dfed7b9e7134427bd826040516109f19190613d11565b60405180910390a15050565b60006001600083815260200190815260200160002090508060010160009054906101000a900460ff16610a65576040517f08c379a0000000000000000000000000000000000000000000000000000000008152600401610a5c90613ee8565b60405180910390fd5b8060080160000160000160009054906101000a900473ffffffffffffffffffffffffffffffffffffffff1673ffffffffffffffffffffffffffffffffffffffff163373ffffffffffffffffffffffffffffffffffffffff161480610b1e57508060080160020160000160009054906101000a900473ffffffffffffffffffffffffffffffffffffffff1673ffffffffffffffffffffffffffffffffffffffff163373ffffffffffffffffffffffffffffffffffffffff16145b610b5d576040517f08c379a0000000000000000000000000000000000000000000000000000000008152600401610b5490613f7a565b60405180910390fd5b8060020160000160009054906101000a900460ff161580610b9057508060020160000160019054906101000a900460ff16155b610bcf576040517f08c379a0000000000000000000000000000000000000000000000000000000008152600401610bc690613fe6565b60405180910390fd5b8060080160000160000160009054906101000a900473ffffffffffffffffffffffffffffffffffffffff1673ffffffffffffffffffffffffffffffffffffffff163373ffffffffffffffffffffffffffffffffffffffff1603610cdb578060020160000160009054906101000a900460ff1615610c81576040517f08c379a0000000000000000000000000000000000000000000000000000000008152600401610c7890614078565b60405180910390fd5b60018160020160000160006101000a81548160ff0219169083151502179055507f8cfb633f461af493e1d800d908aac09eb3640540754c8c6252dae50546e826918233604051610cd29291906140e4565b60405180910390a15b8060080160020160000160009054906101000a900473ffffffffffffffffffffffffffffffffffffffff1673ffffffffffffffffffffffffffffffffffffffff163373ffffffffffffffffffffffffffffffffffffffff1603610de7578060020160000160019054906101000a900460ff1615610d8d576040517f08c379a0000000000000000000000000000000000000000000000000000000008152600401610d8490614192565b60405180910390fd5b60018160020160000160016101000a81548160ff0219169083151502179055507f8cfb633f461af493e1d800d908aac09eb3640540754c8c6252dae50546e826918233604051610dde929190613bcc565b60405180910390a15b5050565b6000806001600084815260200190815260200160002060405180610140016040529081600082015481526020016001820160009054906101000a900460ff16151515158152602001600282016040518060400160405290816000820160009054906101000a900460ff161515151581526020016000820160019054906101000a900460ff1615151515815250508152602001600382016040518060200160405290816000820160009054906101000a900460ff1615151515815250508152602001600482016040518060200160405290816000820160009054906101000a900460ff1615151515815250508152602001600582016040518060400160405290816000820160009054906101000a900460ff161515151581526020016000820160019054906101000a900460ff1615151515815250508152602001600682016040518060200160405290816000820160009054906101000a900460ff16151515158152505081526020016007820160009054906101000a900461ffff1661ffff1661ffff1681526020016007820160029054906101000a900461ffff1661ffff1661ffff16815260200160088201604051806060016040529081600082016040518060600160405290816000820160009054906101000a900473ffffffffffffffffffffffffffffffffffffffff1673ffffffffffffffffffffffffffffffffffffffff1673ffffffffffffffffffffffffffffffffffffffff1681526020016000820160149054906101000a900460ff1660ff1660ff168152602001600182018054611036906141e1565b80601f0160208091040260200160405190810160405280929190818152602001828054611062906141e1565b80156110af5780601f10611084576101008083540402835291602001916110af565b820191906000526020600020905b81548152906001019060200180831161109257829003601f168201915b5050505050815250508152602001600282016040518060600160405290816000820160009054906101000a900473ffffffffffffffffffffffffffffffffffffffff1673ffffffffffffffffffffffffffffffffffffffff1673ffffffffffffffffffffffffffffffffffffffff1681526020016000820160149054906101000a900460ff1660ff1660ff16815260200160018201805461114f906141e1565b80601f016020809104026020016040519081016040528092919081815260200182805461117b906141e1565b80156111c85780601f1061119d576101008083540402835291602001916111c8565b820191906000526020600020905b8154815290600101906020018083116111ab57829003601f168201915b5050505050815250508152602001600482016040518060600160405290816000820160009054906101000a900473ffffffffffffffffffffffffffffffffffffffff1673ffffffffffffffffffffffffffffffffffffffff1673ffffffffffffffffffffffffffffffffffffffff1681526020016000820160149054906101000a900460ff1660ff1660ff168152602001600182018054611268906141e1565b80601f0160208091040260200160405190810160405280929190818152602001828054611294906141e1565b80156112e15780601f106112b6576101008083540402835291602001916112e1565b820191906000526020600020905b8154815290600101906020018083116112c457829003601f168201915b50505050508152505081525050815250509050806040015160000151801561130e57508060400151602001515b801561131f57508060600151600001515b801561133057508060800151600001515b801561134157508060a00151600001515b801561135257508060a00151602001515b801561136357508060c00151600001515b915050919050565b60006001600084815260200190815260200160002090508060010160009054906101000a900460ff166113d3576040517f08c379a00000000000000000000000000000000000000000000000000000000081526004016113ca906142aa565b60405180910390fd5b8060080160040160000160009054906101000a900473ffffffffffffffffffffffffffffffffffffffff1673ffffffffffffffffffffffffffffffffffffffff163373ffffffffffffffffffffffffffffffffffffffff161461146b576040517f08c379a00000000000000000000000000000000000000000000000000000000081526004016114629061433c565b60405180910390fd5b8060050160000160009054906101000a900460ff16801561149d57508060050160000160019054906101000a900460ff165b6114dc576040517f08c379a00000000000000000000000000000000000000000000000000000000081526004016114d3906143ce565b60405180910390fd5b6002600084815260200190815260200160002060008361ffff1661ffff16815260200190815260200160002060010160029054906101000a900460ff1615611559576040517f08c379a00000000000000000000000000000000000000000000000000000000081526004016115509061443a565b60405180910390fd5b60016002600085815260200190815260200160002060008461ffff1661ffff16815260200190815260200160002060010160026101000a81548160ff02191690831515021790555080600701600281819054906101000a900461ffff16809291906115c39061445a565b91906101000a81548161ffff021916908361ffff160217905550507f30095d46e13baa40e3cfde9d5acdee35bf360ad5adda5c68d04ac7fb9fb3123c838333604051611611939291906144df565b60405180910390a18060070160029054906101000a900461ffff1661ffff168160070160009054906101000a900461ffff1661ffff16036117315760018160060160000160006101000a81548160ff0219169083151502179055507f2b483d759ef4df50547b69d67eb4cef261301257034746e43160b5eaf851b37f833360405161169d929190614529565b60405180910390a160008054906101000a900473ffffffffffffffffffffffffffffffffffffffff1673ffffffffffffffffffffffffffffffffffffffff1663da333ca6846040518263ffffffff1660e01b81526004016116fe9190613d11565b600060405180830381600087803b15801561171857600080fd5b505af115801561172c573d6000803e3d6000fd5b505050505b505050565b60008054906101000a900473ffffffffffffffffffffffffffffffffffffffff1673ffffffffffffffffffffffffffffffffffffffff163373ffffffffffffffffffffffffffffffffffffffff16146117c4576040517f08c379a00000000000000000000000000000000000000000000000000000000081526004016117bb906145d7565b60405180910390fd5b600060016000848152602001908152602001600020905082600260008581526020019081526020016000206000846000015161ffff1661ffff168152602001908152602001600020600001819055508160000151600260008581526020019081526020016000206000846000015161ffff1661ffff16815260200190815260200160002060010160006101000a81548161ffff021916908361ffff1602179055506000600260008581526020019081526020016000206000846000015161ffff1661ffff16815260200190815260200160002060010160026101000a81548160ff02191690831515021790555080600701600081819054906101000a900461ffff16809291906118d39061445a565b91906101000a81548161ffff021916908361ffff160217905550507fa0cfca248a00b79ea6e2cfc6f9610c5fa5d57ad67cdf361337e4bbcf78d945fa8383600001516040516119239291906145f7565b60405180910390a1505050565b606060006001600084815260200190815260200160002060405180610140016040529081600082015481526020016001820160009054906101000a900460ff16151515158152602001600282016040518060400160405290816000820160009054906101000a900460ff161515151581526020016000820160019054906101000a900460ff1615151515815250508152602001600382016040518060200160405290816000820160009054906101000a900460ff1615151515815250508152602001600482016040518060200160405290816000820160009054906101000a900460ff1615151515815250508152602001600582016040518060400160405290816000820160009054906101000a900460ff161515151581526020016000820160019054906101000a900460ff1615151515815250508152602001600682016040518060200160405290816000820160009054906101000a900460ff16151515158152505081526020016007820160009054906101000a900461ffff1661ffff1661ffff1681526020016007820160029054906101000a900461ffff1661ffff1661ffff16815260200160088201604051806060016040529081600082016040518060600160405290816000820160009054906101000a900473ffffffffffffffffffffffffffffffffffffffff1673ffffffffffffffffffffffffffffffffffffffff1673ffffffffffffffffffffffffffffffffffffffff1681526020016000820160149054906101000a900460ff1660ff1660ff168152602001600182018054611b7c906141e1565b80601f0160208091040260200160405190810160405280929190818152602001828054611ba8906141e1565b8015611bf55780601f10611bca57610100808354040283529160200191611bf5565b820191906000526020600020905b815481529060010190602001808311611bd857829003601f168201915b5050505050815250508152602001600282016040518060600160405290816000820160009054906101000a900473ffffffffffffffffffffffffffffffffffffffff1673ffffffffffffffffffffffffffffffffffffffff1673ffffffffffffffffffffffffffffffffffffffff1681526020016000820160149054906101000a900460ff1660ff1660ff168152602001600182018054611c95906141e1565b80601f0160208091040260200160405190810160405280929190818152602001828054611cc1906141e1565b8015611d0e5780601f10611ce357610100808354040283529160200191611d0e565b820191906000526020600020905b815481529060010190602001808311611cf157829003601f168201915b5050505050815250508152602001600482016040518060600160405290816000820160009054906101000a900473ffffffffffffffffffffffffffffffffffffffff1673ffffffffffffffffffffffffffffffffffffffff1673ffffffffffffffffffffffffffffffffffffffff1681526020016000820160149054906101000a900460ff1660ff1660ff168152602001600182018054611dae906141e1565b80601f0160208091040260200160405190810160405280929190818152602001828054611dda906141e1565b8015611e275780601f10611dfc57610100808354040283529160200191611e27565b820191906000526020600020905b815481529060010190602001808311611e0a57829003601f168201915b5050505050815250508152505081525050905060008160e0015161ffff1667ffffffffffffffff811115611e5e57611e5d612e64565b5b604051908082528060200260200182016040528015611e9757816020015b611e84612c2a565b815260200190600190039081611e7c5790505b50905060005b8260e0015161ffff168161ffff161015611f62576002600086815260200190815260200160002060008261ffff1661ffff168152602001908152602001600020604051806060016040529081600082015481526020016001820160009054906101000a900461ffff1661ffff1661ffff1681526020016001820160029054906101000a900460ff161515151581525050828261ffff1681518110611f4457611f43614620565b5b60200260200101819052508080611f5a9061445a565b915050611e9d565b508092505050919050565b806000806101000a81548173ffffffffffffffffffffffffffffffffffffffff021916908373ffffffffffffffffffffffffffffffffffffffff16021790555050565b60006001600083815260200190815260200160002090508060010160009054906101000a900460ff16612018576040517f08c379a000000000000000000000000000000000000000000000000000000000815260040161200f906146e7565b60405180910390fd5b8060080160020160000160009054906101000a900473ffffffffffffffffffffffffffffffffffffffff1673ffffffffffffffffffffffffffffffffffffffff163373ffffffffffffffffffffffffffffffffffffffff16146120b0576040517f08c379a00000000000000000000000000000000000000000000000000000000081526004016120a790614779565b60405180910390fd5b8060030160000160009054906101000a900460ff16612104576040517f08c379a00000000000000000000000000000000000000000000000000000000081526004016120fb9061480b565b60405180910390fd5b8060040160000160009054906101000a900460ff1615612159576040517f08c379a000000000000000000000000000000000000000000000000000000000815260040161215090614877565b60405180910390fd5b60018160040160000160006101000a81548160ff0219169083151502179055507fd7ccd7452c937e788da90aab2116a1a57797f43756dbe22b9db97ae625cda5ff82336040516121aa929190613bcc565b60405180910390a15050565b6060600060035467ffffffffffffffff8111156121d6576121d5612e64565b5b60405190808252806020026020018201604052801561220f57816020015b6121fc612c51565b8152602001906001900390816121f45790505b50905060005b60035481101561275a5760006001600083815260200190815260200160002090508060405180610140016040529081600082015481526020016001820160009054906101000a900460ff16151515158152602001600282016040518060400160405290816000820160009054906101000a900460ff161515151581526020016000820160019054906101000a900460ff1615151515815250508152602001600382016040518060200160405290816000820160009054906101000a900460ff1615151515815250508152602001600482016040518060200160405290816000820160009054906101000a900460ff1615151515815250508152602001600582016040518060400160405290816000820160009054906101000a900460ff161515151581526020016000820160019054906101000a900460ff1615151515815250508152602001600682016040518060200160405290816000820160009054906101000a900460ff16151515158152505081526020016007820160009054906101000a900461ffff1661ffff1661ffff1681526020016007820160029054906101000a900461ffff1661ffff1661ffff16815260200160088201604051806060016040529081600082016040518060600160405290816000820160009054906101000a900473ffffffffffffffffffffffffffffffffffffffff1673ffffffffffffffffffffffffffffffffffffffff1673ffffffffffffffffffffffffffffffffffffffff1681526020016000820160149054906101000a900460ff1660ff1660ff16815260200160018201805461246c906141e1565b80601f0160208091040260200160405190810160405280929190818152602001828054612498906141e1565b80156124e55780601f106124ba576101008083540402835291602001916124e5565b820191906000526020600020905b8154815290600101906020018083116124c857829003601f168201915b5050505050815250508152602001600282016040518060600160405290816000820160009054906101000a900473ffffffffffffffffffffffffffffffffffffffff1673ffffffffffffffffffffffffffffffffffffffff1673ffffffffffffffffffffffffffffffffffffffff1681526020016000820160149054906101000a900460ff1660ff1660ff168152602001600182018054612585906141e1565b80601f01602080910402602001604051908101604052809291908181526020018280546125b1906141e1565b80156125fe5780601f106125d3576101008083540402835291602001916125fe565b820191906000526020600020905b8154815290600101906020018083116125e157829003601f168201915b5050505050815250508152602001600482016040518060600160405290816000820160009054906101000a900473ffffffffffffffffffffffffffffffffffffffff1673ffffffffffffffffffffffffffffffffffffffff1673ffffffffffffffffffffffffffffffffffffffff1681526020016000820160149054906101000a900460ff1660ff1660ff16815260200160018201805461269e906141e1565b80601f01602080910402602001604051908101604052809291908181526020018280546126ca906141e1565b80156127175780601f106126ec57610100808354040283529160200191612717565b820191906000526020600020905b8154815290600101906020018083116126fa57829003601f168201915b505050505081525050815250508152505083838151811061273b5761273a614620565b5b602002602001018190525050808061275290613cc9565b915050612215565b508091505090565b60006001600083815260200190815260200160002090508060010160009054906101000a900460ff166127ca576040517f08c379a00000000000000000000000000000000000000000000000000000000081526004016127c19061492f565b60405180910390fd5b8060080160040160000160009054906101000a900473ffffffffffffffffffffffffffffffffffffffff1673ffffffffffffffffffffffffffffffffffffffff163373ffffffffffffffffffffffffffffffffffffffff16148061288357508060080160020160000160009054906101000a900473ffffffffffffffffffffffffffffffffffffffff1673ffffffffffffffffffffffffffffffffffffffff163373ffffffffffffffffffffffffffffffffffffffff16145b6128c2576040517f08c379a00000000000000000000000000000000000000000000000000000000081526004016128b9906149e7565b60405180910390fd5b8060040160000160009054906101000a900460ff16612916576040517f08c379a000000000000000000000000000000000000000000000000000000000815260040161290d90614a79565b60405180910390fd5b8060050160000160009054906101000a900460ff16158061294957508060050160000160019054906101000a900460ff16155b612988576040517f08c379a000000000000000000000000000000000000000000000000000000000815260040161297f90614b0b565b60405180910390fd5b8060080160020160000160009054906101000a900473ffffffffffffffffffffffffffffffffffffffff1673ffffffffffffffffffffffffffffffffffffffff163373ffffffffffffffffffffffffffffffffffffffff1603612a94578060050160000160009054906101000a900460ff1615612a3a576040517f08c379a0000000000000000000000000000000000000000000000000000000008152600401612a3190614b9d565b60405180910390fd5b60018160050160000160006101000a81548160ff0219169083151502179055507fb12f685160db7f40b0b9df5621142f02325c4f26e4b25ea7609029fdd1911f1b8233604051612a8b929190613bcc565b60405180910390a15b8060080160040160000160009054906101000a900473ffffffffffffffffffffffffffffffffffffffff1673ffffffffffffffffffffffffffffffffffffffff163373ffffffffffffffffffffffffffffffffffffffff1603612ba0578060050160000160019054906101000a900460ff1615612b46576040517f08c379a0000000000000000000000000000000000000000000000000000000008152600401612b3d90614c55565b60405180910390fd5b60018160050160000160016101000a81548160ff0219169083151502179055507fb12f685160db7f40b0b9df5621142f02325c4f26e4b25ea7609029fdd1911f1b8233604051612b97929190614529565b60405180910390a15b5050565b828054612bb0906141e1565b90600052602060002090601f016020900481019282612bd25760008555612c19565b82601f10612beb57805160ff1916838001178555612c19565b82800160010185558215612c19579182015b82811115612c18578251825591602001919060010190612bfd565b5b509050612c269190612cd2565b5090565b604051806060016040528060008152602001600061ffff1681526020016000151581525090565b60405180610140016040528060008152602001600015158152602001612c75612cef565b8152602001612c82612d0d565b8152602001612c8f612d22565b8152602001612c9c612d37565b8152602001612ca9612d55565b8152602001600061ffff168152602001600061ffff168152602001612ccc612d6a565b81525090565b5b80821115612ceb576000816000905550600101612cd3565b5090565b60405180604001604052806000151581526020016000151581525090565b60405180602001604052806000151581525090565b60405180602001604052806000151581525090565b60405180604001604052806000151581526020016000151581525090565b60405180602001604052806000151581525090565b6040518060600160405280612d7d612d9d565b8152602001612d8a612d9d565b8152602001612d97612d9d565b81525090565b6040518060600160405280600073ffffffffffffffffffffffffffffffffffffffff168152602001600060ff168152602001606081525090565b6000604051905090565b600080fd5b600080fd5b6000819050919050565b612dfe81612deb565b8114612e0957600080fd5b50565b600081359050612e1b81612df5565b92915050565b600060208284031215612e3757612e36612de1565b5b6000612e4584828501612e0c565b91505092915050565b600080fd5b6000601f19601f8301169050919050565b7f4e487b7100000000000000000000000000000000000000000000000000000000600052604160045260246000fd5b612e9c82612e53565b810181811067ffffffffffffffff82111715612ebb57612eba612e64565b5b80604052505050565b6000612ece612dd7565b9050612eda8282612e93565b919050565b600080fd5b600073ffffffffffffffffffffffffffffffffffffffff82169050919050565b6000612f0f82612ee4565b9050919050565b612f1f81612f04565b8114612f2a57600080fd5b50565b600081359050612f3c81612f16565b92915050565b600060ff82169050919050565b612f5881612f42565b8114612f6357600080fd5b50565b600081359050612f7581612f4f565b92915050565b600080fd5b600080fd5b600067ffffffffffffffff821115612fa057612f9f612e64565b5b612fa982612e53565b9050602081019050919050565b82818337600083830152505050565b6000612fd8612fd384612f85565b612ec4565b905082815260208101848484011115612ff457612ff3612f80565b5b612fff848285612fb6565b509392505050565b600082601f83011261301c5761301b612f7b565b5b813561302c848260208601612fc5565b91505092915050565b60006060828403121561304b5761304a612e4e565b5b6130556060612ec4565b9050600061306584828501612f2d565b600083015250602061307984828501612f66565b602083015250604082013567ffffffffffffffff81111561309d5761309c612edf565b5b6130a984828501613007565b60408301525092915050565b6000606082840312156130cb576130ca612e4e565b5b6130d56060612ec4565b9050600082013567ffffffffffffffff8111156130f5576130f4612edf565b5b61310184828501613035565b600083015250602082013567ffffffffffffffff81111561312557613124612edf565b5b61313184828501613035565b602083015250604082013567ffffffffffffffff81111561315557613154612edf565b5b61316184828501613035565b60408301525092915050565b6000806040838503121561318457613183612de1565b5b600061319285828601612e0c565b925050602083013567ffffffffffffffff8111156131b3576131b2612de6565b5b6131bf858286016130b5565b9150509250929050565b60006131d482612ee4565b9050919050565b6131e4816131c9565b82525050565b60006020820190506131ff60008301846131db565b92915050565b60008115159050919050565b61321a81613205565b82525050565b60006020820190506132356000830184613211565b92915050565b600061ffff82169050919050565b6132528161323b565b811461325d57600080fd5b50565b60008135905061326f81613249565b92915050565b6000806040838503121561328c5761328b612de1565b5b600061329a85828601612e0c565b92505060206132ab85828601613260565b9150509250929050565b6132be816131c9565b81146132c957600080fd5b50565b6000813590506132db816132b5565b92915050565b600060a082840312156132f7576132f6612e4e565b5b61330160a0612ec4565b9050600061331184828501613260565b600083015250602061332584828501612f66565b6020830152506040613339848285016132cc565b604083015250606061334d84828501612e0c565b606083015250608082013567ffffffffffffffff81111561337157613370612edf565b5b61337d84828501613007565b60808301525092915050565b600080604083850312156133a05761339f612de1565b5b60006133ae85828601612e0c565b925050602083013567ffffffffffffffff8111156133cf576133ce612de6565b5b6133db858286016132e1565b9150509250929050565b600081519050919050565b600082825260208201905092915050565b6000819050602082019050919050565b61341a81612deb565b82525050565b6134298161323b565b82525050565b61343881613205565b82525050565b6060820160008201516134546000850182613411565b5060208201516134676020850182613420565b50604082015161347a604085018261342f565b50505050565b600061348c838361343e565b60608301905092915050565b6000602082019050919050565b60006134b0826133e5565b6134ba81856133f0565b93506134c583613401565b8060005b838110156134f65781516134dd8882613480565b97506134e883613498565b9250506001810190506134c9565b5085935050505092915050565b6000602082019050818103600083015261351d81846134a5565b905092915050565b60006020828403121561353b5761353a612de1565b5b6000613549848285016132cc565b91505092915050565b600081519050919050565b600082825260208201905092915050565b6000819050602082019050919050565b604082016000820151613594600085018261342f565b5060208201516135a7602085018261342f565b50505050565b6020820160008201516135c3600085018261342f565b50505050565b6020820160008201516135df600085018261342f565b50505050565b6040820160008201516135fb600085018261342f565b50602082015161360e602085018261342f565b50505050565b60208201600082015161362a600085018261342f565b50505050565b61363981612f04565b82525050565b61364881612f42565b82525050565b600081519050919050565b600082825260208201905092915050565b60005b8381101561368857808201518184015260208101905061366d565b83811115613697576000848401525b50505050565b60006136a88261364e565b6136b28185613659565b93506136c281856020860161366a565b6136cb81612e53565b840191505092915050565b60006060830160008301516136ee6000860182613630565b506020830151613701602086018261363f565b5060408301518482036040860152613719828261369d565b9150508091505092915050565b6000606083016000830151848203600086015261374382826136d6565b9150506020830151848203602086015261375d82826136d6565b9150506040830151848203604086015261377782826136d6565b9150508091505092915050565b60006101808301600083015161379d6000860182613411565b5060208301516137b0602086018261342f565b5060408301516137c3604086018261357e565b5060608301516137d660808601826135ad565b5060808301516137e960a08601826135c9565b5060a08301516137fc60c08601826135e5565b5060c0830151613810610100860182613614565b5060e0830151613824610120860182613420565b50610100830151613839610140860182613420565b506101208301518482036101608601526138538282613726565b9150508091505092915050565b600061386c8383613784565b905092915050565b6000602082019050919050565b600061388c82613552565b613896818561355d565b9350836020820285016138a88561356e565b8060005b858110156138e457848403895281516138c58582613860565b94506138d083613874565b925060208a019950506001810190506138ac565b50829750879550505050505092915050565b600060208201905081810360008301526139108184613881565b905092915050565b600082825260208201905092915050565b7f54686520737570706c7920636861696e206d757374206265207374617274656460008201527f206265666f7265206d61726b696e672074686520616e696d616c20617320707260208201527f6f63657373656400000000000000000000000000000000000000000000000000604082015250565b60006139ab604783613918565b91506139b682613929565b606082019050919050565b600060208201905081810360008301526139da8161399e565b9050919050565b7f4f6e6c792074686520627574636865722063616e206d61726b2074686520616e60008201527f696d616c2061732070726f636573736564000000000000000000000000000000602082015250565b6000613a3d603183613918565b9150613a48826139e1565b604082019050919050565b60006020820190508181036000830152613a6c81613a30565b9050919050565b7f54686520616e696d616c206d7573742062652064656c6976657265642062656660008201527f6f7265206265696e672070726f63657373656400000000000000000000000000602082015250565b6000613acf603383613918565b9150613ada82613a73565b604082019050919050565b60006020820190508181036000830152613afe81613ac2565b9050919050565b7f54686520616e696d616c20697320616c72656164792070726f63657373656400600082015250565b6000613b3b601f83613918565b9150613b4682613b05565b602082019050919050565b60006020820190508181036000830152613b6a81613b2e565b9050919050565b613b7a81612deb565b82525050565b7f6275746368657200000000000000000000000000000000000000000000000000600082015250565b6000613bb6600783613918565b9150613bc182613b80565b602082019050919050565b6000606082019050613be16000830185613b71565b8181036020830152613bf281613ba9565b9050613c0160408301846131db565b9392505050565b7f4f6e6c79207468652063726f776466756e64696e6720636f6e7472616374206360008201527f616e20637265617465206120737570706c7920636861696e0000000000000000602082015250565b6000613c64603883613918565b9150613c6f82613c08565b604082019050919050565b60006020820190508181036000830152613c9381613c57565b9050919050565b7f4e487b7100000000000000000000000000000000000000000000000000000000600052601160045260246000fd5b6000613cd482612deb565b91507fffffffffffffffffffffffffffffffffffffffffffffffffffffffffffffffff8203613d0657613d05613c9a565b5b600182019050919050565b6000602082019050613d266000830184613b71565b92915050565b7f4f6e6c79207468652063726f776466756e64696e6720636f6e7472616374206360008201527f616e207374617274206120737570706c7920636861696e000000000000000000602082015250565b6000613d88603783613918565b9150613d9382613d2c565b604082019050919050565b60006020820190508181036000830152613db781613d7b565b9050919050565b7f54686520737570706c7920636861696e20697320616c7265616479207374617260008201527f7465640000000000000000000000000000000000000000000000000000000000602082015250565b6000613e1a602383613918565b9150613e2582613dbe565b604082019050919050565b60006020820190508181036000830152613e4981613e0d565b9050919050565b7f54686520737570706c7920636861696e206d757374206265207374617274656460008201527f206265666f7265206d61726b696e672074686520616e696d616c20617320646560208201527f6c69766572656400000000000000000000000000000000000000000000000000604082015250565b6000613ed2604783613918565b9150613edd82613e50565b606082019050919050565b60006020820190508181036000830152613f0181613ec5565b9050919050565b7f4f6e6c7920746865206661726d657220616e642074686520627574636865722060008201527f63616e206d61726b2074686520616e696d616c2061732064656c697665726564602082015250565b6000613f64604083613918565b9150613f6f82613f08565b604082019050919050565b60006020820190508181036000830152613f9381613f57565b9050919050565b7f54686520616e696d616c20697320616c72656164792064656c69766572656400600082015250565b6000613fd0601f83613918565b9150613fdb82613f9a565b602082019050919050565b60006020820190508181036000830152613fff81613fc3565b9050919050565b7f54686520616e696d616c20697320616c7265616479206d61726b65642061732060008201527f64656c6976657265642066726f6d20746865206661726d657200000000000000602082015250565b6000614062603983613918565b915061406d82614006565b604082019050919050565b6000602082019050818103600083015261409181614055565b9050919050565b7f6661726d65720000000000000000000000000000000000000000000000000000600082015250565b60006140ce600683613918565b91506140d982614098565b602082019050919050565b60006060820190506140f96000830185613b71565b818103602083015261410a816140c1565b905061411960408301846131db565b9392505050565b7f54686520616e696d616c20697320616c7265616479206d61726b65642061732060008201527f64656c6976657265642066726f6d207468652062757463686572000000000000602082015250565b600061417c603a83613918565b915061418782614120565b604082019050919050565b600060208201905081810360008301526141ab8161416f565b9050919050565b7f4e487b7100000000000000000000000000000000000000000000000000000000600052602260045260246000fd5b600060028204905060018216806141f957607f821691505b60208210810361420c5761420b6141b2565b5b50919050565b7f54686520737570706c7920636861696e206d757374206265207374617274656460008201527f206265666f7265206d61726b696e67206120626f782061732064656c6976657260208201527f6564000000000000000000000000000000000000000000000000000000000000604082015250565b6000614294604283613918565b915061429f82614212565b606082019050919050565b600060208201905081810360008301526142c381614287565b9050919050565b7f4f6e6c79207468652064656c697665727920736572766963652063616e206d6160008201527f726b206120626f782061732064656c6976657265640000000000000000000000602082015250565b6000614326603583613918565b9150614331826142ca565b604082019050919050565b6000602082019050818103600083015261435581614319565b9050919050565b7f426f786573206d757374206265206469737472696275746564206265666f726560008201527f206265696e672064656c69766572656400000000000000000000000000000000602082015250565b60006143b8603083613918565b91506143c38261435c565b604082019050919050565b600060208201905081810360008301526143e7816143ab565b9050919050565b7f54686520626f7820697320616c72656164792064656c69766572656400000000600082015250565b6000614424601c83613918565b915061442f826143ee565b602082019050919050565b6000602082019050818103600083015261445381614417565b9050919050565b60006144658261323b565b915061ffff820361447957614478613c9a565b5b600182019050919050565b61448d8161323b565b82525050565b7f64656c6976657279000000000000000000000000000000000000000000000000600082015250565b60006144c9600883613918565b91506144d482614493565b602082019050919050565b60006080820190506144f46000830186613b71565b6145016020830185614484565b8181036040830152614512816144bc565b905061452160608301846131db565b949350505050565b600060608201905061453e6000830185613b71565b818103602083015261454f816144bc565b905061455e60408301846131db565b9392505050565b7f4f6e6c79207468652063726f776466756e64696e6720636f6e7472616374206360008201527f616e20616464206120626f7820746f206120737570706c7920636861696e0000602082015250565b60006145c1603e83613918565b91506145cc82614565565b604082019050919050565b600060208201905081810360008301526145f0816145b4565b9050919050565b600060408201905061460c6000830185613b71565b6146196020830184614484565b9392505050565b7f4e487b7100000000000000000000000000000000000000000000000000000000600052603260045260246000fd5b7f54686520737570706c7920636861696e206d757374206265207374617274656460008201527f206265666f7265206d61726b696e67206120626f782061732070726f6365737360208201527f6564000000000000000000000000000000000000000000000000000000000000604082015250565b60006146d1604283613918565b91506146dc8261464f565b606082019050919050565b60006020820190508181036000830152614700816146c4565b9050919050565b7f4f6e6c792074686520627574636865722063616e206d61726b206120626f782060008201527f61732070726f6365737365640000000000000000000000000000000000000000602082015250565b6000614763602c83613918565b915061476e82614707565b604082019050919050565b6000602082019050818103600083015261479281614756565b9050919050565b7f54686520616e696d616c206d7573742062652070726f6365737365642062656660008201527f6f726520707265706172696e6720626f78657300000000000000000000000000602082015250565b60006147f5603383613918565b915061480082614799565b604082019050919050565b60006020820190508181036000830152614824816147e8565b9050919050565b7f54686520626f7865732061726520616c72656164792070726f63657373656400600082015250565b6000614861601f83613918565b915061486c8261482b565b602082019050919050565b6000602082019050818103600083015261489081614854565b9050919050565b7f54686520737570706c7920636861696e206d757374206265207374617274656460008201527f206265666f7265206d61726b696e67206120626f78206173206469737472696260208201527f7574656400000000000000000000000000000000000000000000000000000000604082015250565b6000614919604483613918565b915061492482614897565b606082019050919050565b600060208201905081810360008301526149488161490c565b9050919050565b7f4f6e6c7920746865206275746368657220616e64207468652064656c6976657260008201527f7920736572766963652063616e206d61726b206120626f78206173206469737460208201527f7269627574656400000000000000000000000000000000000000000000000000604082015250565b60006149d1604783613918565b91506149dc8261494f565b606082019050919050565b60006020820190508181036000830152614a00816149c4565b9050919050565b7f426f786573206d757374206265207072657061726564206265666f726520626560008201527f696e672064697374726962757465640000000000000000000000000000000000602082015250565b6000614a63602f83613918565b9150614a6e82614a07565b604082019050919050565b60006020820190508181036000830152614a9281614a56565b9050919050565b7f54686520626f7865732061726520616c7265616479206469737472696275746560008201527f6400000000000000000000000000000000000000000000000000000000000000602082015250565b6000614af5602183613918565b9150614b0082614a99565b604082019050919050565b60006020820190508181036000830152614b2481614ae8565b9050919050565b7f54686520626f7865732061726520616c7265616479206d61726b65642061732060008201527f64697374726962757465642066726f6d20746865206275746368657200000000602082015250565b6000614b87603c83613918565b9150614b9282614b2b565b604082019050919050565b60006020820190508181036000830152614bb681614b7a565b9050919050565b7f54686520626f7865732061726520616c7265616479206d61726b65642061732060008201527f64697374726962757465642066726f6d207468652064656c697665727920736560208201527f7276696365000000000000000000000000000000000000000000000000000000604082015250565b6000614c3f604583613918565b9150614c4a82614bbd565b606082019050919050565b60006020820190508181036000830152614c6e81614c32565b905091905056fea26469706673582212206ca1b3efa274dae4594fe8451d33fa25273a11c12ea8be93d436778977a727d864736f6c634300080d0033",
  "immutableReferences": {},
  "source": "// SPDX-License-Identifier: AGPL\npragma solidity ^0.8.13;\n\nimport \"./SupplyChainsTypes.sol\";\nimport \"./CrowdfundingTypes.sol\";\nimport \"./Crowdfunding.sol\";\n\ncontract SupplyChains {\n  // address of the crowdfunding contract\n  address public crowdfundingAddress;\n\n  mapping(uint256 => SupplyChain) supplychains;\n\n  mapping(uint256 => mapping(uint16 => BoxStatus)) boxesStatus;\n\n  uint256 NumberOfSupplyChains = 0;\n\n  // Add the address of the crowdfunding contract\n  function setCrowdfundingAddress(address _crowdfundingAddress) public {\n    crowdfundingAddress = _crowdfundingAddress;\n  }\n\n  // Events\n  event SupplyChainCreated(uint256 campaignRef);\n  event NewBox(uint256 campaignRef, uint16 SellRefId);\n  event SupplyChainStarted(uint256 campaignRef);\n  event AnimalMarkedAsDelivered(uint256 campaignRef, string user, address userAddress);\n  event AnimalMarkedAsProcessed(uint256 campaignRef, string user, address userAddress);\n  event BoxesMarkedAsProcessed(uint256 campaignRef, string user, address userAddress);\n  event BoxesMarkedAsDistributed(uint256 campaignRef, string user, address userAddress);\n  event BoxMarkedAsDelivered(uint256 campaignRef, uint16 boxId, string user, address userAddress);\n  event BoxesMarkedAsDelivered(uint256 campaignRef, string user, address userAddress);\n\n  /**\n  * Create a supply chain related to a campaign\n  */\n  function createSupplyChain(uint256 _campaignRef, StakeholderList memory _stakeholders) external {\n    require(msg.sender == crowdfundingAddress, \"Only the crowdfunding contract can create a supply chain\");\n\n    SupplyChain storage supplychain = supplychains[_campaignRef];\n\n    supplychain.campaignRef = _campaignRef;\n    supplychain.isStarted = false;\n    supplychain.isAnimalDelivered.butcher = false;\n    supplychain.isAnimalDelivered.farmer = false;\n    supplychain.isAnimalProcessed.butcher = false;\n    supplychain.areBoxesProcessed.butcher = false;\n    supplychain.areBoxesDistributed.butcher = false;\n    supplychain.areBoxesDistributed.delivery = false;\n    supplychain.areBoxesDelivered.delivery = false;\n    supplychain.totalBoxes = 0;\n    supplychain.deliveredBoxes = 0;\n\n    // import stakeholders from campaign\n    supplychain.stakeholders = _stakeholders;\n\n    NumberOfSupplyChains++;\n\n    emit SupplyChainCreated(supplychain.campaignRef);\n  }\n\n  /**\n  * Add a sold box to a supply chain\n  */\n  function addBox(uint256 _campaignRef, BoxSellRef memory _box) external {\n    require(msg.sender == crowdfundingAddress, \"Only the crowdfunding contract can add a box to a supply chain\");\n\n    SupplyChain storage supplychain = supplychains[_campaignRef];\n\n    boxesStatus[_campaignRef][_box.id].campaignRef = _campaignRef;\n    boxesStatus[_campaignRef][_box.id].boxId = _box.id;\n    boxesStatus[_campaignRef][_box.id].isDelivered = false;\n\n    supplychain.totalBoxes++;\n\n    emit NewBox(_campaignRef, _box.id);\n  }\n  \n  /**\n  * Mark a supply chain as started\n  */\n  function startSupplyChain(uint256 _campaignRef) external {\n    require(msg.sender == crowdfundingAddress, \"Only the crowdfunding contract can start a supply chain\");\n    \n    SupplyChain storage supplychain = supplychains[_campaignRef];\n\n    require(!supplychain.isStarted, \"The supply chain is already started\");\n    supplychain.isStarted = true;\n    emit SupplyChainStarted(_campaignRef);\n  }\n\n  /**\n  * Returns all supply chains\n  */\n  function getSupplyChains() public view returns (SupplyChain[] memory) {\n    SupplyChain[] memory allSupplychains = new SupplyChain[](NumberOfSupplyChains);\n    for (uint256 index = 0; index < NumberOfSupplyChains; index++) {\n      SupplyChain storage supplychain = supplychains[index];\n      allSupplychains[index] = supplychain;\n    }\n    return allSupplychains;\n  }\n\n  /**\n  * Returns all boxes status of a specific campaign\n  */\n  function getBoxesStatus(uint256 _campaignRef) public view returns (BoxStatus[] memory) {\n    SupplyChain memory supplychain = supplychains[_campaignRef];\n    BoxStatus[] memory boxesStatuses = new BoxStatus[](supplychain.totalBoxes);\n    for (uint16 index = 0; index < supplychain.totalBoxes; index++) {\n      boxesStatuses[index] = boxesStatus[_campaignRef][index];\n    }\n    return boxesStatuses;\n  }\n\n  /**\n  * Mark the animal of a campaign as delivered (to the butcher)\n  */\n  function markAnimalAsDelivered(uint256 _campaignRef) public {\n    SupplyChain storage supplychain = supplychains[_campaignRef];\n    require(supplychain.isStarted, \"The supply chain must be started before marking the animal as delivered\");\n    require(\n      (msg.sender == supplychain.stakeholders.farmer.owner) || (msg.sender == supplychain.stakeholders.butcher.owner),\n      \"Only the farmer and the butcher can mark the animal as delivered\"\n    );\n    require(!supplychain.isAnimalDelivered.farmer || !supplychain.isAnimalDelivered.butcher, \"The animal is already delivered\");\n\n    if (msg.sender == supplychain.stakeholders.farmer.owner) {\n      require(!supplychain.isAnimalDelivered.farmer, \"The animal is already marked as delivered from the farmer\");\n\n      supplychain.isAnimalDelivered.farmer = true;\n      emit AnimalMarkedAsDelivered(_campaignRef, \"farmer\", msg.sender);\n    }\n    if (msg.sender == supplychain.stakeholders.butcher.owner) {\n      require(!supplychain.isAnimalDelivered.butcher, \"The animal is already marked as delivered from the butcher\");\n\n      supplychain.isAnimalDelivered.butcher = true;\n      emit AnimalMarkedAsDelivered(_campaignRef, \"butcher\", msg.sender);\n    }\n  }\n\n  /**\n  * Mark the animal as processed by the butcher\n  */\n  function markAnimalAsProcessed(uint256 _campaignRef) public {\n    SupplyChain storage supplychain = supplychains[_campaignRef];\n\n    require(supplychain.isStarted, \"The supply chain must be started before marking the animal as processed\");\n    require(msg.sender == supplychain.stakeholders.butcher.owner, \"Only the butcher can mark the animal as processed\");\n    require((supplychain.isAnimalDelivered.butcher && supplychain.isAnimalDelivered.farmer), \"The animal must be delivered before being processed\");\n    require(!supplychain.isAnimalProcessed.butcher, \"The animal is already processed\");\n\n    supplychain.isAnimalProcessed.butcher = true;\n    emit AnimalMarkedAsProcessed(_campaignRef, \"butcher\", msg.sender);\n  }\n\n  /**\n  * Mark boxes as processed by the butcher\n  */\n  function markBoxesAsProcessed(uint256 _campaignRef) public {\n    SupplyChain storage supplychain = supplychains[_campaignRef];\n\n    require(supplychain.isStarted, \"The supply chain must be started before marking a box as processed\");\n    require(msg.sender == supplychain.stakeholders.butcher.owner, \"Only the butcher can mark a box as processed\");\n    require(supplychain.isAnimalProcessed.butcher, \"The animal must be processed before preparing boxes\");\n    require(!supplychain.areBoxesProcessed.butcher, \"The boxes are already processed\");\n\n    supplychain.areBoxesProcessed.butcher = true;\n    emit BoxesMarkedAsProcessed(_campaignRef, \"butcher\", msg.sender);\n  }\n\n  /**\n  * Mark boxes as distributed from the butcher to the delivery service\n  */\n  function markBoxesAsDistributed(uint256 _campaignRef) public {\n    SupplyChain storage supplychain = supplychains[_campaignRef];\n\n    require(supplychain.isStarted, \"The supply chain must be started before marking a box as distributed\");\n    require(\n      (msg.sender == supplychain.stakeholders.delivery.owner) || (msg.sender == supplychain.stakeholders.butcher.owner),\n      \"Only the butcher and the delivery service can mark a box as distributed\");\n    require(supplychain.areBoxesProcessed.butcher, \"Boxes must be prepared before being distributed\");\n    require(\n      (!supplychain.areBoxesDistributed.butcher || !supplychain.areBoxesDistributed.delivery),\n      \"The boxes are already distributed\");\n\n    if (msg.sender == supplychain.stakeholders.butcher.owner) {\n      require(!supplychain.areBoxesDistributed.butcher, \"The boxes are already marked as distributed from the butcher\");\n\n      supplychain.areBoxesDistributed.butcher = true;\n      emit BoxesMarkedAsDistributed(_campaignRef, \"butcher\", msg.sender);\n    }\n\n    if (msg.sender == supplychain.stakeholders.delivery.owner) {\n      require(!supplychain.areBoxesDistributed.delivery, \"The boxes are already marked as distributed from the delivery service\");\n\n      supplychain.areBoxesDistributed.delivery = true;\n      emit BoxesMarkedAsDistributed(_campaignRef, \"delivery\", msg.sender);\n    }\n  }\n\n  /**\n  * Mark a box as delivered by the delivery service\n  */\n  function markBoxAsDelivered(uint256 _campaignRef, uint16 _boxId) public {\n    SupplyChain storage supplychain = supplychains[_campaignRef];\n\n    require(supplychain.isStarted, \"The supply chain must be started before marking a box as delivered\");\n    require(msg.sender == supplychain.stakeholders.delivery.owner, \"Only the delivery service can mark a box as delivered\");\n    require(\n      supplychain.areBoxesDistributed.butcher && supplychain.areBoxesDistributed.delivery,\n      \"Boxes must be distributed before being delivered\");\n    require(!boxesStatus[_campaignRef][_boxId].isDelivered, \"The box is already delivered\");\n\n    boxesStatus[_campaignRef][_boxId].isDelivered = true;\n\n    supplychain.deliveredBoxes++;\n    emit BoxMarkedAsDelivered(_campaignRef, _boxId, \"delivery\", msg.sender);\n\n    if(supplychain.totalBoxes == supplychain.deliveredBoxes) {\n      supplychain.areBoxesDelivered.delivery = true;\n      emit BoxesMarkedAsDelivered(_campaignRef, \"delivery\", msg.sender);\n\n      Crowdfunding(crowdfundingAddress).payOut(_campaignRef);\n    }\n  }\n\n  /**\n  * Check if the supply chain is completed\n  */\n  function isCompleted(uint256 _campaignRef) external view returns (bool) {\n    SupplyChain memory supplychain = supplychains[_campaignRef];\n    return (\n      supplychain.isAnimalDelivered.farmer &&\n      supplychain.isAnimalDelivered.butcher &&\n      supplychain.isAnimalProcessed.butcher &&\n      supplychain.areBoxesProcessed.butcher &&\n      supplychain.areBoxesDistributed.butcher &&\n      supplychain.areBoxesDistributed.delivery &&\n      supplychain.areBoxesDelivered.delivery);\n  }\n}\n",
  "sourcePath": "/Users/cassolseba/VSCode/blockchain/146157_Blockchain/smart_contracts/contracts/SupplyChains.sol",
  "compiler": {
    "name": "solc",
    "version": "0.8.13+commit.abaa5c0e.Emscripten.clang"
  },
  "schemaVersion": "3.4.14",
  "updatedAt": "2023-08-19T09:32:17.994Z",
  "devdoc": {
    "kind": "dev",
    "methods": {},
    "version": 1
  },
  "userdoc": {
    "kind": "user",
    "methods": {
      "addBox(uint256,(uint16,uint8,address,uint256,string))": {
        "notice": "Add a sold box to a supply chain"
      },
      "createSupplyChain(uint256,((address,uint8,string),(address,uint8,string),(address,uint8,string)))": {
        "notice": "Create a supply chain related to a campaign"
      },
      "getBoxesStatus(uint256)": {
        "notice": "Returns all boxes status of a specific campaign"
      },
      "getSupplyChains()": {
        "notice": "Returns all supply chains"
      },
      "isCompleted(uint256)": {
        "notice": "Check if the supply chain is completed"
      },
      "markAnimalAsDelivered(uint256)": {
        "notice": "Mark the animal of a campaign as delivered (to the butcher)"
      },
      "markAnimalAsProcessed(uint256)": {
        "notice": "Mark the animal as processed by the butcher"
      },
      "markBoxAsDelivered(uint256,uint16)": {
        "notice": "Mark a box as delivered by the delivery service"
      },
      "markBoxesAsDistributed(uint256)": {
        "notice": "Mark boxes as distributed from the butcher to the delivery service"
      },
      "markBoxesAsProcessed(uint256)": {
        "notice": "Mark boxes as processed by the butcher"
      },
      "startSupplyChain(uint256)": {
        "notice": "Mark a supply chain as started"
      }
    },
    "version": 1
  }
}