{
  "contractName": "SupplyChains",
  "abi": [
    {
      "inputs": [],
      "name": "NumberOfSupplyChains",
      "outputs": [
        {
          "internalType": "uint256",
          "name": "",
          "type": "uint256"
        }
      ],
      "stateMutability": "view",
      "type": "function"
    },
    {
      "inputs": [
        {
          "internalType": "uint256",
          "name": "",
          "type": "uint256"
        }
      ],
      "name": "supplychains",
      "outputs": [
        {
          "internalType": "uint256",
          "name": "campaignRef",
          "type": "uint256"
        },
        {
          "components": [
            {
              "internalType": "bool",
              "name": "farmer",
              "type": "bool"
            },
            {
              "internalType": "bool",
              "name": "butcher",
              "type": "bool"
            }
          ],
          "internalType": "struct AnimalDeliverStatus",
          "name": "isAnimalDelivered",
          "type": "tuple"
        },
        {
          "components": [
            {
              "internalType": "bool",
              "name": "butcher",
              "type": "bool"
            }
          ],
          "internalType": "struct AnimalProcessStatus",
          "name": "isAnimalProcessed",
          "type": "tuple"
        },
        {
          "components": [
            {
              "internalType": "bool",
              "name": "butcher",
              "type": "bool"
            }
          ],
          "internalType": "struct BoxProcessStatus",
          "name": "areBoxesProcessed",
          "type": "tuple"
        },
        {
          "components": [
            {
              "internalType": "bool",
              "name": "butcher",
              "type": "bool"
            },
            {
              "internalType": "bool",
              "name": "delivery",
              "type": "bool"
            }
          ],
          "internalType": "struct BoxDistributionStatus",
          "name": "areBoxesDistributed",
          "type": "tuple"
        },
        {
          "components": [
            {
              "internalType": "bool",
              "name": "delivery",
              "type": "bool"
            }
          ],
          "internalType": "struct BoxDeliverStatus",
          "name": "areBoxesDelivered",
          "type": "tuple"
        },
        {
          "internalType": "uint256",
          "name": "totalBoxes",
          "type": "uint256"
        },
        {
          "internalType": "uint256",
          "name": "processedBoxes",
          "type": "uint256"
        },
        {
          "internalType": "uint256",
          "name": "distributedBoxes",
          "type": "uint256"
        },
        {
          "internalType": "uint256",
          "name": "deliveredBoxes",
          "type": "uint256"
        },
        {
          "components": [
            {
              "components": [
                {
                  "internalType": "address payable",
                  "name": "owner",
                  "type": "address"
                },
                {
                  "internalType": "uint8",
                  "name": "share",
                  "type": "uint8"
                },
                {
                  "internalType": "string",
                  "name": "info",
                  "type": "string"
                }
              ],
              "internalType": "struct Stakeholder",
              "name": "farmer",
              "type": "tuple"
            },
            {
              "components": [
                {
                  "internalType": "address payable",
                  "name": "owner",
                  "type": "address"
                },
                {
                  "internalType": "uint8",
                  "name": "share",
                  "type": "uint8"
                },
                {
                  "internalType": "string",
                  "name": "info",
                  "type": "string"
                }
              ],
              "internalType": "struct Stakeholder",
              "name": "butcher",
              "type": "tuple"
            },
            {
              "components": [
                {
                  "internalType": "address payable",
                  "name": "owner",
                  "type": "address"
                },
                {
                  "internalType": "uint8",
                  "name": "share",
                  "type": "uint8"
                },
                {
                  "internalType": "string",
                  "name": "info",
                  "type": "string"
                }
              ],
              "internalType": "struct Stakeholder",
              "name": "delivery",
              "type": "tuple"
            }
          ],
          "internalType": "struct StakeholderList",
          "name": "stakeholders",
          "type": "tuple"
        }
      ],
      "stateMutability": "view",
      "type": "function"
    },
    {
      "inputs": [
        {
          "components": [
            {
              "internalType": "uint256",
              "name": "id",
              "type": "uint256"
            },
            {
              "components": [
                {
                  "internalType": "string",
                  "name": "title",
                  "type": "string"
                },
                {
                  "internalType": "string",
                  "name": "description",
                  "type": "string"
                },
                {
                  "internalType": "uint256",
                  "name": "deadline",
                  "type": "uint256"
                }
              ],
              "internalType": "struct CampaignInfo",
              "name": "info",
              "type": "tuple"
            },
            {
              "components": [
                {
                  "internalType": "uint256",
                  "name": "collectedAmount",
                  "type": "uint256"
                },
                {
                  "internalType": "uint256",
                  "name": "createdAt",
                  "type": "uint256"
                },
                {
                  "internalType": "uint256",
                  "name": "totalBoxes",
                  "type": "uint256"
                },
                {
                  "internalType": "uint256",
                  "name": "boxesSold",
                  "type": "uint256"
                },
                {
                  "internalType": "uint256",
                  "name": "totalBoxTypes",
                  "type": "uint256"
                },
                {
                  "internalType": "bool",
                  "name": "isStopped",
                  "type": "bool"
                }
              ],
              "internalType": "struct CampaignMeta",
              "name": "meta",
              "type": "tuple"
            },
            {
              "components": [
                {
                  "internalType": "address",
                  "name": "owner",
                  "type": "address"
                },
                {
                  "internalType": "string",
                  "name": "ownerPublicKey",
                  "type": "string"
                }
              ],
              "internalType": "struct CampaignOwner",
              "name": "owner",
              "type": "tuple"
            },
            {
              "components": [
                {
                  "internalType": "string",
                  "name": "earTag",
                  "type": "string"
                },
                {
                  "internalType": "string",
                  "name": "name",
                  "type": "string"
                },
                {
                  "internalType": "string",
                  "name": "farm",
                  "type": "string"
                },
                {
                  "internalType": "uint8",
                  "name": "age",
                  "type": "uint8"
                }
              ],
              "internalType": "struct CampaignAnimalData",
              "name": "animal",
              "type": "tuple"
            },
            {
              "components": [
                {
                  "components": [
                    {
                      "internalType": "address payable",
                      "name": "owner",
                      "type": "address"
                    },
                    {
                      "internalType": "uint8",
                      "name": "share",
                      "type": "uint8"
                    },
                    {
                      "internalType": "string",
                      "name": "info",
                      "type": "string"
                    }
                  ],
                  "internalType": "struct Stakeholder",
                  "name": "farmer",
                  "type": "tuple"
                },
                {
                  "components": [
                    {
                      "internalType": "address payable",
                      "name": "owner",
                      "type": "address"
                    },
                    {
                      "internalType": "uint8",
                      "name": "share",
                      "type": "uint8"
                    },
                    {
                      "internalType": "string",
                      "name": "info",
                      "type": "string"
                    }
                  ],
                  "internalType": "struct Stakeholder",
                  "name": "butcher",
                  "type": "tuple"
                },
                {
                  "components": [
                    {
                      "internalType": "address payable",
                      "name": "owner",
                      "type": "address"
                    },
                    {
                      "internalType": "uint8",
                      "name": "share",
                      "type": "uint8"
                    },
                    {
                      "internalType": "string",
                      "name": "info",
                      "type": "string"
                    }
                  ],
                  "internalType": "struct Stakeholder",
                  "name": "delivery",
                  "type": "tuple"
                }
              ],
              "internalType": "struct StakeholderList",
              "name": "stakeholders",
              "type": "tuple"
            }
          ],
          "internalType": "struct Campaign",
          "name": "_campaign",
          "type": "tuple"
        },
        {
          "components": [
            {
              "internalType": "uint256",
              "name": "id",
              "type": "uint256"
            },
            {
              "internalType": "uint256",
              "name": "boxId",
              "type": "uint256"
            },
            {
              "internalType": "address",
              "name": "owner",
              "type": "address"
            },
            {
              "internalType": "uint256",
              "name": "boughtAt",
              "type": "uint256"
            },
            {
              "internalType": "string",
              "name": "physAddress",
              "type": "string"
            }
          ],
          "internalType": "struct BoxSellRef[]",
          "name": "_boxes",
          "type": "tuple[]"
        }
      ],
      "name": "StartSupplyChain",
      "outputs": [],
      "stateMutability": "nonpayable",
      "type": "function"
    },
    {
      "inputs": [
        {
          "internalType": "uint256",
          "name": "_campaignId",
          "type": "uint256"
        }
      ],
      "name": "markAnimalAsDelivered",
      "outputs": [],
      "stateMutability": "nonpayable",
      "type": "function"
    },
    {
      "inputs": [
        {
          "internalType": "uint256",
          "name": "_campaignId",
          "type": "uint256"
        }
      ],
      "name": "markAnimalAsProcessed",
      "outputs": [],
      "stateMutability": "nonpayable",
      "type": "function"
    },
    {
      "inputs": [
        {
          "internalType": "uint256",
          "name": "_campaignId",
          "type": "uint256"
        },
        {
          "internalType": "uint256",
          "name": "_boxId",
          "type": "uint256"
        }
      ],
      "name": "markBoxAsProcessed",
      "outputs": [],
      "stateMutability": "nonpayable",
      "type": "function"
    },
    {
      "inputs": [
        {
          "internalType": "uint256",
          "name": "_campaignId",
          "type": "uint256"
        },
        {
          "internalType": "uint256",
          "name": "_boxId",
          "type": "uint256"
        }
      ],
      "name": "markBoxAsDistributed",
      "outputs": [],
      "stateMutability": "nonpayable",
      "type": "function"
    },
    {
      "inputs": [
        {
          "internalType": "uint256",
          "name": "_campaignId",
          "type": "uint256"
        },
        {
          "internalType": "uint256",
          "name": "_boxId",
          "type": "uint256"
        }
      ],
      "name": "markBoxAsDelivered",
      "outputs": [],
      "stateMutability": "nonpayable",
      "type": "function"
    },
    {
      "inputs": [
        {
          "internalType": "uint256",
          "name": "_campaignId",
          "type": "uint256"
        }
      ],
      "name": "isCompleted",
      "outputs": [
        {
          "internalType": "bool",
          "name": "",
          "type": "bool"
        }
      ],
      "stateMutability": "view",
      "type": "function"
    },
    {
      "inputs": [
        {
          "internalType": "uint256",
          "name": "_campaignId",
          "type": "uint256"
        }
      ],
      "name": "areBoxesProcessed",
      "outputs": [
        {
          "internalType": "bool",
          "name": "",
          "type": "bool"
        }
      ],
      "stateMutability": "view",
      "type": "function"
    },
    {
      "inputs": [
        {
          "internalType": "uint256",
          "name": "_campaignId",
          "type": "uint256"
        }
      ],
      "name": "areBoxesDistributedFromButcher",
      "outputs": [
        {
          "internalType": "bool",
          "name": "",
          "type": "bool"
        }
      ],
      "stateMutability": "view",
      "type": "function"
    },
    {
      "inputs": [
        {
          "internalType": "uint256",
          "name": "_campaignId",
          "type": "uint256"
        }
      ],
      "name": "areBoxesDistributedToDelivery",
      "outputs": [
        {
          "internalType": "bool",
          "name": "",
          "type": "bool"
        }
      ],
      "stateMutability": "view",
      "type": "function"
    },
    {
      "inputs": [
        {
          "internalType": "uint256",
          "name": "_campaignId",
          "type": "uint256"
        }
      ],
      "name": "areBoxesDelivered",
      "outputs": [
        {
          "internalType": "bool",
          "name": "",
          "type": "bool"
        }
      ],
      "stateMutability": "view",
      "type": "function"
    },
    {
      "inputs": [
        {
          "internalType": "uint256",
          "name": "_campaignId",
          "type": "uint256"
        }
      ],
      "name": "getSupplyChainById",
      "outputs": [
        {
          "components": [
            {
              "internalType": "uint256",
              "name": "campaignRef",
              "type": "uint256"
            },
            {
              "components": [
                {
                  "internalType": "bool",
                  "name": "farmer",
                  "type": "bool"
                },
                {
                  "internalType": "bool",
                  "name": "butcher",
                  "type": "bool"
                }
              ],
              "internalType": "struct AnimalDeliverStatus",
              "name": "isAnimalDelivered",
              "type": "tuple"
            },
            {
              "components": [
                {
                  "internalType": "bool",
                  "name": "butcher",
                  "type": "bool"
                }
              ],
              "internalType": "struct AnimalProcessStatus",
              "name": "isAnimalProcessed",
              "type": "tuple"
            },
            {
              "components": [
                {
                  "internalType": "bool",
                  "name": "butcher",
                  "type": "bool"
                }
              ],
              "internalType": "struct BoxProcessStatus",
              "name": "areBoxesProcessed",
              "type": "tuple"
            },
            {
              "components": [
                {
                  "internalType": "bool",
                  "name": "butcher",
                  "type": "bool"
                },
                {
                  "internalType": "bool",
                  "name": "delivery",
                  "type": "bool"
                }
              ],
              "internalType": "struct BoxDistributionStatus",
              "name": "areBoxesDistributed",
              "type": "tuple"
            },
            {
              "components": [
                {
                  "internalType": "bool",
                  "name": "delivery",
                  "type": "bool"
                }
              ],
              "internalType": "struct BoxDeliverStatus",
              "name": "areBoxesDelivered",
              "type": "tuple"
            },
            {
              "internalType": "uint256",
              "name": "totalBoxes",
              "type": "uint256"
            },
            {
              "internalType": "uint256",
              "name": "processedBoxes",
              "type": "uint256"
            },
            {
              "internalType": "uint256",
              "name": "distributedBoxes",
              "type": "uint256"
            },
            {
              "internalType": "uint256",
              "name": "deliveredBoxes",
              "type": "uint256"
            },
            {
              "components": [
                {
                  "components": [
                    {
                      "internalType": "address payable",
                      "name": "owner",
                      "type": "address"
                    },
                    {
                      "internalType": "uint8",
                      "name": "share",
                      "type": "uint8"
                    },
                    {
                      "internalType": "string",
                      "name": "info",
                      "type": "string"
                    }
                  ],
                  "internalType": "struct Stakeholder",
                  "name": "farmer",
                  "type": "tuple"
                },
                {
                  "components": [
                    {
                      "internalType": "address payable",
                      "name": "owner",
                      "type": "address"
                    },
                    {
                      "internalType": "uint8",
                      "name": "share",
                      "type": "uint8"
                    },
                    {
                      "internalType": "string",
                      "name": "info",
                      "type": "string"
                    }
                  ],
                  "internalType": "struct Stakeholder",
                  "name": "butcher",
                  "type": "tuple"
                },
                {
                  "components": [
                    {
                      "internalType": "address payable",
                      "name": "owner",
                      "type": "address"
                    },
                    {
                      "internalType": "uint8",
                      "name": "share",
                      "type": "uint8"
                    },
                    {
                      "internalType": "string",
                      "name": "info",
                      "type": "string"
                    }
                  ],
                  "internalType": "struct Stakeholder",
                  "name": "delivery",
                  "type": "tuple"
                }
              ],
              "internalType": "struct StakeholderList",
              "name": "stakeholders",
              "type": "tuple"
            }
          ],
          "internalType": "struct SupplyChain",
          "name": "",
          "type": "tuple"
        }
      ],
      "stateMutability": "view",
      "type": "function"
    },
    {
      "inputs": [
        {
          "internalType": "uint256",
          "name": "_campaignId",
          "type": "uint256"
        },
        {
          "internalType": "uint8",
          "name": "mode",
          "type": "uint8"
        }
      ],
      "name": "getBoxesStatus",
      "outputs": [
        {
          "internalType": "bool[]",
          "name": "",
          "type": "bool[]"
        }
      ],
      "stateMutability": "view",
      "type": "function"
    }
  ],
  "bytecode": "0x6080604052600060045534801561001557600080fd5b5061574480620000266000396000f3fe608060405234801561001057600080fd5b50600436106100f55760003560e01c80637a41984b11610097578063d1d9e7c011610066578063d1d9e7c014610292578063e7252434146102b0578063e9368de9146102e0578063f9df43461461031a576100f5565b80637a41984b146101e65780639295a9f714610216578063aab83dec14610246578063c58c782c14610276576100f5565b80633afe2109116100d35780633afe2109146101625780633d709a291461017e578063692799dc1461019a5780636f439b46146101ca576100f5565b80630aab769e146100fa578063154a9fe11461012a578063280f894914610146575b600080fd5b610114600480360381019061010f9190613f91565b61034a565b6040516101219190613fd9565b60405180910390f35b610144600480360381019061013f9190613f91565b610891565b005b610160600480360381019061015b9190613ff4565b6109d4565b005b61017c60048036038101906101779190613ff4565b610b80565b005b610198600480360381019061019391906148d3565b610f18565b005b6101b460048036038101906101af9190613f91565b6113d3565b6040516101c19190613fd9565b60405180910390f35b6101e460048036038101906101df9190613f91565b61191a565b005b61020060048036038101906101fb9190613f91565b611b2d565b60405161020d9190613fd9565b60405180910390f35b610230600480360381019061022b9190613f91565b612079565b60405161023d9190613fd9565b60405180910390f35b610260600480360381019061025b9190613f91565b6125c0565b60405161026d9190614c60565b60405180910390f35b610290600480360381019061028b9190613ff4565b612a9f565b005b61029a612c2e565b6040516102a79190614c91565b60405180910390f35b6102ca60048036038101906102c59190613f91565b612c34565b6040516102d79190613fd9565b60405180910390f35b6102fa60048036038101906102f59190613f91565b61317b565b6040516103119b9a99989796959493929190614dbc565b60405180910390f35b610334600480360381019061032f9190614e70565b613619565b6040516103419190614f5f565b60405180910390f35b6000806000808481526020019081526020016000206040518061016001604052908160008201548152602001600182016040518060400160405290816000820160009054906101000a900460ff161515151581526020016000820160019054906101000a900460ff1615151515815250508152602001600282016040518060200160405290816000820160009054906101000a900460ff1615151515815250508152602001600382016040518060200160405290816000820160009054906101000a900460ff1615151515815250508152602001600482016040518060400160405290816000820160009054906101000a900460ff161515151581526020016000820160019054906101000a900460ff1615151515815250508152602001600582016040518060200160405290816000820160009054906101000a900460ff161515151581525050815260200160068201548152602001600782015481526020016008820154815260200160098201548152602001600a8201604051806060016040529081600082016040518060600160405290816000820160009054906101000a900473ffffffffffffffffffffffffffffffffffffffff1673ffffffffffffffffffffffffffffffffffffffff1673ffffffffffffffffffffffffffffffffffffffff1681526020016000820160149054906101000a900460ff1660ff1660ff16815260200160018201805461056190614fb0565b80601f016020809104026020016040519081016040528092919081815260200182805461058d90614fb0565b80156105da5780601f106105af576101008083540402835291602001916105da565b820191906000526020600020905b8154815290600101906020018083116105bd57829003601f168201915b5050505050815250508152602001600282016040518060600160405290816000820160009054906101000a900473ffffffffffffffffffffffffffffffffffffffff1673ffffffffffffffffffffffffffffffffffffffff1673ffffffffffffffffffffffffffffffffffffffff1681526020016000820160149054906101000a900460ff1660ff1660ff16815260200160018201805461067a90614fb0565b80601f01602080910402602001604051908101604052809291908181526020018280546106a690614fb0565b80156106f35780601f106106c8576101008083540402835291602001916106f3565b820191906000526020600020905b8154815290600101906020018083116106d657829003601f168201915b5050505050815250508152602001600482016040518060600160405290816000820160009054906101000a900473ffffffffffffffffffffffffffffffffffffffff1673ffffffffffffffffffffffffffffffffffffffff1673ffffffffffffffffffffffffffffffffffffffff1681526020016000820160149054906101000a900460ff1660ff1660ff16815260200160018201805461079390614fb0565b80601f01602080910402602001604051908101604052809291908181526020018280546107bf90614fb0565b801561080c5780601f106107e15761010080835404028352916020019161080c565b820191906000526020600020905b8154815290600101906020018083116107ef57829003601f168201915b5050505050815250508152505081525050905060005b8160c001518110156108855760016000858152602001908152602001600020600082815260200190815260200160002060000160009054906101000a900460ff166108725760009250505061088c565b808061087d90615010565b915050610822565b5060019150505b919050565b6000806000838152602001908152602001600020905080600a0160020160000160009054906101000a900473ffffffffffffffffffffffffffffffffffffffff1673ffffffffffffffffffffffffffffffffffffffff163373ffffffffffffffffffffffffffffffffffffffff161461093f576040517f08c379a0000000000000000000000000000000000000000000000000000000008152600401610936906150db565b60405180910390fd5b8060010160000160019054906101000a900460ff16801561097157508060010160000160009054906101000a900460ff165b6109b0576040517f08c379a00000000000000000000000000000000000000000000000000000000081526004016109a79061516d565b60405180910390fd5b60018160020160000160006101000a81548160ff0219169083151502179055505050565b6000806000848152602001908152602001600020905080600a0160040160000160009054906101000a900473ffffffffffffffffffffffffffffffffffffffff1673ffffffffffffffffffffffffffffffffffffffff163373ffffffffffffffffffffffffffffffffffffffff1614610a82576040517f08c379a0000000000000000000000000000000000000000000000000000000008152600401610a79906151ff565b60405180910390fd5b8060040160000160009054906101000a900460ff1680610ab357508060040160000160019054906101000a900460ff165b610af2576040517f08c379a0000000000000000000000000000000000000000000000000000000008152600401610ae990615291565b60405180910390fd5b600160036000858152602001908152602001600020600084815260200190815260200160002060000160006101000a81548160ff021916908315150217905550806009016000815480929190610b4790615010565b9190505550610b5583612079565b15610b7b5760018160050160000160006101000a81548160ff0219169083151502179055505b505050565b6000806000848152602001908152602001600020905080600a0160040160000160009054906101000a900473ffffffffffffffffffffffffffffffffffffffff1673ffffffffffffffffffffffffffffffffffffffff163373ffffffffffffffffffffffffffffffffffffffff161480610c4f575080600a0160020160000160009054906101000a900473ffffffffffffffffffffffffffffffffffffffff1673ffffffffffffffffffffffffffffffffffffffff163373ffffffffffffffffffffffffffffffffffffffff16145b610c8e576040517f08c379a0000000000000000000000000000000000000000000000000000000008152600401610c8590615323565b60405180910390fd5b8060030160000160009054906101000a900460ff16610ce2576040517f08c379a0000000000000000000000000000000000000000000000000000000008152600401610cd9906153b5565b60405180910390fd5b80600a0160020160000160009054906101000a900473ffffffffffffffffffffffffffffffffffffffff1673ffffffffffffffffffffffffffffffffffffffff163373ffffffffffffffffffffffffffffffffffffffff1603610db357600160026000858152602001908152602001600020600084815260200190815260200160002060000160006101000a81548160ff021916908315150217905550610d8883612c34565b15610dae5760018160040160000160006101000a81548160ff0219169083151502179055505b610e81565b80600a0160040160000160009054906101000a900473ffffffffffffffffffffffffffffffffffffffff1673ffffffffffffffffffffffffffffffffffffffff163373ffffffffffffffffffffffffffffffffffffffff1603610e8057600160026000858152602001908152602001600020600084815260200190815260200160002060000160016101000a81548160ff021916908315150217905550610e59836113d3565b15610e7f5760018160040160000160016101000a81548160ff0219169083151502179055505b5b5b60026000848152602001908152602001600020600083815260200190815260200160002060000160009054906101000a900460ff168015610ef3575060026000848152602001908152602001600020600083815260200190815260200160002060000160019054906101000a900460ff165b15610f1357806008016000815480929190610f0d90615010565b91905055505b505050565b60008060008460000151815260200190815260200160002090508260000151816000018190555060008160010160000160016101000a81548160ff02191690831515021790555060008160010160000160006101000a81548160ff02191690831515021790555060008160020160000160006101000a81548160ff02191690831515021790555060008160030160000160006101000a81548160ff02191690831515021790555060008160040160000160006101000a81548160ff02191690831515021790555060008160040160000160016101000a81548160ff02191690831515021790555060008160050160000160006101000a81548160ff0219169083151502179055506000805b835181101561118e576000848281518110611041576110406153d5565b5b602002602001015190506001836110589190615404565b92506000600160008860000151815260200190815260200160002060008360000151815260200190815260200160002060000160006101000a81548160ff0219169083151502179055506000600260008860000151815260200190815260200160002060008360000151815260200190815260200160002060000160006101000a81548160ff0219169083151502179055506000600260008860000151815260200190815260200160002060008360000151815260200190815260200160002060000160016101000a81548160ff0219169083151502179055506000600360008860000151815260200190815260200160002060008360000151815260200190815260200160002060000160006101000a81548160ff02191690831515021790555050808061118690615010565b915050611023565b50600081116111d2576040517f08c379a00000000000000000000000000000000000000000000000000000000081526004016111c9906154cc565b60405180910390fd5b8082600601819055506000826007018190555060008260080181905550600082600901819055508360a0015182600a0160008201518160000160008201518160000160006101000a81548173ffffffffffffffffffffffffffffffffffffffff021916908373ffffffffffffffffffffffffffffffffffffffff16021790555060208201518160000160146101000a81548160ff021916908360ff160217905550604082015181600101908051906020019061128f929190613d3e565b50505060208201518160020160008201518160000160006101000a81548173ffffffffffffffffffffffffffffffffffffffff021916908373ffffffffffffffffffffffffffffffffffffffff16021790555060208201518160000160146101000a81548160ff021916908360ff160217905550604082015181600101908051906020019061131f929190613d3e565b50505060408201518160040160008201518160000160006101000a81548173ffffffffffffffffffffffffffffffffffffffff021916908373ffffffffffffffffffffffffffffffffffffffff16021790555060208201518160000160146101000a81548160ff021916908360ff16021790555060408201518160010190805190602001906113af929190613d3e565b505050905050600460008154809291906113c890615010565b919050555050505050565b6000806000808481526020019081526020016000206040518061016001604052908160008201548152602001600182016040518060400160405290816000820160009054906101000a900460ff161515151581526020016000820160019054906101000a900460ff1615151515815250508152602001600282016040518060200160405290816000820160009054906101000a900460ff1615151515815250508152602001600382016040518060200160405290816000820160009054906101000a900460ff1615151515815250508152602001600482016040518060400160405290816000820160009054906101000a900460ff161515151581526020016000820160019054906101000a900460ff1615151515815250508152602001600582016040518060200160405290816000820160009054906101000a900460ff161515151581525050815260200160068201548152602001600782015481526020016008820154815260200160098201548152602001600a8201604051806060016040529081600082016040518060600160405290816000820160009054906101000a900473ffffffffffffffffffffffffffffffffffffffff1673ffffffffffffffffffffffffffffffffffffffff1673ffffffffffffffffffffffffffffffffffffffff1681526020016000820160149054906101000a900460ff1660ff1660ff1681526020016001820180546115ea90614fb0565b80601f016020809104026020016040519081016040528092919081815260200182805461161690614fb0565b80156116635780601f1061163857610100808354040283529160200191611663565b820191906000526020600020905b81548152906001019060200180831161164657829003601f168201915b5050505050815250508152602001600282016040518060600160405290816000820160009054906101000a900473ffffffffffffffffffffffffffffffffffffffff1673ffffffffffffffffffffffffffffffffffffffff1673ffffffffffffffffffffffffffffffffffffffff1681526020016000820160149054906101000a900460ff1660ff1660ff16815260200160018201805461170390614fb0565b80601f016020809104026020016040519081016040528092919081815260200182805461172f90614fb0565b801561177c5780601f106117515761010080835404028352916020019161177c565b820191906000526020600020905b81548152906001019060200180831161175f57829003601f168201915b5050505050815250508152602001600482016040518060600160405290816000820160009054906101000a900473ffffffffffffffffffffffffffffffffffffffff1673ffffffffffffffffffffffffffffffffffffffff1673ffffffffffffffffffffffffffffffffffffffff1681526020016000820160149054906101000a900460ff1660ff1660ff16815260200160018201805461181c90614fb0565b80601f016020809104026020016040519081016040528092919081815260200182805461184890614fb0565b80156118955780601f1061186a57610100808354040283529160200191611895565b820191906000526020600020905b81548152906001019060200180831161187857829003601f168201915b5050505050815250508152505081525050905060005b8160c0015181101561190e5760026000858152602001908152602001600020600082815260200190815260200160002060000160019054906101000a900460ff166118fb57600092505050611915565b808061190690615010565b9150506118ab565b5060019150505b919050565b6000806000838152602001908152602001600020905080600a0160000160000160009054906101000a900473ffffffffffffffffffffffffffffffffffffffff1673ffffffffffffffffffffffffffffffffffffffff163373ffffffffffffffffffffffffffffffffffffffff1614806119e9575080600a0160020160000160009054906101000a900473ffffffffffffffffffffffffffffffffffffffff1673ffffffffffffffffffffffffffffffffffffffff163373ffffffffffffffffffffffffffffffffffffffff16145b611a28576040517f08c379a0000000000000000000000000000000000000000000000000000000008152600401611a1f9061555e565b60405180910390fd5b80600a0160000160000160009054906101000a900473ffffffffffffffffffffffffffffffffffffffff1673ffffffffffffffffffffffffffffffffffffffff163373ffffffffffffffffffffffffffffffffffffffff1603611aaa5760018160010160000160006101000a81548160ff021916908315150217905550611b29565b80600a0160020160000160009054906101000a900473ffffffffffffffffffffffffffffffffffffffff1673ffffffffffffffffffffffffffffffffffffffff163373ffffffffffffffffffffffffffffffffffffffff1603611b285760018160010160000160016101000a81548160ff0219169083151502179055505b5b5050565b6000806000808481526020019081526020016000206040518061016001604052908160008201548152602001600182016040518060400160405290816000820160009054906101000a900460ff161515151581526020016000820160019054906101000a900460ff1615151515815250508152602001600282016040518060200160405290816000820160009054906101000a900460ff1615151515815250508152602001600382016040518060200160405290816000820160009054906101000a900460ff1615151515815250508152602001600482016040518060400160405290816000820160009054906101000a900460ff161515151581526020016000820160019054906101000a900460ff1615151515815250508152602001600582016040518060200160405290816000820160009054906101000a900460ff161515151581525050815260200160068201548152602001600782015481526020016008820154815260200160098201548152602001600a8201604051806060016040529081600082016040518060600160405290816000820160009054906101000a900473ffffffffffffffffffffffffffffffffffffffff1673ffffffffffffffffffffffffffffffffffffffff1673ffffffffffffffffffffffffffffffffffffffff1681526020016000820160149054906101000a900460ff1660ff1660ff168152602001600182018054611d4490614fb0565b80601f0160208091040260200160405190810160405280929190818152602001828054611d7090614fb0565b8015611dbd5780601f10611d9257610100808354040283529160200191611dbd565b820191906000526020600020905b815481529060010190602001808311611da057829003601f168201915b5050505050815250508152602001600282016040518060600160405290816000820160009054906101000a900473ffffffffffffffffffffffffffffffffffffffff1673ffffffffffffffffffffffffffffffffffffffff1673ffffffffffffffffffffffffffffffffffffffff1681526020016000820160149054906101000a900460ff1660ff1660ff168152602001600182018054611e5d90614fb0565b80601f0160208091040260200160405190810160405280929190818152602001828054611e8990614fb0565b8015611ed65780601f10611eab57610100808354040283529160200191611ed6565b820191906000526020600020905b815481529060010190602001808311611eb957829003601f168201915b5050505050815250508152602001600482016040518060600160405290816000820160009054906101000a900473ffffffffffffffffffffffffffffffffffffffff1673ffffffffffffffffffffffffffffffffffffffff1673ffffffffffffffffffffffffffffffffffffffff1681526020016000820160149054906101000a900460ff1660ff1660ff168152602001600182018054611f7690614fb0565b80601f0160208091040260200160405190810160405280929190818152602001828054611fa290614fb0565b8015611fef5780601f10611fc457610100808354040283529160200191611fef565b820191906000526020600020905b815481529060010190602001808311611fd257829003601f168201915b50505050508152505081525050815250509050806020015160000151801561201c57508060200151602001515b801561202d57508060400151600001515b801561203e57508060600151600001515b801561204f57508060800151600001515b801561206057508060800151602001515b801561207157508060a00151600001515b915050919050565b6000806000808481526020019081526020016000206040518061016001604052908160008201548152602001600182016040518060400160405290816000820160009054906101000a900460ff161515151581526020016000820160019054906101000a900460ff1615151515815250508152602001600282016040518060200160405290816000820160009054906101000a900460ff1615151515815250508152602001600382016040518060200160405290816000820160009054906101000a900460ff1615151515815250508152602001600482016040518060400160405290816000820160009054906101000a900460ff161515151581526020016000820160019054906101000a900460ff1615151515815250508152602001600582016040518060200160405290816000820160009054906101000a900460ff161515151581525050815260200160068201548152602001600782015481526020016008820154815260200160098201548152602001600a8201604051806060016040529081600082016040518060600160405290816000820160009054906101000a900473ffffffffffffffffffffffffffffffffffffffff1673ffffffffffffffffffffffffffffffffffffffff1673ffffffffffffffffffffffffffffffffffffffff1681526020016000820160149054906101000a900460ff1660ff1660ff16815260200160018201805461229090614fb0565b80601f01602080910402602001604051908101604052809291908181526020018280546122bc90614fb0565b80156123095780601f106122de57610100808354040283529160200191612309565b820191906000526020600020905b8154815290600101906020018083116122ec57829003601f168201915b5050505050815250508152602001600282016040518060600160405290816000820160009054906101000a900473ffffffffffffffffffffffffffffffffffffffff1673ffffffffffffffffffffffffffffffffffffffff1673ffffffffffffffffffffffffffffffffffffffff1681526020016000820160149054906101000a900460ff1660ff1660ff1681526020016001820180546123a990614fb0565b80601f01602080910402602001604051908101604052809291908181526020018280546123d590614fb0565b80156124225780601f106123f757610100808354040283529160200191612422565b820191906000526020600020905b81548152906001019060200180831161240557829003601f168201915b5050505050815250508152602001600482016040518060600160405290816000820160009054906101000a900473ffffffffffffffffffffffffffffffffffffffff1673ffffffffffffffffffffffffffffffffffffffff1673ffffffffffffffffffffffffffffffffffffffff1681526020016000820160149054906101000a900460ff1660ff1660ff1681526020016001820180546124c290614fb0565b80601f01602080910402602001604051908101604052809291908181526020018280546124ee90614fb0565b801561253b5780601f106125105761010080835404028352916020019161253b565b820191906000526020600020905b81548152906001019060200180831161251e57829003601f168201915b5050505050815250508152505081525050905060005b8160c001518110156125b45760036000858152602001908152602001600020600082815260200190815260200160002060000160009054906101000a900460ff166125a1576000925050506125bb565b80806125ac90615010565b915050612551565b5060019150505b919050565b6125c8613dc4565b6000808381526020019081526020016000206040518061016001604052908160008201548152602001600182016040518060400160405290816000820160009054906101000a900460ff161515151581526020016000820160019054906101000a900460ff1615151515815250508152602001600282016040518060200160405290816000820160009054906101000a900460ff1615151515815250508152602001600382016040518060200160405290816000820160009054906101000a900460ff1615151515815250508152602001600482016040518060400160405290816000820160009054906101000a900460ff161515151581526020016000820160019054906101000a900460ff1615151515815250508152602001600582016040518060200160405290816000820160009054906101000a900460ff161515151581525050815260200160068201548152602001600782015481526020016008820154815260200160098201548152602001600a8201604051806060016040529081600082016040518060600160405290816000820160009054906101000a900473ffffffffffffffffffffffffffffffffffffffff1673ffffffffffffffffffffffffffffffffffffffff1673ffffffffffffffffffffffffffffffffffffffff1681526020016000820160149054906101000a900460ff1660ff1660ff1681526020016001820180546127dc90614fb0565b80601f016020809104026020016040519081016040528092919081815260200182805461280890614fb0565b80156128555780601f1061282a57610100808354040283529160200191612855565b820191906000526020600020905b81548152906001019060200180831161283857829003601f168201915b5050505050815250508152602001600282016040518060600160405290816000820160009054906101000a900473ffffffffffffffffffffffffffffffffffffffff1673ffffffffffffffffffffffffffffffffffffffff1673ffffffffffffffffffffffffffffffffffffffff1681526020016000820160149054906101000a900460ff1660ff1660ff1681526020016001820180546128f590614fb0565b80601f016020809104026020016040519081016040528092919081815260200182805461292190614fb0565b801561296e5780601f106129435761010080835404028352916020019161296e565b820191906000526020600020905b81548152906001019060200180831161295157829003601f168201915b5050505050815250508152602001600482016040518060600160405290816000820160009054906101000a900473ffffffffffffffffffffffffffffffffffffffff1673ffffffffffffffffffffffffffffffffffffffff1673ffffffffffffffffffffffffffffffffffffffff1681526020016000820160149054906101000a900460ff1660ff1660ff168152602001600182018054612a0e90614fb0565b80601f0160208091040260200160405190810160405280929190818152602001828054612a3a90614fb0565b8015612a875780601f10612a5c57610100808354040283529160200191612a87565b820191906000526020600020905b815481529060010190602001808311612a6a57829003601f168201915b50505050508152505081525050815250509050919050565b6000806000848152602001908152602001600020905080600a0160020160000160009054906101000a900473ffffffffffffffffffffffffffffffffffffffff1673ffffffffffffffffffffffffffffffffffffffff163373ffffffffffffffffffffffffffffffffffffffff1614612b4d576040517f08c379a0000000000000000000000000000000000000000000000000000000008152600401612b44906155f0565b60405180910390fd5b8060020160000160009054906101000a900460ff16612ba1576040517f08c379a0000000000000000000000000000000000000000000000000000000008152600401612b9890615682565b60405180910390fd5b6001806000858152602001908152602001600020600084815260200190815260200160002060000160006101000a81548160ff021916908315150217905550806007016000815480929190612bf590615010565b9190505550612c038361034a565b15612c295760018160030160000160006101000a81548160ff0219169083151502179055505b505050565b60045481565b6000806000808481526020019081526020016000206040518061016001604052908160008201548152602001600182016040518060400160405290816000820160009054906101000a900460ff161515151581526020016000820160019054906101000a900460ff1615151515815250508152602001600282016040518060200160405290816000820160009054906101000a900460ff1615151515815250508152602001600382016040518060200160405290816000820160009054906101000a900460ff1615151515815250508152602001600482016040518060400160405290816000820160009054906101000a900460ff161515151581526020016000820160019054906101000a900460ff1615151515815250508152602001600582016040518060200160405290816000820160009054906101000a900460ff161515151581525050815260200160068201548152602001600782015481526020016008820154815260200160098201548152602001600a8201604051806060016040529081600082016040518060600160405290816000820160009054906101000a900473ffffffffffffffffffffffffffffffffffffffff1673ffffffffffffffffffffffffffffffffffffffff1673ffffffffffffffffffffffffffffffffffffffff1681526020016000820160149054906101000a900460ff1660ff1660ff168152602001600182018054612e4b90614fb0565b80601f0160208091040260200160405190810160405280929190818152602001828054612e7790614fb0565b8015612ec45780601f10612e9957610100808354040283529160200191612ec4565b820191906000526020600020905b815481529060010190602001808311612ea757829003601f168201915b5050505050815250508152602001600282016040518060600160405290816000820160009054906101000a900473ffffffffffffffffffffffffffffffffffffffff1673ffffffffffffffffffffffffffffffffffffffff1673ffffffffffffffffffffffffffffffffffffffff1681526020016000820160149054906101000a900460ff1660ff1660ff168152602001600182018054612f6490614fb0565b80601f0160208091040260200160405190810160405280929190818152602001828054612f9090614fb0565b8015612fdd5780601f10612fb257610100808354040283529160200191612fdd565b820191906000526020600020905b815481529060010190602001808311612fc057829003601f168201915b5050505050815250508152602001600482016040518060600160405290816000820160009054906101000a900473ffffffffffffffffffffffffffffffffffffffff1673ffffffffffffffffffffffffffffffffffffffff1673ffffffffffffffffffffffffffffffffffffffff1681526020016000820160149054906101000a900460ff1660ff1660ff16815260200160018201805461307d90614fb0565b80601f01602080910402602001604051908101604052809291908181526020018280546130a990614fb0565b80156130f65780601f106130cb576101008083540402835291602001916130f6565b820191906000526020600020905b8154815290600101906020018083116130d957829003601f168201915b5050505050815250508152505081525050905060005b8160c0015181101561316f5760026000858152602001908152602001600020600082815260200190815260200160002060000160009054906101000a900460ff1661315c57600092505050613176565b808061316790615010565b91505061310c565b5060019150505b919050565b6000602052806000526040600020600091509050806000015490806001016040518060400160405290816000820160009054906101000a900460ff161515151581526020016000820160019054906101000a900460ff16151515158152505090806002016040518060200160405290816000820160009054906101000a900460ff16151515158152505090806003016040518060200160405290816000820160009054906101000a900460ff16151515158152505090806004016040518060400160405290816000820160009054906101000a900460ff161515151581526020016000820160019054906101000a900460ff16151515158152505090806005016040518060200160405290816000820160009054906101000a900460ff1615151515815250509080600601549080600701549080600801549080600901549080600a01604051806060016040529081600082016040518060600160405290816000820160009054906101000a900473ffffffffffffffffffffffffffffffffffffffff1673ffffffffffffffffffffffffffffffffffffffff1673ffffffffffffffffffffffffffffffffffffffff1681526020016000820160149054906101000a900460ff1660ff1660ff16815260200160018201805461335c90614fb0565b80601f016020809104026020016040519081016040528092919081815260200182805461338890614fb0565b80156133d55780601f106133aa576101008083540402835291602001916133d5565b820191906000526020600020905b8154815290600101906020018083116133b857829003601f168201915b5050505050815250508152602001600282016040518060600160405290816000820160009054906101000a900473ffffffffffffffffffffffffffffffffffffffff1673ffffffffffffffffffffffffffffffffffffffff1673ffffffffffffffffffffffffffffffffffffffff1681526020016000820160149054906101000a900460ff1660ff1660ff16815260200160018201805461347590614fb0565b80601f01602080910402602001604051908101604052809291908181526020018280546134a190614fb0565b80156134ee5780601f106134c3576101008083540402835291602001916134ee565b820191906000526020600020905b8154815290600101906020018083116134d157829003601f168201915b5050505050815250508152602001600482016040518060600160405290816000820160009054906101000a900473ffffffffffffffffffffffffffffffffffffffff1673ffffffffffffffffffffffffffffffffffffffff1673ffffffffffffffffffffffffffffffffffffffff1681526020016000820160149054906101000a900460ff1660ff1660ff16815260200160018201805461358e90614fb0565b80601f01602080910402602001604051908101604052809291908181526020018280546135ba90614fb0565b80156136075780601f106135dc57610100808354040283529160200191613607565b820191906000526020600020905b8154815290600101906020018083116135ea57829003601f168201915b5050505050815250508152505090508b565b606060008260ff1610158015613633575060028260ff1611155b613672576040517f08c379a0000000000000000000000000000000000000000000000000000000008152600401613669906156ee565b60405180910390fd5b60008060008581526020019081526020016000206040518061016001604052908160008201548152602001600182016040518060400160405290816000820160009054906101000a900460ff161515151581526020016000820160019054906101000a900460ff1615151515815250508152602001600282016040518060200160405290816000820160009054906101000a900460ff1615151515815250508152602001600382016040518060200160405290816000820160009054906101000a900460ff1615151515815250508152602001600482016040518060400160405290816000820160009054906101000a900460ff161515151581526020016000820160019054906101000a900460ff1615151515815250508152602001600582016040518060200160405290816000820160009054906101000a900460ff161515151581525050815260200160068201548152602001600782015481526020016008820154815260200160098201548152602001600a8201604051806060016040529081600082016040518060600160405290816000820160009054906101000a900473ffffffffffffffffffffffffffffffffffffffff1673ffffffffffffffffffffffffffffffffffffffff1673ffffffffffffffffffffffffffffffffffffffff1681526020016000820160149054906101000a900460ff1660ff1660ff16815260200160018201805461388890614fb0565b80601f01602080910402602001604051908101604052809291908181526020018280546138b490614fb0565b80156139015780601f106138d657610100808354040283529160200191613901565b820191906000526020600020905b8154815290600101906020018083116138e457829003601f168201915b5050505050815250508152602001600282016040518060600160405290816000820160009054906101000a900473ffffffffffffffffffffffffffffffffffffffff1673ffffffffffffffffffffffffffffffffffffffff1673ffffffffffffffffffffffffffffffffffffffff1681526020016000820160149054906101000a900460ff1660ff1660ff1681526020016001820180546139a190614fb0565b80601f01602080910402602001604051908101604052809291908181526020018280546139cd90614fb0565b8015613a1a5780601f106139ef57610100808354040283529160200191613a1a565b820191906000526020600020905b8154815290600101906020018083116139fd57829003601f168201915b5050505050815250508152602001600482016040518060600160405290816000820160009054906101000a900473ffffffffffffffffffffffffffffffffffffffff1673ffffffffffffffffffffffffffffffffffffffff1673ffffffffffffffffffffffffffffffffffffffff1681526020016000820160149054906101000a900460ff1660ff1660ff168152602001600182018054613aba90614fb0565b80601f0160208091040260200160405190810160405280929190818152602001828054613ae690614fb0565b8015613b335780601f10613b0857610100808354040283529160200191613b33565b820191906000526020600020905b815481529060010190602001808311613b1657829003601f168201915b5050505050815250508152505081525050905060008160c0015167ffffffffffffffff811115613b6657613b6561404a565b5b604051908082528060200260200182016040528015613b945781602001602082028036833780820191505090505b50905060005b8260c00151811015613d325760008560ff1603613c105760016000878152602001908152602001600020600082815260200190815260200160002060000160009054906101000a900460ff16828281518110613bf957613bf86153d5565b5b602002602001019015159081151581525050613d1f565b60018560ff1603613cb75760026000878152602001908152602001600020600082815260200190815260200160002060000160009054906101000a900460ff168015613c8d575060026000878152602001908152602001600020600082815260200190815260200160002060000160019054906101000a900460ff165b828281518110613ca057613c9f6153d5565b5b602002602001019015159081151581525050613d1e565b60028560ff1603613d1d5760036000878152602001908152602001600020600082815260200190815260200160002060000160009054906101000a900460ff16828281518110613d0a57613d096153d5565b5b6020026020010190151590811515815250505b5b5b8080613d2a90615010565b915050613b9a565b50809250505092915050565b828054613d4a90614fb0565b90600052602060002090601f016020900481019282613d6c5760008555613db3565b82601f10613d8557805160ff1916838001178555613db3565b82800160010185558215613db3579182015b82811115613db2578251825591602001919060010190613d97565b5b509050613dc09190613e42565b5090565b60405180610160016040528060008152602001613ddf613e5f565b8152602001613dec613e7d565b8152602001613df9613e92565b8152602001613e06613ea7565b8152602001613e13613ec5565b815260200160008152602001600081526020016000815260200160008152602001613e3c613eda565b81525090565b5b80821115613e5b576000816000905550600101613e43565b5090565b60405180604001604052806000151581526020016000151581525090565b60405180602001604052806000151581525090565b60405180602001604052806000151581525090565b60405180604001604052806000151581526020016000151581525090565b60405180602001604052806000151581525090565b6040518060600160405280613eed613f0d565b8152602001613efa613f0d565b8152602001613f07613f0d565b81525090565b6040518060600160405280600073ffffffffffffffffffffffffffffffffffffffff168152602001600060ff168152602001606081525090565b6000604051905090565b600080fd5b600080fd5b6000819050919050565b613f6e81613f5b565b8114613f7957600080fd5b50565b600081359050613f8b81613f65565b92915050565b600060208284031215613fa757613fa6613f51565b5b6000613fb584828501613f7c565b91505092915050565b60008115159050919050565b613fd381613fbe565b82525050565b6000602082019050613fee6000830184613fca565b92915050565b6000806040838503121561400b5761400a613f51565b5b600061401985828601613f7c565b925050602061402a85828601613f7c565b9150509250929050565b600080fd5b6000601f19601f8301169050919050565b7f4e487b7100000000000000000000000000000000000000000000000000000000600052604160045260246000fd5b61408282614039565b810181811067ffffffffffffffff821117156140a1576140a061404a565b5b80604052505050565b60006140b4613f47565b90506140c08282614079565b919050565b600080fd5b600080fd5b600080fd5b600067ffffffffffffffff8211156140ef576140ee61404a565b5b6140f882614039565b9050602081019050919050565b82818337600083830152505050565b6000614127614122846140d4565b6140aa565b905082815260208101848484011115614143576141426140cf565b5b61414e848285614105565b509392505050565b600082601f83011261416b5761416a6140ca565b5b813561417b848260208601614114565b91505092915050565b60006060828403121561419a57614199614034565b5b6141a460606140aa565b9050600082013567ffffffffffffffff8111156141c4576141c36140c5565b5b6141d084828501614156565b600083015250602082013567ffffffffffffffff8111156141f4576141f36140c5565b5b61420084828501614156565b602083015250604061421484828501613f7c565b60408301525092915050565b61422981613fbe565b811461423457600080fd5b50565b60008135905061424681614220565b92915050565b600060c0828403121561426257614261614034565b5b61426c60c06140aa565b9050600061427c84828501613f7c565b600083015250602061429084828501613f7c565b60208301525060406142a484828501613f7c565b60408301525060606142b884828501613f7c565b60608301525060806142cc84828501613f7c565b60808301525060a06142e084828501614237565b60a08301525092915050565b600073ffffffffffffffffffffffffffffffffffffffff82169050919050565b6000614317826142ec565b9050919050565b6143278161430c565b811461433257600080fd5b50565b6000813590506143448161431e565b92915050565b6000604082840312156143605761435f614034565b5b61436a60406140aa565b9050600061437a84828501614335565b600083015250602082013567ffffffffffffffff81111561439e5761439d6140c5565b5b6143aa84828501614156565b60208301525092915050565b600060ff82169050919050565b6143cc816143b6565b81146143d757600080fd5b50565b6000813590506143e9816143c3565b92915050565b60006080828403121561440557614404614034565b5b61440f60806140aa565b9050600082013567ffffffffffffffff81111561442f5761442e6140c5565b5b61443b84828501614156565b600083015250602082013567ffffffffffffffff81111561445f5761445e6140c5565b5b61446b84828501614156565b602083015250604082013567ffffffffffffffff81111561448f5761448e6140c5565b5b61449b84828501614156565b60408301525060606144af848285016143da565b60608301525092915050565b60006144c6826142ec565b9050919050565b6144d6816144bb565b81146144e157600080fd5b50565b6000813590506144f3816144cd565b92915050565b60006060828403121561450f5761450e614034565b5b61451960606140aa565b90506000614529848285016144e4565b600083015250602061453d848285016143da565b602083015250604082013567ffffffffffffffff811115614561576145606140c5565b5b61456d84828501614156565b60408301525092915050565b60006060828403121561458f5761458e614034565b5b61459960606140aa565b9050600082013567ffffffffffffffff8111156145b9576145b86140c5565b5b6145c5848285016144f9565b600083015250602082013567ffffffffffffffff8111156145e9576145e86140c5565b5b6145f5848285016144f9565b602083015250604082013567ffffffffffffffff811115614619576146186140c5565b5b614625848285016144f9565b60408301525092915050565b6000610160828403121561464857614647614034565b5b61465260c06140aa565b9050600061466284828501613f7c565b600083015250602082013567ffffffffffffffff811115614686576146856140c5565b5b61469284828501614184565b60208301525060406146a68482850161424c565b60408301525061010082013567ffffffffffffffff8111156146cb576146ca6140c5565b5b6146d78482850161434a565b60608301525061012082013567ffffffffffffffff8111156146fc576146fb6140c5565b5b614708848285016143ef565b60808301525061014082013567ffffffffffffffff81111561472d5761472c6140c5565b5b61473984828501614579565b60a08301525092915050565b600067ffffffffffffffff8211156147605761475f61404a565b5b602082029050602081019050919050565b600080fd5b600060a0828403121561478c5761478b614034565b5b61479660a06140aa565b905060006147a684828501613f7c565b60008301525060206147ba84828501613f7c565b60208301525060406147ce84828501614335565b60408301525060606147e284828501613f7c565b606083015250608082013567ffffffffffffffff811115614806576148056140c5565b5b61481284828501614156565b60808301525092915050565b600061483161482c84614745565b6140aa565b9050808382526020820190506020840283018581111561485457614853614771565b5b835b8181101561489b57803567ffffffffffffffff811115614879576148786140ca565b5b8086016148868982614776565b85526020850194505050602081019050614856565b5050509392505050565b600082601f8301126148ba576148b96140ca565b5b81356148ca84826020860161481e565b91505092915050565b600080604083850312156148ea576148e9613f51565b5b600083013567ffffffffffffffff81111561490857614907613f56565b5b61491485828601614631565b925050602083013567ffffffffffffffff81111561493557614934613f56565b5b614941858286016148a5565b9150509250929050565b61495481613f5b565b82525050565b61496381613fbe565b82525050565b60408201600082015161497f600085018261495a565b506020820151614992602085018261495a565b50505050565b6020820160008201516149ae600085018261495a565b50505050565b6020820160008201516149ca600085018261495a565b50505050565b6040820160008201516149e6600085018261495a565b5060208201516149f9602085018261495a565b50505050565b602082016000820151614a15600085018261495a565b50505050565b614a24816144bb565b82525050565b614a33816143b6565b82525050565b600081519050919050565b600082825260208201905092915050565b60005b83811015614a73578082015181840152602081019050614a58565b83811115614a82576000848401525b50505050565b6000614a9382614a39565b614a9d8185614a44565b9350614aad818560208601614a55565b614ab681614039565b840191505092915050565b6000606083016000830151614ad96000860182614a1b565b506020830151614aec6020860182614a2a565b5060408301518482036040860152614b048282614a88565b9150508091505092915050565b60006060830160008301518482036000860152614b2e8282614ac1565b91505060208301518482036020860152614b488282614ac1565b91505060408301518482036040860152614b628282614ac1565b9150508091505092915050565b60006101a083016000830151614b88600086018261494b565b506020830151614b9b6020860182614969565b506040830151614bae6060860182614998565b506060830151614bc160808601826149b4565b506080830151614bd460a08601826149d0565b5060a0830151614be760e08601826149ff565b5060c0830151614bfb61010086018261494b565b5060e0830151614c0f61012086018261494b565b50610100830151614c2461014086018261494b565b50610120830151614c3961016086018261494b565b50610140830151848203610180860152614c538282614b11565b9150508091505092915050565b60006020820190508181036000830152614c7a8184614b6f565b905092915050565b614c8b81613f5b565b82525050565b6000602082019050614ca66000830184614c82565b92915050565b604082016000820151614cc2600085018261495a565b506020820151614cd5602085018261495a565b50505050565b602082016000820151614cf1600085018261495a565b50505050565b602082016000820151614d0d600085018261495a565b50505050565b604082016000820151614d29600085018261495a565b506020820151614d3c602085018261495a565b50505050565b602082016000820151614d58600085018261495a565b50505050565b60006060830160008301518482036000860152614d7b8282614ac1565b91505060208301518482036020860152614d958282614ac1565b91505060408301518482036040860152614daf8282614ac1565b9150508091505092915050565b60006101a082019050614dd2600083018e614c82565b614ddf602083018d614cac565b614dec606083018c614cdb565b614df9608083018b614cf7565b614e0660a083018a614d13565b614e1360e0830189614d42565b614e21610100830188614c82565b614e2f610120830187614c82565b614e3d610140830186614c82565b614e4b610160830185614c82565b818103610180830152614e5e8184614d5e565b90509c9b505050505050505050505050565b60008060408385031215614e8757614e86613f51565b5b6000614e9585828601613f7c565b9250506020614ea6858286016143da565b9150509250929050565b600081519050919050565b600082825260208201905092915050565b6000819050602082019050919050565b6000614ee8838361495a565b60208301905092915050565b6000602082019050919050565b6000614f0c82614eb0565b614f168185614ebb565b9350614f2183614ecc565b8060005b83811015614f52578151614f398882614edc565b9750614f4483614ef4565b925050600181019050614f25565b5085935050505092915050565b60006020820190508181036000830152614f798184614f01565b905092915050565b7f4e487b7100000000000000000000000000000000000000000000000000000000600052602260045260246000fd5b60006002820490506001821680614fc857607f821691505b602082108103614fdb57614fda614f81565b5b50919050565b7f4e487b7100000000000000000000000000000000000000000000000000000000600052601160045260246000fd5b600061501b82613f5b565b91507fffffffffffffffffffffffffffffffffffffffffffffffffffffffffffffffff820361504d5761504c614fe1565b5b600182019050919050565b600082825260208201905092915050565b7f4f6e6c792074686520627574636865722063616e206d61726b2074686520616e60008201527f696d616c2061732070726f636573736564000000000000000000000000000000602082015250565b60006150c5603183615058565b91506150d082615069565b604082019050919050565b600060208201905081810360008301526150f4816150b8565b9050919050565b7f54686520616e696d616c206d7573742062652064656c6976657265642062656660008201527f6f7265206265696e672070726f63657373656400000000000000000000000000602082015250565b6000615157603383615058565b9150615162826150fb565b604082019050919050565b600060208201905081810360008301526151868161514a565b9050919050565b7f4f6e6c79207468652064656c697665727920736572766963652063616e206d6160008201527f726b206120626f782061732064656c6976657265640000000000000000000000602082015250565b60006151e9603583615058565b91506151f48261518d565b604082019050919050565b60006020820190508181036000830152615218816151dc565b9050919050565b7f426f786573206d757374206265206469737472696275746564206265666f726560008201527f206265696e672064656c69766572656400000000000000000000000000000000602082015250565b600061527b603083615058565b91506152868261521f565b604082019050919050565b600060208201905081810360008301526152aa8161526e565b9050919050565b7f4f6e6c79207468652064656c697665727920736572766963652063616e206d6160008201527f726b206120626f78206173206469737472696275746564000000000000000000602082015250565b600061530d603783615058565b9150615318826152b1565b604082019050919050565b6000602082019050818103600083015261533c81615300565b9050919050565b7f426f786573206d757374206265207072657061726564206265666f726520626560008201527f696e672064697374726962757465640000000000000000000000000000000000602082015250565b600061539f602f83615058565b91506153aa82615343565b604082019050919050565b600060208201905081810360008301526153ce81615392565b9050919050565b7f4e487b7100000000000000000000000000000000000000000000000000000000600052603260045260246000fd5b600061540f82613f5b565b915061541a83613f5b565b9250827fffffffffffffffffffffffffffffffffffffffffffffffffffffffffffffffff0382111561544f5761544e614fe1565b5b828201905092915050565b7f5468657265206d757374206265206174206c65617374206f6e6520626f78206960008201527f6e20746f74616c00000000000000000000000000000000000000000000000000602082015250565b60006154b6602783615058565b91506154c18261545a565b604082019050919050565b600060208201905081810360008301526154e5816154a9565b9050919050565b7f4f6e6c7920746865206661726d657220616e642074686520627574636865722060008201527f63616e206d61726b2074686520616e696d616c2061732064656c697665726564602082015250565b6000615548604083615058565b9150615553826154ec565b604082019050919050565b600060208201905081810360008301526155778161553b565b9050919050565b7f4f6e6c792074686520627574636865722063616e206d61726b206120626f782060008201527f61732070726f6365737365640000000000000000000000000000000000000000602082015250565b60006155da602c83615058565b91506155e58261557e565b604082019050919050565b60006020820190508181036000830152615609816155cd565b9050919050565b7f54686520616e696d616c206d7573742062652070726f6365737365642062656660008201527f6f726520707265706172696e6720626f78657300000000000000000000000000602082015250565b600061566c603383615058565b915061567782615610565b604082019050919050565b6000602082019050818103600083015261569b8161565f565b9050919050565b7f4d6f6465206d757374206265206265747765656e203020616e64203200000000600082015250565b60006156d8601c83615058565b91506156e3826156a2565b602082019050919050565b60006020820190508181036000830152615707816156cb565b905091905056fea2646970667358221220db6230d250bee845f1aaeba2aad899368395a5c1e064dbabc86d7aa4340223dd64736f6c634300080d0033",
  "immutableReferences": {},
  "source": "// SPDX-License-Identifier: AGPL\npragma solidity ^0.8.13;\n\nimport \"./Types.sol\";\nimport \"./Crowdfunding.sol\";\n\ncontract SupplyChains {\n\n  mapping(uint256 => SupplyChain) public supplychains;\n\n  mapping(uint256 => mapping(uint256 => BoxProcessStatus)) processedBoxes;\n  mapping(uint256 => mapping(uint256 => BoxDistributionStatus)) distributedBoxes;\n  mapping(uint256 => mapping(uint256 => BoxDeliverStatus)) deliveredBoxes;\n\n  uint256 public NumberOfSupplyChains = 0;\n\n  function StartSupplyChain(Campaign memory _campaign, BoxSellRef[] memory _boxes) external {\n    SupplyChain storage supplychain = supplychains[_campaign.id];\n\n    supplychain.campaignRef = _campaign.id;\n    supplychain.isAnimalDelivered.butcher = false;\n    supplychain.isAnimalDelivered.farmer = false;\n    supplychain.isAnimalProcessed.butcher = false;\n    supplychain.areBoxesProcessed.butcher = false;\n    supplychain.areBoxesDistributed.butcher = false;\n    supplychain.areBoxesDistributed.delivery = false;\n    supplychain.areBoxesDelivered.delivery = false;\n\n    uint totalNumOfBoxes = 0;\n    for (uint256 index = 0; index < _boxes.length; index++) {\n      BoxSellRef memory box = _boxes[index];\n      totalNumOfBoxes += 1;\n      processedBoxes[_campaign.id][box.id].butcher = false;\n      distributedBoxes[_campaign.id][box.id].butcher = false;\n      distributedBoxes[_campaign.id][box.id].delivery = false;\n      deliveredBoxes[_campaign.id][box.id].delivery = false;\n    }\n    require(totalNumOfBoxes > 0, \"There must be at least one box in total\");\n\n    supplychain.totalBoxes = totalNumOfBoxes;\n    supplychain.processedBoxes = 0;\n    supplychain.distributedBoxes = 0;\n    supplychain.deliveredBoxes = 0;\n\n    // import stakeholders from campaign\n    supplychain.stakeholders = _campaign.stakeholders;\n\n    NumberOfSupplyChains++;\n  }\n\n  /*\n  * Mark the animal of a campaign as delivered (to the butcher)\n  */\n  function markAnimalAsDelivered(uint256 _campaignId) public {\n    SupplyChain storage supplychain = supplychains[_campaignId];\n\n    require(\n      (msg.sender == supplychain.stakeholders.farmer.owner) || (msg.sender == supplychain.stakeholders.butcher.owner), \n      \"Only the farmer and the butcher can mark the animal as delivered\"\n    );\n\n    if (msg.sender == supplychain.stakeholders.farmer.owner) {\n      supplychain.isAnimalDelivered.farmer = true;\n    } else if (msg.sender == supplychain.stakeholders.butcher.owner) {\n      supplychain.isAnimalDelivered.butcher = true;\n    }\n  }\n\n  /*\n  * Mark the animal as processed by the butcher\n  */\n  function markAnimalAsProcessed(uint256 _campaignId) public {\n    SupplyChain storage supplychain = supplychains[_campaignId];\n\n    require(msg.sender == supplychain.stakeholders.butcher.owner, \"Only the butcher can mark the animal as processed\");\n    require(supplychain.isAnimalDelivered.butcher && supplychain.isAnimalDelivered.farmer, \"The animal must be delivered before being processed\");\n    supplychain.isAnimalProcessed.butcher = true;\n  }\n\n  /*\n  * Mark a box as processed by the butcher\n  */\n  function markBoxAsProcessed(uint256 _campaignId, uint256 _boxId) public {\n    SupplyChain storage supplychain = supplychains[_campaignId];\n\n    require(msg.sender == supplychain.stakeholders.butcher.owner, \"Only the butcher can mark a box as processed\");\n    require(supplychain.isAnimalProcessed.butcher, \"The animal must be processed before preparing boxes\");\n    processedBoxes[_campaignId][_boxId].butcher = true;\n    supplychain.processedBoxes++;\n\n    if(areBoxesProcessed(_campaignId)) {\n      supplychain.areBoxesProcessed.butcher = true;\n    }\n  }\n\n  /*\n  * Mark a box as distributed by the delivery service\n  */\n  function markBoxAsDistributed(uint256 _campaignId, uint256 _boxId) public {\n    SupplyChain storage supplychain = supplychains[_campaignId];\n\n    require(\n      (msg.sender == supplychain.stakeholders.delivery.owner) || (msg.sender == supplychain.stakeholders.butcher.owner), \n      \"Only the delivery service can mark a box as distributed\");\n    require(supplychain.areBoxesProcessed.butcher, \"Boxes must be prepared before being distributed\");\n\n    if (msg.sender == supplychain.stakeholders.butcher.owner) {\n      distributedBoxes[_campaignId][_boxId].butcher = true;\n      if(areBoxesDistributedFromButcher(_campaignId)) {\n        supplychain.areBoxesDistributed.butcher = true;\n      }\n    } else if (msg.sender == supplychain.stakeholders.delivery.owner) {\n      distributedBoxes[_campaignId][_boxId].delivery = true;\n      if (areBoxesDistributedToDelivery(_campaignId)) {\n        supplychain.areBoxesDistributed.delivery = true;\n      }\n    }\n\n    if (distributedBoxes[_campaignId][_boxId].butcher && distributedBoxes[_campaignId][_boxId].delivery) {\n      supplychain.distributedBoxes++;\n    }\n  }\n\n  /*\n  * Mark a box as delivered by the delivery service\n  */\n  function markBoxAsDelivered(uint256 _campaignId, uint256 _boxId) public {\n    SupplyChain storage supplychain = supplychains[_campaignId];\n\n    require(msg.sender == supplychain.stakeholders.delivery.owner, \"Only the delivery service can mark a box as delivered\");\n    require(\n      supplychain.areBoxesDistributed.butcher || supplychain.areBoxesDistributed.delivery, \n      \"Boxes must be distributed before being delivered\");\n    \n    deliveredBoxes[_campaignId][_boxId].delivery = true;\n    supplychain.deliveredBoxes++;\n\n    if(areBoxesDelivered(_campaignId)) {\n      supplychain.areBoxesDelivered.delivery = true;\n    }\n  }\n\n  /*\n  * Check if the supply chain is completed\n  */\n  function isCompleted(uint256 _campaignId) external view returns (bool) {\n    SupplyChain memory supplychain = supplychains[_campaignId];\n    return (\n      supplychain.isAnimalDelivered.farmer &&\n      supplychain.isAnimalDelivered.butcher &&\n      supplychain.isAnimalProcessed.butcher && \n      supplychain.areBoxesProcessed.butcher && \n      supplychain.areBoxesDistributed.butcher && \n      supplychain.areBoxesDistributed.delivery && \n      supplychain.areBoxesDelivered.delivery);\n  }\n\n  // ----- HELPER METHODS -----\n\n  /*\n  * Check if all boxes are processed by the butcher\n  */\n  function areBoxesProcessed(uint256 _campaignId) public view returns (bool) {\n    SupplyChain memory supplychain = supplychains[_campaignId];\n\n    for (uint256 index = 0; index < supplychain.totalBoxes; index++) {\n      if (!processedBoxes[_campaignId][index].butcher) {\n        return false;\n      }\n    }\n    return true;\n  }\n\n  /*\n  * Check if all boxes are distributed from the butcher\n  */\n  function areBoxesDistributedFromButcher(uint256 _campaignId) public view returns (bool) {\n    SupplyChain memory supplychain = supplychains[_campaignId];\n\n    for (uint256 index = 0; index < supplychain.totalBoxes; index++) {\n      if (!distributedBoxes[_campaignId][index].butcher) {\n        return false;\n      }\n    }\n    return true;\n  }\n\n  /*\n  * Check if all boxes are distributed to the delivery service\n  */\n  function areBoxesDistributedToDelivery(uint256 _campaignId) public view returns (bool) {\n    SupplyChain memory supplychain = supplychains[_campaignId];\n\n    for (uint256 index = 0; index < supplychain.totalBoxes; index++) {\n      if (!distributedBoxes[_campaignId][index].delivery) {\n        return false;\n      }\n    }\n    return true;\n  }\n\n  /*\n  * Check if all boxes are delivered by the delivery service\n  */\n  function areBoxesDelivered(uint256 _campaignId) public view returns (bool) {\n    SupplyChain memory supplychain = supplychains[_campaignId];\n\n    for (uint256 index = 0; index < supplychain.totalBoxes; index++) {\n      if (!deliveredBoxes[_campaignId][index].delivery) {\n        return false;\n      }\n    }\n    return true;\n  }\n\n  // ----- TESTING -----\n\n  /*\n  * Retrieve a supplychain by campaign id\n  */\n  function getSupplyChainById(uint256 _campaignId) public view returns (SupplyChain memory) {\n    return supplychains[_campaignId];\n  }\n\n  /*\n  * getBoxStatus: 0 = processed, 1 = distributed, 2 = delivered\n  */\n  function getBoxesStatus(uint256 _campaignId, uint8 mode) public view returns (bool[] memory) {\n    require(mode >= 0 && mode <= 2, \"Mode must be between 0 and 2\");\n    SupplyChain memory supplychain = supplychains[_campaignId];\n    bool[] memory boxesStatus = new bool[](supplychain.totalBoxes);\n    for (uint256 index = 0; index < supplychain.totalBoxes; index++) {\n      if (mode == 0) {\n        boxesStatus[index] = processedBoxes[_campaignId][index].butcher;\n      } else if (mode == 1) {\n        boxesStatus[index] = (distributedBoxes[_campaignId][index].butcher && distributedBoxes[_campaignId][index].delivery);\n      } else if (mode == 2) {\n        boxesStatus[index] = deliveredBoxes[_campaignId][index].delivery;\n      }\n    }\n    return boxesStatus;\n  }\n}\n",
  "sourcePath": "/Users/cassolseba/VSCode/blockchain/146157_Blockchain/smart_contracts/contracts/SupplyChains.sol",
  "compiler": {
    "name": "solc",
    "version": "0.8.13+commit.abaa5c0e.Emscripten.clang"
  },
  "schemaVersion": "3.4.14",
  "updatedAt": "2023-08-12T16:57:36.410Z",
  "devdoc": {
    "kind": "dev",
    "methods": {},
    "version": 1
  },
  "userdoc": {
    "kind": "user",
    "methods": {},
    "version": 1
  }
}