{
  "contractName": "SupplyChains",
  "abi": [
    {
      "inputs": [],
      "name": "NumberOfSupplyChains",
      "outputs": [
        {
          "internalType": "uint256",
          "name": "",
          "type": "uint256"
        }
      ],
      "stateMutability": "view",
      "type": "function"
    },
    {
      "inputs": [
        {
          "internalType": "uint256",
          "name": "",
          "type": "uint256"
        }
      ],
      "name": "supplychains",
      "outputs": [
        {
          "internalType": "uint256",
          "name": "campaignRef",
          "type": "uint256"
        },
        {
          "components": [
            {
              "internalType": "bool",
              "name": "farmer",
              "type": "bool"
            },
            {
              "internalType": "bool",
              "name": "butcher",
              "type": "bool"
            }
          ],
          "internalType": "struct AnimalDeliverStatus",
          "name": "isAnimalDelivered",
          "type": "tuple"
        },
        {
          "components": [
            {
              "internalType": "bool",
              "name": "butcher",
              "type": "bool"
            }
          ],
          "internalType": "struct AnimalProcessStatus",
          "name": "isAnimalProcessed",
          "type": "tuple"
        },
        {
          "components": [
            {
              "internalType": "bool",
              "name": "butcher",
              "type": "bool"
            }
          ],
          "internalType": "struct BoxProcessStatus",
          "name": "areBoxesProcessed",
          "type": "tuple"
        },
        {
          "components": [
            {
              "internalType": "bool",
              "name": "butcher",
              "type": "bool"
            },
            {
              "internalType": "bool",
              "name": "delivery",
              "type": "bool"
            }
          ],
          "internalType": "struct BoxDistributionStatus",
          "name": "areBoxesDistributed",
          "type": "tuple"
        },
        {
          "components": [
            {
              "internalType": "bool",
              "name": "delivery",
              "type": "bool"
            }
          ],
          "internalType": "struct BoxDeliveryStatus",
          "name": "areBoxesDelivered",
          "type": "tuple"
        },
        {
          "internalType": "uint256",
          "name": "totalBoxes",
          "type": "uint256"
        },
        {
          "internalType": "uint256",
          "name": "preparedBoxes",
          "type": "uint256"
        },
        {
          "internalType": "uint256",
          "name": "deliveredBoxes",
          "type": "uint256"
        },
        {
          "internalType": "uint256",
          "name": "receivedBoxes",
          "type": "uint256"
        },
        {
          "components": [
            {
              "components": [
                {
                  "internalType": "address payable",
                  "name": "owner",
                  "type": "address"
                },
                {
                  "internalType": "uint8",
                  "name": "share",
                  "type": "uint8"
                },
                {
                  "internalType": "string",
                  "name": "info",
                  "type": "string"
                }
              ],
              "internalType": "struct Stakeholder",
              "name": "farmer",
              "type": "tuple"
            },
            {
              "components": [
                {
                  "internalType": "address payable",
                  "name": "owner",
                  "type": "address"
                },
                {
                  "internalType": "uint8",
                  "name": "share",
                  "type": "uint8"
                },
                {
                  "internalType": "string",
                  "name": "info",
                  "type": "string"
                }
              ],
              "internalType": "struct Stakeholder",
              "name": "butcher",
              "type": "tuple"
            },
            {
              "components": [
                {
                  "internalType": "address payable",
                  "name": "owner",
                  "type": "address"
                },
                {
                  "internalType": "uint8",
                  "name": "share",
                  "type": "uint8"
                },
                {
                  "internalType": "string",
                  "name": "info",
                  "type": "string"
                }
              ],
              "internalType": "struct Stakeholder",
              "name": "delivery",
              "type": "tuple"
            }
          ],
          "internalType": "struct StakeholderList",
          "name": "stakeholders",
          "type": "tuple"
        }
      ],
      "stateMutability": "view",
      "type": "function"
    },
    {
      "inputs": [
        {
          "components": [
            {
              "internalType": "uint256",
              "name": "id",
              "type": "uint256"
            },
            {
              "components": [
                {
                  "internalType": "string",
                  "name": "title",
                  "type": "string"
                },
                {
                  "internalType": "string",
                  "name": "description",
                  "type": "string"
                },
                {
                  "internalType": "uint256",
                  "name": "deadline",
                  "type": "uint256"
                }
              ],
              "internalType": "struct CampaignInfo",
              "name": "info",
              "type": "tuple"
            },
            {
              "components": [
                {
                  "internalType": "uint256",
                  "name": "collectedAmount",
                  "type": "uint256"
                },
                {
                  "internalType": "uint256",
                  "name": "createdAt",
                  "type": "uint256"
                },
                {
                  "internalType": "uint256",
                  "name": "totalBoxes",
                  "type": "uint256"
                },
                {
                  "internalType": "uint256",
                  "name": "boxesSold",
                  "type": "uint256"
                },
                {
                  "internalType": "uint256",
                  "name": "totalBoxTypes",
                  "type": "uint256"
                },
                {
                  "internalType": "bool",
                  "name": "isStopped",
                  "type": "bool"
                }
              ],
              "internalType": "struct CampaignMeta",
              "name": "meta",
              "type": "tuple"
            },
            {
              "components": [
                {
                  "internalType": "address",
                  "name": "owner",
                  "type": "address"
                },
                {
                  "internalType": "string",
                  "name": "ownerPublicKey",
                  "type": "string"
                }
              ],
              "internalType": "struct CampaignOwner",
              "name": "owner",
              "type": "tuple"
            },
            {
              "components": [
                {
                  "internalType": "string",
                  "name": "earTag",
                  "type": "string"
                },
                {
                  "internalType": "string",
                  "name": "name",
                  "type": "string"
                },
                {
                  "internalType": "string",
                  "name": "farm",
                  "type": "string"
                },
                {
                  "internalType": "uint8",
                  "name": "age",
                  "type": "uint8"
                }
              ],
              "internalType": "struct CampaignAnimalData",
              "name": "animal",
              "type": "tuple"
            },
            {
              "components": [
                {
                  "components": [
                    {
                      "internalType": "address payable",
                      "name": "owner",
                      "type": "address"
                    },
                    {
                      "internalType": "uint8",
                      "name": "share",
                      "type": "uint8"
                    },
                    {
                      "internalType": "string",
                      "name": "info",
                      "type": "string"
                    }
                  ],
                  "internalType": "struct Stakeholder",
                  "name": "farmer",
                  "type": "tuple"
                },
                {
                  "components": [
                    {
                      "internalType": "address payable",
                      "name": "owner",
                      "type": "address"
                    },
                    {
                      "internalType": "uint8",
                      "name": "share",
                      "type": "uint8"
                    },
                    {
                      "internalType": "string",
                      "name": "info",
                      "type": "string"
                    }
                  ],
                  "internalType": "struct Stakeholder",
                  "name": "butcher",
                  "type": "tuple"
                },
                {
                  "components": [
                    {
                      "internalType": "address payable",
                      "name": "owner",
                      "type": "address"
                    },
                    {
                      "internalType": "uint8",
                      "name": "share",
                      "type": "uint8"
                    },
                    {
                      "internalType": "string",
                      "name": "info",
                      "type": "string"
                    }
                  ],
                  "internalType": "struct Stakeholder",
                  "name": "delivery",
                  "type": "tuple"
                }
              ],
              "internalType": "struct StakeholderList",
              "name": "stakeholders",
              "type": "tuple"
            }
          ],
          "internalType": "struct Campaign",
          "name": "_campaign",
          "type": "tuple"
        },
        {
          "components": [
            {
              "internalType": "uint256",
              "name": "id",
              "type": "uint256"
            },
            {
              "internalType": "uint256",
              "name": "boxId",
              "type": "uint256"
            },
            {
              "internalType": "address",
              "name": "owner",
              "type": "address"
            },
            {
              "internalType": "uint256",
              "name": "boughtAt",
              "type": "uint256"
            },
            {
              "internalType": "string",
              "name": "physAddress",
              "type": "string"
            }
          ],
          "internalType": "struct BoxSellRef[]",
          "name": "_boxes",
          "type": "tuple[]"
        }
      ],
      "name": "StartSupplyChain",
      "outputs": [],
      "stateMutability": "nonpayable",
      "type": "function"
    },
    {
      "inputs": [
        {
          "internalType": "uint256",
          "name": "_campaignId",
          "type": "uint256"
        }
      ],
      "name": "getSupplyChainById",
      "outputs": [
        {
          "components": [
            {
              "internalType": "uint256",
              "name": "campaignRef",
              "type": "uint256"
            },
            {
              "components": [
                {
                  "internalType": "bool",
                  "name": "farmer",
                  "type": "bool"
                },
                {
                  "internalType": "bool",
                  "name": "butcher",
                  "type": "bool"
                }
              ],
              "internalType": "struct AnimalDeliverStatus",
              "name": "isAnimalDelivered",
              "type": "tuple"
            },
            {
              "components": [
                {
                  "internalType": "bool",
                  "name": "butcher",
                  "type": "bool"
                }
              ],
              "internalType": "struct AnimalProcessStatus",
              "name": "isAnimalProcessed",
              "type": "tuple"
            },
            {
              "components": [
                {
                  "internalType": "bool",
                  "name": "butcher",
                  "type": "bool"
                }
              ],
              "internalType": "struct BoxProcessStatus",
              "name": "areBoxesProcessed",
              "type": "tuple"
            },
            {
              "components": [
                {
                  "internalType": "bool",
                  "name": "butcher",
                  "type": "bool"
                },
                {
                  "internalType": "bool",
                  "name": "delivery",
                  "type": "bool"
                }
              ],
              "internalType": "struct BoxDistributionStatus",
              "name": "areBoxesDistributed",
              "type": "tuple"
            },
            {
              "components": [
                {
                  "internalType": "bool",
                  "name": "delivery",
                  "type": "bool"
                }
              ],
              "internalType": "struct BoxDeliveryStatus",
              "name": "areBoxesDelivered",
              "type": "tuple"
            },
            {
              "internalType": "uint256",
              "name": "totalBoxes",
              "type": "uint256"
            },
            {
              "internalType": "uint256",
              "name": "preparedBoxes",
              "type": "uint256"
            },
            {
              "internalType": "uint256",
              "name": "deliveredBoxes",
              "type": "uint256"
            },
            {
              "internalType": "uint256",
              "name": "receivedBoxes",
              "type": "uint256"
            },
            {
              "components": [
                {
                  "components": [
                    {
                      "internalType": "address payable",
                      "name": "owner",
                      "type": "address"
                    },
                    {
                      "internalType": "uint8",
                      "name": "share",
                      "type": "uint8"
                    },
                    {
                      "internalType": "string",
                      "name": "info",
                      "type": "string"
                    }
                  ],
                  "internalType": "struct Stakeholder",
                  "name": "farmer",
                  "type": "tuple"
                },
                {
                  "components": [
                    {
                      "internalType": "address payable",
                      "name": "owner",
                      "type": "address"
                    },
                    {
                      "internalType": "uint8",
                      "name": "share",
                      "type": "uint8"
                    },
                    {
                      "internalType": "string",
                      "name": "info",
                      "type": "string"
                    }
                  ],
                  "internalType": "struct Stakeholder",
                  "name": "butcher",
                  "type": "tuple"
                },
                {
                  "components": [
                    {
                      "internalType": "address payable",
                      "name": "owner",
                      "type": "address"
                    },
                    {
                      "internalType": "uint8",
                      "name": "share",
                      "type": "uint8"
                    },
                    {
                      "internalType": "string",
                      "name": "info",
                      "type": "string"
                    }
                  ],
                  "internalType": "struct Stakeholder",
                  "name": "delivery",
                  "type": "tuple"
                }
              ],
              "internalType": "struct StakeholderList",
              "name": "stakeholders",
              "type": "tuple"
            }
          ],
          "internalType": "struct SupplyChain",
          "name": "",
          "type": "tuple"
        }
      ],
      "stateMutability": "view",
      "type": "function"
    },
    {
      "inputs": [
        {
          "internalType": "uint256",
          "name": "_campaignId",
          "type": "uint256"
        },
        {
          "internalType": "uint8",
          "name": "mode",
          "type": "uint8"
        }
      ],
      "name": "getBoxesStatus",
      "outputs": [
        {
          "internalType": "bool[]",
          "name": "",
          "type": "bool[]"
        }
      ],
      "stateMutability": "view",
      "type": "function"
    },
    {
      "inputs": [
        {
          "internalType": "uint256",
          "name": "_campaignId",
          "type": "uint256"
        }
      ],
      "name": "markAnimalAsDelivered",
      "outputs": [],
      "stateMutability": "nonpayable",
      "type": "function"
    },
    {
      "inputs": [
        {
          "internalType": "uint256",
          "name": "_campaignId",
          "type": "uint256"
        }
      ],
      "name": "markAnimalAsProcessed",
      "outputs": [],
      "stateMutability": "nonpayable",
      "type": "function"
    },
    {
      "inputs": [
        {
          "internalType": "uint256",
          "name": "_campaignId",
          "type": "uint256"
        },
        {
          "internalType": "uint256",
          "name": "_boxId",
          "type": "uint256"
        }
      ],
      "name": "markBoxAsProcessed",
      "outputs": [],
      "stateMutability": "nonpayable",
      "type": "function"
    },
    {
      "inputs": [
        {
          "internalType": "uint256",
          "name": "_campaignId",
          "type": "uint256"
        },
        {
          "internalType": "uint256",
          "name": "_boxId",
          "type": "uint256"
        }
      ],
      "name": "markBoxAsDistributed",
      "outputs": [],
      "stateMutability": "nonpayable",
      "type": "function"
    },
    {
      "inputs": [
        {
          "internalType": "uint256",
          "name": "_campaignId",
          "type": "uint256"
        },
        {
          "internalType": "uint256",
          "name": "_boxId",
          "type": "uint256"
        }
      ],
      "name": "markBoxAsDelivered",
      "outputs": [],
      "stateMutability": "nonpayable",
      "type": "function"
    },
    {
      "inputs": [
        {
          "internalType": "uint256",
          "name": "_campaignId",
          "type": "uint256"
        }
      ],
      "name": "isCompleted",
      "outputs": [
        {
          "internalType": "bool",
          "name": "",
          "type": "bool"
        }
      ],
      "stateMutability": "view",
      "type": "function"
    },
    {
      "inputs": [
        {
          "internalType": "uint256",
          "name": "_campaignId",
          "type": "uint256"
        }
      ],
      "name": "areBoxesProcessed",
      "outputs": [
        {
          "internalType": "bool",
          "name": "",
          "type": "bool"
        }
      ],
      "stateMutability": "view",
      "type": "function"
    },
    {
      "inputs": [
        {
          "internalType": "uint256",
          "name": "_campaignId",
          "type": "uint256"
        }
      ],
      "name": "areBoxesDistributedFromButcher",
      "outputs": [
        {
          "internalType": "bool",
          "name": "",
          "type": "bool"
        }
      ],
      "stateMutability": "view",
      "type": "function"
    },
    {
      "inputs": [
        {
          "internalType": "uint256",
          "name": "_campaignId",
          "type": "uint256"
        }
      ],
      "name": "areBoxesDistributedToDelivery",
      "outputs": [
        {
          "internalType": "bool",
          "name": "",
          "type": "bool"
        }
      ],
      "stateMutability": "view",
      "type": "function"
    },
    {
      "inputs": [
        {
          "internalType": "uint256",
          "name": "_campaignId",
          "type": "uint256"
        }
      ],
      "name": "areBoxesDelivered",
      "outputs": [
        {
          "internalType": "bool",
          "name": "",
          "type": "bool"
        }
      ],
      "stateMutability": "view",
      "type": "function"
    }
  ],
  "bytecode": "0x6080604052600060045534801561001557600080fd5b5061567e80620000266000396000f3fe608060405234801561001057600080fd5b50600436106100f55760003560e01c80637a41984b11610097578063d1d9e7c011610066578063d1d9e7c014610292578063e7252434146102b0578063e9368de9146102e0578063f9df43461461031a576100f5565b80637a41984b146101e65780639295a9f714610216578063aab83dec14610246578063c58c782c14610276576100f5565b80633afe2109116100d35780633afe2109146101625780633d709a291461017e578063692799dc1461019a5780636f439b46146101ca576100f5565b80630aab769e146100fa578063154a9fe11461012a578063280f894914610146575b600080fd5b610114600480360381019061010f9190613ecb565b61034a565b6040516101219190613f13565b60405180910390f35b610144600480360381019061013f9190613ecb565b610891565b005b610160600480360381019061015b9190613f2e565b6109d4565b005b61017c60048036038101906101779190613f2e565b610b66565b005b6101986004803603810190610193919061480d565b610e6c565b005b6101b460048036038101906101af9190613ecb565b611327565b6040516101c19190613f13565b60405180910390f35b6101e460048036038101906101df9190613ecb565b61186e565b005b61020060048036038101906101fb9190613ecb565b611a81565b60405161020d9190613f13565b60405180910390f35b610230600480360381019061022b9190613ecb565b611fcd565b60405161023d9190613f13565b60405180910390f35b610260600480360381019061025b9190613ecb565b612514565b60405161026d9190614b9a565b60405180910390f35b610290600480360381019061028b9190613f2e565b6129f3565b005b61029a612b68565b6040516102a79190614bcb565b60405180910390f35b6102ca60048036038101906102c59190613ecb565b612b6e565b6040516102d79190613f13565b60405180910390f35b6102fa60048036038101906102f59190613ecb565b6130b5565b6040516103119b9a99989796959493929190614cf6565b60405180910390f35b610334600480360381019061032f9190614daa565b613553565b6040516103419190614e99565b60405180910390f35b6000806000808481526020019081526020016000206040518061016001604052908160008201548152602001600182016040518060400160405290816000820160009054906101000a900460ff161515151581526020016000820160019054906101000a900460ff1615151515815250508152602001600282016040518060200160405290816000820160009054906101000a900460ff1615151515815250508152602001600382016040518060200160405290816000820160009054906101000a900460ff1615151515815250508152602001600482016040518060400160405290816000820160009054906101000a900460ff161515151581526020016000820160019054906101000a900460ff1615151515815250508152602001600582016040518060200160405290816000820160009054906101000a900460ff161515151581525050815260200160068201548152602001600782015481526020016008820154815260200160098201548152602001600a8201604051806060016040529081600082016040518060600160405290816000820160009054906101000a900473ffffffffffffffffffffffffffffffffffffffff1673ffffffffffffffffffffffffffffffffffffffff1673ffffffffffffffffffffffffffffffffffffffff1681526020016000820160149054906101000a900460ff1660ff1660ff16815260200160018201805461056190614eea565b80601f016020809104026020016040519081016040528092919081815260200182805461058d90614eea565b80156105da5780601f106105af576101008083540402835291602001916105da565b820191906000526020600020905b8154815290600101906020018083116105bd57829003601f168201915b5050505050815250508152602001600282016040518060600160405290816000820160009054906101000a900473ffffffffffffffffffffffffffffffffffffffff1673ffffffffffffffffffffffffffffffffffffffff1673ffffffffffffffffffffffffffffffffffffffff1681526020016000820160149054906101000a900460ff1660ff1660ff16815260200160018201805461067a90614eea565b80601f01602080910402602001604051908101604052809291908181526020018280546106a690614eea565b80156106f35780601f106106c8576101008083540402835291602001916106f3565b820191906000526020600020905b8154815290600101906020018083116106d657829003601f168201915b5050505050815250508152602001600482016040518060600160405290816000820160009054906101000a900473ffffffffffffffffffffffffffffffffffffffff1673ffffffffffffffffffffffffffffffffffffffff1673ffffffffffffffffffffffffffffffffffffffff1681526020016000820160149054906101000a900460ff1660ff1660ff16815260200160018201805461079390614eea565b80601f01602080910402602001604051908101604052809291908181526020018280546107bf90614eea565b801561080c5780601f106107e15761010080835404028352916020019161080c565b820191906000526020600020905b8154815290600101906020018083116107ef57829003601f168201915b5050505050815250508152505081525050905060005b8160c001518110156108855760016000858152602001908152602001600020600082815260200190815260200160002060000160009054906101000a900460ff166108725760009250505061088c565b808061087d90614f4a565b915050610822565b5060019150505b919050565b6000806000838152602001908152602001600020905080600a0160020160000160009054906101000a900473ffffffffffffffffffffffffffffffffffffffff1673ffffffffffffffffffffffffffffffffffffffff163373ffffffffffffffffffffffffffffffffffffffff161461093f576040517f08c379a000000000000000000000000000000000000000000000000000000000815260040161093690615015565b60405180910390fd5b8060010160000160019054906101000a900460ff16801561097157508060010160000160009054906101000a900460ff165b6109b0576040517f08c379a00000000000000000000000000000000000000000000000000000000081526004016109a7906150a7565b60405180910390fd5b60018160020160000160006101000a81548160ff0219169083151502179055505050565b6000806000848152602001908152602001600020905080600a0160040160000160009054906101000a900473ffffffffffffffffffffffffffffffffffffffff1673ffffffffffffffffffffffffffffffffffffffff163373ffffffffffffffffffffffffffffffffffffffff1614610a82576040517f08c379a0000000000000000000000000000000000000000000000000000000008152600401610a7990615139565b60405180910390fd5b8060040160000160009054906101000a900460ff1680610ab357508060040160000160019054906101000a900460ff165b610af2576040517f08c379a0000000000000000000000000000000000000000000000000000000008152600401610ae9906151cb565b60405180910390fd5b600160036000858152602001908152602001600020600084815260200190815260200160002060000160006101000a81548160ff021916908315150217905550610b3b83611fcd565b15610b615760018160050160000160006101000a81548160ff0219169083151502179055505b505050565b6000806000848152602001908152602001600020905080600a0160040160000160009054906101000a900473ffffffffffffffffffffffffffffffffffffffff1673ffffffffffffffffffffffffffffffffffffffff163373ffffffffffffffffffffffffffffffffffffffff161480610c35575080600a0160020160000160009054906101000a900473ffffffffffffffffffffffffffffffffffffffff1673ffffffffffffffffffffffffffffffffffffffff163373ffffffffffffffffffffffffffffffffffffffff16145b610c74576040517f08c379a0000000000000000000000000000000000000000000000000000000008152600401610c6b9061525d565b60405180910390fd5b8060030160000160009054906101000a900460ff16610cc8576040517f08c379a0000000000000000000000000000000000000000000000000000000008152600401610cbf906152ef565b60405180910390fd5b80600a0160020160000160009054906101000a900473ffffffffffffffffffffffffffffffffffffffff1673ffffffffffffffffffffffffffffffffffffffff163373ffffffffffffffffffffffffffffffffffffffff1603610d9957600160026000858152602001908152602001600020600084815260200190815260200160002060000160006101000a81548160ff021916908315150217905550610d6e83612b6e565b15610d945760018160040160000160006101000a81548160ff0219169083151502179055505b610e67565b80600a0160040160000160009054906101000a900473ffffffffffffffffffffffffffffffffffffffff1673ffffffffffffffffffffffffffffffffffffffff163373ffffffffffffffffffffffffffffffffffffffff1603610e6657600160026000858152602001908152602001600020600084815260200190815260200160002060000160016101000a81548160ff021916908315150217905550610e3f83611327565b15610e655760018160040160000160016101000a81548160ff0219169083151502179055505b5b5b505050565b60008060008460000151815260200190815260200160002090508260000151816000018190555060008160010160000160016101000a81548160ff02191690831515021790555060008160010160000160006101000a81548160ff02191690831515021790555060008160020160000160006101000a81548160ff02191690831515021790555060008160030160000160006101000a81548160ff02191690831515021790555060008160040160000160006101000a81548160ff02191690831515021790555060008160040160000160016101000a81548160ff02191690831515021790555060008160050160000160006101000a81548160ff0219169083151502179055506000805b83518110156110e2576000848281518110610f9557610f9461530f565b5b60200260200101519050600183610fac919061533e565b92506000600160008860000151815260200190815260200160002060008360000151815260200190815260200160002060000160006101000a81548160ff0219169083151502179055506000600260008860000151815260200190815260200160002060008360000151815260200190815260200160002060000160006101000a81548160ff0219169083151502179055506000600260008860000151815260200190815260200160002060008360000151815260200190815260200160002060000160016101000a81548160ff0219169083151502179055506000600360008860000151815260200190815260200160002060008360000151815260200190815260200160002060000160006101000a81548160ff0219169083151502179055505080806110da90614f4a565b915050610f77565b5060008111611126576040517f08c379a000000000000000000000000000000000000000000000000000000000815260040161111d90615406565b60405180910390fd5b8082600601819055506000826007018190555060008260080181905550600082600901819055508360a0015182600a0160008201518160000160008201518160000160006101000a81548173ffffffffffffffffffffffffffffffffffffffff021916908373ffffffffffffffffffffffffffffffffffffffff16021790555060208201518160000160146101000a81548160ff021916908360ff16021790555060408201518160010190805190602001906111e3929190613c78565b50505060208201518160020160008201518160000160006101000a81548173ffffffffffffffffffffffffffffffffffffffff021916908373ffffffffffffffffffffffffffffffffffffffff16021790555060208201518160000160146101000a81548160ff021916908360ff1602179055506040820151816001019080519060200190611273929190613c78565b50505060408201518160040160008201518160000160006101000a81548173ffffffffffffffffffffffffffffffffffffffff021916908373ffffffffffffffffffffffffffffffffffffffff16021790555060208201518160000160146101000a81548160ff021916908360ff1602179055506040820151816001019080519060200190611303929190613c78565b5050509050506004600081548092919061131c90614f4a565b919050555050505050565b6000806000808481526020019081526020016000206040518061016001604052908160008201548152602001600182016040518060400160405290816000820160009054906101000a900460ff161515151581526020016000820160019054906101000a900460ff1615151515815250508152602001600282016040518060200160405290816000820160009054906101000a900460ff1615151515815250508152602001600382016040518060200160405290816000820160009054906101000a900460ff1615151515815250508152602001600482016040518060400160405290816000820160009054906101000a900460ff161515151581526020016000820160019054906101000a900460ff1615151515815250508152602001600582016040518060200160405290816000820160009054906101000a900460ff161515151581525050815260200160068201548152602001600782015481526020016008820154815260200160098201548152602001600a8201604051806060016040529081600082016040518060600160405290816000820160009054906101000a900473ffffffffffffffffffffffffffffffffffffffff1673ffffffffffffffffffffffffffffffffffffffff1673ffffffffffffffffffffffffffffffffffffffff1681526020016000820160149054906101000a900460ff1660ff1660ff16815260200160018201805461153e90614eea565b80601f016020809104026020016040519081016040528092919081815260200182805461156a90614eea565b80156115b75780601f1061158c576101008083540402835291602001916115b7565b820191906000526020600020905b81548152906001019060200180831161159a57829003601f168201915b5050505050815250508152602001600282016040518060600160405290816000820160009054906101000a900473ffffffffffffffffffffffffffffffffffffffff1673ffffffffffffffffffffffffffffffffffffffff1673ffffffffffffffffffffffffffffffffffffffff1681526020016000820160149054906101000a900460ff1660ff1660ff16815260200160018201805461165790614eea565b80601f016020809104026020016040519081016040528092919081815260200182805461168390614eea565b80156116d05780601f106116a5576101008083540402835291602001916116d0565b820191906000526020600020905b8154815290600101906020018083116116b357829003601f168201915b5050505050815250508152602001600482016040518060600160405290816000820160009054906101000a900473ffffffffffffffffffffffffffffffffffffffff1673ffffffffffffffffffffffffffffffffffffffff1673ffffffffffffffffffffffffffffffffffffffff1681526020016000820160149054906101000a900460ff1660ff1660ff16815260200160018201805461177090614eea565b80601f016020809104026020016040519081016040528092919081815260200182805461179c90614eea565b80156117e95780601f106117be576101008083540402835291602001916117e9565b820191906000526020600020905b8154815290600101906020018083116117cc57829003601f168201915b5050505050815250508152505081525050905060005b8160c001518110156118625760026000858152602001908152602001600020600082815260200190815260200160002060000160019054906101000a900460ff1661184f57600092505050611869565b808061185a90614f4a565b9150506117ff565b5060019150505b919050565b6000806000838152602001908152602001600020905080600a0160000160000160009054906101000a900473ffffffffffffffffffffffffffffffffffffffff1673ffffffffffffffffffffffffffffffffffffffff163373ffffffffffffffffffffffffffffffffffffffff16148061193d575080600a0160020160000160009054906101000a900473ffffffffffffffffffffffffffffffffffffffff1673ffffffffffffffffffffffffffffffffffffffff163373ffffffffffffffffffffffffffffffffffffffff16145b61197c576040517f08c379a000000000000000000000000000000000000000000000000000000000815260040161197390615498565b60405180910390fd5b80600a0160000160000160009054906101000a900473ffffffffffffffffffffffffffffffffffffffff1673ffffffffffffffffffffffffffffffffffffffff163373ffffffffffffffffffffffffffffffffffffffff16036119fe5760018160010160000160006101000a81548160ff021916908315150217905550611a7d565b80600a0160020160000160009054906101000a900473ffffffffffffffffffffffffffffffffffffffff1673ffffffffffffffffffffffffffffffffffffffff163373ffffffffffffffffffffffffffffffffffffffff1603611a7c5760018160010160000160016101000a81548160ff0219169083151502179055505b5b5050565b6000806000808481526020019081526020016000206040518061016001604052908160008201548152602001600182016040518060400160405290816000820160009054906101000a900460ff161515151581526020016000820160019054906101000a900460ff1615151515815250508152602001600282016040518060200160405290816000820160009054906101000a900460ff1615151515815250508152602001600382016040518060200160405290816000820160009054906101000a900460ff1615151515815250508152602001600482016040518060400160405290816000820160009054906101000a900460ff161515151581526020016000820160019054906101000a900460ff1615151515815250508152602001600582016040518060200160405290816000820160009054906101000a900460ff161515151581525050815260200160068201548152602001600782015481526020016008820154815260200160098201548152602001600a8201604051806060016040529081600082016040518060600160405290816000820160009054906101000a900473ffffffffffffffffffffffffffffffffffffffff1673ffffffffffffffffffffffffffffffffffffffff1673ffffffffffffffffffffffffffffffffffffffff1681526020016000820160149054906101000a900460ff1660ff1660ff168152602001600182018054611c9890614eea565b80601f0160208091040260200160405190810160405280929190818152602001828054611cc490614eea565b8015611d115780601f10611ce657610100808354040283529160200191611d11565b820191906000526020600020905b815481529060010190602001808311611cf457829003601f168201915b5050505050815250508152602001600282016040518060600160405290816000820160009054906101000a900473ffffffffffffffffffffffffffffffffffffffff1673ffffffffffffffffffffffffffffffffffffffff1673ffffffffffffffffffffffffffffffffffffffff1681526020016000820160149054906101000a900460ff1660ff1660ff168152602001600182018054611db190614eea565b80601f0160208091040260200160405190810160405280929190818152602001828054611ddd90614eea565b8015611e2a5780601f10611dff57610100808354040283529160200191611e2a565b820191906000526020600020905b815481529060010190602001808311611e0d57829003601f168201915b5050505050815250508152602001600482016040518060600160405290816000820160009054906101000a900473ffffffffffffffffffffffffffffffffffffffff1673ffffffffffffffffffffffffffffffffffffffff1673ffffffffffffffffffffffffffffffffffffffff1681526020016000820160149054906101000a900460ff1660ff1660ff168152602001600182018054611eca90614eea565b80601f0160208091040260200160405190810160405280929190818152602001828054611ef690614eea565b8015611f435780601f10611f1857610100808354040283529160200191611f43565b820191906000526020600020905b815481529060010190602001808311611f2657829003601f168201915b505050505081525050815250508152505090508060200151600001518015611f7057508060200151602001515b8015611f8157508060400151600001515b8015611f9257508060600151600001515b8015611fa357508060800151600001515b8015611fb457508060800151602001515b8015611fc557508060a00151600001515b915050919050565b6000806000808481526020019081526020016000206040518061016001604052908160008201548152602001600182016040518060400160405290816000820160009054906101000a900460ff161515151581526020016000820160019054906101000a900460ff1615151515815250508152602001600282016040518060200160405290816000820160009054906101000a900460ff1615151515815250508152602001600382016040518060200160405290816000820160009054906101000a900460ff1615151515815250508152602001600482016040518060400160405290816000820160009054906101000a900460ff161515151581526020016000820160019054906101000a900460ff1615151515815250508152602001600582016040518060200160405290816000820160009054906101000a900460ff161515151581525050815260200160068201548152602001600782015481526020016008820154815260200160098201548152602001600a8201604051806060016040529081600082016040518060600160405290816000820160009054906101000a900473ffffffffffffffffffffffffffffffffffffffff1673ffffffffffffffffffffffffffffffffffffffff1673ffffffffffffffffffffffffffffffffffffffff1681526020016000820160149054906101000a900460ff1660ff1660ff1681526020016001820180546121e490614eea565b80601f016020809104026020016040519081016040528092919081815260200182805461221090614eea565b801561225d5780601f106122325761010080835404028352916020019161225d565b820191906000526020600020905b81548152906001019060200180831161224057829003601f168201915b5050505050815250508152602001600282016040518060600160405290816000820160009054906101000a900473ffffffffffffffffffffffffffffffffffffffff1673ffffffffffffffffffffffffffffffffffffffff1673ffffffffffffffffffffffffffffffffffffffff1681526020016000820160149054906101000a900460ff1660ff1660ff1681526020016001820180546122fd90614eea565b80601f016020809104026020016040519081016040528092919081815260200182805461232990614eea565b80156123765780601f1061234b57610100808354040283529160200191612376565b820191906000526020600020905b81548152906001019060200180831161235957829003601f168201915b5050505050815250508152602001600482016040518060600160405290816000820160009054906101000a900473ffffffffffffffffffffffffffffffffffffffff1673ffffffffffffffffffffffffffffffffffffffff1673ffffffffffffffffffffffffffffffffffffffff1681526020016000820160149054906101000a900460ff1660ff1660ff16815260200160018201805461241690614eea565b80601f016020809104026020016040519081016040528092919081815260200182805461244290614eea565b801561248f5780601f106124645761010080835404028352916020019161248f565b820191906000526020600020905b81548152906001019060200180831161247257829003601f168201915b5050505050815250508152505081525050905060005b8160c001518110156125085760036000858152602001908152602001600020600082815260200190815260200160002060000160009054906101000a900460ff166124f55760009250505061250f565b808061250090614f4a565b9150506124a5565b5060019150505b919050565b61251c613cfe565b6000808381526020019081526020016000206040518061016001604052908160008201548152602001600182016040518060400160405290816000820160009054906101000a900460ff161515151581526020016000820160019054906101000a900460ff1615151515815250508152602001600282016040518060200160405290816000820160009054906101000a900460ff1615151515815250508152602001600382016040518060200160405290816000820160009054906101000a900460ff1615151515815250508152602001600482016040518060400160405290816000820160009054906101000a900460ff161515151581526020016000820160019054906101000a900460ff1615151515815250508152602001600582016040518060200160405290816000820160009054906101000a900460ff161515151581525050815260200160068201548152602001600782015481526020016008820154815260200160098201548152602001600a8201604051806060016040529081600082016040518060600160405290816000820160009054906101000a900473ffffffffffffffffffffffffffffffffffffffff1673ffffffffffffffffffffffffffffffffffffffff1673ffffffffffffffffffffffffffffffffffffffff1681526020016000820160149054906101000a900460ff1660ff1660ff16815260200160018201805461273090614eea565b80601f016020809104026020016040519081016040528092919081815260200182805461275c90614eea565b80156127a95780601f1061277e576101008083540402835291602001916127a9565b820191906000526020600020905b81548152906001019060200180831161278c57829003601f168201915b5050505050815250508152602001600282016040518060600160405290816000820160009054906101000a900473ffffffffffffffffffffffffffffffffffffffff1673ffffffffffffffffffffffffffffffffffffffff1673ffffffffffffffffffffffffffffffffffffffff1681526020016000820160149054906101000a900460ff1660ff1660ff16815260200160018201805461284990614eea565b80601f016020809104026020016040519081016040528092919081815260200182805461287590614eea565b80156128c25780601f10612897576101008083540402835291602001916128c2565b820191906000526020600020905b8154815290600101906020018083116128a557829003601f168201915b5050505050815250508152602001600482016040518060600160405290816000820160009054906101000a900473ffffffffffffffffffffffffffffffffffffffff1673ffffffffffffffffffffffffffffffffffffffff1673ffffffffffffffffffffffffffffffffffffffff1681526020016000820160149054906101000a900460ff1660ff1660ff16815260200160018201805461296290614eea565b80601f016020809104026020016040519081016040528092919081815260200182805461298e90614eea565b80156129db5780601f106129b0576101008083540402835291602001916129db565b820191906000526020600020905b8154815290600101906020018083116129be57829003601f168201915b50505050508152505081525050815250509050919050565b6000806000848152602001908152602001600020905080600a0160020160000160009054906101000a900473ffffffffffffffffffffffffffffffffffffffff1673ffffffffffffffffffffffffffffffffffffffff163373ffffffffffffffffffffffffffffffffffffffff1614612aa1576040517f08c379a0000000000000000000000000000000000000000000000000000000008152600401612a989061552a565b60405180910390fd5b8060020160000160009054906101000a900460ff16612af5576040517f08c379a0000000000000000000000000000000000000000000000000000000008152600401612aec906155bc565b60405180910390fd5b6001806000858152602001908152602001600020600084815260200190815260200160002060000160006101000a81548160ff021916908315150217905550612b3d8361034a565b15612b635760018160030160000160006101000a81548160ff0219169083151502179055505b505050565b60045481565b6000806000808481526020019081526020016000206040518061016001604052908160008201548152602001600182016040518060400160405290816000820160009054906101000a900460ff161515151581526020016000820160019054906101000a900460ff1615151515815250508152602001600282016040518060200160405290816000820160009054906101000a900460ff1615151515815250508152602001600382016040518060200160405290816000820160009054906101000a900460ff1615151515815250508152602001600482016040518060400160405290816000820160009054906101000a900460ff161515151581526020016000820160019054906101000a900460ff1615151515815250508152602001600582016040518060200160405290816000820160009054906101000a900460ff161515151581525050815260200160068201548152602001600782015481526020016008820154815260200160098201548152602001600a8201604051806060016040529081600082016040518060600160405290816000820160009054906101000a900473ffffffffffffffffffffffffffffffffffffffff1673ffffffffffffffffffffffffffffffffffffffff1673ffffffffffffffffffffffffffffffffffffffff1681526020016000820160149054906101000a900460ff1660ff1660ff168152602001600182018054612d8590614eea565b80601f0160208091040260200160405190810160405280929190818152602001828054612db190614eea565b8015612dfe5780601f10612dd357610100808354040283529160200191612dfe565b820191906000526020600020905b815481529060010190602001808311612de157829003601f168201915b5050505050815250508152602001600282016040518060600160405290816000820160009054906101000a900473ffffffffffffffffffffffffffffffffffffffff1673ffffffffffffffffffffffffffffffffffffffff1673ffffffffffffffffffffffffffffffffffffffff1681526020016000820160149054906101000a900460ff1660ff1660ff168152602001600182018054612e9e90614eea565b80601f0160208091040260200160405190810160405280929190818152602001828054612eca90614eea565b8015612f175780601f10612eec57610100808354040283529160200191612f17565b820191906000526020600020905b815481529060010190602001808311612efa57829003601f168201915b5050505050815250508152602001600482016040518060600160405290816000820160009054906101000a900473ffffffffffffffffffffffffffffffffffffffff1673ffffffffffffffffffffffffffffffffffffffff1673ffffffffffffffffffffffffffffffffffffffff1681526020016000820160149054906101000a900460ff1660ff1660ff168152602001600182018054612fb790614eea565b80601f0160208091040260200160405190810160405280929190818152602001828054612fe390614eea565b80156130305780601f1061300557610100808354040283529160200191613030565b820191906000526020600020905b81548152906001019060200180831161301357829003601f168201915b5050505050815250508152505081525050905060005b8160c001518110156130a95760026000858152602001908152602001600020600082815260200190815260200160002060000160009054906101000a900460ff16613096576000925050506130b0565b80806130a190614f4a565b915050613046565b5060019150505b919050565b6000602052806000526040600020600091509050806000015490806001016040518060400160405290816000820160009054906101000a900460ff161515151581526020016000820160019054906101000a900460ff16151515158152505090806002016040518060200160405290816000820160009054906101000a900460ff16151515158152505090806003016040518060200160405290816000820160009054906101000a900460ff16151515158152505090806004016040518060400160405290816000820160009054906101000a900460ff161515151581526020016000820160019054906101000a900460ff16151515158152505090806005016040518060200160405290816000820160009054906101000a900460ff1615151515815250509080600601549080600701549080600801549080600901549080600a01604051806060016040529081600082016040518060600160405290816000820160009054906101000a900473ffffffffffffffffffffffffffffffffffffffff1673ffffffffffffffffffffffffffffffffffffffff1673ffffffffffffffffffffffffffffffffffffffff1681526020016000820160149054906101000a900460ff1660ff1660ff16815260200160018201805461329690614eea565b80601f01602080910402602001604051908101604052809291908181526020018280546132c290614eea565b801561330f5780601f106132e45761010080835404028352916020019161330f565b820191906000526020600020905b8154815290600101906020018083116132f257829003601f168201915b5050505050815250508152602001600282016040518060600160405290816000820160009054906101000a900473ffffffffffffffffffffffffffffffffffffffff1673ffffffffffffffffffffffffffffffffffffffff1673ffffffffffffffffffffffffffffffffffffffff1681526020016000820160149054906101000a900460ff1660ff1660ff1681526020016001820180546133af90614eea565b80601f01602080910402602001604051908101604052809291908181526020018280546133db90614eea565b80156134285780601f106133fd57610100808354040283529160200191613428565b820191906000526020600020905b81548152906001019060200180831161340b57829003601f168201915b5050505050815250508152602001600482016040518060600160405290816000820160009054906101000a900473ffffffffffffffffffffffffffffffffffffffff1673ffffffffffffffffffffffffffffffffffffffff1673ffffffffffffffffffffffffffffffffffffffff1681526020016000820160149054906101000a900460ff1660ff1660ff1681526020016001820180546134c890614eea565b80601f01602080910402602001604051908101604052809291908181526020018280546134f490614eea565b80156135415780601f1061351657610100808354040283529160200191613541565b820191906000526020600020905b81548152906001019060200180831161352457829003601f168201915b5050505050815250508152505090508b565b606060008260ff161015801561356d575060028260ff1611155b6135ac576040517f08c379a00000000000000000000000000000000000000000000000000000000081526004016135a390615628565b60405180910390fd5b60008060008581526020019081526020016000206040518061016001604052908160008201548152602001600182016040518060400160405290816000820160009054906101000a900460ff161515151581526020016000820160019054906101000a900460ff1615151515815250508152602001600282016040518060200160405290816000820160009054906101000a900460ff1615151515815250508152602001600382016040518060200160405290816000820160009054906101000a900460ff1615151515815250508152602001600482016040518060400160405290816000820160009054906101000a900460ff161515151581526020016000820160019054906101000a900460ff1615151515815250508152602001600582016040518060200160405290816000820160009054906101000a900460ff161515151581525050815260200160068201548152602001600782015481526020016008820154815260200160098201548152602001600a8201604051806060016040529081600082016040518060600160405290816000820160009054906101000a900473ffffffffffffffffffffffffffffffffffffffff1673ffffffffffffffffffffffffffffffffffffffff1673ffffffffffffffffffffffffffffffffffffffff1681526020016000820160149054906101000a900460ff1660ff1660ff1681526020016001820180546137c290614eea565b80601f01602080910402602001604051908101604052809291908181526020018280546137ee90614eea565b801561383b5780601f106138105761010080835404028352916020019161383b565b820191906000526020600020905b81548152906001019060200180831161381e57829003601f168201915b5050505050815250508152602001600282016040518060600160405290816000820160009054906101000a900473ffffffffffffffffffffffffffffffffffffffff1673ffffffffffffffffffffffffffffffffffffffff1673ffffffffffffffffffffffffffffffffffffffff1681526020016000820160149054906101000a900460ff1660ff1660ff1681526020016001820180546138db90614eea565b80601f016020809104026020016040519081016040528092919081815260200182805461390790614eea565b80156139545780601f1061392957610100808354040283529160200191613954565b820191906000526020600020905b81548152906001019060200180831161393757829003601f168201915b5050505050815250508152602001600482016040518060600160405290816000820160009054906101000a900473ffffffffffffffffffffffffffffffffffffffff1673ffffffffffffffffffffffffffffffffffffffff1673ffffffffffffffffffffffffffffffffffffffff1681526020016000820160149054906101000a900460ff1660ff1660ff1681526020016001820180546139f490614eea565b80601f0160208091040260200160405190810160405280929190818152602001828054613a2090614eea565b8015613a6d5780601f10613a4257610100808354040283529160200191613a6d565b820191906000526020600020905b815481529060010190602001808311613a5057829003601f168201915b5050505050815250508152505081525050905060008160c0015167ffffffffffffffff811115613aa057613a9f613f84565b5b604051908082528060200260200182016040528015613ace5781602001602082028036833780820191505090505b50905060005b8260c00151811015613c6c5760008560ff1603613b4a5760016000878152602001908152602001600020600082815260200190815260200160002060000160009054906101000a900460ff16828281518110613b3357613b3261530f565b5b602002602001019015159081151581525050613c59565b60018560ff1603613bf15760026000878152602001908152602001600020600082815260200190815260200160002060000160009054906101000a900460ff168015613bc7575060026000878152602001908152602001600020600082815260200190815260200160002060000160019054906101000a900460ff165b828281518110613bda57613bd961530f565b5b602002602001019015159081151581525050613c58565b60028560ff1603613c575760036000878152602001908152602001600020600082815260200190815260200160002060000160009054906101000a900460ff16828281518110613c4457613c4361530f565b5b6020026020010190151590811515815250505b5b5b8080613c6490614f4a565b915050613ad4565b50809250505092915050565b828054613c8490614eea565b90600052602060002090601f016020900481019282613ca65760008555613ced565b82601f10613cbf57805160ff1916838001178555613ced565b82800160010185558215613ced579182015b82811115613cec578251825591602001919060010190613cd1565b5b509050613cfa9190613d7c565b5090565b60405180610160016040528060008152602001613d19613d99565b8152602001613d26613db7565b8152602001613d33613dcc565b8152602001613d40613de1565b8152602001613d4d613dff565b815260200160008152602001600081526020016000815260200160008152602001613d76613e14565b81525090565b5b80821115613d95576000816000905550600101613d7d565b5090565b60405180604001604052806000151581526020016000151581525090565b60405180602001604052806000151581525090565b60405180602001604052806000151581525090565b60405180604001604052806000151581526020016000151581525090565b60405180602001604052806000151581525090565b6040518060600160405280613e27613e47565b8152602001613e34613e47565b8152602001613e41613e47565b81525090565b6040518060600160405280600073ffffffffffffffffffffffffffffffffffffffff168152602001600060ff168152602001606081525090565b6000604051905090565b600080fd5b600080fd5b6000819050919050565b613ea881613e95565b8114613eb357600080fd5b50565b600081359050613ec581613e9f565b92915050565b600060208284031215613ee157613ee0613e8b565b5b6000613eef84828501613eb6565b91505092915050565b60008115159050919050565b613f0d81613ef8565b82525050565b6000602082019050613f286000830184613f04565b92915050565b60008060408385031215613f4557613f44613e8b565b5b6000613f5385828601613eb6565b9250506020613f6485828601613eb6565b9150509250929050565b600080fd5b6000601f19601f8301169050919050565b7f4e487b7100000000000000000000000000000000000000000000000000000000600052604160045260246000fd5b613fbc82613f73565b810181811067ffffffffffffffff82111715613fdb57613fda613f84565b5b80604052505050565b6000613fee613e81565b9050613ffa8282613fb3565b919050565b600080fd5b600080fd5b600080fd5b600067ffffffffffffffff82111561402957614028613f84565b5b61403282613f73565b9050602081019050919050565b82818337600083830152505050565b600061406161405c8461400e565b613fe4565b90508281526020810184848401111561407d5761407c614009565b5b61408884828561403f565b509392505050565b600082601f8301126140a5576140a4614004565b5b81356140b584826020860161404e565b91505092915050565b6000606082840312156140d4576140d3613f6e565b5b6140de6060613fe4565b9050600082013567ffffffffffffffff8111156140fe576140fd613fff565b5b61410a84828501614090565b600083015250602082013567ffffffffffffffff81111561412e5761412d613fff565b5b61413a84828501614090565b602083015250604061414e84828501613eb6565b60408301525092915050565b61416381613ef8565b811461416e57600080fd5b50565b6000813590506141808161415a565b92915050565b600060c0828403121561419c5761419b613f6e565b5b6141a660c0613fe4565b905060006141b684828501613eb6565b60008301525060206141ca84828501613eb6565b60208301525060406141de84828501613eb6565b60408301525060606141f284828501613eb6565b606083015250608061420684828501613eb6565b60808301525060a061421a84828501614171565b60a08301525092915050565b600073ffffffffffffffffffffffffffffffffffffffff82169050919050565b600061425182614226565b9050919050565b61426181614246565b811461426c57600080fd5b50565b60008135905061427e81614258565b92915050565b60006040828403121561429a57614299613f6e565b5b6142a46040613fe4565b905060006142b48482850161426f565b600083015250602082013567ffffffffffffffff8111156142d8576142d7613fff565b5b6142e484828501614090565b60208301525092915050565b600060ff82169050919050565b614306816142f0565b811461431157600080fd5b50565b600081359050614323816142fd565b92915050565b60006080828403121561433f5761433e613f6e565b5b6143496080613fe4565b9050600082013567ffffffffffffffff81111561436957614368613fff565b5b61437584828501614090565b600083015250602082013567ffffffffffffffff81111561439957614398613fff565b5b6143a584828501614090565b602083015250604082013567ffffffffffffffff8111156143c9576143c8613fff565b5b6143d584828501614090565b60408301525060606143e984828501614314565b60608301525092915050565b600061440082614226565b9050919050565b614410816143f5565b811461441b57600080fd5b50565b60008135905061442d81614407565b92915050565b60006060828403121561444957614448613f6e565b5b6144536060613fe4565b905060006144638482850161441e565b600083015250602061447784828501614314565b602083015250604082013567ffffffffffffffff81111561449b5761449a613fff565b5b6144a784828501614090565b60408301525092915050565b6000606082840312156144c9576144c8613f6e565b5b6144d36060613fe4565b9050600082013567ffffffffffffffff8111156144f3576144f2613fff565b5b6144ff84828501614433565b600083015250602082013567ffffffffffffffff81111561452357614522613fff565b5b61452f84828501614433565b602083015250604082013567ffffffffffffffff81111561455357614552613fff565b5b61455f84828501614433565b60408301525092915050565b6000610160828403121561458257614581613f6e565b5b61458c60c0613fe4565b9050600061459c84828501613eb6565b600083015250602082013567ffffffffffffffff8111156145c0576145bf613fff565b5b6145cc848285016140be565b60208301525060406145e084828501614186565b60408301525061010082013567ffffffffffffffff81111561460557614604613fff565b5b61461184828501614284565b60608301525061012082013567ffffffffffffffff81111561463657614635613fff565b5b61464284828501614329565b60808301525061014082013567ffffffffffffffff81111561466757614666613fff565b5b614673848285016144b3565b60a08301525092915050565b600067ffffffffffffffff82111561469a57614699613f84565b5b602082029050602081019050919050565b600080fd5b600060a082840312156146c6576146c5613f6e565b5b6146d060a0613fe4565b905060006146e084828501613eb6565b60008301525060206146f484828501613eb6565b60208301525060406147088482850161426f565b604083015250606061471c84828501613eb6565b606083015250608082013567ffffffffffffffff8111156147405761473f613fff565b5b61474c84828501614090565b60808301525092915050565b600061476b6147668461467f565b613fe4565b9050808382526020820190506020840283018581111561478e5761478d6146ab565b5b835b818110156147d557803567ffffffffffffffff8111156147b3576147b2614004565b5b8086016147c089826146b0565b85526020850194505050602081019050614790565b5050509392505050565b600082601f8301126147f4576147f3614004565b5b8135614804848260208601614758565b91505092915050565b6000806040838503121561482457614823613e8b565b5b600083013567ffffffffffffffff81111561484257614841613e90565b5b61484e8582860161456b565b925050602083013567ffffffffffffffff81111561486f5761486e613e90565b5b61487b858286016147df565b9150509250929050565b61488e81613e95565b82525050565b61489d81613ef8565b82525050565b6040820160008201516148b96000850182614894565b5060208201516148cc6020850182614894565b50505050565b6020820160008201516148e86000850182614894565b50505050565b6020820160008201516149046000850182614894565b50505050565b6040820160008201516149206000850182614894565b5060208201516149336020850182614894565b50505050565b60208201600082015161494f6000850182614894565b50505050565b61495e816143f5565b82525050565b61496d816142f0565b82525050565b600081519050919050565b600082825260208201905092915050565b60005b838110156149ad578082015181840152602081019050614992565b838111156149bc576000848401525b50505050565b60006149cd82614973565b6149d7818561497e565b93506149e781856020860161498f565b6149f081613f73565b840191505092915050565b6000606083016000830151614a136000860182614955565b506020830151614a266020860182614964565b5060408301518482036040860152614a3e82826149c2565b9150508091505092915050565b60006060830160008301518482036000860152614a6882826149fb565b91505060208301518482036020860152614a8282826149fb565b91505060408301518482036040860152614a9c82826149fb565b9150508091505092915050565b60006101a083016000830151614ac26000860182614885565b506020830151614ad560208601826148a3565b506040830151614ae860608601826148d2565b506060830151614afb60808601826148ee565b506080830151614b0e60a086018261490a565b5060a0830151614b2160e0860182614939565b5060c0830151614b35610100860182614885565b5060e0830151614b49610120860182614885565b50610100830151614b5e610140860182614885565b50610120830151614b73610160860182614885565b50610140830151848203610180860152614b8d8282614a4b565b9150508091505092915050565b60006020820190508181036000830152614bb48184614aa9565b905092915050565b614bc581613e95565b82525050565b6000602082019050614be06000830184614bbc565b92915050565b604082016000820151614bfc6000850182614894565b506020820151614c0f6020850182614894565b50505050565b602082016000820151614c2b6000850182614894565b50505050565b602082016000820151614c476000850182614894565b50505050565b604082016000820151614c636000850182614894565b506020820151614c766020850182614894565b50505050565b602082016000820151614c926000850182614894565b50505050565b60006060830160008301518482036000860152614cb582826149fb565b91505060208301518482036020860152614ccf82826149fb565b91505060408301518482036040860152614ce982826149fb565b9150508091505092915050565b60006101a082019050614d0c600083018e614bbc565b614d19602083018d614be6565b614d26606083018c614c15565b614d33608083018b614c31565b614d4060a083018a614c4d565b614d4d60e0830189614c7c565b614d5b610100830188614bbc565b614d69610120830187614bbc565b614d77610140830186614bbc565b614d85610160830185614bbc565b818103610180830152614d988184614c98565b90509c9b505050505050505050505050565b60008060408385031215614dc157614dc0613e8b565b5b6000614dcf85828601613eb6565b9250506020614de085828601614314565b9150509250929050565b600081519050919050565b600082825260208201905092915050565b6000819050602082019050919050565b6000614e228383614894565b60208301905092915050565b6000602082019050919050565b6000614e4682614dea565b614e508185614df5565b9350614e5b83614e06565b8060005b83811015614e8c578151614e738882614e16565b9750614e7e83614e2e565b925050600181019050614e5f565b5085935050505092915050565b60006020820190508181036000830152614eb38184614e3b565b905092915050565b7f4e487b7100000000000000000000000000000000000000000000000000000000600052602260045260246000fd5b60006002820490506001821680614f0257607f821691505b602082108103614f1557614f14614ebb565b5b50919050565b7f4e487b7100000000000000000000000000000000000000000000000000000000600052601160045260246000fd5b6000614f5582613e95565b91507fffffffffffffffffffffffffffffffffffffffffffffffffffffffffffffffff8203614f8757614f86614f1b565b5b600182019050919050565b600082825260208201905092915050565b7f4f6e6c792074686520627574636865722063616e206d61726b2074686520616e60008201527f696d616c2061732070726f636573736564000000000000000000000000000000602082015250565b6000614fff603183614f92565b915061500a82614fa3565b604082019050919050565b6000602082019050818103600083015261502e81614ff2565b9050919050565b7f54686520616e696d616c206d7573742062652064656c6976657265642062656660008201527f6f7265206265696e672070726f63657373656400000000000000000000000000602082015250565b6000615091603383614f92565b915061509c82615035565b604082019050919050565b600060208201905081810360008301526150c081615084565b9050919050565b7f4f6e6c79207468652064656c697665727920736572766963652063616e206d6160008201527f726b206120626f782061732064656c6976657265640000000000000000000000602082015250565b6000615123603583614f92565b915061512e826150c7565b604082019050919050565b6000602082019050818103600083015261515281615116565b9050919050565b7f426f786573206d757374206265206469737472696275746564206265666f726560008201527f206265696e672064656c69766572656400000000000000000000000000000000602082015250565b60006151b5603083614f92565b91506151c082615159565b604082019050919050565b600060208201905081810360008301526151e4816151a8565b9050919050565b7f4f6e6c79207468652064656c697665727920736572766963652063616e206d6160008201527f726b206120626f78206173206469737472696275746564000000000000000000602082015250565b6000615247603783614f92565b9150615252826151eb565b604082019050919050565b600060208201905081810360008301526152768161523a565b9050919050565b7f426f786573206d757374206265207072657061726564206265666f726520626560008201527f696e672064697374726962757465640000000000000000000000000000000000602082015250565b60006152d9602f83614f92565b91506152e48261527d565b604082019050919050565b60006020820190508181036000830152615308816152cc565b9050919050565b7f4e487b7100000000000000000000000000000000000000000000000000000000600052603260045260246000fd5b600061534982613e95565b915061535483613e95565b9250827fffffffffffffffffffffffffffffffffffffffffffffffffffffffffffffffff0382111561538957615388614f1b565b5b828201905092915050565b7f5468657265206d757374206265206174206c65617374206f6e6520626f78206960008201527f6e20746f74616c00000000000000000000000000000000000000000000000000602082015250565b60006153f0602783614f92565b91506153fb82615394565b604082019050919050565b6000602082019050818103600083015261541f816153e3565b9050919050565b7f4f6e6c7920746865206661726d657220616e642074686520627574636865722060008201527f63616e206d61726b2074686520616e696d616c2061732064656c697665726564602082015250565b6000615482604083614f92565b915061548d82615426565b604082019050919050565b600060208201905081810360008301526154b181615475565b9050919050565b7f4f6e6c792074686520627574636865722063616e206d61726b206120626f782060008201527f61732070726f6365737365640000000000000000000000000000000000000000602082015250565b6000615514602c83614f92565b915061551f826154b8565b604082019050919050565b6000602082019050818103600083015261554381615507565b9050919050565b7f54686520616e696d616c206d7573742062652070726f6365737365642062656660008201527f6f726520707265706172696e6720626f78657300000000000000000000000000602082015250565b60006155a6603383614f92565b91506155b18261554a565b604082019050919050565b600060208201905081810360008301526155d581615599565b9050919050565b7f4d6f6465206d757374206265206265747765656e203020616e64203200000000600082015250565b6000615612601c83614f92565b915061561d826155dc565b602082019050919050565b6000602082019050818103600083015261564181615605565b905091905056fea2646970667358221220ecf3027ab652afe17999351a2525870af8c136f0210900057522ac754d84cfcd64736f6c634300080d0033",
  "immutableReferences": {},
  "source": "// SPDX-License-Identifier: AGPL\npragma solidity ^0.8.13;\n\nimport \"./Types.sol\";\nimport \"./Crowdfunding.sol\";\n\ncontract SupplyChains {\n\n  mapping(uint256 => SupplyChain) public supplychains;\n\n  mapping(uint256 => mapping(uint256 => BoxProcessStatus)) processedBoxes;\n  mapping(uint256 => mapping(uint256 => BoxDistributionStatus)) distributedBoxes;\n  mapping(uint256 => mapping(uint256 => BoxDeliveryStatus)) deliveredBoxes;\n\n  uint256 public NumberOfSupplyChains = 0;\n\n\n  function StartSupplyChain(Campaign memory _campaign, BoxSellRef[] memory _boxes) external {\n    SupplyChain storage supplychain = supplychains[_campaign.id];\n\n    supplychain.campaignRef = _campaign.id;\n    supplychain.isAnimalDelivered.butcher = false;\n    supplychain.isAnimalDelivered.farmer = false;\n    supplychain.isAnimalProcessed.butcher = false;\n    supplychain.areBoxesProcessed.butcher = false;\n    supplychain.areBoxesDistributed.butcher = false;\n    supplychain.areBoxesDistributed.delivery = false;\n    supplychain.areBoxesDelivered.delivery = false;\n\n    uint totalNumOfBoxes = 0;\n    for (uint256 index = 0; index < _boxes.length; index++) {\n      BoxSellRef memory box = _boxes[index];\n      totalNumOfBoxes += 1;\n      processedBoxes[_campaign.id][box.id].butcher = false;\n      distributedBoxes[_campaign.id][box.id].butcher = false;\n      distributedBoxes[_campaign.id][box.id].delivery = false;\n      deliveredBoxes[_campaign.id][box.id].delivery = false;\n    }\n    require(totalNumOfBoxes > 0, \"There must be at least one box in total\");\n\n    supplychain.totalBoxes = totalNumOfBoxes;\n    supplychain.preparedBoxes = 0;\n    supplychain.deliveredBoxes = 0;\n    supplychain.receivedBoxes = 0;\n\n    // import stakeholders from campaign\n    supplychain.stakeholders = _campaign.stakeholders;\n\n    NumberOfSupplyChains++;\n  }\n\n  /*\n  * Retrieve a supplychain by campaign id\n  */\n  function getSupplyChainById(uint256 _campaignId) public view returns (SupplyChain memory) {\n    return supplychains[_campaignId];\n  }\n\n  /*\n  * getBoxStatus: 0 = processed, 1 = distributed, 2 = delivered\n  */\n  function getBoxesStatus(uint256 _campaignId, uint8 mode) public view returns (bool[] memory) {\n    require(mode >= 0 && mode <= 2, \"Mode must be between 0 and 2\");\n    SupplyChain memory supplychain = supplychains[_campaignId];\n    bool[] memory boxesStatus = new bool[](supplychain.totalBoxes);\n    for (uint256 index = 0; index < supplychain.totalBoxes; index++) {\n      if (mode == 0) {\n        boxesStatus[index] = processedBoxes[_campaignId][index].butcher;\n      } else if (mode == 1) {\n        boxesStatus[index] = (distributedBoxes[_campaignId][index].butcher && distributedBoxes[_campaignId][index].delivery);\n      } else if (mode == 2) {\n        boxesStatus[index] = deliveredBoxes[_campaignId][index].delivery;\n      }\n    }\n    return boxesStatus;\n  }\n\n  /*\n  * Mark the animal of a campaign as delivered (to the butcher)\n  */\n  function markAnimalAsDelivered(uint256 _campaignId) public {\n    SupplyChain storage supplychain = supplychains[_campaignId];\n\n    require(\n      (msg.sender == supplychain.stakeholders.farmer.owner) || (msg.sender == supplychain.stakeholders.butcher.owner), \n      \"Only the farmer and the butcher can mark the animal as delivered\"\n    );\n\n    if (msg.sender == supplychain.stakeholders.farmer.owner) {\n      supplychain.isAnimalDelivered.farmer = true;\n    } else if (msg.sender == supplychain.stakeholders.butcher.owner) {\n      supplychain.isAnimalDelivered.butcher = true;\n    }\n  }\n\n  /*\n  * Mark the animal as processed by the butcher\n  */\n  function markAnimalAsProcessed(uint256 _campaignId) public {\n    SupplyChain storage supplychain = supplychains[_campaignId];\n\n    require(msg.sender == supplychain.stakeholders.butcher.owner, \"Only the butcher can mark the animal as processed\");\n    require(supplychain.isAnimalDelivered.butcher && supplychain.isAnimalDelivered.farmer, \"The animal must be delivered before being processed\");\n    supplychain.isAnimalProcessed.butcher = true;\n  }\n\n  /*\n  * Mark a box as processed by the butcher\n  */\n  function markBoxAsProcessed(uint256 _campaignId, uint256 _boxId) public {\n    SupplyChain storage supplychain = supplychains[_campaignId];\n\n    require(msg.sender == supplychain.stakeholders.butcher.owner, \"Only the butcher can mark a box as processed\");\n    require(supplychain.isAnimalProcessed.butcher, \"The animal must be processed before preparing boxes\");\n    processedBoxes[_campaignId][_boxId].butcher = true;\n\n    if(areBoxesProcessed(_campaignId)) {\n      supplychain.areBoxesProcessed.butcher = true;\n    }\n  }\n\n  /*\n  * Mark a box as distributed by the delivery service\n  */\n  function markBoxAsDistributed(uint256 _campaignId, uint256 _boxId) public {\n    SupplyChain storage supplychain = supplychains[_campaignId];\n\n    require(\n      (msg.sender == supplychain.stakeholders.delivery.owner) || (msg.sender == supplychain.stakeholders.butcher.owner), \n      \"Only the delivery service can mark a box as distributed\");\n    require(supplychain.areBoxesProcessed.butcher, \"Boxes must be prepared before being distributed\");\n\n    if (msg.sender == supplychain.stakeholders.butcher.owner) {\n      distributedBoxes[_campaignId][_boxId].butcher = true;\n      if(areBoxesDistributedFromButcher(_campaignId)) {\n        supplychain.areBoxesDistributed.butcher = true;\n      }\n    } else if (msg.sender == supplychain.stakeholders.delivery.owner) {\n      distributedBoxes[_campaignId][_boxId].delivery = true;\n      if (areBoxesDistributedToDelivery(_campaignId)) {\n        supplychain.areBoxesDistributed.delivery = true;\n      }\n    }\n  }\n\n  /*\n  * Mark a box as delivered by the delivery service\n  */\n  function markBoxAsDelivered(uint256 _campaignId, uint256 _boxId) public {\n    SupplyChain storage supplychain = supplychains[_campaignId];\n\n    require(msg.sender == supplychain.stakeholders.delivery.owner, \"Only the delivery service can mark a box as delivered\");\n    require(\n      supplychain.areBoxesDistributed.butcher || supplychain.areBoxesDistributed.delivery, \n      \"Boxes must be distributed before being delivered\");\n    \n    deliveredBoxes[_campaignId][_boxId].delivery = true;\n\n    if(areBoxesDelivered(_campaignId)) {\n      supplychain.areBoxesDelivered.delivery = true;\n    }\n  }\n\n  /*\n  * Check if the supply chain is completed\n  */\n  function isCompleted(uint256 _campaignId) external view returns (bool) {\n    SupplyChain memory supplychain = supplychains[_campaignId];\n    return (\n      supplychain.isAnimalDelivered.farmer &&\n      supplychain.isAnimalDelivered.butcher &&\n      supplychain.isAnimalProcessed.butcher && \n      supplychain.areBoxesProcessed.butcher && \n      supplychain.areBoxesDistributed.butcher && \n      supplychain.areBoxesDistributed.delivery && \n      supplychain.areBoxesDelivered.delivery);\n  }\n\n  /*\n  * Check if all boxes are processed by the butcher\n  */\n  function areBoxesProcessed(uint256 _campaignId) public view returns (bool) {\n    SupplyChain memory supplychain = supplychains[_campaignId];\n\n    for (uint256 index = 0; index < supplychain.totalBoxes; index++) {\n      if (!processedBoxes[_campaignId][index].butcher) {\n        return false;\n      }\n    }\n    return true;\n  }\n\n  /*\n  * Check if all boxes are distributed from the butcher\n  */\n  function areBoxesDistributedFromButcher(uint256 _campaignId) public view returns (bool) {\n    SupplyChain memory supplychain = supplychains[_campaignId];\n\n    for (uint256 index = 0; index < supplychain.totalBoxes; index++) {\n      if (!distributedBoxes[_campaignId][index].butcher) {\n        return false;\n      }\n    }\n    return true;\n  }\n\n  /*\n  * Check if all boxes are distributed to the delivery service\n  */\n  function areBoxesDistributedToDelivery(uint256 _campaignId) public view returns (bool) {\n    SupplyChain memory supplychain = supplychains[_campaignId];\n\n    for (uint256 index = 0; index < supplychain.totalBoxes; index++) {\n      if (!distributedBoxes[_campaignId][index].delivery) {\n        return false;\n      }\n    }\n    return true;\n  }\n\n  /*\n  * Check if all boxes are delivered by the delivery service\n  */\n  function areBoxesDelivered(uint256 _campaignId) public view returns (bool) {\n    SupplyChain memory supplychain = supplychains[_campaignId];\n\n    for (uint256 index = 0; index < supplychain.totalBoxes; index++) {\n      if (!deliveredBoxes[_campaignId][index].delivery) {\n        return false;\n      }\n    }\n    return true;\n  }\n}\n",
  "sourcePath": "/Users/cassolseba/VSCode/blockchain/146157_Blockchain/smart_contracts/contracts/SupplyChains.sol",
  "compiler": {
    "name": "solc",
    "version": "0.8.13+commit.abaa5c0e.Emscripten.clang"
  },
  "schemaVersion": "3.4.14",
  "updatedAt": "2023-08-12T16:09:57.915Z",
  "devdoc": {
    "kind": "dev",
    "methods": {},
    "version": 1
  },
  "userdoc": {
    "kind": "user",
    "methods": {},
    "version": 1
  }
}