{
  "contractName": "SupplyChains",
  "abi": [
    {
      "inputs": [],
      "name": "NumberOfSupplyChains",
      "outputs": [
        {
          "internalType": "uint256",
          "name": "",
          "type": "uint256"
        }
      ],
      "stateMutability": "view",
      "type": "function"
    },
    {
      "inputs": [
        {
          "internalType": "uint256",
          "name": "",
          "type": "uint256"
        }
      ],
      "name": "supplychains",
      "outputs": [
        {
          "internalType": "uint256",
          "name": "campaignRef",
          "type": "uint256"
        },
        {
          "internalType": "bool",
          "name": "isAnimalDelivered",
          "type": "bool"
        },
        {
          "internalType": "bool",
          "name": "isAnimalProcessed",
          "type": "bool"
        },
        {
          "internalType": "bool",
          "name": "areBoxesPrepared",
          "type": "bool"
        },
        {
          "internalType": "bool",
          "name": "areBoxesDistributed",
          "type": "bool"
        },
        {
          "internalType": "bool",
          "name": "areBoxesDelivered",
          "type": "bool"
        },
        {
          "internalType": "uint256",
          "name": "totalBoxes",
          "type": "uint256"
        },
        {
          "internalType": "uint256",
          "name": "preparedBoxes",
          "type": "uint256"
        },
        {
          "internalType": "uint256",
          "name": "deliveredBoxes",
          "type": "uint256"
        },
        {
          "internalType": "uint256",
          "name": "receivedBoxes",
          "type": "uint256"
        },
        {
          "components": [
            {
              "components": [
                {
                  "internalType": "address payable",
                  "name": "owner",
                  "type": "address"
                },
                {
                  "internalType": "uint8",
                  "name": "share",
                  "type": "uint8"
                },
                {
                  "internalType": "string",
                  "name": "info",
                  "type": "string"
                }
              ],
              "internalType": "struct Stakeholder",
              "name": "farmer",
              "type": "tuple"
            },
            {
              "components": [
                {
                  "internalType": "address payable",
                  "name": "owner",
                  "type": "address"
                },
                {
                  "internalType": "uint8",
                  "name": "share",
                  "type": "uint8"
                },
                {
                  "internalType": "string",
                  "name": "info",
                  "type": "string"
                }
              ],
              "internalType": "struct Stakeholder",
              "name": "butcher",
              "type": "tuple"
            },
            {
              "components": [
                {
                  "internalType": "address payable",
                  "name": "owner",
                  "type": "address"
                },
                {
                  "internalType": "uint8",
                  "name": "share",
                  "type": "uint8"
                },
                {
                  "internalType": "string",
                  "name": "info",
                  "type": "string"
                }
              ],
              "internalType": "struct Stakeholder",
              "name": "delivery",
              "type": "tuple"
            }
          ],
          "internalType": "struct StakeholderList",
          "name": "stakeholders",
          "type": "tuple"
        }
      ],
      "stateMutability": "view",
      "type": "function"
    },
    {
      "inputs": [
        {
          "components": [
            {
              "internalType": "uint256",
              "name": "id",
              "type": "uint256"
            },
            {
              "components": [
                {
                  "internalType": "string",
                  "name": "title",
                  "type": "string"
                },
                {
                  "internalType": "string",
                  "name": "description",
                  "type": "string"
                },
                {
                  "internalType": "uint256",
                  "name": "deadline",
                  "type": "uint256"
                }
              ],
              "internalType": "struct CampaignInfo",
              "name": "info",
              "type": "tuple"
            },
            {
              "components": [
                {
                  "internalType": "uint256",
                  "name": "collectedAmount",
                  "type": "uint256"
                },
                {
                  "internalType": "uint256",
                  "name": "createdAt",
                  "type": "uint256"
                },
                {
                  "internalType": "uint256",
                  "name": "totalBoxes",
                  "type": "uint256"
                },
                {
                  "internalType": "uint256",
                  "name": "boxesSold",
                  "type": "uint256"
                },
                {
                  "internalType": "uint256",
                  "name": "totalBoxTypes",
                  "type": "uint256"
                },
                {
                  "internalType": "bool",
                  "name": "isStopped",
                  "type": "bool"
                }
              ],
              "internalType": "struct CampaignMeta",
              "name": "meta",
              "type": "tuple"
            },
            {
              "components": [
                {
                  "internalType": "address",
                  "name": "owner",
                  "type": "address"
                },
                {
                  "internalType": "string",
                  "name": "ownerPublicKey",
                  "type": "string"
                }
              ],
              "internalType": "struct CampaignOwner",
              "name": "owner",
              "type": "tuple"
            },
            {
              "components": [
                {
                  "internalType": "string",
                  "name": "earTag",
                  "type": "string"
                },
                {
                  "internalType": "string",
                  "name": "name",
                  "type": "string"
                },
                {
                  "internalType": "string",
                  "name": "farm",
                  "type": "string"
                },
                {
                  "internalType": "uint8",
                  "name": "age",
                  "type": "uint8"
                }
              ],
              "internalType": "struct CampaignAnimalData",
              "name": "animal",
              "type": "tuple"
            },
            {
              "components": [
                {
                  "components": [
                    {
                      "internalType": "address payable",
                      "name": "owner",
                      "type": "address"
                    },
                    {
                      "internalType": "uint8",
                      "name": "share",
                      "type": "uint8"
                    },
                    {
                      "internalType": "string",
                      "name": "info",
                      "type": "string"
                    }
                  ],
                  "internalType": "struct Stakeholder",
                  "name": "farmer",
                  "type": "tuple"
                },
                {
                  "components": [
                    {
                      "internalType": "address payable",
                      "name": "owner",
                      "type": "address"
                    },
                    {
                      "internalType": "uint8",
                      "name": "share",
                      "type": "uint8"
                    },
                    {
                      "internalType": "string",
                      "name": "info",
                      "type": "string"
                    }
                  ],
                  "internalType": "struct Stakeholder",
                  "name": "butcher",
                  "type": "tuple"
                },
                {
                  "components": [
                    {
                      "internalType": "address payable",
                      "name": "owner",
                      "type": "address"
                    },
                    {
                      "internalType": "uint8",
                      "name": "share",
                      "type": "uint8"
                    },
                    {
                      "internalType": "string",
                      "name": "info",
                      "type": "string"
                    }
                  ],
                  "internalType": "struct Stakeholder",
                  "name": "delivery",
                  "type": "tuple"
                }
              ],
              "internalType": "struct StakeholderList",
              "name": "stakeholders",
              "type": "tuple"
            }
          ],
          "internalType": "struct Campaign",
          "name": "_campaign",
          "type": "tuple"
        },
        {
          "components": [
            {
              "internalType": "uint256",
              "name": "id",
              "type": "uint256"
            },
            {
              "internalType": "uint256",
              "name": "boxId",
              "type": "uint256"
            },
            {
              "internalType": "address",
              "name": "owner",
              "type": "address"
            },
            {
              "internalType": "uint256",
              "name": "boughtAt",
              "type": "uint256"
            },
            {
              "internalType": "string",
              "name": "physAddress",
              "type": "string"
            }
          ],
          "internalType": "struct BoxSellRef[]",
          "name": "_boxes",
          "type": "tuple[]"
        }
      ],
      "name": "StartSupplyChain",
      "outputs": [],
      "stateMutability": "nonpayable",
      "type": "function"
    },
    {
      "inputs": [
        {
          "internalType": "uint256",
          "name": "_campaignId",
          "type": "uint256"
        }
      ],
      "name": "getSupplyChainById",
      "outputs": [
        {
          "components": [
            {
              "internalType": "uint256",
              "name": "campaignRef",
              "type": "uint256"
            },
            {
              "internalType": "bool",
              "name": "isAnimalDelivered",
              "type": "bool"
            },
            {
              "internalType": "bool",
              "name": "isAnimalProcessed",
              "type": "bool"
            },
            {
              "internalType": "bool",
              "name": "areBoxesPrepared",
              "type": "bool"
            },
            {
              "internalType": "bool",
              "name": "areBoxesDistributed",
              "type": "bool"
            },
            {
              "internalType": "bool",
              "name": "areBoxesDelivered",
              "type": "bool"
            },
            {
              "internalType": "uint256",
              "name": "totalBoxes",
              "type": "uint256"
            },
            {
              "internalType": "uint256",
              "name": "preparedBoxes",
              "type": "uint256"
            },
            {
              "internalType": "uint256",
              "name": "deliveredBoxes",
              "type": "uint256"
            },
            {
              "internalType": "uint256",
              "name": "receivedBoxes",
              "type": "uint256"
            },
            {
              "components": [
                {
                  "components": [
                    {
                      "internalType": "address payable",
                      "name": "owner",
                      "type": "address"
                    },
                    {
                      "internalType": "uint8",
                      "name": "share",
                      "type": "uint8"
                    },
                    {
                      "internalType": "string",
                      "name": "info",
                      "type": "string"
                    }
                  ],
                  "internalType": "struct Stakeholder",
                  "name": "farmer",
                  "type": "tuple"
                },
                {
                  "components": [
                    {
                      "internalType": "address payable",
                      "name": "owner",
                      "type": "address"
                    },
                    {
                      "internalType": "uint8",
                      "name": "share",
                      "type": "uint8"
                    },
                    {
                      "internalType": "string",
                      "name": "info",
                      "type": "string"
                    }
                  ],
                  "internalType": "struct Stakeholder",
                  "name": "butcher",
                  "type": "tuple"
                },
                {
                  "components": [
                    {
                      "internalType": "address payable",
                      "name": "owner",
                      "type": "address"
                    },
                    {
                      "internalType": "uint8",
                      "name": "share",
                      "type": "uint8"
                    },
                    {
                      "internalType": "string",
                      "name": "info",
                      "type": "string"
                    }
                  ],
                  "internalType": "struct Stakeholder",
                  "name": "delivery",
                  "type": "tuple"
                }
              ],
              "internalType": "struct StakeholderList",
              "name": "stakeholders",
              "type": "tuple"
            }
          ],
          "internalType": "struct SupplyChain",
          "name": "",
          "type": "tuple"
        }
      ],
      "stateMutability": "view",
      "type": "function"
    },
    {
      "inputs": [
        {
          "internalType": "uint256",
          "name": "_campaignId",
          "type": "uint256"
        }
      ],
      "name": "markAnimalAsDelivered",
      "outputs": [],
      "stateMutability": "nonpayable",
      "type": "function"
    },
    {
      "inputs": [
        {
          "internalType": "uint256",
          "name": "_campaignId",
          "type": "uint256"
        }
      ],
      "name": "markAnimalAsProcessed",
      "outputs": [],
      "stateMutability": "nonpayable",
      "type": "function"
    },
    {
      "inputs": [
        {
          "internalType": "uint256",
          "name": "_campaignId",
          "type": "uint256"
        }
      ],
      "name": "areAllBoxesPrepared",
      "outputs": [
        {
          "internalType": "bool",
          "name": "",
          "type": "bool"
        }
      ],
      "stateMutability": "view",
      "type": "function"
    },
    {
      "inputs": [
        {
          "internalType": "uint256",
          "name": "_campaignId",
          "type": "uint256"
        }
      ],
      "name": "areAllBoxesDistributed",
      "outputs": [
        {
          "internalType": "bool",
          "name": "",
          "type": "bool"
        }
      ],
      "stateMutability": "view",
      "type": "function"
    },
    {
      "inputs": [
        {
          "internalType": "uint256",
          "name": "_campaignId",
          "type": "uint256"
        }
      ],
      "name": "areAllBoxesDelivered",
      "outputs": [
        {
          "internalType": "bool",
          "name": "",
          "type": "bool"
        }
      ],
      "stateMutability": "view",
      "type": "function"
    },
    {
      "inputs": [
        {
          "internalType": "uint256",
          "name": "_campaignId",
          "type": "uint256"
        }
      ],
      "name": "isCompleted",
      "outputs": [
        {
          "internalType": "bool",
          "name": "",
          "type": "bool"
        }
      ],
      "stateMutability": "view",
      "type": "function"
    }
  ],
  "bytecode": "0x6080604052600060045534801561001557600080fd5b5061334a806100256000396000f3fe608060405234801561001057600080fd5b506004361061009e5760003560e01c80637a41984b116100665780637a41984b14610157578063aab83dec14610187578063d1d9e7c0146101b7578063e9368de9146101d5578063ebf91aed1461020f5761009e565b8063154a9fe1146100a35780633d709a29146100bf57806348e7a9a7146100db578063549775f31461010b5780636f439b461461013b575b600080fd5b6100bd60048036038101906100b891906123de565b61023f565b005b6100d960048036038101906100d49190612cb6565b6102d8565b005b6100f560048036038101906100f091906123de565b6106cc565b6040516101029190612d3d565b60405180910390f35b610125600480360381019061012091906123de565b610b76565b6040516101329190612d3d565b60405180910390f35b610155600480360381019061015091906123de565b611020565b005b610171600480360381019061016c91906123de565b6110b9565b60405161017e9190612d3d565b60405180910390f35b6101a1600480360381019061019c91906123de565b611535565b6040516101ae9190612fb9565b60405180910390f35b6101bf61197a565b6040516101cc9190612fea565b60405180910390f35b6101ef60048036038101906101ea91906123de565b611980565b6040516102069b9a99989796959493929190613063565b60405180910390f35b610229600480360381019061022491906123de565b611d70565b6040516102369190612d3d565b60405180910390f35b600080600083815260200190815260200160002090508060060160020160000160009054906101000a900473ffffffffffffffffffffffffffffffffffffffff1673ffffffffffffffffffffffffffffffffffffffff163373ffffffffffffffffffffffffffffffffffffffff16146102b757600080fd5b60018160010160016101000a81548160ff0219169083151502179055505050565b60008060008460000151815260200190815260200160002090508260000151816000018190555060008160010160006101000a81548160ff02191690831515021790555060008160010160016101000a81548160ff02191690831515021790555060008160010160026101000a81548160ff02191690831515021790555060008160010160036101000a81548160ff02191690831515021790555060008160010160046101000a81548160ff0219169083151502179055506000805b83518110156104875760008482815181106103b2576103b1613115565b5b602002602001015190506001836103c99190613173565b9250600160008760000151815260200190815260200160002060008260000151815260200190815260200160002060009054906101000a905050600260008760000151815260200190815260200160002060008260000151815260200190815260200160002060009054906101000a905050600360008760000151815260200190815260200160002060008260000151815260200190815260200160002060009054906101000a90505050808061047f906131c9565b915050610394565b50600081116104cb576040517f08c379a00000000000000000000000000000000000000000000000000000000081526004016104c290613294565b60405180910390fd5b8082600201819055506000826003018190555060008260040181905550600082600501819055508360a001518260060160008201518160000160008201518160000160006101000a81548173ffffffffffffffffffffffffffffffffffffffff021916908373ffffffffffffffffffffffffffffffffffffffff16021790555060208201518160000160146101000a81548160ff021916908360ff160217905550604082015181600101908051906020019061058892919061221a565b50505060208201518160020160008201518160000160006101000a81548173ffffffffffffffffffffffffffffffffffffffff021916908373ffffffffffffffffffffffffffffffffffffffff16021790555060208201518160000160146101000a81548160ff021916908360ff160217905550604082015181600101908051906020019061061892919061221a565b50505060408201518160040160008201518160000160006101000a81548173ffffffffffffffffffffffffffffffffffffffff021916908373ffffffffffffffffffffffffffffffffffffffff16021790555060208201518160000160146101000a81548160ff021916908360ff16021790555060408201518160010190805190602001906106a892919061221a565b505050905050600460008154809291906106c1906131c9565b919050555050505050565b60008060008084815260200190815260200160002060405180610160016040529081600082015481526020016001820160009054906101000a900460ff161515151581526020016001820160019054906101000a900460ff161515151581526020016001820160029054906101000a900460ff161515151581526020016001820160039054906101000a900460ff161515151581526020016001820160049054906101000a900460ff161515151581526020016002820154815260200160038201548152602001600482015481526020016005820154815260200160068201604051806060016040529081600082016040518060600160405290816000820160009054906101000a900473ffffffffffffffffffffffffffffffffffffffff1673ffffffffffffffffffffffffffffffffffffffff1673ffffffffffffffffffffffffffffffffffffffff1681526020016000820160149054906101000a900460ff1660ff1660ff168152602001600182018054610849906132e3565b80601f0160208091040260200160405190810160405280929190818152602001828054610875906132e3565b80156108c25780601f10610897576101008083540402835291602001916108c2565b820191906000526020600020905b8154815290600101906020018083116108a557829003601f168201915b5050505050815250508152602001600282016040518060600160405290816000820160009054906101000a900473ffffffffffffffffffffffffffffffffffffffff1673ffffffffffffffffffffffffffffffffffffffff1673ffffffffffffffffffffffffffffffffffffffff1681526020016000820160149054906101000a900460ff1660ff1660ff168152602001600182018054610962906132e3565b80601f016020809104026020016040519081016040528092919081815260200182805461098e906132e3565b80156109db5780601f106109b0576101008083540402835291602001916109db565b820191906000526020600020905b8154815290600101906020018083116109be57829003601f168201915b5050505050815250508152602001600482016040518060600160405290816000820160009054906101000a900473ffffffffffffffffffffffffffffffffffffffff1673ffffffffffffffffffffffffffffffffffffffff1673ffffffffffffffffffffffffffffffffffffffff1681526020016000820160149054906101000a900460ff1660ff1660ff168152602001600182018054610a7b906132e3565b80601f0160208091040260200160405190810160405280929190818152602001828054610aa7906132e3565b8015610af45780601f10610ac957610100808354040283529160200191610af4565b820191906000526020600020905b815481529060010190602001808311610ad757829003601f168201915b5050505050815250508152505081525050905060005b8160c00151811015610b6a5760016000858152602001908152602001600020600082815260200190815260200160002060009054906101000a900460ff16610b5757600092505050610b71565b8080610b62906131c9565b915050610b0a565b5060019150505b919050565b60008060008084815260200190815260200160002060405180610160016040529081600082015481526020016001820160009054906101000a900460ff161515151581526020016001820160019054906101000a900460ff161515151581526020016001820160029054906101000a900460ff161515151581526020016001820160039054906101000a900460ff161515151581526020016001820160049054906101000a900460ff161515151581526020016002820154815260200160038201548152602001600482015481526020016005820154815260200160068201604051806060016040529081600082016040518060600160405290816000820160009054906101000a900473ffffffffffffffffffffffffffffffffffffffff1673ffffffffffffffffffffffffffffffffffffffff1673ffffffffffffffffffffffffffffffffffffffff1681526020016000820160149054906101000a900460ff1660ff1660ff168152602001600182018054610cf3906132e3565b80601f0160208091040260200160405190810160405280929190818152602001828054610d1f906132e3565b8015610d6c5780601f10610d4157610100808354040283529160200191610d6c565b820191906000526020600020905b815481529060010190602001808311610d4f57829003601f168201915b5050505050815250508152602001600282016040518060600160405290816000820160009054906101000a900473ffffffffffffffffffffffffffffffffffffffff1673ffffffffffffffffffffffffffffffffffffffff1673ffffffffffffffffffffffffffffffffffffffff1681526020016000820160149054906101000a900460ff1660ff1660ff168152602001600182018054610e0c906132e3565b80601f0160208091040260200160405190810160405280929190818152602001828054610e38906132e3565b8015610e855780601f10610e5a57610100808354040283529160200191610e85565b820191906000526020600020905b815481529060010190602001808311610e6857829003601f168201915b5050505050815250508152602001600482016040518060600160405290816000820160009054906101000a900473ffffffffffffffffffffffffffffffffffffffff1673ffffffffffffffffffffffffffffffffffffffff1673ffffffffffffffffffffffffffffffffffffffff1681526020016000820160149054906101000a900460ff1660ff1660ff168152602001600182018054610f25906132e3565b80601f0160208091040260200160405190810160405280929190818152602001828054610f51906132e3565b8015610f9e5780601f10610f7357610100808354040283529160200191610f9e565b820191906000526020600020905b815481529060010190602001808311610f8157829003601f168201915b5050505050815250508152505081525050905060005b8160c001518110156110145760026000858152602001908152602001600020600082815260200190815260200160002060009054906101000a900460ff166110015760009250505061101b565b808061100c906131c9565b915050610fb4565b5060019150505b919050565b600080600083815260200190815260200160002090508060060160000160000160009054906101000a900473ffffffffffffffffffffffffffffffffffffffff1673ffffffffffffffffffffffffffffffffffffffff163373ffffffffffffffffffffffffffffffffffffffff161461109857600080fd5b60018160010160006101000a81548160ff0219169083151502179055505050565b60008060008084815260200190815260200160002060405180610160016040529081600082015481526020016001820160009054906101000a900460ff161515151581526020016001820160019054906101000a900460ff161515151581526020016001820160029054906101000a900460ff161515151581526020016001820160039054906101000a900460ff161515151581526020016001820160049054906101000a900460ff161515151581526020016002820154815260200160038201548152602001600482015481526020016005820154815260200160068201604051806060016040529081600082016040518060600160405290816000820160009054906101000a900473ffffffffffffffffffffffffffffffffffffffff1673ffffffffffffffffffffffffffffffffffffffff1673ffffffffffffffffffffffffffffffffffffffff1681526020016000820160149054906101000a900460ff1660ff1660ff168152602001600182018054611236906132e3565b80601f0160208091040260200160405190810160405280929190818152602001828054611262906132e3565b80156112af5780601f10611284576101008083540402835291602001916112af565b820191906000526020600020905b81548152906001019060200180831161129257829003601f168201915b5050505050815250508152602001600282016040518060600160405290816000820160009054906101000a900473ffffffffffffffffffffffffffffffffffffffff1673ffffffffffffffffffffffffffffffffffffffff1673ffffffffffffffffffffffffffffffffffffffff1681526020016000820160149054906101000a900460ff1660ff1660ff16815260200160018201805461134f906132e3565b80601f016020809104026020016040519081016040528092919081815260200182805461137b906132e3565b80156113c85780601f1061139d576101008083540402835291602001916113c8565b820191906000526020600020905b8154815290600101906020018083116113ab57829003601f168201915b5050505050815250508152602001600482016040518060600160405290816000820160009054906101000a900473ffffffffffffffffffffffffffffffffffffffff1673ffffffffffffffffffffffffffffffffffffffff1673ffffffffffffffffffffffffffffffffffffffff1681526020016000820160149054906101000a900460ff1660ff1660ff168152602001600182018054611468906132e3565b80601f0160208091040260200160405190810160405280929190818152602001828054611494906132e3565b80156114e15780601f106114b6576101008083540402835291602001916114e1565b820191906000526020600020905b8154815290600101906020018083116114c457829003601f168201915b5050505050815250508152505081525050905080602001518015611506575080604001515b8015611513575080606001515b8015611520575080608001515b801561152d57508060a001515b915050919050565b61153d6122a0565b60008083815260200190815260200160002060405180610160016040529081600082015481526020016001820160009054906101000a900460ff161515151581526020016001820160019054906101000a900460ff161515151581526020016001820160029054906101000a900460ff161515151581526020016001820160039054906101000a900460ff161515151581526020016001820160049054906101000a900460ff161515151581526020016002820154815260200160038201548152602001600482015481526020016005820154815260200160068201604051806060016040529081600082016040518060600160405290816000820160009054906101000a900473ffffffffffffffffffffffffffffffffffffffff1673ffffffffffffffffffffffffffffffffffffffff1673ffffffffffffffffffffffffffffffffffffffff1681526020016000820160149054906101000a900460ff1660ff1660ff1681526020016001820180546116b7906132e3565b80601f01602080910402602001604051908101604052809291908181526020018280546116e3906132e3565b80156117305780601f1061170557610100808354040283529160200191611730565b820191906000526020600020905b81548152906001019060200180831161171357829003601f168201915b5050505050815250508152602001600282016040518060600160405290816000820160009054906101000a900473ffffffffffffffffffffffffffffffffffffffff1673ffffffffffffffffffffffffffffffffffffffff1673ffffffffffffffffffffffffffffffffffffffff1681526020016000820160149054906101000a900460ff1660ff1660ff1681526020016001820180546117d0906132e3565b80601f01602080910402602001604051908101604052809291908181526020018280546117fc906132e3565b80156118495780601f1061181e57610100808354040283529160200191611849565b820191906000526020600020905b81548152906001019060200180831161182c57829003601f168201915b5050505050815250508152602001600482016040518060600160405290816000820160009054906101000a900473ffffffffffffffffffffffffffffffffffffffff1673ffffffffffffffffffffffffffffffffffffffff1673ffffffffffffffffffffffffffffffffffffffff1681526020016000820160149054906101000a900460ff1660ff1660ff1681526020016001820180546118e9906132e3565b80601f0160208091040260200160405190810160405280929190818152602001828054611915906132e3565b80156119625780601f1061193757610100808354040283529160200191611962565b820191906000526020600020905b81548152906001019060200180831161194557829003601f168201915b50505050508152505081525050815250509050919050565b60045481565b60006020528060005260406000206000915090508060000154908060010160009054906101000a900460ff16908060010160019054906101000a900460ff16908060010160029054906101000a900460ff16908060010160039054906101000a900460ff16908060010160049054906101000a900460ff169080600201549080600301549080600401549080600501549080600601604051806060016040529081600082016040518060600160405290816000820160009054906101000a900473ffffffffffffffffffffffffffffffffffffffff1673ffffffffffffffffffffffffffffffffffffffff1673ffffffffffffffffffffffffffffffffffffffff1681526020016000820160149054906101000a900460ff1660ff1660ff168152602001600182018054611ab3906132e3565b80601f0160208091040260200160405190810160405280929190818152602001828054611adf906132e3565b8015611b2c5780601f10611b0157610100808354040283529160200191611b2c565b820191906000526020600020905b815481529060010190602001808311611b0f57829003601f168201915b5050505050815250508152602001600282016040518060600160405290816000820160009054906101000a900473ffffffffffffffffffffffffffffffffffffffff1673ffffffffffffffffffffffffffffffffffffffff1673ffffffffffffffffffffffffffffffffffffffff1681526020016000820160149054906101000a900460ff1660ff1660ff168152602001600182018054611bcc906132e3565b80601f0160208091040260200160405190810160405280929190818152602001828054611bf8906132e3565b8015611c455780601f10611c1a57610100808354040283529160200191611c45565b820191906000526020600020905b815481529060010190602001808311611c2857829003601f168201915b5050505050815250508152602001600482016040518060600160405290816000820160009054906101000a900473ffffffffffffffffffffffffffffffffffffffff1673ffffffffffffffffffffffffffffffffffffffff1673ffffffffffffffffffffffffffffffffffffffff1681526020016000820160149054906101000a900460ff1660ff1660ff168152602001600182018054611ce5906132e3565b80601f0160208091040260200160405190810160405280929190818152602001828054611d11906132e3565b8015611d5e5780601f10611d3357610100808354040283529160200191611d5e565b820191906000526020600020905b815481529060010190602001808311611d4157829003601f168201915b5050505050815250508152505090508b565b60008060008084815260200190815260200160002060405180610160016040529081600082015481526020016001820160009054906101000a900460ff161515151581526020016001820160019054906101000a900460ff161515151581526020016001820160029054906101000a900460ff161515151581526020016001820160039054906101000a900460ff161515151581526020016001820160049054906101000a900460ff161515151581526020016002820154815260200160038201548152602001600482015481526020016005820154815260200160068201604051806060016040529081600082016040518060600160405290816000820160009054906101000a900473ffffffffffffffffffffffffffffffffffffffff1673ffffffffffffffffffffffffffffffffffffffff1673ffffffffffffffffffffffffffffffffffffffff1681526020016000820160149054906101000a900460ff1660ff1660ff168152602001600182018054611eed906132e3565b80601f0160208091040260200160405190810160405280929190818152602001828054611f19906132e3565b8015611f665780601f10611f3b57610100808354040283529160200191611f66565b820191906000526020600020905b815481529060010190602001808311611f4957829003601f168201915b5050505050815250508152602001600282016040518060600160405290816000820160009054906101000a900473ffffffffffffffffffffffffffffffffffffffff1673ffffffffffffffffffffffffffffffffffffffff1673ffffffffffffffffffffffffffffffffffffffff1681526020016000820160149054906101000a900460ff1660ff1660ff168152602001600182018054612006906132e3565b80601f0160208091040260200160405190810160405280929190818152602001828054612032906132e3565b801561207f5780601f106120545761010080835404028352916020019161207f565b820191906000526020600020905b81548152906001019060200180831161206257829003601f168201915b5050505050815250508152602001600482016040518060600160405290816000820160009054906101000a900473ffffffffffffffffffffffffffffffffffffffff1673ffffffffffffffffffffffffffffffffffffffff1673ffffffffffffffffffffffffffffffffffffffff1681526020016000820160149054906101000a900460ff1660ff1660ff16815260200160018201805461211f906132e3565b80601f016020809104026020016040519081016040528092919081815260200182805461214b906132e3565b80156121985780601f1061216d57610100808354040283529160200191612198565b820191906000526020600020905b81548152906001019060200180831161217b57829003601f168201915b5050505050815250508152505081525050905060005b8160c0015181101561220e5760036000858152602001908152602001600020600082815260200190815260200160002060009054906101000a900460ff166121fb57600092505050612215565b8080612206906131c9565b9150506121ae565b5060019150505b919050565b828054612226906132e3565b90600052602060002090601f016020900481019282612248576000855561228f565b82601f1061226157805160ff191683800117855561228f565b8280016001018555821561228f579182015b8281111561228e578251825591602001919060010190612273565b5b50905061229c919061230a565b5090565b6040518061016001604052806000815260200160001515815260200160001515815260200160001515815260200160001515815260200160001515815260200160008152602001600081526020016000815260200160008152602001612304612327565b81525090565b5b8082111561232357600081600090555060010161230b565b5090565b604051806060016040528061233a61235a565b815260200161234761235a565b815260200161235461235a565b81525090565b6040518060600160405280600073ffffffffffffffffffffffffffffffffffffffff168152602001600060ff168152602001606081525090565b6000604051905090565b600080fd5b600080fd5b6000819050919050565b6123bb816123a8565b81146123c657600080fd5b50565b6000813590506123d8816123b2565b92915050565b6000602082840312156123f4576123f361239e565b5b6000612402848285016123c9565b91505092915050565b600080fd5b6000601f19601f8301169050919050565b7f4e487b7100000000000000000000000000000000000000000000000000000000600052604160045260246000fd5b61245982612410565b810181811067ffffffffffffffff8211171561247857612477612421565b5b80604052505050565b600061248b612394565b90506124978282612450565b919050565b600080fd5b600080fd5b600080fd5b600067ffffffffffffffff8211156124c6576124c5612421565b5b6124cf82612410565b9050602081019050919050565b82818337600083830152505050565b60006124fe6124f9846124ab565b612481565b90508281526020810184848401111561251a576125196124a6565b5b6125258482856124dc565b509392505050565b600082601f830112612542576125416124a1565b5b81356125528482602086016124eb565b91505092915050565b6000606082840312156125715761257061240b565b5b61257b6060612481565b9050600082013567ffffffffffffffff81111561259b5761259a61249c565b5b6125a78482850161252d565b600083015250602082013567ffffffffffffffff8111156125cb576125ca61249c565b5b6125d78482850161252d565b60208301525060406125eb848285016123c9565b60408301525092915050565b60008115159050919050565b61260c816125f7565b811461261757600080fd5b50565b60008135905061262981612603565b92915050565b600060c082840312156126455761264461240b565b5b61264f60c0612481565b9050600061265f848285016123c9565b6000830152506020612673848285016123c9565b6020830152506040612687848285016123c9565b604083015250606061269b848285016123c9565b60608301525060806126af848285016123c9565b60808301525060a06126c38482850161261a565b60a08301525092915050565b600073ffffffffffffffffffffffffffffffffffffffff82169050919050565b60006126fa826126cf565b9050919050565b61270a816126ef565b811461271557600080fd5b50565b60008135905061272781612701565b92915050565b6000604082840312156127435761274261240b565b5b61274d6040612481565b9050600061275d84828501612718565b600083015250602082013567ffffffffffffffff8111156127815761278061249c565b5b61278d8482850161252d565b60208301525092915050565b600060ff82169050919050565b6127af81612799565b81146127ba57600080fd5b50565b6000813590506127cc816127a6565b92915050565b6000608082840312156127e8576127e761240b565b5b6127f26080612481565b9050600082013567ffffffffffffffff8111156128125761281161249c565b5b61281e8482850161252d565b600083015250602082013567ffffffffffffffff8111156128425761284161249c565b5b61284e8482850161252d565b602083015250604082013567ffffffffffffffff8111156128725761287161249c565b5b61287e8482850161252d565b6040830152506060612892848285016127bd565b60608301525092915050565b60006128a9826126cf565b9050919050565b6128b98161289e565b81146128c457600080fd5b50565b6000813590506128d6816128b0565b92915050565b6000606082840312156128f2576128f161240b565b5b6128fc6060612481565b9050600061290c848285016128c7565b6000830152506020612920848285016127bd565b602083015250604082013567ffffffffffffffff8111156129445761294361249c565b5b6129508482850161252d565b60408301525092915050565b6000606082840312156129725761297161240b565b5b61297c6060612481565b9050600082013567ffffffffffffffff81111561299c5761299b61249c565b5b6129a8848285016128dc565b600083015250602082013567ffffffffffffffff8111156129cc576129cb61249c565b5b6129d8848285016128dc565b602083015250604082013567ffffffffffffffff8111156129fc576129fb61249c565b5b612a08848285016128dc565b60408301525092915050565b60006101608284031215612a2b57612a2a61240b565b5b612a3560c0612481565b90506000612a45848285016123c9565b600083015250602082013567ffffffffffffffff811115612a6957612a6861249c565b5b612a758482850161255b565b6020830152506040612a898482850161262f565b60408301525061010082013567ffffffffffffffff811115612aae57612aad61249c565b5b612aba8482850161272d565b60608301525061012082013567ffffffffffffffff811115612adf57612ade61249c565b5b612aeb848285016127d2565b60808301525061014082013567ffffffffffffffff811115612b1057612b0f61249c565b5b612b1c8482850161295c565b60a08301525092915050565b600067ffffffffffffffff821115612b4357612b42612421565b5b602082029050602081019050919050565b600080fd5b600060a08284031215612b6f57612b6e61240b565b5b612b7960a0612481565b90506000612b89848285016123c9565b6000830152506020612b9d848285016123c9565b6020830152506040612bb184828501612718565b6040830152506060612bc5848285016123c9565b606083015250608082013567ffffffffffffffff811115612be957612be861249c565b5b612bf58482850161252d565b60808301525092915050565b6000612c14612c0f84612b28565b612481565b90508083825260208201905060208402830185811115612c3757612c36612b54565b5b835b81811015612c7e57803567ffffffffffffffff811115612c5c57612c5b6124a1565b5b808601612c698982612b59565b85526020850194505050602081019050612c39565b5050509392505050565b600082601f830112612c9d57612c9c6124a1565b5b8135612cad848260208601612c01565b91505092915050565b60008060408385031215612ccd57612ccc61239e565b5b600083013567ffffffffffffffff811115612ceb57612cea6123a3565b5b612cf785828601612a14565b925050602083013567ffffffffffffffff811115612d1857612d176123a3565b5b612d2485828601612c88565b9150509250929050565b612d37816125f7565b82525050565b6000602082019050612d526000830184612d2e565b92915050565b612d61816123a8565b82525050565b612d70816125f7565b82525050565b612d7f8161289e565b82525050565b612d8e81612799565b82525050565b600081519050919050565b600082825260208201905092915050565b60005b83811015612dce578082015181840152602081019050612db3565b83811115612ddd576000848401525b50505050565b6000612dee82612d94565b612df88185612d9f565b9350612e08818560208601612db0565b612e1181612410565b840191505092915050565b6000606083016000830151612e346000860182612d76565b506020830151612e476020860182612d85565b5060408301518482036040860152612e5f8282612de3565b9150508091505092915050565b60006060830160008301518482036000860152612e898282612e1c565b91505060208301518482036020860152612ea38282612e1c565b91505060408301518482036040860152612ebd8282612e1c565b9150508091505092915050565b600061016083016000830151612ee36000860182612d58565b506020830151612ef66020860182612d67565b506040830151612f096040860182612d67565b506060830151612f1c6060860182612d67565b506080830151612f2f6080860182612d67565b5060a0830151612f4260a0860182612d67565b5060c0830151612f5560c0860182612d58565b5060e0830151612f6860e0860182612d58565b50610100830151612f7d610100860182612d58565b50610120830151612f92610120860182612d58565b50610140830151848203610140860152612fac8282612e6c565b9150508091505092915050565b60006020820190508181036000830152612fd38184612eca565b905092915050565b612fe4816123a8565b82525050565b6000602082019050612fff6000830184612fdb565b92915050565b600060608301600083015184820360008601526130228282612e1c565b9150506020830151848203602086015261303c8282612e1c565b915050604083015184820360408601526130568282612e1c565b9150508091505092915050565b600061016082019050613079600083018e612fdb565b613086602083018d612d2e565b613093604083018c612d2e565b6130a0606083018b612d2e565b6130ad608083018a612d2e565b6130ba60a0830189612d2e565b6130c760c0830188612fdb565b6130d460e0830187612fdb565b6130e2610100830186612fdb565b6130f0610120830185612fdb565b8181036101408301526131038184613005565b90509c9b505050505050505050505050565b7f4e487b7100000000000000000000000000000000000000000000000000000000600052603260045260246000fd5b7f4e487b7100000000000000000000000000000000000000000000000000000000600052601160045260246000fd5b600061317e826123a8565b9150613189836123a8565b9250827fffffffffffffffffffffffffffffffffffffffffffffffffffffffffffffffff038211156131be576131bd613144565b5b828201905092915050565b60006131d4826123a8565b91507fffffffffffffffffffffffffffffffffffffffffffffffffffffffffffffffff820361320657613205613144565b5b600182019050919050565b600082825260208201905092915050565b7f5468657265206d757374206265206174206c65617374206f6e6520626f78206960008201527f6e20746f74616c00000000000000000000000000000000000000000000000000602082015250565b600061327e602783613211565b915061328982613222565b604082019050919050565b600060208201905081810360008301526132ad81613271565b9050919050565b7f4e487b7100000000000000000000000000000000000000000000000000000000600052602260045260246000fd5b600060028204905060018216806132fb57607f821691505b60208210810361330e5761330d6132b4565b5b5091905056fea2646970667358221220fc380819b84977e67571fa2c015e81d2d8a722ca3cca8edcc4948e8e78bf05ca64736f6c634300080d0033",
  "immutableReferences": {},
  "source": "// SPDX-License-Identifier: AGPL\npragma solidity ^0.8.13;\n\nimport \"./Types.sol\";\nimport \"./Crowdfunding.sol\";\n\ncontract SupplyChains {\n\n  mapping(uint256 => SupplyChain) public supplychains;\n\n  mapping(uint256 => mapping(uint256 => bool)) preparedBoxes;\n  mapping(uint256 => mapping(uint256 => bool)) distributedBoxes;\n  mapping(uint256 => mapping(uint256 => bool)) deliveredBoxes;\n\n  uint256 public NumberOfSupplyChains = 0;\n\n\n  function StartSupplyChain(Campaign memory _campaign, BoxSellRef[] memory _boxes) external {\n    // get the supplychain related to campaign id\n    SupplyChain storage supplychain = supplychains[_campaign.id];\n\n    supplychain.campaignRef = _campaign.id;\n    supplychain.isAnimalDelivered = false;\n    supplychain.isAnimalProcessed = false;\n    supplychain.areBoxesPrepared = false;\n    supplychain.areBoxesDistributed = false;\n    supplychain.areBoxesDelivered = false;\n\n    uint totalNumOfBoxes = 0;\n    for (uint256 index = 0; index < _boxes.length; index++) {\n      BoxSellRef memory box = _boxes[index];\n      totalNumOfBoxes += 1;\n      preparedBoxes[_campaign.id][box.id];\n      distributedBoxes[_campaign.id][box.id];\n      deliveredBoxes[_campaign.id][box.id];\n    }\n    require(totalNumOfBoxes > 0, \"There must be at least one box in total\");\n\n    supplychain.totalBoxes = totalNumOfBoxes;\n    supplychain.preparedBoxes = 0;\n    supplychain.deliveredBoxes = 0;\n    supplychain.receivedBoxes = 0;\n\n    // import stakeholders from campaign\n    supplychain.stakeholders = _campaign.stakeholders;\n\n    NumberOfSupplyChains++;\n  }\n\n  /*\n  * Retrieve a supplychain by campaign id\n  */\n  function getSupplyChainById(uint256 _campaignId) public view returns (SupplyChain memory) {\n    return supplychains[_campaignId];\n  }\n\n  /*\n  * Mark the animal of a campaign as delivered (to the butcher)\n  */\n  function markAnimalAsDelivered(uint256 _campaignId) public {\n    SupplyChain storage supplychain = supplychains[_campaignId];\n\n    // verify that the sender is the farmer\n    require(msg.sender == supplychain.stakeholders.farmer.owner);\n    supplychain.isAnimalDelivered = true;\n  }\n\n  /*\n  * Mark the animal as processed by the butcher\n  */\n  function markAnimalAsProcessed(uint256 _campaignId) public {\n    SupplyChain storage supplychain = supplychains[_campaignId];\n\n    // verify that the sender is the butcher\n    require(msg.sender == supplychain.stakeholders.butcher.owner);\n    supplychain.isAnimalProcessed = true;\n  }\n\n  /*\n  * Check if all boxes are prepared by the butcher\n  */\n  function areAllBoxesPrepared(uint256 _campaignId) public view returns (bool) {\n    SupplyChain memory supplychain = supplychains[_campaignId];\n\n    for (uint256 index = 0; index < supplychain.totalBoxes; index++) {\n      if (!preparedBoxes[_campaignId][index]) {\n        return false;\n      }\n    }\n    return true;\n  }\n\n  /*\n  * Check if all boxes are distributed by the delivery service\n  */\n  function areAllBoxesDistributed(uint256 _campaignId) public view returns (bool) {\n    SupplyChain memory supplychain = supplychains[_campaignId];\n\n    for (uint256 index = 0; index < supplychain.totalBoxes; index++) {\n      if (!distributedBoxes[_campaignId][index]) {\n        return false;\n      }\n    }\n    return true;\n  }\n\n  /*\n  * Checl if all boxes are delivered by the customers\n  */\n  function areAllBoxesDelivered(uint256 _campaignId) public view returns (bool) {\n    SupplyChain memory supplychain = supplychains[_campaignId];\n\n    for (uint256 index = 0; index < supplychain.totalBoxes; index++) {\n      if (!deliveredBoxes[_campaignId][index]) {\n        return false;\n      }\n    }\n    return true;\n  }\n\n  /*\n  * Check if the supply chain is completed\n  */\n  function isCompleted(uint256 _campaignId) external view returns (bool) {\n    SupplyChain memory supplychain = supplychains[_campaignId];\n    return (supplychain.isAnimalDelivered && supplychain.isAnimalProcessed && supplychain.areBoxesPrepared && supplychain.areBoxesDistributed && supplychain.areBoxesDelivered);\n  }\n}\n",
  "sourcePath": "/Users/cassolseba/VSCode/blockchain/146157_Blockchain/smart_contracts/contracts/SupplyChains.sol",
  "compiler": {
    "name": "solc",
    "version": "0.8.13+commit.abaa5c0e.Emscripten.clang"
  },
  "schemaVersion": "3.4.14",
  "updatedAt": "2023-08-10T20:50:20.570Z",
  "devdoc": {
    "kind": "dev",
    "methods": {},
    "version": 1
  },
  "userdoc": {
    "kind": "user",
    "methods": {},
    "version": 1
  }
}